:020000040000FA
:10000000C00E0020C10000006DB00000FD630000C4
:10001000FFFFFFFFFFFFFFFFFFFFFFFFFFFFFFFFF0
:10002000FFFFFFFFFFFFFFFFFFFFFFFFC9D1000042
:10003000FFFFFFFFFFFFFFFF75B90000B9E90000F8
:1000400035010000350100003501000035010000D8
:1000500035010000350100004D5900003501000058
:10006000F9260000FFFFFFFF350100003501000009
:10007000396200003501000035010000FFFFFFFF7D
:10008000FFFFFFFF350100003501000035010000D2
:100090003501000035010000350100003501000088
:1000A0003501000035010000350100003501000078
:1000B0003501000035010000F9B2000035010000F3
:1000C0002048804720488047204800472048016951
:1000D000002908D14169002905D18169002902D18F
:1000E000C169002909D01B48C1680901090D00290F
:1000F0000ED005290CD006290AD0BFF34F8F164821
:100100001649016016491548C860BFF34F8FFEE7D6
:10011000114801681148884200D0704711481249BF
:1001200001600D48114901607047FEE7FEE7FEE7F8
:10013000FEE7FEE7FEE700000D480E490C4A0E4BB5
:1001400070470000CD000000CDE900007D010000F7
:100150000003084080010840000000200400FA0568
:1001600000ED00E0008108400100000000000000F8
:10017000C0020020C00E0020C002002000F002F8E3
:1001800000F04EF80CA030C8083824182D18A246EC
:10019000671EAB4654465D46AC4201D100F040F8C4
:1001A0007E460F3E0FCCB6460126334200D0FB1AE6
:1001B000A246AB46334318476480010084800100A7
:1001C000103A02D378C878C1FAD8520701D330C8A0
:1001D00030C101D504680C60704700000023002482
:1001E00000250026103A01D378C1FBD8520700D36E
:1001F00030C100D50B60704710B5662902D110F0F0
:10020000B1FA10BD002010BD1FB501F0CFFB0400F6
:100210000020002110F0C2F8E0601FBD10B510BD35
:1002200002F07AF81146FFF7EFFF0FF0F7FA02F04D
:1002300092F803B4FFF7F2FF03BC02F01FF90000CD
:100240000FB41CB50C0007AA009001D00019401E85
:10025000084B7B4469460190069801F024FB002C72
:1002600003D06946002001F031FB1CBC08BC04B07F
:100270001847000081160000F3B50446002081B045
:1002800020622046E168884700287AD0252802D0DD
:100290006268A16871E0E16820460025884706464B
:1002A0000020E0610746A0612A2E0AD030460FF0F8
:1002B00061F8002827D0B8000019303E0090866110
:1002C00019E00298BA00121902C891610290204602
:1002D000E1688847012F064617D1E06900281FDA38
:1002E000202085431CE000980A218069484300993A
:1002F0008019303888612046E168884706460FF04B
:1003000039F80028EFD1012F0AD02E2E08D120462F
:10031000E16888470646202005437F1C022FC3DB87
:10032000A069002803DA4042A06101200543E807E4
:1003300001D010208543002E23D0304641381928A3
:1003400003D80120C00205432036204625603146EF
:10035000029A1546FFF750FF00280BD0012806D05F
:10036000ED1DE808C000083002908AE709E02D1D65
:10037000029586E762683046A1689047206A401C73
:100380007EE7206AFEBD00000346F0B50B439B07E5
:100390002DD1244DEF01042A29D308C810C95E1BB2
:1003A0009E43121F3E4017D0D8B2E1B2401A310628
:1003B000014310D198B2A1B2401A310401430AD1CD
:1003C00018022102000A090A401A3102014302D12F
:1003D000180E210E401AF0BDA342DCD018BA21BA83
:1003E000884201D90120F0BD0020C043F0BD002AA1
:1003F00001D10020F0BD03780C78401C491C002B73
:100400000DD0A3420BD1521E09D003780C78401CAA
:10041000491C002B03D0A34201D1521EEBD1181B63
:10042000F0BD00000101010101E004C0091F042921
:10043000FBD28B0701D50280801CC90700D0027057
:10044000704700290BD0C30702D00270401C491E20
:10045000022904D3830702D50280801C891EE3E7AA
:100460000022EEE70022DFE7F8B507460B463946E3
:100470001943890713D1164CE601042A0FD302CB86
:100480000D1B8D43354202D102C0121FF5E7CBB2DE
:100490000370401C521E002B13D0090AF7E7002AF4
:1004A00014D01978521E5B1C0170401C002908D022
:1004B000002A0BD01978521E5B1C0170401C0029C9
:1004C000EDD1002A02D01146FFF7CAFF3846F8BD29
:1004D00001010101002203098B4273D3030A8B42FD
:1004E00058D3030B8B423CD3030C8B4221D312E035
:1004F00003460B437FD4002243088B4274D3030985
:100500008B425FD3030A8B4244D3030B8B4228D325
:10051000030C8B420DD3FF22090212BA030C8B424B
:1005200002D31212090265D0030B8B4219D300E0EB
:10053000090AC30B8B4201D3CB03C01A5241830B70
:100540008B4201D38B03C01A5241430B8B4201D320
:100550004B03C01A5241030B8B4201D30B03C01A49
:100560005241C30A8B4201D3CB02C01A5241830AC3
:100570008B4201D38B02C01A5241430A8B4201D3F2
:100580004B02C01A5241030A8B4201D30B02C01A1C
:100590005241CDD2C3098B4201D3CB01C01A524183
:1005A00083098B4201D38B01C01A524143098B420C
:1005B00001D34B01C01A524103098B4201D30B01F5
:1005C000C01A5241C3088B4201D3CB00C01A52411A
:1005D00083088B4201D38B00C01A524143088B42DF
:1005E00001D34B00C01A5241411A00D20146524178
:1005F000104670475DE0CA0F00D04942031000D397
:100600004042534000229C4603098B422DD3030AEB
:100610008B4212D3FC22890112BA030A8B420CD3FB
:10062000890192118B4208D3890192118B4204D324
:1006300089013AD0921100E08909C3098B4201D3A4
:10064000CB01C01A524183098B4201D38B01C01ADE
:10065000524143098B4201D34B01C01A5241030955
:100660008B4201D30B01C01A5241C3088B4201D304
:10067000CB00C01A524183088B4201D38B00C01AB1
:100680005241D9D243088B4201D34B00C01A524188
:10069000411A00D20146634652415B10104601D315
:1006A0004042002B00D54942704763465B1000D39F
:1006B000404201B50020C046C04602BD70477047A9
:1006C000704700000246C80FC00781434B0030B599
:1006D0004B405B009B0D20D01923DB06C91801237A
:1006E0001B05994220DB0324A40704251346AB40D5
:1006F0000BD3002B04D1EB0613409B00E34204D440
:1007000001246407002312195941FF231B05994254
:100710000BD2C9000143500F09E0CB0204D50143BD
:100720000803024305D0054830BDFF21C905084331
:1007300030BD084607210905884330BD0000C07F51
:10074000F0B50C46871A9C410D46861A9D4103D28E
:10075000C01BA141D21963410D0D1F0DC94EEC1BE9
:10076000AE435CD07F057F0D0026002F51D02D05B4
:10077000AC46A943DD020123ED0A1B051D432023DE
:100780001B1B24D41746E740381871412F46E74019
:10079000CC199D402818314661410C0D27D1614488
:1007A0009A4013D50023401C594152000ED14008F5
:1007B000400001224B005205D34207D305204007D9
:1007C000C14201D5B04900E0B0493046F0BD6B00F0
:1007D000002A00D001229A181F23203C1B1B01D5A0
:1007E000002302E0E540281871410C0DD7D0012408
:1007F00024050919C407CD0740084908E40F284318
:100800006144002CD5D00024401C61419A40D0D1D5
:10081000CDE76A05520DD9D1C90FC907D5E79C4D5F
:100820004E00002801D0012400E0002434195F00AC
:10083000002A01D0012600E00026BE19954FAC42E7
:100840000CD8AE420AD8B44206D001256D05EC4260
:10085000BCD010461946F0BD9942FCD00020394664
:10086000F0BDF0B51FB40C460F46811A9F412546D6
:10087000861A9D4106D20125ED076F40401ABC4102
:1008800052187B41210D1E0D8D1BAC467D4D8D43B5
:100890007ED075056D0D7CD00D05AE46AC431B03B7
:1008A0001B0B794D52429D41202366469B1B14D35E
:1008B0001746F740381800260090744160462F46CE
:1008C0000741E41900989D402818664116D47146E6
:1008D00071189A4025D5012320E093182A466A41D1
:1008E0005200002B00D0521C1E23203E9B1B002BCD
:1008F00061DD3541EE1728186641E8D500187641CC
:100900005B1C9A4000D3401C4B05F3181524E340B0
:1009100010D3002B52D071467118D30FC01802D3D8
:10092000491C05B0F0BD0123DB079A42F9D140080C
:100930004000F6E701225205B21801D1002853D039
:100940000123CC0ADB029943891E002A08D1020C3C
:1009500003D0020C0004103902E0024600202039C6
:100960000023550B05D112020823550B01D152016A
:100970000D23550C01D112011B1DD50C01D1920084
:100980009B1C150D01D152005B1C2025EE1A01E0C5
:100990002CE022E00546F54015439840CA1AE107CD
:1009A00069181305C918002ABBDA03204007081884
:1009B000C10FC9070FE071466118B2E7F10740089F
:1009C0000843711071444A000CD001235B059A4220
:1009D000A7D2C90FC9070020A3E74905490D26D1B1
:1009E000002001E00028F4D100219AE7284D66009C
:1009F000002801D0012100E0002171185F00002AC9
:100A000001D0012600E00026BE19224FA94210D8CD
:100A1000AE420ED8B14208D001256D05E94206D09C
:100A20001946A802414010467BE79C4201D021466E
:100A300077E70020394674E710B50C465C4005D5D1
:100A40000124E4076340FFF70CFF10BDFFF778FEB9
:100A500010BD30B40C465C4004D50124E40763406B
:100A600030BC6DE630BCFCE670B50124E4076140A3
:100A70000D465D4002D4FFF763FE70BD6340FFF793
:100A8000F0FE70BDFF0700000000F0FF0000F07FE7
:100A90000000E0FF0000F87FF0B5F94D0C091E09D9
:100AA0002C402E402F468BB0A7437DD0B543FCD0C1
:100AB000002E7AD0002CFCD00D465D40ED0F254372
:100AC000AC1BFF25AD0464190894C502440DC9028E
:100AD0002143500DDC0204430120C00701430443BD
:100AE000D2020191200C110C00958C460104234682
:100AF0008B430A9161460904E24D8A430991010A38
:100B00007D4449198039097805464D4301266D1801
:100B1000F605751B6943C90C640B891C4C436418AA
:100B2000B5012C1B250C2E04B4434C434D43210C22
:100B3000691889090591009DE90701D00121C907BC
:100B400004912C4601996708CD072F434C08059D59
:100B5000E10B4D432D0C29466646754302950D4623
:100B600045432E46029D7D1BB44100950D465D43D5
:100B700001942C0C2F040D465543AE462D0C3D43DD
:100B8000029503947546049C2D04641B049406D2BC
:100B9000029C039D641C002675410395029401ACE0
:100BA00070CC009F7D1B01E03EE162E1B44109048D
:100BB0000095079101940599A4086143090C0C461E
:100BC0004443650BE7040C4666467443A646640B33
:100BD0003C43039502947446049DE4042C1B049446
:100BE00006D2029C039D641C002675410395029465
:100BF00001AC70CC009F7D1BB44101940C465C435A
:100C00000095650FE7000C465443A646640F3C432D
:100C1000039502947446049DE4002C1B049406D2B0
:100C2000029C039D641C002675410395029401AC4F
:100C300070CC009F7D1BB441AE09AF06049DC90076
:100C4000AD092F43049DA406AD060495079D3443CA
:100C500069180791059DE10B4D432D0C2946664609
:100C6000754302950D4645432E46029D7D1BB441BA
:100C700000950D465D4301942C0C2F040D46554301
:100C8000AE462D0C3D43029503947546049C2D04FD
:100C9000641B049406D2029C039D641C00267541CB
:100CA0000395029401AC70CC009F7D1BB44101946C
:100CB0008C050694079C890A611800950791019C90
:100CC0000599A4086143090C0D464543680BEF04E0
:100CD0000D46644665436C0B3C43049FED047D1B4D
:100CE000AC4602D20025641C6841009E019D371B62
:100CF00085410846584301950C46460FC5005443AC
:100D0000600F28436546E4002C1B02D20025401CDE
:100D10006E41019D3F1AB5412846BD098006284312
:100D20008446A009BF064E020699A406761807431A
:100D3000079D002068410A99079019430020099BEC
:100D400000906046FF1913434041E20F64003A43AC
:100D5000A4460446D71A8C41A04203D90120009032
:100D600020463A46C70F941840416246D20F2243AC
:100D7000644664000494009CBE466400D71AA446EE
:100D8000044602978C417746002F01D1A04204D936
:100D90006046401C8446029A2046C40FA64694181A
:100DA0004041049A0546D20F224364466400D31A98
:100DB0008D417146002901D1A84202D928461A4620
:100DC000641C10430122002800D016436102002059
:100DD000079B891904465C410223002C02DB491859
:100DE00013466441089DCE0A2D145D194B05670515
:100DF000E10A2C050D1908993E43C9076940002BEB
:100E000008D0934006D30022761C5141002B01D11B
:100E1000760876001C4A002D43DB154241D0AA43D8
:100E20003FD030460BB0F0BD06180D464D41174C73
:100E30007642AC411AD395181C465C41134A6D4268
:100E4000A24113D3012252054C00D4420AD15C00C6
:100E5000D4420BD04B4002D592021143E2E7490045
:100E60004908DFE75940C90FC90718E000200849C1
:100E7000D8E7054801420DD10342F7D0F2E7000060
:100E80000000FF07D06E01000000F07F0000E0FFCF
:100E90000000F87F114859400143C0124140002032
:100EA000C0E70123089A9B069A4205DC03225207F9
:100EB0008918C90FC907B5E7052252078918074ADB
:100EC0001143D2125140ADE770B515461C4602469B
:100ED0000B4628462146FFF7DFFD70BDFFFFFF7F71
:100EE0000346CA02400D10B510430A1504D0012470
:100EF000E4072043002A05DB0A4CA21A04D4D040A0
:100F0000FF2A00DD002010BD4A00002B01D0012087
:100F100000E00020101801225205D042F2D8C81774
:100F2000C04310BD1E0400001F22030C02D10F227B
:100F3000000402D0030E03D004E0002001467047F5
:100F40000002083A030F01D10001121F830F01D1E3
:100F50008000921E002801DB4000521E120551182D
:100F60004205C012411810467047C10FC90700D092
:100F70004042012292071143D6E701218907D3E7B6
:100F8000F0B58B4C0F09254689B0BD437BD01D09B8
:100F90002646AE43FAD00E465E402740F60F3E434B
:100FA000254071D024012142FBD0FF24AD19A404B7
:100FB0002D1B039501252D05DB02DB0AC9022B43FE
:100FC000C90A29431E010901040F130F050121431A
:100FD0001701880B820391432D098C46A90B1E43F0
:100FE0008A039543B30B9A0396433F09BA0B9403C4
:100FF000A74302962E467E430497B6464E19D7194C
:101000000C460196544305977E43371B7646BF1B1B
:101010003601B646BE0B361900967646BC04371923
:10102000009C01D3641C00946400002F01D00126B1
:101030003443029E049F754366467E4304967600C1
:1010400034196E0034190094029C019E1C196643E9
:10105000751BAE46069465464519059C05956C437F
:10106000594375460891691A0191049E01465143FE
:10107000A41B0491611A009C0791E10605D0610947
:101080000122114302E072E06EE06109089D002731
:101090002C0A2D066918049D7C412A0A2D06691820
:1010A000019D6241AC0DAD026D185441079A910D3E
:1010B000920255196141029A644658435443069B73
:1010C000059A5A43121A131B9A0E9B015B187A4118
:1010D000010B0005C3185141220A200644195A4148
:1010E0009A4200D2491C01204002814203D31523B9
:1010F0000226F64302E014230326F6432020C51AF5
:10110000A9401746AF40DA400A4320460399D84029
:101110000914731819055118039A3843D20751401E
:10112000AC4009D00122944006D30022401C51411A
:10113000002C01D1400840001E4A934212D30122E4
:1011400003989206904207DB0520400709181A48C9
:101150000143C012414004E0032040070818C10FBA
:10116000C907002009B0F0BD0020F107FAE7051813
:101170000C464C4111486D42A04115D394181A46B3
:101180005A410E48644290410ED301204A00400566
:10119000824209D35A00824206D35940C90F084AF5
:1011A000C90700201143DDE700200649DAE7000007
:1011B0000000FF07FE070000FFFFFF7F0000E0FFC9
:1011C0000000F07F0000F87F0121C90501234118CC
:1011D00042001B06D3185B0E0AD0C1100722D206AC
:1011E000891840075242D14201D5520089187047F0
:1011F000090208D50146002A03D0C10FC907002003
:10120000704710467047420202D0002002497047E2
:10121000072109050143F4E70000F87FF0B5FF2539
:101220002D04C609C209FF2704462E400137CB0909
:101230003E4348402A402B400746002A6BD0002BF3
:1012400069D0AA4267D0AB4265D0002800DA3246A6
:101250000125ED0529432C4309022002090AD21A6F
:101260004B0C7F24E31A434C000A7C44E35C7D244E
:101270002404121914145B00A218884201D3521CD2
:1012800000E0400049420C465C4324115C43DB0112
:101290006415E318040A5C43C502200D0C46444360
:1012A0006419250A5D432303EC0C0D4665430003D6
:1012B0000019EB184C42A34201D35B18401CD40523
:1012C0002018002B07D05B00C91804D3401C00294C
:1012D00001D1400840003F2189048A4209D3002AF5
:1012E00008DC1106090F04D0032149074018C00F7C
:1012F000C007F0BD01224100120689187F22520664
:101300009142F6D205214907C84201D59010F0BD9F
:10131000FF20C005F0BD002F00DA32461648AA4271
:1013200007D2AB4205D21902090E17D0F80FC00739
:10133000F0BDFF2563002D06AB42F9D84900A94254
:10134000F6D8AB4201D1A942F2D0A94201D1002185
:1013500001E061004908D0050843F0BD1102090E03
:10136000FBD0FF200243D005F0BD0A4601461046DF
:1013700054E70000E66701000000C07F10B5014699
:101380009E240002CA15A307002A02D01843002A8F
:1013900004DBA21A002A0CDDD04010BD1206120E8A
:1013A00001D140004008A21A03D4D0404042002896
:1013B000F3DDFF2248001206904201D9002010BD43
:1013C000C817C043584010BD1F22030C02D10F2282
:1013D00000041CD0030E01D10002083A030F01D112
:1013E0000001121F830F01D18000921E002801DB33
:1013F0004000521ED2055118021251181922904075
:1014000004D3491C002801D1490849000846704707
:10141000C10FC90700D04042012292071143D3E710
:1014200001218907D0E7000010B5FF22C30D13404A
:1014300009D05A4007D0914205DA5C42A14202DD50
:10144000C905081810BDC40FE407002B06D0002AF8
:1014500006D0002902DBFF20C0050443204610BD52
:101460004102FCD0004810BD0000C07F10B500F064
:10147000A1FA006810BD10B5044600F09BFA0460A4
:1014800010BD00007047FFB50C461E468FB003CA62
:10149000089009914F007D0D00D16D1E0021084676
:1014A0000020C0460321099A89050840002A03DA72
:1014B0008200801840080840800D01280A9002DD53
:1014C0000020C0430A90089807430DD0F048F14926
:1014D000281848430714189800281DD07542291E63
:1014E0001DDD0A9842421BE01898012802D0002016
:1014F000302104E00020F24305E02154401CB042BA
:10150000FBDB30460022189B002121540F998B6091
:101510000A60486013B0F0BDBD1B6D1CDFE70A9A7E
:10152000002900DA69420BA800F0CAFA0BAB07CB1E
:1015300003AB07C30899099800F02EFB6B4607C35D
:101540000146D5480918002D00910BDDD2490398BA
:101550000A9A49424018002303A90390684600F004
:101560008BFD08E003990A9A0023081803A9039049
:10157000684600F02BFD6B4607C30004000C03D047
:101580000020C043410800E01046189A002A03D00A
:101590000022009215461EE0751E05D400F00EFADA
:1015A000303262556D1EF9D501220843079602D0EC
:1015B00000227F1C04E02078302801D100227F1E09
:1015C000002A069787D01EE0112D07DA00F0F6F901
:1015D000303262556D1C02460A43F5D1084303D0F0
:1015E0000098002819D00EE00021681E05E0235C59
:1015F000625C63542254401E491C8142F7DBA81BE5
:10160000401E07950690079A18990020A0540F983D
:10161000079B069A81600CC07CE711260020189079
:1016200059E7D21DF0B50D460446D10893B0C90064
:1016300003C90C900D910DF001FE02460D98C00FEC
:1016400001D02D2007E02068810701D52B2002E082
:101650004007C00F4001032A0F9001D0072A05DB85
:1016600003462946204600F0E7F90EE1207880067F
:1016700001D5E76900E006272846652D04D06628D5
:1016800014D0672D69D12DE00020112F009001DBCF
:10169000112300E07B1C0CAA03A910A8FFF7F3FE9E
:1016A0001199002610987D1C0E9142E001203B46C6
:1016B0000CAAC0070B900120009003A910A8FFF707
:1016C000E2FE119D12981099002600280E9501D176
:1016D000781C0D18781B02D446427D1C761EE81B30
:1016E00000903AE0012F00DA01270020112F00902E
:1016F00001DD112300E03B460CAA03A910A8FFF767
:10170000C2FE11993D46109800260E9121780907D6
:101710000BD40E99A94200DA0D4603A9012D04DD70
:101720004A19203AD27F302A06D0B84201DA011D88
:1017300004DA012100910FE06D1EEFE7002802DCC2
:1017400086192D1A03E0411CA94200DD0D46801BBD
:10175000401C00900120C0070B902078000705D4A2
:101760000098A84202DB0020C04300906946002098
:10177000C8720B98012102AF0337C907884225D0F0
:10178000022010902B2011900B9800280BDA404279
:101790000B902D20119006E00B9800F0BDFC30312D
:1017A0007F1E0B9039701099481E00291090F3DCB1
:1017B0000B980028F0D111987F1E38702088000502
:1017C00001D5452000E065207F1E387001A8C01BB0
:1017D000C01D0B900F98002800D0012041190098DF
:1017E000C01709180B980818A169081A401EA061B3
:1017F0002078C00602D42046C046C0460F98002874
:1018000005D06268A1689047206A401C2062207859
:10181000C00625D52046C046C04621E0002E07DB85
:101820000E98B04204DD03A86268805DA16802E002
:101830006268A16830209047206A761C401C2062B4
:101840000098401E002800900AD100F0AFF8C06850
:1018500062680168405CA1689047206A401C206271
:1018600028466D1E0028D9DC07E062683878A16838
:101870007F1C9047206A401C20620B99481E00295B
:101880000B90F2DC2046C046C046032042E6000032
:1018900001FCFFFF104D0000E1DFFFFF01694A1C62
:1018A00002610878704700B58FB002910021059160
:1018B0000549019379440391114604906846FEF767
:1018C000DBFC0FB000BD0000E5FFFFFF0A681070F1
:1018D000521C0A6070470CC908399A4202D2531C44
:1018E0000B6010707047000070B505464800440D4D
:1018F000124B0020002C0AD0634008D09A4206DA2E
:101900006642B24203DD12054019514170BD002C00
:1019100008D0002B09D0C90FC907002AF6DB084AF6
:10192000114370BDC90FC90770BD28460A03104393
:1019300002D00020034970BD284670BDFF0700009B
:101940000000F07F0000F87F10B5FF231B06440065
:101950009C421DD84C009C421AD80346124A0B43A5
:1019600007D4401A02D3EFF3008010BDEFF30080DC
:1019700010BD081A06D2EFF3008001219043C90779
:10198000084302E0EFF30080904380F3008810BD2D
:101990000D231B041A4204D01146002000F0D0FB96
:1019A00010BD00F0ADFC10BD000000900048704775
:1019B0008002002000487047600200200B4670B58E
:1019C000024689078008084319469D08141AA94150
:1019D00025090807054308092C194841250A01066D
:1019E0000D43010A2C194141200C0D0428430D0C14
:1019F00000194D41002140194D41C00869070843B5
:101A0000E908840F8D002543840024184D412419D2
:101A10006D41121BAB4107E00925ED432C11521912
:101A200063410024401C61411C460A250026551BC9
:101A3000B441F1D270BD0000F8B51F460446012341
:101A40000068DB02032601461840072A05DB002850
:101A500001D017A506E017A504E0002801D016A5BF
:101A600000E016A5102081432160A069C01E002F50
:101A7000A06101D0401EA0612046C046C046002F94
:101A800009D038466268A1689047206A401C2062ED
:101A9000C01C206206E0206AFAE762682878A16824
:101AA0006D1C9047761EF8D22046C046C046F8BD51
:101AB0004E414E006E616E00494E4600696E6600F2
:101AC000F7B516468AB0334878446C4603467C33F3
:101AD000C06F5A689B680DC42E487844763003ACBA
:101AE0000DC80DC43720C001081837211B30FEF780
:101AF000FFFC05460C46803D1B3C02D5644201209C
:101B000000E000200027099010E0E0070CD00C2036
:101B100020497843794432464C39411868460123BC
:101B200000F054FA6B4607C364107F1C002CECD104
:101B3000184F7F442E3F16E0E80712D02001C0194D
:101B40000EC80691089307920068F04201D19819D7
:101B500008903246012306A903A800F037FA03AB28
:101B600007C36D10641C002DE6D10998002806D02B
:101B700032466946012303A800F07EFA05E00123FE
:101B80003246694603A800F021FA0A9B07C30DB04C
:101B9000F0BD000094600100034640000A4610B505
:101BA000400D0BD00121C9070F24A40200191C030A
:101BB00064082143540D2143D20207E00021012093
:101BC000F2E7D40F490021435200401E0029F8DA01
:101BD000DB0FDB07184310BDFFB50D46144685B07B
:101BE000486851680DF008FB00910190A868A16851
:101BF0000DF002FB02910390A86861680DF0FCFAF9
:101C0000029A12188242029201D2012000E00020C2
:101C1000019A0B18D2180028019202D08A4202D9E8
:101C200003E08A4201D2012000E000200099081858
:101C300000906868A1680DF0DFFA029A12188242DB
:101C4000029201D2012000E00020019A0B18D21864
:101C50000028019202D08A4202D903E08A4201D2CE
:101C6000012000E0002000990818009028682168F1
:101C700040004900400849084018FA49471814E054
:101C800001994000C90F0843009001980299400053
:101C9000C90F08430190029803994000C90F0843F7
:101CA0000290039840007F1E039000980028E7DA16
:101CB0000898002801D0EC4E00E00026B74201DA77
:101CC000012000E00020002804902AD0F71BF8062D
:101CD000C00E15D0029B2021091A039A8B401A438B
:101CE0000392029A019BC2408B401A430292019ACE
:101CF000009BC2408B4000991A430192C140009161
:101D00007B110DD06F460320C11A03D5002182003C
:101D1000B95003E08A008100BA587A50401EF3D5CA
:101D2000374603980299002800D001200143089803
:101D30000291002808460CD0002800D0012001990B
:101D4000019A490508430121D20AC902D20201922F
:101D500000E001210E9B0122D207012B02D0002BB3
:101D600003D013E0002807D120E0904204D890422D
:101D70000CD1019B0B4209D0019B5918019105D14F
:101D80000099491C009101D17F1C009200280DD0C0
:101D9000102108460020C0460498002806D00F985D
:101DA000002803D0082108460020C0462868216882
:101DB000019B009A4840C10F0598C90739430EC0DE
:101DC00009B0F0BDFFB587B0099A08980899536823
:101DD00092684068896896460022039317469446A5
:101DE000089A12685300099A5B0812685200520858
:101DF0009A1A9E4BD4180A9A002A01D0352200E084
:101E0000402206920022012315460492DB07059327
:101E100024E0002D05D175460346039E4D1BB341BA
:101E200009D375466646039B491B049D9841059B53
:101E30007519AC465F4163463B4308D0059B049E41
:101E4000DD0776082E435B080496059301E0521ED9
:101E5000641EC50FED0749184041521C069B9A426B
:101E6000D7DB002D04D17546039A6B1A824101D24B
:101E700003200CE0039A0B466B404240134303D00F
:101E8000014303D0012002E0022000E0002061466F
:101E900001910021009702910A99002905D061461D
:101EA00040020143704B019102E080070023029041
:101EB0009C4201DA012000E0002007003AD01A1B02
:101EC000D006C00E15D0029D2021019C091AC540E4
:101ED0008C402543029C8C4000D001242543019C6A
:101EE0000295009DC4408D4000992C430194C1404F
:101EF000009154111DD06D460221002202290CD1FF
:101F00000320001B07E0002804DB8600AE59002EEA
:101F100000D00122401C0328F5DB081B02D58800F5
:101F20002A5004E08000285810438A00A850491E17
:101F3000E3D51C460A98002802980CD0002800D04F
:101F400001200199019A490508430121D20AC902D9
:101F5000D202019200E00121109B0122D207012B45
:101F600002D0002B03D013E0002807D11FE09042DD
:101F700004D890420CD1019B0B4209D0019B591807
:101F8000019105D10099491C009101D1641C009276
:101F900000280CD0102108460020C046002F06D093
:101FA0001198002803D0082108460020C046089850
:101FB0000999019A009B006809684840C10F079879
:101FC000C907214382600AC00BB0F0BD00B585B0DF
:101FD000019300920A460146002302A8FFF7FCFD88
:101FE00002A807C805B000BDFFB50A461F4685B068
:101FF0000799019301230091014602A8FFF7ECFD28
:1020000002990398049ECA0F4900D20700920F223A
:10201000490892028C1A0021002800DB0C4645007A
:1020200013486D08844214D3079A002A04DA441E28
:102030000026104DF64302E004460D460E461021E0
:1020400008460020C046002F03D004210846002087
:10205000C0462005E90A0843009908436905F20AC9
:102060001143ADE602C0FFFF013C0000FF3F00004E
:10207000FF070000FFFFFF7F00B585B001930092CE
:102080000A460146002302A8FFF79CFE02A807C8E3
:10209000A8E7FFB50A461F4685B0079901930123BB
:1020A0000091014602A8FFF78DFE02990398049E55
:1020B000CA0F4900D20700920F22490892028C1AD7
:1020C0000021002800DB0C46450011486D088442C1
:1020D00014D3079A002A04DA441E00260D4DF64355
:1020E00002E004460D460E46102108460020C04678
:1020F000002F03D0042108460020C0462005E90A2D
:102100000843009908436905F20A114358E60000A4
:10211000FF070000FFFFFF7F01468008081A020941
:102120001018020A1018020C1018C00882001218A9
:102130005200891A01E0401C0A390A29FBD2704773
:10214000C80212D54803400F002804D0C803C0437A
:10215000012188407047EFF300800001000903214E
:102160000907084380F3008870470020704700008B
:10217000F8B5224C4E00069DA6420AD8A64201D1CF
:10218000002806D15E00A64203D8A6420AD1002A42
:1021900008D00D24240425422CD029460020FFF726
:1021A000CFFFF8BD0C461C430CD4994202D0EFF38C
:1021B0000080F8BD904202D0EFF30080F8BDEFF34D
:1021C0000080F8BD09242407E5008B4206D0EFF318
:1021D0000080A043591A06D2284304E0101A05D300
:1021E000EFF30080A04380F30088F8BDEFF3008098
:1021F000A043F1E7009500F007F9F8BD0000E0FF0B
:10220000F0B53D4B02460C461C400020002C63D02C
:102210003A4D8B4366D000296BDB0B0D1D05A9439E
:1022200001252D0529430124FD33E34001D39218F4
:102230004941FF3381339C468B02940D0121234396
:1022400089074C42920200271B198C105D1A04D496
:102250002D1B02D42B466500491992185B41640876
:10226000F4D15C1A08D40125ED07EE175519744115
:1022700002D42A462346491C94185B410122920746
:102280001D46E61B8D4106D4B61A854103D42B4664
:10229000550034467F1924195B415208802AEFD13A
:1022A000234300D0022338460A22D04001D3012222
:1022B00013438A0510436246890A12058918002BC8
:1022C00009D00122D34002D30022401C5141002BEF
:1022D00001D140084000F0BD0B03134307D0C90FE4
:1022E000C907F0BD0803104303D1002901DB1046E4
:1022F000F0BD00202946F0BD0000F07F0000F87F0F
:1023000010B5024800F08AF810BD00000000C07F40
:1023100000487047600200207546FFF7F9FFAE469F
:10232000050069465346C008C000854618B020B570
:10233000FDF702FF60BC00274908B6460026C0C56D
:10234000C0C5C0C5C0C5C0C5C0C5C0C5C0C5403D6D
:1023500049008D46704710B50446C046C046204629
:10236000FDF767FF10BD000082078B079A4237D147
:1023700070B5920F0AD0032402780B78401C491CD8
:10238000002A2BD09A4229D12042F5D11D4EF401CA
:1023900004C808C9951B9543254010D19A4207D11E
:1023A00004C808C9951B9543254008D19A42EFD02F
:1023B00012BA1BBA01209A4200D2404270BD12BA32
:1023C0001BBA2DBA18241000E0401900E140401A51
:1023D00005D12E00E64002D1083CF4D1D01A70BDE0
:1023E00002780B78401C491C002A09D09A4207D178
:1023F00002780B78401C491C002A01D09A42EFD089
:10240000D01A70470101010110B500200249029A5B
:1024100000F004F810BD00000000F87F10B50C4675
:102420001107090F092904D00A290AD008290CD15B
:1024300004E011460820FFF783FE06E0510606D5AA
:1024400001E0510601D50120C007214610BDD1068B
:1024500007D501010909CC084907000E000604430D
:1024600009E0410F20024907000A0143200E00063F
:102470001D22D14101430846E7E700000149182029
:10248000ABBEFEE72600020070478030C160704797
:1024900080220029016801D0114300E091430160CE
:1024A0007047000010B504210348FFF7EEFF034911
:1024B0000120087010BD000000000140080000204D
:1024C00080308068084000D001207047F0B50025BA
:1024D00085B002952E4603950024704F03223C7070
:1024E000234611466E4800F02BF9022200231146C4
:1024F0006B4800F016F9012200231146684800F0ED
:1025000010F900231A461946654800F00AF901211E
:10251000634800F02BF9387800280ED17D273F0161
:102520000220641C0CF092FFBC4202DB002005B0CC
:10253000F0BD5A4800780028F2D05948016B426B30
:102540000905090D6D1802991205120D89180291DD
:102550000399806B761C0005000D08180390052E6A
:10256000BADB28463146FDF7B5FF019031460298A7
:10257000FDF7B0FF044631460398FDF7ABFF074671
:102580002046FEF74DFF47490DF0F4FF464C206111
:10259000FEF71AFE05460E463846FEF741FFFEF7E7
:1025A00013FE0022414BFEF7EBFC2A463346FEF7B2
:1025B00050FAFEF787F83E49FEF730FE3D490DF030
:1025C000D9FFFEF701FE3C4A3C4BFEF7D9FCFEF773
:1025D00079F8E0600198FEF723FF32490DF0CAFF59
:1025E00007460121C902364803F01EFE01283FD0EC
:1025F0003846FEF7E9FD0022324BFEF735FA054674
:102600000E46314938460DF0B5FFFEF7DDFD2A468E
:102610003346FEF741FAFEF755F82C49FEF7FEFD6A
:10262000FEF7D2FD0CF050FF0022294BFEF734FAE2
:10263000284A294BFEF700FA02460B46002027499C
:10264000FEF72AFAFEF73EF8FEF7BEFD244A254BB8
:10265000FEF7FFF9FEF736F823490DF01BFF23497B
:10266000884202D8224988420DDD002020700CE00B
:1026700020493846FEF7D2FD0121A060C90210486A
:1026800003F08EFD07E00121217001216060C90285
:102690000B4803F0CEFD012005B0F0BD080000207E
:1026A000000001400000203A000100200000443FEB
:1026B0000000484200007AC4FED478E92631F03F99
:1026C00000200B4000000440000020410000704149
:1026D00000F4AA4083DBB5DCE1796B3F0000F03FFA
:1026E0006666666666127140000040C0000020C247
:1026F0000000FA428C2EBA3D10B504210348FFF7C2
:10270000DFFE012801D1FFF7CDFE10BD0000014022
:102710008030002A026801D00A4300E08A43026048
:102720007047930830B49B001B1858689207D40E6A
:102730001F22A2409043A1400843586030BC70471C
:102740005B1E12021B04FF3A013A13430B4301685C
:10275000802211400B4303607047CA06D20E026705
:102760004909490141677047016270470029416F7B
:1027700002D00122114301E0490849004167704736
:1027800010B40022072801D9012208389300064A14
:102790009B181A6880000F248440A2438140114393
:1027A000196010BC7047000000200240F0B5374BA4
:1027B000C000C61893B048080E9010010C9088080D
:1027C000069010020B90C8080590100309900809A4
:1027D00004901004089048090A9010050790880991
:1027E000864610060390C80900258446100702900B
:1027F0000020FF24AC4003460C4240D00124AC40F2
:10280000214201D00F2013460E9F274203D0F0270C
:1028100038430C9F3B43069F274204D00F273F02BB
:1028200038430B9F3B43059F274204D00F273F03AC
:102830003843099F3B43049F274204D00F273F049E
:102840003843089F3B430A9F274204D00F273F0588
:102850003843079F3B437746274204D00F273F0664
:102860003843039F3B436746274204D00F24240785
:102870002043029C2343346884431C43346008355E
:10288000361D092DB4DB13B0F0BD0000202002403E
:1028900070B584B0104E00250E4C33460FA2212196
:1028A0000A200195009406F075FC0C2001900F4B56
:1028B0000FA22121029500945B2006F0D5FE33463D
:1028C0000EA2312138200195009406F063FC04B07B
:1028D00070BD000010840000FFFF0000B9D8D7A22F
:1028E000DFD9C1A8DFD9C1A800000000E0FF0000C7
:1028F000404D50383639353700000000D0BBD0BBD2
:10290000DFF7A3A10000000070B5104C0026A079ED
:10291000052809D10E4D012168784840687002D021
:1029200001200AF0FFFC2E70A079042809D10020B4
:102930000AF0F8FC07480078002804D006480BF09D
:1029400083FFA67170BD0548F9E700000E00002066
:10295000D800002030000020646C01006871010084
:10296000F0B5414F0C2638780024404D83B0002844
:102970001BD0787800280BD002F0A0FC03463CA2C4
:10298000312138200095019406F004FC03B0F0BD1D
:1029900002F094FC034639A22821372001960095C5
:1029A000029406F061FE03B0F0BD09F01FFD7978D6
:1029B000354B00290095019419D0344A21210A2071
:1029C00006F0E8FB324B334A21215B20019600954B
:1029D000029406F049FE2C4B2F4A312138200095F5
:1029E000019406F0D7FB0120387003B0F0BD2BA294
:1029F0001521042006F06EFD234B2EA22821042071
:102A00000095019406F0C6FB1F4B1CA2282137201D
:102A100001960095029406F027FE1B4B28A2282160
:102A200085200095019406F0B5FB174B26A23D21A9
:102A300007200095019406F0ADFB134B3A223D218F
:102A4000392001960095029406F004FB214B22A246
:102A50003D21402001960095029406F005FE0120DC
:102A6000387003B0F0BD0000D800002010840000D2
:102A7000D0BBD0BBDFF7A3A1000000005265647398
:102A8000746F6E6572333500FFFF0000DC280000B4
:102A9000E0FF0000F0280000FC28000044464578D4
:102AA0002D47543936D6C7BBDBB5E7B3D8D7D3CF1C
:102AB000B5CDB300C8EDD3B2BCFED3C90000000051
:102AC000C9E8BCC600000000B9CCBCFEB0E6B1BE8F
:102AD00000000000FF7F000056312E312042756952
:102AE0006C64370010B502480BF0AEFE10BD00005C
:102AF000D0740100FE4901200870FE4800780028CB
:102B00007DD0F0B585B009F071FCFB4EFB4CF07840
:102B1000FB4F002500284ED01F23DB02F9A216210F
:102B20000E200195009406F035FB307900280DD079
:102B3000012804D0022812D0032821D118E0252131
:102B4000F64BF7A22020019500940EE0F34BF8A27B
:102B5000252120200195009406F01CFB10E0EF4B8E
:102B6000F7A2252111200195009406F013FB07E040
:102B7000EA4BF8A2252120200195009406F00AFBDB
:102B80003B46F8A23D2120200195009406F002FB6F
:102B90000C200190E14BF5A23D21029500943B20D1
:102BA00006F062FD3B46F2A23D21562001950094BD
:102BB00006F0F0FA41E3F0484178002905D10078A9
:102BC000022802D0B078002827D01F23DB02EBA216
:102BD00016210A200195009406F0DCFA3B46E1A29A
:102BE0003D2120200195009406F0D4FA0C203D21CF
:102BF0000190CA4BDDA2029500943B2000E020E347
:102C000006F032FD3B46DAA23D21562001950094A4
:102C100006F0C0FA0120B0700FE3DE494A7FDE49BA
:102C2000082A17D213007B441B79DB189F44030545
:102C300007090B0D0F11D9480CE0D9480AE0D94813
:102C400008E0D94806E0D94804E0084602E0D84840
:102C500000E0D8480DF08EFCFEF7B6FAD64AD74B06
:102C6000FDF7EAFEFDF72EFDD5498A6801461046BC
:102C70000DF056FC02D37078002840D01F23DB02F1
:102C8000D0A216210A200195009406F083FA3B4653
:102C9000B4A23D2120200195009406F07BFA0C207F
:102CA00001909E4BB1A23D21029500943B2006F07D
:102CB000DBFC3B46AEA23D2156200195009406F078
:102CC00069FA707800287DD1B24F0120397E03F077
:102CD00028FF002004F084FF002464200CF090FB07
:102CE000641C052CF9DB387E002801D0032000E0AD
:102CF000012004F075FF3570012070709DE2B74827
:102D0000007801950028009404D01721B44BB5A297
:102D1000162004E03F235B01B7A21721192006F01B
:102D200039FA3B46B9A22C2106200195009406F001
:102D300031FA0C263B463A222C211E2001960295A0
:102D4000009406F087F9B348807A002870D0B24822
:102D50000178B24800296CD0B149006809680DF0CB
:102D600009FC4000AF494008884209DA02460223C4
:102D70002C21292000970296019406F0C7FA17E04B
:102D8000A949884209DA024601232C21292000970B
:102D90000296019406F0BAFA0AE0FEF7EFFA82B260
:102DA00004232C21292000970296019406F0D6FBDB
:102DB0003B4657222C21522001960295009406F0A2
:102DC00049F900E00AE29348017A002904D0012978
:102DD0004ED0022955D05DE0407A01285AD008280B
:102DE00045D201007944097949188F444040030DC8
:102DF00017232D373B468DA22C2167200196029583
:102E0000009406F031FC3EE13B468AA22C2167206B
:102E100001960295009406F027FC34E1874B88A2C6
:102E20002C21672001960295009406F01DFC2AE1F2
:102E300059E138E0814B84A22C216720019602954C
:102E4000009406F011FC1EE1344B81A22C21672076
:102E500001960295009406F007FC14E12F4B7EA228
:102E60002C21672001960295009406F0FDFB0AE1F3
:102E70003B467BA22C2167200195009406F08AF93D
:102E800001E13B4678A22C2167200195009406F0D1
:102E900081F9F8E03B4676A22C2167200195009449
:102EA00006F078F9EFE06549009102960194026816
:102EB00002232C21292006F029FA3B4656222C21F8
:102EC000522001960295009406F0C4F8544802235B
:102ED00000682C214200114800905208029601948B
:102EE000672006F013FA41222C213B469020C5E0D2
:102EF0007E00002080000020DE0000201084000002
:102F0000FFFF0000CACAC5E4C6F7C4A3C4E2BFAA53
:102F1000C6F4CAA7B0DCA3A100000000E0FF0000D7
:102F2000B5E7B3D8B5E7D1B9B9FDB5CD000000001C
:102F3000D0BEC6ACCDA8D0C5B4EDCEF30000000025
:102F4000CFB5CDB3CEB4B4A6D3DAB7C5B5E7C4A375
:102F5000CABD0000CFB5CDB3B3F6CFD6B9CAD5CF71
:102F600000000000B0B4CFC2000000004553430091
:102F7000D2D4CDCBB3F6000087000020CFB5CDB3BF
:102F8000B3F6CFD6B9CAD5CFA3ACC4A3C4E2CDA300
:102F9000D6B900008C010020000040400000204015
:102FA00066662640CDCC2C40333333409A99394065
:102FB00066664640CDCC4C409A9999999999C93FFB
:102FC00000010020B5E7B3D8B5E7C1BFB9FDB5CD65
:102FD000A3ACC4A3C4E2CDA3D6B900004200002034
:102FE00020FD0000CFB5CDB3B9FDC8C8A3ACC4A3C4
:102FF000C4E2D4DDCDA30000CACAC5E4C6F7C4A3A9
:10300000C4E2D2D1BFAAC6F400000000CAE4B3F6FD
:103010000000000030010020830000208C00002010
:10302000900000200000C84200007A44504420373D
:10303000560000005044203956000000FF7F000079
:1030400050443132560000005044313556000000E3
:1030500050443230560000005044455052000000A9
:10306000B8DFD1B900000000B8DFC1F700000000F0
:10307000BFECB3E4B9D8B1D50000000001960295C9
:10308000009405F0E7FF3B466EA23D210620019526
:10309000009406F07FF83B463A223D211E2001961F
:1030A0000295009405F0D6FF68480078002877D094
:1030B000674868490068420052088A4200DA0020E6
:1030C000654909680DF056FA400064494008884295
:1030D00019DA024602233D21292000970296019425
:1030E00006F014F927E05E4B5EA22C212920019600
:1030F0000295009406F0B8FA2C213B465BA25620BC
:1031000001950094BAE65B49884209DA0246012338
:103110003D21292000970296019406F0F7F80AE075
:10312000FEF72CF982B204233D2129200097029654
:10313000019406F013FA3B4657223D215220019696
:103140000295009405F086FF4B48017800291DD0B8
:103150004068FEF713F90A2823DA1F2700282BDA24
:10316000404203903B462D223D210196029500945A
:10317000672005F06FFF0398009782B202960194D2
:1031800002233D21672006F0E9F91EE03B463BA201
:103190003D21672001960295009406F065FA4CE007
:1031A0001DE0282802DA3F277F0105E03C2801DAEC
:1031B0002B4F01E01F27FF0282B202233D2167202F
:1031C00000970296019406F0C9F93B462CA23D21D6
:1031D000882001960295009405F0F8FF2DE029481B
:1031E00000901D4802960194026802233D21292087
:1031F00006F08CF83B4656223D215220019602955E
:10320000009405F027FF1248006842001148520858
:10321000824200DA00221248009002233D210296E9
:103220000194672006F072F83B4641223D21902030
:1032300001960295009405F00DFF1348057005B046
:10324000F0BD7047B5E7B3D8000000008300002050
:1032500098000020CDCC4C3D940000200000C842D6
:10326000E0FF0000547970652D430000CEB4C1AC7E
:10327000BDD3000000007A44000100202D2D2D0058
:10328000A1E60000FF7F00008000002010B5084C80
:10329000A079042806D107480078002805D0064800
:1032A0000BF0D2FA0020A07110BD0448F8E700002E
:1032B0000E00002030000020646C010068710100E5
:1032C00010B500230FA210A148200AF08DFE124A6B
:1032D0001248917D0378994211D00170002901D0E4
:1032E000012906D102210170917501210C480BF0D2
:1032F0004FFF05F077FC80210A4802F051FF08F0EB
:103300003BFB10BD32460000C9E8D6C3CFD4CABECD
:10331000B7BDCFF200000000AC0100200700002084
:103320008C01002000400B4008480821C1700A2190
:1033300081600749097A002906D00649097F0029DA
:1033400001D04B218901416070470000340000200A
:10335000140200203402002070B50D4C0025606876
:10336000012807D000280BDDE178002909D0491E8B
:10337000E17009E007486560057702F0BDFEA560D1
:1033800070BD0821E1702570401E606070BD0000B6
:10339000340000203402002038B5114D0024A879F3
:1033A000042804D00F4810498068884215DA0F4974
:1033B000012008700E4804600E4801F017FD0D4909
:1033C00008640BF00BFF00215023A0220846009454
:1033D00005F02EFB08480BF037FAAC7138BD000041
:1033E0000E000020000100209A992141ED000020EC
:1033F000540000201402002050680100F0B5FF20A6
:103400005D4985B0E1305D4E08605D4930680B78FC
:1034100042071A435B4C00255B4F002A1AD0420733
:1034200000D00D70002810DC5648A56201F0DEFCCB
:1034300020640BF0D3FE00215023A0220846009503
:1034400005F0F6FA51480BF0FFF94F4800780028D4
:1034500007D00AE001223A700A706169491C616173
:10346000E0E74B48807900287ED008F0BFFF494C48
:103470003F235B0148A2162121200195009405F00D
:1034800089FE3068C117490F0818C610E1210901EB
:103490003046FDF72DF8009008463C21FDF728F84E
:1034A00007463C213046FDF723F80098039104902D
:1034B0003D4B3EA22821019500940E2006F00AF80B
:1034C0003F204001009004980C2682B2029601949D
:1034D00001232821332006F041F8334B35A228215F
:1034E0003E200196009405F055FE3F2040010090DB
:1034F000BAB202232821029601944E2006F02EF83B
:10350000294B2DA2282162200196009405F042FE4D
:103510003F200399400100908AB202960194022351
:103520002821722006F01AF81F4B24A22821862099
:103530000196009405F02EFE1B4B21A23D21202078
:103540000195009405F026FE1F4B20A23D213B2053
:1035500001960295009406F087F83D21124B1CA2BB
:1035600056200195009400E003E005F013FE0648A4
:10357000057005B0F0BD00000400002054000020DC
:10358000EE00002014020020ED0000205068010031
:103590000E00002010840000D7D4B6AFBEF9BAE206
:1035A000D4CBD0D0D6D00000FFFF0000CAA3D3E018
:1035B0003A000000CAB10000B7D60000C3EB00001B
:1035C000B0B4CFC200000000E0FF0000455343004C
:1035D000D2D4CDCBB3F6000008B500205023A022F2
:1035E0000146009005F024FA002103480BF0D0FDBD
:1035F00002480BF029F908BD8C0100205068010039
:1036000010B505480078002803D004480BF01CF9D9
:1036100010BD0348FAE7000030000020646C010090
:103620006871010010B502480BF00EF910BD0000E2
:10363000646C010010B502480BF006F910BD0000E3
:103640006871010010B5094CA07904280AD1084816
:103650000078002807D007480BF0F6F8002006494C
:10366000A071087010BD0548F6E700000E000020AC
:1036700030000020B06D0100B5000020687101002D
:10368000F8B53F4C3F4E217800270125B07900293D
:1036900006D001292CD0022959D0032967D156E040
:1036A000012804D0022807D004280BD011E060685C
:1036B0000A285FDA401C03E0606801285ADD401EDA
:1036C000606057E030480078002806D02F480BF0A3
:1036D000BBF8B079032802D049E02D48F7E7E12193
:1036E0006068C90148432B4908602570657041E056
:1036F000FF21E131284A0428116004D027482849D5
:103700008068884204DA23486570076003201CE063
:103710002048006800280EDDA2784107114303D03D
:10372000400724D0A77022E065701E48A57041694B
:10373000491C41611BE01B48876201F057FB194996
:1037400008640BF04BFD6570022020700FE0042828
:103750000DD1144801F04AFB124908640BF03EFDFC
:1037600009480078002808D008480BF06DF8B079B7
:10377000002800D06570B771F8BD0548F5E7000076
:10378000EC0000200E00002030000020646C0100DE
:103790006871010054000020040000200001002096
:1037A0009A99214114020020F0B5A04C87B06078AE
:1037B000002803D19E48807900287DD008F016FEAD
:1037C0009A489C4C01789C4F0C260025002906D075
:1037D000012942D0022970D003296FD100E1964B14
:1037E00096A2152123200195009405F0D3FC924B5D
:1037F00096A22A2120200195009405F0CBFC954F3C
:103800008A480097029601948088022382B22A2176
:10381000362005F0A3FE884B8FA22A214620019670
:10382000009405F0B7FC844B8EA23D212020019529
:10383000009405F0AFFC3B468CA23D213B20019655
:103840000295009405F010FF7B4B89A23D21562084
:103850000195009405F09EFCE4E03F235B0186A205
:10386000162121200195009405F094FC86480068FB
:10387000C117490F0818C010E12109010190FCF798
:1038800037FE009008463C21FCF732FE04903C21B4
:103890000198FCF72DFE00980094039105903B469B
:1038A0007AA2282101950E2005F014FE3F20400148
:1038B00002960194009002E0B6E051E0B2E0059873
:1038C000012382B22821332005F048FE3B4671A235
:1038D00028213E200196009405F05CFC3F20400129
:1038E00000900498029682B20194022328214E206F
:1038F00005F034FE3B4668A2282162200196009420
:1039000005F048FC3F200399400100908AB20296DE
:10391000019402232821722005F020FE3B465FA27D
:10392000282186200196009405F034FC3B464DA2E8
:103930003D2120200195009405F02CFC454B4BA225
:103940003D213B2001960295009405F08DFE3B46FB
:1039500047A23D2156200195009405F01BFC61E033
:103960003F235B014EA2162121200195009405F012
:1039700011FC3B4635A2292120200195009405F039
:1039800009FC3F204001009028480296019480885D
:10399000022382B22921362005F0E0FD3B462EA20B
:1039A000292146200196009405F0F4FB3B462DA208
:1039B0003D2120200195009405F0ECFB254B2BA226
:1039C0003D213B2001960295009405F04DFE3B46BB
:1039D00027A23D2156200195009405F0DBFB21E054
:1039E0001F23DB0232A216211C200195009405F052
:1039F000D1FB3B461BA23D2120200195009405F000
:103A0000C9FB144B19A23D213B200196029500945D
:103A100005F02AFE3B4616A23D2156200195009452
:103A200005F0B8FB0148457007B0F0BDEC00002080
:103A30000E00002010840000FFFF0000C7EBD6B886
:103A4000B6A8BEF9BAE2CAB1BCE40000B9B2BCC6BD
:103A500000000000E0FF0000BEF9BAE2D0A1CAB148
:103A600000000000B0B4CFC2000000004553430086
:103A7000D2D4CDCBB3F60000CAD6B6AFBEF9BAE207
:103A8000D4CBD0D0D6D0000054000020CAA3D3E0BD
:103A90003A000000CAB10000B7D60000C3EB000036
:103AA000CAD6B6AFBEF9BAE2D2D1CDEAB3C90000E8
:103AB000CAD6B6AFBEF9BAE2D2ECB3A3BDE1CAF83A
:103AC0000000000010B500230EA20FA134200AF060
:103AD0008BFA0021012007F0CBFB044600210120D6
:103AE00007F082FB04400021012007F039FB20424F
:103AF00007D1032308A209A134200AF075FA09F0BE
:103B0000B1FB10BD33300000BEF9BAE2BFD8D6C653
:103B1000C6F7C5E4D6C3000033450000BEF9BAE2DB
:103B2000BFD8D6C6C6F7D2ECB3A3000010B50021AB
:103B3000012007F09DFB10BDF0B583B0002768465B
:103B40000771077003F02AF8404D414EA86800281D
:103B500006DD68460078052801D0EF6017E0AF6009
:103B6000F0683C4940004008884203DA6846007823
:103B7000032831D0E868002801DD401EE8600F21ED
:103B80008901884203DB2D204001EF60A86003F02B
:103B900066F86978304F814210D0304968700978F2
:103BA00081430BD0F87E002819D02D492D48806A1A
:103BB0000CF0B6FC02D32C480AF046FE01A802F035
:103BC000EDFF2A49B068884233DB6868002808DDC9
:103BD000401E012468602DE0E868401CCEE72449BF
:103BE000E4E7A868002803DD401E0024A86021E067
:103BF00068460079002803D11E490968082918DDA4
:103C0000F97E002915D001290DD0022902D00329FF
:103C100010D10CE001280AD0022808D0032806D0D1
:103C2000052806D103E0042803D0002801D0012490
:103C300000E000242878A04206D02146012007F0A9
:103C400017FB002800D02C7003B0F0BD50000020FE
:103C500000010020CDCC4C3EAC010020A100002092
:103C60000000844114020020BC7801009A9921418F
:103C7000000038410400002003498968014201D056
:103C800001207047002070470080084004494A68BE
:103C90000123DB029A43C00202434A6070470000DE
:103CA00000800840F0B4084F7D6AFE6A3C6B854393
:103CB0008E439443002B02D005430E4314437D6290
:103CC000FE623C63F0BC70470080084010B4054BB6
:103CD0009A6A07248440A24381400A439A6210BC36
:103CE000704700000080084010B5002180200123AB
:103CF0000A4607F063FF10BD002A05DD0B78037349
:103D0000491C521E002AF9DC80687047F8B54A4CFD
:103D10000420205E002801DD401EA080607801287C
:103D200003D0022801D0072829D144490120087076
:103D30002078002801D0401E2070414800780028DB
:103D40001DD040480078012803D0022801D0032864
:103D500015D13D480078002811D13749A6783B4D50
:103D6000CF688868002E0BD0A9680CF093FBA06088
:103D70003846E9680CF08EFB761EE060A670F8BD50
:103D80000221C943FDF750FB06460221A060C9434A
:103D90003846FDF749FB2E4FE060F9694900090EEE
:103DA00003D12C49884200DBFE6178683146401C13
:103DB0007860B8690CF036FC01D2B86900E0A06800
:103DC000B861F868E1680CF02DFC01D2F86800E0F9
:103DD000E068F8602878002806D0696838690CF037
:103DE00021FC04D2386903E01B48386101E06868AF
:103DF0003861E5681949680040080CF0BBFB184EB3
:103E00003146FDF70BFAB9680CF044FBB86029465F
:103E1000A0680CF0AFFB400040083146FDF7FEF90A
:103E2000396A0CF037FB38620020A0600821E0609E
:103E3000A170E070F8BD0000A40000207E0000200A
:103E40007C000020850000204800002000010020A8
:103E5000F00100209A99193E0000C8C200007A447F
:103E600000006145F8B55F495B485D4A0C785B4BE3
:103E70005D49467895689B7A00220978062E1DD206
:103E800037007F443F79FF19BF4402309418584AE5
:103E9000564CE67D022E06D0072915D0062916D0ED
:103EA000002918D115E0072909D0062909D00121D8
:103EB0004170E27500214E480BF06AF9F8BD0A2105
:103EC00000E00B214170F8BD0A2141700CE00B218C
:103ED00080E0002B01D008217CE046498D4201DBC7
:103EE000092177E0012175E0C270F8BD002BFCD0FC
:103EF000082912D20B007B441B79DB189F440D0567
:103F000005050D050403DAE7DBE73B49CD61826077
:103F10000821C260817002215CE0022EE4D0F8BD6D
:103F2000002B07D0072907D00629D0D0002CF6D1C6
:103F300002214FE006214DE00A214BE0002B08D082
:103F4000072908D0062908D0002C08D00521417087
:103F500009E00621FBE70A21F9E70B21F7E705292C
:103F600002D002214170C2700421415E0029D6DCDA
:103F7000C27003214170204C01202070E6681F4967
:103F800030460CF0F7FAA5682946FDF747F960615D
:103F90001B49226863686CC1E569A3692269CD6029
:103FA0008B600A604860206A0861002120460BF09F
:103FB000C7F8F8BD002BBDD00729BDD0062986D093
:103FC000002C01D0052105E00529F2D10F2189013E
:103FD00081800421417087E7A40000203001002087
:103FE000000100204800002085000020AC010020D6
:103FF0008C010020CDCC4441F001002000007A4427
:10400000C8010020FB48C078002803D0FA48807916
:1040100000287DD0F0B585B008F0E8F9F548407883
:104020000C2800D304E301007944097949188F442E
:1040300005175EFE3B4DFDFCFBFAFBF9F04E00253B
:10404000EE4C3346EFA221211B200195009405F090
:10405000A1F82F213346F0A22E20019500945DE3B4
:10406000F048152300904B221946282005F0D0FA7D
:10407000ED4E0025E14C3346ECA22F211B2001958B
:10408000009405F087F80C2001903346ECA23D2106
:1040900002950094242005F0E7FA3D213346EAA278
:1040A00051200195009439E3DF4E0025D34C33466F
:1040B000E7A2132114200195009405F06BF82F213D
:1040C0003346D5A22E200195009427E30025CB4C42
:1040D000E44BE5A2132114200195009405F05AF851
:1040E0002F21D14BE5A214200195009416E3002561
:1040F000C24CC34BE6A2132114200195009405F095
:1041000049F8E74F38798007800F04D0012800E094
:10411000F4E313D10AE00C200190B94BC0A21321A3
:10412000029500946F2005F051F807E0B44BDDA232
:1041300013216F200195009405F02CF8BA4BDBA2F7
:10414000232103200195009405F024F8D448DA498E
:104150004068884250D9FCF7BDF9C2490C2782B2A9
:10416000009102230297019423213C2005F0F6F9E7
:10417000AD4BD2A223214F2001970295009405F068
:1041800025F8C748CC494068FCF7A4F90846E12166
:104190000901FCF79FF9B34982B20091022302970B
:1041A000019423215D2005F0D9F99F4BC4A223215E
:1041B0006F2001970295009405F008F8B848E121B6
:1041C00040680901FCF786F908463C21FCF782F9B2
:1041D000A44982B2009102230297019423217C20FA
:1041E00005F0BCF9904BB7A223218F2001970295CF
:1041F000009404F0EBFF53E0E1210901FCF76AF9B8
:1042000098490C2782B2009102230297019423213E
:104210003C2005F0A3F92321834BA9A24F2001974D
:10422000029505E050E36AE3EBE27AE2C2E200E2E3
:10423000009404F0CBFF9A48E12140680901FCF7A3
:1042400049F908463C21FCF745F9864982B20091BC
:1042500002230297019423215D2005F07FF9724B20
:1042600098A223216F2001970295009404F0AEFFDD
:104270008B483C214068FCF72DF97A488AB20090BF
:1042800002232321029701947C2005F067F9664BF5
:104290008DA223218F2001970295009404F096FFB0
:1042A000614B8AA2322103200195009404F072FF31
:1042B0007B488849006A88420BDA0C2250490292F6
:1042C00000910246012301943221212005F01EF8BD
:1042D0000CE00BF0E1F882B20C2149480291009009
:1042E000032301943221212005F038F90C27444B97
:1042F00079A232213C2001970295009405F0B4F98F
:104300007648494B00780195002800943DD074A26E
:104310003221572004F03EFF3F20400100907248B8
:1043200002970194826801233221732004F0EEFF8A
:104330003F235B015622322193200197029500947E
:1043400004F088FE384B69A24021032001950094B7
:1043500004F020FF524867498068884248DA0BF031
:104360009BF882B21F20C0020090022340210297D6
:104370000194212005F0F2F81F23DB0240215EA208
:104380003320019702950094D5E05CA2322157209A
:1043900004F000FF5448C16880680CF0EBF840005E
:1043A0004C49400888420BDA3F21490102460091FE
:1043B0000123029701943221732004F0A7FF0CE03F
:1043C0000BF06AF882B23F204001009003233221B3
:1043D00002970194732005F0C1F83F235B01572237
:1043E0003221932001970295009404F033FEA9E74F
:1043F00088E00000A40000200E00002010840000CF
:10440000FF7F0000B2E2C8DDCFB5CDB3D5FDD4DA71
:10441000C6F4B6AF00000000C7EBC9D4BAF3A1AD33
:10442000A1AD0000A2530100FFFF0000C7EBBDAB30
:10443000B5E7B3D8BCDCC1ACBDD3B5BD000000004E
:10444000547970652D430000B3E4B5E7C6F700006A
:10445000D5FDD4DAC8B7C8CFB3E4C2FAD7B4CCAC70
:10446000A1AD0000E0FF0000CFB5CDB3BCECB2E2DF
:10447000B5BDB9FDB3E4CAC2BCFE0000C7EBB5C808
:10448000B4FDCAC2BCFEBDE2B3FDA1ADA1AD00004A
:10449000B3E4B5E7B2E2C8DDBDF8D0D0D6D00000B5
:1044A000F0010020A1ADA1AD00000000B3E4B5E72C
:1044B000CAB1B3A40000000080510100CCEC0000A0
:1044C000CAB10000B7D60000C3EB0000C4DCC1BF16
:1044D0000000000000002041576800008300002019
:1044E000B5E7D1B90000000000010020C8DDC1BF60
:1044F000000000000000C8426D416800B9A6C2CAB1
:1045000000000000FE498842FE4917DAFCF786FEEB
:104510001F21C90202460091012302970194402104
:10452000212004F0F3FE1F23DB02F7A240213C20F0
:1045300001970295009405F097F818E0FCF76EFEDD
:104540000AF0AAFF82B21F20C0020090032340217C
:1045500002970194212005F001F81F23DB02EAA253
:1045600040213C2001970295009405F07DF8E74B2F
:10457000E7A2402157200195009404F00BFEE64885
:10458000017800291AD040680AF086FF00281FDA57
:10459000FF264042D036039033462D223D2101971D
:1045A00002950094752004F055FD0398022382B211
:1045B00040210297009601947C202EE0D34BD7A295
:1045C0004021732001970295009405F04DF826E0F4
:1045D0000A280BDA1F26D0480297009601944268F9
:1045E00001234021732004F091FE18E0CC49096BAF
:1045F0000A46143A824202DD3F26760106E0083977
:10460000814201DDC74E01E01F26F60282B202237D
:104610004021732002970096019404F09FFF3346D7
:10462000C1A240218F2001970295009404F0CEFD95
:1046300047E23F260025BD4C76013346BCA2162139
:1046400021200195009404F0A5FD3346BCA2292148
:1046500018200195009404F09DFDBB48A94E806888
:104660003146FCF7DBFDB94988420BDAA74A0C2139
:10467000009202910246032301942921432004F071
:1046800045FE29E0B24988420BDAA04A0C2100928B
:1046900002910246022301942921432004F036FEB0
:1046A0001AE0B0420BDA994A0C21009202910246BC
:1046B000012301942921432004F028FE0CE00AF094
:1046C000EBFE82B20C2091490091029004230194E8
:1046D0002921432004F042FF8C4F0C263B468AA23E
:1046E0002921702001960295009404F0BDFF3B46FD
:1046F00098A23D2120200195009404F04BFD894BA8
:1047000096A23D213B2001960295009404F0ACFF57
:104710003B4693A23D2156200195009404F03AFDBA
:10472000CFE11F270024814DFF023B468EA21621B8
:1047300004200095019404F02DFD0C263B463F22F9
:104740001621932001960095029404F083FC6F4F8C
:104750008BA23B462E2107200095019404F01AFD00
:10476000704B8AA22E213B2001960095029404F002
:104770007BFF3B4686A22E2156200196009502948F
:1047800004F024FD674B75A22E216320019600954D
:10479000029404F069FF3B467EA22E217F20009503
:1047A000019404F0F7FC3E213B467CA207200095D3
:1047B0000194B3E700255D4C1F23DB027CA2162188
:1047C0001C200195009404F0E5FC504E61A2334694
:1047D0003D2120200195009404F0DCFC0C20019088
:1047E000504B5EA23D21029500943B2004F03CFF1B
:1047F00033465BA23D2156200195009404F0CAFC8B
:104800005FE11F260024494DF60233466DA21621B2
:104810001C200095019404F0BDFC33466EA22921B2
:104820000A200095019404F0B5FC6D4840780828F2
:104830003FD00C20019033466AA2292100950294B2
:10484000242004F0C3FC3746334667A229213220D6
:104850000095019404F09EFC0C263B462C22292155
:104860004A2001960095029404F0F4FB3B4660A2B6
:10487000292153200095019404F08CFC234F35A28C
:104880003B463D2120200095019404F083FC254BFC
:1048900032A23D213B2001960095029404F0E4FEF3
:1048A0003B462FA23D2156200095019404F072FC56
:1048B00007E10C200190334650A229210095029473
:1048C000242004F083FCBEE71F260025174CF602C7
:1048D00033463CA216211C200195009404F05AFC9A
:1048E000334647A2292115200195009404F052FC7B
:1048F000064E3D21334617A220208BE0E6E0A0E0E3
:1049000000401C4600007A4441680000FFFF0000A0
:10491000CEC2B6C800000000000100202D2D2D00E1
:104920008C010020E0FF0000A1E6000010840000E0
:10493000C8DDC1BFB2E2CAD4D2D1CDEAB3C900004A
:10494000B9B2B3E4C8EB0000F00100200000204140
:104950000000C842B0B4CFC200000000455343007D
:10496000D2D4CDCBB3F60000C7BFD6C6BDE1CAF8DE
:10497000B1BEB4CEB2E2C8DDB2A2CDCBB3F6000078
:10498000CDACCAB1B0B4CFC200000000454E540057
:10499000BACD0000CDCBB3F600000000C6E4D3E0F2
:1049A000C8CED2E2B2D9D7F7D2D4BCCCD0F800006E
:1049B000C8DDC1BFB2E2CAD4D2ECB3A3BDE1CAF82C
:1049C00000000000C8DDC1BFB2E2CAD4CEDEB7A885
:1049D000BCCCD0F800000000CFB5CDB30000000083
:1049E000A4000020B7C50000B5E7D6D00000000045
:1049F000C7EBD2C6B3FDCFDFB2C40000B3E4000002
:104A0000B3E4B7C5B5E7B9DCC0EDD0BEC6ACD2ECF7
:104A1000B3A300000195009404F0BCFB0C200190AE
:104A20002B4B2CA23D21029500943B2004F01CFE50
:104A3000334629A23D2156200195009404F0AAFB9B
:104A40003FE01F270025264CFF023B46254A162142
:104A50001C200195009404F09DFB3B4622A22921D5
:104A600004200195009404F095FB0C263B4622A2FD
:104A700029215E2001960295009404F0F5FD3B4645
:104A80001FA2292185200195009404F083FB1E4F6D
:104A90001EA23B463D2120200195009404F07AFBA4
:104AA0000B4B0CA23D213B2001960295009404F093
:104AB000DBFD3B4608A23D2156200195009404F001
:104AC00069FB14480121C17005B0F0BD70470000BA
:104AD000E0FF000045534300D2D4CDCBB3F6000035
:104AE00010840000C4490000C7EBBDABB5E7B3D8E4
:104AF000B7C5B5E7D6C1000031322E3356000000ED
:104B0000D2D4C4DA00000000FFFF0000B0B4CFC26E
:104B100000000000A400002010B51D481D4C407886
:104B20000C282ED201007944097949188F442905AF
:104B300009110909111E11111111A079042823D09E
:104B40001FE0A07904281CD11148502101700721D1
:104B500016E0A079042814D10F480078002803D06B
:104B60000E4809F071FE0CE00D48FAE7A17905291D
:104B70000AD007480278002A01D0002901D002217A
:104B800041700020A07110BD014906204870F8E76F
:104B9000A40000200E00002030000020646C010002
:104BA00068710100F8B505460027012040033A4628
:104BB000012311460090FFF775F8244E3046FFF7A9
:104BC00093F87760E62030600020295C3173291863
:104BD00049783173801C2428F7DBB5683046FFF72D
:104BE00083F87760E620306000210120AA07920F49
:104BF00006D0012A06D0022A06D0032A07D105E0F2
:104C0000542404E0232402E0532400E03C24CB1786
:104C10005B0F5B18DB08AD08DB00CA1A0346934044
:104C20006340DCB262183273491C1029DEDBB468C1
:104C30003046FFF759F83A46002311460098FFF72F
:104C400031F8034920464840F8BD000000A0084064
:104C500052AA422510B590B0094800F06FF80446FA
:104C6000684604F0EBFF684600F068F80549A0428A
:104C700001D0012000E00020087010B010BD00003D
:104C80008C010020B4000020F8B505460027012063
:104C900040033A46012311460090FFF703F8254EE2
:104CA0003046FFF721F87760E6203060687A30738D
:104CB000A87A3073E87A3073287B307329462C2227
:104CC00014313046FFF718F805463046FFF70CF868
:104CD0007760E620306000200122A907890F06D006
:104CE000012906D0022906D0032907D105E047246F
:104CF00004E06A2402E0212400E06F24AD084307A9
:104D00005B0F114699406140CCB221183173401CB1
:104D1000C0B21028E1D3B468304607494C40FEF7D2
:104D2000E3FF3A46002311460098FEF7BBFF2046FA
:104D3000F8BD000000A008404F6E52A3F8B505462C
:104D40000027012040033A46012311460090FEF758
:104D5000A9FF244E3046FEF7C7FF7760E62030609B
:104D6000002029180B79337349793173801C382856
:104D7000F7DBB5683046FEF7B7FF7760E6203060B6
:104D800000210120AA07920F06D0012A06D0022A8C
:104D900006D0032A07D105E0522404E03F2402E0B4
:104DA000402400E06E24CB175B0F5B18DB08AD08D6
:104DB000DB00CA1A034693406340DCB262183273C8
:104DC000491C1029DEDBB4683046FEF78DFF3A46F9
:104DD000002311460098FEF765FF0349204648402E
:104DE000F8BD000000A008405334A55AF8B50446A9
:104DF0000026012040033246074601231146FEF7F4
:104E000051FF0F4D2846FEF76FFF6E60E6202860C9
:104E100000212846625C0273621852780273891C72
:104E20004029F7DB846807494C40FEF75DFF3246B6
:104E3000002311463846FEF735FF2046F8BD000036
:104E400000A008404FEE52A3F8B5104C0127A079FE
:104E500000260F4D022804D0012804D0042804D0D5
:104E60000AE06F700BE06E7009E00A4800780028D5
:104E700008D0094809F0E8FCA079002804D02F7078
:104E8000A671F8BD0548F5E72E70F8BD0E000020AC
:104E9000B900002030000020646C0100687101003E
:104EA000F0B500248FB023467EA27FA12D2009F00B
:104EB0009BF804A800F0B4FF0898512500285CD0A6
:104EC0000F21684605F030F8002807D003237AA2A6
:104ED0007AA12D2009F088F808F0C4F910220021E9
:104EE0000AA804F0DFFF002807D0032377A278A1E7
:104EF0002D2009F079F808F0B5F9684605F020FD95
:104F00000446024600206946012593079B0F06D000
:104F1000012B06D0022B2CD0032B04D12BE05123E4
:104F200000E021230B540B5C92081B184607760FF8
:104F30002F46B7407B400B54401CC0B21028E4D32E
:104F400000257F260F46B6023068A04204D10AA889
:104F5000795D405D814207D0032362A262A12D20CA
:104F600009F042F808F07EF96D1C102DECDB0FB053
:104F7000F0BD7323D6E72623D4E70120FEF786FE93
:104F80000820FEF779FE01280AD001200AF038FA3D
:104F9000641C322CEBD00820FEF76EFE0128F4D101
:104FA0000F21684604F0C0FF002807D0032342A267
:104FB00042A12D2009F018F808F054F9684605F0D0
:104FC000BFFC04467F20800200F020FF0028CED1E5
:104FD0007F202146800200F073FF0028C7D17F2088
:104FE00080020068A042C2D1002069460126A207C3
:104FF000920F06D0012A06D0022A07D0032A09D12F
:1050000006E00D5406E021220A5403E0732200E07A
:1050100026220A540A5CA408121843075B0F37467D
:105020009F407A400A54401CC0B21028DFD310229F
:105030000021684604F0B3FF002807D003232EA206
:105040002EA12D2008F0D0FF08F00CF902220996BD
:1050500003A8D11E0896416081600830521EFAD123
:1050600000F0C6FE04A800F0F5FE0028AFD1012331
:1050700027A228A12D2008F0B7FF01200AF082F90D
:10508000012328A228A12D2008F0AEFF01200AF05C
:1050900079F9BFF34F8F29492748C860BFF34F8F75
:1050A00000BFFDE735410000B9CCBCFECDEAD5FB21
:1050B000D0D4BCECB2E9000045350000B4E6B4A29F
:1050C000C6F7B6C1C8A1D2ECB3A3000045460000A4
:1050D000B0B2C8ABC3DCD4BFB6C1C8A1D2ECB3A3D5
:1050E0000000000045430000B9CCBCFED2D1B1BBEA
:1050F000B4DBB8C42100000045450000B0B2C8AB25
:10510000C3DCD4BFD0B4C8EBCAA7B0DC0000000039
:1051100035420000BCECB2E2B5BDCAD7B4CEC6F48D
:10512000B6AF000035430000CFB5CDB3B9CCBCFE5F
:10513000D2D1CBF8B6A800000400FA0500ED00E0DB
:1051400007480078002803D00648807E002805D153
:105150000548064982688A4200DD81607047000088
:1051600040000020AC0100208C010020E42500005C
:1051700010B590B00948FFF7E1FD044668463C22AF
:10518000002104F0B9FD002802D10098A04202D00D
:10519000002010B010BD012010B010BD8C01002007
:1051A00070B5FF242D34002313A214A1282008F089
:1051B0001BFF022006F0F6FC002808D0012313A2F2
:1051C00013A1282008F010FF02200AF0DBF8144D8C
:1051D0000020287001200AF013F9287800280AD14D
:1051E000641E002CF6DC03230EA20FA1282008F079
:1051F000FBFE08F037F870BD37410000B2E2CAD4B8
:10520000D0C4CCF8B6A8CAB1C6F700003742000037
:10521000BCECB2E2B5BDCFB5CDB3BFA8CBC00000EA
:105220000100002037450000D0C4CCF8B6A8CAB1B0
:10523000C6F7D2ECB3A3000006480021416001701C
:10524000C160416181608161034AC16102610162A3
:1052500070470000C80100200000C8C270B5124DA0
:10526000124CA9792078022904D0012906D00429FA
:1052700009D00FE0002810D0401E02E002280CD216
:10528000401C207009E00A48007800280AD009482C
:1052900009F0DAFAA879002803D001206070002014
:1052A000A87170BD0448F3E70E000020BB00002089
:1052B00030000020646C01006871010070B4344853
:1052C000002403464579D9781A799B78082D52D263
:1052D0002E007E443679B619B74403070C1D3D2FC6
:1052E0002637002B22D1012102E0002915D102210D
:1052F000417140E0002A06D0521E5B1C027183708F
:10530000491CC17037E0FF22FF2B00D28270FF29B9
:1053100030D2C2702EE0002904D0491EC170521C48
:10532000027128E00621E3E7002B04D05B1E8370A6
:10533000491CC1701FE00521DAE7002A03D0521E84
:105340000271491C0AE00721D2E7FF2A01D2521C50
:1053500009E00421CCE7002902D0491EC1700AE00F
:10536000002A02D0521E027105E0FF2B02D25B1C04
:10537000837000E044718178C908CA02C17800795D
:10538000C908890170BC1143C00808437047000078
:10539000D800002038B5684601F0A4FB002806D0EC
:1053A00068460078002805D002F0B2F905E001F067
:1053B00043FB02E0094900200880094C207E0028B8
:1053C0000AD001F04CFC0028A06803D105498842AE
:1053D00000DC084602F07CFA38BD00000200002024
:1053E0008C010020E4250000F3B5424A00270C247C
:1053F000414D424E83B0904212DA0AF04DF882B22B
:1054000004230096019502945720049904F0A6F80D
:1054100033463BA20297009501948120049924E031
:10542000384A904225DA3849FBF7F8FE3749884276
:1054300009DA024602230096019502945720049946
:1054400003F064FF0AE00AF027F882B20523009611
:10545000019502945720049904F080F833462CA259
:105460000297009501948A20049904F0FDF805B094
:10547000F0BD2849FBF7D2FE2749884209DA0246E7
:1054800003230096019502945720049903F03EFFF0
:1054900024E01E49884209DA02460223009601955B
:1054A00002945720049903F031FF17E0164988420F
:1054B00009DA0246012300960195029457200499C7
:1054C00003F024FF0AE009F0E7FF82B2052300960B
:1054D000019502945720049904F040F833460FA236
:1054E0000297009501948120049904F0BDF805B05D
:1054F000F0BD000000401C4610840000FFFF0000CB
:105500006D4168008096184B00007A440000C84244
:105510004168000000247449000020414B416800AC
:10552000F0B5174E83B03078002827D106F05EFF23
:10553000154F0025134C3B4614A214210820019559
:10554000009403F027FE3B4616A222210820019575
:10555000009403F01FFE3B4618A230211520019550
:10556000009403F017FE1F23DB0219A240211C2028
:105570000195009403F00EFE0120307003B0F0BDE1
:10558000E700002010840000E0FF0000B4EDCEF33F
:10559000B5C4B3E4B5E7CFB5CDB3C5E4D6C3BDABB1
:1055A000BBE10000D2FDC6F0B5E7B3D8C6F0BBF052
:1055B000BBF2B1ACD5A8B2A2D4EC0000B3C9D1CF34
:1055C000D6D8C8CBC9EDC9CBBAA6A3A100000000AC
:1055D000C4FAC8B7B6A8D2AABCCCD0F8C2F0A3BF50
:1055E00000000000F3B5044633480C25334E344F19
:1055F00083B0844209DA032322460097019602957C
:105600005720049903F082FE43E02E4884421ADBBF
:105610002D48844224DB2D498C420CDA204609F0C7
:105620003BFF82B20523009701960295572004990B
:1056300003F094FF2DE024492046FBF7EFFD0446DC
:105640001D48844209DA02232246009701960295FA
:105650005720049903F05AFE1BE01A48844209DAE5
:10566000012322460097019602955720049903F0E2
:105670004DFE0EE0144884420BDA204609F00CFF80
:1056800082B203230097019602955720049903F0F4
:1056900065FF0E4900208C423B4600960195029022
:1056A00003DA0BA28A20049902E00AA2812004995D
:1056B00003F0DAFF05B0F0BD0000204110840000C7
:1056C000FFFF00000000C84200007A4400401C4672
:1056D000576800004B576800F0B53B4C83B020780A
:1056E000002825D106F082FEE07801270025374EFC
:1056F000022805D16178002909D0A178002919D0A4
:10570000002823D0012828D0022837D12EE0A77006
:105710002F4B30A217211C200096019503F03AFD73
:105720003148406A002802D007F08AF9A0706770FB
:1057300003B0F0BD1F23DB022CA217211C20009612
:10574000019503F027FD277003B0F0BD1721204B12
:105750002AA21520009601950EE01D4B2CA21721C0
:1057600015200096019503F015FD07E0184B2DA2BA
:1057700017211C200096019503F00CFD144B2EA25E
:1057800025212F200096019503F004FD104B2DA23A
:105790003D2120200096019503F0FCFC0C20019097
:1057A0002A4B2BA23D21009602953B2003F05CFF83
:1057B000074B28A23D2156200096019503F0EAFCF4
:1057C000277003B0F0BD0000B50000201084000079
:1057D000FFFF0000D5FDD4DAD6D8D6C3BFE2C2D8C9
:1057E000BCC62E2E2E2E000014020020BFE2C2D80E
:1057F000BCC6D6D8D6C3CAA7B0DC0000D2D1BDABD8
:10580000CFB5CDB3C9E8D6C3BBD6B8B4CEAA0000D5
:10581000D2D1BDABB2E2C8DDCAFDBEDDBBD6B8B4E5
:10582000CEAA0000D2D1BDABBFE2C2D8BCC6BBD6A7
:10583000B8B4CEAA00000000B3F6B3A7C4ACC8CF7A
:10584000D6B50000B0B4CFC200000000E0FF0000F9
:1058500045534300D2D4CDCBB3F60000F0B5204E73
:1058600083B03078002839D106F0C0FD00251D4CEA
:105870003F235B011CA215210E200195009403F02B
:1058800089FC1F4F1FA23B4624210720019500944D
:1058900003F080FC3B4621A23121072001950094B2
:1058A00003F078FC3B4623A2402120200195009480
:1058B00003F070FC0C200190204B21A240210295A6
:1058C00000943B2003F0D0FE3B461EA24021562010
:1058D0000195009403F05EFC0120307003B0F0BD30
:1058E000E600002010840000D2D1BCA4BBEED2BBE5
:1058F000B4CED0D4B2E2C8DDC4A3CABD000000005B
:10590000FFFF0000CFC2B4CEC6F4B6AFCAB1C8F430
:10591000B7FBBACFCCF5BCFEA3AC0000D4F2CFB538
:10592000CDB3BDABBBE1D7D4B6AFBFAACABCB2E260
:10593000C8DD0000B0B4CFC200000000E0FF0000EE
:1059400045534300D2D4CDCBB3F6000010B508F0D8
:10595000A3FE10BD01218140014841608160704774
:10596000404002400449496801228240114201D06E
:105970000120704700207047404002400179027AC0
:10598000C90712071143C28800681143024A800008
:105990008018016070470000004002400122054B62
:1059A00082401868012902D0904318607047104364
:1059B000FBE7000040400240034901200870044911
:1059C0000248086070470000ED00002080320200AD
:1059D0005400002030B5002485B0234616A217A13C
:1059E000032008F001FBFF250135214601232A464B
:1059F0000846FEF757F9FF21E03168464180134918
:105A0000018004710294124C85816946204609F098
:105A1000C5F82946204609F0A5F80E492801086076
:105A200001222946204609F0B1F80121204609F05B
:105A30009EF805B030BD0000303100005374617233
:105A400074696E6720484254494D0000D33000000D
:105A500000E0064000E100E010B505480121C175F5
:105A60000021044809F094FB03490020087010BD90
:105A7000AC0100208C010020E600002010B5024897
:105A800008F0E2FE10BD00007C73010010B5024872
:105A900008F0DAFE10BD000004740100F8B5304CC7
:105AA0000026304826714178012500290FD1007861
:105AB00002280CD0684601F071F800280BD0684627
:105AC0000078072809D002202071E57043E0032008
:105AD0002071E5703FE0E5703DE023494A7F2349AE
