:020000040000FA
:1000000048140020C1000000F5E3000065840000F2
:10001000FFFFFFFFFFFFFFFFFFFFFFFFFFFFFFFFF0
:10002000FFFFFFFFFFFFFFFFFFFFFFFF391401008E
:10003000FFFFFFFFFFFFFFFF45EE00002539010036
:1000400035010000350100003501000035010000D8
:1000500035010000350100007D750000350100000C
:10006000E12A0000FFFFFFFF35010000350100001D
:10007000318200003501000035010000FFFFFFFF65
:10008000FFFFFFFF350100003501000035010000D2
:100090003501000035010000350100003501000088
:1000A0003501000035010000350100003501000078
:1000B0003501000035010000ADE70000350100000A
:1000C0002048804720488047204800472048016951
:1000D000002908D14169002905D18169002902D18F
:1000E000C169002909D01B48C1680901090D00290F
:1000F0000ED005290CD006290AD0BFF34F8F164821
:100100001649016016491548C860BFF34F8FFEE7D6
:10011000114801681148884200D0704711481249BF
:1001200001600D48114901607047FEE7FEE7FEE7F8
:10013000FEE7FEE7FEE700000D480E490E4A0F4BB2
:1001400070470000CD000000393901008101000036
:100150000003084080010840000000200400FA0568
:1001600000ED00E0008108400100000000000000F8
:1001700008040020481400204804002048040020FF
:1001800000F002F800F04FF80CA030C8083824182E
:100190002D18A246671EAB4654465D46AC4201D1BF
:1001A00000F041F87E460F3E0FCCB64601263342A2
:1001B00000D0FB1AA246AB463343184700E60100C5
:1001C00020E601000023002400250026103A01D378
:1001D00078C1FBD8520700D330C100D50B607047FF
:1001E00010B5662902D115F07BFB10BD642902D140
:1001F00000F0B0F810BD782902D100F0E1F810BD90
:10020000732902D101F022FD10BD002010BD1FB5E1
:1002100001F0DEFD04000020002115F04BF9E06044
:100220001FBD10B510BD02F037FA1146FFF7EFFF02
:1002300014F07CFB02F04FFA03B4FFF7F2FF03BCAB
:1002400002F0D2FA70B505460C46164602E00FCC15
:100250000FC5103E102EFAD2082E02D303CC03C5D0
:10026000083E042E07D301CC01C5361F03E02178D8
:100270002970641C6D1C761EF9D270BD0FB41CB5BC
:100280000C0007AA009001D00019401E084B7B44C7
:1002900069460190069801F0A6FC002C03D069463F
:1002A000002001F0B3FC1CBC08BC04B018470000DF
:1002B0008519000070B5044685690068C10601D53E
:1002C000302600E02026C00707D070BD62683046A7
:1002D000A1689047206A401C20626D1EF6D570BD53
:1002E00070B5044685690078C00707D170BD6268A3
:1002F000A16820209047206A401C20626D1EF6D520
:1003000070BD70B50C460546012A05D028788006D8
:1003100000D5EA69002302E0012305E05B1C93425B
:1003200002D2E05C0028F9D1A869E618C01AA861D9
:10033000286AC01828622846FFF7BCFF04E06A68F4
:100340002078A968641C9047B442F8D32846FFF788
:10035000C7FF70BDF7B5002575291068009914A670
:1003600011D0C046C046002802DA404211A608E07B
:10037000009909688A0701D50FA602E0490704D54C
:100380000EA6012501E0C046C046009F0024243788
:1003900004E001F05FFC30313955641C0028F8D1CD
:1003A0002B4632462146009801F0B3F9FEBD00000D
:1003B000000000002D0000002B00000020000000C5
:1003C00070B504460D4621461068C046C0462188D7
:1003D000090502D50F4A7A4402E00E4A7A440E32E9
:1003E00023460021243305E006070009360F965DF9
:1003F0005E54491C0028F7D120780023000705D55A
:10040000702D03D0002901D002231132204601F0C3
:1004100080F970BDFAD70100F3B50446002081B021
:1004200020622046E168884700287DD0252802D038
:100430006268A16883E0454F00257F442046E1685B
:1004400088472028064608DB312E06D2B819203806
:100450000078002801D00543F0E7A80701D5042063
:1004600085430020E0610746A0612A2E0AD030466D
:1004700014F008F8002827D0B8000019303E00908A
:10048000866119E00298BA00121902C891610290BF
:100490002046E1688847012F064617D1E069002809
:1004A0001FDA202085431CE000980A218069484318
:1004B00000998019303888612046E16888470646EF
:1004C00013F0E0FF0028EFD1012F0AD02E2E08D123
:1004D0002046E16888470646202005437F1C022FFE
:1004E000C3DBA069002803DA4042A0610120054374
:1004F000E80701D010208543002E24D03046413833
:10050000192803D80120C002054320362046256063
:100510003146029A1546FFF763FE00280CD00128E9
:1005200007D0ED1DE80800E00DE0C00008300290A3
:1005300077E72D1D029574E762683046A168904701
:10054000206A401C6CE7206AFEBD0000BED7010097
:1005500030B5441C03E00178401C00290DD0810710
:10056000F9D10B4BDD0104C8D11A91432940FAD0CF
:10057000001B0A0603D0C01E30BD001B30BD0A049C
:1005800001D0801E30BD0902FCD0401E30BD0000ED
:10059000010101010346F0B50B439B072DD1244D0A
:1005A000EF01042A29D308C810C95E1B9E43121FFD
:1005B0003E4017D0D8B2E1B2401A3106014310D103
:1005C00098B2A1B2401A310401430AD118022102A3
:1005D000000A090A401A3102014302D1180E210E05
:1005E000401AF0BDA342DCD018BA21BA884201D922
:1005F0000120F0BD0020C043F0BD002A01D1002041
:10060000F0BD03780C78401C491C002B0DD0A34290
:100610000BD1521E09D003780C78401C491C002BCA
:1006200003D0A34201D1521EEBD1181BF0BD000034
:1006300001010101F8B5042A2CD3830712D00B78ED
:10064000491C0370401C521E83070BD00B78491CB9
:100650000370401C521E830704D00B78491C0370A2
:10066000401C521E8B079B0F05D0C91ADF002023A8
:10067000DE1B08C90AE0FFF7E5FDF8BD1D4608C905
:10068000FD401C46B4402C4310C0121F042AF5D272
:10069000F308C91A521EF0D40B78491C0370401C91
:1006A000521EEAD40B78491C0370401C012AE4D482
:1006B00009780170F8BD01E004C0091F0429FBD2CC
:1006C0008B0701D50280801CC90700D002707047DB
:1006D00000290BD0C30702D00270401C491E02291A
:1006E00004D3830702D50280801C891EE3E7002221
:1006F000EEE70022DFE70000F8B507460B46394673
:100700001943890713D1164CE601042A0FD302CBF3
:100710000D1B8D43354202D102C0121FF5E7CBB24B
:100720000370401C521E002B13D0090AF7E7002A61
:1007300014D01978521E5B1C0170401C002908D08F
:10074000002A0BD01978521E5B1C0170401C002936
:10075000EDD1002A02D01146FFF7C9FF3846F8BD97
:1007600001010101002203098B4273D3030A8B426A
:1007700058D3030B8B423CD3030C8B4221D312E0A2
:1007800003460B437FD4002243088B4274D30309F2
:100790008B425FD3030A8B4244D3030B8B4228D393
:1007A000030C8B420DD3FF22090212BA030C8B42B9
:1007B00002D31212090265D0030B8B4219D300E059
:1007C000090AC30B8B4201D3CB03C01A5241830BDE
:1007D0008B4201D38B03C01A5241430B8B4201D38E
:1007E0004B03C01A5241030B8B4201D30B03C01AB7
:1007F0005241C30A8B4201D3CB02C01A5241830A31
:100800008B4201D38B02C01A5241430A8B4201D35F
:100810004B02C01A5241030A8B4201D30B02C01A89
:100820005241CDD2C3098B4201D3CB01C01A5241F0
:1008300083098B4201D38B01C01A524143098B4279
:1008400001D34B01C01A524103098B4201D30B0162
:10085000C01A5241C3088B4201D3CB00C01A524187
:1008600083088B4201D38B00C01A524143088B424C
:1008700001D34B00C01A5241411A00D201465241E5
:10088000104670475DE0CA0F00D04942031000D304
:100890004042534000229C4603098B422DD3030A59
:1008A0008B4212D3FC22890112BA030A8B420CD369
:1008B000890192118B4208D3890192118B4204D392
:1008C00089013AD0921100E08909C3098B4201D312
:1008D000CB01C01A524183098B4201D38B01C01A4C
:1008E000524143098B4201D34B01C01A52410309C3
:1008F0008B4201D30B01C01A5241C3088B4201D372
:10090000CB00C01A524183088B4201D38B00C01A1E
:100910005241D9D243088B4201D34B00C01A5241F5
:10092000411A00D20146634652415B10104601D382
:100930004042002B00D54942704763465B1000D30C
:10094000404201B50020C046C04602BD7047704716
:10095000704700000246C80FC00781434B0030B506
:100960004B405B009B0D20D01923DB06C9180123E7
:100970001B05994220DB0324A40704251346AB4042
:100980000BD3002B04D1EB0613409B00E34204D4AD
:1009900001246407002312195941FF231B059942C2
:1009A0000BD2C9000143500F09E0CB0204D501432B
:1009B0000803024305D0054830BDFF21C90508439F
:1009C00030BD084607210905884330BD0000C07FBF
:1009D000F0B50C46871A9C410D46861A9D4103D2FC
:1009E000C01BA141D21963410D0D1F0DC94EEC1B57
:1009F000AE435CD07F057F0D0026002F51D02D0522
:100A0000AC46A943DD020123ED0A1B051D4320234B
:100A10001B1B24D41746E740381871412F46E74086
:100A2000CC199D402818314661410C0D27D16144F5
:100A30009A4013D50023401C594152000ED1400862
:100A4000400001224B005205D34207D30520400746
:100A5000C14201D5B04900E0B0493046F0BD6B005D
:100A6000002A00D001229A181F23203C1B1B01D50D
:100A7000002302E0E540281871410C0DD7D0012475
:100A800024050919C407CD0740084908E40F284385
:100A90006144002CD5D00024401C61419A40D0D143
:100AA000CDE76A05520DD9D1C90FC907D5E79C4DCD
:100AB0004E00002801D0012400E0002434195F001A
:100AC000002A01D0012600E00026BE19954FAC4255
:100AD0000CD8AE420AD8B44206D001256D05EC42CE
:100AE000BCD010461946F0BD9942FCD000203946D2
:100AF000F0BDF0B51FB40C460F46811A9F41254644
:100B0000861A9D4106D20125ED076F40401ABC416F
:100B100052187B41210D1E0D8D1BAC467D4D8D4322
:100B20007ED075056D0D7CD00D05AE46AC431B0324
:100B30001B0B794D52429D41202366469B1B14D3CB
:100B40001746F740381800260090744160462F463B
:100B50000741E41900989D402818664116D4714653
:100B600071189A4025D5012320E093182A466A413E
:100B70005200002B00D0521C1E23203E9B1B002B3A
:100B800061DD3541EE1728186641E8D50018764139
:100B90005B1C9A4000D3401C4B05F3181524E3401E
:100BA00010D3002B52D071467118D30FC01802D346
:100BB000491C05B0F0BD0123DB079A42F9D140087A
:100BC0004000F6E701225205B21801D1002853D0A7
:100BD0000123CC0ADB029943891E002A08D1020CAA
:100BE00003D0020C0004103902E002460020203934
:100BF0000023550B05D112020823550B01D15201D8
:100C00000D23550C01D112011B1DD50C01D19200F1
:100C10009B1C150D01D152005B1C2025EE1A01E032
:100C20002CE022E00546F54015439840CA1AE1073A
:100C300069181305C918002ABBDA032040070818F1
:100C4000C10FC9070FE071466118B2E7F10740080C
:100C50000843711071444A000CD001235B059A428D
:100C6000A7D2C90FC9070020A3E74905490D26D11E
:100C7000002001E00028F4D100219AE7284D660009
:100C8000002801D0012100E0002171185F00002A36
:100C900001D0012600E00026BE19224FA94210D83B
:100CA000AE420ED8B14208D001256D05E94206D00A
:100CB0001946A802414010467BE79C4201D02146DC
:100CC00077E70020394674E710B50C465C4005D53F
:100CD0000124E4076340FFF70CFF10BDFFF778FE27
:100CE00010BD30B40C465C4004D50124E4076340D9
:100CF00030BC6DE630BCFCE670B50124E407614011
:100D00000D465D4002D4FFF763FE70BD6340FFF700
:100D1000F0FE70BDFF0700000000F0FF0000F07F54
:100D20000000E0FF0000F87FF0B5F94D0C091E0946
:100D30002C402E402F468BB0A7437DD0B543FCD02E
:100D4000002E7AD0002CFCD00D465D40ED0F2543DF
:100D5000AC1BFF25AD0464190894C502440DC902FB
:100D60002143500DDC0204430120C007014304432A
:100D7000D2020191200C110C00958C4601042346EF
:100D80008B430A9161460904E24D8A430991010AA5
:100D90007D4449198039097805464D4301266D186F
:100DA000F605751B6943C90C640B891C4C43641818
:100DB000B5012C1B250C2E04B4434C434D43210C90
:100DC000691889090591009DE90701D00121C9072A
:100DD00004912C4601996708CD072F434C08059DC7
:100DE000E10B4D432D0C29466646754302950D4691
:100DF00045432E46029D7D1BB44100950D465D4343
:100E000001942C0C2F040D465543AE462D0C3D434A
:100E1000029503947546049C2D04641B049406D229
:100E2000029C039D641C002675410395029401AC4D
:100E300070CC009F7D1B01E03EE162E1B4410904FA
:100E40000095079101940599A4086143090C0C468B
:100E50004443650BE7040C4666467443A646640BA0
:100E60003C43039502947446049DE4042C1B0494B3
:100E700006D2029C039D641C0026754103950294D2
:100E800001AC70CC009F7D1BB44101940C465C43C7
:100E90000095650FE7000C465443A646640F3C439B
:100EA000039502947446049DE4002C1B049406D21E
:100EB000029C039D641C002675410395029401ACBD
:100EC00070CC009F7D1BB441AE09AF06049DC900E4
:100ED000AD092F43049DA406AD060495079D344338
:100EE00069180791059DE10B4D432D0C2946664677
:100EF000754302950D4645432E46029D7D1BB44128
:100F000000950D465D4301942C0C2F040D4655436E
:100F1000AE462D0C3D43029503947546049C2D046A
:100F2000641B049406D2029C039D641C0026754138
:100F30000395029401AC70CC009F7D1BB4410194D9
:100F40008C050694079C890A611800950791019CFD
:100F50000599A4086143090C0D464543680BEF044D
:100F60000D46644665436C0B3C43049FED047D1BBA
:100F7000AC4602D20025641C6841009E019D371BCF
:100F800085410846584301950C46460FC500544319
:100F9000600F28436546E4002C1B02D20025401C4C
:100FA0006E41019D3F1AB5412846BD098006284380
:100FB0008446A009BF064E020699A4067618074388
:100FC000079D002068410A99079019430020099B5A
:100FD00000906046FF1913434041E20F64003A431A
:100FE000A4460446D71A8C41A04203D901200090A0
:100FF00020463A46C70F941840416246D20F22431A
:10100000644664000494009CBE466400D71AA4465B
:10101000044602978C417746002F01D1A04204D9A3
:101020006046401C8446029A2046C40FA646941887
:101030004041049A0546D20F224364466400D31A05
:101040008D417146002901D1A84202D928461A468D
:10105000641C10430122002800D0164361020020C6
:10106000079B891904465C410223002C02DB4918C6
:1010700013466441089DCE0A2D145D194B05670582
:10108000E10A2C050D1908993E43C9076940002B58
:1010900008D0934006D30022761C5141002B01D189
:1010A000760876001C4A002D43DB154241D0AA4346
:1010B0003FD030460BB0F0BD06180D464D41174CE1
:1010C0007642AC411AD395181C465C41134A6D42D6
:1010D000A24113D3012252054C00D4420AD15C0034
:1010E000D4420BD04B4002D592021143E2E74900B3
:1010F0004908DFE75940C90FC90718E0002008492F
:10110000D8E7054801420DD10342F7D0F2E70000CD
:101110000000FF0779CE01000000F07F0000E0FF33
:101120000000F87F114859400143C012414000209F
:10113000C0E70123089A9B069A4205DC0322520766
:101140008918C90FC907B5E7052252078918074A48
:101150001143D2125140ADE770B515461C46024608
:101160000B4628462146FFF7DFFD70BDFFFFFF7FDE
:101170000346CA02400D10B510430A1504D00124DD
:10118000E4072043002A05DB0A4CA21A04D4D0400D
:10119000FF2A00DD002010BD4A00002B01D00120F5
:1011A00000E00020101801225205D042F2D8C817E2
:1011B000C04310BD1E0400001F22030C02D10F22E9
:1011C000000402D0030E03D004E000200146704763
:1011D0000002083A030F01D10001121F830F01D151
:1011E0008000921E002801DB4000521E120551189B
:1011F0004205C012411810467047C10FC90700D000
:101200004042012292071143D6E701218907D3E723
:10121000F0B58B4C0F09254689B0BD437BD01D0925
:101220002646AE43FAD00E465E402740F60F3E43B8
:10123000254071D024012142FBD0FF24AD19A40424
:101240002D1B039501252D05DB02DB0AC9022B436B
:10125000C90A29431E010901040F130F0501214387
:101260001701880B820391432D098C46A90B1E435D
:101270008A039543B30B9A0396433F09BA0B940331
:10128000A74302962E467E430497B6464E19D719B9
:101290000C460196544305977E43371B7646BF1B89
:1012A0003601B646BE0B361900967646BC04371991
:1012B000009C01D3641C00946400002F01D001261F
:1012C0003443029E049F754366467E43049676002F
:1012D00034196E0034190094029C019E1C19664357
:1012E000751BAE46069465464519059C05956C43ED
:1012F000594375460891691A0191049E014651436C
:10130000A41B0491611A009C0791E10605D06109B4
:101310000122114302E072E06EE06109089D00279E
:101320002C0A2D066918049D7C412A0A2D0669188D
:10133000019D6241AC0DAD026D185441079A910DAB
:10134000920255196141029A644658435443069BE0
:10135000059A5A43121A131B9A0E9B015B187A4185
:10136000010B0005C3185141220A200644195A41B5
:101370009A4200D2491C01204002814203D3152326
:101380000226F64302E014230326F6432020C51A62
:10139000A9401746AF40DA400A4320460399D84097
:1013A0000914731819055118039A3843D20751408C
:1013B000AC4009D00122944006D30022401C514188
:1013C000002C01D1400840001E4A934212D3012252
:1013D00003989206904207DB0520400709181A4837
:1013E0000143C012414004E0032040070818C10F28
:1013F000C907002009B0F0BD0020F107FAE7051881
:101400000C464C4111486D42A04115D394181A4620
:101410005A410E48644290410ED301204A004005D3
:10142000824209D35A00824206D35940C90F084A62
:10143000C90700201143DDE700200649DAE7000074
:101440000000FF07FE070000FFFFFF7F0000E0FF36
:101450000000F07F0000F87F0121C9050123411839
:1014600042001B06D3185B0E0AD0C1100722D20619
:10147000891840075242D14201D55200891870475D
:10148000090208D50146002A03D0C10FC907002070
:10149000704710467047420202D000200249704750
:1014A000072109050143F4E70000F87FF0B5FF25A7
:1014B0002D04C609C209FF2704462E400137CB0977
:1014C0003E4348402A402B400746002A6BD0002B61
:1014D00069D0AA4267D0AB4265D0002800DA324614
:1014E0000125ED0529432C4309022002090AD21ADD
:1014F0004B0C7F24E31A434C000A7C44E35C7D24BC
:101500002404121914145B00A218884201D3521C3F
:1015100000E0400049420C465C4324115C43DB017F
:101520006415E318040A5C43C502200D0C464443CD
:101530006419250A5D432303EC0C0D466543000343
:101540000019EB184C42A34201D35B18401CD40590
:101550002018002B07D05B00C91804D3401C0029B9
:1015600001D1400840003F2189048A4209D3002A62
:1015700008DC1106090F04D0032149074018C00FE9
:10158000C007F0BD01224100120689187F225206D1
:101590009142F6D205214907C84201D59010F0BD0D
:1015A000FF20C005F0BD002F00DA32461648AA42DF
:1015B00007D2AB4205D21902090E17D0F80FC007A7
:1015C000F0BDFF2563002D06AB42F9D84900A942C2
:1015D000F6D8AB4201D1A942F2D0A94201D10021F3
:1015E00001E061004908D0050843F0BD1102090E71
:1015F000FBD0FF200243D005F0BD0A46014610464D
:1016000054E700008FC701000000C07F10B50146FD
:101610009E240002CA15A307002A02D01843002AFC
:1016200004DBA21A002A0CDDD04010BD1206120EF7
:1016300001D140004008A21A03D4D0404042002803
:10164000F3DDFF2248001206904201D9002010BDB0
:10165000C817C043584010BD1F22030C02D10F22EF
:1016600000041CD0030E01D10002083A030F01D17F
:101670000001121F830F01D18000921E002801DBA0
:101680004000521ED20551180212511819229040E2
:1016900004D3491C002801D1490849000846704775
:1016A000C10FC90700D04042012292071143D3E77E
:1016B00001218907D0E7000010B5FF22C30D1340B8
:1016C00009D05A4007D0914205DA5C42A14202DDBE
:1016D000C905081810BDC40FE407002B06D0002A66
:1016E00006D0002902DBFF20C0050443204610BDC0
:1016F0004102FCD0004810BD0000C07F10B500F0D2
:101700006BFB006810BD10B5044600F065FB04607B
:1017100010BDFFB504460D4681B02430009021680D
:10172000880604D51022E0699143216000E0012081
:10173000A84201DD471B00E000270498A1697A193F
:101740001018081AA0612078C00602D42046FEF7BF
:10175000B1FD002608E003986268A168805D9047AB
:10176000206A401C761C206204988642F3DB2078B5
:10177000C0060AD52046FEF79DFD06E06268A16816
:1017800030209047206A401C206238467F1E002887
:10179000F4DC07E000986268A168405D9047206A29
:1017A000401C206228466D1E0028F3DC2046FEF710
:1017B00097FD2078000602D5022005B0F0BD01207B
:1017C000FBE700007047FFB50C461E468FB003CA0A
:1017D000089009914F007D0D00D16D1E0021084633
:1017E0000020C0460321099A89050840002A03DA2F
:1017F0008200801840080840800D01280A9002DD10
:101800000020C0430A90089807430DD0F048F149E2
:10181000281848430714189800281DD07542291E1F
:101820001DDD0A9842421BE01898012802D00020D2
:10183000302104E00020F24305E02154401CB04276
:10184000FBDB30460022189B002121540F998B604E
:101850000A60486013B0F0BDBD1B6D1CDFE70A9A3B
:10186000002900DA69420BA800F03CFB0BAB07CB68
:1018700003AB07C30899099800F0A0FB6B4607C3A8
:101880000146D5480918002D00910BDDD249039877
:101890000A9A49424018002303A90390684600F0C1
:1018A000FDFD08E003990A9A0023081803A9039094
:1018B000684600F09DFD6B4607C30004000C03D092
:1018C0000020C043410800E01046189A002A03D0C7
:1018D0000022009215461EE0751E05D400F080FA25
:1018E000303262556D1EF9D501220843079602D0A9
:1018F00000227F1C04E02078302801D100227F1EC6
:10190000002A069787D01EE0112D07DA00F068FA4A
:10191000303262556D1C02460A43F5D1084303D0AC
:101920000098002819D00EE00021681E05E0235C15
:10193000625C63542254401E491C8142F7DBA81BA1
:10194000401E07950690079A18990020A0540F98FA
:10195000079B069A81600CC07CE711260020189036
:1019600059E7D21DF0B50D460446D10893B0C90021
:1019700003C90C900D9112F0E9FC02460D98C00FBE
:1019800001D02D2007E02068810701D52B2002E03F
:101990004007C00F4001032A0F9001D0072A05DB42
:1019A00003462946204600F059FA0EE120788006C9
:1019B00001D5E76900E006272846652D04D0662892
:1019C00014D0672D69D12DE00020112F009001DB8C
:1019D000112300E07B1C0CAA03A910A8FFF7F3FE5B
:1019E0001199002610987D1C0E9142E001203B4683
:1019F0000CAAC0070B900120009003A910A8FFF7C4
:101A0000E2FE119D12981099002600280E9501D132
:101A1000781C0D18781B02D446427D1C761EE81BEC
:101A200000903AE0012F00DA01270020112F0090EA
:101A300001DD112300E03B460CAA03A910A8FFF723
:101A4000C2FE11993D46109800260E912178090793
:101A50000BD40E99A94200DA0D4603A9012D04DD2D
:101A60004A19203AD27F302A06D0B84201DA011D45
:101A700004DA012100910FE06D1EEFE7002802DC7F
:101A800086192D1A03E0411CA94200DD0D46801B7A
:101A9000401C00900120C0070B902078000705D45F
:101AA0000098A84202DB0020C04300906946002055
:101AB000C8720B98012102AF0337C907884225D0AD
:101AC000022010902B2011900B9800280BDA404236
:101AD0000B902D20119006E00B9800F0BBF83031F0
:101AE0007F1E0B9039701099481E00291090F3DC6E
:101AF0000B980028F0D111987F1E387020880005BF
:101B000001D5452000E065207F1E387001A8C01B6C
:101B1000C01D0B900F98002800D00120411900989B
:101B2000C01709180B980818A169081A401EA0616F
:101B30002078C00602D42046FEF7BCFB0F98002890
:101B400005D06268A1689047206A401C2062207816
:101B5000C00625D52046FEF7ADFB21E0002E07DBB1
:101B60000E98B04204DD03A86268805DA16802E0BF
:101B70006268A16830209047206A761C401C206271
:101B80000098401E002800900AD100F021F9C0689A
:101B900062680168405CA1689047206A401C20622E
:101BA00028466D1E0028D9DC07E062683878A168F5
:101BB0007F1C9047206A401C20620B99481E002918
:101BC0000B90F2DC2046FEF78BFB032042E6000080
:101BD00001FCFFFF104D0000E1DFFFFF01694A1C1F
:101BE00002610878704700B58FB00291002105911D
:101BF0000549019379440391114604906846FEF724
:101C00000BFC0FB000BD0000E5FFFFFF0A6810707D
:101C1000521C0A6070470CC908399A4202D2531C00
:101C20000B601070704710B54369002B02D0C0469E
:101C3000C04601E0FEF765FB012010BD12780146A9
:101C400024310A7000224A700122ECE71168002258
:101C5000D243E8E701468008081A02091018020A70
:101C60001018020C1018C008820012185200891AAD
:101C700001E0401C0A390A29FBD27047F8B5224C12
:101C80004E00069DA6420AD8A64201D1002806D1E0
:101C90005E00A64203D8A6420AD1002A08D00D242D
:101CA000240425422CD02946002000F047FCF8BD32
:101CB0000C461C430CD4994202D0EFF30080F8BDCF
:101CC000904202D0EFF30080F8BDEFF30080F8BD42
:101CD00009242407E5008B4206D0EFF30080A043DF
:101CE000591A06D2284304E0101A05D3EFF30080F6
:101CF000A04380F30088F8BDEFF30080A043F1E734
:101D0000009500F033FCF8BD0000E0FF70B505461B
:101D10004800440D124B0020002C0AD0634008D02C
:101D20009A4206DA6642B24203DD12054019514179
:101D300070BD002C08D0002B09D0C90FC907002A9C
:101D4000F6DB084A114370BDC90FC90770BD2846AC
:101D50000A03104302D00020034970BD284670BD1D
:101D6000FF0700000000F07F0000F87F10B5FF23A0
:101D70001B0644009C421DD84C009C421AD80346C6
:101D8000124A0B4307D4401A02D3EFF3008010BD70
:101D9000EFF3008010BD081A06D2EFF30080012196
:101DA0009043C907084302E0EFF30080904380F3BB
:101DB000008810BD0D231B041A4204D011460020D8
:101DC00000F0BCFB10BD00F05BFC10BD00000090FB
:101DD00000487047C403002000487047A403002057
:101DE0000B4670B5024689078008084319469D08CE
:101DF000141AA94125090807054308092C19484167
:101E0000250A01060D43010A2C194141200C0D043D
:101E100028430D0C00194D41002140194D41C008C7
:101E200069070843E908840F8D00254384002418BE
:101E30004D4124196D41121BAB4107E00925ED43CB
:101E40002C11521963410024401C61411C460A2593
:101E50000026551BB441F1D270BD0000F8B51F46F5
:101E6000044601230068DB02032601461840072AC6
:101E700005DB002801D017A506E017A504E000281F
:101E800001D016A500E016A5102081432160A069AD
:101E9000C01E002FA06101D0401EA0612046FEF7A9
:101EA00009FA002F09D038466268A1689047206A75
:101EB000401C2062C01C206206E0206AFAE76268CB
:101EC0002878A1686D1C9047761EF8D22046FEF750
:101ED00007FAF8BD4E414E006E616E00494E460055
:101EE000696E6600F7B516468AB0334878446C468A
:101EF00003467C33C06F5A689B680DC42E487844F3
:101F0000763003AC0DC80DC43720C0010818372146
:101F10001B30FEF735FC05460C46803D1B3C02D5C8
:101F20006442012000E000200027099010E0E00753
:101F30000CD00C2020497843794432464C39411862
:101F40006846012300F054FA6B4607C364107F1CF7
:101F5000002CECD1184F7F442E3F16E0E80712D03A
:101F60002001C0190EC80691089307920068F0423C
:101F700001D1981908903246012306A903A800F060
:101F800037FA03AB07C36D10641C002DE6D1099826
:101F9000002806D032466946012303A800F07EFAE5
:101FA00005E001233246694603A800F021FA0A9BA6
:101FB00007C30DB0F0BD0000A8BE010003464000FD
:101FC0000A4610B5400D0BD00121C9070F24A40209
:101FD00000191C0364082143540D2143D20207E079
:101FE00000210120F2E7D40F490021435200401E96
:101FF0000029F8DADB0FDB07184310BDFFB50D46EB
:10200000144685B04868516812F07EF9009101903D
:10201000A868A16812F078F902910390A868616835
:1020200012F072F9029A12188242029201D2012031
:1020300000E00020019A0B18D2180028019202D06B
:102040008A4202D903E08A4201D2012000E0002046
:102050000099081800906868A16812F055F9029A72
:1020600012188242029201D2012000E00020019A5F
:102070000B18D2180028019202D08A4202D903E03C
:102080008A4201D2012000E0002000990818009047
:102090002868216840004900400849084018FA496A
:1020A000471814E001994000C90F084300900198B7
:1020B00002994000C90F084301900298039940001B
:1020C000C90F08430290039840007F1E03900098B8
:1020D0000028E7DA0898002801D0EC4E00E000263E
:1020E000B74201DA012000E00020002804902AD045
:1020F000F71BF806C00E15D0029B2021091A039A7F
:102100008B401A430392029A019BC2408B401A43B0
:102110000292019A009BC2408B4000991A4301929F
:10212000C14000917B110DD06F460320C11A03D529
:1021300000218200B95003E08A008100BA587A5029
:10214000401EF3D5374603980299002800D001209D
:10215000014308980291002808460CD0002800D0BE
:1021600001200199019A490508430121D20AC902B7
:10217000D202019200E001210E9B0122D207012B25
:1021800002D0002B03D013E0002807D120E09042BA
:1021900004D890420CD1019B0B4209D0019B5918E5
:1021A000019105D10099491C009101D17F1C009239
:1021B00000280DD0102108460020C04604980028B1
:1021C00006D00F98002803D0082108460020C046FA
:1021D00028682168019B009A4840C10F0598C907EB
:1021E00039430EC009B0F0BDFFB587B0099A089811
:1021F000089953689268406889689646002203935C
:1022000017469446089A12685300099A5B081268A8
:10221000520052089A1A9E4BD4180A9A002A01D0EA
:10222000352200E040220692002201231546049246
:10223000DB07059324E0002D05D175460346039E78
:102240004D1BB34109D375466646039B491B049D4C
:102250009841059B7519AC465F4163463B4308D0E6
:10226000059B049EDD0776082E435B0804960593C4
:1022700001E0521E641EC50FED0749184041521C73
:10228000069B9A42D7DB002D04D17546039A6B1A40
:10229000824101D203200CE0039A0B466B4042407E
:1022A000134303D0014303D0012002E0022000E0E9
:1022B0000020614601910021009702910A990029AE
:1022C00005D0614640020143704B019102E0800756
:1022D000002302909C4201DA012000E00020070068
:1022E0003AD01A1BD006C00E15D0029D2021019CA9
:1022F000091AC5408C402543029C8C4000D0012423
:102300002543019C0295009DC4408D4000992C43BB
:102310000194C140009154111DD06D46022100224C
:1023200002290CD10320001B07E0002804DB8600F3
:10233000AE59002E00D00122401C0328F5DB081BFB
:1023400002D588002A5004E08000285810438A00F3
:10235000A850491EE3D51C460A98002802980CD0C4
:10236000002800D001200199019A49050843012164
:10237000D20AC902D202019200E00121109B01227F
:10238000D207012B02D0002B03D013E0002807D185
:102390001FE0904204D890420CD1019B0B4209D01F
:1023A000019B5918019105D10099491C009101D157
:1023B000641C009200280CD0102108460020C04662
:1023C000002F06D01198002803D0082108460020CD
:1023D000C04608980999019A009B0068096848401E
:1023E000C10F0798C907214382600AC00BB0F0BD36
:1023F00000B585B0019300920A460146002302A869
:10240000FFF7FCFD02A807C805B000BDFFB50A46EE
:102410001F4685B00799019301230091014602A848
:10242000FFF7ECFD02990398049ECA0F4900D207FA
:1024300000920F22490892028C1A0021002800DB2A
:102440000C46450013486D08844214D3079A002AAD
:1024500004DA441E0026104DF64302E004460D4601
:102460000E46102108460020C046002F03D004214C
:1024700008460020C0462005E90A084300990843A1
:102480006905F20A1143ADE602C0FFFF013C0000FE
:10249000FF3F0000FF070000FFFFFF7F00B585B092
:1024A000019300920A460146002302A8FFF79CFE12
:1024B00002A807C8A8E7FFB50A461F4685B00799D6
:1024C000019301230091014602A8FFF78DFE0299B6
:1024D0000398049ECA0F4900D20700920F224908B0
:1024E00092028C1A0021002800DB0C46450011489E
:1024F0006D08844214D3079A002A04DA441E002689
:102500000D4DF64302E004460D460E4610210846E6
:102510000020C046002F03D0042108460020C046FA
:102520002005E90A0843009908436905F20A1143A6
:1025300058E60000FF070000FFFFFF7FC80212D52A
:102540004803400F002804D0C803C043012188403D
:102550007047EFF3008000010009032109070843D9
:1025600080F30088704700207047000010B50020FD
:102570000249029A00F008F910BD00000000F87F3F
:10258000F0B53D4B02460C461C400020002C63D0A9
:102590003A4D8B4366D000296BDB0B0D1D05A9431B
:1025A00001252D0529430124FD33E34001D3921871
:1025B0004941FF3381339C468B02940D0121234313
:1025C00089074C42920200271B198C105D1A04D413
:1025D0002D1B02D42B466500491992185B416408F3
:1025E000F4D15C1A08D40125ED07EE175519744192
:1025F00002D42A462346491C94185B4101229207C3
:102600001D46E61B8D4106D4B61A854103D42B46E0
:10261000550034467F1924195B415208802AEFD1B6
:10262000234300D0022338460A22D04001D301229E
:1026300013438A0510436246890A12058918002B44
:1026400009D00122D34002D30022401C5141002B6B
:1026500001D140084000F0BD0B03134307D0C90F60
:10266000C907F0BD0803104303D1002901DB104660
:10267000F0BD00202946F0BD0000F07F0000F87F8B
:1026800010B5024800F080F810BD00000000C07FC7
:1026900000487047A40300207546FFF7F9FFAE46D7
:1026A000050069465346C008C000854618B020B5ED
:1026B000FDF742FD60BC00274908B6460026C0C5AC
:1026C000C0C5C0C5C0C5C0C5C0C5C0C5C0C5403DEA
:1026D00049008D46704710B50446C046C0462046A6
:1026E000FDF7AAFD10BD000082078B079A4237D183
:1026F00070B5920F0AD0032402780B78401C491C55
:10270000002A2BD09A4229D12042F5D11D4EF40146
:1027100004C808C9951B9543254010D19A4207D19A
:1027200004C808C9951B9543254008D19A42EFD0AB
:1027300012BA1BBA01209A4200D2404270BD12BAAE
:102740001BBA2DBA18241000E0401900E140401ACD
:1027500005D12E00E64002D1083CF4D1D01A70BD5C
:1027600002780B78401C491C002A09D09A4207D1F4
:1027700002780B78401C491C002A01D09A42EFD005
:10278000D01A70470101010110B50C461107090F5D
:10279000092904D00A290AD008290CD104E01146DD
:1027A0000820FFF7CBFE06E0510606D501E05106F2
:1027B00001D50120C007214610BDD10607D5010172
:1027C0000909CC084907000E0006044309E0410F3F
:1027D00020024907000A0143200E00061D22D141B4
:1027E00001430846E7E7000001491820ABBEFEE7B9
:1027F00026000200704770B58C180578401C6B07E6
:102800005B0F01D10378401C2A1106D10278401CCD
:1028100003E00678401C0E70491C5B1EF9D12B07A3
:1028200005D40023521E0DD40B70491CFAE703781F
:10283000401CCB1A921C03E01D780D70491C5B1CD8
:10284000521EF9D5A142D8D3002070BD8030C1609E
:10285000704780220029016801D0114300E09143B4
:102860000160704710B504210348FFF7EFFF0349EB
:102870000120087010BD0000000001400C00002085
:1028800080308068084000D001207047F0B50025F6
:1028900087B002952E46039500247B4F03223C709F
:1028A00023461146794800F03FF9022200231146E1
:1028B000764800F02AF9012200231146734800F0FF
:1028C00024F900231A461946704800F01EF9012128
:1028D0006E4800F03FF9387800280ED17D273F017F
:1028E0000220641C11F03AFEBC4202DB002007B05B
:1028F000F0BD654800780028F2D06448016B426B57
:102900000905090D6D1802991205120D8918029119
:102910000399806B761C0005000D08180390052EA6
:10292000BADB28463146FDF71DFF0190314602987B
:10293000FDF718FF044631460398FDF713FF0746DD
:102940002046FEF7B5FE524912F0D2FE514C2061EE
:10295000FEF782FD05460E463846FEF7A9FEFEF755
:102960007BFD00224C4BFEF753FC2A463346FEF714
:10297000B8F9FDF7EFFF4949FEF798FD484912F015
:10298000B7FE414D0646E0606878002809D0E86847
:10299000FEF786FE314612F0ABFE4249FEF786FD99
:1029A000E0600198FEF784FE394912F0A1FE074667
:1029B0000121C9023C4805F033FC01283FD03846CC
:1029C000FEF74AFD0022394BFEF796F905460E4602
:1029D0003749384612F08CFEFEF73EFD2A46334654
:1029E000FEF7A2F9FDF7B6FF3249FEF75FFDFEF7ED
:1029F00033FD11F0F1FD00222F4BFEF795F92F4A20
:102A00002F4BFEF761F902460B4600202D49FEF7D9
:102A10008BF9FDF79FFFFEF71FFD2B4A2B4BFEF7AF
:102A200060F9FDF797FF2A4912F0F2FD2949884223
:102A300002D8294988421BDD002020701AE027496E
:102A40003846FEF733FD0646A0606878002809D0B6
:102A5000A868FEF725FE314612F04AFE1149FEF73E
:102A600025FDA0600121C9020F4805F095FB07E094
:102A70000121217001216060C9020B4805F0D5FBDE
:102A8000012007B0F0BD00000C0000200000014054
:102A90000000203A680100200000443F0000484246
:102AA00000007AC400007A4400200B40000004407B
:102AB000000020410000704100F4AA4083DBB5DC37
:102AC000E1796B3F0000F03F666666666612714012
:102AD000000040C0000020C20000FA428C2EBA3D27
:102AE00010B504210348FFF7CBFE012801D1FFF701
:102AF000B9FE10BD000001408030002A026801D0FC
:102B00000A4300E08A4302607047930830B49B0098
:102B10001B1858689207D40E1F22A2409043A14070
:102B20000843586030BC70475B1E12021B04FF3A1A
:102B3000013A13430B430168802211400B430360A9
:102B40007047CA06D20E02674909490141677047BA
:102B5000016270470029416F02D00122114301E058
:102B6000490849004167704710B40022072801D97D
:102B7000012208389300064A9B181A6880000F2427
:102B80008440A24381401143196010BC704700008B
:102B900000200240F0B5374BC000C61893B048087B
:102BA0000E9010010C908808069010020B90C80837
:102BB0000590100309900809049010040890480932
:102BC0000A90100507908809864610060390C809E8
:102BD00000258446100702900020FF24AC400346E5
:102BE0000C4240D00124AC40214201D00F201346BA
:102BF0000E9F274203D0F02738430C9F3B43069F8C
:102C0000274204D00F273F0238430B9F3B43059FC9
:102C1000274204D00F273F033843099F3B43049FBB
:102C2000274204D00F273F043843089F3B430A9FA5
:102C3000274204D00F273F053843079F3B43774681
:102C4000274204D00F273F063843039F3B43674684
:102C5000274204D00F2424072043029C23433468D6
:102C600084431C4334600835361D092DB4DB13B092
:102C7000F0BD00002020024018488078002801D1D3
:102C80000120704770B5012180200BF041FD002824
:102C900023D00A2011F03CFC002120200BF038FD4D
:102CA00004460A2011F034FC012140200BF030FDD5
:102CB000044011F057FA642011F02AFC0021402052
:102CC0000BF026FD20400546002180200BF020FD62
:102CD00004462C4011F046FA204670BD94000020B6
:102CE00018488078002801D10120704770B5012173
:102CF00080200BF00DFD002823D00A2011F008FCE5
:102D0000002140200BF004FD04460A2011F000FCD5
:102D1000012120200BF0FCFC044011F023FA642078
:102D200011F0F6FB002120200BF0F2FC20400546BC
:102D3000002180200BF0ECFC04462C4011F012FA2C
:102D4000204670BD94000020F8B500207E4C03465C
:102D50006070A0707DA27EA1632010F081F8012137
:102D600002200BF039FC06460A2011F0D1FB69461F
:102D700002200BF0F9FB0546684635400078012635
:102D800070406070002102200BF026FC28400746AE
:102D900060780021002806D002200BF0B9FC3840F2
:102DA000050002D009E00120F9E703236CA26DA120
:102DB000632010F055F80EF003FC6E4F6178387800
:102DC000884311D004236CA26CA1632010F048F852
:102DD000C82011F09DFB042367A26CA1632010F0B2
:102DE0003FF8C82011F094FB00236CA26CA1632073
:102DF00010F036F8012104200BF0EEFB0540012114
:102E000008200BF0E9FB05400A2011F081FB694620
:102E100004200BF0A9FB0540684600786946704025
:102E2000A07008200BF0A0FB054068460078002841
:102E300001D00020A070002104200BF0CDFB054044
:102E4000002108200BF0C8FB054026700021082057
:102E50000BF05EFC0540002104200BF059FC2842D9
:102E600007D1002352A253A163200FF0F9FF0EF007
:102E7000A7FB3878A178884311D0042351A23FA141
:102E800063200FF0EDFFC82011F042FB04234DA298
:102E90004DA163200FF0E4FFC82011F039FBA078AA
:102EA00000282BD04C484D498068884226DB4C488E
:102EB000807A002823D0012180200BF029FC0028F3
:102EC0001CD00A2011F024FB002140200BF020FC34
:102ED0000A2011F01DFB012120200BF019FC11F03C
:102EE00041F9642011F014FB002120200BF010FCAC
:102EF000002180200BF00CFC11F034F9F8BD012109
:102F000080200BF005FC0028F8D00A2011F000FB0F
:102F1000002120200BF0FCFB0A2011F0F9FA01211E
:102F200040200BF0F5FB11F01DF9642011F0F0FAD0
:102F3000002140200BF0ECFB002180200BF0E8FB8F
:102F400011F010F9F8BD00009400002034350000A5
:102F5000B3F5CABCBBAF4154434DC4A3BFE90000A5
:102F6000464300004154434DC4A3BFE9D2ECB3A390
:102F7000000000002D00002034360000BCECB2E25E
:102F8000B5BDBEC9B0E6D3B2BCFE00004154434D4E
:102F9000C4A3BFE9D2D1BDFBD3C3000034370000C6
:102FA000B3F5CABCBBAF41504D4DC4A3BFE900004F
:102FB0004644000041504D4DC4A3BFE9D2ECB3A339
:102FC000000000003438000041504D4DC4A3BFE95B
:102FD000D2D1BDFBD3C30000680100200000F04047
:102FE0008C030020F0B5554C83B0A07800283ED06B
:102FF000002568460095057106F014F901A805F052
:1030000053FE217801274E4E4E48002969D00129F0
:103010002FD002292BD10420205E002808DD401E7D
:1030200000B2A080002803D1012108200BF070FB22
:1030300081200099C005814210DB6846007907288D
:103040000CD000280AD04048814210DC0021082022
:103050000BF05EFB052011F05BFA66E00021082012
:103060000BF056FB012104200BF052FB257003B03E
:10307000F0BD80683549884203DB3549897A0029EB
:1030800003D05020A08003B0F0BD0421615E002970
:1030900004DD491E09B2A1800029F4DCFEF7DCF949
:1030A00032462C4BFDF710FE06460F460098FEF701
:1030B000D3F932463B4612F045FACFD36846007941
:1030C0000728CBD00028C9D0234800998142DADDF7
:1030D0000420A08001210BF01BFB0220207003B014
:1030E000F0BD694609790729F9D00029F7D0009980
:1030F000194A0291914207DD012108200BF008FBDB
:103100000220207003B0F0BD8068FEF7A5F93246BA
:10311000104BFDF7D9FD05460E460298FEF79CF9C7
:103120002A46334612F040FAECD2002104200BF07C
:10313000EFFA1020A080277003B0F0BD94000020AB
:103140009A99999968010020666656410000F040FE
:103150008C0300209999B93F66665E4106498978DB
:10316000002901D101207047012110B541401020F4
:103170000BF0CEFA10BD000094000020054A5278F2
:10318000002A01D10120704710B5014602200BF042
:10319000BFFA10BD9400002010B5124C60780028D2
:1031A00012D0002102200BF0B3FAA078002810D032
:1031B000002108200BF0ACFA142011F0A9F900212D
:1031C00004200BF0A5FA10BD012102200BF004FA37
:1031D000EBE7012104200BF0FFF9012108200BF09F
:1031E000FBF910BD9400002070B584B0184E002586
:1031F000164C334617A221210A200195009408F0AD
:10320000B1FF0C200190174B17A2212102950094C9
:103210005B2009F011FA334616A2312138200195BE
:10322000009408F09FFF731015A240210A20019519
:10323000009409F037F9154B15A240215E20019545
:10324000009409F02FF904B070BD00001084000054
:10325000FFFF0000B9D8D7A2DFD9C1A8DFD9C1A824
:1032600000000000E0FF0000404D5038363935378F
:1032700000000000D0BBD0BBDFF7A3A1000000001E
:1032800041756720313820323032350020FD000092
:1032900031343A31393A32340000000070B5104C04
:1032A0000026A079052809D10E4D012168784840F3
:1032B000687002D001200EF0E3F92E70A079042886
:1032C00009D100200EF0DCF907480078002804D06E
:1032D000064810F06FFAA67170BD0548F9E70000C6
:1032E000240000200001002048000020FCC4010050
:1032F00040CA0100F0B5494F0C2638780024484DEB
:1033000083B000281BD0787800280BD003F014FB82
:10331000034644A2312138200095019408F022FF91
:1033200003B0F0BD03F008FB034641A2282137207B
:1033300001960095029409F07FF903B0F0BD0CF0FE
:10334000A7FD79783D4B00290095019429D03C4A8E
:1033500021210A2008F006FF3A4B3B4A21215B203D
:1033600001960095029409F067F9344B374A3121F0
:1033700038200095019408F0F5FE354B354A402180
:103380000A200095019409F08DF8334B334A40210F
:103390005E200095019409F085F80120387003B093
:1033A000F0BD2FA21521042009F07CF8234B32A296
:1033B000282104200095019408F0D4FE1F4B1CA284
:1033C0002821372001960095029409F035F91B4B0E
:1033D0002CA2282185200095019408F0C3FE174BEC
:1033E0002AA23D2107200095019408F0BBFE134B53
:1033F0003A223D21392001960095029408F012FEF0
:10340000134B25A23D21402001960095029409F01E
:1034100013F90120387003B0F0BD00000001002056
:1034200010840000D0BBD0BBDFF7A3A100000000D8
:1034300052656473746F6E6572333500FFFF000070
:1034400054320000E0FF00006832000074320000D7
:10345000FF7F00008032000020FD0000903200005D
:10346000444645782D47543936D6C7BBDBB5E7B35C
:10347000D8D7D3CFB5CDB300C8EDD3B2BCFED3C936
:1034800000000000C9E8BCC600000000B9CCBCFECA
:10349000B0E6B1BE0000000056312E3520427569FD
:1034A0006C64350010B5024810F084F910BD0000BE
:1034B000A8CD010006490620085E002801DD401E57
:1034C000C8800820085E002801DD401E0881704782
:1034D0000601002002480021017181707047000040
:1034E00006010020F0B5DF4CE049A278DE480978FB
:1034F0000127DF4E002583B0082A16D213007B4433
:103500001B79DB189F44033713C871F1EFEF0CF000
:10351000BFFCD84BD8A216210E200096019508F0CA
:1035200021FE04F0D9F8D148077003B0F0BD0CF0CB
:10353000AFFCD04BD0A216210E200096019508F0CA
:1035400011FE2020E0800020FFF708FE06460A203A
:1035500010F0DEFFFFF7C4FB06400120FFF70EFE70
:10356000304203D125710420A07000E0A770BF484D
:10357000077003B0F0BD0770BC4F0029F9D00CF004
:1035800087FCBC4BBCA216210E200096019508F0CA
:10359000E9FD0620205E012802D000280ED015E0AB
:1035A000401EE0800020FFF7E9FD052010F0B0FF8D
:1035B000FFF762FB0120FFF7D1FD07E0B44BB5A296
:1035C000252111200096019508F06CFFB6483D704A
:1035D00000780028CDD0072805D0022020710420D3
:1035E000A07003B0F0BD0320FAE707702078002830
:1035F000F7D10CF04DFC1F23DB02ACA216210E20EC
:103600000096019508F0AEFD207900280FD0012822
:1036100004D0022814D0032821D118E09C4BA9A281
:10362000252120200096019508F09CFD17E0984B7D
:10363000A8A2252120200096019508F093FD0EE018
:103640002521934BA7A211200096019505E0904BF0
:10365000A9A2252120200096019508F083FD854B25
:10366000A9A23D2120200096019508F07BFD0C20A9
:103670000190874BA6A23D21009602953B2008F0C1
:10368000DBFF7C4BA3A23D2156200096019508F05C
:1036900069FD277003B0F0BD0126022007F046F94E
:1036A000002800D100260121002005F0A7FA0028FB
:1036B00014D0002E12D00520A07098480078002861
:1036C000E8D00020FFF75AFD052010F021FFFFF79A
:1036D000D3FA0120FFF742FD03B0F0BD25710420AD
:1036E000A07003B0F0BD77E0FFE70770E078002836
:1036F0002FD08B4EB07A002810D1E088002801D15D
:103700001020E0800620205E102802D00A2802D077
:1037100004E0002000E00120FFF730FD81488249ED
:10372000006840004008884205DBB07A002802D0DB
:10373000502020810DE0208900280AD1E570FFF794
:103740001DFD052010F0E4FEFFF796FA0120FFF7BB
:1037500005FD76484178002902D10078022801D180
:103760000620A07002F03CFF002802D00720A070C5
:1037700002E0A078052825D06D480078002804D004
:103780000021012005F03AFA0EE06A48007800288E
:1037900005D069480178012005F030FA04E0674857
:1037A0000178012005F02AFA002007F0BFF8002672
:1037B000642010F0ADFE761C052EF9DB032007F027
:1037C000B5F865702948007800288AD00CF060FBB5
:1037D00000F0D0F803B0F0BD0770244F0029F9D0F5
:1037E0000CF056FBA078564B07280096019532D076
:1037F00054A216210A2008F0B5FC1E4B42A23D211E
:1038000020200096019508F0ADFC0C200190204B83
:103810003FA23D21009602953B2008F00DFF154B7D
:103820003CA23D2156200096019508F09BFC3B48A8
:10383000E178007808420BD00020FFF79FFC0520BC
:1038400010F066FEFFF718FA0120FFF787FCE5701D
:103850003D7003B0F0BD41A216210A2008F082FCA1
:10386000CBE70000060100209E000020A000002001
:1038700010840000FFFF0000CACAC5E4C6F7C4A355
:10388000C4E2BFAAC6F4D6D0A1ADA1AD000000002D
:10389000E0FF0000C7EBBDABB8BAD4D8C1ACBDD314
:1038A000B5BD555342000000A6000020CACAC5E4B9
:1038B000C6F7C4A3C4E2BFAAC6F4CAA7B0DCA3A1DA
:1038C00000000000B5E7B3D8B5E7D1B9B9FDB5CD73
:1038D00000000000D0BEC6ACCDA8D0C5B4EDCEF37C
:1038E00000000000CFB5CDB3B4A6D3DAB7C7D5FD7D
:1038F000B3A3C4A3CABD0000CFB5CDB3B3F6CFD632
:10390000B9CAD5CF00000000B0B4CFC2000000009B
:1039100045534300D2D4CDCBB3F600009500002030
:1039200098010020B0000020CDCC4C3DA900002023
:1039300029010020530100205900002054010020DB
:1039400000F80000CFB5CDB3B3F6CFD6B9CAD5CF06
:10395000A3ACC4A3C4E2CDA3D6B90000B5E7B3D8E5
:10396000B5E7C1BFB9FDB5CDA3ACC4A3C4E2CDA337
:10397000D6B90000F0B5FD48FD4C0078FD4F00259C
:1039800085B0002806D01721FB4BFCA2162001951C
:10399000009425E0FE48FF4900780978084218D0D5
:1039A000FD48817AFD48C07801430BD0002810D033
:1039B0003F235B01FAA2172116200195009408F01D
:1039C00071FD0FE017213B46FAA20D2001950094EE
:1039D000F5E73F235B01FDA2172119200195009413
:1039E00008F0C0FB3B46FEA22C2106200195009466
:1039F00008F0B8FB0C263B463A222C211E200196EB
:103A00000295009408F00EFBE348807A00286ED0FF
:103A1000E0480178F44800296AD0F4490068096850
:103A200011F066FE4000F2494008884209DA024679
:103A300002232C21292000970296019408F04EFCC5
:103A400017E0EC49884209DA024601232C2129209B
:103A500000970296019408F041FC0AE0FDF7D6FDBC
:103A600082B204232C21292000970296019408F0A9
:103A70005DFD3B4657222C21522001960295009471
:103A800008F0D0FAC449087A002804D001284ED0A2
:103A9000022855D05DE0487A01285AD0082845D23E
:103AA00001007944097949188F449595030D17232E
:103AB0002D373B46D0A22C21672001960295009419
:103AC00008F0BAFD87E03B46CDA22C216720019685
:103AD0000295009408F0B0FD7DE0CB4BCBA22C21E9
:103AE000672001960295009408F0A6FD73E061E05E
:103AF00036E0C54BC7A22C216720019602950094A1
:103B000008F09AFD67E0C54BC5A22C2167200196FD
:103B10000295009408F090FD5DE0C04BC2A22C21FC
:103B2000672001960295009408F086FD53E03B461D
:103B3000BFA22C2167200195009408F013FB4AE0F6
:103B40003B46BDA22C2167200195009408F00AFB9A
:103B500041E02C213B46BAA267200195009438E051
:103B6000A949009102960194026802232C21292080
:103B700008F0B4FB3B4656222C21522001960295B8
:103B8000009408F04FFA9948022300682C21420063
:103B9000A2480090520802960194672008F09EFB0C
:103BA0003B4641222C21902001960295009408F07A
:103BB00039FA10E0994BA5A22C21292001960295F3
:103BC000009408F039FD3B46A2A22C215620019515
:103BD000009408F0C7FA3B46A0A23D2106200195BB
:103BE000009408F0BFFA3B463A223D211E20019680
:103BF0000295009408F016FA66489A490078002861
:103C000072D09948994A006843005B08934200DAF1
:103C10000020096811F06CFD400075494008884299
:103C200009DA024602233D212920009702960194D9
:103C300008F054FB17E06F49884209DA0246012375
:103C40003D21292000970296019408F047FB0AE0E5
:103C5000FDF7DCFC82B204233D2129200097029667
:103C6000019408F063FC3B4657223D215220019607
:103C70000295009408F0D6F97D48017800291CD0FF
:103C80004068FDF7C3FC002821DAFF274042D03707
:103C900003903B462D223D2101960295009467201A
:103CA00008F0C0F90398009782B2029601940223AB
:103CB0003D21672008F03AFC27E03B466DA23D21FC
:103CC000672001960295009408F0B6FCDFE00A2810
:103CD00001DA1F2710E06849C96B0A46143A82428C
:103CE00003DD3F277F0107E019E00839814201DD4C
:103CF0004A4F01E01F27FF0282B202233D216720C5
:103D000000970296019408F011FC3B465BA23D210E
:103D1000882001960295009408F040FAB7E03A48EE
:103D20000090029601940A6802233D21292008F0A0
:103D3000D5FA3B4656223D21522001960295009429
:103D400008F070F94848006842004848520882422A
:103D500000DA00223148009002233D2102960194AE
:103D6000672008F0BBFA3B46412289E05A00002058
:103D700010840000FFFF000020FD0000CFB5CDB390
:103D8000B9FDC8C8A3ACC4A3C4E2D4DDCDA3000070
:103D900095000020A40000209801002006010020CA
:103DA0005553422D41BFDAC4A3C4E2D2D1BFAAC643
:103DB000F4000000B0B4CFC2456E746572BFAAC6ED
:103DC000F441BFDAC4A3C4E200000000CACAC5E4DB
:103DD000C6F7C4A3C4E2D2D1BFAAC6F40000000053
:103DE000CAE4B3F600000000AC000020B0000020E0
:103DF0000000C84200007A445044203756000000BA
:103E00005044203956000000FF7F000050443132FA
:103E1000560000005044313556000000E0FF00001D
:103E200050443230560000005044455052000000CB
:103E3000B8DFD1B900000000B8DFC1F70000000012
:103E4000BFECB3E4B9D8B1D5000000005479706577
:103E50002D430000CEB4C1ACBDD30000B5E7B3D84C
:103E600000000000B4000020B8000020CDCC4C3D84
:103E7000680100202D2D2D0088020020A1E6000001
:103E80003D21902001960295009408F0CBF802485D
:103E9000057005B0F0BD0000A0000020F8B5344862
:103EA000344F0078344C0025002818D0B879032806
:103EB00015D1A078052857D1E078002813D000202C
:103EC000FFF75CF90646052010F022FBFEF7D4FE52
:103ED00006400120FFF742F9304200D0E570B87982
:103EE000042816D040E02548807A00283CD1FFF70E
:103EF00035F906460A2010F00BFBFEF7F1FE0640EE
:103F00000120FFF73BF93040E070E8D0A02020818D
:103F1000E5E7E078002802D1A07805280AD0002043
:103F2000FFF72CF9052010F0F3FAFEF7A5FE0120AB
:103F3000FFF714F9124813490278002A0CD00570D3
:103F40000D7000215023A0220846009507F058FD6F
:103F50000D480FF02FFC05E00878002806D00B482C
:103F60000FF028FC02F0ACFCBD71F8BD0848F7E783
:103F70009500002024000020060100209801002068
:103F80002D01002048000020A4C00100FCC4010055
:103F900040CA010010B500230FA210A148200EF066
:103FA0005FFF124A1248D1780378994211D001700C
:103FB000002901D0012906D102210170D17001210F
:103FC0000C4810F047F907F0F5FD80210A4804F08D
:103FD000E3F80AF039FF10BD32370000C9E8D6C354
:103FE000CFD4CABEB7BDCFF200000000C802002087
:103FF000090000208802002000400B4008480821EA
:10400000C1700A2181600749097A002906D0064952
:10401000C97A002901D04B21890141607047000015
:104020004C0000204C0300208C03002070B50D4C88
:1040300000256068012807D000280BDDE178002901
:1040400009D0491EE17009E007486560C57204F0B7
:1040500021F8A56070BD0821E1702570401E6060E8
:1040600070BD00004C0000208C030020F8B56648AD
:1040700001250570FF206549E13008806548644CE2
:104080008379654866490078664A86462046807886
:1040900066788446614809781278062E56D2370031
:1040A0007F443F79FF19BF44022852617C95002963
:1040B00003D0052901D05026A6705C4E5A4F3760B8
:1040C000A678002E09D0042B13D0072911D052490D
:1040D00072453BD005700A7092E0057065700DF076
:1040E00051FB0A2010F014FA2570012006F01EFC86
:1040F00086E005700520607082E04C4977460A68CA
:10410000454956073E4311D0560701D000260E7090
:10411000042B04D04649474B896899420DDA057053
:10412000424800210160052060700DE005700D70AF
:1041300041494E69761C4E61EAE7002A60DC057051
:10414000022060702820A0700DF01CFB58E00029B0
:1041500003D0072901D003216170614600294FD1A6
:104160000570042060701820A07049E000262F4FD1
:1041700000293E6004D0052902D05026A67002E036
:104180006646002EECD00729EAD0042B03D0224942
:10419000724535D09EE70570052060700DF0F2FA8B
:1041A0002EE0604608432BD120480024224D0460B5
:1041B0002846AC6202F026F8E86410F097F8002177
:1041C0005023A0220846009407F01AFC1B480FF069
:1041D000F1FA15E0042B13D11448002404601648AA
:1041E00002F010F81449C86410F080F80021502340
:1041F000A0220846009407F003FC10480FF0DAFAFA
:10420000044900208871F8BD9E00002006000020AF
:1042100020010020240000201A01002019010020A4
:10422000A6000020A4000020803202006C000020C4
:10423000680100209A9921414C030020A4C001008C
:10424000F1480078002803D1F048807900286ED02A
:10425000F0B585B00BF01CFEED480C26407800252B
:10426000EC4C062871D201007944097949188F4431
:1042700002FEFD02FCFBE849097805293DD006292C
:1042800045D0E64B0328019500944AD0E4A21621BC
:10429000212007F067FFE64FE6A23B4628210620D3
:1042A0000195009407F05EFF3B463A2228211E202C
:1042B00001960295009407F0B5FEE04800780028CA
:1042C00079D0DF480268DF4851004908814200DAAE
:1042D0000022DD480168104611F00AFA4000DB496F
:1042E0004008884224DA0246022328212920009728
:1042F0000296019407F0F2FF33E03F235B01D4A262
:10430000162121200195009407F02CFFC3E71F23FD
:10431000DB02D3A2162121200195009407F022FF91
:10432000B9E7D3A21621212007F01CFFB3E769E10A
:10433000D34988420ADA024601232821292000971E
:104340000296019407F0CAFF0BE03DE1FDF75EF92C
:1043500082B204232821292000970296019408F0B4
:10436000E5F83B46572228215220019602950094F9
:1043700007F058FEC348017800291DD04068FDF7BA
:1043800045F9002822DAFF274042D03703903B4608
:104390002D222821019602950094672007F042FE05
:1043A0000398009782B20296019402232821672085
:1043B00008F0BCF827E030E03B46B3A22821672094
:1043C00001960295009408F037F9FDE00A2801DA19
:1043D0001F270FE0AD49CA6B11461439814202DD37
:1043E0003F277F0106E0083A824201DDA84F01E045
:1043F0001F27FF0282B2022328216720009702961E
:10440000019408F093F83B46A2A228218820019647
:104410000295009407F0C2FED6E09F4800908A48BB
:1044200002960194026802232821292007F056FFF2
:104430003B4656222821522001960295009407F00F
:10444000F1FD7F48006842007E485208824200DA4F
:1044500000228F48009002232821029601946720B1
:1044600007F03CFF3B4603E0A5E09CE08BE006E064
:1044700041222821902001960295009426E06C4B61
:1044800086A2162121200195009407F06BFE6B484F
:10449000007800281DD0664F84A23B4628211920B1
:1044A0000195009407F0FEFF781000906648029690
:1044B00001940268022328214F2007F00FFF3B469A
:1044C00056222821782001960295009407F0AAFD33
:1044D0007AE079480068C117490F0818C010E12137
:1044E00009010190FCF74CF9009008463C21FCF7CB
:1044F00047F907463C210198FCF742F900980391DF
:1045000004904B4B6DA22821019500940E2007F0DA
:10451000C9FF3F20400100900498029682B20194A6
:1045200001232821332008F001F8414B65A22821FE
:104530003E200196009407F015FE3F2040010090B8
:10454000BAB202232821029601944E2007F0EEFF12
:10455000374B5DA2282162200196009407F002FEED
:104560003F200399400100908AB2029601940223F1
:104570002821722007F0DAFF28212D4B53A2862034
:10458000019600941EE02A4F51A23B4616210A20B4
:104590000195009407F0E6FD28213B4652A22E200B
:1045A000019500940EE03F235B01222151A22120BE
:1045B0000195009406E01F23DB0252A222211B205A
:1045C0000195009407F0CEFD194F53A23B463D21C3
:1045D00020200195009407F0C5FD2D4B50A23D21F0
:1045E0003B2001960295009408F026F83B464DA228
:1045F0003D2156200195009407F0B4FD0248057056
:1046000005B0F0BD70470000190100202400002013
:104610002001002010840000A600002020FD0000E2
:10462000B5E7B3D8B0FCB3E4B5E7D6D0A1AD000090
:10463000FFFF0000B5E7B3D800000000A400002091
:10464000B8000020CDCC4C3DB40000200000C84292
:10465000C8B7C8CFB3E4C2FAD7B4CCACA1AD0000A0
:10466000B5E7B3D8B0FCB3E4B5E7D2ECB3A3000030
:10467000B5E7B3D8B6FEB4CEB2B9B5E7D6D0000030
:1046800000007A44680100202D2D2D0088020020B2
:10469000E0FF0000A1E60000FF7F0000D7D4B6AF26
:1046A000BEF9BAE2D4CBD0D0D6D00000B5E7B3D8AB
:1046B000B5E7D1B93A0000006C000020CAA3D3E0EE
:1046C0003A000000CAB10000B7D60000C3EB0000FA
:1046D000C8B7C8CFCAC7B7F1BFC9D2D4B6FEB4CE27
:1046E000B2B9B5E700000000C7EBC9D4B5C8A1ADA9
:1046F000A1AD0000D7D4B6AFBEF9BAE2D2D1BDE1C8
:10470000CAF80000D7D4B6AFBEF9BAE2D2ECB3A370
:10471000BDE1CAF800000000B0B4CFC20000000044
:1047200045534300D2D4CDCBB3F60000034988787B
:10473000002801D0401E8870704700002001002032
:1047400010B502480FF036F810BD00005CDB010028
:1047500010B505480078002803D004480FF02AF867
:1047600010BD0348FAE7000048000020FCC4010027
:1047700040CA010010B502480FF01CF810BD00003F
:10478000FCC4010010B502480FF014F810BD000081
:1047900040CA010010B5094CA07904280AD1084884
:1047A0000078002807D007480FF004F800200649D9
:1047B000A071087010BD0548F6E700002400002035
:1047C00048000020A8C60100D600002040CA010011
:1047D000F8B53F4C3F4E217800270125B0790029DC
:1047E00006D001292CD0022959D0032967D156E0DF
:1047F000012804D0022807D004280BD011E06068FB
:1048000010285FDA401C03E0606801285ADD401E72
:10481000606057E030480078002806D02F480EF03E
:10482000C9FFB079032802D049E02D48F7E7E1211C
:104830006068C90148432B4908602570657041E0F4
:10484000FF21E131284A0428118004D02748284953
:104850008068884204DA23486570076003201CE002
:104860002048006800280EDDA2784107114303D0DC
:10487000400724D0A77022E065701E48A5704169EA
:10488000491C41611BE01B48876201F0BBFC1949D0
:10489000C8640FF02BFD6570022020700FE0042823
:1048A0000DD1144801F0AEFC1249C8640FF01EFD92
:1048B00009480078002808D008480EF07BFFB0793E
:1048C000002800D06570B771F8BD0548F5E7000015
:1048D000180100202400002048000020FCC4010032
:1048E00040CA01006C000020060000206801002082
:1048F0009A9921414C030020F0B5924C85B0607824
:10490000002803D19048807900287DD00BF0C0FAB0
:104910008C480C25007800268C4C002808D03F23BA
:104920005B0101282BD002286FD003286ED101E152
:10493000874F88A23B46152123200196009407F05B
:1049400011FC3B4687A22A2120200196009407F003
:1049500009FC864800907B4802950194406882B229
:104960000A2801DA392000E03D2002232A2107F03D
:10497000DDFD3B467EA22A2101950094B9E03F234C
:104980005B017EA2162121200196009407F0EAFB2C
:104990007E49012008707E48007800281CD07D48A0
:1049A0000068C117490F0818C710E12109013846EE
:1049B000FBF7E6FE009008463C21FBF7E1FE049081
:1049C0003C213846FBF7DCFE009F039101960094E2
:1049D0000A2F23DA0E2022E05D4F6FA23B462821EA
:1049E00019200196009407F05DFD781000906D4845
:1049F000029501940268022328214F2007F06EFCE3
:104A000056223B46282102E092E04DE074E07820F7
:104A100002960195009407F005FB6DE00B204C4BCE
:104A200061A2282107F03EFD3F204001029501943C
:104A300000900A2F01DA012300E00223BAB20A2F04
:104A400001DA332000E02D20282107F06FFD404BD4
:104A500057A228213E200195009407F083FB04987B
:104A60003F277F0182B200970295019402232821FB
:104A70004E2007F05BFD364B4EA2282162200195A7
:104A8000009407F06FFB0398009782B2029501949F
:104A900002232821722007F049FD28212C4B46A231
:104AA00086200195009425E044A21621212001963C
:104AB000009407F057FB264F2AA23B4629212020CD
:104AC0000196009407F04EFB284800901D4802957F
:104AD0000194406882B20A2801DA392000E03D20C2
:104AE0000223292107F022FD3B4621A2292101951D
:104AF00000944F2007F036FB154F34A23B463D2172
:104B000020200196009407F02DFB184B31A23D2187
:104B10003B2002960195009407F08EFD3B462EA2A5
:104B20003D2156200196009407F01CFB0548467075
:104B300005B0F0BD1F23DB02232129A21C20019612
:104B40000094D7E718010020240000201084000002
:104B5000FFFF0000C7EBD6B8B6A8BEF9BAE2CAB1EB
:104B6000BCE40000B9B2BCC600000000E0FF0000D9
:104B7000BEF9BAE2D0A1CAB100000000CAD6B6AFF1
:104B8000BEF9BAE2D4CBD0D0D6D000009E0000202F
:104B9000A40000206C000020B5E7B3D8B5E7D1B978
:104BA0003A000000B4000020CAA3D3E03A0000009D
:104BB000CAB10000B7D60000C3EB0000CAD6B6AF3A
:104BC000BEF9BAE2D2D1CDEAB3C90000B0B4CFC2C7
:104BD0000000000045534300D2D4CDCBB3F6000013
:104BE000CAD6B6AFBEF9BAE2D2ECB3A3BDE1CAF8F9
:104BF00000000000F8B500231CA21DA134200EF017
:104C00002FF9012400250021204609F081FD0646E8
:104C10000021204609F02EFD07463740002120469E
:104C200009F0DAFC38400646082C03D103F020FBDB
:104C3000002805D160066D1C040EEDB2082DE2D3EC
:104C4000002E07D103230EA20EA134200EF008F986
:104C50000CF0B6FC00230FA20FA135200EF000F9D6
:104C60001148416F006F06F073FCF8BD313200004F
:104C7000BEF9BAE2BFD8D6C6C6F7C5E4D6C30000AF
:104C800045440000BEF9BAE2BFD8D6C6C6F7D2EC9A
:104C9000B3A3000031330000D3A6D3C3414443D0B3
:104CA000A3D7BCCAFDBEDD008802002010B50021DC
:104CB000012009F02DFD10BDF0B583B00027684636
:104CC0000771077003F0F0FF434D444EA8680028B9
:104CD00006DD68460078052801D0EF6017E0AF6078
:104CE000F0683F4940004008884203DA684600788F
:104CF000032832D0E868002801DD401EE8600F215B
:104D00008901884203DB2D204001EF60A86004F098
:104D1000CCF86978334F814211D0687000280ED0EA
:104D2000686800280BDC387A002819D02E492F48F3
:104D3000806A10F0B3FC02D32D480EF03BFD01A8B1
:104D400003F0B2FF2B49B068884228DB686800286E
:104D500008DD401E0124686031E0E868401CCDE7B2
:104D60002549E4E7A868002803DD401E0024A86068
:104D700025E022480078032820D0684600790028E2
:104D800003D11F490A5E082A09DB397A002906D0B7
:104D900001290FD0022904D0032910D10EE00024EC
:104DA0000DE001280AD0022808D0032806D00528E3
:104DB000F5D103E00428F2D00028F0D001242878AF
:104DC000A04206D02146012009F0A2FC002800D014
:104DD0002C7003B0F0BD00006800002068010020C6
:104DE000CDCC4C3EC8020020000084414C03002082
:104DF00010D101009A992141000038412101002081
:104E00000600002010B5024806F020F810BD000092
:104E1000D4D8010010B5024806F018F810BD000003
:104E2000B4D8010003498968014201D001207047CC
:104E3000002070470080084004494A680123DB02D3
:104E40009A43C00202434A60704700000080084055
:104E5000F0B4084F7D6AFE6A3C6B85438E439443F1
:104E6000002B02D005430E4314437D62FE623C6377
:104E7000F0BC70470080084010B4054B9A6A0724C4
:104E80008440A24381400A439A6210BC70470000EC
:104E90000080084010B50021802001230A460AF056
:104EA00083FA10BD002A05DD0B780373491C521EDE
:104EB000002AF9DC80687047F8B54D4C0620205E6A
:104EC000002801DD401EE0800420205E002801DD76
:104ED000401EA0806078012803D0022801D0082855
:104EE00029D14449012008702078002801D0401EB3
:104EF00020704148007800281DD0404800780128E3
:104F000003D0022801D0032815D13D48007800289D
:104F100011D13749A6783B4DCF688868002E0BD059
:104F2000A96810F075FBA0603846E96810F070FBC6
:104F3000761EE060A670F8BD0221C943FCF7BCFBF9
:104F400006460221A060C9433846FCF7B5FB2E4F48
:104F5000E060F9694900090E03D12C49884200DB61
:104F6000FE6178683146401C7860B86910F018FC22
:104F700001D2B86900E0A068B861F868E16810F093
:104F80000FFC01D2F86800E0E068F860287800289B
:104F900006D06968386910F003FC04D2386903E070
:104FA0001B48386101E068683861E56819496800A4
:104FB000400810F09DFB184E3146FCF777FAB968AF
:104FC00010F026FBB8602946A06810F091FB400065
:104FD00040083146FCF76AFA396A10F019FB38626A
:104FE0000020A0600821E060A170E070F8BD000022
:104FF000C40000209E0000209C000020A60000208D
:105000006000002068010020280300209A99193EC2
:105010000000C8C200007A4400006145F8B56A4A41
:1050200067486A4992680D789446664B02460424A4
:1050300067494678145F9B7A00220978072E1DD2B3
:1050400037007F443F79FF19BF440336A3186452E9
:105050005E00604C2579022D05D05F4C2478002C31
:1050600012D00D21A9E0072909D0062909D0012174
:1050700041702271002159480FF0ECF8F8BD0B2166
:1050800000E00C214170F8BD072904D0062904D0A6
:10509000002906D103E00B218FE00C218DE0002BCD
:1050A00001D0092189E04E4B9C4501DD0A2184E0B5
:1050B000012182E0C270F8BD002BFCD0082914D277
:1050C0000B007B441B79DB189F440F0505050F057A
:1050D0000403D4E7D5E7434B6146D96182600821D8
:1050E000C260817002214170E4E7022EE2D0F8BD77
:1050F000234307D00729CED00629CED0002DF6D1E4
:1051000002215AE0072158E0002CF0D10221417021
:10511000C270F8BD002C01D0062112E0002B07D090
:10512000072907D0062907D0002D07D0052108E060
:10513000072106E00B2104E00C2102E0052902D042
:1051400002214170C2700621415E0029E1DCC2707B
:1051500003214170234C01202070E668224930462B
:1051600010F0C6FAA5682946FCF7A0F960611F494E
:10517000226863686CC1E569A3692269CD608B60B0
:105180000A604860206A0861002120460FF03AF862
:10519000F8BD002C01D006210FE0002BB2D007296A
:1051A000A9D00629A9D0002D01D0052105E00529A7
:1051B000EED10F218901C180042141707AE70000FE
:1051C000C400002098010020680100206000002039
:1051D000A6000020C8020020530100208802002001
:1051E000000004412803002000007A44000300204E
:1051F000FA48C078002803D0F9488079002873D095
:10520000F0B593B00AF044FEF44840780E2800D37D
:10521000D7E241007944898849008F440D001E007F
:10522000660043034200540031050204B903290417
:10523000AD0529047D054D05EB4E0025E94C3346AF
:10524000EAA221211B200195009406F08BFF334632
:10525000EBA22F2101950094FEE3EC48152300906A
:105260004B221946282007F0BBF9E94E0025DD4CFA
:105270003346E8A22F211B200195009406F072FF0F
:105280000C2001903346E8A23D2102950094242091
:1052900007F0D2F93D213346E5A251200195009453
:1052A0009FE2DB4E0025CF4C3346E3A221211420A0
:1052B0000195009406F056FF2F213346D0A22E20F0
:1052C000019500948DE20025C64CE04BE0A221211F
:1052D00014200195009406F045FF2F21CC4BE1A24C
:1052E0001420019500947CE2FCE30025BD4CBE4BEC
:1052F000E1A2132114200195009406F033FFE24F40
:1053000038798007800F02D0012813D10AE00C20E1
:105310000190B54BBCA21321029500946F2006F0BA
:105320003DFF07E0B04BD9A213216F2001950094F7
:1053300006F018FFB64BD7A2232103200195009455
:1053400006F010FFD048D6494068884250D9FBF794
:1053500009FABE490C2782B20091022302970194F8
:1053600023213C2007F0E2F8A94BCEA223214F20B5
:1053700001970295009406F011FFC348C8494068A0
:10538000FBF7F0F90846E1210901FBF7EBF9AF491A
:1053900082B2009102230297019423215D2007F03D
:1053A000C5F89B4BC0A223216F2001970295009462
:1053B00006F0F4FEB448E12140680901FBF7D2F998
:1053C00008463C21FBF7CEF9A04982B200910223A6
:1053D0000297019423217C2007F0A8F88C4BB3A2FC
:1053E00023218F2001970295009406F0D7FE4CE010
:1053F000E1210901FBF7B6F994490C2782B200912B
:1054000002230297019423213C2007F08FF8804B60
:10541000A5A223214F2001970295009406F0BEFE1D
:105420009948E12140680901FBF79CF908463C21B5
:10543000FBF798F9854982B2009102230297019403
:1054400023215D2007F072F8714B98A223216F2071
:1054500001970295009406F0A1FE8B483C2140681C
:10546000FBF780F979488AB2009002232321029742
:1054700001947C2007F05AF8654B8DA223218F20E0
:1054800001970295009406F089FE614B89A23221B2
:1054900003200195009406F065FE7B488749006A69
:1054A00088420BDA0C2250490292009102460123F5
:1054B00001943221212006F011FF0CE00FF074F866
:1054C00082B20C21484802910090032301943221BA
:1054D000212007F02BF80C27434B79A232213C20E6
:1054E00001970295009407F0A7F87648484B00789A
:1054F0000195002800943DD073A23221572006F078
:1055000031FE3F204001009071480297019482686B
:1055100001233221732006F0E1FE3F235B01562276
:105520003221932001970295009406F07BFD384BC1
:1055300068A2402103200195009406F013FE524812
:1055400066498068884248DA0FF02EF882B21F2040
:10555000C00200900223402102970194212006F00E
:10556000E5FF1F23DB0240215DA233200197029556
:105570000094D4E05BA23221572006F0F3FD54489A
:10558000C168806810F0B4F840004C494008884277
:105590000BDA3F2149010246009101230297019451
:1055A0003221732006F09AFE0CE00EF0FDFF82B26D
:1055B0003F20400100900323322102970194732081
:1055C00006F0B4FF3F235B0157223221932001975D
:1055D0000295009406F026FDA9E787E0C4000020AC
:1055E0002400002010840000FF7F0000B2E2C8DD2C
:1055F000CFB5CDB3D5FDD4DAC6F4B6AF0000000008
:10560000C7EBC9D4BAF3A1ADA1AD0000F6AB010060
:10561000FFFF0000C7EBBDABB5E7B3D8BCDCC1AC46
:10562000BDD3B5BD00000000547970652D43000066
:10563000B3E4B5E7C6F70000D5FDD4DAC8B7C8CFE4
:10564000B3E4C2FAD7B4CCACA1AD0000E0FF0000D7
:10565000CFB5CDB3BCECB2E2B5BDB9FDB3E4CAC2BF
:10566000BCFE0000C7EBB5C8B4FDCAC2BCFEBDE2BB
:10567000B3FDA1ADA1AD0000B3E4B5E7B2E2C8DD72
:10568000BDF8D0D0D6D0000028030020A1ADA1AD38
:1056900000000000B3E4B5E7CAB1B3A40000000005
:1056A00080510100CCEC0000CAB10000B7D6000068
:1056B000C3EB0000C4DCC1BF0000000000002041BB
:1056C00057680000A4000020B5E7D1B90000000031
:1056D00068010020C8DDC1BF000000000000C84212
:1056E0006D416800B9A6C2CA00000000FE498842A8
:1056F000FE4917DAFBF7DAFE1F21C90202460091C4
:105700000123029701944021212006F0E7FD1F2389
:10571000DB02F7A240213C2001970295009406F09D
:105720008BFF18E0FBF7C2FE0EF03EFF82B21F2097
:10573000C00200900323402102970194212006F02B
:10574000F5FE1F23DB02EAA240213C2001970295CF
:10575000009406F071FFE748007801950028009456
:1057600024D0E54BE5A24021572006F0FBFCE5489C
:10577000017800295BD040680EF016FF002860DA3F
:10578000FF264042D036039033462D223D2101971B
:1057900002950094752006F045FC0398022382B21E
:1057A00040210297009601947C206FE0D24ED6A251
:1057B00033464021572006F075FED548007808286A
:1057C00000D315E301007944097949188F44030A8D
:1057D0001118031F272740213346CEA281200195AF
:1057E000009466E24021CD4BCDA28120019500942A
:1057F0005FE24021CC4BCDA281200195009458E27C
:105800004021CC4BCCA281200195009451E23F2352
:105810005B014021CAA281200195009449E21F2327
:10582000DB024021C8A281200195009441E2B24BE5
:10583000C7A24021732001970295009406F0FCFE58
:1058400026E00A280BDA1F26AE480297009601943C
:10585000426801234021732006F040FD18E0BD4955
:10586000C96B0A46143A824202DD3F26760106E001
:105870000839814201DDAC4E01E01F26F60282B2FA
:1058800002234021732002970096019406F04EFEF9
:105890003346B1A240218F2001970295009406F073
:1058A0007DFCA5E23F260025AC4C76013346ACA238
:1058B000162121200195009406F054FC3346ACA239
:1058C000292118200195009406F04CFCAA48874E27
:1058D00080683146FBF7EAFDA84988420BDA864A20
:1058E0000C210092029102460323019429214320B6
:1058F00006F0F4FC29E0A24988420BDA7E4A0C212A
:10590000009202910246022301942921432006F0CD
:10591000E5FC1AE0B0420BDA774A0C2100920291C2
:105920000246012301942921432006F0D7FC0CE014
:105930000EF03AFE82B20C206F49009102900423CF
:1059400001942921432006F0F1FD6B4F0C263B46C4
:1059500067A22921702001960295009406F06CFE42
:105960003B4688A23D2120200195009406F0FAFBD9
:105970006D4B86A23D213B2001960295009406F0D6
:105980005BFE3D213B4682A256200195009490E1AA
:105990001F270024714DFF023B467FA216210420E1
:1059A0000095019406F0DEFB0C263B463F221621B3
:1059B000932001960095029406F034FB4E4F7CA292
:1059C0003B462E2107200095019406F0CBFB564B59
:1059D0007AA22E213B2001960095029406F02CFE1F
:1059E0003B4677A22E21562001960095029406F0A0
:1059F000D5FB4D4B65A22E216320019600950294A4
:105A000006F01AFE3B466FA22E217F2000950194DE
:105A100006F0A8FB3E213B466CA2072000950194AE
:105A200047E100254D4C1F23DB026DA216211C20EF
:105A30000195009406F096FB2F4E52A233463D216D
:105A400020200195009406F08DFB0C20364B4FA2D0
:105A50003D210295009400E02AE101903B2006F0F0
:105A6000EBFD3D2133464AA256200195009420E1EA
:105A70001F260024394DF60233465EA216211C2053
:105A80000095019406F06EFB33465FA229210A209F
:105A90000095019406F066FB5D484078092822D005
:105AA0000C20019033465BA229210095029424200A
:105AB00006F074FB3746334657A229213220009561
:105AC000019406F04FFB0C263B462C2229214A204C
:105AD00001960095029406F0A5FA29213B4650A2B2
