:020000040000FA
:1000000060140020C100000041E90000C585000027
:10001000FFFFFFFFFFFFFFFFFFFFFFFFFFFFFFFFF0
:10002000FFFFFFFFFFFFFFFFFFFFFFFF8D1D010031
:10003000FFFFFFFFFFFFFFFF4DF30000094401003A
:1000400035010000350100003501000035010000D8
:100050003501000035010000C575000035010000C4
:10006000E12A0000FFFFFFFF35010000350100001D
:10007000858300003501000035010000FFFFFFFF10
:10008000FFFFFFFF350100003501000035010000D2
:100090003501000035010000350100003501000088
:1000A0003501000035010000350100003501000078
:1000B0003501000035010000F9EC000035010000B9
:1000C0002048804720488047204800472048016951
:1000D000002908D14169002905D18169002902D18F
:1000E000C169002909D01B48C1680901090D00290F
:1000F0000ED005290CD006290AD0BFF34F8F164821
:100100001649016016491548C860BFF34F8FFEE7D6
:10011000114801681148884200D0704711481249BF
:1001200001600D48114901607047FEE7FEE7FEE7F8
:10013000FEE7FEE7FEE700000D480E490E4A0F4BB2
:1001400070470000CD0000001D4401008101000047
:100150000003084080010840000000200400FA0568
:1001600000ED00E0008108400100000000000000F8
:10017000200400206014002060040020600400209F
:1001800000F002F800F04FF80CA030C8083824182E
:100190002D18A246671EAB4654465D46AC4201D1BF
:1001A00000F041F87E460F3E0FCCB64601263342A2
:1001B00000D0FB1AA246AB463343184708F60100AD
:1001C00028F601000023002400250026103A01D360
:1001D00078C1FBD8520700D330C100D50B607047FF
:1001E00010B5662902D116F009F910BD642902D1B3
:1001F00000F0B0F810BD782902D100F0E1F810BD90
:10020000732902D101F022FD10BD002010BD1FB5E1
:1002100001F0DEFD04000020002115F0D9FEE060B1
:100220001FBD10B510BD02F037FA1146FFF7EFFF02
:1002300015F006F902F04FFA03B4FFF7F2FF03BC22
:1002400002F0D2FA70B505460C46164602E00FCC15
:100250000FC5103E102EFAD2082E02D303CC03C5D0
:10026000083E042E07D301CC01C5361F03E02178D8
:100270002970641C6D1C761EF9D270BD0FB41CB5BC
:100280000C0007AA009001D00019401E084B7B44C7
:1002900069460190069801F0A6FC002C03D069463F
:1002A000002001F0B3FC1CBC08BC04B018470000DF
:1002B0008519000070B5044685690068C10601D53E
:1002C000302600E02026C00707D070BD62683046A7
:1002D000A1689047206A401C20626D1EF6D570BD53
:1002E00070B5044685690078C00707D170BD6268A3
:1002F000A16820209047206A401C20626D1EF6D520
:1003000070BD70B50C460546012A05D028788006D8
:1003100000D5EA69002302E0012305E05B1C93425B
:1003200002D2E05C0028F9D1A869E618C01AA861D9
:10033000286AC01828622846FFF7BCFF04E06A68F4
:100340002078A968641C9047B442F8D32846FFF788
:10035000C7FF70BDF7B5002575291068009914A670
:1003600011D0C046C046002802DA404211A608E07B
:10037000009909688A0701D50FA602E0490704D54C
:100380000EA6012501E0C046C046009F0024243788
:1003900004E001F05FFC30313955641C0028F8D1CD
:1003A0002B4632462146009801F0B3F9FEBD00000D
:1003B000000000002D0000002B00000020000000C5
:1003C00070B504460D4621461068C046C0462188D7
:1003D000090502D50F4A7A4402E00E4A7A440E32E9
:1003E00023460021243305E006070009360F965DF9
:1003F0005E54491C0028F7D120780023000705D55A
:10040000702D03D0002901D002231132204601F0C3
:1004100080F970BDFAE60100F3B50446002081B012
:1004200020622046E168884700287DD0252802D038
:100430006268A16883E0454F00257F442046E1685B
:1004400088472028064608DB312E06D2B819203806
:100450000078002801D00543F0E7A80701D5042063
:1004600085430020E0610746A0612A2E0AD030466D
:1004700014F092FD002827D0B8000019303E0090FB
:10048000866119E00298BA00121902C891610290BF
:100490002046E1688847012F064617D1E069002809
:1004A0001FDA202085431CE000980A218069484318
:1004B00000998019303888612046E16888470646EF
:1004C00014F06AFD0028EFD1012F0AD02E2E08D19A
:1004D0002046E16888470646202005437F1C022FFE
:1004E000C3DBA069002803DA4042A0610120054374
:1004F000E80701D010208543002E24D03046413833
:10050000192803D80120C002054320362046256063
:100510003146029A1546FFF763FE00280CD00128E9
:1005200007D0ED1DE80800E00DE0C00008300290A3
:1005300077E72D1D029574E762683046A168904701
:10054000206A401C6CE7206AFEBD0000BEE6010088
:1005500030B5441C03E00178401C00290DD0810710
:10056000F9D10B4BDD0104C8D11A91432940FAD0CF
:10057000001B0A0603D0C01E30BD001B30BD0A049C
:1005800001D0801E30BD0902FCD0401E30BD0000ED
:10059000010101010346F0B50B439B072DD1244D0A
:1005A000EF01042A29D308C810C95E1B9E43121FFD
:1005B0003E4017D0D8B2E1B2401A3106014310D103
:1005C00098B2A1B2401A310401430AD118022102A3
:1005D000000A090A401A3102014302D1180E210E05
:1005E000401AF0BDA342DCD018BA21BA884201D922
:1005F0000120F0BD0020C043F0BD002A01D1002041
:10060000F0BD03780C78401C491C002B0DD0A34290
:100610000BD1521E09D003780C78401C491C002BCA
:1006200003D0A34201D1521EEBD1181BF0BD000034
:1006300001010101F8B5042A2CD3830712D00B78ED
:10064000491C0370401C521E83070BD00B78491CB9
:100650000370401C521E830704D00B78491C0370A2
:10066000401C521E8B079B0F05D0C91ADF002023A8
:10067000DE1B08C90AE0FFF7E5FDF8BD1D4608C905
:10068000FD401C46B4402C4310C0121F042AF5D272
:10069000F308C91A521EF0D40B78491C0370401C91
:1006A000521EEAD40B78491C0370401C012AE4D482
:1006B00009780170F8BD01E004C0091F0429FBD2CC
:1006C0008B0701D50280801CC90700D002707047DB
:1006D00000290BD0C30702D00270401C491E02291A
:1006E00004D3830702D50280801C891EE3E7002221
:1006F000EEE70022DFE70000F8B507460B46394673
:100700001943890713D1164CE601042A0FD302CBF3
:100710000D1B8D43354202D102C0121FF5E7CBB24B
:100720000370401C521E002B13D0090AF7E7002A61
:1007300014D01978521E5B1C0170401C002908D08F
:10074000002A0BD01978521E5B1C0170401C002936
:10075000EDD1002A02D01146FFF7C9FF3846F8BD97
:1007600001010101002203098B4273D3030A8B426A
:1007700058D3030B8B423CD3030C8B4221D312E0A2
:1007800003460B437FD4002243088B4274D30309F2
:100790008B425FD3030A8B4244D3030B8B4228D393
:1007A000030C8B420DD3FF22090212BA030C8B42B9
:1007B00002D31212090265D0030B8B4219D300E059
:1007C000090AC30B8B4201D3CB03C01A5241830BDE
:1007D0008B4201D38B03C01A5241430B8B4201D38E
:1007E0004B03C01A5241030B8B4201D30B03C01AB7
:1007F0005241C30A8B4201D3CB02C01A5241830A31
:100800008B4201D38B02C01A5241430A8B4201D35F
:100810004B02C01A5241030A8B4201D30B02C01A89
:100820005241CDD2C3098B4201D3CB01C01A5241F0
:1008300083098B4201D38B01C01A524143098B4279
:1008400001D34B01C01A524103098B4201D30B0162
:10085000C01A5241C3088B4201D3CB00C01A524187
:1008600083088B4201D38B00C01A524143088B424C
:1008700001D34B00C01A5241411A00D201465241E5
:10088000104670475DE0CA0F00D04942031000D304
:100890004042534000229C4603098B422DD3030A59
:1008A0008B4212D3FC22890112BA030A8B420CD369
:1008B000890192118B4208D3890192118B4204D392
:1008C00089013AD0921100E08909C3098B4201D312
:1008D000CB01C01A524183098B4201D38B01C01A4C
:1008E000524143098B4201D34B01C01A52410309C3
:1008F0008B4201D30B01C01A5241C3088B4201D372
:10090000CB00C01A524183088B4201D38B00C01A1E
:100910005241D9D243088B4201D34B00C01A5241F5
:10092000411A00D20146634652415B10104601D382
:100930004042002B00D54942704763465B1000D30C
:10094000404201B50020C046C04602BD7047704716
:10095000704700000246C80FC00781434B0030B506
:100960004B405B009B0D20D01923DB06C9180123E7
:100970001B05994220DB0324A40704251346AB4042
:100980000BD3002B04D1EB0613409B00E34204D4AD
:1009900001246407002312195941FF231B059942C2
:1009A0000BD2C9000143500F09E0CB0204D501432B
:1009B0000803024305D0054830BDFF21C90508439F
:1009C00030BD084607210905884330BD0000C07FBF
:1009D000F0B50C46871A9C410D46861A9D4103D2FC
:1009E000C01BA141D21963410D0D1F0DC94EEC1B57
:1009F000AE435CD07F057F0D0026002F51D02D0522
:100A0000AC46A943DD020123ED0A1B051D4320234B
:100A10001B1B24D41746E740381871412F46E74086
:100A2000CC199D402818314661410C0D27D16144F5
:100A30009A4013D50023401C594152000ED1400862
:100A4000400001224B005205D34207D30520400746
:100A5000C14201D5B04900E0B0493046F0BD6B005D
:100A6000002A00D001229A181F23203C1B1B01D50D
:100A7000002302E0E540281871410C0DD7D0012475
:100A800024050919C407CD0740084908E40F284385
:100A90006144002CD5D00024401C61419A40D0D143
:100AA000CDE76A05520DD9D1C90FC907D5E79C4DCD
:100AB0004E00002801D0012400E0002434195F001A
:100AC000002A01D0012600E00026BE19954FAC4255
:100AD0000CD8AE420AD8B44206D001256D05EC42CE
:100AE000BCD010461946F0BD9942FCD000203946D2
:100AF000F0BDF0B51FB40C460F46811A9F41254644
:100B0000861A9D4106D20125ED076F40401ABC416F
:100B100052187B41210D1E0D8D1BAC467D4D8D4322
:100B20007ED075056D0D7CD00D05AE46AC431B0324
:100B30001B0B794D52429D41202366469B1B14D3CB
:100B40001746F740381800260090744160462F463B
:100B50000741E41900989D402818664116D4714653
:100B600071189A4025D5012320E093182A466A413E
:100B70005200002B00D0521C1E23203E9B1B002B3A
:100B800061DD3541EE1728186641E8D50018764139
:100B90005B1C9A4000D3401C4B05F3181524E3401E
:100BA00010D3002B52D071467118D30FC01802D346
:100BB000491C05B0F0BD0123DB079A42F9D140087A
:100BC0004000F6E701225205B21801D1002853D0A7
:100BD0000123CC0ADB029943891E002A08D1020CAA
:100BE00003D0020C0004103902E002460020203934
:100BF0000023550B05D112020823550B01D15201D8
:100C00000D23550C01D112011B1DD50C01D19200F1
:100C10009B1C150D01D152005B1C2025EE1A01E032
:100C20002CE022E00546F54015439840CA1AE1073A
:100C300069181305C918002ABBDA032040070818F1
:100C4000C10FC9070FE071466118B2E7F10740080C
:100C50000843711071444A000CD001235B059A428D
:100C6000A7D2C90FC9070020A3E74905490D26D11E
:100C7000002001E00028F4D100219AE7284D660009
:100C8000002801D0012100E0002171185F00002A36
:100C900001D0012600E00026BE19224FA94210D83B
:100CA000AE420ED8B14208D001256D05E94206D00A
:100CB0001946A802414010467BE79C4201D02146DC
:100CC00077E70020394674E710B50C465C4005D53F
:100CD0000124E4076340FFF70CFF10BDFFF778FE27
:100CE00010BD30B40C465C4004D50124E4076340D9
:100CF00030BC6DE630BCFCE670B50124E407614011
:100D00000D465D4002D4FFF763FE70BD6340FFF700
:100D1000F0FE70BDFF0700000000F0FF0000F07F54
:100D20000000E0FF0000F87FF0B5F94D0C091E0946
:100D30002C402E402F468BB0A7437DD0B543FCD02E
:100D4000002E7AD0002CFCD00D465D40ED0F2543DF
:100D5000AC1BFF25AD0464190894C502440DC902FB
:100D60002143500DDC0204430120C007014304432A
:100D7000D2020191200C110C00958C4601042346EF
:100D80008B430A9161460904E24D8A430991010AA5
:100D90007D4449198039097805464D4301266D186F
:100DA000F605751B6943C90C640B891C4C43641818
:100DB000B5012C1B250C2E04B4434C434D43210C90
:100DC000691889090591009DE90701D00121C9072A
:100DD00004912C4601996708CD072F434C08059DC7
:100DE000E10B4D432D0C29466646754302950D4691
:100DF00045432E46029D7D1BB44100950D465D4343
:100E000001942C0C2F040D465543AE462D0C3D434A
:100E1000029503947546049C2D04641B049406D229
:100E2000029C039D641C002675410395029401AC4D
:100E300070CC009F7D1B01E03EE162E1B4410904FA
:100E40000095079101940599A4086143090C0C468B
:100E50004443650BE7040C4666467443A646640BA0
:100E60003C43039502947446049DE4042C1B0494B3
:100E700006D2029C039D641C0026754103950294D2
:100E800001AC70CC009F7D1BB44101940C465C43C7
:100E90000095650FE7000C465443A646640F3C439B
:100EA000039502947446049DE4002C1B049406D21E
:100EB000029C039D641C002675410395029401ACBD
:100EC00070CC009F7D1BB441AE09AF06049DC900E4
:100ED000AD092F43049DA406AD060495079D344338
:100EE00069180791059DE10B4D432D0C2946664677
:100EF000754302950D4645432E46029D7D1BB44128
:100F000000950D465D4301942C0C2F040D4655436E
:100F1000AE462D0C3D43029503947546049C2D046A
:100F2000641B049406D2029C039D641C0026754138
:100F30000395029401AC70CC009F7D1BB4410194D9
:100F40008C050694079C890A611800950791019CFD
:100F50000599A4086143090C0D464543680BEF044D
:100F60000D46644665436C0B3C43049FED047D1BBA
:100F7000AC4602D20025641C6841009E019D371BCF
:100F800085410846584301950C46460FC500544319
:100F9000600F28436546E4002C1B02D20025401C4C
:100FA0006E41019D3F1AB5412846BD098006284380
:100FB0008446A009BF064E020699A4067618074388
:100FC000079D002068410A99079019430020099B5A
:100FD00000906046FF1913434041E20F64003A431A
:100FE000A4460446D71A8C41A04203D901200090A0
:100FF00020463A46C70F941840416246D20F22431A
:10100000644664000494009CBE466400D71AA4465B
:10101000044602978C417746002F01D1A04204D9A3
:101020006046401C8446029A2046C40FA646941887
:101030004041049A0546D20F224364466400D31A05
:101040008D417146002901D1A84202D928461A468D
:10105000641C10430122002800D0164361020020C6
:10106000079B891904465C410223002C02DB4918C6
:1010700013466441089DCE0A2D145D194B05670582
:10108000E10A2C050D1908993E43C9076940002B58
:1010900008D0934006D30022761C5141002B01D189
:1010A000760876001C4A002D43DB154241D0AA4346
:1010B0003FD030460BB0F0BD06180D464D41174CE1
:1010C0007642AC411AD395181C465C41134A6D42D6
:1010D000A24113D3012252054C00D4420AD15C0034
:1010E000D4420BD04B4002D592021143E2E74900B3
:1010F0004908DFE75940C90FC90718E0002008492F
:10110000D8E7054801420DD10342F7D0F2E70000CD
:101110000000FF0779DD01000000F07F0000E0FF24
:101120000000F87F114859400143C012414000209F
:10113000C0E70123089A9B069A4205DC0322520766
:101140008918C90FC907B5E7052252078918074A48
:101150001143D2125140ADE770B515461C46024608
:101160000B4628462146FFF7DFFD70BDFFFFFF7FDE
:101170000346CA02400D10B510430A1504D00124DD
:10118000E4072043002A05DB0A4CA21A04D4D0400D
:10119000FF2A00DD002010BD4A00002B01D00120F5
:1011A00000E00020101801225205D042F2D8C817E2
:1011B000C04310BD1E0400001F22030C02D10F22E9
:1011C000000402D0030E03D004E000200146704763
:1011D0000002083A030F01D10001121F830F01D151
:1011E0008000921E002801DB4000521E120551189B
:1011F0004205C012411810467047C10FC90700D000
:101200004042012292071143D6E701218907D3E723
:10121000F0B58B4C0F09254689B0BD437BD01D0925
:101220002646AE43FAD00E465E402740F60F3E43B8
:10123000254071D024012142FBD0FF24AD19A40424
:101240002D1B039501252D05DB02DB0AC9022B436B
:10125000C90A29431E010901040F130F0501214387
:101260001701880B820391432D098C46A90B1E435D
:101270008A039543B30B9A0396433F09BA0B940331
:10128000A74302962E467E430497B6464E19D719B9
:101290000C460196544305977E43371B7646BF1B89
:1012A0003601B646BE0B361900967646BC04371991
:1012B000009C01D3641C00946400002F01D001261F
:1012C0003443029E049F754366467E43049676002F
:1012D00034196E0034190094029C019E1C19664357
:1012E000751BAE46069465464519059C05956C43ED
:1012F000594375460891691A0191049E014651436C
:10130000A41B0491611A009C0791E10605D06109B4
:101310000122114302E072E06EE06109089D00279E
:101320002C0A2D066918049D7C412A0A2D0669188D
:10133000019D6241AC0DAD026D185441079A910DAB
:10134000920255196141029A644658435443069BE0
:10135000059A5A43121A131B9A0E9B015B187A4185
:10136000010B0005C3185141220A200644195A41B5
:101370009A4200D2491C01204002814203D3152326
:101380000226F64302E014230326F6432020C51A62
:10139000A9401746AF40DA400A4320460399D84097
:1013A0000914731819055118039A3843D20751408C
:1013B000AC4009D00122944006D30022401C514188
:1013C000002C01D1400840001E4A934212D3012252
:1013D00003989206904207DB0520400709181A4837
:1013E0000143C012414004E0032040070818C10F28
:1013F000C907002009B0F0BD0020F107FAE7051881
:101400000C464C4111486D42A04115D394181A4620
:101410005A410E48644290410ED301204A004005D3
:10142000824209D35A00824206D35940C90F084A62
:10143000C90700201143DDE700200649DAE7000074
:101440000000FF07FE070000FFFFFF7F0000E0FF36
:101450000000F07F0000F87F0121C9050123411839
:1014600042001B06D3185B0E0AD0C1100722D20619
:10147000891840075242D14201D55200891870475D
:10148000090208D50146002A03D0C10FC907002070
:10149000704710467047420202D000200249704750
:1014A000072109050143F4E70000F87FF0B5FF25A7
:1014B0002D04C609C209FF2704462E400137CB0977
:1014C0003E4348402A402B400746002A6BD0002B61
:1014D00069D0AA4267D0AB4265D0002800DA324614
:1014E0000125ED0529432C4309022002090AD21ADD
:1014F0004B0C7F24E31A434C000A7C44E35C7D24BC
:101500002404121914145B00A218884201D3521C3F
:1015100000E0400049420C465C4324115C43DB017F
:101520006415E318040A5C43C502200D0C464443CD
:101530006419250A5D432303EC0C0D466543000343
:101540000019EB184C42A34201D35B18401CD40590
:101550002018002B07D05B00C91804D3401C0029B9
:1015600001D1400840003F2189048A4209D3002A62
:1015700008DC1106090F04D0032149074018C00FE9
:10158000C007F0BD01224100120689187F225206D1
:101590009142F6D205214907C84201D59010F0BD0D
:1015A000FF20C005F0BD002F00DA32461648AA42DF
:1015B00007D2AB4205D21902090E17D0F80FC007A7
:1015C000F0BDFF2563002D06AB42F9D84900A942C2
:1015D000F6D8AB4201D1A942F2D0A94201D10021F3
:1015E00001E061004908D0050843F0BD1102090E71
:1015F000FBD0FF200243D005F0BD0A46014610464D
:1016000054E700008FD601000000C07F10B50146EE
:101610009E240002CA15A307002A02D01843002AFC
:1016200004DBA21A002A0CDDD04010BD1206120EF7
:1016300001D140004008A21A03D4D0404042002803
:10164000F3DDFF2248001206904201D9002010BDB0
:10165000C817C043584010BD1F22030C02D10F22EF
:1016600000041CD0030E01D10002083A030F01D17F
:101670000001121F830F01D18000921E002801DBA0
:101680004000521ED20551180212511819229040E2
:1016900004D3491C002801D1490849000846704775
:1016A000C10FC90700D04042012292071143D3E77E
:1016B00001218907D0E7000010B5FF22C30D1340B8
:1016C00009D05A4007D0914205DA5C42A14202DDBE
:1016D000C905081810BDC40FE407002B06D0002A66
:1016E00006D0002902DBFF20C0050443204610BDC0
:1016F0004102FCD0004810BD0000C07F10B500F0D2
:101700006BFB006810BD10B5044600F065FB04607B
:1017100010BDFFB504460D4681B02430009021680D
:10172000880604D51022E0699143216000E0012081
:10173000A84201DD471B00E000270498A1697A193F
:101740001018081AA0612078C00602D42046FEF7BF
:10175000B1FD002608E003986268A168805D9047AB
:10176000206A401C761C206204988642F3DB2078B5
:10177000C0060AD52046FEF79DFD06E06268A16816
:1017800030209047206A401C206238467F1E002887
:10179000F4DC07E000986268A168405D9047206A29
:1017A000401C206228466D1E0028F3DC2046FEF710
:1017B00097FD2078000602D5022005B0F0BD01207B
:1017C000FBE700007047FFB50C461E468FB003CA0A
:1017D000089009914F007D0D00D16D1E0021084633
:1017E0000020C0460321099A89050840002A03DA2F
:1017F0008200801840080840800D01280A9002DD10
:101800000020C0430A90089807430DD0F048F149E2
:10181000281848430714189800281DD07542291E1F
:101820001DDD0A9842421BE01898012802D00020D2
:10183000302104E00020F24305E02154401CB04276
:10184000FBDB30460022189B002121540F998B604E
:101850000A60486013B0F0BDBD1B6D1CDFE70A9A3B
:10186000002900DA69420BA800F03CFB0BAB07CB68
:1018700003AB07C30899099800F0A0FB6B4607C3A8
:101880000146D5480918002D00910BDDD249039877
:101890000A9A49424018002303A90390684600F0C1
:1018A000FDFD08E003990A9A0023081803A9039094
:1018B000684600F09DFD6B4607C30004000C03D092
:1018C0000020C043410800E01046189A002A03D0C7
:1018D0000022009215461EE0751E05D400F080FA25
:1018E000303262556D1EF9D501220843079602D0A9
:1018F00000227F1C04E02078302801D100227F1EC6
:10190000002A069787D01EE0112D07DA00F068FA4A
:10191000303262556D1C02460A43F5D1084303D0AC
:101920000098002819D00EE00021681E05E0235C15
:10193000625C63542254401E491C8142F7DBA81BA1
:10194000401E07950690079A18990020A0540F98FA
:10195000079B069A81600CC07CE711260020189036
:1019600059E7D21DF0B50D460446D10893B0C90021
:1019700003C90C900D9113F073FA02460D98C00F35
:1019800001D02D2007E02068810701D52B2002E03F
:101990004007C00F4001032A0F9001D0072A05DB42
:1019A00003462946204600F059FA0EE120788006C9
:1019B00001D5E76900E006272846652D04D0662892
:1019C00014D0672D69D12DE00020112F009001DB8C
:1019D000112300E07B1C0CAA03A910A8FFF7F3FE5B
:1019E0001199002610987D1C0E9142E001203B4683
:1019F0000CAAC0070B900120009003A910A8FFF7C4
:101A0000E2FE119D12981099002600280E9501D132
:101A1000781C0D18781B02D446427D1C761EE81BEC
:101A200000903AE0012F00DA01270020112F0090EA
:101A300001DD112300E03B460CAA03A910A8FFF723
:101A4000C2FE11993D46109800260E912178090793
:101A50000BD40E99A94200DA0D4603A9012D04DD2D
:101A60004A19203AD27F302A06D0B84201DA011D45
:101A700004DA012100910FE06D1EEFE7002802DC7F
:101A800086192D1A03E0411CA94200DD0D46801B7A
:101A9000401C00900120C0070B902078000705D45F
:101AA0000098A84202DB0020C04300906946002055
:101AB000C8720B98012102AF0337C907884225D0AD
:101AC000022010902B2011900B9800280BDA404236
:101AD0000B902D20119006E00B9800F0BBF83031F0
:101AE0007F1E0B9039701099481E00291090F3DC6E
:101AF0000B980028F0D111987F1E387020880005BF
:101B000001D5452000E065207F1E387001A8C01B6C
:101B1000C01D0B900F98002800D00120411900989B
:101B2000C01709180B980818A169081A401EA0616F
:101B30002078C00602D42046FEF7BCFB0F98002890
:101B400005D06268A1689047206A401C2062207816
:101B5000C00625D52046FEF7ADFB21E0002E07DBB1
:101B60000E98B04204DD03A86268805DA16802E0BF
:101B70006268A16830209047206A761C401C206271
:101B80000098401E002800900AD100F021F9C0689A
:101B900062680168405CA1689047206A401C20622E
:101BA00028466D1E0028D9DC07E062683878A168F5
:101BB0007F1C9047206A401C20620B99481E002918
:101BC0000B90F2DC2046FEF78BFB032042E6000080
:101BD00001FCFFFF104D0000E1DFFFFF01694A1C1F
:101BE00002610878704700B58FB00291002105911D
:101BF0000549019379440391114604906846FEF724
:101C00000BFC0FB000BD0000E5FFFFFF0A6810707D
:101C1000521C0A6070470CC908399A4202D2531C00
:101C20000B601070704710B54369002B02D0C0469E
:101C3000C04601E0FEF765FB012010BD12780146A9
:101C400024310A7000224A700122ECE71168002258
:101C5000D243E8E701468008081A02091018020A70
:101C60001018020C1018C008820012185200891AAD
:101C700001E0401C0A390A29FBD27047F8B5224C12
:101C80004E00069DA6420AD8A64201D1002806D1E0
:101C90005E00A64203D8A6420AD1002A08D00D242D
:101CA000240425422CD02946002000F047FCF8BD32
:101CB0000C461C430CD4994202D0EFF30080F8BDCF
:101CC000904202D0EFF30080F8BDEFF30080F8BD42
:101CD00009242407E5008B4206D0EFF30080A043DF
:101CE000591A06D2284304E0101A05D3EFF30080F6
:101CF000A04380F30088F8BDEFF30080A043F1E734
:101D0000009500F033FCF8BD0000E0FF70B505461B
:101D10004800440D124B0020002C0AD0634008D02C
:101D20009A4206DA6642B24203DD12054019514179
:101D300070BD002C08D0002B09D0C90FC907002A9C
:101D4000F6DB084A114370BDC90FC90770BD2846AC
:101D50000A03104302D00020034970BD284670BD1D
:101D6000FF0700000000F07F0000F87F10B5FF23A0
:101D70001B0644009C421DD84C009C421AD80346C6
:101D8000124A0B4307D4401A02D3EFF3008010BD70
:101D9000EFF3008010BD081A06D2EFF30080012196
:101DA0009043C907084302E0EFF30080904380F3BB
:101DB000008810BD0D231B041A4204D011460020D8
:101DC00000F0BCFB10BD00F05BFC10BD00000090FB
:101DD00000487047E003002000487047C00300201F
:101DE0000B4670B5024689078008084319469D08CE
:101DF000141AA94125090807054308092C19484167
:101E0000250A01060D43010A2C194141200C0D043D
:101E100028430D0C00194D41002140194D41C008C7
:101E200069070843E908840F8D00254384002418BE
:101E30004D4124196D41121BAB4107E00925ED43CB
:101E40002C11521963410024401C61411C460A2593
:101E50000026551BB441F1D270BD0000F8B51F46F5
:101E6000044601230068DB02032601461840072AC6
:101E700005DB002801D017A506E017A504E000281F
:101E800001D016A500E016A5102081432160A069AD
:101E9000C01E002FA06101D0401EA0612046FEF7A9
:101EA00009FA002F09D038466268A1689047206A75
:101EB000401C2062C01C206206E0206AFAE76268CB
:101EC0002878A1686D1C9047761EF8D22046FEF750
:101ED00007FAF8BD4E414E006E616E00494E460055
:101EE000696E6600F7B516468AB0334878446C468A
:101EF00003467C33C06F5A689B680DC42E487844F3
:101F0000763003AC0DC80DC43720C0010818372146
:101F10001B30FEF735FC05460C46803D1B3C02D5C8
:101F20006442012000E000200027099010E0E00753
:101F30000CD00C2020497843794432464C39411862
:101F40006846012300F054FA6B4607C364107F1CF7
:101F5000002CECD1184F7F442E3F16E0E80712D03A
:101F60002001C0190EC80691089307920068F0423C
:101F700001D1981908903246012306A903A800F060
:101F800037FA03AB07C36D10641C002DE6D1099826
:101F9000002806D032466946012303A800F07EFAE5
:101FA00005E001233246694603A800F021FA0A9BA6
:101FB00007C30DB0F0BD0000A8CD010003464000EE
:101FC0000A4610B5400D0BD00121C9070F24A40209
:101FD00000191C0364082143540D2143D20207E079
:101FE00000210120F2E7D40F490021435200401E96
:101FF0000029F8DADB0FDB07184310BDFFB50D46EB
:10200000144685B04868516812F008FF00910190AD
:10201000A868A16812F002FF02910390A8686168A5
:1020200012F0FCFE029A12188242029201D20120A2
:1020300000E00020019A0B18D2180028019202D06B
:102040008A4202D903E08A4201D2012000E0002046
:102050000099081800906868A16812F0DFFE029AE3
:1020600012188242029201D2012000E00020019A5F
:102070000B18D2180028019202D08A4202D903E03C
:102080008A4201D2012000E0002000990818009047
:102090002868216840004900400849084018FA496A
:1020A000471814E001994000C90F084300900198B7
:1020B00002994000C90F084301900298039940001B
:1020C000C90F08430290039840007F1E03900098B8
:1020D0000028E7DA0898002801D0EC4E00E000263E
:1020E000B74201DA012000E00020002804902AD045
:1020F000F71BF806C00E15D0029B2021091A039A7F
:102100008B401A430392029A019BC2408B401A43B0
:102110000292019A009BC2408B4000991A4301929F
:10212000C14000917B110DD06F460320C11A03D529
:1021300000218200B95003E08A008100BA587A5029
:10214000401EF3D5374603980299002800D001209D
:10215000014308980291002808460CD0002800D0BE
:1021600001200199019A490508430121D20AC902B7
:10217000D202019200E001210E9B0122D207012B25
:1021800002D0002B03D013E0002807D120E09042BA
:1021900004D890420CD1019B0B4209D0019B5918E5
:1021A000019105D10099491C009101D17F1C009239
:1021B00000280DD0102108460020C04604980028B1
:1021C00006D00F98002803D0082108460020C046FA
:1021D00028682168019B009A4840C10F0598C907EB
:1021E00039430EC009B0F0BDFFB587B0099A089811
:1021F000089953689268406889689646002203935C
:1022000017469446089A12685300099A5B081268A8
:10221000520052089A1A9E4BD4180A9A002A01D0EA
:10222000352200E040220692002201231546049246
:10223000DB07059324E0002D05D175460346039E78
:102240004D1BB34109D375466646039B491B049D4C
:102250009841059B7519AC465F4163463B4308D0E6
:10226000059B049EDD0776082E435B0804960593C4
:1022700001E0521E641EC50FED0749184041521C73
:10228000069B9A42D7DB002D04D17546039A6B1A40
:10229000824101D203200CE0039A0B466B4042407E
:1022A000134303D0014303D0012002E0022000E0E9
:1022B0000020614601910021009702910A990029AE
:1022C00005D0614640020143704B019102E0800756
:1022D000002302909C4201DA012000E00020070068
:1022E0003AD01A1BD006C00E15D0029D2021019CA9
:1022F000091AC5408C402543029C8C4000D0012423
:102300002543019C0295009DC4408D4000992C43BB
:102310000194C140009154111DD06D46022100224C
:1023200002290CD10320001B07E0002804DB8600F3
:10233000AE59002E00D00122401C0328F5DB081BFB
:1023400002D588002A5004E08000285810438A00F3
:10235000A850491EE3D51C460A98002802980CD0C4
:10236000002800D001200199019A49050843012164
:10237000D20AC902D202019200E00121109B01227F
:10238000D207012B02D0002B03D013E0002807D185
:102390001FE0904204D890420CD1019B0B4209D01F
:1023A000019B5918019105D10099491C009101D157
:1023B000641C009200280CD0102108460020C04662
:1023C000002F06D01198002803D0082108460020CD
:1023D000C04608980999019A009B0068096848401E
:1023E000C10F0798C907214382600AC00BB0F0BD36
:1023F00000B585B0019300920A460146002302A869
:10240000FFF7FCFD02A807C805B000BDFFB50A46EE
:102410001F4685B00799019301230091014602A848
:10242000FFF7ECFD02990398049ECA0F4900D207FA
:1024300000920F22490892028C1A0021002800DB2A
:102440000C46450013486D08844214D3079A002AAD
:1024500004DA441E0026104DF64302E004460D4601
:102460000E46102108460020C046002F03D004214C
:1024700008460020C0462005E90A084300990843A1
:102480006905F20A1143ADE602C0FFFF013C0000FE
:10249000FF3F0000FF070000FFFFFF7F00B585B092
:1024A000019300920A460146002302A8FFF79CFE12
:1024B00002A807C8A8E7FFB50A461F4685B00799D6
:1024C000019301230091014602A8FFF78DFE0299B6
:1024D0000398049ECA0F4900D20700920F224908B0
:1024E00092028C1A0021002800DB0C46450011489E
:1024F0006D08844214D3079A002A04DA441E002689
:102500000D4DF64302E004460D460E4610210846E6
:102510000020C046002F03D0042108460020C046FA
:102520002005E90A0843009908436905F20A1143A6
:1025300058E60000FF070000FFFFFF7FC80212D52A
:102540004803400F002804D0C803C043012188403D
:102550007047EFF3008000010009032109070843D9
:1025600080F30088704700207047000010B50020FD
:102570000249029A00F008F910BD00000000F87F3F
:10258000F0B53D4B02460C461C400020002C63D0A9
:102590003A4D8B4366D000296BDB0B0D1D05A9431B
:1025A00001252D0529430124FD33E34001D3921871
:1025B0004941FF3381339C468B02940D0121234313
:1025C00089074C42920200271B198C105D1A04D413
:1025D0002D1B02D42B466500491992185B416408F3
:1025E000F4D15C1A08D40125ED07EE175519744192
:1025F00002D42A462346491C94185B4101229207C3
:102600001D46E61B8D4106D4B61A854103D42B46E0
:10261000550034467F1924195B415208802AEFD1B6
:10262000234300D0022338460A22D04001D301229E
:1026300013438A0510436246890A12058918002B44
:1026400009D00122D34002D30022401C5141002B6B
:1026500001D140084000F0BD0B03134307D0C90F60
:10266000C907F0BD0803104303D1002901DB104660
:10267000F0BD00202946F0BD0000F07F0000F87F8B
:1026800010B5024800F080F810BD00000000C07FC7
:1026900000487047C00300207546FFF7F9FFAE46BB
:1026A000050069465346C008C000854618B020B5ED
:1026B000FDF742FD60BC00274908B6460026C0C5AC
:1026C000C0C5C0C5C0C5C0C5C0C5C0C5C0C5403DEA
:1026D00049008D46704710B50446C046C0462046A6
:1026E000FDF7AAFD10BD000082078B079A4237D183
:1026F00070B5920F0AD0032402780B78401C491C55
:10270000002A2BD09A4229D12042F5D11D4EF40146
:1027100004C808C9951B9543254010D19A4207D19A
:1027200004C808C9951B9543254008D19A42EFD0AB
:1027300012BA1BBA01209A4200D2404270BD12BAAE
:102740001BBA2DBA18241000E0401900E140401ACD
:1027500005D12E00E64002D1083CF4D1D01A70BD5C
:1027600002780B78401C491C002A09D09A4207D1F4
:1027700002780B78401C491C002A01D09A42EFD005
:10278000D01A70470101010110B50C461107090F5D
:10279000092904D00A290AD008290CD104E01146DD
:1027A0000820FFF7CBFE06E0510606D501E05106F2
:1027B00001D50120C007214610BDD10607D5010172
:1027C0000909CC084907000E0006044309E0410F3F
:1027D00020024907000A0143200E00061D22D141B4
:1027E00001430846E7E7000001491820ABBEFEE7B9
:1027F00026000200704770B58C180578401C6B07E6
:102800005B0F01D10378401C2A1106D10278401CCD
:1028100003E00678401C0E70491C5B1EF9D12B07A3
:1028200005D40023521E0DD40B70491CFAE703781F
:10283000401CCB1A921C03E01D780D70491C5B1CD8
:10284000521EF9D5A142D8D3002070BD8030C1609E
:10285000704780220029016801D0114300E09143B4
:102860000160704710B504210348FFF7EFFF0349EB
:102870000120087010BD0000000001400C00002085
:1028800080308068084000D001207047F0B50025F6
:1028900087B002952E46039500247B4F03223C709F
:1028A00023461146794800F03FF9022200231146E1
:1028B000764800F02AF9012200231146734800F0FF
:1028C00024F900231A461946704800F01EF9012128
:1028D0006E4800F03FF9387800280ED17D273F017F
:1028E0000220641C12F0C4FBBC4202DB002007B0D3
:1028F000F0BD654800780028F2D06448016B426B57
:102900000905090D6D1802991205120D8918029119
:102910000399806B761C0005000D08180390052EA6
:10292000BADB28463146FDF71DFF0190314602987B
:10293000FDF718FF044631460398FDF713FF0746DD
:102940002046FEF7B5FE524913F060FC514C206161
:10295000FEF782FD05460E463846FEF7A9FEFEF755
:102960007BFD00224C4BFEF753FC2A463346FEF714
:10297000B8F9FDF7EFFF4949FEF798FD484913F014
:1029800045FC414D0646E0606878002809D0E868BB
:10299000FEF786FE314613F039FC4249FEF786FD0C
:1029A000E0600198FEF784FE394913F02FFC0746DA
:1029B0000121C9023C4805F0DDFC01283FD0384622
:1029C000FEF74AFD0022394BFEF796F905460E4602
:1029D0003749384613F01AFCFEF73EFD2A463346C7
:1029E000FEF7A2F9FDF7B6FF3249FEF75FFDFEF7ED
:1029F00033FD12F07BFB00222F4BFEF795F92F4A97
:102A00002F4BFEF761F902460B4600202D49FEF7D9
:102A10008BF9FDF79FFFFEF71FFD2B4A2B4BFEF7AF
:102A200060F9FDF797FF2A4913F080FB2949884296
:102A300002D8294988421BDD002020701AE027496E
:102A40003846FEF733FD0646A0606878002809D0B6
:102A5000A868FEF725FE314613F0D8FB1149FEF7B2
:102A600025FDA0600121C9020F4805F03FFC07E0E9
:102A70000121217001216060C9020B4805F07FFC33
:102A8000012007B0F0BD00000C0000200000014054
:102A90000000203A7C0100200000443F0000484232
:102AA00000007AC400007A4400200B40000004407B
:102AB000000020410000704100F4AA4083DBB5DC37
:102AC000E1796B3F0000F03F666666666612714012
:102AD000000040C0000020C20000FA428C2EBA3D27
:102AE00010B504210348FFF7CBFE012801D1FFF701
:102AF000B9FE10BD000001408030002A026801D0FC
:102B00000A4300E08A4302607047930830B49B0098
:102B10001B1858689207D40E1F22A2409043A14070
:102B20000843586030BC70475B1E12021B04FF3A1A
:102B3000013A13430B430168802211400B430360A9
:102B40007047CA06D20E02674909490141677047BA
:102B5000016270470029416F02D00122114301E058
:102B6000490849004167704710B40022072801D97D
:102B7000012208389300064A9B181A6880000F2427
:102B80008440A24381401143196010BC704700008B
:102B900000200240F0B5374BC000C61893B048087B
:102BA0000E9010010C908808069010020B90C80837
:102BB0000590100309900809049010040890480932
:102BC0000A90100507908809864610060390C809E8
:102BD00000258446100702900020FF24AC400346E5
:102BE0000C4240D00124AC40214201D00F201346BA
:102BF0000E9F274203D0F02738430C9F3B43069F8C
:102C0000274204D00F273F0238430B9F3B43059FC9
:102C1000274204D00F273F033843099F3B43049FBB
:102C2000274204D00F273F043843089F3B430A9FA5
:102C3000274204D00F273F053843079F3B43774681
:102C4000274204D00F273F063843039F3B43674684
:102C5000274204D00F2424072043029C23433468D6
:102C600084431C4334600835361D092DB4DB13B092
:102C7000F0BD00002020024018488078002801D1D3
:102C80000120704770B5012180200BF0E7FF00287C
:102C900023D00A2012F0C6F9002120200BF0DEFF1D
:102CA00004460A2012F0BEF9012140200BF0D6FFA5
:102CB000044011F0DFFF642012F0B4F9002140203D
:102CC0000BF0CCFF20400546002180200BF0C6FF12
:102CD00004462C4011F0CEFF204670BD9C00002021
:102CE00018488078002801D10120704770B5012173
:102CF00080200BF0B3FF002823D00A2012F092F9B5
:102D0000002140200BF0AAFF04460A2012F08AF9A5
:102D1000012120200BF0A2FF044011F0ABFF642042
:102D200012F080F9002120200BF098FF204005468A
:102D3000002180200BF092FF04462C4011F09AFFF6
:102D4000204670BD9C000020F8B500207E4C034654
:102D50006070A0707DA27EA1632010F041FD012172
:102D600002200BF0DFFE06460A2012F05BF96946EE
:102D700002200BF09FFE054668463540007801268C
:102D800070406070002102200BF0CCFE2840074606
:102D900060780021002806D002200BF05FFF384049
:102DA000050002D009E00120F9E703236CA26DA120
:102DB000632010F015FD0FF089F86E4F61783878B8
:102DC000884311D004236CA26CA1632010F008FD8D
:102DD000C82012F027F9042367A26CA1632010F029
:102DE000FFFCC82012F01EF900236CA26CA1632026
:102DF00010F0F6FC012104200BF094FE05400121A7
:102E000008200BF08FFE05400A2012F00BF96946EE
:102E100004200BF04FFE054068460078694670407C
:102E2000A07008200BF046FE054068460078002898
:102E300001D00020A070002104200BF073FE05409B
:102E4000002108200BF06EFE0540267000210820AE
:102E50000BF004FF0540002104200BF0FFFE284288
:102E600007D1002352A253A1632010F0B9FC0FF048
:102E70002DF83878A178884311D0042351A23FA1BE
:102E8000632010F0ADFCC82012F0CCF804234DA252
:102E90004DA1632010F0A4FCC82012F0C3F8A07864
:102EA00000282BD04C484D498068884226DB4C488E
:102EB000807A002823D0012180200BF0CFFE00284B
:102EC0001CD00A2012F0AEF8002140200BF0C6FE04
:102ED0000A2012F0A7F8012120200BF0BFFE11F00C
:102EE000C9FE642012F09EF8002120200BF0B6FEEF
:102EF000002180200BF0B2FE11F0BCFEF8BD0121D4
:102F000080200BF0ABFE0028F8D00A2012F08AF8DF
:102F1000002120200BF0A2FE0A2012F083F80121EC
:102F200040200BF09BFE11F0A5FE642012F07AF811
:102F3000002140200BF092FE002180200BF08EFE3D
:102F400011F098FEF8BD00009C0000203435000010
:102F5000B3F5CABCBBAF4154434DC4A3BFE90000A5
:102F6000464300004154434DC4A3BFE9D2ECB3A390
:102F7000000000002D00002034360000BCECB2E25E
:102F8000B5BDBEC9B0E6D3B2BCFE00004154434D4E
:102F9000C4A3BFE9D2D1BDFBD3C3000034370000C6
:102FA000B3F5CABCBBAF41504D4DC4A3BFE900004F
:102FB0004644000041504D4DC4A3BFE9D2ECB3A339
:102FC000000000003438000041504D4DC4A3BFE95B
:102FD000D2D1BDFBD3C300007C0100200000F04033
:102FE000A8030020F0B5554C83B0A07800283ED04F
:102FF000002568460095057106F044FA01A805F021
:1030000029FF217801274E4E4E48002969D0012919
:103010002FD002292BD10420205E002808DD401E7D
:1030200000B2A080002803D1012108200BF016FE79
:1030300081200099C005814210DB6846007907288D
:103040000CD000280AD04048814210DC0021082022
:103050000BF004FE052011F0E5FF66E000210820DA
:103060000BF0FCFD012104200BF0F8FD257003B0EE
:10307000F0BD80683549884203DB3549897A0029EB
:1030800003D05020A08003B0F0BD0421615E002970
:1030900004DD491E09B2A1800029F4DCFEF7DCF949
:1030A00032462C4BFDF710FE06460F460098FEF701
:1030B000D3F932463B4612F0D3FFCFD368460079AE
:1030C0000728CBD00028C9D0234800998142DADDF7
:1030D0000420A08001210BF0C1FD0220207003B06C
:1030E000F0BD694609790729F9D00029F7D0009980
:1030F000194A0291914207DD012108200BF0AEFD33
:103100000220207003B0F0BD8068FEF7A5F93246BA
:10311000104BFDF7D9FD05460E460298FEF79CF9C7
:103120002A46334612F0CEFFECD2002104200BF0E9
:1031300095FD1020A080277003B0F0BD9C000020FA
:103140009A9999997C010020666656410000F040EA
:10315000A80300209999B93F66665E4106498978BF
:10316000002901D101207047012110B541401020F4
:103170000BF074FD10BD00009C000020054A527841
:10318000002A01D10120704710B5014602200BF042
:1031900065FD10BD9C00002010B5124C6078002821
:1031A00012D0002102200BF059FDA078002810D089
:1031B000002108200BF052FD142011F033FF0021F4
:1031C00004200BF04BFD10BD012102200BF0AAFCE6
:1031D000EBE7012104200BF0A5FC012108200BF0F6
:1031E000A1FC10BD9C00002070B584B0184E0025D5
:1031F000164C334617A221210A200195009409F0AC
:10320000EDF90C200190174B17A221210295009493
:103210005B2009F04DFC334616A231213820019580
:10322000009409F0DBF9731015A240210A200195E2
:10323000009409F073FB154B15A240215E20019507
:10324000009409F06BFB04B070BD00001084000016
:10325000FFFF0000B9D8D7A2DFD9C1A8DFD9C1A824
:1032600000000000E0FF0000404D5038363935378F
:1032700000000000D0BBD0BBDFF7A3A1000000001E
:103280004E6F7620203420323032350020FD000091
:1032900031303A32353A33390000000070B5104C05
:1032A0000026A079052809D10E4D012168784840F3
:1032B000687002D001200EF069FE2E70A0790428FB
:1032C00009D100200EF062FE07480078002804D0E3
:1032D000064810F063FFA67170BD0548F9E70000CD
:1032E000240000201001002048000020F4D001003C
:1032F00088D60100F0B5494F0C2638780024484D97
:1033000083B000281BD0787800280BD003F0FCFA9B
:10331000034644A2312138200095019409F05EF95A
:1033200003B0F0BD03F0F0FA034641A22821372094
:1033300001960095029409F0BBFB03B0F0BD0DF0BF
:10334000BBF979783D4B00290095019429D03C4A7E
:1033500021210A2009F042F93A4B3B4A21215B2006
:1033600001960095029409F0A3FB344B374A3121B2
:1033700038200095019409F031F9354B354A402148
:103380000A200095019409F0C9FA334B334A4021D1
:103390005E200095019409F0C1FA0120387003B055
:1033A000F0BD2FA21521042009F0B8FA234B32A258
:1033B000282104200095019409F010F91F4B1CA24C
:1033C0002821372001960095029409F071FB1B4BD0
:1033D0002CA2282185200095019409F0FFF8174BB5
:1033E0002AA23D2107200095019409F0F7F8134B1C
:1033F0003A223D21392001960095029409F04EF8B9
:10340000134B25A23D21402001960095029409F01E
:103410004FFB0120387003B0F0BD00001001002008
:1034200010840000D0BBD0BBDFF7A3A100000000D8
:1034300052656473746F6E6572333500FFFF000070
:1034400054320000E0FF00006832000074320000D7
:10345000FF7F00008032000020FD0000903200005D
:10346000444645782D47543936D6C7BBDBB5E7B35C
:10347000D8D7D3CFB5CDB300C8EDD3B2BCFED3C936
:1034800000000000C9E8BCC600000000B9CCBCFECA
:10349000B0E6B1BE0000000056312E3520427569FD
:1034A0006C64390010B5024810F078FE10BD0000C1
:1034B000F0D901000B480821415E002901DD491EB9
:1034C00001810621415E002901DD491EC18001897B
:1034D000002905D10C21415E002901DD491E8181B1
:1034E000704700001601002003480021018141813E
:1034F000017181707047000016010020F0B5FF488F
:1035000083B080780A283ED20100794409794918AD
:103510008F44043B13D183FEF6F5F4F40DF0CCF8A0
:103520000021F74801910090F64BF7A216210E20DA
:1035300009F054F804F0F4F822E00DF0BDF8F0487A
:1035400000250090EF4BF0A2162101950E2009F006
:1035500045F8EA4C2020E0800020FFF7FFFD0646FA
:103560000A2011F05FFDFFF7BBFB06400120FFF7CB
:1035700005FE304202D12571042000E00120A07038
:10358000E7490120087003B0F0BDE6490120E44E90
:10359000087030780028F6D00DF08EF80025D84F4E
:1035A000D84BD9A216210E200097019509F016F8E4
:1035B000D24C0620205E00281AD002280BDAE580C3
:1035C0000020FFF7DBFD052011F02CFDFFF754FB79
:1035D0000120FFF7C3FDD448357000780028D2D011
:1035E000072818D0022020710420A07003B0F0BD7D
:1035F000CE480078002805D004202071A0703570D6
:1036000003B0F0BDCA4BCBA2252111200097019534
:1036100009F084F9DFE70320E7E7C2480127B74E46
:10362000077030780028EBD10DF046F80024B44D37
:103630001F23DB02C4A216210E200095019408F07E
:10364000CDFF3079052831D2010079440979491834
:103650008F4414021D240B00B54BC1A2252120204C
:103660000095019408F0BAFF20E0B14BC0A22521DB
:1036700020200095019408F0B1FF17E0AC4BC1A2E7
:10368000252120200095019408F0A8FF0EE02521B7
:10369000A74BC0A211200095019405E0A44BC2A243
:1036A000252120200095019408F098FF10F0BCF926
:1036B000377003B0F0BD0124042007F02BFB002875
:1036C00000D100240021084605F06EFB002819D027
:1036D000002C17D08949052088709448007800286C
:1036E000E7D00020FFF74AFD052011F09BFCFFF713
:1036F000C3FA0120FFF732FD03B0F0BDCDE020E0BA
:1037000011E005E07D480021017104218170F3E79B
:10371000844901200870844800780028ECD177495A
:1037200006208870E8E7012007F0F4FA044601213A
:10373000002005F039FB2042E4D070490720887052
:10374000DAE7784901206D4D0870E878002832D01A
:10375000994CA07A002810D1E888002801D11020C7
:10376000E8800620285E102802D00A2802D004E053
:10377000002000E00120FFF701FD9048904900681B
:1037800040004008884202DBA07A002802D1288944
:10379000002802D05020A8810DE0A88900280AD175
:1037A000E870FFF7EBFC052011F03CFCFFF764FA32
:1037B0000120FFF7D3FC83484178002906D1007827
:1037C000022803D02889002818D021E00820285E8C
:1037D000082802DD0020288101E0002818D10A20F5
:1037E000285E032807DA05F07FFA6889401C6881A3
:1037F000082028810CE00820A87009E00A20285E33
:10380000002805D010212981002801DD401E688193
:1038100002F09EFE002802D00920A87002E0A878DD
:10382000072830D00021084605F0BEFA042007F032
:1038300071FA0024642011F0F5FB641C052CF9DBFF
:1038400061480078002804D00021012005F0ACFA7E
:103850000EE05E480078002805D05D480178012020
:1038600005F0A2FA04E05B480178012005F09CFA1B
:1038700002F070FB002800D0032007F04BFA05F09F
:1038800033FA0020687026480078002800D133E71A
:103890000CF012FF00F0C6F82EE722490120204D5F
:1038A000087028780028F2D00CF006FF134CA0789E
:1038B000092821D0002112481F2301910090DB022A
:1038C00045A216210A2008F089FE10F0ADF817482D
:1038D000E178007808420CD00020FFF74FFC05206B
:1038E00011F0A0FBFFF7C8F90120FFF737FC00201B
:1038F000E07000202870FFE67AE00000160100204A
:1039000010840000FFFF0000CACAC5E4C6F7C4A3C4
:10391000C4E2BFAAC6F4D6D0A1ADA1AD000000009C
:10392000A8000020A6000020AE0000209D0000207E
:10393000E0FF0000C7EBBDABB8BAD4D8C1ACBDD373
:10394000B5BD555342000000CACAC5E4C6F7C4A3BA
:10395000C4E2BFAAC6F4CAA7B0DCA3A1000000005D
:10396000B5E7B3D8B5E7D1B9B9FDB5CD00000000D2
:10397000B7C5B5E7CAE4B3F6BFAAC6F4CAA7B0DCB8
:1039800000000000D0BEC6ACCDA8D0C5B4EDCEF3CB
:1039900000000000CFB5CDB3B4A6D3DAB7C7D5FDCC
:1039A000B3A3C4A3CABD0000CFB5CDB3B3F6CFD681
:1039B000B9CAD5CF00000000AC010020B80000203B
:1039C000CDCCCC3DB10000203D010020690100209C
:1039D000590000206A010020CFB5CDB3B3F6CFD691
:1039E000B9CAD5CFA3ACC4A3C4E2CDA3D6B9000055
:1039F000002105481F2301910090DB0203A216213C
:103A00000A2008F0EBFD60E710840000B5E7B3D8AA
:103A1000B5E7C1BFB9FDB5CDA3ACC4A3C4E2CDA386
:103A2000D6B90000F0B5FD48FD4C0078FD4F0025EB
:103A300085B0002806D01721FB4BFCA2162001956B
:103A4000009425E0FE48FF4900780978084218D024
:103A5000FD48817AFD48C07801430BD0002810D082
:103A60003F235B01FAA2172116200195009408F06C
:103A700055FF0FE017213B46FAA20D200195009457
:103A8000F5E73F235B01FDA2172119200195009462
:103A900008F0A4FD3B46FEA22C21062001950094CF
:103AA00008F09CFD0C263B463A222C211E20019654
:103AB0000295009408F0F2FCE348807A00286ED06A
:103AC000E0480178F44800296AD0F44900680968A0
:103AD00012F09CFB4000F2494008884209DA024695
:103AE00002232C21292000970296019408F032FE2F
:103AF00017E0EC49884209DA024601232C212920EB
:103B000000970296019408F025FE0AE0FDF77EFD7D
:103B100082B204232C21292000970296019408F0F8
:103B200041FF3B4657222C215220019602950094DA
:103B300008F0B4FCC449087A002804D001284ED00B
:103B4000022855D05DE0487A01285AD0082845D28D
:103B500001007944097949188F449595030D17237D
:103B60002D373B46D0A22C21672001960295009468
:103B700008F09EFF87E03B46CDA22C2167200196EE
:103B80000295009408F094FF7DE0CB4BCBA22C2152
:103B9000672001960295009408F08AFF73E061E0C7
:103BA00036E0C54BC7A22C216720019602950094F0
:103BB00008F07EFF67E0C54BC5A22C216720019667
:103BC0000295009408F074FF5DE0C04BC2A22C2166
:103BD000672001960295009408F06AFF53E03B4687
:103BE000BFA22C2167200195009408F0F7FC4AE061
:103BF0003B46BDA22C2167200195009408F0EEFC05
:103C000041E02C213B46BAA267200195009438E0A0
:103C1000A949009102960194026802232C212920CF
:103C200008F098FD3B4656222C2152200196029521
:103C3000009408F033FC9948022300682C214200CC
:103C4000A2480090520802960194672008F082FD75
:103C50003B4641222C21902001960295009408F0C9
:103C60001DFC10E0994BA5A22C212920019602955C
:103C7000009408F01DFF3B46A2A22C21562001957E
:103C8000009408F0ABFC3B46A0A23D210620019524
:103C9000009408F0A3FC3B463A223D211E200196E9
:103CA0000295009408F0FAFB66489A4900780028CB
:103CB00072D09948994A006843005B08934200DA41
:103CC0000020096812F0A2FA4000754940088842B5
:103CD00009DA024602233D21292000970296019429
:103CE00008F038FD17E06F49884209DA02460123DF
:103CF0003D21292000970296019408F02BFD0AE04F
:103D0000FDF784FC82B204233D212920009702960E
:103D1000019408F047FE3B4657223D215220019670
:103D20000295009408F0BAFB7D48017800291CD068
:103D30004068FDF76BFC002821DAFF274042D037AE
:103D400003903B462D223D21019602950094672069
:103D500008F0A4FB0398009782B202960194022314
:103D60003D21672008F01EFE27E03B466DA23D2165
:103D7000672001960295009408F09AFEDFE00A2879
:103D800001DA1F2710E06849496C0A46143A82425A
:103D900003DD3F277F0107E019E00839814201DD9B
:103DA0004A4F01E01F27FF0282B202233D21672014
:103DB00000970296019408F0F5FD3B465BA23D2179
:103DC000882001960295009408F024FCB7E03A4858
:103DD0000090029601940A6802233D21292008F0F0
:103DE000B9FC3B4656223D21522001960295009493
:103DF00008F054FB48480068420048485208824294
:103E000000DA00223148009002233D2102960194FD
:103E1000672008F09FFC3B46412289E05A000020C1
:103E200010840000FFFF000020FD0000CFB5CDB3DF
:103E3000B9FDC8C8A3ACC4A3C4E2D4DDCDA30000BF
:103E40009D000020AC000020AC01002016010020E5
:103E50005553422D41BFDAC4A3C4E2D2D1BFAAC692
:103E6000F4000000B0B4CFC2456E746572BFAAC63C
:103E7000F441BFDAC4A3C4E200000000CACAC5E42A
:103E8000C6F7C4A3C4E2D2D1BFAAC6F400000000A2
:103E9000CAE4B3F600000000B4000020B80000201F
:103EA0000000C84200007A44504420375600000009
:103EB0005044203956000000FF7F0000504431324A
:103EC000560000005044313556000000E0FF00006D
:103ED000504432305600000050444550520000001B
:103EE000B8DFD1B900000000B8DFC1F70000000062
:103EF000BFECB3E4B9D8B1D50000000054797065C7
:103F00002D430000CEB4C1ACBDD30000B5E7B3D89B
:103F100000000000BC000020C0000020CDCC4C3DC3
:103F20007C0100202D2D2D009C020020A1E6000028
:103F30003D21902001960295009408F0AFFA0248C6
:103F4000057005B0F0BD0000A8000020F8B53448A9
:103F5000344F0078344C0025002818D0B879032855
:103F600015D1A078072857D1E078002813D0002079
:103F7000FFF704F90646052011F054F8FEF77CFE21
:103F800006400120FFF7EAF8304200D0E570B8792A
:103F9000042816D040E02548807A00283CD1FFF75D
:103FA000DDF806460A2011F03DF8FEF799FE0640BE
:103FB0000120FFF7E3F83040E070E8D0A020A081B6
:103FC000E5E7E078002802D1A07807280AD0002091
:103FD000FFF7D4F8052011F025F8FEF74DFE01207B
:103FE000FFF7BCF8124813490278002A0CD005707C
:103FF0000D7000215023A0220846009507F03CFFD9
:104000000D4810F0CBF805E00878002806D00B48E2
:1040100010F0C4F802F03CFCBD71F8BD0848F7E7A9
:104020009D0000202400002016010020AC0100208B
:1040300041010020480000208CCC0100F4D0010098
:1040400088D6010010B500230FA210A148200FF060
:10405000C7FB124A1248D17A0378994211D00170F5
:10406000002901D0012906D102210170D17201215C
:104070000C4810F079FE07F0D9FF80210A4804F0BF
:1040800035F90BF065F910BD32370000C9E8D6C329
:10409000CFD4CABEB7BDCFF200000000DC020020C2
:1040A000090000209C02002000400B400848082125
:1040B000C1700A2181600749097A002906D00649A2
:1040C000C97A002901D04B21890141607047000065
:1040D0004C00002068030020A803002070B50D4CA0
:1040E00000256068012807D000280BDDE178002951
:1040F00009D0491EE17009E007486560C57204F007
:1041000073F8A56070BD0821E1702570401E6060E5
:1041100070BD00004C000020A8030020F8B56648E0
:1041200001250570FF206549E13008806548644C31
:104130008379654866490078664A864620468078D5
:1041400066788446614809781278062E56D2370080
:104150007F443F79FF19BF44022852617C950029B2
:1041600003D0052901D05026A6705C4E5A4F376007
:10417000A678002E09D0042B13D0072911D052495C
:1041800072453BD005700A7092E0057065700DF0C5
:1041900081FF0A2010F046FF2570042006F0BAFDCA
:1041A00086E005700520607082E04C4977460A6819
:1041B000454956073E4311D0560701D000260E70E0
:1041C000042B04D04649474B896899420DDA0570A3
:1041D000424800210160052060700DE005700D70FF
:1041E00041494E69761C4E61EAE7002A60DC0570A1
:1041F000022060702820A0700DF04CFF58E00029CC
:1042000003D0072901D003216170614600294FD1F5
:104210000570042060701820A07049E000262F4F20
:1042200000293E6004D0052902D05026A67002E085
:104230006646002EECD00729EAD0042B03D0224991
:10424000724535D09EE70570052060700DF022FFA5
:104250002EE0604608432BD120480024224D046004
:104260002846AC6201F078FFE86410F0C9FD002137
:104270005023A0220846009407F0FEFD1B480FF0D3
:104280008DFF15E0042B13D1144800240460164858
:1042900001F062FF1449C86410F0B2FD0021502300
:1042A000A0220846009407F0E7FD10480FF076FFC3
:1042B000044900208871F8BDA600002006000020F7
:1042C00034010020240000202E0100202D010020B8
:1042D000AE000020AC0000208032020074000020FC
:1042E0007C0100209A992141680300208CCC0100B8
:1042F000E4480078002803D1E348807900287AD088
:10430000F0B585B00CF0D8F9E0480C254078E04CC9
:10431000E04F002606286FD2010079440979491838
:104320008F4402FDFC02FBFADB49097805293BD0EA
:10433000062943D0D94B03280196009448D0D8A22F
:104340001621212008F04AF93B46D9A2282106204F
:104350000196009408F042F93B463A2228211E209B
:1043600002960195009408F099F8D3480078002847
:1043700078D0D248D2490068420052088A4200DA16
:104380000020D049096811F041FF4000CE494008A3
:10439000884223DA02460223282129200097029529
:1043A000019408F0D7F933E03F235B01C7A216213F
:1043B00021200196009408F011F9C5E71F23DB02C4
:1043C000C6A2162121200196009408F007F9BBE748
:1043D000C6A21621212008F001F9B5E7C749884295
:1043E0000BDA024601232821292000970295019427
:1043F00008F0B0F90CE043E13CE1FDF707F982B2C7
:1044000004232821292000970295019408F0CAFA74
:104410003B4657222821522002960195009408F02D
:104420003DF8B748017800291DD04068FDF7EEF847
:10443000002822DAFF274042D03703903B462D2246
:104440002821029601950094672008F027F8039828
:10445000009782B20295019402232821672008F078
:10446000A1FA27E030E03B46A6A228216720029669
:104470000195009408F01CFBFCE00A2801DA1F27D4
:104480000FE0A149496C0A46143A824202DD3F27F7
:104490007F0106E00839814201DD9C4F01E01F27C2
:1044A000FF0282B20223282167200097029501941F
:1044B00008F078FA3B4696A22821882002960195BA
:1044C000009408F0A7F8D5E0924800907D48029546
:1044D0000194026802232821292008F03BF93B4679
:1044E00056222821522002960195009407F0D6FF0B
:1044F00072480068420072485208824200DA002284
:10450000824800900223282102950194672008F038
:1045100021F93B46412203E0A3E09AE08AE005E06E
:104520002821902002960195009426E0594B7AA20A
:10453000162121200196009408F050F85E4800787A
:1045400000281DD0534F78A23B4628211920019600
:10455000009408F0E3F9781000905A48029501940D
:104560000268022328214F2008F0F4F83B46562227
:104570002821782002960195009407F08FFF79E0BA
:104580006C480068C117490F0818C010E1210901E3
:104590000190FCF7F5F8009008463C21FCF7F0F894
:1045A00007463C210198FCF7EBF800980391049032
:1045B000384B61A22821019600940E2008F0AEF934
:1045C0003F20400100900498029582B2019401239B
:1045D0002821332008F0E6F92E4B59A228213E204D
:1045E0000195009407F0FAFF3F2040010090BAB215
:1045F00002232821029501944E2008F0D3F9254B7F
:1046000050A2282162200195009407F0E7FF3F2087
:104610000399400100908AB2029501940223282157
:10462000722008F0BFF928211A4B47A28620019575
:1046300000941DE03B4645A216210A2001960094F5
:1046400007F0CCFF28213B4646A22E20019600947D
:104650000EE03F235B01222145A221200196009418
:1046600006E01F23DB0246A222211B2001960094B4
:1046700007F0B4FF0FF0D8F90248067005B0F0BD9E
:10468000704700002D01002024000020340100208C
:1046900010840000FFFF0000AE00002020FD00009D
:1046A000B5E7B3D8B0FCB3E4B5E7D6D0A1AD000010
:1046B000B5E7B3D800000000AC000020C000002027
:1046C000CDCC4C3DBC0000200000C842C8B7C8CFCC
:1046D000B3E4C2FAD7B4CCACA1AD0000B5E7B3D80F
:1046E000B0FCB3E4B5E7D2ECB3A30000B5E7B3D8B0
:1046F000B6FEB4CEB2B9B5E7D6D0000000007A4419
:104700007C0100202D2D2D009C020020E0FF0000E8
:10471000A1E60000FF7F0000D7D4B6AFBEF9BAE231
:10472000D4CBD0D0D6D00000B5E7B3D8B5E7D1B957
:104730003A00000074000020CAA3D3E03A00000051
:10474000CAB10000B7D60000C3EB0000C8B7C8CF9D
:10475000CAC7B7F1BFC9D2D4B6FEB4CEB2B9B5E7B5
:1047600000000000C7EBC9D4B5C8A1ADA1AD0000E1
:10477000D7D4B6AFBEF9BAE2D2D1BDE1CAF80000D3
:10478000D7D4B6AFBEF9BAE2D2ECB3A3BDE1CAF852
:104790000000000003498878002801D0401E88707E
:1047A000704700003401002010B502480FF0F6FCFD
:1047B00010BD0000A4E7010010B5054CA079042845
:1047C00002D104480FF0EAFC0020A07110BD0000E7
:1047D00024000020D8D1010010B505480078002839
:1047E00003D004480FF0DAFC10BD0348FAE70000DC
:1047F00048000020F4D0010088D6010010B502481E
:104800000FF0CCFC10BD0000F4D0010010B5024840
:104810000FF0C4FC10BD000088D6010010B5094C93
:10482000A07904280AD108480078002807D0074852
:104830000FF0B4FC00200649A071087010BD0548B7
:10484000F6E700002400002048000020E0D201002C
:10485000E600002088D60100F8B53F4C3F4E217895
:1048600000270125B079002906D001292CD0022982
:1048700059D0032967D156E0012804D0022807D077
:1048800004280BD011E0606810285FDA401C03E0B8
:10489000606801285ADD401E606057E030480078AB
:1048A000002806D02F480FF079FCB079032802D0F9
:1048B00049E02D48F7E7E1216068C90148432B49E9
:1048C00008602570657041E0FF21E131284A042825
:1048D000118004D0274828498068884204DA234898
:1048E0006570076003201CE02048006800280EDD8A
:1048F000A2784107114303D0400724D0A77022E0DB
:1049000065701E48A5704169491C41611BE01B4848
:10491000876201F021FC1949C86410F071FA6570D2
:10492000022020700FE004280DD1144801F014FC7F
:104930001249C86410F064FA09480078002808D0C9
:1049400008480FF02BFCB079002800D06570B771D3
:10495000F8BD0548F5E700002C01002024000020E8
:1049600048000020F4D0010088D601007400002027
:10497000060000207C0100209A9921416803002054
:10498000F0B5864E85B07078002803D184488079D0
:1049900000287DD00BF090FE3078824F0C2400254B
:1049A000002808D03F235B01012829D0022870D0BD
:1049B00003286FD1EAE07C4B7CA2152123200097CD
:1049C000019507F00BFE784B7CA22A21202000974E
:1049D000019507F003FE7B480197029400907068F0
:1049E00082B20A2801DA392000E03D2002232A2180
:1049F00007F0D8FF6C4B74A22A2100970194BDE008
:104A000068483F2300905B0172A216210195212086
:104A100007F0E4FD7349012008707348007800280E
:104A20001DD072480068C117490F0818C710E1214E
:104A300009013846FBF7A4FE009008463C21FBF72D
:104A40009FFE04903C213846FBF79AFE009F554894
:104A50000391019500900A2F23DA0E2022E0514F96
:104A6000514B63A2282119200097019507F056FFAA
:104A7000624800906248019702940268022328214C
:104A80004F2007F067FE56222821474B782002E08E
:104A90007AE050E075E000970295019407F0FEFC83
:104AA0006FE00B20404B57A2282107F037FF3F2132
:104AB00049013C480294009101900A2F01DA012338
:104AC00000E00223BAB20A2F01DA332000E02D20E1
:104AD000282107F067FF334F334B4CA228213E209B
:104AE0000097019407F07AFD3F2040010090049860
:104AF000019782B20294022328214E2007F052FF30
:104B0000294B43A2282162200097019407F066FDFB
:104B10003F20400100900398019782B20294022343
:104B20002821722007F03EFF28211F4B39A2862042
:104B30000097019423E038A21621212000970195C7
:104B400007F04CFD184B1DA229212020009701954C
:104B500007F044FD1B48019702940090706882B2F0
:104B60000A2801DA392000E03D200223292107F03C
:104B700019FF0D4B14A22921009701944F2007F033
:104B80002DFD0EF051FF757005B0F0BD1F23DB0247
:104B9000232125A21C2000970195F0E72C0100207D
:104BA0002400002010840000FFFF0000C7EBD6B8EF
:104BB000B6A8BEF9BAE2CAB1BCE40000B9B2BCC63C
:104BC00000000000E0FF0000BEF9BAE2D0A1CAB1C7
:104BD00000000000CAD6B6AFBEF9BAE2D4CBD0D03E
:104BE000D6D00000A6000020AC00002074000020F9
:104BF000B5E7B3D8B5E7D1B93A000000FF7F0000B0
:104C0000BC000020CAA3D3E03A000000CAB10000F3
:104C1000B7D60000C3EB0000CAD6B6AFBEF9BAE201
:104C2000D2D1CDEAB3C90000CAD6B6AFBEF9BAE256
:104C3000D2ECB3A3BDE1CAF800000000F8B5002330
:104C40001CA21DA134200EF0CBFD01240025002163
:104C500020460AF003F806460021204609F0B0FF7E
:104C6000074637400021204609F05CFF38400646E1
:104C7000082C03D103F0ACFB002805D160066D1CA5
:104C8000040EEDB2082DE2D3002E07D103230EA2AD
:104C90000EA134200EF0A4FD0DF018F900230FA290
:104CA0000FA135200EF09CFD1148C16F806F06F0FA
:104CB0008BFEF8BD31320000BEF9BAE2BFD8D6C6CD
:104CC000C6F7C5E4D6C3000045440000BEF9BAE209
:104CD000BFD8D6C6C6F7D2ECB3A30000313300006C
:104CE000D3A6D3C3414443D0A3D7BCCAFDBEDD0085
:104CF0009C02002010B50021012009F0AFFF10BD7B
:104D0000F0B583B0002768460771077004F0A2F879
:104D1000434D444EA868002806DD68460078052803
:104D200001D0EF6017E0AF60F0683F4940004008F5
:104D3000884203DA68460078032832D0E868002801
:104D400001DD401EE8600F218901884203DB2D2030
:104D50004001EF60A86004F07EF96978334F81422A
:104D600011D0687000280ED0686800280BDC387CF1
:104D7000002819D02E492F48806A11F01DFA02D35D
:104D80002D480FF00BFA01A804F064F82B49B06825
:104D9000884228DB6868002808DD401E012468601E
:104DA00031E0E868401CCDE72549E4E7A868002821
:104DB00003DD401E0024A86025E022480078032877
:104DC00020D068460079002803D11F490A5E082ACE
:104DD00009DB397C002906D001290FD0022904D033
:104DE000032910D10EE000240DE001280AD002288A
:104DF00008D0032806D00528F5D103E00428F2D016
:104E00000028F0D001242878A04206D021460120B5
:104E100009F024FF002800D02C7003B0F0BD000082
:104E2000700000207C010020CDCC4C3EDC02002034
:104E3000000084416803002058DD01009A99214157
:104E400000003841350100200600002010B502485E
:104E500006F02EFA10BD00001CE5010010B5024856
:104E600006F026FA10BD0000FCE401000349896841
:104E7000014201D0012070470020704700800840A7
:104E800004494A680123DB029A43C00202434A6094
:104E90007047000000800840F0B4084F7D6AFE6A49
:104EA0003C6B85438E439443002B02D005430E4355
:104EB00014437D62FE623C63F0BC70470080084092
:104EC00010B4054B9A6A07248440A24381400A43E8
:104ED0009A6210BC704700000080084010B50021A5
:104EE000802001230A460AF059FE10BD002A05DD84
:104EF0000B780373491C521E002AF9DC8068704746
:104F0000F8B54D4C0820205E002801DD401E2081B0
:104F10000620205E002801DD401EE080A0780128E8
:104F200003D0022801D0082829D144490120087063
:104F30002078002801D0401E2070414800780028C9
:104F40001DD040480078012803D0022801D0032852
:104F500015D13D480078002811D13749E6783B4DFE
:104F60000F69C868002E0BD0A96811F0DFF8E06067
:104F70003846E96811F0DAF8761E2061E670F8BD6F
:104F80000221C943FCF798FB06460221E060C943B1
:104F90003846FCF791FB2E4F2061F9694900090E54
:104FA00003D12C49884200DBFE6178683146401C01
:104FB0007860B86911F082F901D2B86900E0E06860
:104FC000B861F868216911F079F901D2F86800E058
:104FD0002069F8602878002806D06968386911F0DF
:104FE0006DF904D2386903E01B48386101E0686854
:104FF0003861256919496800400811F007F9184E11
:105000003146FCF753FAB96811F090F8B8602946B8
:10501000E06811F0FBF8400040083146FCF746FA22
:10502000396A11F083F838620020E06008212061BD
:10503000E1702071F8BD0000D0000020A600002023
:10504000A4000020AE000020680000207C010020A9
:10505000440300209A99193E0000C8C200007A4417
:1050600000006145F8B5704A6D48704992680D7846
:1050700094466C4B024606246D498678145F9B7AF1
:1050800000220978072E1DD237007F443F79FF198F
:10509000BF440336B01866546000664C257B022D71
:1050A00005D0654C2478002C12D00D21B6E00729DC
:1050B00009D0062909D001218170227300215F489F
:1050C0000FF052FEF8BD0B2100E00C218170F8BDFD
:1050D000072904D0062904D0002906D103E00B21BA
:1050E0009CE00C219AE0002B01D0092196E0544B62
:1050F0009C4501DD0A2191E001218FE00271F8BD9C
:10510000002BFCD0082916D20B007B441B79DB183E
:105110009F441105050511050403D4E7D5E7494B64
:105120006146D961C26008210261C17001214170EC
:1051300002218170E2E7022EE0D0F8BD234307D0C0
:105140000729CCD00629CCD0002DF6D1022165E06C
:10515000072163E0002CF0D1022181700271F8BDBB
:10516000002C01D0062112E0002B07D0072907D020
:10517000062907D0002D07D0052108E0072106E009
:105180000B2104E00C2102E0052902D002218170EC
:1051900002710821415E0029E1DC02710321817066
:1051A0004270284C012027782070E6682649304656
:1051B00011F02CF8A5682946FCF778F960610146E2
:1051C0002248226863686CC0E569A3692269C560EA
:1051D000836002604160216A0161002120460FF076
:1051E00099FD002FBBD10AF07BFA002113480FF084
:1051F000BBFDF8BD002C01D006210FE0002BA7D08D
:1052000007299ED006299ED0002D01D0052105E05A
:105210000529EED10F2189010181042181706DE7FB
:10522000D0000020AC0100207C010020680000209C
:10523000AE000020DC020020690100209C0200205A
:10524000000004414403002000007A441C030020B5
:10525000FD480079002803D0FC48807900287DD0E3
:10526000F0B593B00BF028FAF74880780E2800D3F9
:105270004EE301007944097949188F4406185EFE0F
:105280003C4DFDFCFBFAF9FAF8F7F24E0025F04C24
:105290003346F1A221211B200195009407F09EF9CD
:1052A0002F213346F1A22E2001950094F3E2F2481B
:1052B000152300904B221946282007F0CDFBEF4E16
:1052C0000025E34C3346EEA22F211B2001950094CC
:1052D00007F084F90C2001903346EEA23D2102959F
:1052E0000094242007F0E4FB3D213346EBA251203B
:1052F00001950094CFE2E14E0025D54C3346E9A25A
:10530000212114200195009407F068F93346D7A2B3
:105310002F2101950094F7E30025CD4CE64BE7A241
:10532000212114200195009407F058F92F21D34B27
:10533000E7A2142001950094ADE20025C44CC54BB2
:10534000E8A2132114200195009407F047F9E94ED3
:1053500030798007800F04D0012800E0EFE313D1FB
:105360000AE00C200190BB4BC2A2132102950094CD
:105370006F2007F04FF907E0B64BDFA213216F2033
:105380000195009407F02AF900200190BB4BDCA2A4
:1053900023210094032007F021F9DC49706888423A
:1053A00051D9FBF7DFF9C4490C2582B200910223E1
:1053B0000295019423213C2007F0F4FA002002908A
:1053C000AE4BD3A22321019500944F2007F022F980
:1053D000CE497068FBF7C6F90846E1210901FBF7E1
:1053E000C1F9B54982B200910223029501942321AB
:1053F0005D2007F0D7FA00200290A04BC5A2232120
:10540000019500946F2007F005F9E121090170680A
:10541000FBF7A8F908463C21FBF7A4F9A64982B29C
:10542000009102230295019423217C2007F0BAFA0F
:1054300000200290914BB8A22321019500948F2067
:1054400007F0E8F856E0E1210901FBF78BF99A49EA
:105450000C2582B2009102230295019423213C2065
:1054600007F0A0FA0020854BAAA207E068E368E3F2
:1054700068E3FFE2ABE2F3E247E34AE20290232172
:10548000019500944F2007F0C5F8E12109017068EB
:10549000FBF768F908463C21FBF764F9864982B2BC
:1054A000009102230295019423215D2007F07AFAEE
:1054B00000200290714B98A22321019500946F2047
:1054C00007F0A8F83C217068FBF74CF97A488AB2DB
:1054D000009002232321029501947C2007F062FAB8
:1054E00000200290654B8DA22321019500948F200E
:1054F00007F090F80025614B89A232210320019525
:10550000009407F06BF87B488749006A88420BDA01
:105510000C2250490292009102460123019432214B
:10552000212007F017F90CE00FF0C8FD82B20C2122
:10553000484802910090032301943221212007F072
:1055400031FA0C26434B79A232213C200196029578
:10555000009407F0ADFA7648484B00780195002892
:1055600000943DD073A23221572007F037F83F2036
:105570004001009071480296019482680123322113
:10558000732007F0E7F83F235B0156223221932076
:1055900001960295009406F081FF384B68A24021E5
:1055A00003200195009407F019F852486649806875
:1055B000884248DA0FF082FD82B21F20C0020090BC
:1055C0000223402102960194212007F0EBF91F23CA
:1055D000DB0240215DA23320019602950094D4E0C5
:1055E0005BA23221572006F0F9FF5448C168806859
:1055F00010F00CFE40004C49400888420BDA3F2175
:105600004901024600910123029601943221732040
:1056100007F0A0F80CE00FF051FD82B23F204001EE
:1056200000900323322102960194732007F0BAF907
:105630003F235B015722322193200196029500946B
:1056400006F02CFFA9E787E0D0000020240000200E
:1056500010840000FF7F0000B2E2C8DDCFB5CDB3FB
:10566000D5FDD4DAC6F4B6AF00000000C7EBC9D44C
:10567000BAF3A1ADA1AD0000DEB70100FFFF00004D
:10568000C7EBBDABB5E7B3D8BCDCC1ACBDD3B5BDD2
:1056900000000000547970652D430000B3E4B5E7C5
:1056A000C6F70000D5FDD4DAC8B7C8CFB3E4C2FA54
:1056B000D7B4CCACA1AD0000E0FF0000CFB5CDB3B6
:1056C000BCECB2E2B5BDB9FDB3E4CAC2BCFE000099
:1056D000C7EBB5C8B4FDCAC2BCFEBDE2B3FDA1AD07
:1056E000A1AD0000B3E4B5E7B2E2C8DDBDF8D0D0AB
:1056F000D6D0000044030020A1ADA1AD0000000001
:10570000B3E4B5E7CAB1B3A40000000080510100C2
:10571000CCEC0000CAB10000B7D60000C3EB00001B
:10572000C4DCC1BF00000000000020415768000039
:10573000AC000020B5E7D1B9000000007C010020DA
:10574000C8DDC1BF000000000000C8426D41680014
:10575000B9A6C2CA00000000FB498842FB4917DA1B
:10576000FBF7A4FE1F21C902024600910123029605
:1057700001944021212006F0EDFF1F23DB02F4A25B
:1057800040213C2001960295009407F091F918E021
:10579000FBF78CFE0FF092FC82B21F20C00200903B
:1057A0000323402102960194212007F0FBF81F23D8
:1057B000DB02E7A240213C2001960295009407F00D
:1057C00077F9E448007801950028009424D0E24B52
:1057D000E2A24021572006F001FFE24801780029AB
:1057E0005CD040680FF06AFC002861DAFF27404275
:1057F000D03703903B462D223D210196029500941F
:10580000752006F04BFE0398022382B240210097D8
:10581000029601947C2070E0CF4ED3A23346402103
:10582000572007F07BF8D2480078082870D2010092
:105830007944097949188F44030A1118031F27274F
:1058400040213346CBA281200195009423E04021E2
:10585000CA4BCBA28120019500941CE04021CA4B89
:10586000CAA281200195009415E04021C94BCAA22B
:105870008120019500940EE03F235B014021C8A2E6
:1058800081200195009406E01F23DB02C6A240217F
:1058900081200195009406F0A1FE2FE2AE4BC4A238
:1058A0004021732001960295009407F001F926E04B
:1058B0000A280BDA1F27AB4800970296019442682A
:1058C00001234021732006F045FF18E0B949496CD7
:1058D0000A46143A824202DD3F277F0106E008397A
:1058E000814201DDA84F01E01F27FF0282B202239F
:1058F0004021732000970296019407F053F83B462D
:10590000ADA240218F2001960295009406F082FE00
:10591000F4E13F260025A94C76013346A8A21621C2
:1059200021200195009406F059FE3346A8A22921B2
:1059300018200195009406F051FEA748834E806818
:105940003146FBF7B3FDA54988420BDA824A0C21A8
:10595000009202910246032301942921432006F07C
:10596000F9FE29E09E4988420BDA7B4A0C2100921D
:1059700002910246022301942921432006F0EAFE07
:105980001AE0B0420BDA744A0C21009202910246EE
:10599000012301942921432006F0DCFE0CE00FF0E6
:1059A0008DFB82B20C206C4900910290042301947B
:1059B0002921432006F0F6FF0C200190664B64A2DB
:1059C000292102950094702007F072F88EE01F27BD
:1059D00000247A4DFF023B4682A216210420009546
:1059E000019406F0FBFD0C263B463F221621932036
:1059F00001960095029406F051FD574F7FA23B4659
:105A00002E2107200095019406F0E8FD5E4B7EA252
:105A10002E213B2001960095029407F049F83B4661
:105A20007AA22E21562001960095029406F0F2FDEE
:105A3000554B77A22E21632001960095029407F022
:105A400037F83B4673A22E217F200095019406F083
:105A5000C5FD3E213B4671A20720009501941AE73F
:105A6000002156481F230191DB020090162170A2ED
:105A70001C2039E01F260024504DF602334671A247
:105A800016211C200095019406F0A8FD334672A251
:105A900029210A200095019406F0A0FD7048807825
:105AA000092826D00C20019033466EA229210095AA
:105AB0000294242006F0AEFD33466BA22921322049
:105AC0000095019406F08AFD0C20019033462C22AB
:105AD0002921009502944A2006F0E0FC334664A296
