:020000040000FA
:1000000058140020C100000041EB0000758800007A
:10001000FFFFFFFFFFFFFFFFFFFFFFFFFFFFFFFFF0
:10002000FFFFFFFFFFFFFFFFFFFFFFFF851D010039
:10003000FFFFFFFFFFFFFFFF91F50000DD43010021
:1000400035010000350100003501000035010000D8
:100050003501000035010000C178000035010000C5
:10006000E12A0000FFFFFFFF35010000350100001D
:10007000418600003501000035010000FFFFFFFF51
:10008000FFFFFFFF350100003501000035010000D2
:100090003501000035010000350100003501000088
:1000A0003501000035010000350100003501000078
:1000B0003501000035010000F9EE000035010000B7
:1000C0002048804720488047204800472048016951
:1000D000002908D14169002905D18169002902D18F
:1000E000C169002909D01B48C1680901090D00290F
:1000F0000ED005290CD006290AD0BFF34F8F164821
:100100001649016016491548C860BFF34F8FFEE7D6
:10011000114801681148884200D0704711481249BF
:1001200001600D48114901607047FEE7FEE7FEE7F8
:10013000FEE7FEE7FEE700000D480E490E4A0F4BB2
:1001400070470000CD000000F14301008101000074
:100150000003084080010840000000200400FA0568
:1001600000ED00E0008108400100000000000000F8
:1001700018040020581400205804002058040020BF
:1001800000F002F800F04FF80CA030C8083824182E
:100190002D18A246671EAB4654465D46AC4201D1BF
:1001A00000F041F87E460F3E0FCCB64601263342A2
:1001B00000D0FB1AA246AB46334318471CF501009A
:1001C0003CF501000023002400250026103A01D34D
:1001D00078C1FBD8520700D330C100D50B607047FF
:1001E00010B5662902D116F02FF910BD642902D18D
:1001F00000F0B0F810BD782902D100F0E1F810BD90
:10020000732902D101F022FD10BD002010BD1FB5E1
:1002100001F0DEFD04000020002115F0FFFEE0608B
:100220001FBD10B510BD02F037FA1146FFF7EFFF02
:1002300015F02CF902F04FFA03B4FFF7F2FF03BCFC
:1002400002F0D2FA70B505460C46164602E00FCC15
:100250000FC5103E102EFAD2082E02D303CC03C5D0
:10026000083E042E07D301CC01C5361F03E02178D8
:100270002970641C6D1C761EF9D270BD0FB41CB5BC
:100280000C0007AA009001D00019401E084B7B44C7
:1002900069460190069801F0A6FC002C03D069463F
:1002A000002001F0B3FC1CBC08BC04B018470000DF
:1002B0008519000070B5044685690068C10601D53E
:1002C000302600E02026C00707D070BD62683046A7
:1002D000A1689047206A401C20626D1EF6D570BD53
:1002E00070B5044685690078C00707D170BD6268A3
:1002F000A16820209047206A401C20626D1EF6D520
:1003000070BD70B50C460546012A05D028788006D8
:1003100000D5EA69002302E0012305E05B1C93425B
:1003200002D2E05C0028F9D1A869E618C01AA861D9
:10033000286AC01828622846FFF7BCFF04E06A68F4
:100340002078A968641C9047B442F8D32846FFF788
:10035000C7FF70BDF7B5002575291068009914A670
:1003600011D0C046C046002802DA404211A608E07B
:10037000009909688A0701D50FA602E0490704D54C
:100380000EA6012501E0C046C046009F0024243788
:1003900004E001F05FFC30313955641C0028F8D1CD
:1003A0002B4632462146009801F0B3F9FEBD00000D
:1003B000000000002D0000002B00000020000000C5
:1003C00070B504460D4621461068C046C0462188D7
:1003D000090502D50F4A7A4402E00E4A7A440E32E9
:1003E00023460021243305E006070009360F965DF9
:1003F0005E54491C0028F7D120780023000705D55A
:10040000702D03D0002901D002231132204601F0C3
:1004100080F970BD46E60100F3B50446002081B0C6
:1004200020622046E168884700287DD0252802D038
:100430006268A16883E0454F00257F442046E1685B
:1004400088472028064608DB312E06D2B819203806
:100450000078002801D00543F0E7A80701D5042063
:1004600085430020E0610746A0612A2E0AD030466D
:1004700014F0B8FD002827D0B8000019303E0090D5
:10048000866119E00298BA00121902C891610290BF
:100490002046E1688847012F064617D1E069002809
:1004A0001FDA202085431CE000980A218069484318
:1004B00000998019303888612046E16888470646EF
:1004C00014F090FD0028EFD1012F0AD02E2E08D174
:1004D0002046E16888470646202005437F1C022FFE
:1004E000C3DBA069002803DA4042A0610120054374
:1004F000E80701D010208543002E24D03046413833
:10050000192803D80120C002054320362046256063
:100510003146029A1546FFF763FE00280CD00128E9
:1005200007D0ED1DE80800E00DE0C00008300290A3
:1005300077E72D1D029574E762683046A168904701
:10054000206A401C6CE7206AFEBD00000AE601003C
:1005500030B5441C03E00178401C00290DD0810710
:10056000F9D10B4BDD0104C8D11A91432940FAD0CF
:10057000001B0A0603D0C01E30BD001B30BD0A049C
:1005800001D0801E30BD0902FCD0401E30BD0000ED
:10059000010101010346F0B50B439B072DD1244D0A
:1005A000EF01042A29D308C810C95E1B9E43121FFD
:1005B0003E4017D0D8B2E1B2401A3106014310D103
:1005C00098B2A1B2401A310401430AD118022102A3
:1005D000000A090A401A3102014302D1180E210E05
:1005E000401AF0BDA342DCD018BA21BA884201D922
:1005F0000120F0BD0020C043F0BD002A01D1002041
:10060000F0BD03780C78401C491C002B0DD0A34290
:100610000BD1521E09D003780C78401C491C002BCA
:1006200003D0A34201D1521EEBD1181BF0BD000034
:1006300001010101F8B5042A2CD3830712D00B78ED
:10064000491C0370401C521E83070BD00B78491CB9
:100650000370401C521E830704D00B78491C0370A2
:10066000401C521E8B079B0F05D0C91ADF002023A8
:10067000DE1B08C90AE0FFF7E5FDF8BD1D4608C905
:10068000FD401C46B4402C4310C0121F042AF5D272
:10069000F308C91A521EF0D40B78491C0370401C91
:1006A000521EEAD40B78491C0370401C012AE4D482
:1006B00009780170F8BD01E004C0091F0429FBD2CC
:1006C0008B0701D50280801CC90700D002707047DB
:1006D00000290BD0C30702D00270401C491E02291A
:1006E00004D3830702D50280801C891EE3E7002221
:1006F000EEE70022DFE70000F8B507460B46394673
:100700001943890713D1164CE601042A0FD302CBF3
:100710000D1B8D43354202D102C0121FF5E7CBB24B
:100720000370401C521E002B13D0090AF7E7002A61
:1007300014D01978521E5B1C0170401C002908D08F
:10074000002A0BD01978521E5B1C0170401C002936
:10075000EDD1002A02D01146FFF7C9FF3846F8BD97
:1007600001010101002203098B4273D3030A8B426A
:1007700058D3030B8B423CD3030C8B4221D312E0A2
:1007800003460B437FD4002243088B4274D30309F2
:100790008B425FD3030A8B4244D3030B8B4228D393
:1007A000030C8B420DD3FF22090212BA030C8B42B9
:1007B00002D31212090265D0030B8B4219D300E059
:1007C000090AC30B8B4201D3CB03C01A5241830BDE
:1007D0008B4201D38B03C01A5241430B8B4201D38E
:1007E0004B03C01A5241030B8B4201D30B03C01AB7
:1007F0005241C30A8B4201D3CB02C01A5241830A31
:100800008B4201D38B02C01A5241430A8B4201D35F
:100810004B02C01A5241030A8B4201D30B02C01A89
:100820005241CDD2C3098B4201D3CB01C01A5241F0
:1008300083098B4201D38B01C01A524143098B4279
:1008400001D34B01C01A524103098B4201D30B0162
:10085000C01A5241C3088B4201D3CB00C01A524187
:1008600083088B4201D38B00C01A524143088B424C
:1008700001D34B00C01A5241411A00D201465241E5
:10088000104670475DE0CA0F00D04942031000D304
:100890004042534000229C4603098B422DD3030A59
:1008A0008B4212D3FC22890112BA030A8B420CD369
:1008B000890192118B4208D3890192118B4204D392
:1008C00089013AD0921100E08909C3098B4201D312
:1008D000CB01C01A524183098B4201D38B01C01A4C
:1008E000524143098B4201D34B01C01A52410309C3
:1008F0008B4201D30B01C01A5241C3088B4201D372
:10090000CB00C01A524183088B4201D38B00C01A1E
:100910005241D9D243088B4201D34B00C01A5241F5
:10092000411A00D20146634652415B10104601D382
:100930004042002B00D54942704763465B1000D30C
:10094000404201B50020C046C04602BD7047704716
:10095000704700000246C80FC00781434B0030B506
:100960004B405B009B0D20D01923DB06C9180123E7
:100970001B05994220DB0324A40704251346AB4042
:100980000BD3002B04D1EB0613409B00E34204D4AD
:1009900001246407002312195941FF231B059942C2
:1009A0000BD2C9000143500F09E0CB0204D501432B
:1009B0000803024305D0054830BDFF21C90508439F
:1009C00030BD084607210905884330BD0000C07FBF
:1009D000F0B50C46871A9C410D46861A9D4103D2FC
:1009E000C01BA141D21963410D0D1F0DC94EEC1B57
:1009F000AE435CD07F057F0D0026002F51D02D0522
:100A0000AC46A943DD020123ED0A1B051D4320234B
:100A10001B1B24D41746E740381871412F46E74086
:100A2000CC199D402818314661410C0D27D16144F5
:100A30009A4013D50023401C594152000ED1400862
:100A4000400001224B005205D34207D30520400746
:100A5000C14201D5B04900E0B0493046F0BD6B005D
:100A6000002A00D001229A181F23203C1B1B01D50D
:100A7000002302E0E540281871410C0DD7D0012475
:100A800024050919C407CD0740084908E40F284385
:100A90006144002CD5D00024401C61419A40D0D143
:100AA000CDE76A05520DD9D1C90FC907D5E79C4DCD
:100AB0004E00002801D0012400E0002434195F001A
:100AC000002A01D0012600E00026BE19954FAC4255
:100AD0000CD8AE420AD8B44206D001256D05EC42CE
:100AE000BCD010461946F0BD9942FCD000203946D2
:100AF000F0BDF0B51FB40C460F46811A9F41254644
:100B0000861A9D4106D20125ED076F40401ABC416F
:100B100052187B41210D1E0D8D1BAC467D4D8D4322
:100B20007ED075056D0D7CD00D05AE46AC431B0324
:100B30001B0B794D52429D41202366469B1B14D3CB
:100B40001746F740381800260090744160462F463B
:100B50000741E41900989D402818664116D4714653
:100B600071189A4025D5012320E093182A466A413E
:100B70005200002B00D0521C1E23203E9B1B002B3A
:100B800061DD3541EE1728186641E8D50018764139
:100B90005B1C9A4000D3401C4B05F3181524E3401E
:100BA00010D3002B52D071467118D30FC01802D346
:100BB000491C05B0F0BD0123DB079A42F9D140087A
:100BC0004000F6E701225205B21801D1002853D0A7
:100BD0000123CC0ADB029943891E002A08D1020CAA
:100BE00003D0020C0004103902E002460020203934
:100BF0000023550B05D112020823550B01D15201D8
:100C00000D23550C01D112011B1DD50C01D19200F1
:100C10009B1C150D01D152005B1C2025EE1A01E032
:100C20002CE022E00546F54015439840CA1AE1073A
:100C300069181305C918002ABBDA032040070818F1
:100C4000C10FC9070FE071466118B2E7F10740080C
:100C50000843711071444A000CD001235B059A428D
:100C6000A7D2C90FC9070020A3E74905490D26D11E
:100C7000002001E00028F4D100219AE7284D660009
:100C8000002801D0012100E0002171185F00002A36
:100C900001D0012600E00026BE19224FA94210D83B
:100CA000AE420ED8B14208D001256D05E94206D00A
:100CB0001946A802414010467BE79C4201D02146DC
:100CC00077E70020394674E710B50C465C4005D53F
:100CD0000124E4076340FFF70CFF10BDFFF778FE27
:100CE00010BD30B40C465C4004D50124E4076340D9
:100CF00030BC6DE630BCFCE670B50124E407614011
:100D00000D465D4002D4FFF763FE70BD6340FFF700
:100D1000F0FE70BDFF0700000000F0FF0000F07F54
:100D20000000E0FF0000F87FF0B5F94D0C091E0946
:100D30002C402E402F468BB0A7437DD0B543FCD02E
:100D4000002E7AD0002CFCD00D465D40ED0F2543DF
:100D5000AC1BFF25AD0464190894C502440DC902FB
:100D60002143500DDC0204430120C007014304432A
:100D7000D2020191200C110C00958C4601042346EF
:100D80008B430A9161460904E24D8A430991010AA5
:100D90007D4449198039097805464D4301266D186F
:100DA000F605751B6943C90C640B891C4C43641818
:100DB000B5012C1B250C2E04B4434C434D43210C90
:100DC000691889090591009DE90701D00121C9072A
:100DD00004912C4601996708CD072F434C08059DC7
:100DE000E10B4D432D0C29466646754302950D4691
:100DF00045432E46029D7D1BB44100950D465D4343
:100E000001942C0C2F040D465543AE462D0C3D434A
:100E1000029503947546049C2D04641B049406D229
:100E2000029C039D641C002675410395029401AC4D
:100E300070CC009F7D1B01E03EE162E1B4410904FA
:100E40000095079101940599A4086143090C0C468B
:100E50004443650BE7040C4666467443A646640BA0
:100E60003C43039502947446049DE4042C1B0494B3
:100E700006D2029C039D641C0026754103950294D2
:100E800001AC70CC009F7D1BB44101940C465C43C7
:100E90000095650FE7000C465443A646640F3C439B
:100EA000039502947446049DE4002C1B049406D21E
:100EB000029C039D641C002675410395029401ACBD
:100EC00070CC009F7D1BB441AE09AF06049DC900E4
:100ED000AD092F43049DA406AD060495079D344338
:100EE00069180791059DE10B4D432D0C2946664677
:100EF000754302950D4645432E46029D7D1BB44128
:100F000000950D465D4301942C0C2F040D4655436E
:100F1000AE462D0C3D43029503947546049C2D046A
:100F2000641B049406D2029C039D641C0026754138
:100F30000395029401AC70CC009F7D1BB4410194D9
:100F40008C050694079C890A611800950791019CFD
:100F50000599A4086143090C0D464543680BEF044D
:100F60000D46644665436C0B3C43049FED047D1BBA
:100F7000AC4602D20025641C6841009E019D371BCF
:100F800085410846584301950C46460FC500544319
:100F9000600F28436546E4002C1B02D20025401C4C
:100FA0006E41019D3F1AB5412846BD098006284380
:100FB0008446A009BF064E020699A4067618074388
:100FC000079D002068410A99079019430020099B5A
:100FD00000906046FF1913434041E20F64003A431A
:100FE000A4460446D71A8C41A04203D901200090A0
:100FF00020463A46C70F941840416246D20F22431A
:10100000644664000494009CBE466400D71AA4465B
:10101000044602978C417746002F01D1A04204D9A3
:101020006046401C8446029A2046C40FA646941887
:101030004041049A0546D20F224364466400D31A05
:101040008D417146002901D1A84202D928461A468D
:10105000641C10430122002800D0164361020020C6
:10106000079B891904465C410223002C02DB4918C6
:1010700013466441089DCE0A2D145D194B05670582
:10108000E10A2C050D1908993E43C9076940002B58
:1010900008D0934006D30022761C5141002B01D189
:1010A000760876001C4A002D43DB154241D0AA4346
:1010B0003FD030460BB0F0BD06180D464D41174CE1
:1010C0007642AC411AD395181C465C41134A6D42D6
:1010D000A24113D3012252054C00D4420AD15C0034
:1010E000D4420BD04B4002D592021143E2E74900B3
:1010F0004908DFE75940C90FC90718E0002008492F
:10110000D8E7054801420DD10342F7D0F2E70000CD
:101110000000FF07C5DC01000000F07F0000E0FFD9
:101120000000F87F114859400143C012414000209F
:10113000C0E70123089A9B069A4205DC0322520766
:101140008918C90FC907B5E7052252078918074A48
:101150001143D2125140ADE770B515461C46024608
:101160000B4628462146FFF7DFFD70BDFFFFFF7FDE
:101170000346CA02400D10B510430A1504D00124DD
:10118000E4072043002A05DB0A4CA21A04D4D0400D
:10119000FF2A00DD002010BD4A00002B01D00120F5
:1011A00000E00020101801225205D042F2D8C817E2
:1011B000C04310BD1E0400001F22030C02D10F22E9
:1011C000000402D0030E03D004E000200146704763
:1011D0000002083A030F01D10001121F830F01D151
:1011E0008000921E002801DB4000521E120551189B
:1011F0004205C012411810467047C10FC90700D000
:101200004042012292071143D6E701218907D3E723
:10121000F0B58B4C0F09254689B0BD437BD01D0925
:101220002646AE43FAD00E465E402740F60F3E43B8
:10123000254071D024012142FBD0FF24AD19A40424
:101240002D1B039501252D05DB02DB0AC9022B436B
:10125000C90A29431E010901040F130F0501214387
:101260001701880B820391432D098C46A90B1E435D
:101270008A039543B30B9A0396433F09BA0B940331
:10128000A74302962E467E430497B6464E19D719B9
:101290000C460196544305977E43371B7646BF1B89
:1012A0003601B646BE0B361900967646BC04371991
:1012B000009C01D3641C00946400002F01D001261F
:1012C0003443029E049F754366467E43049676002F
:1012D00034196E0034190094029C019E1C19664357
:1012E000751BAE46069465464519059C05956C43ED
:1012F000594375460891691A0191049E014651436C
:10130000A41B0491611A009C0791E10605D06109B4
:101310000122114302E072E06EE06109089D00279E
:101320002C0A2D066918049D7C412A0A2D0669188D
:10133000019D6241AC0DAD026D185441079A910DAB
:10134000920255196141029A644658435443069BE0
:10135000059A5A43121A131B9A0E9B015B187A4185
:10136000010B0005C3185141220A200644195A41B5
:101370009A4200D2491C01204002814203D3152326
:101380000226F64302E014230326F6432020C51A62
:10139000A9401746AF40DA400A4320460399D84097
:1013A0000914731819055118039A3843D20751408C
:1013B000AC4009D00122944006D30022401C514188
:1013C000002C01D1400840001E4A934212D3012252
:1013D00003989206904207DB0520400709181A4837
:1013E0000143C012414004E0032040070818C10F28
:1013F000C907002009B0F0BD0020F107FAE7051881
:101400000C464C4111486D42A04115D394181A4620
:101410005A410E48644290410ED301204A004005D3
:10142000824209D35A00824206D35940C90F084A62
:10143000C90700201143DDE700200649DAE7000074
:101440000000FF07FE070000FFFFFF7F0000E0FF36
:101450000000F07F0000F87F0121C9050123411839
:1014600042001B06D3185B0E0AD0C1100722D20619
:10147000891840075242D14201D55200891870475D
:10148000090208D50146002A03D0C10FC907002070
:10149000704710467047420202D000200249704750
:1014A000072109050143F4E70000F87FF0B5FF25A7
:1014B0002D04C609C209FF2704462E400137CB0977
:1014C0003E4348402A402B400746002A6BD0002B61
:1014D00069D0AA4267D0AB4265D0002800DA324614
:1014E0000125ED0529432C4309022002090AD21ADD
:1014F0004B0C7F24E31A434C000A7C44E35C7D24BC
:101500002404121914145B00A218884201D3521C3F
:1015100000E0400049420C465C4324115C43DB017F
:101520006415E318040A5C43C502200D0C464443CD
:101530006419250A5D432303EC0C0D466543000343
:101540000019EB184C42A34201D35B18401CD40590
:101550002018002B07D05B00C91804D3401C0029B9
:1015600001D1400840003F2189048A4209D3002A62
:1015700008DC1106090F04D0032149074018C00FE9
:10158000C007F0BD01224100120689187F225206D1
:101590009142F6D205214907C84201D59010F0BD0D
:1015A000FF20C005F0BD002F00DA32461648AA42DF
:1015B00007D2AB4205D21902090E17D0F80FC007A7
:1015C000F0BDFF2563002D06AB42F9D84900A942C2
:1015D000F6D8AB4201D1A942F2D0A94201D10021F3
:1015E00001E061004908D0050843F0BD1102090E71
:1015F000FBD0FF200243D005F0BD0A46014610464D
:1016000054E70000DBD501000000C07F10B50146A3
:101610009E240002CA15A307002A02D01843002AFC
:1016200004DBA21A002A0CDDD04010BD1206120EF7
:1016300001D140004008A21A03D4D0404042002803
:10164000F3DDFF2248001206904201D9002010BDB0
:10165000C817C043584010BD1F22030C02D10F22EF
:1016600000041CD0030E01D10002083A030F01D17F
:101670000001121F830F01D18000921E002801DBA0
:101680004000521ED20551180212511819229040E2
:1016900004D3491C002801D1490849000846704775
:1016A000C10FC90700D04042012292071143D3E77E
:1016B00001218907D0E7000010B5FF22C30D1340B8
:1016C00009D05A4007D0914205DA5C42A14202DDBE
:1016D000C905081810BDC40FE407002B06D0002A66
:1016E00006D0002902DBFF20C0050443204610BDC0
:1016F0004102FCD0004810BD0000C07F10B500F0D2
:101700006BFB006810BD10B5044600F065FB04607B
:1017100010BDFFB504460D4681B02430009021680D
:10172000880604D51022E0699143216000E0012081
:10173000A84201DD471B00E000270498A1697A193F
:101740001018081AA0612078C00602D42046FEF7BF
:10175000B1FD002608E003986268A168805D9047AB
:10176000206A401C761C206204988642F3DB2078B5
:10177000C0060AD52046FEF79DFD06E06268A16816
:1017800030209047206A401C206238467F1E002887
:10179000F4DC07E000986268A168405D9047206A29
:1017A000401C206228466D1E0028F3DC2046FEF710
:1017B00097FD2078000602D5022005B0F0BD01207B
:1017C000FBE700007047FFB50C461E468FB003CA0A
:1017D000089009914F007D0D00D16D1E0021084633
:1017E0000020C0460321099A89050840002A03DA2F
:1017F0008200801840080840800D01280A9002DD10
:101800000020C0430A90089807430DD0F048F149E2
:10181000281848430714189800281DD07542291E1F
:101820001DDD0A9842421BE01898012802D00020D2
:10183000302104E00020F24305E02154401CB04276
:10184000FBDB30460022189B002121540F998B604E
:101850000A60486013B0F0BDBD1B6D1CDFE70A9A3B
:10186000002900DA69420BA800F03CFB0BAB07CB68
:1018700003AB07C30899099800F0A0FB6B4607C3A8
:101880000146D5480918002D00910BDDD249039877
:101890000A9A49424018002303A90390684600F0C1
:1018A000FDFD08E003990A9A0023081803A9039094
:1018B000684600F09DFD6B4607C30004000C03D092
:1018C0000020C043410800E01046189A002A03D0C7
:1018D0000022009215461EE0751E05D400F080FA25
:1018E000303262556D1EF9D501220843079602D0A9
:1018F00000227F1C04E02078302801D100227F1EC6
:10190000002A069787D01EE0112D07DA00F068FA4A
:10191000303262556D1C02460A43F5D1084303D0AC
:101920000098002819D00EE00021681E05E0235C15
:10193000625C63542254401E491C8142F7DBA81BA1
:10194000401E07950690079A18990020A0540F98FA
:10195000079B069A81600CC07CE711260020189036
:1019600059E7D21DF0B50D460446D10893B0C90021
:1019700003C90C900D9113F099FA02460D98C00F0F
:1019800001D02D2007E02068810701D52B2002E03F
:101990004007C00F4001032A0F9001D0072A05DB42
:1019A00003462946204600F059FA0EE120788006C9
:1019B00001D5E76900E006272846652D04D0662892
:1019C00014D0672D69D12DE00020112F009001DB8C
:1019D000112300E07B1C0CAA03A910A8FFF7F3FE5B
:1019E0001199002610987D1C0E9142E001203B4683
:1019F0000CAAC0070B900120009003A910A8FFF7C4
:101A0000E2FE119D12981099002600280E9501D132
:101A1000781C0D18781B02D446427D1C761EE81BEC
:101A200000903AE0012F00DA01270020112F0090EA
:101A300001DD112300E03B460CAA03A910A8FFF723
:101A4000C2FE11993D46109800260E912178090793
:101A50000BD40E99A94200DA0D4603A9012D04DD2D
:101A60004A19203AD27F302A06D0B84201DA011D45
:101A700004DA012100910FE06D1EEFE7002802DC7F
:101A800086192D1A03E0411CA94200DD0D46801B7A
:101A9000401C00900120C0070B902078000705D45F
:101AA0000098A84202DB0020C04300906946002055
:101AB000C8720B98012102AF0337C907884225D0AD
:101AC000022010902B2011900B9800280BDA404236
:101AD0000B902D20119006E00B9800F0BBF83031F0
:101AE0007F1E0B9039701099481E00291090F3DC6E
:101AF0000B980028F0D111987F1E387020880005BF
:101B000001D5452000E065207F1E387001A8C01B6C
:101B1000C01D0B900F98002800D00120411900989B
:101B2000C01709180B980818A169081A401EA0616F
:101B30002078C00602D42046FEF7BCFB0F98002890
:101B400005D06268A1689047206A401C2062207816
:101B5000C00625D52046FEF7ADFB21E0002E07DBB1
:101B60000E98B04204DD03A86268805DA16802E0BF
:101B70006268A16830209047206A761C401C206271
:101B80000098401E002800900AD100F021F9C0689A
:101B900062680168405CA1689047206A401C20622E
:101BA00028466D1E0028D9DC07E062683878A168F5
:101BB0007F1C9047206A401C20620B99481E002918
:101BC0000B90F2DC2046FEF78BFB032042E6000080
:101BD00001FCFFFF104D0000E1DFFFFF01694A1C1F
:101BE00002610878704700B58FB00291002105911D
:101BF0000549019379440391114604906846FEF724
:101C00000BFC0FB000BD0000E5FFFFFF0A6810707D
:101C1000521C0A6070470CC908399A4202D2531C00
:101C20000B601070704710B54369002B02D0C0469E
:101C3000C04601E0FEF765FB012010BD12780146A9
:101C400024310A7000224A700122ECE71168002258
:101C5000D243E8E701468008081A02091018020A70
:101C60001018020C1018C008820012185200891AAD
:101C700001E0401C0A390A29FBD27047F8B5224C12
:101C80004E00069DA6420AD8A64201D1002806D1E0
:101C90005E00A64203D8A6420AD1002A08D00D242D
:101CA000240425422CD02946002000F047FCF8BD32
:101CB0000C461C430CD4994202D0EFF30080F8BDCF
:101CC000904202D0EFF30080F8BDEFF30080F8BD42
:101CD00009242407E5008B4206D0EFF30080A043DF
:101CE000591A06D2284304E0101A05D3EFF30080F6
:101CF000A04380F30088F8BDEFF30080A043F1E734
:101D0000009500F033FCF8BD0000E0FF70B505461B
:101D10004800440D124B0020002C0AD0634008D02C
:101D20009A4206DA6642B24203DD12054019514179
:101D300070BD002C08D0002B09D0C90FC907002A9C
:101D4000F6DB084A114370BDC90FC90770BD2846AC
:101D50000A03104302D00020034970BD284670BD1D
:101D6000FF0700000000F07F0000F87F10B5FF23A0
:101D70001B0644009C421DD84C009C421AD80346C6
:101D8000124A0B4307D4401A02D3EFF3008010BD70
:101D9000EFF3008010BD081A06D2EFF30080012196
:101DA0009043C907084302E0EFF30080904380F3BB
:101DB000008810BD0D231B041A4204D011460020D8
:101DC00000F0BCFB10BD00F05BFC10BD00000090FB
:101DD00000487047D803002000487047B80300202F
:101DE0000B4670B5024689078008084319469D08CE
:101DF000141AA94125090807054308092C19484167
:101E0000250A01060D43010A2C194141200C0D043D
:101E100028430D0C00194D41002140194D41C008C7
:101E200069070843E908840F8D00254384002418BE
:101E30004D4124196D41121BAB4107E00925ED43CB
:101E40002C11521963410024401C61411C460A2593
:101E50000026551BB441F1D270BD0000F8B51F46F5
:101E6000044601230068DB02032601461840072AC6
:101E700005DB002801D017A506E017A504E000281F
:101E800001D016A500E016A5102081432160A069AD
:101E9000C01E002FA06101D0401EA0612046FEF7A9
:101EA00009FA002F09D038466268A1689047206A75
:101EB000401C2062C01C206206E0206AFAE76268CB
:101EC0002878A1686D1C9047761EF8D22046FEF750
:101ED00007FAF8BD4E414E006E616E00494E460055
:101EE000696E6600F7B516468AB0334878446C468A
:101EF00003467C33C06F5A689B680DC42E487844F3
:101F0000763003AC0DC80DC43720C0010818372146
:101F10001B30FEF735FC05460C46803D1B3C02D5C8
:101F20006442012000E000200027099010E0E00753
:101F30000CD00C2020497843794432464C39411862
:101F40006846012300F054FA6B4607C364107F1CF7
:101F5000002CECD1184F7F442E3F16E0E80712D03A
:101F60002001C0190EC80691089307920068F0423C
:101F700001D1981908903246012306A903A800F060
:101F800037FA03AB07C36D10641C002DE6D1099826
:101F9000002806D032466946012303A800F07EFAE5
:101FA00005E001233246694603A800F021FA0A9BA6
:101FB00007C30DB0F0BD0000F8CC0100034640009F
:101FC0000A4610B5400D0BD00121C9070F24A40209
:101FD00000191C0364082143540D2143D20207E079
:101FE00000210120F2E7D40F490021435200401E96
:101FF0000029F8DADB0FDB07184310BDFFB50D46EB
:10200000144685B04868516812F02EFF0091019087
:10201000A868A16812F028FF02910390A86861687F
:1020200012F022FF029A12188242029201D201207B
:1020300000E00020019A0B18D2180028019202D06B
:102040008A4202D903E08A4201D2012000E0002046
:102050000099081800906868A16812F005FF029ABC
:1020600012188242029201D2012000E00020019A5F
:102070000B18D2180028019202D08A4202D903E03C
:102080008A4201D2012000E0002000990818009047
:102090002868216840004900400849084018FA496A
:1020A000471814E001994000C90F084300900198B7
:1020B00002994000C90F084301900298039940001B
:1020C000C90F08430290039840007F1E03900098B8
:1020D0000028E7DA0898002801D0EC4E00E000263E
:1020E000B74201DA012000E00020002804902AD045
:1020F000F71BF806C00E15D0029B2021091A039A7F
:102100008B401A430392029A019BC2408B401A43B0
:102110000292019A009BC2408B4000991A4301929F
:10212000C14000917B110DD06F460320C11A03D529
:1021300000218200B95003E08A008100BA587A5029
:10214000401EF3D5374603980299002800D001209D
:10215000014308980291002808460CD0002800D0BE
:1021600001200199019A490508430121D20AC902B7
:10217000D202019200E001210E9B0122D207012B25
:1021800002D0002B03D013E0002807D120E09042BA
:1021900004D890420CD1019B0B4209D0019B5918E5
:1021A000019105D10099491C009101D17F1C009239
:1021B00000280DD0102108460020C04604980028B1
:1021C00006D00F98002803D0082108460020C046FA
:1021D00028682168019B009A4840C10F0598C907EB
:1021E00039430EC009B0F0BDFFB587B0099A089811
:1021F000089953689268406889689646002203935C
:1022000017469446089A12685300099A5B081268A8
:10221000520052089A1A9E4BD4180A9A002A01D0EA
:10222000352200E040220692002201231546049246
:10223000DB07059324E0002D05D175460346039E78
:102240004D1BB34109D375466646039B491B049D4C
:102250009841059B7519AC465F4163463B4308D0E6
:10226000059B049EDD0776082E435B0804960593C4
:1022700001E0521E641EC50FED0749184041521C73
:10228000069B9A42D7DB002D04D17546039A6B1A40
:10229000824101D203200CE0039A0B466B4042407E
:1022A000134303D0014303D0012002E0022000E0E9
:1022B0000020614601910021009702910A990029AE
:1022C00005D0614640020143704B019102E0800756
:1022D000002302909C4201DA012000E00020070068
:1022E0003AD01A1BD006C00E15D0029D2021019CA9
:1022F000091AC5408C402543029C8C4000D0012423
:102300002543019C0295009DC4408D4000992C43BB
:102310000194C140009154111DD06D46022100224C
:1023200002290CD10320001B07E0002804DB8600F3
:10233000AE59002E00D00122401C0328F5DB081BFB
:1023400002D588002A5004E08000285810438A00F3
:10235000A850491EE3D51C460A98002802980CD0C4
:10236000002800D001200199019A49050843012164
:10237000D20AC902D202019200E00121109B01227F
:10238000D207012B02D0002B03D013E0002807D185
:102390001FE0904204D890420CD1019B0B4209D01F
:1023A000019B5918019105D10099491C009101D157
:1023B000641C009200280CD0102108460020C04662
:1023C000002F06D01198002803D0082108460020CD
:1023D000C04608980999019A009B0068096848401E
:1023E000C10F0798C907214382600AC00BB0F0BD36
:1023F00000B585B0019300920A460146002302A869
:10240000FFF7FCFD02A807C805B000BDFFB50A46EE
:102410001F4685B00799019301230091014602A848
:10242000FFF7ECFD02990398049ECA0F4900D207FA
:1024300000920F22490892028C1A0021002800DB2A
:102440000C46450013486D08844214D3079A002AAD
:1024500004DA441E0026104DF64302E004460D4601
:102460000E46102108460020C046002F03D004214C
:1024700008460020C0462005E90A084300990843A1
:102480006905F20A1143ADE602C0FFFF013C0000FE
:10249000FF3F0000FF070000FFFFFF7F00B585B092
:1024A000019300920A460146002302A8FFF79CFE12
:1024B00002A807C8A8E7FFB50A461F4685B00799D6
:1024C000019301230091014602A8FFF78DFE0299B6
:1024D0000398049ECA0F4900D20700920F224908B0
:1024E00092028C1A0021002800DB0C46450011489E
:1024F0006D08844214D3079A002A04DA441E002689
:102500000D4DF64302E004460D460E4610210846E6
:102510000020C046002F03D0042108460020C046FA
:102520002005E90A0843009908436905F20A1143A6
:1025300058E60000FF070000FFFFFF7FC80212D52A
:102540004803400F002804D0C803C043012188403D
:102550007047EFF3008000010009032109070843D9
:1025600080F30088704700207047000010B50020FD
:102570000249029A00F008F910BD00000000F87F3F
:10258000F0B53D4B02460C461C400020002C63D0A9
:102590003A4D8B4366D000296BDB0B0D1D05A9431B
:1025A00001252D0529430124FD33E34001D3921871
:1025B0004941FF3381339C468B02940D0121234313
:1025C00089074C42920200271B198C105D1A04D413
:1025D0002D1B02D42B466500491992185B416408F3
:1025E000F4D15C1A08D40125ED07EE175519744192
:1025F00002D42A462346491C94185B4101229207C3
:102600001D46E61B8D4106D4B61A854103D42B46E0
:10261000550034467F1924195B415208802AEFD1B6
:10262000234300D0022338460A22D04001D301229E
:1026300013438A0510436246890A12058918002B44
:1026400009D00122D34002D30022401C5141002B6B
:1026500001D140084000F0BD0B03134307D0C90F60
:10266000C907F0BD0803104303D1002901DB104660
:10267000F0BD00202946F0BD0000F07F0000F87F8B
:1026800010B5024800F080F810BD00000000C07FC7
:1026900000487047B80300207546FFF7F9FFAE46C3
:1026A000050069465346C008C000854618B020B5ED
:1026B000FDF742FD60BC00274908B6460026C0C5AC
:1026C000C0C5C0C5C0C5C0C5C0C5C0C5C0C5403DEA
:1026D00049008D46704710B50446C046C0462046A6
:1026E000FDF7AAFD10BD000082078B079A4237D183
:1026F00070B5920F0AD0032402780B78401C491C55
:10270000002A2BD09A4229D12042F5D11D4EF40146
:1027100004C808C9951B9543254010D19A4207D19A
:1027200004C808C9951B9543254008D19A42EFD0AB
:1027300012BA1BBA01209A4200D2404270BD12BAAE
:102740001BBA2DBA18241000E0401900E140401ACD
:1027500005D12E00E64002D1083CF4D1D01A70BD5C
:1027600002780B78401C491C002A09D09A4207D1F4
:1027700002780B78401C491C002A01D09A42EFD005
:10278000D01A70470101010110B50C461107090F5D
:10279000092904D00A290AD008290CD104E01146DD
:1027A0000820FFF7CBFE06E0510606D501E05106F2
:1027B00001D50120C007214610BDD10607D5010172
:1027C0000909CC084907000E0006044309E0410F3F
:1027D00020024907000A0143200E00061D22D141B4
:1027E00001430846E7E7000001491820ABBEFEE7B9
:1027F00026000200704770B58C180578401C6B07E6
:102800005B0F01D10378401C2A1106D10278401CCD
:1028100003E00678401C0E70491C5B1EF9D12B07A3
:1028200005D40023521E0DD40B70491CFAE703781F
:10283000401CCB1A921C03E01D780D70491C5B1CD8
:10284000521EF9D5A142D8D3002070BD8030C1609E
:10285000704780220029016801D0114300E09143B4
:102860000160704710B504210348FFF7EFFF0349EB
:102870000120087010BD0000000001400C00002085
:1028800080308068084000D001207047F0B50025F6
:1028900087B002952E46039500247B4F03223C709F
:1028A00023461146794800F03FF9022200231146E1
:1028B000764800F02AF9012200231146734800F0FF
:1028C00024F900231A461946704800F01EF9012128
:1028D0006E4800F03FF9387800280ED17D273F017F
:1028E0000220641C12F0EAFBBC4202DB002007B0AD
:1028F000F0BD654800780028F2D06448016B426B57
:102900000905090D6D1802991205120D8918029119
:102910000399806B761C0005000D08180390052EA6
:10292000BADB28463146FDF71DFF0190314602987B
:10293000FDF718FF044631460398FDF713FF0746DD
:102940002046FEF7B5FE524913F086FC514C20613B
:10295000FEF782FD05460E463846FEF7A9FEFEF755
:102960007BFD00224C4BFEF753FC2A463346FEF714
:10297000B8F9FDF7EFFF4949FEF798FD484913F014
:102980006BFC414D0646E0606878002809D0E86895
:10299000FEF786FE314613F05FFC4249FEF786FDE6
:1029A000E0600198FEF784FE394913F055FC0746B4
:1029B0000121C9023C4805F03BFE01283FD03846C2
:1029C000FEF74AFD0022394BFEF796F905460E4602
:1029D0003749384613F040FCFEF73EFD2A463346A1
:1029E000FEF7A2F9FDF7B6FF3249FEF75FFDFEF7ED
:1029F00033FD12F0A1FB00222F4BFEF795F92F4A71
:102A00002F4BFEF761F902460B4600202D49FEF7D9
:102A10008BF9FDF79FFFFEF71FFD2B4A2B4BFEF7AF
:102A200060F9FDF797FF2A4913F0A6FB2949884270
:102A300002D8294988421BDD002020701AE027496E
:102A40003846FEF733FD0646A0606878002809D0B6
:102A5000A868FEF725FE314613F0FEFB1149FEF78C
:102A600025FDA0600121C9020F4805F09DFD07E08A
:102A70000121217001216060C9020B4805F0DDFDD4
:102A8000012007B0F0BD00000C0000200000014054
:102A90000000203A780100200000443F0000484236
:102AA00000007AC400007A4400200B40000004407B
:102AB000000020410000704100F4AA4083DBB5DC37
:102AC000E1796B3F0000F03F666666666612714012
:102AD000000040C0000020C20000FA428C2EBA3D27
:102AE00010B504210348FFF7CBFE012801D1FFF701
:102AF000B9FE10BD000001408030002A026801D0FC
:102B00000A4300E08A4302607047930830B49B0098
:102B10001B1858689207D40E1F22A2409043A14070
:102B20000843586030BC70475B1E12021B04FF3A1A
:102B3000013A13430B430168802211400B430360A9
:102B40007047CA06D20E02674909490141677047BA
:102B5000016270470029416F02D00122114301E058
:102B6000490849004167704710B40022072801D97D
:102B7000012208389300064A9B181A6880000F2427
:102B80008440A24381401143196010BC704700008B
:102B900000200240F0B5374BC000C61893B048087B
:102BA0000E9010010C908808069010020B90C80837
:102BB0000590100309900809049010040890480932
:102BC0000A90100507908809864610060390C809E8
:102BD00000258446100702900020FF24AC400346E5
:102BE0000C4240D00124AC40214201D00F201346BA
:102BF0000E9F274203D0F02738430C9F3B43069F8C
:102C0000274204D00F273F0238430B9F3B43059FC9
:102C1000274204D00F273F033843099F3B43049FBB
:102C2000274204D00F273F043843089F3B430A9FA5
:102C3000274204D00F273F053843079F3B43774681
:102C4000274204D00F273F063843039F3B43674684
:102C5000274204D00F2424072043029C23433468D6
:102C600084431C4334600835361D092DB4DB13B092
:102C7000F0BD00002020024018488078002801D1D3
:102C80000120704770B5012180200CF0E7F8002882
:102C900023D00A2012F0ECF9002120200CF0DEF8FD
:102CA00004460A2012F0E4F9012140200CF0D6F885
:102CB000044012F007F8642012F0DAF900214020F5
:102CC0000CF0CCF820400546002180200CF0C6F81E
:102CD00004462C4011F0F6FF204670BD9C000020F9
:102CE00018488078002801D10120704770B5012173
:102CF00080200CF0B3F8002823D00A2012F0B8F995
:102D0000002140200CF0AAF804460A2012F0B0F985
:102D1000012120200CF0A2F8044011F0D3FF642020
:102D200012F0A6F9002120200CF098F8204005466A
:102D3000002180200CF092F804462C4011F0C2FFD4
:102D4000204670BD9C000020F8B500207E4C034654
:102D50006070A0707DA27EA1632010F061FD012152
:102D600002200BF0DFFF06460A2012F081F96946C7
:102D700002200BF09FFF054668463540007801268B
:102D800070406070002102200BF0CCFF2840074605
:102D900060780021002806D002200CF05FF838404F
:102DA000050002D009E00120F9E703236CA26DA120
:102DB000632010F035FD0FF0A9F86E4F6178387878
:102DC000884311D004236CA26CA1632010F028FD6D
:102DD000C82012F04DF9042367A26CA1632010F003
:102DE0001FFDC82012F044F900236CA26CA16320DF
:102DF00010F016FD012104200BF094FF0540012185
:102E000008200BF08FFF05400A2012F031F96946C7
:102E100004200BF04FFF054068460078694670407B
:102E2000A07008200BF046FF054068460078002897
:102E300001D00020A070002104200BF073FF05409A
:102E4000002108200BF06EFF0540267000210820AD
:102E50000CF004F80540002104200BF0FFFF28428D
:102E600007D1002352A253A1632010F0D9FC0FF028
:102E70004DF83878A178884311D0042351A23FA19E
:102E8000632010F0CDFCC82012F0F2F804234DA20C
:102E90004DA1632010F0C4FCC82012F0E9F8A0781E
:102EA00000282BD04C484D498068884226DB4C488E
:102EB000807A002823D0012180200BF0CFFF00284A
:102EC0001CD00A2012F0D4F8002140200BF0C6FFDD
:102ED0000A2012F0CDF8012120200BF0BFFF11F0E5
:102EE000F1FE642012F0C4F8002120200BF0B6FFA0
:102EF000002180200BF0B2FF11F0E4FEF8BD0121AB
:102F000080200BF0ABFF0028F8D00A2012F0B0F8B8
:102F1000002120200BF0A2FF0A2012F0A9F80121C5
:102F200040200BF09BFF11F0CDFE642012F0A0F8C2
:102F3000002140200BF092FF002180200BF08EFF3B
:102F400011F0C0FEF8BD00009C00002034350000E8
:102F5000B3F5CABCBBAF4154434DC4A3BFE90000A5
:102F6000464300004154434DC4A3BFE9D2ECB3A390
:102F7000000000002D00002034360000BCECB2E25E
:102F8000B5BDBEC9B0E6D3B2BCFE00004154434D4E
:102F9000C4A3BFE9D2D1BDFBD3C3000034370000C6
:102FA000B3F5CABCBBAF41504D4DC4A3BFE900004F
:102FB0004644000041504D4DC4A3BFE9D2ECB3A339
:102FC000000000003438000041504D4DC4A3BFE95B
:102FD000D2D1BDFBD3C30000780100200000F04037
:102FE000A0030020F0B5554C83B0A07800283ED057
:102FF000002568460095057106F076FB01A806F0ED
:103000005BF8217801274E4E4E48002969D00129EE
:103010002FD002292BD10420205E002808DD401E7D
:1030200000B2A080002803D1012108200BF016FF78
:1030300081200099C005814210DB6846007907288D
:103040000CD000280AD04048814210DC0021082022
:103050000BF004FF052012F00BF866E000210820B9
:103060000BF0FCFE012104200BF0F8FE257003B0EC
:10307000F0BD80683549884203DB3549897A0029EB
:1030800003D05020A08003B0F0BD0421615E002970
:1030900004DD491E09B2A1800029F4DCFEF7DCF949
:1030A00032462C4BFDF710FE06460F460098FEF701
:1030B000D3F932463B4612F0F9FFCFD36846007988
:1030C0000728CBD00028C9D0234800998142DADDF7
:1030D0000420A08001210BF0C1FE0220207003B06B
:1030E000F0BD694609790729F9D00029F7D0009980
:1030F000194A0291914207DD012108200BF0AEFE32
:103100000220207003B0F0BD8068FEF7A5F93246BA
:10311000104BFDF7D9FD05460E460298FEF79CF9C7
:103120002A46334612F0F4FFECD2002104200BF0C3
:1031300095FE1020A080277003B0F0BD9C000020F9
:103140009A99999978010020666656410000F040EE
:10315000A00300209999B93F66665E4106498978C7
:10316000002901D101207047012110B541401020F4
:103170000BF074FE10BD00009C000020054A527840
:10318000002A01D10120704710B5014602200BF042
:1031900065FE10BD9C00002010B5124C6078002820
:1031A00012D0002102200BF059FEA078002810D088
:1031B000002108200BF052FE142011F059FF0021CD
:1031C00004200BF04BFE10BD012102200BF0AAFDE4
:1031D000EBE7012104200BF0A5FD012108200BF0F5
:1031E000A1FD10BD9C00002070B584B0184E0025D4
:1031F000164C334617A221210A200195009409F0AC
:1032000011FB0C200190174B17A22121029500946D
:103210005B2009F071FD334616A23121382001955B
:10322000009409F0FFFA731015A240210A200195BD
:10323000009409F097FC154B15A240215E200195E2
:10324000009409F08FFC04B070BD000010840000F1
:10325000FFFF0000B9D8D7A2DFD9C1A8DFD9C1A824
:1032600000000000E0FF0000404D5038363935378F
:1032700000000000D0BBD0BBDFF7A3A1000000001E
:1032800053657020313920323032350020FD000086
:1032900030393A35373A34360000000070B5104CFA
:1032A0000026A079052809D10E4D012168784840F3
:1032B000687002D001200EF089FE2E70A0790428DB
:1032C00009D100200EF082FE07480078002804D0C3
:1032D000064810F051FFA67170BD0548F9E70000DF
:1032E000240000200C0100204800002028D101000B
:1032F0009CD60100F0B5494F0C2638780024484D83
:1033000083B000281BD0787800280BD003F018FC7D
:10331000034644A2312138200095019409F082FA35
:1033200003B0F0BD03F00CFC034641A22821372076
:1033300001960095029409F0DFFC03B0F0BD0DF09A
:1033400013FA79783D4B00290095019429D03C4A25
:1033500021210A2009F066FA3A4B3B4A21215B20E1
:1033600001960095029409F0C7FC344B374A31218D
:1033700038200095019409F055FA354B354A402123
:103380000A200095019409F0EDFB334B334A4021AC
:103390005E200095019409F0E5FB0120387003B030
:1033A000F0BD2FA21521042009F0DCFB234B32A233
:1033B000282104200095019409F034FA1F4B1CA227
:1033C0002821372001960095029409F095FC1B4BAB
:1033D0002CA2282185200095019409F023FA174B8F
:1033E0002AA23D2107200095019409F01BFA134BF6
:1033F0003A223D21392001960095029409F072F994
:10340000134B25A23D21402001960095029409F01E
:1034100073FC0120387003B0F0BD00000C010020E7
:1034200010840000D0BBD0BBDFF7A3A100000000D8
:1034300052656473746F6E6572333500FFFF000070
:1034400054320000E0FF00006832000074320000D7
:10345000FF7F00008032000020FD0000903200005D
:10346000444645782D47543936D6C7BBDBB5E7B35C
:10347000D8D7D3CFB5CDB300C8EDD3B2BCFED3C936
:1034800000000000C9E8BCC600000000B9CCBCFECA
:10349000B0E6B1BE0000000056312E3520427569FD
:1034A0006C64370010B5024810F066FE10BD0000D5
:1034B00004DA01000B480821415E002901DD491EA4
:1034C00001810621415E002901DD491EC18001897B
:1034D000002905D10C21415E002901DD491E8181B1
:1034E0007047000012010020034800210181418142
:1034F000017181707047000012010020F0B5FE4894
:1035000083B080780A283ED20100794409794918AD
:103510008F44043B13E983FDFCFBFAFA0DF024F918
:103520000021F64801910090F54BF6A216210E20DD
:1035300009F078F904F072FA22E00DF015F9EF487D
:1035400000250090EE4BEFA2162101950E2009F008
:1035500069F9E94C2020E0800020FFF7FFFD0646D6
:103560000A2011F085FDFFF7BBFB06400120FFF7A5
:1035700005FE304202D12571042000E00120A07038
:10358000E6490120087003B0F0BDE5490120E34E93
:10359000087030780028F6D00DF0E6F80025D74FF7
:1035A000D74BD8A216210E200097019509F03AF9C1
:1035B000D14C0620205E00281AD002280BDAE580C4
:1035C0000020FFF7DBFD052011F052FDFFF754FB53
:1035D0000120FFF7C3FDD348357000780028D2D012
:1035E000072818D0022020710420A07003B0F0BD7D
:1035F000CD480078002805D004202071A0703570D7
:1036000003B0F0BDC94BCAA2252111200097019536
:1036100009F0A8FADFE70320E7E7C1480127B64E23
:10362000077030780028EBD10DF09EF80024B34DE0
:103630001F23DB02C3A216210E200095019409F07E
:10364000F1F83079052831D2010079440979491817
:103650008F4414021D240B00B44BC0A2252120204E
:103660000095019409F0DEF820E0B04BBFA22521BF
:1036700020200095019409F0D5F817E0AB4BC0A2CB
:10368000252120200095019409F0CCF80EE0252199
:10369000A64BBFA211200095019405E0A34BC1A247
:1036A000252120200095019409F0BCF8944BC1A27B
:1036B0003D2120200095019409F0B4F80C200190E0
:1036C0009A4BBEA23D21009502943B2009F014FBC9
:1036D0008B4BBBA23D2156200095019409F0A2F826
:1036E000377003B0F0BD0124042007F037FC002838
:1036F00000D100240021084605F088FC00281AD0DB
:10370000002C18D0052003E0E4E036E026E019E0C4
:1037100079498870844800780028E2D00020FFF7BB
:103720002DFD052011F0A4FCFFF7A6FA0120FFF7FC
:1037300015FD03B0F0BD70480021017104218170B6
:1037400003B0F0BD76490120087076480078002863
:10375000F6D169490620887003B0F0BD012007F05A
:10376000FDFB04460121002005F050FC2042E2D080
:1037700061490720887003B0F0BD694901205E4DA2
:103780000870E878002832D08F4CA07A002810D139
:10379000E888002801D11020E8800620285E102843
:1037A00002D00A2802D004E0002000E00120FFF748
:1037B000E5FC86488649006840004008884202DBF4
:1037C000A07A002802D12889002802D05020A881A0
:1037D0000DE0A88900280AD1E870FFF7CFFC05208A
:1037E00011F046FCFFF748FA0120FFF7B7FC7948D3
:1037F0004178002906D10078022803D028890028C2
:1038000018D021E00820285E082802DD0020288149
:1038100001E0002818D10A20285E032807DA05F005
:10382000BBFB6889401C6881082028810CE00820C7
:10383000A87009E00A20285E002805D010212981FF
:10384000002801DD401E688102F0A2FF002802D09E
:103850000920A87002E0A878072830D00021084687
:1038600005F0D4FB042007F079FB0024642011F05C
:10387000FFFB641C052CF9DB57480078002804D0B6
:103880000021012005F0C2FB0EE05448007800281A
:1038900005D053480178012005F0B8FB04E05148F9
:1038A0000178012005F0B2FB02F074FC002800D082
:1038B000032007F053FB05F06FFB002068701748EA
:1038C0000078002800D156E70CF04EFF00F0FAF81F
:1038D00003B0F0BD12490120104F0870387800285D
:1038E000F6D00CF041FF044DA87809287CD00021C7
:1038F0001F230248DB0278E0120100201084000040
:10390000FFFF0000CACAC5E4C6F7C4A3C4E2BFAA49
:10391000C6F4D6D0A1ADA1AD00000000A8000020E3
:10392000A6000020AE0000209D000020E0FF000067
:10393000C7EBBDABB8BAD4D8C1ACBDD3B5BD555338
:1039400042000000CACAC5E4C6F7C4A3C4E2BFAAC5
:10395000C6F4CAA7B0DCA3A100000000B5E7B3D845
:10396000B5E7D1B9B9FDB5CD00000000B7C5B5E7E1
:10397000CAE4B3F6BFAAC6F4CAA7B0DC00000000D0
:10398000D0BEC6ACCDA8D0C5B4EDCEF300000000CB
:10399000CFB5CDB3B4A6D3DAB7C7D5FDB3A3C4A30F
:1039A000CABD0000CFB5CDB3B3F6CFD6B9CAD5CF17
:1039B00000000000B0B4CFC2000000004553430037
:1039C000D2D4CDCBB3F60000A8010020B80000206F
:1039D000CDCCCC3DB1000020390100206401002095
:1039E000590000206501002036E00191009020A2DE
:1039F00016210A2008F016FF0024234E234B24A290
:103A00003D2120200096019408F00CFF0C2001902D
:103A1000214B22A23D21009602943B2009F06CF933
:103A20001A4B1FA23D2156200096019408F0FAFE81
:103A30001D48E978007808420BD00020FFF79EFB74
:103A4000052011F015FBFFF717F90120FFF786FBA2
:103A5000EC703C7003B0F0BD00210B481F230191B6
:103A60000090DB0211A216210A2008F0DBFEC3E75A
:103A7000CFB5CDB3B3F6CFD6B9CAD5CFA3ACC4A317
:103A8000C4E2CDA3D6B9000010840000FFFF0000FF
:103A9000B0B4CFC200000000E0FF00004553430077
:103AA000D2D4CDCBB3F600009D000020B5E7B3D84B
:103AB000B5E7C1BFB9FDB5CDA3ACC4A3C4E2CDA3E6
:103AC000D6B90000F0B5FD48FD4C0078FD4F00254B
:103AD00085B0002806D01721FB4BFCA216200195CB
:103AE000009425E0FE48FF4900780978084218D084
:103AF000FD48817AFD48C07801430BD0002810D0E2
:103B00003F235B01FAA2172116200195009409F0CA
:103B100029F80FE017213B46FAA20D2001950094E9
:103B2000F5E73F235B01FDA21721192001950094C1
:103B300008F078FE3B46FEA22C2106200195009459
:103B400008F070FE0C263B463A222C211E200196DE
:103B50000295009408F0C6FDE348807A00286ED0F4
:103B6000E0480178F44800296AD0F44900680968FF
:103B700012F072FB4000F2494008884209DA02461E
:103B800002232C21292000970296019408F006FFB9
:103B900017E0EC49884209DA024601232C2129204A
:103BA00000970296019408F0F9FE0AE0FDF72EFD59
:103BB00082B204232C21292000970296019409F057
:103BC00015F83B4657222C2152200196029500946D
:103BD00008F088FDC449087A002804D001284ED096
:103BE000022855D05DE0487A01285AD0082845D2ED
:103BF00001007944097949188F449595030D1723DD
:103C00002D373B46D0A22C216720019602950094C7
:103C100009F072F887E03B46CDA22C21672001967F
:103C20000295009409F068F87DE0CB4BCBA22C21E3
:103C3000672001960295009409F05EF873E061E058
:103C400036E0C54BC7A22C2167200196029500944F
:103C500009F052F867E0C54BC5A22C2167200196F8
:103C60000295009409F048F85DE0C04BC2A22C21F7
:103C7000672001960295009409F03EF853E03B4618
:103C8000BFA22C2167200195009408F0CBFD4AE0EB
:103C90003B46BDA22C2167200195009408F0C2FD8F
:103CA00041E02C213B46BAA267200195009438E000
:103CB000A949009102960194026802232C2129202F
:103CC00008F06CFE3B4656222C21522001960295AC
:103CD000009408F007FD9948022300682C21420057
:103CE000A2480090520802960194672008F056FE00
:103CF0003B4641222C21902001960295009408F029
:103D0000F1FC10E0994BA5A22C21292001960295E7
:103D1000009408F0F1FF3B46A2A22C215620019509
:103D2000009408F07FFD3B46A0A23D2106200195AE
:103D3000009408F077FD3B463A223D211E20019673
:103D40000295009408F0CEFC66489A490078002855
:103D500072D09948994A006843005B08934200DAA0
:103D60000020096812F078FA40007549400888423E
:103D700009DA024602233D21292000970296019488
:103D800008F00CFE17E06F49884209DA0246012369
:103D90003D21292000970296019408F0FFFD0AE0DA
:103DA000FDF734FC82B204233D21292000970296BE
:103DB000019408F01BFF3B4657223D2152200196FB
:103DC0000295009408F08EFC7D48017800291CD0F3
:103DD0004068FDF71BFC002821DAFF274042D0375E
:103DE00003903B462D223D210196029500946720C9
:103DF00008F078FC0398009782B20296019402239F
:103E00003D21672008F0F2FE27E03B466DA23D21F0
:103E1000672001960295009408F06EFFDFE00A2803
:103E200001DA1F2710E06849096C0A46143A8242F9
:103E300003DD3F277F0107E019E00839814201DDFA
:103E40004A4F01E01F27FF0282B202233D21672073
:103E500000970296019408F0C9FE3B465BA23D2103
:103E6000882001960295009408F0F8FCB7E03A48E3
:103E70000090029601940A6802233D21292008F04F
:103E80008DFD3B4656223D2152200196029500941D
:103E900008F028FC4848006842004848520882421E
:103EA00000DA00223148009002233D21029601945D
:103EB000672008F073FD3B46412289E05A0000204C
:103EC00010840000FFFF000020FD0000CFB5CDB33F
:103ED000B9FDC8C8A3ACC4A3C4E2D4DDCDA300001F
:103EE0009D000020AC000020A8010020120100204D
:103EF0005553422D41BFDAC4A3C4E2D2D1BFAAC6F2
:103F0000F4000000B0B4CFC2456E746572BFAAC69B
:103F1000F441BFDAC4A3C4E200000000CACAC5E489
:103F2000C6F7C4A3C4E2D2D1BFAAC6F40000000001
:103F3000CAE4B3F600000000B4000020B80000207E
:103F40000000C84200007A44504420375600000068
:103F50005044203956000000FF7F000050443132A9
:103F6000560000005044313556000000E0FF0000CC
:103F7000504432305600000050444550520000007A
:103F8000B8DFD1B900000000B8DFC1F700000000C1
:103F9000BFECB3E4B9D8B1D5000000005479706526
:103FA0002D430000CEB4C1ACBDD30000B5E7B3D8FB
:103FB00000000000BC000020C0000020CDCC4C3D23
:103FC000780100202D2D2D0098020020A1E6000090
:103FD0003D21902001960295009408F083FB024851
:103FE000057005B0F0BD0000A8000020F8B5344809
:103FF000344F0078344C0025002818D0B8790328B5
:1040000015D1A078072857D1E078002813D00020D8
:10401000FFF7B4F80646052011F02AF8FEF72CFE4B
:1040200006400120FFF79AF8304200D0E570B879D9
:10403000042816D040E02548807A00283CD1FFF7BC
:104040008DF806460A2011F013F8FEF749FE0640E7
:104050000120FFF793F83040E070E8D0A020A08165
:10406000E5E7E078002802D1A07807280AD00020F0
:10407000FFF784F8052010F0FBFFFEF7FDFD01209F
:10408000FFF76CF8124813490278002A0CD005702B
:104090000D7000215023A0220846009508F010F86A
:1040A0000D4810F069F805E00878002806D00B48A4
:1040B00010F062F802F008FDBD71F8BD0848F7E79E
:1040C0009D0000202400002012010020A8010020F3
:1040D0003D01002048000020C0CC010028D1010093
:1040E0009CD6010010B500230FA210A148200FF0AC
:1040F00097FB124A1248D1790378994211D0017086
:10410000002901D0012906D102210170D1710121BC
:104110000C4810F04FFE08F0ADF880210A4804F07A
:1041200043FA0BF037FA10BD32370000C9E8D6C3A6
:10413000CFD4CABEB7BDCFF200000000D802002025
:10414000090000209802002000400B400848082188
:10415000C1700A2181600749097A002906D0064901
:10416000C97A002901D04B218901416070470000C4
:104170004C00002060030020A003002070B50D4C0F
:1041800000256068012807D000280BDDE1780029B0
:1041900009D0491EE17009E007486560C57204F066
:1041A00081F9A56070BD0821E1702570401E606036
:1041B00070BD00004C000020A0030020F8B5664848
:1041C00001250570FF206549E13008806548644C91
:1041D0008379654866490078664A86462046807835
:1041E00066788446614809781278062E56D23700E0
:1041F0007F443F79FF19BF44022852617C95002912
:1042000003D0052901D05026A6705C4E5A4F376066
:10421000A678002E09D0042B13D0072911D05249BB
:1042200072453BD005700A7092E0057065700DF024
:1042300051FF0A2010F01CFF2570042006F08EFEAE
:1042400086E005700520607082E04C4977460A6878
:10425000454956073E4311D0560701D000260E703F
:10426000042B04D04649474B896899420DDA057002
:10427000424800210160052060700DE005700D705E
:1042800041494E69761C4E61EAE7002A60DC057000
:10429000022060702820A0700DF01CFF58E000295B
:1042A00003D0072901D003216170614600294FD155
:1042B0000570042060701820A07049E000262F4F80
:1042C00000293E6004D0052902D05026A67002E0E5
:1042D0006646002EECD00729EAD0042B03D02249F1
:1042E000724535D09EE70570052060700DF0F2FE36
:1042F0002EE0604608432BD120480024224D046064
:104300002846AC6202F048F8E86410F09FFD0021F6
:104310005023A0220846009407F0D2FE1B480FF05D
:104320002BFF15E0042B13D1144800240460164819
:1043300002F032F81449C86410F088FD00215023BF
:10434000A0220846009407F0BBFE10480FF014FFAF
:10435000044900208871F8BDA60000200600002056
:1043600030010020240000202A0100202901002023
:10437000AE000020AC00002080320200740000205B
:10438000780100209A99214160030020C0CC0100EF
:10439000F1480078002803D1F048807900286ED0D9
:1043A000F0B585B00CF0E0F9ED480C26407800251A
:1043B000EC4C062871D201007944097949188F44E0
:1043C00002FEFD02FCFBE849097805293DD00629DB
:1043D00045D0E64B0328019500944AD0E4A216216B
:1043E000212008F01FFAE64FE6A23B4628210620CE
:1043F0000195009408F016FA3B463A2228211E2027
:1044000001960295009408F06DF9E04800780028C4
:1044100079D0DF480268DF4851004908814200DA5C
:104420000022DD480168104611F016FF4000DB490C
:104430004008884224DA02460223282129200097D6
:104440000296019408F0AAFA33E03F235B01D4A25C
:10445000162121200195009408F0E4F9C3E71F23F9
:10446000DB02D3A2162121200195009408F0DAF98D
:10447000B9E7D3A21621212008F0D4F9B3E769E106
:10448000D34988420ADA02460123282129200097CD
:104490000296019408F082FA0BE03DE1FDF7B6F8D0
:1044A00082B204232821292000970296019408F063
:1044B0009DFB3B46572228215220019602950094ED
:1044C00008F010F9C348017800291DD04068FDF7B5
:1044D0009DF8002822DAFF274042D03703903B4660
:1044E0002D222821019602950094672008F0FAF801
:1044F0000398009782B20296019402232821672034
:1045000008F074FB27E030E03B46B3A22821672087
:1045100001960295009408F0EFFBFDE00A2801DA0D
:104520001F270FE0AD490A6C11461439814202DDA4
:104530003F277F0106E0083A824201DDA84F01E0F3
:104540001F27FF0282B202232821672000970296CC
:10455000019408F04BFB3B46A2A22821882001963B
:104560000295009408F07AF9D6E09F4800908A48B6
:1045700002960194026802232821292008F00EFAED
:104580003B4656222821522001960295009408F0BD
:10459000A9F87F48006842007E485208824200DA4B
:1045A00000228F4800900223282102960194672060
:1045B00008F0F4F93B4603E0A5E09CE08BE006E060
:1045C00041222821902001960295009426E06C4B10
:1045D00086A2162121200195009408F023F96B484A
:1045E000007800281DD0664F84A23B462821192060
:1045F0000195009408F0B6FA78100090664802968B
:1046000001940268022328214F2008F0C7F93B4695
:1046100056222821782001960295009408F062F82D
:104620007AE079480068C117490F0818C010E121E5
:1046300009010190FCF7A4F8009008463C21FCF722
:104640009FF807463C210198FCF79AF800980391DF
:1046500004904B4B6DA22821019500940E2008F088
:1046600081FA3F20400100900498029682B20194A2
:1046700001232821332008F0B9FA414B65A22821F3
:104680003E200196009408F0CDF83F2040010090B4
:10469000BAB202232821029601944E2008F0A6FA0D
:1046A000374B5DA2282162200196009408F0BAF8E9
:1046B0003F200399400100908AB2029601940223A0
:1046C0002821722008F092FA28212D4B53A286202F
:1046D000019600941EE02A4F51A23B4616210A2063
:1046E0000195009408F09EF828213B4652A22E2006
:1046F000019500940EE03F235B01222151A221206D
:104700000195009406E01F23DB0252A222211B2008
:104710000195009408F086F8194F53A23B463D21BD
:1047200020200195009408F07DF82D4B50A23D21EA
:104730003B2001960295009408F0DEFA3B464DA21C
:104740003D2156200195009408F06CF80248057050
:1047500005B0F0BD704700002901002024000020B2
:104760003001002010840000AE00002020FD000079
:10477000B5E7B3D8B0FCB3E4B5E7D6D0A1AD00003F
:10478000FFFF0000B5E7B3D800000000AC00002038
:10479000C0000020CDCC4C3DBC0000200000C84231
:1047A000C8B7C8CFB3E4C2FAD7B4CCACA1AD00004F
:1047B000B5E7B3D8B0FCB3E4B5E7D2ECB3A30000DF
:1047C000B5E7B3D8B6FEB4CEB2B9B5E7D6D00000DF
:1047D00000007A44780100202D2D2D009802002041
:1047E000E0FF0000A1E60000FF7F0000D7D4B6AFD5
:1047F000BEF9BAE2D4CBD0D0D6D00000B5E7B3D85A
:10480000B5E7D1B93A00000074000020CAA3D3E094
:104810003A000000CAB10000B7D60000C3EB0000A8
:10482000C8B7C8CFCAC7B7F1BFC9D2D4B6FEB4CED5
:10483000B2B9B5E700000000C7EBC9D4B5C8A1AD57
:10484000A1AD0000D7D4B6AFBEF9BAE2D2D1BDE176
:10485000CAF80000D7D4B6AFBEF9BAE2D2ECB3A31F
:10486000BDE1CAF800000000B0B4CFC200000000F3
:1048700045534300D2D4CDCBB3F60000034988782A
:10488000002801D0401E88707047000030010020D1
:1048900010B502480FF070FC10BD0000B8E7010031
:1048A00010B505480078002803D004480FF064FCD8
:1048B00010BD0348FAE700004800002028D101009D
:1048C0009CD6010010B502480FF056FC10BD000048
:1048D00028D1010010B502480FF04EFC10BD0000B9
:1048E0009CD6010010B5094CA07904280AD10848CB
:1048F0000078002807D007480FF03EFC002006494A
:10490000A071087010BD0548F6E7000024000020E3
:1049100048000020F4D20100E20000209CD60100F3
:10492000F8B53F4C3F4E217800270125B07900298A
:1049300006D001292CD0022959D0032967D156E08D
:10494000012804D0022807D004280BD011E06068A9
:1049500010285FDA401C03E0606801285ADD401E21
:10496000606057E030480078002806D02F480FF0EC
:1049700003FCB079032802D049E02D48F7E7E12194
:104980006068C90148432B4908602570657041E0A3
:10499000FF21E131284A0428118004D02748284902
:1049A0008068884204DA23486570076003201CE0B1
:1049B0002048006800280EDDA2784107114303D08B
:1049C000400724D0A77022E065701E48A570416999
:1049D000491C41611BE01B48876201F0DDFC19495D
:1049E000C86410F033FA6570022020700FE00428CC
:1049F0000DD1144801F0D0FC1249C86410F026FA19
:104A000009480078002808D008480FF0B5FBB079B5
:104A1000002800D06570B771F8BD0548F5E70000C3
:104A200028010020240000204800002028D1010097
:104A30009CD60100740000200600002078010020B0
:104A40009A99214160030020F0B5924C85B06078BE
:104A5000002803D19048807900287DD00BF084FE97
:104A60008C480C25007800268C4C002808D03F2369
:104A70005B0101282BD002286FD003286ED101E101
:104A8000874F88A23B46152123200196009407F00A
:104A9000C9FE3B4687A22A2120200196009407F0F8
:104AA000C1FE864800907B4802950194406882B21E
:104AB0000A2801DA392000E03D2002232A2108F0EB
:104AC00095F83B467EA22A2101950094B9E03F2348
:104AD0005B017EA2162121200196009407F0A2FE20
:104AE0007E49012008707E48007800281CD07D484F
:104AF0000068C117490F0818C710E121090138469D
:104B0000FBF73EFE009008463C21FBF739FE04907F
:104B10003C213846FBF734FE009F03910196009438
:104B20000A2F23DA0E2022E05D4F6FA23B46282198
:104B300019200196009408F015F8781000906D483F
:104B4000029501940268022328214F2007F026FFD6
:104B500056223B46282102E092E04DE074E07820A6
:104B600002960195009407F0BDFD6DE00B204C4BC3
:104B700061A2282107F0F6FF3F2040010295019431
:104B800000900A2F01DA012300E00223BAB20A2FB3
:104B900001DA332000E02D20282108F027F8404BCF
:104BA00057A228213E200195009407F03BFE04986F
:104BB0003F277F0182B200970295019402232821AA
:104BC0004E2008F013F8364B4EA2282162200195A2
:104BD000009407F027FE0398009782B20295019493
:104BE00002232821722008F001F828212C4B46A22C
:104BF00086200195009425E044A2162121200196EB
:104C0000009407F00FFE264F2AA23B4629212020C0
:104C10000196009407F006FE284800901D48029572
:104C20000194406882B20A2801DA392000E03D2070
:104C30000223292107F0DAFF3B4621A22921019511
:104C400000944F2007F0EEFD154F34A23B463D2166
:104C500020200196009407F0E5FD184B31A23D217C
:104C60003B2002960195009408F046F83B462EA2A0
:104C70003D2156200196009407F0D4FD054846706A
:104C800005B0F0BD1F23DB02232129A21C200196C1
:104C90000094D7E7280100202400002010840000A1
:104CA000FFFF0000C7EBD6B8B6A8BEF9BAE2CAB19A
:104CB000BCE40000B9B2BCC600000000E0FF000088
:104CC000BEF9BAE2D0A1CAB100000000CAD6B6AFA0
:104CD000BEF9BAE2D4CBD0D0D6D00000A6000020D6
:104CE000AC00002074000020B5E7B3D8B5E7D1B917
:104CF0003A000000BC000020CAA3D3E03A00000044
:104D0000CAB10000B7D60000C3EB0000CAD6B6AFE8
:104D1000BEF9BAE2D2D1CDEAB3C90000B0B4CFC275
:104D20000000000045534300D2D4CDCBB3F60000C1
:104D3000CAD6B6AFBEF9BAE2D2ECB3A3BDE1CAF8A7
:104D400000000000F8B500231CA21DA134200EF0C5
:104D500067FD01240025002120460AF07FF8064661
:104D6000002120460AF02CF8074637400021204653
:104D700009F0D8FF38400646082C03D103F080FC28
:104D8000002805D160066D1C040EEDB2082DE2D39B
:104D9000002E07D103230EA20EA134200EF040FDF9
:104DA0000DF0B4F800230FA20FA135200EF038FD4E
:104DB0001148816F406F06F02BFFF8BD31320000C3
:104DC000BEF9BAE2BFD8D6C6C6F7C5E4D6C300005E
:104DD00045440000BEF9BAE2BFD8D6C6C6F7D2EC49
:104DE000B3A3000031330000D3A6D3C3414443D062
:104DF000A3D7BCCAFDBEDD009802002010B500217B
:104E000001200AF02BF810BDF0B583B000276846EA
:104E10000771077004F050F9434D444EA86800280C
:104E200006DD68460078052801D0EF6017E0AF6026
:104E3000F0683F4940004008884203DA684600783D
:104E4000032832D0E868002801DD401EE8600F2109
:104E50008901884203DB2D204001EF60A86004F047
:104E60002CFA6978334F814211D0687000280ED037
:104E7000686800280BDC387B002819D02E492F48A1
:104E8000806A11F0BFF902D32D480FF075F901A81F
:104E900004F012F92B49B068884228DB68680028C2
:104EA00008DD401E0124686031E0E868401CCDE761
:104EB0002549E4E7A868002803DD401E0024A86017
:104EC00025E022480078032820D068460079002891
:104ED00003D11F490A5E082A09DB397B002906D065
:104EE00001290FD0022904D0032910D10EE000249B
:104EF0000DE001280AD0022808D0032806D0052892
:104F0000F5D103E00428F2D00028F0D0012428785D
:104F1000A04206D02146012009F0A0FF002800D0C1
:104F20002C7003B0F0BD000070000020780100205C
:104F3000CDCC4C3ED802002000008441600300200C
:104F40006CDD01009A9921410000384131010020B7
:104F50000600002010B5024806F0CEFA10BD000091
:104F600030E5010010B5024806F0C6FA10BD000099
:104F700010E5010003498968014201D00120704712
:104F8000002070470080084004494A680123DB0282
:104F90009A43C00202434A60704700000080084004
:104FA000F0B4084F7D6AFE6A3C6B85438E439443A0
:104FB000002B02D005430E4314437D62FE623C6326
:104FC000F0BC70470080084010B4054B9A6A072473
:104FD0008440A24381400A439A6210BC704700009B
:104FE0000080084010B50021802001230A460AF005
:104FF0000FFE10BD002A05DD0B780373491C521EFD
:10500000002AF9DC80687047F8B54D4C0620205E18
:10501000002801DD401EE0800420205E002801DD24
:10502000401EA0806078012803D0022801D0082803
:1050300029D14449012008702078002801D0401E61
:1050400020704148007800281DD040480078012891
:1050500003D0022801D0032815D13D48007800284C
:1050600011D13749A6783B4DCF688868002E0BD008
:10507000A96811F081F8A0603846E96811F07CF861
:10508000761EE060A670F8BD0221C943FCF714FB50
:1050900006460221A060C9433846FCF70DFB2E4F9F
:1050A000E060F9694900090E03D12C49884200DB10
:1050B000FE6178683146401C7860B86911F024F9C7
:1050C00001D2B86900E0A068B861F868E16811F041
:1050D0001BF901D2F86800E0E068F8602878002841
:1050E00006D06968386911F00FF904D2386903E015
:1050F0001B48386101E068683861E5681949680053
:10510000400811F0A9F8184E3146FCF7CFF9B968FC
:1051100011F032F8B8602946A06811F09DF84000FF
:1051200040083146FCF7C2F9396A11F025F83862B7
:105130000020A0600821E060A170E070F8BD0000D0
:10514000D0000020A6000020A4000020AE00002017
:1051500068000020780100203C0300209A99193E45
:105160000000C8C200007A4400006145F8B56A4AF0
:1051700067486A4992680D789446664B0246042453
:1051800067494678145F9B7A00220978072E1DD262
:1051900037007F443F79FF19BF440336A318645298
:1051A0005E00604C257A022D05D05F4C2478002CDF
:1051B00012D00D21A9E0072909D0062909D0012123
:1051C00041702272002159480FF0F4FDF8BD0B2107
:1051D00000E00C214170F8BD072904D0062904D055
:1051E000002906D103E00B218FE00C218DE0002B7C
:1051F00001D0092189E04E4B9C4501DD0A2184E064
:10520000012182E0C270F8BD002BFCD0082914D225
:105210000B007B441B79DB189F440F0505050F0528
:105220000403D4E7D5E7434B6146D9618260082186
:10523000C260817002214170E4E7022EE2D0F8BD25
:10524000234307D00729CED00629CED0002DF6D192
:1052500002215AE0072158E0002CF0D102214170D0
:10526000C270F8BD002C01D0062112E0002B07D03F
:10527000072907D0062907D0002D07D0052108E00F
:10528000072106E00B2104E00C2102E0052902D0F1
:1052900002214170C2700621415E0029E1DCC2702A
:1052A00003214170234C01202070E66822493046DA
:1052B00010F0D2FFA5682946FCF7F8F860611F4995
:1052C000226863686CC1E569A3692269CD608B605F
:1052D0000A604860206A0861002120460FF042FD04
:1052E000F8BD002C01D006210FE0002BB2D0072919
:1052F000A9D00629A9D0002D01D0052105E0052956
:10530000EED10F218901C180042141707AE70000AC
:10531000D0000020A80100207801002068000020B3
:10532000AE000020D8020020640100209802002076
:10533000000004413C03002000007A4414030020D4
:10534000FA48C078002803D0F9488079002873D043
:10535000F0B593B00BF008FAF44840780E2800D36B
:10536000D7E241007944898849008F440D001E002E
:10537000660043034200540031050204B9032904C6
:10538000AD0529047D054D05EB4E0025E94C33465E
:10539000EAA221211B200195009407F043FA33462D
:1053A000EBA22F2101950094FEE3EC481523009019
:1053B0004B221946282007F073FCE94E0025DD4CEE
:1053C0003346E8A22F211B200195009407F02AFA0A
:1053D0000C2001903346E8A23D2102950094242040
:1053E00007F08AFC3D213346E5A251200195009447
:1053F0009FE2DB4E0025CF4C3346E3A2212114204F
:105400000195009407F00EFA2F213346D0A22E20EA
:10541000019500948DE20025C64CE04BE0A22121CD
:1054200014200195009407F0FDF92F21CC4BE1A247
:105430001420019500947CE2FCE30025BD4CBE4B9A
:10544000E1A2132114200195009407F0EBF9E24F3B
:1054500038798007800F02D0012813D10AE00C2090
:105460000190B54BBCA21321029500946F2007F068
:10547000F5F907E0B04BD9A213216F2001950094F4
:1054800007F0D0F9B64BD7A2232103200195009451
:1054900007F0C8F9D048D6494068884250D9FBF790
:1054A00061F9BE490C2782B2009102230297019450
:1054B00023213C2007F09AFBA94BCEA223214F20A9
:1054C00001970295009407F0C9F9C348C84940689C
:1054D000FBF748F90846E1210901FBF743F9AF4919
:1054E00082B2009102230297019423215D2007F0EC
:1054F0007DFB9B4BC0A223216F2001970295009456
:1055000007F0ACF9B448E12140680901FBF72AF93A
:1055100008463C21FBF726F9A04982B200910223FC
:105520000297019423217C2007F060FB8C4BB3A2EF
:1055300023218F2001970295009407F08FF94CE00A
:10554000E1210901FBF70EF994490C2782B2009181
:1055500002230297019423213C2007F047FB804B54
:10556000A5A223214F2001970295009407F076F918
:105570009948E12140680901FBF7F4F808463C210D
:10558000FBF7F0F8854982B200910223029701945B
:1055900023215D2007F02AFB714B98A223216F2065
:1055A00001970295009407F059F98B483C21406817
:1055B000FBF7D8F879488AB200900223232102979A
:1055C00001947C2007F012FB654B8DA223218F20D4
:1055D00001970295009407F041F9614B89A23221AD
:1055E00003200195009407F01DF97B488749006A64
:1055F00088420BDA0C2250490292009102460123A4
:1056000001943221212007F0C9F90CE00FF07CFD54
:1056100082B20C2148480291009003230194322168
:10562000212007F0E3FA0C27434B79A232213C20DA
:1056300001970295009407F05FFB7648484B00788D
:105640000195002800943DD073A23221572007F025
:10565000E9F83F2040010090714802970194826868
:1056600001233221732007F099F93F235B01562271
:105670003221932001970295009407F033F8384BBC
:1056800068A2402103200195009407F0CBF852480E
:1056900066498068884248DA0FF036FD82B21F20E2
:1056A000C00200900223402102970194212007F0BC
:1056B0009DFA1F23DB0240215DA233200197029552
:1056C0000094D4E05BA23221572007F0ABF8544895
:1056D000C168806810F0C0FD40004C494008884215
:1056E0000BDA3F2149010246009101230297019400
:1056F0003221732007F052F90CE00FF005FD82B261
:105700003F2040010090032332210297019473202F
:1057100007F06CFA3F235B01572232219320019757
:105720000295009406F0DEFFA9E787E0D000002094
:105730002400002010840000FF7F0000B2E2C8DDDA
:10574000CFB5CDB3D5FDD4DAC6F4B6AF00000000B6
:10575000C7EBC9D4BAF3A1ADA1AD000012B80100E6
:10576000FFFF0000C7EBBDABB5E7B3D8BCDCC1ACF5
:10577000BDD3B5BD00000000547970652D43000015
:10578000B3E4B5E7C6F70000D5FDD4DAC8B7C8CF93
:10579000B3E4C2FAD7B4CCACA1AD0000E0FF000086
:1057A000CFB5CDB3BCECB2E2B5BDB9FDB3E4CAC26E
:1057B000BCFE0000C7EBB5C8B4FDCAC2BCFEBDE26A
:1057C000B3FDA1ADA1AD0000B3E4B5E7B2E2C8DD21
:1057D000BDF8D0D0D6D000003C030020A1ADA1ADD3
:1057E00000000000B3E4B5E7CAB1B3A400000000B4
:1057F00080510100CCEC0000CAB10000B7D6000017
:10580000C3EB0000C4DCC1BF000000000000204169
:1058100057680000AC000020B5E7D1B900000000D7
:1058200078010020C8DDC1BF000000000000C842B0
:105830006D416800B9A6C2CA00000000FE49884256
:10584000FE4917DAFBF732FE1F21C902024600911A
:105850000123029701944021212007F09FF81F2384
:10586000DB02F7A240213C2001970295009407F04B
:1058700043FA18E0FBF71AFE0FF046FC82B21F2035
:10588000C00200900323402102970194212007F0D9
:10589000ADF91F23DB02EAA240213C2001970295CB
:1058A000009407F029FAE748007801950028009451
:1058B00024D0E54BE5A24021572006F0B3FFE54890
:1058C000017800295BD040680FF01EFC002860DAE8
:1058D000FF264042D036039033462D223D210197CA
:1058E00002950094752006F0FDFE0398022382B213
:1058F00040210297009601947C206FE0D24ED6A200
:1059000033464021572007F02DF9D5480078082864
:1059100000D315E301007944097949188F44030A3B
:105920001118031F272740213346CEA2812001955D
:10593000009466E24021CD4BCDA2812001950094D8
:105940005FE24021CC4BCDA281200195009458E22A
:105950004021CC4BCCA281200195009451E23F2301
:105960005B014021CAA281200195009449E21F23D6
:10597000DB024021C8A281200195009441E2B24B94
:10598000C7A24021732001970295009407F0B4F953
:1059900026E00A280BDA1F26AE48029700960194EB
:1059A000426801234021732006F0F8FF18E0BD494A
:1059B000096C0A46143A824202DD3F26760106E06F
:1059C0000839814201DDAC4E01E01F26F60282B2A9
:1059D00002234021732002970096019407F006F9F4
:1059E0003346B1A240218F2001970295009406F022
:1059F00035FFA5E23F260025AC4C76013346ACA22C
:105A0000162121200195009406F00CFF3346ACA22C
:105A1000292118200195009406F004FFAA48874E1A
:105A200080683146FBF742FDA84988420BDA864A76
:105A30000C21009202910246032301942921432064
:105A400006F0ACFF29E0A24988420BDA7E4A0C211D
:105A5000009202910246022301942921432006F07C
:105A60009DFF1AE0B0420BDA774A0C2100920291B6
:105A70000246012301942921432006F08FFF0CE008
:105A80000FF042FB82B20C206F4900910290042378
:105A900001942921432007F0A9F86B4F0C263B46BF
:105AA00067A22921702001960295009407F024F93D
:105AB0003B4688A23D2120200195009406F0B2FECD
:105AC0006D4B86A23D213B2001960295009407F084
:105AD00013F93D213B4682A256200195009490E1A6
