:020000040000FA
:10000000280F0020C100000069C70000F96F000040
:10001000FFFFFFFFFFFFFFFFFFFFFFFFFFFFFFFFF0
:10002000FFFFFFFFFFFFFFFFFFFFFFFF31EC0000BF
:10003000FFFFFFFFFFFFFFFFF9D0000041080100B5
:1000400035010000350100003501000035010000D8
:1000500035010000350100008D630000350100000E
:1000600021270000FFFFFFFF3501000035010000E0
:10007000356E00003501000035010000FFFFFFFF75
:10008000FFFFFFFF350100003501000035010000D2
:100090003501000035010000350100003501000088
:1000A0003501000035010000350100003501000078
:1000B00035010000350100005DCA00003501000077
:1000C0002048804720488047204800472048016951
:1000D000002908D14169002905D18169002902D18F
:1000E000C169002909D01B48C1680901090D00290F
:1000F0000ED005290CD006290AD0BFF34F8F164821
:100100001649016016491548C860BFF34F8FFEE7D6
:10011000114801681148884200D0704711481249BF
:1001200001600D48114901607047FEE7FEE7FEE7F8
:10013000FEE7FEE7FEE700000D480E490C4A0E4BB5
:1001400070470000CD000000550801007D0100004F
:100150000003084080010840000000200400FA0568
:1001600000ED00E0008108400100000000000000F8
:1001700028030020280F00202803002000F002F8A8
:1001800000F04EF80CA030C8083824182D18A246EC
:10019000671EAB4654465D46AC4201D100F040F8C4
:1001A0007E460F3E0FCCB6460126334200D0FB1AE6
:1001B000A246AB463343184774AB010094AB010031
:1001C000103A02D378C878C1FAD8520701D330C8A0
:1001D00030C101D504680C60704700000023002482
:1001E00000250026103A01D378C1FBD8520700D36E
:1001F00030C100D50B60704710B5662902D112F0EE
:1002000037FA10BD002010BD1FB501F0CFFB040070
:100210000020002112F048F8E0601FBD10B510BDAD
:1002200002F07AF81146FFF7EFFF11F079FA02F0C9
:1002300092F803B4FFF7F2FF03BC02F01FF90000CD
:100240000FB41CB50C0007AA009001D00019401E85
:10025000084B7B4469460190069801F024FB002C72
:1002600003D06946002001F031FB1CBC08BC04B07F
:100270001847000081160000F3B50446002081B045
:1002800020622046E168884700287AD0252802D0DD
:100290006268A16871E0E16820460025884706464B
:1002A0000020E0610746A0612A2E0AD0304610F0F7
:1002B000E3FF002827D0B8000019303E0090866187
:1002C00019E00298BA00121902C891610290204602
:1002D000E1688847012F064617D1E06900281FDA38
:1002E000202085431CE000980A218069484300993A
:1002F0008019303888612046E1688847064610F04A
:10030000BBFF0028EFD1012F0AD02E2E08D12046A6
:10031000E16888470646202005437F1C022FC3DB87
:10032000A069002803DA4042A06101200543E807E4
:1003300001D010208543002E23D0304641381928A3
:1003400003D80120C00205432036204625603146EF
:10035000029A1546FFF750FF00280BD0012806D05F
:10036000ED1DE808C000083002908AE709E02D1D65
:10037000029586E762683046A1689047206A401C73
:100380007EE7206AFEBD00000346F0B50B439B07E5
:100390002DD1244DEF01042A29D308C810C95E1BB2
:1003A0009E43121F3E4017D0D8B2E1B2401A310628
:1003B000014310D198B2A1B2401A310401430AD1CD
:1003C00018022102000A090A401A3102014302D12F
:1003D000180E210E401AF0BDA342DCD018BA21BA83
:1003E000884201D90120F0BD0020C043F0BD002AA1
:1003F00001D10020F0BD03780C78401C491C002B73
:100400000DD0A3420BD1521E09D003780C78401CAA
:10041000491C002B03D0A34201D1521EEBD1181B63
:10042000F0BD00000101010101E004C0091F042921
:10043000FBD28B0701D50280801CC90700D0027057
:10044000704700290BD0C30702D00270401C491E20
:10045000022904D3830702D50280801C891EE3E7AA
:100460000022EEE70022DFE7F8B507460B463946E3
:100470001943890713D1164CE601042A0FD302CB86
:100480000D1B8D43354202D102C0121FF5E7CBB2DE
:100490000370401C521E002B13D0090AF7E7002AF4
:1004A00014D01978521E5B1C0170401C002908D022
:1004B000002A0BD01978521E5B1C0170401C0029C9
:1004C000EDD1002A02D01146FFF7CAFF3846F8BD29
:1004D00001010101002203098B4273D3030A8B42FD
:1004E00058D3030B8B423CD3030C8B4221D312E035
:1004F00003460B437FD4002243088B4274D3030985
:100500008B425FD3030A8B4244D3030B8B4228D325
:10051000030C8B420DD3FF22090212BA030C8B424B
:1005200002D31212090265D0030B8B4219D300E0EB
:10053000090AC30B8B4201D3CB03C01A5241830B70
:100540008B4201D38B03C01A5241430B8B4201D320
:100550004B03C01A5241030B8B4201D30B03C01A49
:100560005241C30A8B4201D3CB02C01A5241830AC3
:100570008B4201D38B02C01A5241430A8B4201D3F2
:100580004B02C01A5241030A8B4201D30B02C01A1C
:100590005241CDD2C3098B4201D3CB01C01A524183
:1005A00083098B4201D38B01C01A524143098B420C
:1005B00001D34B01C01A524103098B4201D30B01F5
:1005C000C01A5241C3088B4201D3CB00C01A52411A
:1005D00083088B4201D38B00C01A524143088B42DF
:1005E00001D34B00C01A5241411A00D20146524178
:1005F000104670475DE0CA0F00D04942031000D397
:100600004042534000229C4603098B422DD3030AEB
:100610008B4212D3FC22890112BA030A8B420CD3FB
:10062000890192118B4208D3890192118B4204D324
:1006300089013AD0921100E08909C3098B4201D3A4
:10064000CB01C01A524183098B4201D38B01C01ADE
:10065000524143098B4201D34B01C01A5241030955
:100660008B4201D30B01C01A5241C3088B4201D304
:10067000CB00C01A524183088B4201D38B00C01AB1
:100680005241D9D243088B4201D34B00C01A524188
:10069000411A00D20146634652415B10104601D315
:1006A0004042002B00D54942704763465B1000D39F
:1006B000404201B50020C046C04602BD70477047A9
:1006C000704700000246C80FC00781434B0030B599
:1006D0004B405B009B0D20D01923DB06C91801237A
:1006E0001B05994220DB0324A40704251346AB40D5
:1006F0000BD3002B04D1EB0613409B00E34204D440
:1007000001246407002312195941FF231B05994254
:100710000BD2C9000143500F09E0CB0204D50143BD
:100720000803024305D0054830BDFF21C905084331
:1007300030BD084607210905884330BD0000C07F51
:10074000F0B50C46871A9C410D46861A9D4103D28E
:10075000C01BA141D21963410D0D1F0DC94EEC1BE9
:10076000AE435CD07F057F0D0026002F51D02D05B4
:10077000AC46A943DD020123ED0A1B051D432023DE
:100780001B1B24D41746E740381871412F46E74019
:10079000CC199D402818314661410C0D27D1614488
:1007A0009A4013D50023401C594152000ED14008F5
:1007B000400001224B005205D34207D305204007D9
:1007C000C14201D5B04900E0B0493046F0BD6B00F0
:1007D000002A00D001229A181F23203C1B1B01D5A0
:1007E000002302E0E540281871410C0DD7D0012408
:1007F00024050919C407CD0740084908E40F284318
:100800006144002CD5D00024401C61419A40D0D1D5
:10081000CDE76A05520DD9D1C90FC907D5E79C4D5F
:100820004E00002801D0012400E0002434195F00AC
:10083000002A01D0012600E00026BE19954FAC42E7
:100840000CD8AE420AD8B44206D001256D05EC4260
:10085000BCD010461946F0BD9942FCD00020394664
:10086000F0BDF0B51FB40C460F46811A9F412546D6
:10087000861A9D4106D20125ED076F40401ABC4102
:1008800052187B41210D1E0D8D1BAC467D4D8D43B5
:100890007ED075056D0D7CD00D05AE46AC431B03B7
:1008A0001B0B794D52429D41202366469B1B14D35E
:1008B0001746F740381800260090744160462F46CE
:1008C0000741E41900989D402818664116D47146E6
:1008D00071189A4025D5012320E093182A466A41D1
:1008E0005200002B00D0521C1E23203E9B1B002BCD
:1008F00061DD3541EE1728186641E8D500187641CC
:100900005B1C9A4000D3401C4B05F3181524E340B0
:1009100010D3002B52D071467118D30FC01802D3D8
:10092000491C05B0F0BD0123DB079A42F9D140080C
:100930004000F6E701225205B21801D1002853D039
:100940000123CC0ADB029943891E002A08D1020C3C
:1009500003D0020C0004103902E0024600202039C6
:100960000023550B05D112020823550B01D152016A
:100970000D23550C01D112011B1DD50C01D1920084
:100980009B1C150D01D152005B1C2025EE1A01E0C5
:100990002CE022E00546F54015439840CA1AE107CD
:1009A00069181305C918002ABBDA03204007081884
:1009B000C10FC9070FE071466118B2E7F10740089F
:1009C0000843711071444A000CD001235B059A4220
:1009D000A7D2C90FC9070020A3E74905490D26D1B1
:1009E000002001E00028F4D100219AE7284D66009C
:1009F000002801D0012100E0002171185F00002AC9
:100A000001D0012600E00026BE19224FA94210D8CD
:100A1000AE420ED8B14208D001256D05E94206D09C
:100A20001946A802414010467BE79C4201D021466E
:100A300077E70020394674E710B50C465C4005D5D1
:100A40000124E4076340FFF70CFF10BDFFF778FEB9
:100A500010BD30B40C465C4004D50124E40763406B
:100A600030BC6DE630BCFCE670B50124E4076140A3
:100A70000D465D4002D4FFF763FE70BD6340FFF793
:100A8000F0FE70BDFF0700000000F0FF0000F07FE7
:100A90000000E0FF0000F87FF0B5F94D0C091E09D9
:100AA0002C402E402F468BB0A7437DD0B543FCD0C1
:100AB000002E7AD0002CFCD00D465D40ED0F254372
:100AC000AC1BFF25AD0464190894C502440DC9028E
:100AD0002143500DDC0204430120C00701430443BD
:100AE000D2020191200C110C00958C460104234682
:100AF0008B430A9161460904E24D8A430991010A38
:100B00007D4449198039097805464D4301266D1801
:100B1000F605751B6943C90C640B891C4C436418AA
:100B2000B5012C1B250C2E04B4434C434D43210C22
:100B3000691889090591009DE90701D00121C907BC
:100B400004912C4601996708CD072F434C08059D59
:100B5000E10B4D432D0C29466646754302950D4623
:100B600045432E46029D7D1BB44100950D465D43D5
:100B700001942C0C2F040D465543AE462D0C3D43DD
:100B8000029503947546049C2D04641B049406D2BC
:100B9000029C039D641C002675410395029401ACE0
:100BA00070CC009F7D1B01E03EE162E1B44109048D
:100BB0000095079101940599A4086143090C0C461E
:100BC0004443650BE7040C4666467443A646640B33
:100BD0003C43039502947446049DE4042C1B049446
:100BE00006D2029C039D641C002675410395029465
:100BF00001AC70CC009F7D1BB44101940C465C435A
:100C00000095650FE7000C465443A646640F3C432D
:100C1000039502947446049DE4002C1B049406D2B0
:100C2000029C039D641C002675410395029401AC4F
:100C300070CC009F7D1BB441AE09AF06049DC90076
:100C4000AD092F43049DA406AD060495079D3443CA
:100C500069180791059DE10B4D432D0C2946664609
:100C6000754302950D4645432E46029D7D1BB441BA
:100C700000950D465D4301942C0C2F040D46554301
:100C8000AE462D0C3D43029503947546049C2D04FD
:100C9000641B049406D2029C039D641C00267541CB
:100CA0000395029401AC70CC009F7D1BB44101946C
:100CB0008C050694079C890A611800950791019C90
:100CC0000599A4086143090C0D464543680BEF04E0
:100CD0000D46644665436C0B3C43049FED047D1B4D
:100CE000AC4602D20025641C6841009E019D371B62
:100CF00085410846584301950C46460FC5005443AC
:100D0000600F28436546E4002C1B02D20025401CDE
:100D10006E41019D3F1AB5412846BD098006284312
:100D20008446A009BF064E020699A406761807431A
:100D3000079D002068410A99079019430020099BEC
:100D400000906046FF1913434041E20F64003A43AC
:100D5000A4460446D71A8C41A04203D90120009032
:100D600020463A46C70F941840416246D20F2243AC
:100D7000644664000494009CBE466400D71AA446EE
:100D8000044602978C417746002F01D1A04204D936
:100D90006046401C8446029A2046C40FA64694181A
:100DA0004041049A0546D20F224364466400D31A98
:100DB0008D417146002901D1A84202D928461A4620
:100DC000641C10430122002800D016436102002059
:100DD000079B891904465C410223002C02DB491859
:100DE00013466441089DCE0A2D145D194B05670515
:100DF000E10A2C050D1908993E43C9076940002BEB
:100E000008D0934006D30022761C5141002B01D11B
:100E1000760876001C4A002D43DB154241D0AA43D8
:100E20003FD030460BB0F0BD06180D464D41174C73
:100E30007642AC411AD395181C465C41134A6D4268
:100E4000A24113D3012252054C00D4420AD15C00C6
:100E5000D4420BD04B4002D592021143E2E7490045
:100E60004908DFE75940C90FC90718E000200849C1
:100E7000D8E7054801420DD10342F7D0F2E7000060
:100E80000000FF07A09701000000F07F0000E0FFD6
:100E90000000F87F114859400143C0124140002032
:100EA000C0E70123089A9B069A4205DC03225207F9
:100EB0008918C90FC907B5E7052252078918074ADB
:100EC0001143D2125140ADE770B515461C4602469B
:100ED0000B4628462146FFF7DFFD70BDFFFFFF7F71
:100EE0000346CA02400D10B510430A1504D0012470
:100EF000E4072043002A05DB0A4CA21A04D4D040A0
:100F0000FF2A00DD002010BD4A00002B01D0012087
:100F100000E00020101801225205D042F2D8C81774
:100F2000C04310BD1E0400001F22030C02D10F227B
:100F3000000402D0030E03D004E0002001467047F5
:100F40000002083A030F01D10001121F830F01D1E3
:100F50008000921E002801DB4000521E120551182D
:100F60004205C012411810467047C10FC90700D092
:100F70004042012292071143D6E701218907D3E7B6
:100F8000F0B58B4C0F09254689B0BD437BD01D09B8
:100F90002646AE43FAD00E465E402740F60F3E434B
:100FA000254071D024012142FBD0FF24AD19A404B7
:100FB0002D1B039501252D05DB02DB0AC9022B43FE
:100FC000C90A29431E010901040F130F050121431A
:100FD0001701880B820391432D098C46A90B1E43F0
:100FE0008A039543B30B9A0396433F09BA0B9403C4
:100FF000A74302962E467E430497B6464E19D7194C
:101000000C460196544305977E43371B7646BF1B1B
:101010003601B646BE0B361900967646BC04371923
:10102000009C01D3641C00946400002F01D00126B1
:101030003443029E049F754366467E4304967600C1
:1010400034196E0034190094029C019E1C196643E9
:10105000751BAE46069465464519059C05956C437F
:10106000594375460891691A0191049E01465143FE
:10107000A41B0491611A009C0791E10605D0610947
:101080000122114302E072E06EE06109089D002731
:101090002C0A2D066918049D7C412A0A2D06691820
:1010A000019D6241AC0DAD026D185441079A910D3E
:1010B000920255196141029A644658435443069B73
:1010C000059A5A43121A131B9A0E9B015B187A4118
:1010D000010B0005C3185141220A200644195A4148
:1010E0009A4200D2491C01204002814203D31523B9
:1010F0000226F64302E014230326F6432020C51AF5
:10110000A9401746AF40DA400A4320460399D84029
:101110000914731819055118039A3843D20751401E
:10112000AC4009D00122944006D30022401C51411A
:10113000002C01D1400840001E4A934212D30122E4
:1011400003989206904207DB0520400709181A48C9
:101150000143C012414004E0032040070818C10FBA
:10116000C907002009B0F0BD0020F107FAE7051813
:101170000C464C4111486D42A04115D394181A46B3
:101180005A410E48644290410ED301204A00400566
:10119000824209D35A00824206D35940C90F084AF5
:1011A000C90700201143DDE700200649DAE7000007
:1011B0000000FF07FE070000FFFFFF7F0000E0FFC9
:1011C0000000F07F0000F87F0121C90501234118CC
:1011D00042001B06D3185B0E0AD0C1100722D206AC
:1011E000891840075242D14201D5520089187047F0
:1011F000090208D50146002A03D0C10FC907002003
:10120000704710467047420202D0002002497047E2
:10121000072109050143F4E70000F87FF0B5FF2539
:101220002D04C609C209FF2704462E400137CB0909
:101230003E4348402A402B400746002A6BD0002BF3
:1012400069D0AA4267D0AB4265D0002800DA3246A6
:101250000125ED0529432C4309022002090AD21A6F
:101260004B0C7F24E31A434C000A7C44E35C7D244E
:101270002404121914145B00A218884201D3521CD2
:1012800000E0400049420C465C4324115C43DB0112
:101290006415E318040A5C43C502200D0C46444360
:1012A0006419250A5D432303EC0C0D4665430003D6
:1012B0000019EB184C42A34201D35B18401CD40523
:1012C0002018002B07D05B00C91804D3401C00294C
:1012D00001D1400840003F2189048A4209D3002AF5
:1012E00008DC1106090F04D0032149074018C00F7C
:1012F000C007F0BD01224100120689187F22520664
:101300009142F6D205214907C84201D59010F0BD9F
:10131000FF20C005F0BD002F00DA32461648AA4271
:1013200007D2AB4205D21902090E17D0F80FC00739
:10133000F0BDFF2563002D06AB42F9D84900A94254
:10134000F6D8AB4201D1A942F2D0A94201D1002185
:1013500001E061004908D0050843F0BD1102090E03
:10136000FBD0FF200243D005F0BD0A4601461046DF
:1013700054E70000B69001000000C07F10B50146A0
:101380009E240002CA15A307002A02D01843002A8F
:1013900004DBA21A002A0CDDD04010BD1206120E8A
:1013A00001D140004008A21A03D4D0404042002896
:1013B000F3DDFF2248001206904201D9002010BD43
:1013C000C817C043584010BD1F22030C02D10F2282
:1013D00000041CD0030E01D10002083A030F01D112
:1013E0000001121F830F01D18000921E002801DB33
:1013F0004000521ED2055118021251181922904075
:1014000004D3491C002801D1490849000846704707
:10141000C10FC90700D04042012292071143D3E710
:1014200001218907D0E7000010B5FF22C30D13404A
:1014300009D05A4007D0914205DA5C42A14202DD50
:10144000C905081810BDC40FE407002B06D0002AF8
:1014500006D0002902DBFF20C0050443204610BD52
:101460004102FCD0004810BD0000C07F10B500F064
:10147000A1FA006810BD10B5044600F09BFA0460A4
:1014800010BD00007047FFB50C461E468FB003CA62
:10149000089009914F007D0D00D16D1E0021084676
:1014A0000020C0460321099A89050840002A03DA72
:1014B0008200801840080840800D01280A9002DD53
:1014C0000020C0430A90089807430DD0F048F14926
:1014D000281848430714189800281DD07542291E63
:1014E0001DDD0A9842421BE01898012802D0002016
:1014F000302104E00020F24305E02154401CB042BA
:10150000FBDB30460022189B002121540F998B6091
:101510000A60486013B0F0BDBD1B6D1CDFE70A9A7E
:10152000002900DA69420BA800F0CAFA0BAB07CB1E
:1015300003AB07C30899099800F02EFB6B4607C35D
:101540000146D5480918002D00910BDDD2490398BA
:101550000A9A49424018002303A90390684600F004
:101560008BFD08E003990A9A0023081803A9039049
:10157000684600F02BFD6B4607C30004000C03D047
:101580000020C043410800E01046189A002A03D00A
:101590000022009215461EE0751E05D400F00EFADA
:1015A000303262556D1EF9D501220843079602D0EC
:1015B00000227F1C04E02078302801D100227F1E09
:1015C000002A069787D01EE0112D07DA00F0F6F901
:1015D000303262556D1C02460A43F5D1084303D0F0
:1015E0000098002819D00EE00021681E05E0235C59
:1015F000625C63542254401E491C8142F7DBA81BE5
:10160000401E07950690079A18990020A0540F983D
:10161000079B069A81600CC07CE711260020189079
:1016200059E7D21DF0B50D460446D10893B0C90064
:1016300003C90C900D910FF083FD02460D98C00F69
:1016400001D02D2007E02068810701D52B2002E082
:101650004007C00F4001032A0F9001D0072A05DB85
:1016600003462946204600F0E7F90EE1207880067F
:1016700001D5E76900E006272846652D04D06628D5
:1016800014D0672D69D12DE00020112F009001DBCF
:10169000112300E07B1C0CAA03A910A8FFF7F3FE9E
:1016A0001199002610987D1C0E9142E001203B46C6
:1016B0000CAAC0070B900120009003A910A8FFF707
:1016C000E2FE119D12981099002600280E9501D176
:1016D000781C0D18781B02D446427D1C761EE81B30
:1016E00000903AE0012F00DA01270020112F00902E
:1016F00001DD112300E03B460CAA03A910A8FFF767
:10170000C2FE11993D46109800260E9121780907D6
:101710000BD40E99A94200DA0D4603A9012D04DD70
:101720004A19203AD27F302A06D0B84201DA011D88
:1017300004DA012100910FE06D1EEFE7002802DCC2
:1017400086192D1A03E0411CA94200DD0D46801BBD
:10175000401C00900120C0070B902078000705D4A2
:101760000098A84202DB0020C04300906946002098
:10177000C8720B98012102AF0337C907884225D0F0
:10178000022010902B2011900B9800280BDA404279
:101790000B902D20119006E00B9800F0BDFC30312D
:1017A0007F1E0B9039701099481E00291090F3DCB1
:1017B0000B980028F0D111987F1E38702088000502
:1017C00001D5452000E065207F1E387001A8C01BB0
:1017D000C01D0B900F98002800D0012041190098DF
:1017E000C01709180B980818A169081A401EA061B3
:1017F0002078C00602D42046C046C0460F98002874
:1018000005D06268A1689047206A401C2062207859
:10181000C00625D52046C046C04621E0002E07DB85
:101820000E98B04204DD03A86268805DA16802E002
:101830006268A16830209047206A761C401C2062B4
:101840000098401E002800900AD100F0AFF8C06850
:1018500062680168405CA1689047206A401C206271
:1018600028466D1E0028D9DC07E062683878A16838
:101870007F1C9047206A401C20620B99481E00295B
:101880000B90F2DC2046C046C046032042E6000032
:1018900001FCFFFF104D0000E1DFFFFF01694A1C62
:1018A00002610878704700B58FB002910021059160
:1018B0000549019379440391114604906846FEF767
:1018C000DBFC0FB000BD0000E5FFFFFF0A681070F1
:1018D000521C0A6070470CC908399A4202D2531C44
:1018E0000B6010707047000070B505464800440D4D
:1018F000124B0020002C0AD0634008D09A4206DA2E
:101900006642B24203DD12054019514170BD002C00
:1019100008D0002B09D0C90FC907002AF6DB084AF6
:10192000114370BDC90FC90770BD28460A03104393
:1019300002D00020034970BD284670BDFF0700009B
:101940000000F07F0000F87F10B5FF231B06440065
:101950009C421DD84C009C421AD80346124A0B43A5
:1019600007D4401A02D3EFF3008010BDEFF30080DC
:1019700010BD081A06D2EFF3008001219043C90779
:10198000084302E0EFF30080904380F3008810BD2D
:101990000D231B041A4204D01146002000F0D0FB96
:1019A00010BD00F0ADFC10BD000000900048704775
:1019B000E402002000487047C40200200B4670B5C6
:1019C000024689078008084319469D08141AA94150
:1019D00025090807054308092C194841250A01066D
:1019E0000D43010A2C194141200C0D0428430D0C14
:1019F00000194D41002140194D41C00869070843B5
:101A0000E908840F8D002543840024184D412419D2
:101A10006D41121BAB4107E00925ED432C11521912
:101A200063410024401C61411C460A250026551BC9
:101A3000B441F1D270BD0000F8B51F460446012341
:101A40000068DB02032601461840072A05DB002850
:101A500001D017A506E017A504E0002801D016A5BF
:101A600000E016A5102081432160A069C01E002F50
:101A7000A06101D0401EA0612046C046C046002F94
:101A800009D038466268A1689047206A401C2062ED
:101A9000C01C206206E0206AFAE762682878A16824
:101AA0006D1C9047761EF8D22046C046C046F8BD51
:101AB0004E414E006E616E00494E4600696E6600F2
:101AC000F7B516468AB0334878446C4603467C33F3
:101AD000C06F5A689B680DC42E487844763003ACBA
:101AE0000DC80DC43720C001081837211B30FEF780
:101AF000FFFC05460C46803D1B3C02D5644201209C
:101B000000E000200027099010E0E0070CD00C2036
:101B100020497843794432464C39411868460123BC
:101B200000F054FA6B4607C364107F1C002CECD104
:101B3000184F7F442E3F16E0E80712D02001C0194D
:101B40000EC80691089307920068F04201D19819D7
:101B500008903246012306A903A800F037FA03AB28
:101B600007C36D10641C002DE6D10998002806D02B
:101B700032466946012303A800F07EFA05E00123FE
:101B80003246694603A800F021FA0A9B07C30DB04C
:101B9000F0BD000064890100034640000A4610B50C
:101BA000400D0BD00121C9070F24A40200191C030A
:101BB00064082143540D2143D20207E00021012093
:101BC000F2E7D40F490021435200401E0029F8DA01
:101BD000DB0FDB07184310BDFFB50D46144685B07B
:101BE000486851680FF08AFA00910190A868A168CE
:101BF0000FF084FA02910390A86861680FF07EFAF2
:101C0000029A12188242029201D2012000E00020C2
:101C1000019A0B18D2180028019202D08A4202D9E8
:101C200003E08A4201D2012000E000200099081858
:101C300000906868A1680FF061FA029A1218824257
:101C4000029201D2012000E00020019A0B18D21864
:101C50000028019202D08A4202D903E08A4201D2CE
:101C6000012000E0002000990818009028682168F1
:101C700040004900400849084018FA49471814E054
:101C800001994000C90F0843009001980299400053
:101C9000C90F08430190029803994000C90F0843F7
:101CA0000290039840007F1E039000980028E7DA16
:101CB0000898002801D0EC4E00E00026B74201DA77
:101CC000012000E00020002804902AD0F71BF8062D
:101CD000C00E15D0029B2021091A039A8B401A438B
:101CE0000392029A019BC2408B401A430292019ACE
:101CF000009BC2408B4000991A430192C140009161
:101D00007B110DD06F460320C11A03D5002182003C
:101D1000B95003E08A008100BA587A50401EF3D5CA
:101D2000374603980299002800D001200143089803
:101D30000291002808460CD0002800D0012001990B
:101D4000019A490508430121D20AC902D20201922F
:101D500000E001210E9B0122D207012B02D0002BB3
:101D600003D013E0002807D120E0904204D890422D
:101D70000CD1019B0B4209D0019B5918019105D14F
:101D80000099491C009101D17F1C009200280DD0C0
:101D9000102108460020C0460498002806D00F985D
:101DA000002803D0082108460020C0462868216882
:101DB000019B009A4840C10F0598C90739430EC0DE
:101DC00009B0F0BDFFB587B0099A08980899536823
:101DD00092684068896896460022039317469446A5
:101DE000089A12685300099A5B0812685200520858
:101DF0009A1A9E4BD4180A9A002A01D0352200E084
:101E0000402206920022012315460492DB07059327
:101E100024E0002D05D175460346039E4D1BB341BA
:101E200009D375466646039B491B049D9841059B53
:101E30007519AC465F4163463B4308D0059B049E41
:101E4000DD0776082E435B080496059301E0521ED9
:101E5000641EC50FED0749184041521C069B9A426B
:101E6000D7DB002D04D17546039A6B1A824101D24B
:101E700003200CE0039A0B466B404240134303D00F
:101E8000014303D0012002E0022000E0002061466F
:101E900001910021009702910A99002905D061461D
:101EA00040020143704B019102E080070023029041
:101EB0009C4201DA012000E0002007003AD01A1B02
:101EC000D006C00E15D0029D2021019C091AC540E4
:101ED0008C402543029C8C4000D001242543019C6A
:101EE0000295009DC4408D4000992C430194C1404F
:101EF000009154111DD06D460221002202290CD1FF
:101F00000320001B07E0002804DB8600AE59002EEA
:101F100000D00122401C0328F5DB081B02D58800F5
:101F20002A5004E08000285810438A00A850491E17
:101F3000E3D51C460A98002802980CD0002800D04F
:101F400001200199019A490508430121D20AC902D9
:101F5000D202019200E00121109B0122D207012B45
:101F600002D0002B03D013E0002807D11FE09042DD
:101F700004D890420CD1019B0B4209D0019B591807
:101F8000019105D10099491C009101D1641C009276
:101F900000280CD0102108460020C046002F06D093
:101FA0001198002803D0082108460020C046089850
:101FB0000999019A009B006809684840C10F079879
:101FC000C907214382600AC00BB0F0BD00B585B0DF
:101FD000019300920A460146002302A8FFF7FCFD88
:101FE00002A807C805B000BDFFB50A461F4685B068
:101FF0000799019301230091014602A8FFF7ECFD28
:1020000002990398049ECA0F4900D20700920F223A
:10201000490892028C1A0021002800DB0C4645007A
:1020200013486D08844214D3079A002A04DA441E28
:102030000026104DF64302E004460D460E461021E0
:1020400008460020C046002F03D004210846002087
:10205000C0462005E90A0843009908436905F20AC9
:102060001143ADE602C0FFFF013C0000FF3F00004E
:10207000FF070000FFFFFF7F00B585B001930092CE
:102080000A460146002302A8FFF79CFE02A807C8E3
:10209000A8E7FFB50A461F4685B0079901930123BB
:1020A0000091014602A8FFF78DFE02990398049E55
:1020B000CA0F4900D20700920F22490892028C1AD7
:1020C0000021002800DB0C46450011486D088442C1
:1020D00014D3079A002A04DA441E00260D4DF64355
:1020E00002E004460D460E46102108460020C04678
:1020F000002F03D0042108460020C0462005E90A2D
:102100000843009908436905F20A114358E60000A4
:10211000FF070000FFFFFF7F01468008081A020941
:102120001018020A1018020C1018C00882001218A9
:102130005200891A01E0401C0A390A29FBD2704773
:10214000C80212D54803400F002804D0C803C0437A
:10215000012188407047EFF300800001000903214E
:102160000907084380F3008870470020704700008B
:10217000F8B5224C4E00069DA6420AD8A64201D1CF
:10218000002806D15E00A64203D8A6420AD1002A42
:1021900008D00D24240425422CD029460020FFF726
:1021A000CFFFF8BD0C461C430CD4994202D0EFF38C
:1021B0000080F8BD904202D0EFF30080F8BDEFF34D
:1021C0000080F8BD09242407E5008B4206D0EFF318
:1021D0000080A043591A06D2284304E0101A05D300
:1021E000EFF30080A04380F30088F8BDEFF3008098
:1021F000A043F1E7009500F007F9F8BD0000E0FF0B
:10220000F0B53D4B02460C461C400020002C63D02C
:102210003A4D8B4366D000296BDB0B0D1D05A9439E
:1022200001252D0529430124FD33E34001D39218F4
:102230004941FF3381339C468B02940D0121234396
:1022400089074C42920200271B198C105D1A04D496
:102250002D1B02D42B466500491992185B41640876
:10226000F4D15C1A08D40125ED07EE175519744115
:1022700002D42A462346491C94185B410122920746
:102280001D46E61B8D4106D4B61A854103D42B4664
:10229000550034467F1924195B415208802AEFD13A
:1022A000234300D0022338460A22D04001D3012222
:1022B00013438A0510436246890A12058918002BC8
:1022C00009D00122D34002D30022401C5141002BEF
:1022D00001D140084000F0BD0B03134307D0C90FE4
:1022E000C907F0BD0803104303D1002901DB1046E4
:1022F000F0BD00202946F0BD0000F07F0000F87F0F
:1023000010B5024800F08AF810BD00000000C07F40
:1023100000487047C40200207546FFF7F9FFAE463B
:10232000050069465346C008C000854618B020B570
:10233000FDF702FF60BC00274908B6460026C0C56D
:10234000C0C5C0C5C0C5C0C5C0C5C0C5C0C5403D6D
:1023500049008D46704710B50446C046C046204629
:10236000FDF767FF10BD000082078B079A4237D147
:1023700070B5920F0AD0032402780B78401C491CD8
:10238000002A2BD09A4229D12042F5D11D4EF401CA
:1023900004C808C9951B9543254010D19A4207D11E
:1023A00004C808C9951B9543254008D19A42EFD02F
:1023B00012BA1BBA01209A4200D2404270BD12BA32
:1023C0001BBA2DBA18241000E0401900E140401A51
:1023D00005D12E00E64002D1083CF4D1D01A70BDE0
:1023E00002780B78401C491C002A09D09A4207D178
:1023F00002780B78401C491C002A01D09A42EFD089
:10240000D01A70470101010110B500200249029A5B
:1024100000F004F810BD00000000F87F10B50C4675
:102420001107090F092904D00A290AD008290CD15B
:1024300004E011460820FFF783FE06E0510606D5AA
:1024400001E0510601D50120C007214610BDD1068B
:1024500007D501010909CC084907000E000604430D
:1024600009E0410F20024907000A0143200E00063F
:102470001D22D14101430846E7E700000149182029
:10248000ABBEFEE72600020070478030C160704797
:1024900080220029016801D0114300E091430160CE
:1024A0007047000010B504210348FFF7EEFF034911
:1024B0000120087010BD000000000140080000204D
:1024C00080308068084000D001207047F0B50025BA
:1024D00087B002952E46039500247B4F03223C7063
:1024E00023461146794800F03FF9022200231146A5
:1024F000764800F02AF9012200231146734800F0C3
:1025000024F900231A461946704800F01EF90121EB
:102510006E4800F03FF9387800280ED17D273F0142
:102520000220641C0EF014FFBC4202DB002007B046
:10253000F0BD654800780028F2D06448016B426B1A
:102540000905090D6D1802991205120D89180291DD
:102550000399806B761C0005000D08180390052E6A
:10256000BADB28463146FDF7B5FF019031460298A7
:10257000FDF7B0FF044631460398FDF7ABFF074671
:102580002046FEF74DFF52490FF07AFF514C206173
:10259000FEF71AFE05460E463846FEF741FFFEF7E7
:1025A00013FE00224C4BFEF7EBFC2A463346FEF7A7
:1025B00050FAFEF787F84949FEF730FE48490FF018
:1025C0005FFF414D0646E0606878002809D0A868A2
:1025D000FEF71EFF31460FF053FF4249FEF71EFE85
:1025E000E0600198FEF71CFF39490FF049FF0746EC
:1025F0000121C9023C4804F015FC01283FD03846AF
:10260000FEF7E2FD0022394BFEF72EFA05460E4694
:10261000374938460FF034FFFEF7D6FD2A463346D9
:10262000FEF73AFAFEF74EF83249FEF7F7FDFEF7ED
:10263000CBFD0EF0CBFE00222F4BFEF72DFA2F4ADA
:102640002F4BFEF7F9F902460B4600202D49FEF705
:1026500023FAFEF737F8FEF7B7FD2B4A2B4BFEF7B0
:10266000F8F9FEF72FF82A490FF09AFE2949884217
:1026700002D8294988421BDD002020701AE0274932
:102680003846FEF7CBFD0646A0606878002809D0E2
:102690006868FEF7BDFE31460FF0F2FE1149FEF705
:1026A000BDFDA0600121C9020F4804F077FB07E0DF
:1026B0000121217001216060C9020B4804F0B7FBC1
:1026C000012007B0F0BD000008000020000001401C
:1026D0000000203A240100200000443F000048424E
:1026E00000007AC400007A4400200B40000004403F
:1026F000000020410000704100F4AA4083DBB5DCFB
:10270000E1796B3F0000F03F6666666666127140D5
:10271000000040C0000020C20000FA428C2EBA3DEA
:1027200010B504210348FFF7CBFE012801D1FFF7C4
:10273000B9FE10BD000001408030002A026801D0BF
:102740000A4300E08A4302607047930830B49B005C
:102750001B1858689207D40E1F22A2409043A14034
:102760000843586030BC70475B1E12021B04FF3ADE
:10277000013A13430B430168802211400B4303606D
:102780007047CA06D20E026749094901416770477E
:10279000016270470029416F02D00122114301E01C
:1027A000490849004167704710B40022072801D941
:1027B000012208389300064A9B181A6880000F24EB
:1027C0008440A24381401143196010BC704700004F
:1027D00000200240F0B5374BC000C61893B048083F
:1027E0000E9010010C908808069010020B90C808FB
:1027F00005901003099008090490100408904809F6
:102800000A90100507908809864610060390C809AB
:1028100000258446100702900020FF24AC400346A8
:102820000C4240D00124AC40214201D00F2013467D
:102830000E9F274203D0F02738430C9F3B43069F4F
:10284000274204D00F273F0238430B9F3B43059F8D
:10285000274204D00F273F033843099F3B43049F7F
:10286000274204D00F273F043843089F3B430A9F69
:10287000274204D00F273F053843079F3B43774645
:10288000274204D00F273F063843039F3B43674648
:10289000274204D00F2424072043029C234334689A
:1028A00084431C4334600835361D092DB4DB13B056
:1028B000F0BD00002020024070B584B0184E002505
:1028C000164C334617A221210A200195009407F0E7
:1028D00031FF0C200190174B17A221210295009483
:1028E0005B2008F091F9334616A23121382001957A
:1028F000009407F01FFF731015A240210A200195D4
:10290000009408F0B7F8154B15A240215E20019500
:10291000009408F0AFF804B070BD0000108400000F
:10292000FFFF0000B9D8D7A2DFD9C1A8DFD9C1A85D
:1029300000000000E0FF0000404D503836393537C8
:1029400000000000D0BBD0BBDFF7A3A10000000057
:102950004A756C20323120323032350020FD0000C3
:1029600031323A32313A33360000000070B5104C43
:102970000026A079052809D10E4D0121687848402C
:10298000687002D001200CF001FA2E70A0790428A2
:1029900009D100200CF0FAF907480078002804D08B
:1029A00006480DF0AFFEA67170BD0548F9E70000BE
:1029B00018000020EC00002038000020208E0100CC
:1029C00034930100F0B5494F0C2638780024484D67
:1029D00083B000281BD0787800280BD003F058F97A
:1029E000034644A2312138200095019407F0A2FE4D
:1029F00003B0F0BD03F04CF9034641A22821372073
:102A000001960095029408F0FFF803B0F0BD0BF0BA
:102A100057F979783D4B00290095019429D03C4A1B
:102A200021210A2007F086FE3A4B3B4A21215B20F8
:102A300001960095029408F0E7F8344B374A3121AB
:102A400038200095019407F075FE354B354A40213A
:102A50000A200095019408F00DF8334B334A4021C9
:102A60005E200095019408F005F80120387003B04D
:102A7000F0BD2FA21521042007F0FCFF234B32A24A
:102A8000282104200095019407F054FE1F4B1CA23E
:102A90002821372001960095029408F0B5F81B4BC9
:102AA0002CA2282185200095019407F043FE174BA6
:102AB0002AA23D2107200095019407F03BFE134B0D
:102AC0003A223D21392001960095029407F092FDAB
:102AD000134B25A23D21402001960095029408F059
:102AE00093F80120387003B0F0BD0000EC00002026
:102AF00010840000D0BBD0BBDFF7A3A10000000012
:102B000052656473746F6E6572333500FFFF0000A9
:102B100024290000E0FF00003829000044290000BB
:102B2000FF7F00005029000020FD00006029000008
:102B3000444645782D47543936D6C7BBDBB5E7B395
:102B4000D8D7D3CFB5CDB300C8EDD3B2BCFED3C96F
:102B500000000000C9E8BCC600000000B9CCBCFE03
:102B6000B0E6B1BE0000000056312E332042756938
:102B70006C64380010B502480DF0C4FD10BD0000B3
:102B80009C9601000248002181704170704700004E
:102B9000F2000020F0B5AA4CAB486278A949007851
:102BA00001270026A94D83B0072A3FD213007B449A
:102BB0001B79DB189F44033CB45ECAF1F1000BF0B3
:102BC0007FF8A34BA3A216210E200196009507F0D3
:102BD000B1FDA648417800290AD10078022807D023
:102BE00002F0E0FE002807D003206070A7701BE011
:102BF00003206070A07017E0684604F0D7FD00283D
:102C00000BD00121002004F094FD002808D0684674
:102C10000078072806D0677006E00320607003E0A4
:102C2000032000E0022060708748077003B0F0BD09
:102C30000F70854F0028F9D00BF042F8844B85A225
:102C400016210E200196009507F074FD884B89A28D
:102C5000252111200196009507F00CFF8A483E704F
:102C600000780028E2D0072802D00220A0706BE094
:102C7000022065E00F700028D8D00BF021F81F2348
:102C8000DB0282A216210E200196009507F052FD6C
:102C9000A07800280FD0012804D0022814D00328DF
:102CA00021D118E0724B7FA22521202001960095AA
:102CB00007F040FD17E06E4B7EA2252120200196F3
:102CC000009507F037FD0EE02521694B7DA211200C
:102CD0000196009505E0664B7FA2252120200196F4
:102CE000009507F027FD5A4C7FA223463D21202066
:102CF0000196009507F01EFD0C2001905C4B7CA214
:102D00003D21029600953B2007F07EFF234679A2E5
:102D10003D2156200196009507F00CFD03B0F0BD53
:102D20000125022006F072F9002800D100250121BA
:102D3000002004F0FEFC002805D0002D03D0042064
:102D4000607003B0F0BDA6700320F9E747480F702C
:102D50004178002902D10078022801D10520607055
:102D600002F020FE002802D00620607002E06078A9
:102D7000042826D061480078002804D000210120D2
:102D800004F0D7FC0FE05E480078002806D05D48CC
:102D90000178012004F0CDFC05E01CE05A480178E0
:102DA000012004F0C6FC002006F030F90025642064
:102DB0000EF0A8FA6D1C052DF9DB032006F026F9AC
:102DC0002670214800780028BBD00AF079FF00F077
:102DD000B7F803B0F0BD0F701B4F0028F9D00AF010
:102DE0006FFF6078494B06280196009522D048A2D3
:102DF00016210A2007F09EFC154C3BA223463D21DC
:102E000020200196009507F095FC0C200190184BAE
:102E100037A23D21029600953B2007F0F5FE2346A0
:102E200034A23D2156200196009507F083FC3E70A8
:102E300003B0F0BD3CA216210A2007F07BFCDBE7C3
:102E4000F20000208A0000208C0000201084000086
:102E5000FFFF0000CACAC5E4C6F7C4A3C4E2BFAA04
:102E6000C6F4D6D0A1ADA1AD0000000095000020B1
:102E7000E0FF0000C7EBBDABB8BAD4D8C1ACBDD33E
:102E8000B5BD55534200000092000020CACAC5E4F7
:102E9000C6F7C4A3C4E2BFAAC6F4CAA7B0DCA3A104
:102EA00000000000B5E7B3D8B5E7D1B9B9FDB5CD9D
:102EB00000000000D0BEC6ACCDA8D0C5B4EDCEF3A6
:102EC00000000000CFB5CDB3B4A6D3DAB7C7D5FDA7
:102ED000B3A3C4A3CABD0000CFB5CDB3B3F6CFD65C
:102EE000B9CAD5CF00000000B0B4CFC200000000C6
:102EF00045534300D2D4CDCBB3F600000D010020E2
:102F0000130100204B0000201401002000F80000F5
:102F1000CFB5CDB3B3F6CFD6B9CAD5CFA3ACC4A382
:102F2000C4E2CDA3D6B90000B5E7B3D8B5E7C1BFB9
:102F3000B9FDB5CDA3ACC4A3C4E2CDA3D6B90000FE
:102F4000F0B5F24885B000780026F14C00280196D3
:102F5000009404D01721EF4BEFA2162004E03F238A
:102F60005B01F2A21721192007F0E4FBF44FF5A250
:102F70003B462C2106200196009407F0DBFB0C2534
:102F80003B463A222C211E2002960195009407F020
:102F900031FBEE48807A002878D0ED480178ED4882
:102FA000002974D0EC49006809680FF069FA400004
:102FB000EA494008884209DA024602232C212920E6
:102FC00000970295019407F071FC17E0E4498842EC
:102FD00009DA024601232C21292000970295019449
:102FE00007F064FC0AE0FEF7C9F982B204232C2141
:102FF000292000970295019407F080FD3B46572257
:103000002C21522002960195009407F0F3FACF4943
:10301000087A002804D001284ED0022855D05DE05F
:10302000487A01285AD0082845D201007944097904
:1030300049188F449595030D17212D373B46C9A29A
:103040002C21672002960195009407F0DDFD87E0B2
:103050003B46C6A22C21672002960195009407F0FA
:10306000D3FD7DE0C34BC4A22C21672002960195BD
:10307000009407F0C9FD73E0BE4BC1A22C2167206C
:1030800002960195009407F0BFFD69E057E02CE03F
:10309000BD4BBEA22C21672002960195009407F03B
:1030A000B3FD5DE0B84BBBA22C21672002960195D1
:1030B000009407F0A9FD53E03B46B8A22C216720FD
:1030C0000196009407F036FB4AE03B46B5A22C215E
:1030D00067200196009407F02DFB41E02C213B4630
:1030E000B2A267200196009438E0A24900910295AF
:1030F0000194026802232C21292007F0D7FB3B46CC
:1031000056222C21522002960195009407F072FA63
:103110009148022300682C2142009B4800905208ED
:1031200002950194672007F0C1FB3B4641222C2108
:10313000902002960195009407F05CFA10E0924B03
:103140009DA22C21292002960195009407F05CFD98
:103150003B469BA22C2156200196009407F0EAFAE8
:103160003B4699A23D2106200196009407F0E2FA21
:103170003B463A223D211E2002960195009407F01D
:1031800039FA73480078002873D091489149006853
:10319000420052088A4200DA00208F4909680FF085
:1031A0006FF940006D494008884209DA024602235F
:1031B0003D21292000970295019407F077FB17E045
:1031C0006749884209DA024601233D2129200097F8
:1031D0000295019407F06AFB0AE0FEF7CFF882B28D
:1031E00004233D21292000970295019407F086FCD5
:1031F0003B4657223D21522002960195009407F04C
:10320000F9F97648017800291CD04068FEF7B6F835
:10321000002821DAFF274042D03703903B462D2279
:103220003D21029601950094672007F0E3F9039889
:10323000009782B20295019402233D21672007F096
:103240005DFC27E03B4666A23D2167200296019582
:10325000009407F0D9FC55E00A2801DA1F2710E096
:103260006049896B0A46143A824203DD3F277F0199
:1032700007E019E00839814201DD434F01E01F27D3
:10328000FF0282B202233D2167200097029501943C
:1032900007F034FC3B4654A23D218820029601955C
:1032A000009407F063FA2DE0324800904A480295F6
:1032B0000194026802233D21292007F0F7FA3B46DA
:1032C00056223D21522002960195009407F092F972
:1032D0003F48006842003F485208824200DA00221C
:1032E0002948009002233D2102950194672007F0B0
:1032F000DDFA3B4641223D21902002960195009443
:1033000007F078F93948067005B0F0BD4C00002090
:103310001084000020FD0000CFB5CDB3B9FDC8C8B2
:10332000A3ACC4A3C4E2D4DDCDA30000CACAC5E4E3
:10333000C6F7C4A3C4E2D2D1BFAAC6F400000000FD
:10334000FFFF0000CAE4B3F60000000054010020B3
:1033500090000020980000209C0000200000C8423F
:1033600000007A4450442037560000005044203971
:1033700056000000FF7F000050443132560000002C
:103380005044313556000000E0FF00005044323018
:10339000560000005044455052000000B8DFD1B93B
:1033A00000000000B8DFC1F700000000BFECB3E48C
:1033B000B9D8B1D500000000547970652D430000E4
:1033C000CEB4C1ACBDD30000B5E7B3D80000000057
:1033D000A4000020CDCC4C3DA00000202401002002
:1033E0002D2D2D00B4010020A1E600008C0000204E
:1033F00038B5114D0024A879042819D10F49104877
:103400000A78002A0CD00C70047000215023A022EE
:103410000846009406F0DCFD0A480DF073F905E05B
:103420000078002806D008480DF06CF902F0FAFB8D
:10343000AC7138BD0548F7E71800002011010020E5
:1034400038000020DC890100208E01003493010047
:1034500010B500230FA210A148200CF023FD124A42
:103460001248917F0378994211D00170002901D050
:10347000012906D102210170917701210C480DF03C
:1034800009FE06F07FFE80210A4803F087FC09F060
:1034900035FE10BD32460000C9E8D6C3CFD4CABE3F
:1034A000B7BDCFF200000000D401002007000020CB
:1034B000B401002000400B4008480821C1700A21D7
:1034C00081600749097A002906D00649097900294F
:1034D00001D04B2189014160704700003C00002071
:1034E00070020020B002002070B50D4C002560680D
:1034F000012807D000280BDDE178002909D0491EFA
:10350000E17009E007486560057103F0F1FBA56013
:1035100070BD0821E1702570401E606070BD000024
:103520003C000020B0020020F8B568490120087076
:10353000FF206749E13008606748664C8279674838
:103540006849057820468378654866780078097868
:10355000062E5ED237007F443F79FF19BF44022C0C
:103560005A67839B002803D0052801D05023A370FD
:103570005E4B5D4E1E60A378002B0BD0042A15D045
:10358000072813D05548A94243D0594B01221A703D
:10359000017096E0012565700BF060FC0A200DF0CB
:1035A000B1FE2570012005F031FD8AE0504901206F
:1035B00008700520607084E04C49484B0868460755
:1035C0002E4312D0450701D000251D70042A04D0D7
:1035D000484A494B92689A4210DA454A01201070D5
:1035E000002008600520607011E0414E0125357013
:1035F0001D70424B5D696D1C5D61E7E7002860DC72
:103600003B4901200870022060702820A0700BF058
:1036100025FC56E0002803D0072801D00320607065
:10362000002B4ED1042060701820A07049E00026C5
:103630002E4F00283E6004D0052802D05023A370EE
:1036400001E0002BEED00728ECD0042A03D0234859
:10365000A94236D099E726490120087005206070FC
:103660000BF0FCFB2DE003432BD120480024234D1D
:1036700004602846AC6201F0D3FFA8640DF030FD71
:1036800000215023A0220846009406F0A1FC1C480B
:103690000DF038F815E0042A13D114480024046012
:1036A000164801F0BDFF154988640DF019FD002191
:1036B0005023A0220846009406F08AFC10480DF022
:1036C00021F8054900208871F8BD00008A0000201B
:1036D000040000200401002018000020FE0000204B
:1036E0009200002090000020803202006000002044
:1036F000FD000020240100209A9921417002002041
:10370000DC890100F1480078002803D1F048807975
:1037100000286ED0F0B585B00AF0D2FAED480C263C
:1037200040780025EC4C062871D2010079440979D3
:1037300049188F4402FEFD02FCFBE849097805297F
:103740003DD0062945D0E64B0328019500944AD088
:10375000E4A21621212006F0EDFFE64FE6A23B464B
:10376000282106200195009406F0E4FF3B463A220A
:1037700028211E2001960295009406F03BFFE048A8
:103780000078002879D0DF480268DF4851004908F6
:10379000814200DA0022DD48016810460EF070FE1A
:1037A0004000DB494008884224DA024602232821EF
:1037B000292000970296019407F078F833E03F2320
:1037C0005B01D4A2162121200195009406F0B2FFDE
:1037D000C3E71F23DB02D3A2162121200195009409
:1037E00006F0A8FFB9E7D3A21621212006F0A2FF18
:1037F000B3E769E1D34988420ADA02460123282166
:10380000292000970296019407F050F80BE03DE163
:10381000FDF7B4FD82B204232821292000970296E7
:10382000019407F06BF93B4657222821522001965C
:103830000295009406F0DEFEC348017800291DD0F1
:103840004068FDF79BFD002822DAFF274042D03771
:1038500003903B462D222821019602950094672073
:1038600006F0C8FE0398009782B2029601940223E4
:103870002821672007F042F927E030E03B46B3A259
:103880002821672001960295009407F0BDF9FDE01C
:103890000A2801DA1F270FE0AD498A6B1146143957
:1038A000814202DD3F277F0106E0083A824201DDC6
:1038B000A84F01E01F27FF0282B2022328216720C0
:1038C00000970296019407F019F93B46A2A228211D
:1038D000882001960295009406F048FFD6E09F48A4
:1038E00000908A4802960194026802232821292028
:1038F00006F0DCFF3B465622282152200196029515
:10390000009406F077FE7F48006842007E48520827
:10391000824200DA00228F4800900223282102967A
:103920000194672006F0C2FF3B4603E0A5E09CE05F
:103930008BE006E041222821902001960295009418
:1039400026E06C4B86A2162121200195009406F0FA
:10395000F1FE6B48007800281DD0664F84A23B46DC
:10396000282119200195009407F084F87810009020
:103970006648029601940268022328214F2006F02F
:1039800095FF3B4656222821782001960295009407
:1039900006F030FE7AE079480068C117490F081830
:1039A000C010E12109010190FCF7A2FD009008463A
:1039B0003C21FCF79DFD07463C210198FCF798FD52
:1039C0000098039104904B4B6DA22821019500941F
:1039D0000E2007F04FF83F20400100900498029617
:1039E00082B2019401232821332007F087F8414B4C
:1039F00065A228213E200196009406F09BFE3F2000
:103A000040010090BAB202232821029601944E2070
:103A100007F074F8374B5DA22821622001960094CC
:103A200006F088FE3F200399400100908AB202967A
:103A3000019402232821722007F060F828212D4BE1
:103A400053A28620019600941EE02A4F51A23B46C5
:103A500016210A200195009406F06CFE28213B46B1
:103A600052A22E20019500940EE03F235B012221FB
:103A700051A221200195009406E01F23DB0252A2EF
:103A800022211B200195009406F054FE194F53A2E9
:103A90003B463D2120200195009406F04BFE2D4B26
:103AA00050A23D213B2001960295009407F0ACF80E
:103AB0003B464DA23D2156200195009406F03AFE6A
:103AC0000248057005B0F0BD70470000FD00002001
:103AD0001800002004010020108400009200002043
:103AE00020FD0000B5E7B3D8B0FCB3E4B5E7D6D00D
:103AF000A1AD0000FFFF0000B5E7B3D80000000053
:103B000090000020A4000020CDCC4C3DA00000205F
:103B10000000C842C8B7C8CFB3E4C2FAD7B4CCAC2F
:103B2000A1AD0000B5E7B3D8B0FCB3E4B5E7D2EC83
:103B3000B3A30000B5E7B3D8B6FEB4CEB2B9B5E7CB
:103B4000D6D0000000007A44240100202D2D2D0045
:103B5000B4010020E0FF0000A1E60000FF7F0000AC
:103B6000D7D4B6AFBEF9BAE2D4CBD0D0D6D000000D
:103B7000B5E7B3D8B5E7D1B93A000000600000203E
:103B8000CAA3D3E03A000000CAB10000B7D60000D3
:103B9000C3EB0000C8B7C8CFCAC7B7F1BFC9D2D4FA
:103BA000B6FEB4CEB2B9B5E700000000C7EBC9D489
:103BB000B5C8A1ADA1AD0000D7D4B6AFBEF9BAE289
:103BC000D2D1BDE1CAF80000D7D4B6AFBEF9BAE28F
:103BD000D2ECB3A3BDE1CAF800000000B0B4CFC27C
:103BE0000000000045534300D2D4CDCBB3F6000013
:103BF00003498878002801D0401E88707047000073
:103C00000401002008B500205023A02201460090A6
:103C100006F0DEF9002103480DF03CFA02480CF0F2
:103C200071FD08BDB4010020DC89010010B5054814
:103C30000078002803D004480CF064FD10BD034850
:103C4000FAE7000038000020208E010034930100C4
:103C500010B502480CF056FD10BD0000208E01008A
:103C600010B502480CF04EFD10BD00003493010069
:103C700010B5094CA07904280AD10848007800281A
:103C800007D007480CF03EFD00200649A0710870DF
:103C900010BD0548F6E7000018000020380000209D
:103CA0006C8F0100C100002034930100F8B53F4C37
:103CB0003F4E217800270125B079002906D001293F
:103CC0002CD0022959D0032967D156E0012804D00D
:103CD000022807D004280BD011E060680A285FDAB8
:103CE000401C03E0606801285ADD401E606057E018
:103CF00030480078002806D02F480CF003FDB0793A
:103D0000032802D049E02D48F7E7E1216068C901A6
:103D100048432B4908602570657041E0FF21E1317F
:103D2000284A0428116004D027482849806888421E
:103D300004DA23486570076003201CE0204800680F
:103D400000280EDDA2784107114303D0400724D09C
:103D5000A77022E065701E48A5704169491C416149
:103D60001BE01B48876201F05BFC194988640DF079
:103D7000B7F96570022020700FE004280DD11448B7
:103D800001F04EFC124988640DF0AAF90948007848
:103D9000002808D008480CF0B5FCB079002800D005
:103DA0006570B771F8BD0548F5E70000FC0000201C
:103DB0001800002038000020208E010034930100FC
:103DC0006000002004000020240100209A99214175
:103DD00070020020F0B5A04C87B06078002803D1B5
:103DE0009E48807900287DD009F06AFF9A489C4C53
:103DF00001789C4F0C260025002906D0012942D0CD
:103E0000022970D003296FD100E1964B96A21521AB
:103E100023200195009406F08DFC924B96A22A2156
:103E200020200195009406F085FC954F8A48009764
:103E3000029601948088022382B22A21362006F05D
:103E40005DFE884B8FA22A2146200196009406F041
:103E500071FC844B8EA23D2120200195009406F038
:103E600069FC3B468CA23D213B20019602950094C3
:103E700006F0CAFE7B4B89A23D2156200195009495
:103E800006F058FCE4E03F235B0186A216212120C6
:103E90000195009406F04EFC86480068C117490F52
:103EA0000818C010E12109010190FCF721FB0090E6
:103EB00008463C21FCF71CFB04903C210198FCF7D0
:103EC00017FB00980094039105903B467AA22821A5
:103ED00001950E2006F0CEFD3F2040010296019490
:103EE000009002E0B6E051E0B2E00598012382B212
:103EF0002821332006F002FE3B4671A228213E20F5
:103F00000196009406F016FC3F20400100900498B2
:103F1000029682B20194022328214E2006F0EEFD83
:103F20003B4668A2282162200196009406F002FC1C
:103F30003F200399400100908AB202960194022327
:103F40002821722006F0DAFD3B465FA22821862058
:103F50000196009406F0EEFB3B464DA23D21202049
:103F60000195009406F0E6FB454B4BA23D213B201A
:103F700001960295009406F047FE3B4647A23D217C
:103F800056200195009406F0D5FB61E03F235B01CC
:103F90004EA2162121200195009406F0CBFB3B4652
:103FA00035A2292120200195009406F0C3FB3F2073
:103FB000400100902848029601948088022382B232
:103FC0002921362006F09AFD3B462EA229214620C3
:103FD0000196009406F0AEFB3B462DA23D21202029
:103FE0000195009406F0A6FB254B2BA23D213B201A
:103FF00001960295009406F007FE3B4627A23D215C
:1040000056200195009406F095FB21E01F23DB026A
:1040100032A216211C200195009406F08BFB3B4632
:104020001BA23D2120200195009406F083FB144B38
:1040300019A23D213B2001960295009406F0E4FD73
:104040003B4616A23D2156200195009406F072FBD6
:104050000148457007B0F0BDFC00002018000020AA
:1040600010840000FFFF0000C7EBD6B8B6A8BEF969
:10407000BAE2CAB1BCE40000B9B2BCC6000000009C
:10408000E0FF0000BEF9BAE2D0A1CAB10000000012
:10409000B0B4CFC20000000045534300D2D4CDCB12
:1040A000B3F60000CAD6B6AFBEF9BAE2D4CBD0D0D0
:1040B000D6D0000060000020CAA3D3E03A00000080
:1040C000CAB10000B7D60000C3EB0000CAD6B6AF35
:1040D000BEF9BAE2D2D1CDEAB3C90000CAD6B6AFB2
:1040E000BEF9BAE2D2ECB3A3BDE1CAF80000000009
:1040F00010B5002314A215A134200BF0D3FE00212B
:10410000012008F068FC04460021012008F01FFC93
:1041100004400021012008F0D6FB204207D10323F0
:104120000EA20FA134200BF0BDFE0AF0CFFD00233C
:104130000FA210A135200BF0B5FE1248C16E806EA3
:1041400005F018FD10BD000033300000BEF9BAE2E2
:10415000BFD8D6C6C6F7C5E4D6C3000033450000B5
:10416000BEF9BAE2BFD8D6C6C6F7D2ECB3A30000F8
:1041700033310000D3A6D3C3414443D0A3D7BCCA34
:10418000FDBEDD00B401002010B50021012008F0C3
:1041900022FC10BDF0B583B0002768460771077098
:1041A00003F004FB434D444EA868002806DD684632
:1041B0000078052801D0EF6017E0AF60F0683F4954
:1041C00040004008884203DA68460078032832D06D
:1041D000E868002801DD401EE8600F21890188425F
:1041E00003DB2D204001EF60A86003F0BBFB697882
:1041F000334F814211D0687000280ED068680028C3
:104200000BDCF878002819D02E492F48806A0EF070
:104210000DF902D32D480CF075FA01A803F0C6FA87
:104220002B49B068884237DB6868002808DD401EEB
:104230000124686031E0E868401CCDE72549E4E7E7
:10424000A868002803DD401E0024A86025E022485D
:10425000007803281ED068460079002803D11F4942
:104260000968082918DDF978002915D001290DD031
:10427000022902D0032910D10CE001280AD002281B
:1042800008D0032806D0052806D103E0042803D06F
:10429000002801D0012400E000242878A04206D0A4
:1042A0002146012008F097FB002800D02C7003B0B5
:1042B000F0BD00005C00002024010020CDCC4C3E6D
:1042C000F40100200000844170020020889A01005F
:1042D0009A99214100003841050100200400002086
:1042E00010B5024805F0CAF810BD0000E8A10100B1
:1042F00010B5024805F0C2F810BD0000C8A10100C9
:1043000003498968014201D00120704700207047AD
:104310000080084004494A680123DB029A43C00236
:1043200002434A607047000000800840F0B4084F24
:104330007D6AFE6A3C6B85438E439443002B02D01A
:1043400005430E4314437D62FE623C63F0BC70473C
:104350000080084010B4054B9A6A07248440A243A9
:1043600081400A439A6210BC7047000000800840F8
:1043700010B50021802001230A4609F00DF810BD78
:10438000002A05DD0B780373491C521E002AF9DC54
:1043900080687047F8B54A4C0420205E002801DD93
:1043A000401EA0806078012803D0022801D0072891
:1043B00029D14449012008702078002801D0401EEE
:1043C00020704148007800281DD04048007801281E
:1043D00003D0022801D0032815D13D4800780028D9
:1043E00011D13749A6783B4DCF688868002E0BD095
:1043F000A9680DF0D5FFA0603846E9680DF0D0FF40
:10440000761EE060A670F8BD0221C943FDF70CF8E6
:1044100006460221A060C9433846FDF705F82E4F35
:10442000E060F9694900090E03D12C49884200DB9C
:10443000FE6178683146401C7860B8690EF078F803
:1044400001D2B86900E0A068B861F868E1680EF0D0
:104450006FF801D2F86800E0E068F860287800287A
:1044600006D0696838690EF063F804D2386903E051
:104470001B48386101E068683861E56819496800DF
:1044800040080DF0FDFF184E3146FCF7C7FEB96835
:104490000DF086FFB8602946A0680DF0F1FF4000DE
:1044A00040083146FCF7BAFE396A0DF079FF3862F0
:1044B0000020A0600821E060A170E070F8BD00005D
:1044C000B00000208A000020880000209200002018
:1044D00054000020240100204C0200209A99193E2B
:1044E0000000C8C200007A4400006145F8B5604988
:1044F0005D48604A8E685D4B5F49447815789B7AC9
:1045000000220978062C1CD227007F443F79FF192E
:10451000BF44023597175B4F584CE57F022D05D0FD
:10452000574C2478002C12D00C219AE0072909D08E
:10453000062909D001214170E277002151480CF091
:10454000A9FDF8BD0A2100E00B214170F8BD072943
:1045500004D0062904D0002906D103E00A2180E016
:104560000B217EE0002B01D008217AE046498E42E3
:1045700001DB092175E0012173E0C270F8BD002B59
:10458000FCD0082912D20B007B441B79DB189F4416
:104590000D0505050D050403D4E7D5E73B49CE61BC
:1045A00082600821C260817002215AE0022CE4D0AE
:1045B000F8BD002B07D00729D0D00629D0D0002D78
:1045C000F6D102214DE006214BE0002B08D007294F
:1045D00008D0062908D0002D08D00521417009E037
:1045E0000621FBE70A21F9E70B21F7E7052902D0AD
:1045F00002214170C2700421415E0029D8DCC270E2
:1046000003214170214C01202070E668204930468A
:104610000DF036FFA5682946FCF700FE60611D4AD3
:10462000216863686AC2E569A3692169D5609360FE
:1046300011605060206A1061002120460CF002FDDC
:10464000F8BD002BBFD0072988D0062988D0002DBF
:1046500001D0052105E00529F2D10F2189018180D2
:104660000421417089E70000B000002054010020BF
:10467000240100205400002092000020D4010020DA
:1046800013010020B4010020CDCC44414C02002095
:1046900000007A4424020020FC48C078002803D09F
:1046A000FB48807900287DD0F0B585B009F008FB83
:1046B000F64840780D2800D3DBE2010079440979FF
:1046C00049188F4406185FFD3C4EFCFBFAF9FAF8D6
:1046D000F700F14E0025EF4C3346F0A221211B20BC
:1046E0000195009406F026F82F213346F0A22E20E3
:1046F00001950094F2E2F148152300904B221946EF
:10470000282006F055FAEE4E0025E24C3346EDA285
:104710002F211B200195009406F00CF80C2001902D
:104720003346EDA23D2102950094242006F06CFA58
:104730003D213346EAA2512001950094CEE2E04E9D
:104740000025D44C3346E8A2212114200195009481
:1047500005F0F0FF2F213346D5A22E2001950094BD
:10476000BCE20025CB4CE54BE5A2212114200195AC
:10477000009405F0DFFF2F21D14BE6A21420019514
:104780000094ABE20025C34CC34BE7A213211420D5
:104790000195009405F0CEFFE74F38798007800F30
:1047A00004D000E0F1E3012813D10AE00C200190CD
:1047B000B94BC1A21321029500946F2005F0D6FFDA
:1047C00007E0B54BDDA213216F200195009405F0A1
:1047D000B1FFBB4BDBA2232103200195009405F020
:1047E000A9FFD548DA494068884250D9FBF772FEE4
:1047F000C2490C2782B2009102230297019423211F
:104800003C2006F07BF9AE4BD2A223214F2001972A
:104810000295009405F0AAFFC748CD494068FBF710
:1048200059FE0846E1210901FBF754FEB34982B263
:10483000009102230297019423215D2006F05EF986
:104840009F4BC5A223216F2001970295009405F08C
:104850008DFFB948E12140680901FBF73BFE08469E
:104860003C21FBF737FEA54982B200910223029753
:10487000019423217C2006F041F9914BB7A223211A
:104880008F2001970295009405F070FF54E0E1211C
:104890000901FBF71FFE99490C2782B20091022300
:1048A0000297019423213C2006F028F9844BAAA208
:1048B000232106E06BE36BE36BE333E3C2E20AE33D
:1048C0004AE24F2001970295009405F04FFF9A4865
:1048D000E12140680901FBF7FDFD08463C21FBF79B
:1048E000F9FD864982B200910223029701942321A7
:1048F0005D2006F003F9724B98A223216F200197E7
:104900000295009405F032FF8B483C214068FBF78C
:10491000E1FD7A488AB20090022323210297019494
:104920007C2006F0EBF8664B8DA223218F200197A7
:104930000295009405F01AFF614B8AA232210320F0
:104940000195009405F0F6FE7B488849006A88428C
:104950000BDA0C2250490292009102460123019485
:104960003221212005F0A2FF0CE00CF017FD82B2ED
:104970000C21494802910090032301943221212007
:1049800006F0BCF80C27444B79A232213C20019759
:104990000295009406F038F97648494B0078019565
:1049A000002800943DD074A23221572005F0C2FEA9
:1049B0003F204001009072480297019482680123D1
:1049C0003221732005F072FF3F235B015622322112
:1049D000932001970295009405F00CFE384B69A2D4
:1049E000402103200195009405F0A4FE5248674938
:1049F0008068884248DA0CF0D1FC82B21F20C002E5
:104A000000900223402102970194212006F076F8BD
:104A10001F23DB0240215EA2332001970295009400
:104A2000D5E05CA23221572005F084FE5448C168CD
:104A300080680DF025FD40004C49400888420BDAA3
:104A40003F2149010246009101230297019432213E
:104A5000732005F02BFF0CE00CF0A0FC82B23F208D
:104A6000400100900323322102970194732006F045
:104A700045F83F235B01572232219320019702958D
:104A8000009405F0B7FDA9E788E00000B000002021
:104A90001800002010840000FF7F0000B2E2C8DD93
:104AA000CFB5CDB3D5FDD4DAC6F4B6AF0000000063
:104AB000C7EBC9D4BAF3A1ADA1AD00002D750100BB
:104AC000FFFF0000C7EBBDABB5E7B3D8BCDCC1ACA2
:104AD000BDD3B5BD00000000547970652D430000C2
:104AE000B3E4B5E7C6F70000D5FDD4DAC8B7C8CF40
:104AF000B3E4C2FAD7B4CCACA1AD0000E0FF000033
:104B0000CFB5CDB3BCECB2E2B5BDB9FDB3E4CAC21A
:104B1000BCFE0000C7EBB5C8B4FDCAC2BCFEBDE216
:104B2000B3FDA1ADA1AD0000B3E4B5E7B2E2C8DDCD
:104B3000BDF8D0D0D6D000004C020020A1ADA1AD70
:104B400000000000B3E4B5E7CAB1B3A40000000060
:104B500080510100CCEC0000CAB10000B7D60000C3
:104B6000C3EB0000C4DCC1BF000000000000204116
:104B70005768000090000020B5E7D1B900000000A0
:104B800024010020C8DDC1BF000000000000C842B1
:104B90006D416800B9A6C2CA00000000FD49884204
:104BA000FD4917DAFCF73AFB1F21C90202460091C2
:104BB0000123029701944021212005F077FE1F2355
:104BC000DB02F6A240213C2001970295009406F0FA
:104BD0001BF818E0FCF722FB0CF0E0FB82B21F2070
:104BE000C00200900323402102970194212005F088
:104BF00085FF1F23DB02E9A240213C20019702959B
:104C0000009406F001F8E648007801950028009429
:104C100024D0E44BE4A24021572005F08BFDE4486A
:104C2000017800295DD040680CF0B8FB002862DAFA
:104C3000FF264042D036039033462D223D21019776
:104C400002950094752005F0D5FC0398022382B2EA
:104C500040210297009601947C2071E0D14ED5A2AC
:104C600033464021572005F005FFD4480078082836
:104C700000D3FBE201007944097949188F44030A03
:104C80001118031F272740213346CDA2812001950B
:104C9000009423E04021CC4BCCA2812001950094CC
:104CA0001CE04021CB4BCCA281200195009415E063
:104CB0004021CB4BCBA28120019500940EE03F23F5
:104CC0005B014021C9A281200195009406E01F23C9
:104CD000DB02C8A2402181200195009405F02AFD45
:104CE000C4E2B04BC5A24021732001970295009405
:104CF00005F08AFF26E00A280BDA1F26AC48029747
:104D000000960194426801234021732005F0CEFDF6
:104D100018E0BB49896B0A46143A824202DD3F26FD
:104D2000760106E00839814201DDAA4E01E01F2626
:104D3000F60282B20223402173200297009601946A
:104D400005F0DCFE3346AFA240218F20019702958B
:104D5000009405F00BFD89E23F260025AA4C760160
:104D60003346AAA2162121200195009405F0E2FC09
:104D70003346AAA2292118200195009405F0DAFCF7
:104D8000A848854E80683146FCF748FAA649884213
:104D90000BDA844A0C21009202910246032301940B
:104DA0002921432005F082FD29E0A04988420BDA41
:104DB0007C4A0C210092029102460223019429218F
:104DC000432005F073FD1AE0B0420BDA754A0C215E
:104DD000009202910246012301942921432005F00B
:104DE00065FD0CE00CF0DAFA82B20C206D490091FE
:104DF0000290042301942921432005F07FFE694F8E
:104E00000C263B4665A2292170200196029500944C
:104E100005F0FAFE3B4686A23D2120200195009434
:104E200005F088FC6B4B84A23D213B200196029546
:104E3000009405F0E9FE3D213B4680A256200195F5
:104E400000944BE71F2700246F4DFF023B467DA2D5
:104E5000162104200095019405F06CFC0C263B46BD
:104E60003F221621932001960095029405F0C2FB83
:104E70004C4F7AA23B462E2107200095019405F065
:104E800059FC544B78A22E213B20019600950294A8
:104E900005F0BAFE3B4675A22E21562001960095DC
:104EA000029405F063FC4B4B63A22E216320019614
:104EB0000095029405F0A8FE3B466DA22E217F20AE
:104EC0000095019405F036FC3E213B466AA207207E
:104ED0000095019402E700254B4C1F23DB026BA2D7
:104EE00016211C200195009405F024FC2D4E50A2A3
:104EF00033463D2120200195009405F01BFC0C2039
:104F00000190344B4CA23D21029500943B2005F0CA
:104F10007BFE334649A23D2156200195009405F0C1
:104F200009FCA3E11F260024374DF60233465CA29C
:104F300016211C200095019405F0FCFB33465DA270
:104F400029210A200095019405F0F4FB5B48407884
:104F500008281BD00C200190334659A22921009526
:104F60000294242005F002FC334656A22921322067
:104F70000095019405F0DEFB0C272C2229213346F5
:104F80004A20019700950294A0E074E1C3E0CDE0CF
:104F9000FCE02BE100401C4600007A444168000020
:104FA00090000020FFFF0000CEC2B6C80000000045
:104FB00024010020D7B4CCAC3A00000092000020BD
:104FC000B5C8B4FD000000001FF80000D4A4B3E48D
:104FD00000000000E0FF0000BAE3C1F7000000009D
:104FE000FF7F0000BAE3D1B900000000B3E4C2FAC9
:104FF00000000000D2ECB3A3000000002D2D2D0016
:10500000B4010020A1E6000010840000C8DDC1BF8B
:10501000B2E2CAD4D2D1CDEAB3C90000B9B2B3E486
:10502000C8EB00004C020020000020410000C842F4
:10503000B0B4CFC20000000045534300D2D4CDCB62
:10504000B3F60000C7BFD6C6BDE1CAF8B1BEB4CE44
:10505000B2E2C8DDB2A2CDCBB3F60000CDACCAB18E
:10506000B0B4CFC200000000454E5400BACD0000DD
:10507000CDCBB3F600000000C6E4D3E0C8CED2E248
:10508000B2D9D7F7D2D4BCCCD0F80000C8DDC1BFAC
:10509000B2E2CAD4D2ECB3A3BDE1CAF8000000006A
:1050A000C8DDC1BFB2E2CAD4CEDEB7A8BCCCD0F84E
:1050B00000000000CFB5CDB300000000B00000201C
:1050C000B7C50000B5E7D6D00000000005F092FAA1
:1050D000334669A2292153200095019405F02AFB4B
:1050E000684E69A233463D2120200095019405F0C9
:1050F00021FB674B67A23D213B200197009502945D
:1051000005F082FD334664A23D21562000950194AE
:1051100005F010FBAAE00C200190334660A2292183
:1051200000950294242005F021FB1DE700255D4C2D
:105130001F23DB025C4A16211C200195009405F018
:10514000F9FA534E59A233462921152001950094AE
:1051500005F0F0FA4B4F4CA23B463D212020019533
:10516000009405F0E7FA0C200190334649A23D2156
:10517000029500943B2005F047FD3B4646A23D21A9
:1051800056200195009405F0D5FA6FE01F26002502
:10519000444CF6023346444A16211C2001950094E3
:1051A00005F0C8FA334646A229211520019500943E
:1051B00005F0C0FA334E34A233463D21202001953C
:1051C000009405F0B7FA0C200190314B31A23D213B
:1051D000029500943B2005F017FD33462EA23D2199
:1051E00056200195009405F0A5FA3FE01F27002501
:1051F0002C4CFF023B462C4A16211C2001950094A2
:1052000005F098FA3B4633A2292104200195009429
:1052100005F090FA0C263B4632A229215E20019629
:105220000295009405F0F0FC3B4630A22921852030
:105230000195009405F07EFA124F13A23B463D21E2
:1052400020200195009405F075FA114B11A23D2123
:105250003B2001960295009405F0D6FC3B460EA239
:105260003D2156200195009405F064FA2148012162
:10527000C17005B0F0BD7047C7EBD2C6B3FDCFDF3C
:10528000B2C40000FFFF0000B0B4CFC200000000B5
:10529000E0FF000045534300D2D4CDCBB3F600006D
:1052A000B3E4000010840000A0500000B3A4C6DAEC
:1052B000B4E6B4A2C4A3CABDD2D1BCA4BBEE000064
:1052C000B3E4B7C5B5E7B9DCC0EDD0BEC6ACD2EC2F
:1052D000B3A30000C7EBBDABB5E7B3D8B7C5B5E71F
:1052E000D6C1000031322E3356000000D2D4C4DAC9
:1052F00000000000B000002010B51E481E4C407891
:105300000D282FD201007944097949188F442A06C3
:105310000A120A0A121F121212121200A07904288D
:1053200023D01FE0A07904281CD11248502101701D
:10533000072116E0A079042814D11048007800282D
:1053400003D00F480BF0DEF90CE00E48FAE7A17924
:1053500005290AD007480278002A01D0002901D087
:10536000022141700020A07110BD02490620487042
:10537000F8E70000B00000201800002038000020EE
:10538000208E010034930100F8B505460027012066
:1053900040033A46012311460090FEF7C7FF244E12
:1053A0003046FEF7E5FF7760E62030600020295C9C
:1053B0003173291849783173801C2428F7DBB568CC
:1053C0003046FEF7D5FF7760E620306000210120EF
:1053D000AA07920F06D0012A06D0022A06D0032A75
:1053E00007D105E0542404E0232402E0532400E024
:1053F0003C24CB175B0F5B18DB08AD08DB00CA1A37
:10540000034693406340DCB262183273491C102992
:10541000DEDBB4683046FEF7ABFF3A4600231146A8
:105420000098FEF783FF034920464840F8BD00007E
:1054300000A0084052AA422530B5002493B025466A
:105440000BF0B0FD68460572210008D46F2906DC18
:1054500048225143983105F071FF002803D0002005
:10546000C04313B030BD6846007A002803D0641CE6
:10547000702CE5DB01E0002C00DD641C482060435B
:10548000983013B030BD000010B59CB0094800F052
:105490006FF80446684605F0C1FE684600F068F8FB
:1054A0000549A04201D0012000E0002008701CB096
:1054B00010BD0000B4010020C0000020F8B5054672
:1054C0000027012040033A46012311460090FEF7D1
:1054D0002DFF254E3046FEF74BFF7760E62030600B
:1054E000687A3073A87A3073E87A3073287B307327
:1054F0002946342214313046FEF742FF0546304635
:10550000FEF736FF7760E620306000200122A90711
:10551000890F06D0012906D0022906D0032907D118
:1055200005E0472404E06A2402E0212400E06F241F
:10553000AD0843075B0F114699406140CCB221187A
:105540003173401CC0B21028E1D3B468304607491B
:105550004C40FEF70DFF3A46002311460098FEF737
:10556000E5FE2046F8BD000000A008404F6E52A3A3
:10557000F8B505460027012040033A4601231146AD
:105580000090FEF7D3FE244E3046FEF7F1FE776022
:10559000E6203060002029180B7933734979317384
:1055A000801C6C28F7DBB5683046FEF7E1FE7760BB
:1055B000E620306000210120AA07920F06D0012AC0
:1055C00006D0022A06D0032A07D105E0522404E0BF
:1055D0003F2402E0402400E06E24CB175B0F5B18F1
:1055E000DB08AD08DB00CA1A034693406340DCB217
:1055F00062183273491C1029DEDBB4683046FEF7AE
:10560000B7FE3A46002311460098FEF78FFE034985
:1056100020464840F8BD000000A008405334A55A79
:10562000F8B5044600260120400332460746012310
:105630001146FEF77BFE0F4D2846FEF799FE6E6081
:10564000E620286000212846625C027362185278C6
:105650000273891C4829F7DB846807494C40FEF730
:1056600087FE3246002311463846FEF75FFE20468D
:10567000F8BD000000A008404FEE52A3F8B5104C52
:105680000127A07900260F4D022804D0012804D05C
:10569000042804D00AE06F700BE06E7009E00A483D
:1056A0000078002808D009480BF02CF8A0790028D1
:1056B00004D02F70A671F8BD0548F5E72E70F8BD2F
:1056C00018000020C600002038000020208E0100B5
:1056D00034930100F0B500248FB023467EA27FA151
:1056E0002D200AF0DFFB04A801F0F6F808985125F8
:1056F00000285CD00F21684605F038FF002807D04D
:1057000003237AA27AA12D200AF0CCFB09F0DEFA5D
:10571000102200210AA805F0E7FE002807D0032385
:1057200077A278A12D200AF0BDFB09F0CFFA6846D8
:1057300006F07EFC044602460020694601259307D8
:105740009B0F06D0012B06D0022B2CD0032B04D1AB
:105750002BE0512300E021230B540B5C92081B1813
:105760004607760F2F46B7407B400B54401CC0B213
:105770001028E4D300257F260F46B6023068A042E9
:1057800004D10AA8795D405D814207D0032362A25B
:1057900062A12D200AF086FB09F098FA6D1C102DED
:1057A000ECDB0FB0F0BD7323D6E72623D4E701204E
:1057B000FEF7B0FD0820FEF7A3FD01280AD0012066
:1057C0000BF0A0FD641C322CEBD00820FEF798FDF6
:1057D0000128F4D10F21684605F0C8FE002807D043
:1057E000032342A242A12D200AF05CFB09F06EFACD
:1057F000684606F01DFC04467F20800201F062F836
:105800000028CED17F202146800201F0B5F8002883
:10581000C7D17F2080020068A042C2D10020694623
:105820000126A207920F06D0012A06D0022A07D02D
:10583000032A09D106E00D5406E021220A5403E0B0
:10584000732200E026220A540A5CA40812184307B7
:105850005B0F37469F407A400A54401CC0B2102864
:10586000DFD310220021684605F0BBFE002807D0D8
:1058700003232EA22EA12D200AF014FB09F026FAF4
:105880000222099603A8D11E089641608160083063
:10589000521EFAD101F008F804A801F037F80028E8
:1058A000AFD1012327A228A12D200AF0FBFA012065
:1058B0000BF0EAFC012328A228A12D200AF0F2FA1D
:1058C00001200BF0E1FCBFF34F8F29492748C86046
:1058D000BFF34F8F00BFFDE735410000B9CCBCFEE0
:1058E000CDEAD5FBD0D4BCECB2E9000045350000D0
:1058F000B4E6B4A2C6F7B6C1C8A1D2ECB3A3000007
:1059000045460000B0B2C8ABC3DCD4BFB6C1C8A125
:10591000D2ECB3A30000000045430000B9CCBCFEAC
:10592000D2D1B1BBB4DBB8C42100000045450000B2
:10593000B0B2C8ABC3DCD4BFD0B4C8EBCAA7B0DC2C
:105940000000000035420000BCECB2E2B5BDCAD791
:10595000B4CEC6F4B6AF000035430000CFB5CDB32A
:10596000B9CCBCFED2D1CBF8B6A800000400FA0531
:1059700000ED00E007480078002803D00648807852
:10598000002805D10548064982688A4200DD816009
:105990007047000048000020F4010020B4010020FE
:1059A000E425000010B52149214C097800290CD0CC
:1059B0000846FBF735FD1F490CF062FD1E490CF04F
:1059C000EFFC21460CF05CFD26E01C49497F0829CC
:1059D00017D20A007A4412799218974403050709EE
:1059E0000B0D0F1116480CE016480AE0164808E0A7
:1059F000164806E0164804E0204602E0154800E09C
:105A0000154821460CF03CFDFBF7DEFB134A144B16
:105A1000FBF712F8FAF756FE0146124880680CF0C0
:105A200005FD01D2012010BD002010BD1301002092
:105A300000004040CDCCCC3D00006040B4010020CF
:105A40000000204066662640CDCC2C4033333340E6
:105A50009A99394066664640CDCC4C409A999999BE
:105A60009999C93F2401002010B59CB00948FFF75F
:105A70007FFD044668467022002105F05FFC002887
:105A800002D10098A04202D000201CB010BD01201D
:105A90001CB010BDB401002070B5FF242D340023CC
:105AA00013A214A128200AF0FDF9022007F068FCD7
:105AB000002808D0012313A213A128200AF0F2F92C
:105AC00002200BF0E1FB144D0020287001200BF0A8
:105AD00019FC287800280AD1641E002CF6DC032368
