:020000040000FA
:1000000088140020C10000007DEE00002D89000052
:10001000FFFFFFFFFFFFFFFFFFFFFFFFFFFFFFFFF0
:10002000FFFFFFFFFFFFFFFFFFFFFFFF5D2301005B
:10003000FFFFFFFFFFFFFFFF91F80000354A0100BF
:1000400035010000350100003501000035010000D8
:100050003501000035010000F9780000350100008D
:10006000E52A0000FFFFFFFF350100003501000019
:10007000A98600003501000035010000FFFFFFFFE9
:10008000FFFFFFFF350100003501000035010000D2
:100090003501000035010000350100003501000088
:1000A0003501000035010000350100003501000078
:1000B000350100003501000035F200003501000077
:1000C0002048804720488047204800472048016951
:1000D000002908D14169002905D18169002902D18F
:1000E000C169002909D01B48C1680901090D00290F
:1000F0000ED005290CD006290AD0BFF34F8F164821
:100100001649016016491548C860BFF34F8FFEE7D6
:10011000114801681148884200D0704711481249BF
:1001200001600D48114901607047FEE7FEE7FEE7F8
:10013000FEE7FEE7FEE700000D480E490E4A0F4BB2
:1001400070470000CD000000494A01008101000015
:100150000003084080010840000000200400FA0568
:1001600000ED00E0008108400100000000000000F8
:1001700048040020881400208804002088040020FF
:1001800000F002F800F04FF80CA030C8083824182E
:100190002D18A246671EAB4654465D46AC4201D1BF
:1001A00000F041F87E460F3E0FCCB64601263342A2
:1001B00000D0FB1AA246AB4633431847ECF70100C8
:1001C0000CF801000023002400250026103A01D37A
:1001D00078C1FBD8520700D330C100D50B607047FF
:1001E00010B5662902D116F0A5FC10BD642902D114
:1001F00000F0B0F810BD782902D100F0E1F810BD90
:10020000732902D101F022FD10BD002010BD1FB5E1
:1002100001F0DEFD04000020002116F075FAE06018
:100220001FBD10B510BD02F037FA1146FFF7EFFF02
:1002300015F08EFC02F04FFA03B4FFF7F2FF03BC97
:1002400002F0D2FA70B505460C46164602E00FCC15
:100250000FC5103E102EFAD2082E02D303CC03C5D0
:10026000083E042E07D301CC01C5361F03E02178D8
:100270002970641C6D1C761EF9D270BD0FB41CB5BC
:100280000C0007AA009001D00019401E084B7B44C7
:1002900069460190069801F0A6FC002C03D069463F
:1002A000002001F0B3FC1CBC08BC04B018470000DF
:1002B0008519000070B5044685690068C10601D53E
:1002C000302600E02026C00707D070BD62683046A7
:1002D000A1689047206A401C20626D1EF6D570BD53
:1002E00070B5044685690078C00707D170BD6268A3
:1002F000A16820209047206A401C20626D1EF6D520
:1003000070BD70B50C460546012A05D028788006D8
:1003100000D5EA69002302E0012305E05B1C93425B
:1003200002D2E05C0028F9D1A869E618C01AA861D9
:10033000286AC01828622846FFF7BCFF04E06A68F4
:100340002078A968641C9047B442F8D32846FFF788
:10035000C7FF70BDF7B5002575291068009914A670
:1003600011D0C046C046002802DA404211A608E07B
:10037000009909688A0701D50FA602E0490704D54C
:100380000EA6012501E0C046C046009F0024243788
:1003900004E001F05FFC30313955641C0028F8D1CD
:1003A0002B4632462146009801F0B3F9FEBD00000D
:1003B000000000002D0000002B00000020000000C5
:1003C00070B504460D4621461068C046C0462188D7
:1003D000090502D50F4A7A4402E00E4A7A440E32E9
:1003E00023460021243305E006070009360F965DF9
:1003F0005E54491C0028F7D120780023000705D55A
:10040000702D03D0002901D002231132204601F0C3
:1004100080F970BDB6E80100F3B50446002081B054
:1004200020622046E168884700287DD0252802D038
:100430006268A16883E0454F00257F442046E1685B
:1004400088472028064608DB312E06D2B819203806
:100450000078002801D00543F0E7A80701D5042063
:1004600085430020E0610746A0612A2E0AD030466D
:1004700015F01AF9002827D0B8000019303E009076
:10048000866119E00298BA00121902C891610290BF
:100490002046E1688847012F064617D1E069002809
:1004A0001FDA202085431CE000980A218069484318
:1004B00000998019303888612046E16888470646EF
:1004C00015F0F2F80028EFD1012F0AD02E2E08D116
:1004D0002046E16888470646202005437F1C022FFE
:1004E000C3DBA069002803DA4042A0610120054374
:1004F000E80701D010208543002E24D03046413833
:10050000192803D80120C002054320362046256063
:100510003146029A1546FFF763FE00280CD00128E9
:1005200007D0ED1DE80800E00DE0C00008300290A3
:1005300077E72D1D029574E762683046A168904701
:10054000206A401C6CE7206AFEBD00007AE80100CA
:1005500030B5441C03E00178401C00290DD0810710
:10056000F9D10B4BDD0104C8D11A91432940FAD0CF
:10057000001B0A0603D0C01E30BD001B30BD0A049C
:1005800001D0801E30BD0902FCD0401E30BD0000ED
:10059000010101010346F0B50B439B072DD1244D0A
:1005A000EF01042A29D308C810C95E1B9E43121FFD
:1005B0003E4017D0D8B2E1B2401A3106014310D103
:1005C00098B2A1B2401A310401430AD118022102A3
:1005D000000A090A401A3102014302D1180E210E05
:1005E000401AF0BDA342DCD018BA21BA884201D922
:1005F0000120F0BD0020C043F0BD002A01D1002041
:10060000F0BD03780C78401C491C002B0DD0A34290
:100610000BD1521E09D003780C78401C491C002BCA
:1006200003D0A34201D1521EEBD1181BF0BD000034
:1006300001010101F8B5042A2CD3830712D00B78ED
:10064000491C0370401C521E83070BD00B78491CB9
:100650000370401C521E830704D00B78491C0370A2
:10066000401C521E8B079B0F05D0C91ADF002023A8
:10067000DE1B08C90AE0FFF7E5FDF8BD1D4608C905
:10068000FD401C46B4402C4310C0121F042AF5D272
:10069000F308C91A521EF0D40B78491C0370401C91
:1006A000521EEAD40B78491C0370401C012AE4D482
:1006B00009780170F8BD01E004C0091F0429FBD2CC
:1006C0008B0701D50280801CC90700D002707047DB
:1006D00000290BD0C30702D00270401C491E02291A
:1006E00004D3830702D50280801C891EE3E7002221
:1006F000EEE70022DFE70000F8B507460B46394673
:100700001943890713D1164CE601042A0FD302CBF3
:100710000D1B8D43354202D102C0121FF5E7CBB24B
:100720000370401C521E002B13D0090AF7E7002A61
:1007300014D01978521E5B1C0170401C002908D08F
:10074000002A0BD01978521E5B1C0170401C002936
:10075000EDD1002A02D01146FFF7C9FF3846F8BD97
:1007600001010101002203098B4273D3030A8B426A
:1007700058D3030B8B423CD3030C8B4221D312E0A2
:1007800003460B437FD4002243088B4274D30309F2
:100790008B425FD3030A8B4244D3030B8B4228D393
:1007A000030C8B420DD3FF22090212BA030C8B42B9
:1007B00002D31212090265D0030B8B4219D300E059
:1007C000090AC30B8B4201D3CB03C01A5241830BDE
:1007D0008B4201D38B03C01A5241430B8B4201D38E
:1007E0004B03C01A5241030B8B4201D30B03C01AB7
:1007F0005241C30A8B4201D3CB02C01A5241830A31
:100800008B4201D38B02C01A5241430A8B4201D35F
:100810004B02C01A5241030A8B4201D30B02C01A89
:100820005241CDD2C3098B4201D3CB01C01A5241F0
:1008300083098B4201D38B01C01A524143098B4279
:1008400001D34B01C01A524103098B4201D30B0162
:10085000C01A5241C3088B4201D3CB00C01A524187
:1008600083088B4201D38B00C01A524143088B424C
:1008700001D34B00C01A5241411A00D201465241E5
:10088000104670475DE0CA0F00D04942031000D304
:100890004042534000229C4603098B422DD3030A59
:1008A0008B4212D3FC22890112BA030A8B420CD369
:1008B000890192118B4208D3890192118B4204D392
:1008C00089013AD0921100E08909C3098B4201D312
:1008D000CB01C01A524183098B4201D38B01C01A4C
:1008E000524143098B4201D34B01C01A52410309C3
:1008F0008B4201D30B01C01A5241C3088B4201D372
:10090000CB00C01A524183088B4201D38B00C01A1E
:100910005241D9D243088B4201D34B00C01A5241F5
:10092000411A00D20146634652415B10104601D382
:100930004042002B00D54942704763465B1000D30C
:10094000404201B50020C046C04602BD7047704716
:10095000704700000246C80FC00781434B0030B506
:100960004B405B009B0D20D01923DB06C9180123E7
:100970001B05994220DB0324A40704251346AB4042
:100980000BD3002B04D1EB0613409B00E34204D4AD
:1009900001246407002312195941FF231B059942C2
:1009A0000BD2C9000143500F09E0CB0204D501432B
:1009B0000803024305D0054830BDFF21C90508439F
:1009C00030BD084607210905884330BD0000C07FBF
:1009D000F0B50C46871A9C410D46861A9D4103D2FC
:1009E000C01BA141D21963410D0D1F0DC94EEC1B57
:1009F000AE435CD07F057F0D0026002F51D02D0522
:100A0000AC46A943DD020123ED0A1B051D4320234B
:100A10001B1B24D41746E740381871412F46E74086
:100A2000CC199D402818314661410C0D27D16144F5
:100A30009A4013D50023401C594152000ED1400862
:100A4000400001224B005205D34207D30520400746
:100A5000C14201D5B04900E0B0493046F0BD6B005D
:100A6000002A00D001229A181F23203C1B1B01D50D
:100A7000002302E0E540281871410C0DD7D0012475
:100A800024050919C407CD0740084908E40F284385
:100A90006144002CD5D00024401C61419A40D0D143
:100AA000CDE76A05520DD9D1C90FC907D5E79C4DCD
:100AB0004E00002801D0012400E0002434195F001A
:100AC000002A01D0012600E00026BE19954FAC4255
:100AD0000CD8AE420AD8B44206D001256D05EC42CE
:100AE000BCD010461946F0BD9942FCD000203946D2
:100AF000F0BDF0B51FB40C460F46811A9F41254644
:100B0000861A9D4106D20125ED076F40401ABC416F
:100B100052187B41210D1E0D8D1BAC467D4D8D4322
:100B20007ED075056D0D7CD00D05AE46AC431B0324
:100B30001B0B794D52429D41202366469B1B14D3CB
:100B40001746F740381800260090744160462F463B
:100B50000741E41900989D402818664116D4714653
:100B600071189A4025D5012320E093182A466A413E
:100B70005200002B00D0521C1E23203E9B1B002B3A
:100B800061DD3541EE1728186641E8D50018764139
:100B90005B1C9A4000D3401C4B05F3181524E3401E
:100BA00010D3002B52D071467118D30FC01802D346
:100BB000491C05B0F0BD0123DB079A42F9D140087A
:100BC0004000F6E701225205B21801D1002853D0A7
:100BD0000123CC0ADB029943891E002A08D1020CAA
:100BE00003D0020C0004103902E002460020203934
:100BF0000023550B05D112020823550B01D15201D8
:100C00000D23550C01D112011B1DD50C01D19200F1
:100C10009B1C150D01D152005B1C2025EE1A01E032
:100C20002CE022E00546F54015439840CA1AE1073A
:100C300069181305C918002ABBDA032040070818F1
:100C4000C10FC9070FE071466118B2E7F10740080C
:100C50000843711071444A000CD001235B059A428D
:100C6000A7D2C90FC9070020A3E74905490D26D11E
:100C7000002001E00028F4D100219AE7284D660009
:100C8000002801D0012100E0002171185F00002A36
:100C900001D0012600E00026BE19224FA94210D83B
:100CA000AE420ED8B14208D001256D05E94206D00A
:100CB0001946A802414010467BE79C4201D02146DC
:100CC00077E70020394674E710B50C465C4005D53F
:100CD0000124E4076340FFF70CFF10BDFFF778FE27
:100CE00010BD30B40C465C4004D50124E4076340D9
:100CF00030BC6DE630BCFCE670B50124E407614011
:100D00000D465D4002D4FFF763FE70BD6340FFF700
:100D1000F0FE70BDFF0700000000F0FF0000F07F54
:100D20000000E0FF0000F87FF0B5F94D0C091E0946
:100D30002C402E402F468BB0A7437DD0B543FCD02E
:100D4000002E7AD0002CFCD00D465D40ED0F2543DF
:100D5000AC1BFF25AD0464190894C502440DC902FB
:100D60002143500DDC0204430120C007014304432A
:100D7000D2020191200C110C00958C4601042346EF
:100D80008B430A9161460904E24D8A430991010AA5
:100D90007D4449198039097805464D4301266D186F
:100DA000F605751B6943C90C640B891C4C43641818
:100DB000B5012C1B250C2E04B4434C434D43210C90
:100DC000691889090591009DE90701D00121C9072A
:100DD00004912C4601996708CD072F434C08059DC7
:100DE000E10B4D432D0C29466646754302950D4691
:100DF00045432E46029D7D1BB44100950D465D4343
:100E000001942C0C2F040D465543AE462D0C3D434A
:100E1000029503947546049C2D04641B049406D229
:100E2000029C039D641C002675410395029401AC4D
:100E300070CC009F7D1B01E03EE162E1B4410904FA
:100E40000095079101940599A4086143090C0C468B
:100E50004443650BE7040C4666467443A646640BA0
:100E60003C43039502947446049DE4042C1B0494B3
:100E700006D2029C039D641C0026754103950294D2
:100E800001AC70CC009F7D1BB44101940C465C43C7
:100E90000095650FE7000C465443A646640F3C439B
:100EA000039502947446049DE4002C1B049406D21E
:100EB000029C039D641C002675410395029401ACBD
:100EC00070CC009F7D1BB441AE09AF06049DC900E4
:100ED000AD092F43049DA406AD060495079D344338
:100EE00069180791059DE10B4D432D0C2946664677
:100EF000754302950D4645432E46029D7D1BB44128
:100F000000950D465D4301942C0C2F040D4655436E
:100F1000AE462D0C3D43029503947546049C2D046A
:100F2000641B049406D2029C039D641C0026754138
:100F30000395029401AC70CC009F7D1BB4410194D9
:100F40008C050694079C890A611800950791019CFD
:100F50000599A4086143090C0D464543680BEF044D
:100F60000D46644665436C0B3C43049FED047D1BBA
:100F7000AC4602D20025641C6841009E019D371BCF
:100F800085410846584301950C46460FC500544319
:100F9000600F28436546E4002C1B02D20025401C4C
:100FA0006E41019D3F1AB5412846BD098006284380
:100FB0008446A009BF064E020699A4067618074388
:100FC000079D002068410A99079019430020099B5A
:100FD00000906046FF1913434041E20F64003A431A
:100FE000A4460446D71A8C41A04203D901200090A0
:100FF00020463A46C70F941840416246D20F22431A
:10100000644664000494009CBE466400D71AA4465B
:10101000044602978C417746002F01D1A04204D9A3
:101020006046401C8446029A2046C40FA646941887
:101030004041049A0546D20F224364466400D31A05
:101040008D417146002901D1A84202D928461A468D
:10105000641C10430122002800D0164361020020C6
:10106000079B891904465C410223002C02DB4918C6
:1010700013466441089DCE0A2D145D194B05670582
:10108000E10A2C050D1908993E43C9076940002B58
:1010900008D0934006D30022761C5141002B01D189
:1010A000760876001C4A002D43DB154241D0AA4346
:1010B0003FD030460BB0F0BD06180D464D41174CE1
:1010C0007642AC411AD395181C465C41134A6D42D6
:1010D000A24113D3012252054C00D4420AD15C0034
:1010E000D4420BD04B4002D592021143E2E74900B3
:1010F0004908DFE75940C90FC90718E0002008492F
:10110000D8E7054801420DD10342F7D0F2E70000CD
:101110000000FF0735DF01000000F07F0000E0FF66
:101120000000F87F114859400143C012414000209F
:10113000C0E70123089A9B069A4205DC0322520766
:101140008918C90FC907B5E7052252078918074A48
:101150001143D2125140ADE770B515461C46024608
:101160000B4628462146FFF7DFFD70BDFFFFFF7FDE
:101170000346CA02400D10B510430A1504D00124DD
:10118000E4072043002A05DB0A4CA21A04D4D0400D
:10119000FF2A00DD002010BD4A00002B01D00120F5
:1011A00000E00020101801225205D042F2D8C817E2
:1011B000C04310BD1E0400001F22030C02D10F22E9
:1011C000000402D0030E03D004E000200146704763
:1011D0000002083A030F01D10001121F830F01D151
:1011E0008000921E002801DB4000521E120551189B
:1011F0004205C012411810467047C10FC90700D000
:101200004042012292071143D6E701218907D3E723
:10121000F0B58B4C0F09254689B0BD437BD01D0925
:101220002646AE43FAD00E465E402740F60F3E43B8
:10123000254071D024012142FBD0FF24AD19A40424
:101240002D1B039501252D05DB02DB0AC9022B436B
:10125000C90A29431E010901040F130F0501214387
:101260001701880B820391432D098C46A90B1E435D
:101270008A039543B30B9A0396433F09BA0B940331
:10128000A74302962E467E430497B6464E19D719B9
:101290000C460196544305977E43371B7646BF1B89
:1012A0003601B646BE0B361900967646BC04371991
:1012B000009C01D3641C00946400002F01D001261F
:1012C0003443029E049F754366467E43049676002F
:1012D00034196E0034190094029C019E1C19664357
:1012E000751BAE46069465464519059C05956C43ED
:1012F000594375460891691A0191049E014651436C
:10130000A41B0491611A009C0791E10605D06109B4
:101310000122114302E072E06EE06109089D00279E
:101320002C0A2D066918049D7C412A0A2D0669188D
:10133000019D6241AC0DAD026D185441079A910DAB
:10134000920255196141029A644658435443069BE0
:10135000059A5A43121A131B9A0E9B015B187A4185
:10136000010B0005C3185141220A200644195A41B5
:101370009A4200D2491C01204002814203D3152326
:101380000226F64302E014230326F6432020C51A62
:10139000A9401746AF40DA400A4320460399D84097
:1013A0000914731819055118039A3843D20751408C
:1013B000AC4009D00122944006D30022401C514188
:1013C000002C01D1400840001E4A934212D3012252
:1013D00003989206904207DB0520400709181A4837
:1013E0000143C012414004E0032040070818C10F28
:1013F000C907002009B0F0BD0020F107FAE7051881
:101400000C464C4111486D42A04115D394181A4620
:101410005A410E48644290410ED301204A004005D3
:10142000824209D35A00824206D35940C90F084A62
:10143000C90700201143DDE700200649DAE7000074
:101440000000FF07FE070000FFFFFF7F0000E0FF36
:101450000000F07F0000F87F0121C9050123411839
:1014600042001B06D3185B0E0AD0C1100722D20619
:10147000891840075242D14201D55200891870475D
:10148000090208D50146002A03D0C10FC907002070
:10149000704710467047420202D000200249704750
:1014A000072109050143F4E70000F87FF0B5FF25A7
:1014B0002D04C609C209FF2704462E400137CB0977
:1014C0003E4348402A402B400746002A6BD0002B61
:1014D00069D0AA4267D0AB4265D0002800DA324614
:1014E0000125ED0529432C4309022002090AD21ADD
:1014F0004B0C7F24E31A434C000A7C44E35C7D24BC
:101500002404121914145B00A218884201D3521C3F
:1015100000E0400049420C465C4324115C43DB017F
:101520006415E318040A5C43C502200D0C464443CD
:101530006419250A5D432303EC0C0D466543000343
:101540000019EB184C42A34201D35B18401CD40590
:101550002018002B07D05B00C91804D3401C0029B9
:1015600001D1400840003F2189048A4209D3002A62
:1015700008DC1106090F04D0032149074018C00FE9
:10158000C007F0BD01224100120689187F225206D1
:101590009142F6D205214907C84201D59010F0BD0D
:1015A000FF20C005F0BD002F00DA32461648AA42DF
:1015B00007D2AB4205D21902090E17D0F80FC007A7
:1015C000F0BDFF2563002D06AB42F9D84900A942C2
:1015D000F6D8AB4201D1A942F2D0A94201D10021F3
:1015E00001E061004908D0050843F0BD1102090E71
:1015F000FBD0FF200243D005F0BD0A46014610464D
:1016000054E700004BD801000000C07F10B5014630
:101610009E240002CA15A307002A02D01843002AFC
:1016200004DBA21A002A0CDDD04010BD1206120EF7
:1016300001D140004008A21A03D4D0404042002803
:10164000F3DDFF2248001206904201D9002010BDB0
:10165000C817C043584010BD1F22030C02D10F22EF
:1016600000041CD0030E01D10002083A030F01D17F
:101670000001121F830F01D18000921E002801DBA0
:101680004000521ED20551180212511819229040E2
:1016900004D3491C002801D1490849000846704775
:1016A000C10FC90700D04042012292071143D3E77E
:1016B00001218907D0E7000010B5FF22C30D1340B8
:1016C00009D05A4007D0914205DA5C42A14202DDBE
:1016D000C905081810BDC40FE407002B06D0002A66
:1016E00006D0002902DBFF20C0050443204610BDC0
:1016F0004102FCD0004810BD0000C07F10B500F0D2
:101700006BFB006810BD10B5044600F065FB04607B
:1017100010BDFFB504460D4681B02430009021680D
:10172000880604D51022E0699143216000E0012081
:10173000A84201DD471B00E000270498A1697A193F
:101740001018081AA0612078C00602D42046FEF7BF
:10175000B1FD002608E003986268A168805D9047AB
:10176000206A401C761C206204988642F3DB2078B5
:10177000C0060AD52046FEF79DFD06E06268A16816
:1017800030209047206A401C206238467F1E002887
:10179000F4DC07E000986268A168405D9047206A29
:1017A000401C206228466D1E0028F3DC2046FEF710
:1017B00097FD2078000602D5022005B0F0BD01207B
:1017C000FBE700007047FFB50C461E468FB003CA0A
:1017D000089009914F007D0D00D16D1E0021084633
:1017E0000020C0460321099A89050840002A03DA2F
:1017F0008200801840080840800D01280A9002DD10
:101800000020C0430A90089807430DD0F048F149E2
:10181000281848430714189800281DD07542291E1F
:101820001DDD0A9842421BE01898012802D00020D2
:10183000302104E00020F24305E02154401CB04276
:10184000FBDB30460022189B002121540F998B604E
:101850000A60486013B0F0BDBD1B6D1CDFE70A9A3B
:10186000002900DA69420BA800F03CFB0BAB07CB68
:1018700003AB07C30899099800F0A0FB6B4607C3A8
:101880000146D5480918002D00910BDDD249039877
:101890000A9A49424018002303A90390684600F0C1
:1018A000FDFD08E003990A9A0023081803A9039094
:1018B000684600F09DFD6B4607C30004000C03D092
:1018C0000020C043410800E01046189A002A03D0C7
:1018D0000022009215461EE0751E05D400F080FA25
:1018E000303262556D1EF9D501220843079602D0A9
:1018F00000227F1C04E02078302801D100227F1EC6
:10190000002A069787D01EE0112D07DA00F068FA4A
:10191000303262556D1C02460A43F5D1084303D0AC
:101920000098002819D00EE00021681E05E0235C15
:10193000625C63542254401E491C8142F7DBA81BA1
:10194000401E07950690079A18990020A0540F98FA
:10195000079B069A81600CC07CE711260020189036
:1019600059E7D21DF0B50D460446D10893B0C90021
:1019700003C90C900D9113F0FBFD02460D98C00FAA
:1019800001D02D2007E02068810701D52B2002E03F
:101990004007C00F4001032A0F9001D0072A05DB42
:1019A00003462946204600F059FA0EE120788006C9
:1019B00001D5E76900E006272846652D04D0662892
:1019C00014D0672D69D12DE00020112F009001DB8C
:1019D000112300E07B1C0CAA03A910A8FFF7F3FE5B
:1019E0001199002610987D1C0E9142E001203B4683
:1019F0000CAAC0070B900120009003A910A8FFF7C4
:101A0000E2FE119D12981099002600280E9501D132
:101A1000781C0D18781B02D446427D1C761EE81BEC
:101A200000903AE0012F00DA01270020112F0090EA
:101A300001DD112300E03B460CAA03A910A8FFF723
:101A4000C2FE11993D46109800260E912178090793
:101A50000BD40E99A94200DA0D4603A9012D04DD2D
:101A60004A19203AD27F302A06D0B84201DA011D45
:101A700004DA012100910FE06D1EEFE7002802DC7F
:101A800086192D1A03E0411CA94200DD0D46801B7A
:101A9000401C00900120C0070B902078000705D45F
:101AA0000098A84202DB0020C04300906946002055
:101AB000C8720B98012102AF0337C907884225D0AD
:101AC000022010902B2011900B9800280BDA404236
:101AD0000B902D20119006E00B9800F0BBF83031F0
:101AE0007F1E0B9039701099481E00291090F3DC6E
:101AF0000B980028F0D111987F1E387020880005BF
:101B000001D5452000E065207F1E387001A8C01B6C
:101B1000C01D0B900F98002800D00120411900989B
:101B2000C01709180B980818A169081A401EA0616F
:101B30002078C00602D42046FEF7BCFB0F98002890
:101B400005D06268A1689047206A401C2062207816
:101B5000C00625D52046FEF7ADFB21E0002E07DBB1
:101B60000E98B04204DD03A86268805DA16802E0BF
:101B70006268A16830209047206A761C401C206271
:101B80000098401E002800900AD100F021F9C0689A
:101B900062680168405CA1689047206A401C20622E
:101BA00028466D1E0028D9DC07E062683878A168F5
:101BB0007F1C9047206A401C20620B99481E002918
:101BC0000B90F2DC2046FEF78BFB032042E6000080
:101BD00001FCFFFF104D0000E1DFFFFF01694A1C1F
:101BE00002610878704700B58FB00291002105911D
:101BF0000549019379440391114604906846FEF724
:101C00000BFC0FB000BD0000E5FFFFFF0A6810707D
:101C1000521C0A6070470CC908399A4202D2531C00
:101C20000B601070704710B54369002B02D0C0469E
:101C3000C04601E0FEF765FB012010BD12780146A9
:101C400024310A7000224A700122ECE71168002258
:101C5000D243E8E701468008081A02091018020A70
:101C60001018020C1018C008820012185200891AAD
:101C700001E0401C0A390A29FBD27047F8B5224C12
:101C80004E00069DA6420AD8A64201D1002806D1E0
:101C90005E00A64203D8A6420AD1002A08D00D242D
:101CA000240425422CD02946002000F047FCF8BD32
:101CB0000C461C430CD4994202D0EFF30080F8BDCF
:101CC000904202D0EFF30080F8BDEFF30080F8BD42
:101CD00009242407E5008B4206D0EFF30080A043DF
:101CE000591A06D2284304E0101A05D3EFF30080F6
:101CF000A04380F30088F8BDEFF30080A043F1E734
:101D0000009500F033FCF8BD0000E0FF70B505461B
:101D10004800440D124B0020002C0AD0634008D02C
:101D20009A4206DA6642B24203DD12054019514179
:101D300070BD002C08D0002B09D0C90FC907002A9C
:101D4000F6DB084A114370BDC90FC90770BD2846AC
:101D50000A03104302D00020034970BD284670BD1D
:101D6000FF0700000000F07F0000F87F10B5FF23A0
:101D70001B0644009C421DD84C009C421AD80346C6
:101D8000124A0B4307D4401A02D3EFF3008010BD70
:101D9000EFF3008010BD081A06D2EFF30080012196
:101DA0009043C907084302E0EFF30080904380F3BB
:101DB000008810BD0D231B041A4204D011460020D8
:101DC00000F0BCFB10BD00F05BFC10BD00000090FB
:101DD000004870470804002000487047E8030020CE
:101DE0000B4670B5024689078008084319469D08CE
:101DF000141AA94125090807054308092C19484167
:101E0000250A01060D43010A2C194141200C0D043D
:101E100028430D0C00194D41002140194D41C008C7
:101E200069070843E908840F8D00254384002418BE
:101E30004D4124196D41121BAB4107E00925ED43CB
:101E40002C11521963410024401C61411C460A2593
:101E50000026551BB441F1D270BD0000F8B51F46F5
:101E6000044601230068DB02032601461840072AC6
:101E700005DB002801D017A506E017A504E000281F
:101E800001D016A500E016A5102081432160A069AD
:101E9000C01E002FA06101D0401EA0612046FEF7A9
:101EA00009FA002F09D038466268A1689047206A75
:101EB000401C2062C01C206206E0206AFAE76268CB
:101EC0002878A1686D1C9047761EF8D22046FEF750
:101ED00007FAF8BD4E414E006E616E00494E460055
:101EE000696E6600F7B516468AB0334878446C468A
:101EF00003467C33C06F5A689B680DC42E487844F3
:101F0000763003AC0DC80DC43720C0010818372146
:101F10001B30FEF735FC05460C46803D1B3C02D5C8
:101F20006442012000E000200027099010E0E00753
:101F30000CD00C2020497843794432464C39411862
:101F40006846012300F054FA6B4607C364107F1CF7
:101F5000002CECD1184F7F442E3F16E0E80712D03A
:101F60002001C0190EC80691089307920068F0423C
:101F700001D1981908903246012306A903A800F060
:101F800037FA03AB07C36D10641C002DE6D1099826
:101F9000002806D032466946012303A800F07EFAE5
:101FA00005E001233246694603A800F021FA0A9BA6
:101FB00007C30DB0F0BD000068CF0100034640002C
:101FC0000A4610B5400D0BD00121C9070F24A40209
:101FD00000191C0364082143540D2143D20207E079
:101FE00000210120F2E7D40F490021435200401E96
:101FF0000029F8DADB0FDB07184310BDFFB50D46EB
:10200000144685B04868516813F090FA0091019029
:10201000A868A16813F08AFA02910390A868616821
:1020200013F084FA029A12188242029201D201201D
:1020300000E00020019A0B18D2180028019202D06B
:102040008A4202D903E08A4201D2012000E0002046
:102050000099081800906868A16813F067FA029A5E
:1020600012188242029201D2012000E00020019A5F
:102070000B18D2180028019202D08A4202D903E03C
:102080008A4201D2012000E0002000990818009047
:102090002868216840004900400849084018FA496A
:1020A000471814E001994000C90F084300900198B7
:1020B00002994000C90F084301900298039940001B
:1020C000C90F08430290039840007F1E03900098B8
:1020D0000028E7DA0898002801D0EC4E00E000263E
:1020E000B74201DA012000E00020002804902AD045
:1020F000F71BF806C00E15D0029B2021091A039A7F
:102100008B401A430392029A019BC2408B401A43B0
:102110000292019A009BC2408B4000991A4301929F
:10212000C14000917B110DD06F460320C11A03D529
:1021300000218200B95003E08A008100BA587A5029
:10214000401EF3D5374603980299002800D001209D
:10215000014308980291002808460CD0002800D0BE
:1021600001200199019A490508430121D20AC902B7
:10217000D202019200E001210E9B0122D207012B25
:1021800002D0002B03D013E0002807D120E09042BA
:1021900004D890420CD1019B0B4209D0019B5918E5
:1021A000019105D10099491C009101D17F1C009239
:1021B00000280DD0102108460020C04604980028B1
:1021C00006D00F98002803D0082108460020C046FA
:1021D00028682168019B009A4840C10F0598C907EB
:1021E00039430EC009B0F0BDFFB587B0099A089811
:1021F000089953689268406889689646002203935C
:1022000017469446089A12685300099A5B081268A8
:10221000520052089A1A9E4BD4180A9A002A01D0EA
:10222000352200E040220692002201231546049246
:10223000DB07059324E0002D05D175460346039E78
:102240004D1BB34109D375466646039B491B049D4C
:102250009841059B7519AC465F4163463B4308D0E6
:10226000059B049EDD0776082E435B0804960593C4
:1022700001E0521E641EC50FED0749184041521C73
:10228000069B9A42D7DB002D04D17546039A6B1A40
:10229000824101D203200CE0039A0B466B4042407E
:1022A000134303D0014303D0012002E0022000E0E9
:1022B0000020614601910021009702910A990029AE
:1022C00005D0614640020143704B019102E0800756
:1022D000002302909C4201DA012000E00020070068
:1022E0003AD01A1BD006C00E15D0029D2021019CA9
:1022F000091AC5408C402543029C8C4000D0012423
:102300002543019C0295009DC4408D4000992C43BB
:102310000194C140009154111DD06D46022100224C
:1023200002290CD10320001B07E0002804DB8600F3
:10233000AE59002E00D00122401C0328F5DB081BFB
:1023400002D588002A5004E08000285810438A00F3
:10235000A850491EE3D51C460A98002802980CD0C4
:10236000002800D001200199019A49050843012164
:10237000D20AC902D202019200E00121109B01227F
:10238000D207012B02D0002B03D013E0002807D185
:102390001FE0904204D890420CD1019B0B4209D01F
:1023A000019B5918019105D10099491C009101D157
:1023B000641C009200280CD0102108460020C04662
:1023C000002F06D01198002803D0082108460020CD
:1023D000C04608980999019A009B0068096848401E
:1023E000C10F0798C907214382600AC00BB0F0BD36
:1023F00000B585B0019300920A460146002302A869
:10240000FFF7FCFD02A807C805B000BDFFB50A46EE
:102410001F4685B00799019301230091014602A848
:10242000FFF7ECFD02990398049ECA0F4900D207FA
:1024300000920F22490892028C1A0021002800DB2A
:102440000C46450013486D08844214D3079A002AAD
:1024500004DA441E0026104DF64302E004460D4601
:102460000E46102108460020C046002F03D004214C
:1024700008460020C0462005E90A084300990843A1
:102480006905F20A1143ADE602C0FFFF013C0000FE
:10249000FF3F0000FF070000FFFFFF7F00B585B092
:1024A000019300920A460146002302A8FFF79CFE12
:1024B00002A807C8A8E7FFB50A461F4685B00799D6
:1024C000019301230091014602A8FFF78DFE0299B6
:1024D0000398049ECA0F4900D20700920F224908B0
:1024E00092028C1A0021002800DB0C46450011489E
:1024F0006D08844214D3079A002A04DA441E002689
:102500000D4DF64302E004460D460E4610210846E6
:102510000020C046002F03D0042108460020C046FA
:102520002005E90A0843009908436905F20A1143A6
:1025300058E60000FF070000FFFFFF7FC80212D52A
:102540004803400F002804D0C803C043012188403D
:102550007047EFF3008000010009032109070843D9
:1025600080F30088704700207047000010B50020FD
:102570000249029A00F008F910BD00000000F87F3F
:10258000F0B53D4B02460C461C400020002C63D0A9
:102590003A4D8B4366D000296BDB0B0D1D05A9431B
:1025A00001252D0529430124FD33E34001D3921871
:1025B0004941FF3381339C468B02940D0121234313
:1025C00089074C42920200271B198C105D1A04D413
:1025D0002D1B02D42B466500491992185B416408F3
:1025E000F4D15C1A08D40125ED07EE175519744192
:1025F00002D42A462346491C94185B4101229207C3
:102600001D46E61B8D4106D4B61A854103D42B46E0
:10261000550034467F1924195B415208802AEFD1B6
:10262000234300D0022338460A22D04001D301229E
:1026300013438A0510436246890A12058918002B44
:1026400009D00122D34002D30022401C5141002B6B
:1026500001D140084000F0BD0B03134307D0C90F60
:10266000C907F0BD0803104303D1002901DB104660
:10267000F0BD00202946F0BD0000F07F0000F87F8B
:1026800010B5024800F080F810BD00000000C07FC7
:1026900000487047E80300207546FFF7F9FFAE4693
:1026A000050069465346C008C000854618B020B5ED
:1026B000FDF742FD60BC00274908B6460026C0C5AC
:1026C000C0C5C0C5C0C5C0C5C0C5C0C5C0C5403DEA
:1026D00049008D46704710B50446C046C0462046A6
:1026E000FDF7AAFD10BD000082078B079A4237D183
:1026F00070B5920F0AD0032402780B78401C491C55
:10270000002A2BD09A4229D12042F5D11D4EF40146
:1027100004C808C9951B9543254010D19A4207D19A
:1027200004C808C9951B9543254008D19A42EFD0AB
:1027300012BA1BBA01209A4200D2404270BD12BAAE
:102740001BBA2DBA18241000E0401900E140401ACD
:1027500005D12E00E64002D1083CF4D1D01A70BD5C
:1027600002780B78401C491C002A09D09A4207D1F4
:1027700002780B78401C491C002A01D09A42EFD005
:10278000D01A70470101010110B50C461107090F5D
:10279000092904D00A290AD008290CD104E01146DD
:1027A0000820FFF7CBFE06E0510606D501E05106F2
:1027B00001D50120C007214610BDD10607D5010172
:1027C0000909CC084907000E0006044309E0410F3F
:1027D00020024907000A0143200E00061D22D141B4
:1027E00001430846E7E7000001491820ABBEFEE7B9
:1027F00026000200704770B58C180578401C6B07E6
:102800005B0F01D10378401C2A1106D10278401CCD
:1028100003E00678401C0E70491C5B1EF9D12B07A3
:1028200005D40023521E0DD40B70491CFAE703781F
:10283000401CCB1A921C03E01D780D70491C5B1CD8
:10284000521EF9D5A142D8D3002070BD8030C1609E
:10285000704780220029016801D0114300E09143B4
:102860000160704710B504210348FFF7EFFF0349EB
:102870000120087010BD0000000001400C00002085
:1028800080308068084000D001207047F0B50025F6
:1028900085B003952E46029500247D4F03223C709F
:1028A000234611467B4800F041F9022200231146DD
:1028B000784800F02CF9012200231146754800F0F9
:1028C00026F900231A461946724800F020F9012122
:1028D000704800F041F9387800280ED17D273F017B
:1028E0000220641C12F04CFFBC4202DB002005B049
:1028F000F0BD674800780028F2D06648016B426B53
:102900000905090D6D1803991205120D8918039117
:102910000299806B761C0005000D08180290052EA8
:10292000BADB28463146FDF71DFF0190314603987A
:10293000FDF718FF044631460298FDF713FF0746DE
:102940002046FEF7B5FE544913F0FCFF534C2061BE
:10295000FEF782FD05460E463846FEF7A9FEFEF755
:102960007BFD00224E4BFEF753FC33462A46FEF712
:10297000B8F9FDF7EFFF4B49FEF798FD4A4913F010
:10298000E1FF434D0646E0606878484F002809D0D3
:10299000E868FEF785FE314613F0D4FF3946FEF7AE
:1029A00085FDE0600198FEF783FE3B4913F0CAFF06
:1029B00001210090C9023E4805F06EFE01283CD07E
:1029C0000098FEF749FD00223A4BFEF795F90646BE
:1029D0000F463949009813F0B5FFFEF73DFD3B4621
:1029E0003246FEF7A1F9FDF7B5FF3449FEF75EFD6B
:1029F000FEF732FD12F002FF0022314BFEF794F990
:102A0000304A314BFEF760F902460B4600202F4951
:102A1000FEF78AF9FDF79EFFFEF71EFD2C4A2D4BAF
:102A2000FEF75FF9FDF796FF2B49884202D82B4944
:102A300088421BDD0020207021E029490098FEF724
:102A400035FD0646A0606878002809D0A868FEF722
:102A500027FE314613F076FF3946FEF727FDA060CA
:102A60000121C902124805F0D3FD0EE001212170B9
:102A700060606978002903D0296913F0F3FE606073
:102A80000121C9020A4805F00CFE012005B0F0BD85
:102A90000C000020000001400000203A88010020C6
:102AA0000000443F0000484200007AC400007A441D
:102AB00000200B4000000440000020410000704155
:102AC00000F4AA4083DBB5DCE1796B3F0000F03F06
:102AD0006666666666127140000020C20000FA4217
:102AE0008C2EBA3D10B504210348FFF7C9FE01281A
:102AF00001D1FFF7B7FE10BD000001408030002A71
:102B0000026801D00A4300E08A43026070479308DC
:102B100030B49B001B1858689207D40E1F22A240A5
:102B20009043A1400843586030BC70475B1E1202BE
:102B30001B04FF3A013A13430B4301688022114002
:102B40000B4303607047CA06D20E02674909490168
:102B500041677047016270470029416F02D001222E
:102B6000114301E0490849004167704710B4002251
:102B7000072801D9012208389300064A9B181A68D1
:102B800080000F248440A24381401143196010BC8F
:102B90007047000000200240F0B5374BC000C61857
:102BA00093B048080E9010010C908808069010020F
:102BB0000B90C808059010030990080904901004B0
:102BC000089048090A901005079088098646100663
:102BD0000390C80900258446100702900020FF24B6
:102BE000AC4003460C4240D00124AC40214201D00D
:102BF0000F2013460E9F274203D0F02738430C9F27
:102C00003B43069F274204D00F273F0238430B9FC8
:102C10003B43059F274204D00F273F033843099FBA
:102C20003B43049F274204D00F273F043843089FAB
:102C30003B430A9F274204D00F273F053843079F95
:102C40003B437746274204D00F273F063843039F74
:102C50003B436746274204D00F2424072043029CAD
:102C60002343346884431C4334600835361D092DE2
:102C7000B4DB13B0F0BD000020200240184880787B
:102C8000002801D10120704770B5012180200CF08F
:102C900083FA002823D00A2012F04CFD00212020C6
:102CA0000CF07AFA04460A2012F044FD012140207B
:102CB0000CF072FA044012F065FB642012F03AFD49
:102CC000002140200CF068FA2040054600218020B9
:102CD0000CF062FA04462C4012F054FB204670BD02
:102CE000A400002018488078002801D101207047F6
:102CF00070B5012180200CF04FFA002823D00A2063
:102D000012F018FD002140200CF046FA04460A207B
:102D100012F010FD012120200CF03EFA044012F0C8
:102D200031FB642012F006FD002120200CF034FA63
:102D300020400546002180200CF02EFA04462C404D
:102D400012F020FB204670BDA4000020F8B5002042
:102D50007E4C03466070A0707DA27EA1632011F0BE
:102D60000FF9012102200CF07BF906460A2012F02F
:102D7000E1FC694602200CF03BF905466846354007
:102D80000078012670406070002102200CF068F984
:102D90002840074660780021002806D002200CF069
:102DA000FBF93840050002D009E00120F9E70323D0
:102DB0006CA26DA1632011F0E3F80FF06FFB6E4F72
:102DC00061783878884311D004236CA26CA1632009
:102DD00011F0D6F8C82012F0ADFC042367A26CA154
:102DE000632011F0CDF8C82012F0A4FC00236CA2DF
:102DF0006CA1632011F0C4F8012104200CF030F91B
:102E00000540012108200CF02BF905400A2012F0A2
:102E100091FC694604200CF0EBF805406846007808
:102E200069467040A07008200CF0E2F80540684642
:102E30000078002801D00020A070002104200CF0B0
:102E40000FF90540002108200CF00AF90540267012
:102E5000002108200CF0A0F90540002104200CF00E
:102E60009BF9284207D1002352A253A1632011F0FD
:102E700087F80FF013FB3878A178884311D004232A
:102E800051A23FA1632011F07BF8C82012F052FC40
:102E900004234DA24DA1632011F072F8C82012F056
:102EA00049FCA07800282BD04C484D4980688842C6
:102EB00026DB4C48807A002823D0012180200CF0AA
:102EC0006BF900281CD00A2012F034FC00214020AD
:102ED0000CF062F90A2012F02DFC012120200CF0E8
:102EE0005BF912F04FFA642012F024FC002120203C
:102EF0000CF052F9002180200CF04EF912F042FA49
:102F0000F8BD012180200CF047F90028F8D00A20F4
:102F100012F010FC002120200CF03EF90A2012F0E3
:102F200009FC012140200CF037F912F02BFA642043
:102F300012F000FC002140200CF02EF9002180202E
:102F40000CF02AF912F01EFAF8BD0000A4000020CF
:102F500034350000B3F5CABCBBAF4154434DC4A3E4
:102F6000BFE90000464300004154434DC4A3BFE9FC
:102F7000D2ECB3A30000000035000020343600007E
:102F8000BCECB2E2B5BDBEC9B0E6D3B2BCFE000037
:102F90004154434DC4A3BFE9D2D1BDFBD3C300000C
:102FA00034370000B3F5CABCBBAF41504D4DC4A38C
:102FB000BFE900004644000041504D4DC4A3BFE9A5
:102FC000D2ECB3A3000000003438000041504D4D56
:102FD000C4A3BFE9D2D1BDFBD3C300008801002048
:102FE0000000F040D0030020F0B5554C83B0A0782D
:102FF00000283ED0002568460095057106F04EFC7D
:1030000001A806F0D7F8217801274E4E4E48002936
:1030100069D001292FD002292BD10420205E00285D
:1030200008DD401E00B2A080002803D10121082045
:103030000CF0B2F881200099C005814210DB68468F
:10304000007907280CD000280AD04048814210DCC3
:10305000002108200CF0A0F8052012F06BFB66E0C0
:10306000002108200CF098F8012104200CF094F8BD
:10307000257003B0F0BD80683549884203DB3549CF
:10308000897A002903D05020A08003B0F0BD04212C
:10309000615E002904DD491E09B2A1800029F4DC2B
:1030A000FEF7DAF932462C4BFDF70EFE06460F46C8
:1030B0000098FEF7D1F932463B4613F06DFBCFD3B3
:1030C000684600790728CBD00028C9D0234800994A
:1030D0008142DADD0420A08001210CF05DF802209D
:1030E000207003B0F0BD694609790729F9D000299D
:1030F000F7D00099194A0291914207DD0121082079
:103100000CF04AF80220207003B0F0BD8068FEF792
:10311000A3F93246104BFDF7D7FD05460E4602983F
:10312000FEF79AF92A46334613F068FBECD20021E9
:1031300004200CF031F81020A080277003B0F0BDFF
:10314000A40000209A99999988010020666656414A
:103150000000F040D00300209999B93F66665E41B7
:1031600006498978002901D101207047012110B555
:10317000414010200CF010F810BD0000A400002009
:10318000054A5278002A01D10120704710B5014646
:1031900002200CF001F810BDA400002010B5124C64
:1031A0006078002812D0002102200BF0F5FFA078F3
:1031B000002810D0002108200BF0EEFF142012F0A0
:1031C000B9FA002104200BF0E7FF10BD0121022015
:1031D0000BF046FFEBE7012104200BF041FF01213A
:1031E00008200BF03DFF10BDA400002070B584B096
:1031F000184E0025164C334617A221210A200195AE
:10320000009409F0A5FC0C200190174B17A2212176
:10321000029500945B2009F005FF334616A2312188
:1032200038200195009409F093FC731015A24021F9
:103230000A200195009409F02BFE154B15A24021A0
:103240005E200195009409F023FE04B070BD0000DB
:1032500010840000FFFF0000B9D8D7A2DFD9C1A8B1
:10326000DFD9C1A800000000E0FF0000404D503849
:103270003639353700000000D0BBD0BBDFF7A3A143
:10328000000000004A616E203233203230323600B6
:1032900020FD000030393A34363A32300000000068
:1032A00070B5104C0026A079052809D10E4D0121DA
:1032B00068784840687002D001200FF04FF92E70F6
:1032C000A079042809D100200FF048F907480078B8
:1032D000002804D0064811F04BFAA67170BD0548CD
:1032E000F9E700002C000020180100205000002009
:1032F0003CD20100D0D70100F0B5494F0C263878F8
:103300000024484D83B000281BD0787800280BD0CB
:1033100003F032FC034644A2312138200095019489
:1033200009F016FC03B0F0BD03F026FC034641A2F1
:103330002821372001960095029409F073FE03B00E
:10334000F0BD0DF073FC79783D4B00290095019498
:1033500029D03C4A21210A2009F0FAFB3A4B3B4A8A
:1033600021215B2001960095029409F05BFE344B0D
:10337000374A312138200095019409F0E9FB354B9B
:10338000354A40210A200095019409F081FD334B14
:10339000334A40215E200095019409F079FD012017
:1033A000387003B0F0BD2FA21521042009F070FD84
:1033B000234B32A2282104200095019409F0C8FB78
:1033C0001F4B1CA22821372001960095029409F07A
:1033D00029FE1B4B2CA2282185200095019409F081
:1033E000B7FB174B2AA23D2107200095019409F055
:1033F000AFFB134B3A223D213920019600950294F0
:1034000009F012FB134B25A23D21402001960095A7
:10341000029409F007FE0120387003B0F0BD0000EF
:103420001801002010840000D0BBD0BBDFF7A3A19F
:103430000000000052656473746F6E65723335006E
:10344000FFFF000058320000E0FF00006C32000077
:1034500078320000FF7F00008432000020FD000071
:1034600094320000444645782D47543936D6C7BBC0
:10347000DBB5E7B3D8D7D3CFB5CDB300C8EDD3B262
:10348000BCFED3C900000000C9E8BCC600000000B3
:10349000B9CCBCFEB0E6B1BE0000000056312E35FE
:1034A000204275696C6431340000000010B5024898
:1034B00011F05EF910BD000048DB01000B48082147
:1034C000415E002901DD491E01810621415E00297E
:1034D00001DD491EC1800189002905D10C21415E11
:1034E000002901DD491E8181704700001E01002076
:1034F0000348002101814181017181707047000002
:103500001E010020F0B5FF4883B080780A283ED223
:1035100001007944097949188F44043B13D183FE93
:10352000F6F5F4F40DF082FB0021F74801910090CC
:10353000F64BF7A216210E2009F00AFB04F08CFAD4
:1035400022E00DF073FBF04800250090EF4BF0A255
:10355000162101950E2009F0FBFAEA4C2020E080AC
:103560000020FFF7FDFD06460A2012F0E3F8FFF702
:10357000B9FB06400120FFF703FE304202D125715E
:10358000042000E00120A070E7490120087003B08A
:10359000F0BDE6490120E44E087030780028F6D0EE
:1035A0000DF044FB0025D84FD84BD9A216210E2090
:1035B0000097019509F0CCFAD24C0620205E002835
:1035C0001AD002280BDAE5800020FFF7D9FD05208C
:1035D00012F0B0F8FFF752FB0120FFF7C1FDD4480D
:1035E000357000780028D2D0072818D0022020712A
:1035F0000420A07003B0F0BDCE480078002805D0AC
:1036000004202071A070357003B0F0BDCA4BCBA26E
:10361000252111200097019509F03AFCDFE70320EE
:10362000E7E7C2480127B74E077030780028EBD192
:103630000DF0FCFA0024B44D1F23DB02C4A21621B6
:103640000E200095019409F083FA3079052831D2D3
:1036500001007944097949188F4414021D240B0094
:10366000B54BC1A2252120200095019409F070FAE4
:1036700020E0B14BC0A2252120200095019409F043
:1036800067FA17E0AC4BC1A22521202000950194D8
:1036900009F05EFA0EE02521A74BC0A2112000958B
:1036A000019405E0A44BC2A225212020009501949D
:1036B00009F04EFA10F088FD377003B0F0BD012418
:1036C000042007F0C5FD002800D100240021084691
:1036D00005F01BFD002819D0002C17D089490520C2
:1036E0008870944800780028E7D00020FFF748FD54
:1036F000052012F01FF8FFF7C1FA0120FFF730FD97
:1037000003B0F0BDCDE020E011E005E07D480021F0
:10371000017104218170F3E7844901200870844815
:1037200000780028ECD1774906208870E8E701206E
:1037300007F08EFD04460121002005F0E6FC204242
:10374000E4D0704907208870DAE7784901206D4D90
:103750000870E878002832D0994CA07A002810D15F
:10376000E888002801D11020E8800620285E102873
:1037700002D00A2802D004E0002000E00120FFF778
:10378000FFFC90489049006840004008884202DBF6
:10379000A07A002802D12889002802D05020A881D0
:1037A0000DE0A88900280AD1E870FFF7E9FC0520A0
:1037B00011F0C0FFFFF762FA0120FFF7D1FC834848
:1037C0004178002906D10078022803D028890028F2
:1037D00018D021E00820285E082802DD002028817A
:1037E00001E0002818D10A20285E032807DA05F036
:1037F0002FFC6889401C6881082028810CE0082083
:10380000A87009E00A20285E002805D0102129812F
:10381000002801DD401E688102F0D0FF002802D0A0
:103820000920A87002E0A878072830D000210846B7
:1038300005F06BFC042007F00BFD0024642011F060
:1038400079FF641C052CF9DB61480078002804D05E
:103850000021012005F059FC0EE05E4800780028A8
:1038600005D05D480178012005F04FFC04E05B487D
:103870000178012005F049FC02F096FC002800D0F8
:10388000032007F0E5FC05F0E3FB00206870264804
:103890000078002800D133E70DF0C8F900F0C6F831
:1038A0002EE722490120204D087028780028F2D008
:1038B0000DF0BCF9134CA078092821D00021124842
:1038C0001F2301910090DB0245A216210A2009F076
:1038D0003FF910F079FC1748E178007808420CD0E5
:1038E0000020FFF74DFC052011F024FFFFF7C6F97B
:1038F0000120FFF735FC0020E07000202870FFE673
:103900007AE000001E01002010840000FFFF00008C
:10391000CACAC5E4C6F7C4A3C4E2BFAAC6F4D6D0D7
:10392000A1ADA1AD00000000B0000020AE0000205D
:10393000B6000020A5000020E0FF0000C7EBBDABF3
:10394000B8BAD4D8C1ACBDD3B5BD55534200000000
:10395000CACAC5E4C6F7C4A3C4E2BFAAC6F4CAA7CC
:10396000B0DCA3A100000000B5E7B3D8B5E7D1B93A
:10397000B9FDB5CD00000000B7C5B5E7CAE4B3F6A0
:10398000BFAAC6F4CAA7B0DC00000000D0BEC6AC17
:10399000CDA8D0C5B4EDCEF300000000CFB5CDB3B7
:1039A000B4A6D3DAB7C7D5FDB3A3C4A3CABD00007C
:1039B000CFB5CDB3B3F6CFD6B9CAD5CF000000008E
:1039C000B8010020C0000020CDCCCC3DB9000020C3
:1039D00047010020750100206100002076010020D1
:1039E000CFB5CDB3B3F6CFD6B9CAD5CFA3ACC4A3A8
:1039F000C4E2CDA3D6B90000002105481F230191E0
:103A00000090DB0203A216210A2009F0A1F860E76A
:103A100010840000B5E7B3D8B5E7C1BFB9FDB5CD97
:103A2000A3ACC4A3C4E2CDA3D6B90000F0B5FD4851
:103A3000FD4C0078FD4F002585B0002806D01721E9
:103A4000FB4BFCA216200195009425E0FE48FF499F
:103A500000780978084218D0FD48817AFD48C0787E
:103A600001430BD0002810D03F235B01FAA217219D
:103A700016200195009409F00BFA0FE017213B4640
:103A8000FAA20D2001950094F5E73F235B01FDA20A
:103A9000172119200195009409F05AF83B46FEA21F
:103AA0002C2106200195009409F052F80C263B4683
:103AB0003A222C211E2001960295009408F0B4FFB2
:103AC000E348807A00286ED0E0480178F448002965
:103AD0006AD0F4490068096812F034FF4000F249E6
:103AE0004008884209DA024602232C212920009747
:103AF0000296019409F0E8F817E0EC49884209DAE7
:103B0000024601232C21292000970296019409F0F6
:103B1000DBF80AE0FDF77AFD82B204232C2129208C
:103B200000970296019409F0F7F93B4657222C21A1
:103B3000522001960295009408F076FFC449087A55
:103B4000002804D001284ED0022855D05DE0487AE4
:103B500001285AD0082845D201007944097949182A
:103B60008F449595030D17232D373B46D0A22C216A
:103B7000672001960295009409F054FA87E03B46CD
:103B8000CDA22C21672001960295009409F04AFAF3
:103B90007DE0CB4BCBA22C216720019602950094AF
:103BA00009F040FA73E061E036E0C54BC7A22C2172
:103BB000672001960295009409F034FA67E0C54B3E
:103BC000C5A22C21672001960295009409F02AFADB
:103BD0005DE0C04BC2A22C216720019602950094A3
:103BE00009F020FA53E03B46BFA22C216720019543
:103BF000009408F0ADFF4AE03B46BDA22C216720AF
:103C00000195009408F0A4FF41E02C213B46BAA2A4
:103C100067200195009438E0A9490091029601942B
:103C2000026802232C21292009F04EF83B46562237
:103C30002C21522001960295009408F0F5FE994837
:103C4000022300682C214200A248009052080296EC
:103C50000194672009F038F83B4641222C2190203E
:103C600001960295009408F0DFFE10E0994BA5A2A2
:103C70002C21292001960295009409F0D3F93B46A6
:103C8000A2A22C2156200195009408F061FF3B462A
:103C9000A0A23D2106200195009408F059FF3B4663
:103CA0003A223D211E2001960295009408F0BCFEA8
:103CB00066489A490078002872D09948994A006865
:103CC00043005B08934200DA0020096812F03AFED4
:103CD000400075494008884209DA024602233D2126
:103CE000292000970296019408F0EEFF17E06F4933
:103CF000884209DA024601233D21292000970296D5
:103D0000019408F0E1FF0AE0FDF780FC82B2042391
:103D10003D21292000970296019409F0FDF83B46C9
:103D200057223D21522001960295009408F07CFE16
:103D30007D48017800291CD04068FDF767FC002809
:103D400021DAFF274042D03703903B462D223D2108
:103D5000019602950094672008F066FE039800978C
:103D600082B20296019402233D21672009F0D4F823
:103D700027E03B466DA23D21672001960295009405
:103D800009F050F9DFE00A2801DA1F2710E068493E
:103D9000496C0A46143A824203DD3F277F0107E05F
:103DA00019E00839814201DD4A4F01E01F27FF0277
:103DB00082B202233D21672000970296019409F008
:103DC000ABF83B465BA23D2188200196029500940A
:103DD00008F0DAFEB7E03A480090029601940A68CB
:103DE00002233D21292008F06FFF3B4656223D214A
:103DF000522001960295009408F016FE484800688B
:103E0000420048485208824200DA002231480090BD
:103E100002233D2102960194672008F055FF3B469E
:103E2000412289E06200002010840000FFFF0000B2
:103E300020FD0000CFB5CDB3B9FDC8C8A3ACC4A365
:103E4000C4E2D4DDCDA30000A5000020B400002012
:103E5000B80100201E0100205553422D41BFDAC495
:103E6000A3C4E2D2D1BFAAC6F4000000B0B4CFC24E
:103E7000456E746572BFAAC6F441BFDAC4A3C4E23A
:103E800000000000CACAC5E4C6F7C4A3C4E2D2D188
:103E9000BFAAC6F400000000CAE4B3F600000000A8
:103EA000BC000020C00000200000C84200007A448E
:103EB000504420375600000050442039560000007E
:103EC000FF7F00005044313256000000504431352D
:103ED00056000000E0FF0000504432305600000061
:103EE0005044455052000000B8DFD1B90000000036
:103EF000B8DFC1F700000000BFECB3E4B9D8B1D51A
:103F000000000000547970652D430000CEB4C1ACB0
:103F1000BDD30000B5E7B3D800000000C400002006
:103F2000C8000020CDCC4C3D880100202D2D2D0057
:103F3000A8020020A1E600003D21902001960295F4
:103F4000009408F071FD0248057005B0F0BD000056
:103F5000B0000020F8B53448344F0078344C0025C8
:103F6000002818D0B879032815D1A078072857D190
:103F7000E078002813D00020FFF702F9064605205C
:103F800011F0D8FBFEF77AFE06400120FFF7E8F8B3
:103F9000304200D0E570B879042816D040E02548BA
:103FA000807A00283CD1FFF7DBF806460A2011F0A2
:103FB000C1FBFEF797FE06400120FFF7E1F8304015
:103FC000E070E8D0A020A081E5E7E078002802D1E9
:103FD000A07807280AD00020FFF7D2F8052011F0BA
:103FE000A9FBFEF74BFE0120FFF7BAF81248134970
:103FF0000278002A0CD005700D7000215023A022F9
:104000000846009508F0FEF90D4810F0B1FB05E0F8
:104010000878002806D00B4810F0AAFB02F070FDCB
:10402000BD71F8BD0848F7E7A50000202C0000206E
:104030001E010020B80100204B010020500000208C
:10404000D4CD01003CD20100D0D7010010B500232F
:104050000FA210A148200FF093FF124A1248D17A04
:104060000378994211D00170002901D0012906D1AD
:1040700002210170D17201210C4811F0FDF908F004
:104080009BFA80210A4804F0C3FA0BF003FC10BD30
:1040900032370000C9E8D6C3CFD4CABEB7BDCFF20D
:1040A00000000000E802002009000020A802002013
:1040B00000400B4008480821C1700A21816007496F
:1040C000097A002906D00649C97A002901D04B2176
:1040D00089014160704700005400002090030020D7
:1040E000D003002070B50D4C00256068012807D072
:1040F00000280BDDE178002909D0491EE17009E0B4
:1041000007486560C57204F001FAA56070BD08211A
:10411000E1702570401E606070BD000054000020FA
:10412000D0030020F8B5704901200870FF216F4AC4
:10413000E13111806F496E4C8D796F49704A097871
:10414000704B8E4621460979E6788C466B49127889
:104150001B78062E47D237007F443F79FF19BF44B2
:104160000228576688A7002A03D0052A01D05026C6
:104170002671664E644F37602679002E09D0042DD3
:1041800013D0072A11D05C4A73452CD008701370E5
:1041900090E00870E07060700EF064FA00206946EC
:1041A00008704870887068462FE008700520E0703D
:1041B00080E0564A774613684F4A5E073E4313D065
:1041C0005E0701D000261670042D04D0504A514DD0
:1041D0009268AA420FDA08704C480021016005205D
:1041E000E0700EF03FFA65E0087010704A4A5669B8
:1041F000761C5661E8E7002B5CDC08700220E0705A
:10420000282020710EF02EFA444806F0E7FF51E016
:10421000002A03D0072A01D00322E2706246002A56
:1042200048D108700420E0701820207142E0002678
:10423000364F002A3E6004D0052A02D0502727714D
:1042400002E06746002F07D0072A05D0042D0AD0C8
:10425000294A73452ED099E708700420E070182091
:104260002071267026E008700520E0700EF0FAF943
:1042700020E0604610431DD100252448A57005604C
:10428000254E2571E5703046B56202F08FF8F06476
:1042900011F03EF96078002820D100215023A0229F
:1042A0000846009508F0AEF81D4810F061FA01E0EC
:1042B000042D03D00F4900208871F8BDA070134869
:1042C000002505602571E570134802F06FF812496A
:1042D000C86411F01DF960780028DED065700EF01A
:1042E000C1F906F0D3FAD8E7AE000020060000209E
:1042F0003C0100202C000020360100203501002068
:10430000B6000020B40000208032020080000020AF
:10431000880100209A99214190030020D0020020BA
:10432000D4CD0100E4480078002803D1E348807927
:1043300000287AD0F0B585B00CF078FCE0480C2568
:10434000C078E04CE04F002606286FD20100794487
:10435000097949188F4402FDFC02FBFADB49097810
:1043600005293BD0062943D0D94B03280196009458
:1043700048D0D8A21621212008F0EAFB3B46D9A25A
:10438000282106200196009408F0E2FB3B463A22E1
:1043900028211E2002960195009408F045FBD34881
:1043A0000078002878D0D248D249006842005208EC
:1043B0008A4200DA0020D049096812F0C3FA4000AE
:1043C000CE494008884223DA0246022328212920C8
:1043D00000970295019408F077FC33E03F235B01DE
:1043E000C7A2162121200196009408F0B1FBC5E771
:1043F0001F23DB02C6A2162121200196009408F09B
:10440000A7FBBBE7C6A21621212008F0A1FBB5E758
:10441000C74988420BDA0246012328212920009748
:104420000295019408F050FC0CE043E13CE1FDF7FB
:10443000EDF882B2042328212920009702950194E7
:1044400008F06AFD3B46572228215220029601952A
:10445000009408F0E9FAB748017800291DD04068B7
:10446000FDF7D4F8002822DAFF274042D037039026
:104470003B462D222821029601950094672008F0E2
:10448000D3FA0398009782B202950194022328215F
:10449000672008F041FD27E030E03B46A6A2282136
:1044A000672002960195009408F0BCFDFCE00A2804
:1044B00001DA1F270FE0A149496C0A46143A8242EB
:1044C00002DD3F277F0106E00839814201DD9C4F74
:1044D00001E01F27FF0282B20223282167200097F4
:1044E0000295019408F018FD3B4696A228218820E9
:1044F00002960195009408F047FBD5E092480090A1
:104500007D4802950194026802232821292008F0A1
:10451000DBFB3B465622282152200296019500944F
:1045200008F082FA724800684200724852088242DB
:1045300000DA00228248009002232821029501948B
:10454000672008F0C1FB3B46412203E0A3E09AE06C
:104550008AE005E02821902002960195009426E04B
:10456000594B7AA2162121200196009408F0F0FA06
:104570005E48007800281DD0534F78A23B46282182
:1045800019200196009408F083FC781000905A4896
:10459000029501940268022328214F2008F094FB21
:1045A0003B4656222821782002960195009408F077
:1045B0003BFA79E06C480068C117490F0818C01031
:1045C000E12109010190FCF7DBF8009008463C214D
:1045D000FCF7D6F807463C210198FCF7D1F8009883
:1045E00003910490384B61A22821019600940E207B
:1045F00008F04EFC3F20400100900498029582B2E2
:10460000019401232821332008F086FC2E4B59A267
:1046100028213E200195009408F09AFA3F2040019D
:104620000090BAB202232821029501944E2008F08E
:1046300073FC254B50A2282162200195009408F0BC
:1046400087FA3F200399400100908AB202950194B5
:1046500002232821722008F05FFC28211A4B47A270
:104660008620019500941DE03B4645A216210A20B4
:104670000196009408F06CFA28213B4646A22E20B1
:10468000019600940EE03F235B01222145A22120E8
:104690000196009406E01F23DB0246A222211B2084
:1046A0000196009408F054FA0FF08EFD024806704F
:1046B00005B0F0BD70470000350100202C0000203F
:1046C0003C01002010840000FFFF0000B600002025
:1046D00020FD0000B5E7B3D8B0FCB3E4B5E7D6D011
:1046E000A1AD0000B5E7B3D800000000B400002081
:1046F000C8000020CDCC4C3DC40000200000C842C2
:10470000C8B7C8CFB3E4C2FAD7B4CCACA1AD0000EF
:10471000B5E7B3D8B0FCB3E4B5E7D2ECB3A300007F
:10472000B5E7B3D8B6FEB4CEB2B9B5E7D6D000007F
:1047300000007A44880100202D2D2D00A8020020C1
:10474000E0FF0000A1E60000FF7F0000D7D4B6AF75
:10475000BEF9BAE2D4CBD0D0D6D00000B5E7B3D8FA
:10476000B5E7D1B93A00000080000020CAA3D3E029
:104770003A000000CAB10000B7D60000C3EB000049
:10478000C8B7C8CFCAC7B7F1BFC9D2D4B6FEB4CE76
:10479000B2B9B5E700000000C7EBC9D4B5C8A1ADF8
:1047A000A1AD0000D7D4B6AFBEF9BAE2D2D1BDE117
:1047B000CAF80000D7D4B6AFBEF9BAE2D2ECB3A3C0
:1047C000BDE1CAF80000000003490879002801D0C3
:1047D000401E0871704700003C01002010B50248DF
:1047E0000FF0C6FF10BD00000CE9010010B5054C2C
:1047F000A079042802D104480FF0BAFF0020A0716C
:1048000010BD00002C00002020D3010010B5054889
:104810000078002803D004480FF0AAFF10BD034819
:10482000FAE70000500000203CD20100D0D7010080
:1048300010B502480FF09CFF10BD00003CD20100F3
:1048400010B502480FF094FF10BD0000D0D7010052
:1048500010B5094CA07904280AD10848007800282E
:1048600007D007480FF084FF00200649A0710870A8
:1048700010BD0548F6E700002C0000205000002085
:1048800028D40100EE000020D0D70100F8B53F4C3D
:104890003F4E217800270125B079002906D0012953
:1048A0002CD0022959D0032967D156E0012804D021
:1048B000022807D004280BD011E0606810285FDAC6
:1048C000401C03E0606801285ADD401E606057E02C
:1048D00030480078002806D02F480FF049FFB07903
:1048E000032802D049E02D48F7E7E1216068C901BB
:1048F00048432B4908602570657041E0FF21E13194
:10490000284A0428118004D0274828498068884212
:1049100004DA23486570076003201CE02048006823
:1049200000280EDDA2784107114303D0400724D0B0
:10493000A77022E065701E48A5704169491C41615D
:104940001BE01B48876201F031FD1949C86410F073
:10495000DFFD6570022020700FE004280DD114489F
:1049600001F024FD1249C86410F0D2FD0948007816
:10497000002808D008480FF0FBFEB079002800D0CE
:104980006570B771F8BD0548F5E7000034010020F7
:104990002C000020500000203CD20100D0D70100A4
:1049A0008000002006000020880100209A99214103
:1049B00090030020F0B5864E85B07078002803D1B2
:1049C0008448807900287DD00CF030F93078824F0F
:1049D0000C240025002808D03F235B01012829D0A2
:1049E000022870D003286FD1EAE07C4B7CA215210D
:1049F00023200097019508F0ABF8784B7CA22A2180
:104A000020200097019508F0A3F87B4801970294B5
:104A10000090706882B20A2801DA392000E03D2057
:104A200002232A2108F078FA6C4B74A22A210097FD
:104A30000194BDE068483F2300905B0172A21621FB
:104A40000195212008F084F873490120087073480B
:104A5000007800281DD072480068C117490F081857
:104A6000C710E12109013846FBF78AFE009008468D
:104A70003C21FBF785FE04903C213846FBF780FE85
:104A8000009F55480391019500900A2F23DA0E20CC
:104A900022E0514F514B63A2282119200097019524
:104AA00008F0F6F9624800906248019702940268A3
:104AB000022328214F2008F007F956222821474BCE
:104AC000782002E07AE050E075E0009702950194CA
:104AD00007F0AAFF6FE00B20404B57A2282108F0F7
:104AE000D7F93F2149013C480294009101900A2FD7
:104AF00001DA012300E00223BAB20A2F01DA3320DF
:104B000000E02D20282108F007FA334F334B4CA248
:104B100028213E200097019408F01AF83F20400118
:104B200000900498019782B20294022328214E201B
:104B300008F0F2F9294B43A2282162200097019442
:104B400008F006F83F20400100900398019782B2D8
:104B5000029402232821722008F0DEF928211F4B3D
:104B600039A286200097019423E038A21621212043
:104B70000097019507F0ECFF184B1DA2292120207A
:104B80000097019507F0E4FF1B48019702940090FD
:104B9000706882B20A2801DA392000E03D20022341
:104BA000292108F0B9F90D4B14A22921009701948D
:104BB0004F2007F0CDFF0FF007FB757005B0F0BD7B
:104BC0001F23DB02232125A21C2000970195F0E77B
:104BD000340100202C00002010840000FFFF0000A2
:104BE000C7EBD6B8B6A8BEF9BAE2CAB1BCE40000B9
:104BF000B9B2BCC600000000E0FF0000BEF9BAE296
:104C0000D0A1CAB100000000CAD6B6AFBEF9BAE260
:104C1000D4CBD0D0D6D00000AE000020B40000200D
:104C200080000020B5E7B3D8B5E7D1B93A0000005D
:104C3000FF7F0000C4000020CAA3D3E03A000000B8
:104C4000CAB10000B7D60000C3EB0000CAD6B6AFA9
:104C5000BEF9BAE2D2D1CDEAB3C90000CAD6B6AF26
:104C6000BEF9BAE2D2ECB3A3BDE1CAF8000000007D
:104C7000F8B500231FA220A134200FF081F90124F0
:104C80000025002120460AF087FA0646002120462A
:104C90000AF034FA30400746002120460AF0E0F9D5
:104CA00006463E40082C03D103F024FD002805D120
:104CB00060066D1C040EEDB2082DE2D3002E07D164
:104CC000032311A211A134200FF05AF90DF0E6FBD5
:104CD0001248502181708160002311A211A135205A
:104CE0000FF04EF913481449826F0968C06F07F03E
:104CF00027F9F8BD31320000BEF9BAE2BFD8D6C6F6
:104D0000C6F7C5E4D6C3000045440000BEF9BAE2C8
:104D1000BFD8D6C6C6F7D2ECB3A300007C000020F3
:104D200031330000D3A6D3C3414443D0A3D7BCCA78
:104D3000FDBEDD00A80200202803002010B50021E0
:104D400001200AF029FA10BDF0B583B000206946B1
:104D500008705F485F4E407D5F4F604D002835D042
:104D600001A804F027FA6846007900280ED0072829
:104D70000CD0A868002801DD401EA8605848B16822
:104D8000814223DDA868002820D101E05020F4E70B
:104D900004F06DFB6978814218D06870002815D046
:104DA0006868002812DC387C002805D04D494E4840
:104DB000007800280AD101E04C49F8E74C48806AA5
:104DC00011F096FD02D34B480FF0D2FC684604F078
:104DD000F1F94348B168814261DD6868002803DD6C
:104DE000401E0124686067E068460078002803D10F
:104DF00041490A5E082A52DB404901230978032908
:104E000008D03A7C002A4AD0012A30D0022A01D0A8
:104E1000032A51D1012828D0022826D0032807D000
:104E200005283CD003293AD0387C03281DD036E031
:104E30002C78A878002C0ED0002830D0F1684A00D9
:104E40002F4952088A4201DA401E02E0502833D22C
:104E5000401CA87030E0502825D2FF21F268890557
:104E60008A42F5DC0028EFD126E0012424E0042862
:104E700015D0052813D0032802D000280FD0F4E75E
:104E80002C78A878002C0CD0002808D0F1684A00B3
:104E90001B4952088A42D7DB5028D9D30CE00024A2
:104EA0000AE0502801D31C4606E0FF21F26889057C
:104EB0008A42CDDC0028C7D12878A04206D02146FE
:104EC00001200AF069F9002800D02C7003B0F0BD71
:104ED000C802002088010020E80200207C00002099
:104EE00033331F41000084413E010020000038415F
:104EF00090030020B0DE0100060000203F010020EA
:104F00009A99193F10B5024806F072FC10BD0000D6
:104F100084E6010010B5024806F06AFC10BD0000EE
:104F200064E6010003498968014201D0012070470D
:104F3000002070470080084004494A680123DB02D2
:104F40009A43C00202434A60704700000080084054
:104F5000F0B4084F7D6AFE6A3C6B85438E439443F0
:104F6000002B02D005430E4314437D62FE623C6376
:104F7000F0BC70470080084010B4054B9A6A0724C3
:104F80008440A24381400A439A6210BC70470000EB
:104F90000080084010B50021802001230A460BF054
:104FA0009FF810BD002A05DD0B780373491C521EC3
:104FB000002AF9DC80687047F8B5644D0820285E47
:104FC000002801DD401E288106206149285E002658
:104FD0000C7800280FDD32280BDA5E49897A002927
:104FE00007D0022C3CD0012C3AD0032C38D0052C11
:104FF00036D0401EE8805549A878C9784A1ED7B2F5
:1050000003282FD0012803D0022801D0082826D158
:10501000514A012010702878002801D0401E2870C5
:105020004E48007800281AD0012C03D0022C01D061
:10503000032C14D14A480078002810D1434A002993
:10504000D0681269009215D0464CA16811F00AFC94
:10505000E860E168009811F005FC2861EF70F8BD88
:10506000EE80C8E7002901D0EF70F8BD0820E87095
:105070002E71F8BD0221C943FCF71EFB0746022131
:10508000E860C9430098FCF717FB014628613648E1
:10509000826A5200120E03D1344A914200DB8762C9
:1050A000012C04D0022C06D0032C0BD107E0816820
:1050B000491C816006E0C168491CC16002E00169C9
:1050C000491C0161044640683946401C6060606AC2
:1050D00011F090FC01D2606A00E0E8686062A069AB
:1050E000296911F087FC01D2A06900E028691D4FF1
:1050F000A0613878002806D07968E06911F07AFC60
:1051000004D2E06903E01A48E06101E07868E061F8
:105110002F6918497800400811F014FC1649FCF773
:10512000C5F9616911F09EFB60613946E86811F0CC
:1051300009FC400040081049FCF7B8F9E16A11F099
:1051400091FBE062EE602E6190E70000D800002045
:10515000B6000020B8010020AE000020AC00002006
:105160007400002088010020600300209A99193EF5
:105170000000C8C200007A4400006145F0B57A4AD8
:1051800077487A4992680D789446764B0246062411
:1051900077498678145F9B7A0022097883B0072EBE
:1051A0001DD237007F443F79FF19BF44033ABC1832
:1051B0006A5963006F4C257B022D05D06E4C247814
:1051C000002C14D00D2145E007290AD006290AD069
:1051D0000121817022730021684810F04DF903B05D
:1051E000F0BD0B2100E00C21817003B0F0BD072958
:1051F0007ED006297DD0002901D1002B01D00921C4
:1052000028E05F490978002901D00E2122E05D4B9A
:105210009C4501DD0A211DE001211BE0027103B064
:10522000F0BD002BFBD0082916D20B007B441B7964
:10523000DB189F441105050511050403D1E7D2E7EA
:10524000514B61469962C26008210261C17001211F
:10525000417002218170E1E7022EDFD003B0F0BD82
:1052600023436FD007296FD006296FD0002DF5D1C9
:105270000221EFE7002CF1D102218170027103B00D
:10528000F0BD002C01D0062112E0002B07D0072929
:1052900007D0062907D0002D07D0052108E00721F7
:1052A00006E00B2104E00C2102E0052902D00221D6
:1052B000817002710821415E0029E0DC0271032146
:1052C0008170314C42702078019001202070A269D9
:1052D0002E491046009211F035FB65692946FCF70E
:1052E000E5F82062CCCC2A49CCC12368009A01E0C1
:1052F0002AE02BE0E668CE604D600B608A60A3690F
:105300006269E46910311DC100211F4810F08AF85C
:1053100001980028B3D10AF085FC0021174810F04D
:10532000ABF803B0F0BD002C01D0062192E7002BB2
:1053300008D0072908D0062908D0002D08D005215B
:1053400088E7FFE7072185E70B2183E70C2181E749
:105350000529E6D10F218901018104217AE70000A6
:10536000D8000020B801002088010020740000202F
:10537000B6000020E802002075010020A8020020ED
:1053800063000020000004416003002000007A4414
:105390002C030020FE480079002803D0FD488079C6
:1053A000002874D0F0B593B00BF040FCF84880783A
:1053B0000F2800D3A6E341007944898849008F442F
:1053C0000E0020006700A20344005500EF045904BA
:1053D0000D04210581050905690539055105EF4EC3
:1053E0000025ED4C3346EEA221211B2001950094AF
:1053F00007F0AEFB2F213346EEA22E20019500943C
:1054000040E3EF48152300904B221946282007F06F
:10541000DDFDEC4E0025E04C3346EBA22F211B2096
:105420000195009407F094FB0C2001903346EBA209
:105430003D2102950094242007F0F4FD3D213346E0
:10544000E8A25120019500941CE3DE4E0025D24CC9
:105450003346E6A2212114200195009407F078FB41
:105460003346D4A22F2101950094FBE30025CA4CBA
:10547000E34BE4A2212114200195009407F068FB7E
:105480002F21D04BE4A2142001950094FAE2EAE324
:105490000025C14CC14BE5A21321142001950094B5
:1054A00007F056FBE54F38798007800F02D00128BE
:1054B00013D10AE00C200190B84BC0A21321029531
:1054C00000946F2007F060FB07E0B44BDCA21321CF
:1054D0006F200195009407F03BFBBA4BDAA2232121
:1054E00003200195009407F033FBD448D949406864
:1054F000884250D9FBF736F9C1490C2782B2009196
:1055000002230297019423213C2007F005FDAD4BB7
:10551000D1A223214F2001970295009407F034FB7C
:10552000C648CC494068FBF71DF90846E12109014E
:10553000FBF718F9B24982B2009102230297019455
:1055400023215D2007F0E8FC9E4BC4A223216F209D
:1055500001970295009407F017FBB848E1214068D5
:105560000901FBF7FFF808463C21FBF7FBF8A449CB
:1055700082B2009102230297019423217C2007F03C
:10558000CBFC904BB6A223218F200197029500946B
:1055900007F0FAFA4CE0E1210901FBF7E3F898493A
:1055A0000C2782B2009102230297019423213C2010
:1055B00007F0B2FC834BA9A223214F20019702954B
:1055C000009407F0E1FA9D48E12140680901FBF7EA
:1055D000C9F808463C21FBF7C5F8894982B2009119
:1055E00002230297019423215D2007F095FC754B5F
:1055F0009BA223216F2001970295009407F0C4FA23
:105600008E483C214068FBF7ADF87D488AB2009097
:1056100002232321029701947C2007F07DFC694B33
:1056200090A223218F2001970295009407F0ACFAF5
:105630008D48644B007801950028009416D08BA209
:105640003221032007F084FA8A48C06842008A4861
:10565000520882426DDA0C215048029100900223D8
:1056600001943221212007F02FFB6CE083A232212C
:10567000032007F06DFA71487F49C06A88420BDA4F
:105680000C224649029200910246012301943221E4
:10569000212007F019FB0CE010F098F882B20C21E1
:1056A0003E4802910090032301943221212007F00B
:1056B00033FC0C27394B73A232213C200197029511
:1056C000009407F0AFFC3F4B6FA2322157200195A9
:1056D000009407F03DFA6748C168806811F032F91C
:1056E00040006549400888420BDA3F2149010246E3
:1056F00000910123029701943221732007F0E4FA0C
:105700000CE010F063F882B23F20400100900323C8
:10571000322102970194732007F0FEFB3F235B01C7
:1057200057223221932001970295009407F07CF9CB
:10573000E1E00C21194802910090012301943221EB
:10574000212007F0C1FA0C273F235B0150A2322130
:10575000432001970295009407F064FC194B4DA279
:10576000322157200195009407F0F2F9414842494F
:1057700080680390884209DA3F20400102230090AC
:105780003221029701947320039A87E089E0000098
:10579000D80000202C00002010840000FF7F0000B3
:1057A000B2E2C8DDCFB5CDB3D5FDD4DAC6F4B6AF1D
:1057B00000000000C7EBC9D4BAF3A1ADA1AD000051
:1057C00026B90100FFFF0000C7EBBDABB5E7B3D8BA
:1057D000BCDCC1ACBDD3B5BD000000005479706520
:1057E0002D430000B3E4B5E7C6F70000D5FDD4DAD9
:1057F000C8B7C8CFB3E4C2FAD7B4CCACA1AD0000EF
:10580000E0FF0000CFB5CDB3BCECB2E2B5BDB9FD51
:10581000B3E4CAC2BCFE0000C7EBB5C8B4FDCAC23F
:10582000BCFEBDE2B3FDA1ADA1AD0000B3E4B5E7A0
:10583000B2E2C8DDBDF8D0D0D6D0000060030020B1
:10584000A1ADA1AD00000000B3E4B5E7CAB1B3A4B7
:105850000000000080510100CCEC0000CAB1000043
:10586000B7D60000C3EB0000B4000020B5E7C1F7D5
:10587000000000008801002000002041C4DCC1BFFE
:105880000000000057680000B9A6C2CA000000006E
:1058900041000000B5E7D1B90000000007F014FA9C
:1058A0001FE0FA4911F04EF8FBF7B0FE0A21FAF7B3
:1058B00067FF05290ADB0398FBF7CEFDF44AF54B99
:1058C000FBF702FAFBF746F8024600E0039A3F2096
:1058D000400100900123322102970194732007F0C8
:1058E000F3F93F235B015622322193200197029561
:1058F000009407F099F8E84BE8A2402103200195B5
:10590000009407F025F9E748E0494069884216DA33
:105910000FF05CFF82B21F20C0020C270090022310
:10592000402102970194212007F0F6FA1F23DB02A1
:105930004021DDA2332001970295009419E0DB4954
:105940008842DB4918DAFBF7B1FD1F21C9020C2799
:10595000024600910123029701944021212007F083
:10596000B3F91F23DB02D3A240213C20019702950B
:10597000009407F057FB19E0FBF798FD0FF026FFA6
:1059800082B21F20C0020C270090032340210297FF
:105990000194212007F0C0FA1F23DB02C5A2402199
:1059A0003C2001970295009407F03CFBC248007828
:1059B00001950028009426D0B74FC0A23B46402155
:1059C000572007F0C5F8BF48017800295DD0074689
:1059D00040680FF0FBFE002862DA4742FF260C20E9
:1059E000D036019033462D223D210295009475203A
:1059F00007F01AF80C20022340210290BAB2009658
:105A000001947C2072E0A44EAFA23346402157207F
:105A100007F03EFAAE480078082873D201007944B6
:105A2000097949188F44030A1118031F27274021B9
:105A30003346A8A281200195009423E04021A74B82
:105A4000A7A28120019500941CE04021A64BA7A2AB
:105A500081200195009415E04021A64BA6A281204B
:105A6000019500940EE03F235B014021A4A2812018
:105A70000195009406E01F23DB02A3A240218120B0
:105A80000195009407F064F83FE20C2001903B463A
:105A90009FA2402102950094732007F0C3FA27E0EB
:105AA0000A280BDA0C201F2602900096019401238D
:105AB000402173207A6807F007F919E09549496C8D
:105AC0000A46143A824202DD3F26760106E0083992
:105AD000814201DD844E01E01F26F6020C2182B2D4
