:0A000000022219E516C36001D322A5
:10000B00023E08900001E0701504F0122B21600EE7
:0F001B00AF1FEF60069000007408F0E4F51F229D
:10002B0002002E75C900B20E300E04D20DB20B3287
:10003B000231810203FFE86480F8E933E833601191
:10004B000460F0ED33EC337009E8FCE9FDEAFEEBFC
:10005B00FF220460DED3EB9FEA9EE99DE8C2E78CAA
:10006B00F0C2F795F0400CE8CCF8E9CDF9EACEFAFE
:10007B00EBCFFB1203CA85D0F05804700320D5B325
:10008B00E80470075002B2D502040992D5EC046063
:10009B00F7E4CCC0E0C398F8603B94186008400DBF
:1000AB00D0E0FB0203E1E4FBFAC9FC8028E830E472
:1000BB0006E4C9FBE4CAFCE830E305E4C9CACBFC9F
:1000CB00E854076010F8C3E913F9EA13FAEB13FBD2
:1000DB00EC13FCD8F130F52FC3E49CFCEF9BFFEE47
:1000EB009AFEED99FDD0E0FBEF4E4D4C701222DBEA
:1000FB0003020406EC2CFCEF33FFEE33FEED33FD75
:10010B00ED30E7EB0203E1EF2BFFEE3AFEED39FDAD
:10011B00D0E0FB50130BBB0003020409ED13FDEE03
:10012B0013FEEF13FFEC13FC0203E1EC4D6011E83F
:10013B00497017ED33EC3304600DE4FCFFFEFD2238
:10014B00E933E8330470F80203FF1203CA58046062
:10015B0009E4CC24815006285009020409284003E5
:10016B00020406C0E0EB4A7044B98006D0E0FB0203
:10017B0003F5EF4E701CBD8008EBFFEAFEE9FD8036
:10018B00EBE98DF0A4FEE5F002021FE9CDF9EAFEE2
:10019B00EBFFEF89F0A4FCE5F0CE89F0A42EFFE491
:1001AB0035F0CD89F0A42DFEE435F08067EF4E706D
:1001BB0005BD80D780C3EF8BF0A4ACF0EE8BF0A421
:1001CB002CFCE435F0F8EF8AF0A42CE5F038FCE4D5
:1001DB0033CB8DF0A42CFCE5F03BF8EE8AF0A42C8D
:1001EB00FCE5F038F8E433CF89F0A42CFCE5F038CB
:1001FB00CF3400CE89F0A42FFFE5F03EFEE433C9E7
:10020B008DF0A42EFEE5F039CD8AF0A42FFFE5F09A
:10021B003EFEE43DFD33D0E0FB50070BBB000F026D
:10022B000409EC2CFCEF33FFEE33FEED33FD020340
:10023B00E1020409EC5D046005E859047003020354
:10024B00FF1203CA580460F6EC4860F2EC7004FD30
:10025B00FEFF22C860DB2481C85009C3986002509E
:10026B00060204069850CAF582E9294B4A7005AB81
:10027B00820203F575F0007C1A7880C3EF9BEE9A2F
:10028B00ED99400DC3EF9BFFEE9AFEED99FDE84211
:10029B00F0DC23ACF0D0E0FFD0E0FED0E0FDAB8291
:1002AB0020E7101BEB60BAEC2CFCEF33FFEE33FEB8
:1002BB00ED33FD0203E1E803F830E705C0F075F01C
:1002CB0000EF2FFFEE33FEED33FD40B830E7C28079
:1002DB00AA74F8CC6480CCC86480C8F58204604FE3
:1002EB00C3EB9FF5F0EA9E42F0E99D42F0E89C4596
:1002FB00F0603C501DE5825FFFE582D313CB5BCBF7
:10030B00F42B5582FB50280ABA002409B9002008A7
:10031B00801DE5825BFBE582D313CF5FCFF4C31364
:10032B002F5582FF50090EBE00050DBD00010CC3F9
:10033B00EB9FF5F0EA9E42F0E99D42F0E89C45F018
:10034B006007CC4820E701B3EC2275F020800E75D6
:10035B00F010800575F0087D007E007F003392D58C
:10036B0030D503120628EC334010EF33FFEE33FE8B
:10037B00ED33FDEC33FCD5F0ED22E5F0247EA2D578
:10038B0013CC92E7CDCEFF22EDD2E7CD33EC3392F7
:10039B00D524814006E4FFFEFDFC22FCE4CFCECD4C
:1003AB00CC24E0501174FF80EDC3CC13CCCD13CD16
:1003BB00CE13CECF13CF0470F030D5DE020628E972
:1003CB00D2E7C933E833F892D5EDD2E7CD33EC332E
:1003DB00FC5002B2D522EC30E7100FBF000C0EBE62
:1003EB0000080DBD00040BEB6014A2D5EB13FCED64
:1003FB0092E7FD2274FFFCFDFEFF22E480F8A2D5FC
:10040B0074FF13FC7D80E480EFBB010689828A8335
:10041B00E0225002E722BBFE02E32289828A83E4B8
:10042B009322BB010CE58229F582E5833AF583E043
:10043B00225006E92582F8E622BBFE06E92582F862
:10044B00E222E58229F582E5833AF583E49322BB28
:10045B00010689828A83F0225002F722BBFE01F348
:10046B0022EF8DF0A4A8F0CF8CF0A428CE8DF0A4B1
:10047B002EFE22C2D5EC30E709B2D5E4C39DFDE4D4
:10048B009CFCEE30E715B2D5E4C39FFFE49EFE1251
:10049B0006C9C3E49DFDE49CFC80031206C930D55C
:1004AB0007C3E49FFFE49EFE22BB0110E58229F502
:1004BB0082E5833AF583E0F5F0A3E0225009E925C4
:1004CB0082F886F008E622BBFE0AE92582F8E2F5FF
:1004DB00F008E222E5832AF583E993F5F0A3E9938B
:1004EB0022BB010A89828A83F0E5F0A3F022500631
:1004FB00F709A7F01922BBFE06F3E5F009F3192261
:10050B00E88FF0A4CC8BF0A42CFCE98EF0A42CFC8F
:10051B008AF0EDA42CFCEA8EF0A4CDA8F08BF0A40D
:10052B002DCC3825F0FDE98FF0A42CCD35F0FCEB6C
:10053B008EF0A4FEA9F0EB8FF0A4CFC5F02ECD3931
:10054B00FEE43CFCEAA42DCE35F0FDE43CFC227528
:10055B00F008758200EF2FFFEE33FECD33CDCC3399
:10056B00CCC58233C5829BED9AEC99E58298400C01
:10057B00F582EE9BFEED9AFDEC99FC0FD5F0D6E4DF
:10058B00CEFBE4CDFAE4CCF9A88222B800C1B900C5
:10059B0059BA002DEC8BF084CFCECDFCE5F0CBF926
:1005AB007818EF2FFFEE33FEED33FDEC33FCEB331E
:1005BB00FB10D703994004EB99FB0FD8E5E4F9FA4C
:1005CB00227818EF2FFFEE33FEED33FDEC33FCC931
:1005DB0033C910D7059BE99A4007EC9BFCE99AF9C4
:1005EB000FD8E0E4C9FAE4CCFB2275F010EF2FFF33
:1005FB00EE33FEED33FDCC33CCC833C810D7079B9D
:10060B00EC9AE899400AED9BFDEC9AFCE899F80FFF
:10061B00D5F0DAE4CDFBE4CCFAE4C8F922C3E49FCD
:10062B00FFE49EFEE49DFDE49CFC22EB9FF5F0EACB
:10063B009E42F0E99D42F0EC6480C864809845F0DE
:10064B0022EB9FF5F0EA9E42F0E99D42F0E89C45D3
:10065B00F022E8600FECC313FCED13FDEE13FEEF7D
:10066B0013FFD8F122E493FC740193FD740293FE03
:10067B00740393FF22ECF0A3EDF0A3EEF0A3EFF0E5
:10068B0022A8828583F0D083D0821206A31206A300
:10069B001206A31206A3E473E493A3C583C5F0C5A6
:1006AB0083C8C582C8F0A3C583C5F0C583C8C582FE
:1006BB00C822A42582F582E5F03583F58322BC00A0
:1006CB000BBE0029EF8DF084FFADF022E4CCF87562
:1006DB00F008EF2FFFEE33FEEC33FCEE9DEC984071
:1006EB0005FCEE9DFE0FD5F0E9E4CEFD22EDF8F50D
:1006FB00F0EE8420D21CFEADF075F008EF2FFFED6D
:10070B0033FD4007985006D5F0F222C398FD0FD564
:10071B00F0EA22D390002CE0940090002BE0648050
:10072B0094804017122D0A8E258F26C390002CE043
:10073B0090002B122F7398500C800390002BE0F538
:10074B0025A3E0F5267F05EFFD3395E0FC74F22D34
:10075B00F582743F3CF583E493FE900026E0B506EA
:10076B000BE526452570057408F08002DFD9900053
:10077B0026E0B40D004003020A9290078CF828285B
:10078B00730207B60207CD02080C020828020855AF
:10079B000208C40209FD020995020A34020A490241
:1007AB000A69020A7F0207B3023AD1123E01C2174D
:1007BB00123675122F675003020A989000267401A7
:1007CB00F022D2A3122F5E6403700A900027F0A3CD
:1007DB007414F0801FD3E52694E8E5256480948398
:1007EB0040067E037FE88004AE25AF26900027EEFF
:1007FB00F0A3EFF0120A99122F7E9000267402F0EC
:10080B0022301003020A987F147E00121E3FD2A6DC
:10081B0090002A7410F09000267403F022D2B2904C
:10082B00002AE0700B7F01123BCD900026740CF078
:10083B00122F3B5003020A98122F5E64039000267E
:10084B0070047407F0227404F022D2A53010030256
:10085B000A98900031E0FAA3E0FB4A701290002A4C
:10086B00E0700302098E30E70302098E14F0229028
:10087B00002A7419F0AE25AF267C007D1412047E7D
:10088B00EF2401F526E43EF525D3E52694C8122F77
:10089B006C40067525007526C8C3EB9526EA952591
:1008AB005005122F8B800FC3900032E09526F090ED
:1008BB000031E09525F0D21022301003020A9890F7
:1008CB000027E0FEA3E0FFC3E5269FFFE5259EFE84
:1008DB00D3EF94A0EE6480948F4002D218E564604D
:1008EB000302096C30187A122F5E24F56023146012
:1008FB003014603D240370497E00301E047F00805D
:10090B00027F08900028E02FF0900027E03EF08057
:10091B003E900028E02488F0900027E03413F0800C
:10092B002E900028E024DCF0900027E03405F080C6
:10093B001E900028E024F4F0900027E03401F080B2
:10094B000E900028E0240FF0900027E03400F0C355
:10095B00900028E0900027122F7398400EC2188049
:10096B0003900027E525F0A3E526F0D210120A9993
:10097B00900027E065257004A3E065266003020A5A
:10098B0098D2179000267406F022D3E52694021213
:10099B002F6C40069000267404F0900031E0FEA30B
:1009AB00E0FFE4FCFD7B137A08F9F8C312064C5008
:1009BB002020101D7F147E001230E290002D1206B5
:1009CB0080900032E024FFF0900031E034FFF0D251
:1009DB00107F9A7E997D69122F405003D2A522D2A7
:1009EB00A590002A7414F090002AE014F070F8C25D
:1009FB00A522E52664024525700F9000267407F0AA
:100A0B0090003104F0A37427F0E526B4FF0BE52525
:100A1B00B4FF06900026740AF0900027E06525705D
:100A2B0004A3E0652660668057C2B200D2A51236D9
:100A3B007590002A7420F09000267409F022E4FFD0
:100A4B00FE7D70122F40400690002AE0703F123658
:100A5B0075123E01E490002AF0900026F022122F2E
:100A6B007E123C15122F4260025022C2A590002626
:100A7B00740BF022122F674014D2A5122F8BD210B9
:100A8B009000267405F022900026740CF022900042
:100A9B0027E0FEA3E0FF1230E290002D1206802229
:100AAB00123CC75003020DDBC207123BB58F2590DA
:100ABB000038E06009C3940E748094804006900067
:100ACB00387406F0C21D122EE0B40E004003020C67
:100ADB00C6900AE3F8282873020B26020B0D020BB3
:100AEB00EF020B91020BBC020C00020C0F020C2349
:100AFB00020C36020C49020C5F020CAF020C930283
:100B0B000CA1E4F564123D744003020CC61236AA24
:100B1B005003020CC6123DD4020CC6900047E07085
:100B2B000CAF251227CAE5646003020CC6AF251271
:100B3B002849EF6003020CC6E52524FC600E240354
:100B4B00701C900038E0FF1233F88017B2137F0748
:100B5B003013027F068F1FC208121CCB8005AF25F6
:100B6B0012321B123D7450031239C3123B4CEF244B
:100B7B00FE600C046003020CC612000E020CC6D2FF
:100B8B00167F03020C8ED21D123D7450031239C313
:100B9B00120E1C7F667E667DE67C40AB55AA54A97F
:100BAB0053A8521202DC4003020CC6123B9C020CEF
:100BBB00C6D21D7D04120DDC7F03123D59123D740C
:100BCB004003020CC67F051233F8122EE06404704A
:100BDB0003020CC63013031236DF900039E0444099
:100BEB00F0020CC6120E1CAF2512321B121A371252
:100BFB001B1D020CC67D05120DDCAF2512321B7FAF
:100C0B0006020CC37D05120DECAF2512321B7F05BE
:100C1B00123D597F07020CC37D06120DECAF251256
:100C2B00321B7F08123D4B7F0680247D07120E0C72
:100C3B00AF2512321B7F09123D4B7F0780117D08B8
:100C4B00120E0CAF2512321B7F05123D4B7F081283
:100C5B003D598067122748122F2A1235637F0912DC
:100C6B003D4B122F2AEF64024E600330040A7F06BD
:100C7B003013027F021225A2122F2AEF64034E704B
:100C8B003A7F0C1225A280337D0C120DFCAF25127E
:100C9B003BFD7F0D80227D0D120DFCAF25123BFD20
:100CAB007F0B80147D0B7F01123133122F2A1235EB
:100CBB0063AF25123BFD7F0C123D4B900037E0706C
:100CCB0003301F0C90002BE4F0A37421F0020DB243
:100CDB00122EE024F524FD500D24046003020D7048
:100CEB00123A91020D9CE51A1460191460221460DB
:100CFB002B24037031122EFCFF90002BE5F0F0A398
:100D0B00EFF0802290002B741AF0A3740AF0801677
:100D1B0090002B7414F0A374D5F0800A90002B7400
:100D2B0005F0A37435F0122EE0640C7008123DF838
:100D3B004003122F32122EE0640D70091229B6EF08
:100D4B007003122F32122EE0640B705B122E27EF02
:100D5B0024FE60062402704F801090002BE4F0A359
:100D6B007485F0804212359C5005122F3280381258
:100D7B002EE064027021C3E50D9509E5086480F847
:100D8B00E50C6480985006AE0CAF0D8004AE08AF36
:100D9B000990002BEE800C9000011204B4FF900020
:100DAB002BE5F0F0A3EFF0E50E602030141190006E
:100DBB002BE0FEA3E0FF7C007D0312047E80047E0B
:100DCB00FF7FFF90002BEEF0A3EFF0D207123BB5A5
:100DDB00227F01123133AF25EF3395E0FE123563DD
:100DEB0022E4FF123133AF25EF3395E0FE1235636A
:100DFB00227F01123133AF25EF3395E0FE123563BD
:100E0B0022E4FF123133AF25EF3395E0FE12356349
:100E1B0022AF25EF3395E0FE123563228F281204A3
:100E2B0014FF14601514602814603D14603A2404F8
:100E3B00705C121FAA121FF18029121FAAF582746F
:100E4B0001F52D85822EE582F4F582752F00801336
:100E5B00121FAAF4F582752D0085822EEDF5827492
:100E6B0001F52F8582308026ED121FF1858230ED42
:100E7B00F5827401F52985822AEF64047007EDFF72
:100E8B007401FE8005EDF4FF7E008E2B8F2C9000FD
:100E9B000112042D7007EDFF7401FE8005EDF4FFC8
:100EAB007E008E318F3290000212042D7007EDFF01
:100EBB007401FE8005EDF4FF7E00E528147003023B
:100ECB000F63147003020FE61470030210692403FE
:100EDB0060030210F3E529AB9A30E006E52A4BFDDF
:100EEB008004E52A5BFD8D9AE52B30E00890F00934
:100EFB00122011800690F00912201890F009EDF0E5
:100F0B00E52D30E005122001800690F00A12201F1B
:100F1B0090F00AEDF0E52F30E005122009800690E5
:100F2B00F00B12202690F00BEDF0EE30E0051220C6
:100F3B0035800890F00CE0FBEF5BFD90F00CEDF0D2
:100F4B00E53130E00512202D800690F00D12203C8B
:100F5B00AF0590F00DEDF022E529ABA130E006E5F1
:100F6B002A4BFD8004E52A5BFD8DA1E52B30E008C3
:100F7B0090F019122011800690F01912201890F0A1
:100F8B0019EDF0E52D30E005122001800690F01AE6
:100F9B0012201F90F01AEDF0E52F30E0051220091A
:100FAB00800690F01B12202690F01BEDF0EE30E047
:100FBB0005122035800890F01CE0FBEF5BFD90F0F4
:100FCB001CEDF0E53130E00512202D800690F01D70
:100FDB0012203CAF0590F01DEDF022E529ABA230BD
:100FEB00E006E52A4BFD8004E52A5BFD8DA2E52B8F
:100FFB0030E00890F029122011800690F029122081
:10100B001890F029EDF0E52D30E005122001800657
:10101B0090F02A12201F90F02AEDF0E52F30E0051A
:10102B00122009800690F02B12202690F02BEDF069
:10103B00EE30E005122035800890F02CE0FBEF5BE2
:10104B00FD90F02CEDF0E53130E00512202D8006FF
:10105B0090F02D12203CAF0590F02DEDF022E529FC
:10106B00ABA330E006E52A4BFD8004E52A5BFD8D42
:10107B00A3E52B30E00890F039122011800690F098
:10108B003912201890F039EDF0E52D30E0051220E3
:10109B0001800690F03A12201F90F03AEDF0E52F08
:1010AB0030E005122009800690F03B12202690F0CC
:1010BB003BEDF0EE30E008A3E0FDEF4DFF80089034
:1010CB00F03CE0FDEF5DFF90F03CEFF0E53130E000
:1010DB0009A3E0FDE5324DFF800990F03DE0FDE511
:1010EB00325DFF90F03DEFF02220030CC202122F75
:1010FB00DBA3F0A3F0C20522123B82400D122FBBE3
:10110B00120414640C600302129D122FBB12041400
:10111B00640A70067E0E7F5280047E0B7FB88E2988
:10112B008F2A30020C74CB252AF52A74FA3529F54F
:10113B0029123C7D8E258F26D3122FC2500302120B
:10114B0014D3E5479443E546648094804002D20271
:10115B00C3E5479526F528E5469525F527756018CF
:10116B00D3E5289402E5276480948050030212058E
:10117B00900027E0FAA3E0FB7C087DFCFFAE021297
:10118B00047EEF2401F526E43EF525D3E547943C98
:10119B00E54664809480400FAE25AF267C007D052C
:1011AB0012046C8E258F26C3EB952AE5296480F8F3
:1011BB00EA64809850051234758017AC27AD28AEC1
:1011CB0025AF2612046C900036E02FF0900035E02E
:1011DB003EF0122FBB9000011204B42450FFE5F037
:1011EB0034FBFED3900036E09FEE900035122FB308
:1011FB004005EEF0A3EFF075603CC3122FA87D0005
:10120B0050027D017F0102129AC3122FC2400302CA
:10121B00129DE52A244FFFE52934FEFED3900028CA
:10122B00E09FEE122FB07F0040027F01AB07C3E5BA
:10123B00269547F528E5259546F527E560600415C5
:10124B0060803EEB6005123475801FE528547E608C
:10125B000FC3900036E09528F0900035E09527F00D
:10126B00900035E030E703122FE33002147435257C
:10127B002AF52A74053529F529D3122FA84002C265
:10128B0002900035E030E703122FE3AD03E4FF12C9
:10129B00251022900001E014B4090040030213EA68
:1012AB009012B975F003A4C58325F0C583730212A0
:1012BB00D40212FC02137202137802139802139ECB
:1012CB000213AC0213B30213D9900000E0600302C7
:1012DB0013EA740FF0A37402F07DC87C42AB55AADD
:1012EB0054A953A852122B5A90000FEEF0A3EFF013
:1012FB0022900000E0FFFD7C00D394097480948061
:10130B00402FEF24F8C31314FFD3900010E094E7A1
:10131B0090000FE06480948340020F0FEF3395E051
:10132B00FE74F82FF582743F3EF583E493F51F802E
:10133B0003E4F51FD3ED9400EC648094804003022A
:10134B0013EA90000FE0FEA3E0FF94E7EE648094B5
:10135B0083400B122B6E90000FEEF0A3EFF07D6429
:10136B00122B3E7D0380377D047F01803890000F68
:10137B00E0FEA3E0FF7C007D6412047E90000FEC86
:10138B00F0FEA3EDF0FF122B6E7D0580117D067F25
:10139B000280127D0A122B3EAE04AF057D07023A86
:1013AB00F07D087F0302352A900000E07031122B8C
:1013BB0021FF7E0064037005751B12800AEF4E7FC0
:1013CB001260027F008F1B9000017409F022E51B55
:1013DB006003023B0F123B4CEF7004900001F022B4
:1013EB008E2A8F2B8D2C90F692E030E708E4FFFECF
:1013FB00FD7C408008AF59AE58AD57AC561230C586
:10140B00AC2AAD2BEC12035AC004C005C006C007B2
:10141B00E4FBFA79807845AF34AE33AD32AC3112A0
:10142B00023FD003D002D001D0001201368F388E8C
:10143B00378D368C35E52C24FB70030214CF24F842
:10144B00606A24F7603C24F76014241E60030215C5
:10145B002785385D85375C85365B85355A22AC2A06
:10146B00AD2BEC12035AA804A905AA06AB077F9A69
:10147B007E997D997C4512023F8F598E588D578CE2
:10148B005622753035752F48752E03752D3E12304B
:10149B00B28F558E548D538C52E4FBFA79407840C1
:1014AB0012023F8F518E508D4F8C4E2275307A75B4
:1014BB002FD3752E9B752D3D1230B28F4D8E4C8DCB
:1014CB004B8C4A22AB38AA37A936A835AF59AE5840
:1014DB00AD57AC56120041C004C005C006C007E4AE
:1014EB00FFFE7DA57C43AB38AA37A936A835120180
:1014FB0036D003D002D001D00012023F1230C5E427
:10150B00FBFA797A78441201361230C51203937BB9
:10151B00007A00795E12194A8E468F4722201721D6
:10152B00900020E0FCA3E0FDA3E0FEA3E0FF123758
:10153B005E500ED21E90002012068CC1200000803F
:10154B00287FCD7ECC7D4C7C3E1237535019E4FF67
:10155B00FE7D407C4112375E500D7D80123743601B
:10156B00064004D21E8002C21E123B824006E4904B
:10157B00003EF02290003EE0C394047480948050AF
:10158B0004E004F02290003DE0540FF5257FCD7E62
:10159B00CC7D8C7C40AB51AA50A94FA84E1202DCDB
:1015AB00600740057F03123BCD7F9A7E997D6912C0
:1015BB003746501D7F9A7E997D997C401237536038
:1015CB0010400E7D02AF25123BE58F25E4F52680FA
:1015DB003EE4FFFEFD7C3F12375350177DB41237AC
:1015EB00436010400E7D01AF25123BE58F2575261C
:1015FB0001801CAF25EF3395E0FED3EF9400EE6432
:10160B008094804006E52514FF80027F008F25E53E
:10161B0026C454F0452590003DF0AF25EF3395E0FF
:10162B00FEC3EF9408EE648094804010E0C4540F26
:10163B001470047F0480027F02123BCD2290000ABB
:10164B00E0C394287480948050637D7A7C44AB51C2
:10165B00AA50A94FA84E122B5A8F288E278D268C55
:10166B002590000AE004F0122B302528FFEE3527D9
:10167B00FEED3526FDEC3525FC900006120680129A
:10168B002B4BC3122B63500A900002E527F0A3E506
:10169B0028F0900004122B4ED3122B635003021729
:1016AB0032900004E527F0A3E528F0807A122B3066
:1016BB00FFC004C005C006C007900004E0FEA3E015
:1016CB00FBAA06EA3395E0F9F8122B4BEF2BFBEE56
:1016DB003AFAED39F9EC38F8D007D006D005D0043A
:1016EB00C3EF9BFFEE9AFEED99FDEC98FC122B2AB3
:1016FB00FFC006C007A3E024FEFFE434FFAB07FAEC
:10170B003395E0F9F8D007D0061232AB122B2AFF33
:10171B00EC120355E4FBFA797A784412023F9000FD
:10172B000B120680123A2DAF1CEF3395E0FEEF64DF
:10173B00784E7005751C018006E51C6002051CE5E2
:10174B001D6002151D900000E0600214F0E51B60A7
:10175B0002151B2220100302185630122E90F1296D
:10176B00E05411600302185690F164E0300F0554F9
:10177B00EFF080034410F090F164E030110554FE5B
:10178B00F080034401F0C210C21222E4FFFE7DC8B8
:10179B007C42123C5A1202DC600C400A90002D1263
:1017AB00068C42C80000123C551202DC500A900015
:1017BB002D12068C00000000D3900032E0945F9055
:1017CB000031E0940940077409F0A3745FF0123CF8
:1017DB00551202DC60054003D38001C392119000C7
:1017EB0031E07002A3E0C36001D3920FE4FFFE7DF2
:1017FB00FA7C45123C5A120136E4FBFA798078BF29
:10180B001200458F288E278D268C25E4FBFA79C88C
:10181B00784212023F8F288E278D268C2512039338
:10182B00AD07AC06900031E0FAA3E0FBEA90F1497A
:10183B00F0EB90F148F0ECFFEF90F141F0ED90F10F
:10184B0040F0D21290F129E04411F022E5456403F7
:10185B007002F545E54514603E1470030218F71449
:10186B00700302193D2403600302193AD20A123C99
:10187B002BE4F529123091501BEF3395E0FE74EEFB
:10188B002FF582743F3EF583E493FD1230A7EDF004
:10189B00052980E0021935E4F529123091501D120B
:1018AB0030A2E0FF1230CE400F1230D8400EEF9432
:1018BB001FEE648094805004052980DE1230915015
:1018CB00261230A2E0F528FF3395E0FEEF64164EAA
:1018DB006006EF640D4E7005C20A123C2BAF281246
:1018EB003040754502804B7545038046752D00755C
:1018FB002E00752F287B007A007926121EF5EF4EED
:10190B006030852648852749AD28AF27AE261213B0
:10191B00EBE4F52912309150111230A2E0B52806F4
:10192B001230A774FEF0052980EA7545018003E4A7
:10193B00F545301B09E54564036003021857228BFC
:10194B00398A3A893B8F3F8E3E8D3D8C3C7FDA7EC8
:10195B003A7D137C00D31238C740081238B57EFF8E
:10196B007FEC22E47F757E1EC31238A85007123815
:10197B00B5FE7F642274011238B6E47FF57EF5D391
:10198B001238A8403DE4F5401238BFC3EF9437EE50
:10199B0064809480502CEF7802C333CE33CED8F9C9
:1019AB002411F582743E3EF583120670C31238C7BC
:1019BB00400C1238BFEF24ECFFEE34FFFE22054043
:1019CB0080C6E4F5401238BFC3EF943DEE648094BB
:1019DB00805053EF25E0FFEE33FE74ED2FF582744C
:1019EB003E3EF583E493FE740193FFE48F448E43F4
:1019FB00F542F541E544F544E543F543E4F542F59D
:101A0B0041AF3FAE3EAD3DAC3CAB44AA43A942A86F
:101A1B0041D312064C500B1238BFEF2423FFE43E88
:101A2B00FE220540809F1238B5FEFF2230190302BB
:101A3B001AC3301A03021AC3E490001EF0E51A60B1
:101A4B0003021B1C12399FFFAEF0C31239AB50625D
:101A5B0090001FE0FD700404F0800DC3ED94097439
:101A6B008094805003021B1C90001F7401F09000A7
:101A7B00051204B4FDACF0D3E50B9DEC6480F8E5E6
:101A8B000A64809840068C0A8D0B800B7432250BF0
:101A9B00F50BE4350AF50AD31239AB400912399F1D
:101AAB00F50D85F00C2274FA250DF50DE4350CF5CA
:101ABB000C22E490001FF022E490001FF0123DE690
:101ACB00301A1090001EE0D394047480948040036D
:101ADB00023B9CD31239B84038D3E50D944DE50C3D
:101AEB0064809481400C7406250DF50D74FF350C44
:101AFB00F50CD3E50B94BEE50A6480948A400C7414
:101B0B00E7250BF50B74FF350AF50A90001E7401DF
:101B1B00F022123DC240051200035003D38001C3D3
:101B2B009207122EFCFFAEF0C3E50D9FEE6480F81A
:101B3B00E50C648098500AAC0CAD0DAE04AF05807B
:101B4B00008E268F279000011204B4FFC3E5279F58
:101B5B00E5F06480F8E526648098500E30070B1290
:101B6B002F1B4006852608852709120003502920C4
:101B7B001526122F084002802CC3122F1B500A056A
:101B8B0009E509701105088053D214750E048526DA
:101B9B0008852709D2158044123DC25037201534D1
:101BAB00122F084005E014F08038900003122EFF2E
:101BBB00FFAEF0D3E5099FEE122F21400AE5091580
:101BCB0009700F1508800BC214750E048E088F094F
:101BDB00D215800820070B301508C21590003A74F7
:101BEB0003F0300704750F2022E50F7007150FC2A5
:101BFB0008121CCB22752503752601752701C20916
:101C0B007D02E4FF121D87C2097D027F02121D8730
:101C1B007B007A0079257D04E4FF120E277B007A86
:101C2B000079257D047F02120E277B127D027F0235
:101C3B00122A297B167D02E4FF122A2990F120E457
:101C4B00F0A3741DF090F1237401F090F125F09046
:101C5B00F12A74FFF090F12EF090F122E4F090F164
:101C6B0027741DF0A3F090F160E4F090F165F09013
:101C7B00F164741DF090F131741FF090F130743FEA
:101C8B00F090F1397409F090F138745FF090F141F4
:101C9B00E4F090F149F090F140F090F148F09000B1
:101CAB002D12068C00000000E4900031F0A3F0C26E
:101CBB0012C21090F166F090F126741DF0023D2EC9
:101CCB00D209123CEBE56464017F0070027F018F47
:101CDB002F85103085082C85092D7F003013027F4E
:101CEB00018F2E7B007A00792C7D051237128F31F4
:101CFB00200809900044E0B53102807A20080FC318
:101D0B00900043E094A9900042E0940040247B00B3
:101D1B007A00792B7D007C027F1D1237737B007A52
:101D2B0000792BE4FDFC7F1D123773E4900042F029
:101D3B00A3F0E4F52BE52B1239E95026900042E095
:101D4B00FEA3E0FF7C007D0612046CEF2BFDEE3A48
:101D5B00FC742C252BF9E4FAFB7F19123773052B36
:101D6B0080D3900043E004F07006900042E004F052
:101D7B00900044E531F0C209123CEB22EF146038BD
:101D8B0014605F147003021E1724036003021E3ECF
:101D9B00121FD44003021E3E30090EA80574010821
:101DAB008002C333D8FC428022A80574010880024C
:101DBB00C333D8FCF4528022121FBF5076121FCBB4
:101DCB00407130090EA8057401088002C333D8FC9A
:101DDB00429022A8057401088002C333D8FCF45248
:101DEB009022121F9E504C121FDD404730090EA847
:101DFB00057401088002C333D8FC42A022A80574E5
:101E0B0001088002C333D8FCF452A022ED121FA2AA
:101E1B00502130090EA8057401088002C333D8FC89
:101E2B0042B022AF05A8077401088002C333D8FC67
:101E3B00F452B0228E298F2AE4F52FF530E52A458E
:101E4B00297003021EF40530E5307002052FAE2910
:101E5B00AF2AEE3395E0FDFCE47BA07A0FF9F81284
:101E6B00050B8F2E8E2D8D2C8C2BC006C007AE2F05
:101E7B00AF30AB07AA06EA3395E0F9F8D007D006E6
:101E8B001205968F2E8E2D8D2C8C2BE47FFF7EFFD3
:101E9B00FDFCAB2EAA2DA92CA82BC312064C50A6C9
:101EAB00C374FF952EF52E74FF952DF52DE4952C0F
:101EBB00F52CE4952BF52BAF2EAE2DAD2CAC2B7852
:101ECB000812065D8F8CE52EFF8F8AC20C4388109B
:101EDB00E58820E503300CF85388CFE530153070DA
:101EEB0002152FE530452F70CE228B2A8A2B892C99
:101EFB00E5DF30E102805090001BE004F0700690AB
:101F0B00001AE004F0900016E0F8A3E0F9A3E0FA61
:101F1B00A3E0FBAFDDEFFEADDCEDFFEE3395E0FDB7
:101F2B00FCEB2FFFEA3EFEE93DFDE83CFC90001682
:101F3B00120680C390001BE0940A90001AE06480A4
:101F4B009480500743DF02E4FEFF22900016E0FC72
:101F5B00A3E0FDA3E0FEA3E0FFE47B0AFAF9F8128D
:101F6B0032AB900016120680900016A3A3E0FFA3DD
:101F7B00E0AB2AAA2BA92CCF8FF01204EC90001CFB
:101F8B00E0AB2DAA2EA92F12045AE490001DF0FEEF
:101F9B007F0122EDFF7E00D394067480948022EDA6
:101FAB00F4F58275830085832985822A85832B85A9
:101FBB00822CED22EDFF7E00D39407748094802257
:101FCB00C3EF94037480948022EDD39405748094B2
:101FDB008022C3EF94017480948022FBE434F0FAE6
:101FEB00A80574010822F4F58275830085832D857D
:101FFB00822E85832F22A3E0FBE52E4BFD22A3E04F
:10200B00FBE5304BFD22E0FBE52C4BFD22E0FBE535
:10201B002C5BFD22E0FBE52E5BFD22E0FBE5305B5C
:10202B00FD22A3E0FBE5324BFD22A3E0FBEF4BFDD2
:10203B0022E0FBE5325BFD22C20775250CAF1FC307
:10204B00EF94057480948050151234B25009D21D50
:10205B00752504D2078007122B755002D207200773
:10206B006EE51F1424FD500F601624FC5028240825
:10207B00705DE4F51E8058AF1F123D1E8F25804FFB
:10208B00E51E30E20854806480F51E8002051EE5D3
:10209B001E30E73B8036531E7FAF1FEF6407600790
:1020AB00AF1FEF640670047F0680027F0AE51ED324
:1020BB009F4005E4F51F8017AF1E051EEF30E00FA4
:1020CB00AF1FEF6406700575250480037525081294
:1020DB0037FCAF25023DCB7D01E4FF1237D04043E7
:1020EB0090004CE025E0F0308003E004F090004CD1
:1020FB00E0F525AF25EFF46003EF7027123C69E4A0
:10210B00F5B4AF25FEEFF4D37001C3921CEFF44E80
:10211B007B0170027B02E4FDFF122E857D01E4FF43
:10212B00123B2E301C08E51530E703751580E5646E
:10213B007F8270027F858F25301C21E514B5251C0D
:10214B00AF17EF3395E0123D994005123D3D8009E5
:10215B00E4F517751901751601E4F514201C13E548
:10216B00156484700DF515E516700475180122E4DD
:10217B00F516228B2B8A2C892DE4F52FF530D209FD
:10218B00123CEBE4F52E1239E750051221EF80F6E5
:10219B00AB2BAA2CA92D7D05123712AB2BAA2CA980
:1021AB002D90000512042DB507130530E530700294
:1021BB00052FC394A9E52F6480948040C6D3E530E6
:1021CB009400E52F648094804008E5301530700250
:1021DB00152FE4F52E1239E750051221EF80F6AEDC
:1021EB002FAF3022AE2FAF307C007D0612046CEF88
:1021FB002BFDEE3AFCAB2BAF2EEF3395E0FEE52D2E
:10220B002FF9E52C3EFA7F11123773052E2278FF3A
:10221B00E4F6D8FD9000007F007E04E4F0A3DFFC21
:10222B00DEFA75816402226E0228C6E493A3F8E4F9
:10223B0093A34003F68001F208DFF48029E493A313
:10224B00F85407240CC8C333C4540F4420C883402C
:10225B0004F456800146F6DFE4800B0102040810FB
:10226B00204080903D81E47E019360BCA3FF543FEE
:10227B0030E509541FFEE493A360010ECF54C02533
:10228B00E060A840B8E493A3FAE493A3F8E493A323
:10229B00C8C582C8CAC583CAF0A3C8C582C8CAC587
:1022AB0083CADFE9DEE780BEE4F525F526F527FBDB
:1022BB007A0079257D081223357D011223357D2087
:1022CB00E4FF120E277D021223417B017D01E4FF07
:1022DB00122A297B017D05E4FF122A297B017D014E
:1022EB007F03122A297B01E4FD7F03122A2975251E
:1022FB0003752701E4FB7D03FF122A297D081223B6
:10230B0041D2097D03E4FF121D8775DF4075DE6046
:10231B00E4F5E9F5D1F5D375D50F75D4FF90F692A9
:10232B0074A0F01232EF43DE80227F03120E277B64
:10233B00007A007925227B007A007925E4FF120EC2
:10234B002722122B2164027008850A25850B268013
:10235B000B9000051204B4F52685F025E4FFFE7DF5
:10236B007A7C4490000BE0F8A3E0F9A3E0FAA3E039
:10237B00FB122B5DD3EF945AEE6480948A4018D3F2
:10238B00EF9526E5256480F8EE6480984002800185
:10239B00D39219C21A8004C219D21A122633AF1F54
:1023AB00D3EF940474809480502F90003CE0600332
:1023BB00022DC9900001E0600302129E900047E0DD
:1023CB006401700612363F8F1F22122B217004E519
:1023DB001B6003023609E4F51F22EF146022146020
:1023EB003C14605624037074121FD44002806DEDB0
:1023FB002480121FE68002C333D8FC55ACFC8060EE
:10240B00121FBF5005121FCB50028050ED248812B3
:10241B001FE68002C333D8FC55ADFC8043121F9ED0
:10242B005005121FDD50028033ED2490121FE68001
:10243B0002C333D8FC55AEFC8026ED121FA240021E
:10244B00801AED2498FBE434F0FAAF05A807740169
:10245B00088002C333D8FC55AFFC8004E4FEFF2296
:10246B00EC7003FEFF228B828A83E05403FF7E0015
:10247B0022E4F50E122BDCE4FFEFFD3395E0FCC3F9
:10248B00ED940EEC64809480505D903F67122EE9C2
:10249B0064027050EF3395E0FC903F6C122EE9F51F
:1024AB000A740193F50B903F68122EE9F50C740139
:1024BB0093F50D903F6A122EE9FC740193FDD395B1
:1024CB0009E5086480F8EC64809840048C088D0959
:1024DB00D3E509950DE50C122F21400B850C0885D2
:1024EB000D0980030F809290003A7403F0123DAEF9
:1024FB009000387406F0E490003CF07511FF7512F3
:10250B003F751367228D2BA907E9600CE54724C2A1
:10251B00FBE54634FFFA800AC374309547FBE4951C
:10252B0046FAEA30E703E4FAFB122FD1D39400EE1C
:10253B00648094804002802D122FD17CFF7DFF128E
:10254B00046CC3E49BFD747D9AFCC3EF9DEC64802B
:10255B00F8EE648098500AE52B60067E007F0180C0
:10256B00047E007F00EF4E6009EB25E0FBEA33FAB7
:10257B008003E4FAFB0BBB00010AE96006AE02AF75
:10258B00038007C3E49BFFE49AFE900034E02FF036
:10259B00900033E03EF0228F29122EE0FFF52E90B3
:1025AB00000812042DF52DEF640A7009123A918E72
:1025BB002B8F2C8008122EFCF52C85F02BE4F52AA2
:1025CB00AF2AEF3395E0FEC3EF940EEE6480948058
:1025DB005055903F6775F009EF1206BDEE122EF1C4
:1025EB006529703F123DAE123CD9123DB8AF2AEFB0
:1025FB003395E0FE7C007D0912046C74672FF9742F
:10260B003F3E7511FFF5128913E52E640A6009E54B
:10261B0029640A7003123977E52D600BAF2CAE2BB2
:10262B000233B7052A809922122B21640A600B759D
:10263B002ACD7529CC75286C8008E4F52AF5297507
:10264B002860752740E51A14601B1460411460550F
:10265B0024037061AF2AAE29AD28AC27122B105082
:10266B0054751A01227F9A7E997D997C3EAB2AAADA
:10267B0029A928A827120045122B1060054003E456
:10268B00F51AE4FFFE7D40122B0E502980247D5954
:10269B00122B0A60054003751A017D39122B0A5063
:1026AB0014751A03227FCD7ECC7D4C122B0E600548
:1026BB004003751A0222E55E70057F05023BCDA231
:1026CB000492087525467526371238FC9204A20031
:1026DB0092087525417526371238FC9200A201929B
:1026EB00087525507526281238FC92013001077F9A
:1026FB0006123BCD800B90003CE064067003123D4C
:10270B00D4122FBB90000812042D7003C2032212A7
:10271B003C7D8F25A203920875262B1238FC92075D
:10272B00300703D20322200713900035E07002A379
:10273B00E07009900033E030E702C2032230191732
:10274B00301714123DE6C31239B84072E4F07F091A
:10275B003013027F028038301E5F301735E563700F
:10276B005D900025E024DFF0900024E034FFF0754D
:10277B006304D3A3E094DA900024E0648094A15026
:10278B003D7421F0A374DAF07F093013027F02024B
:10279B0025A212399FFF900027E0FCA3E0FDC39F09
:1027AB00E5F06480F8EC6480985013756308900032
:1027BB0024ECF0A3EDF0D21722E490001EF0228F50
:1027CB0026C21FE56414602014603914603624039C
:1027DB00706B12396564054E7003123C40123965FB
:1027EB0064064E7058023CFC12396564054E70034A
:1027FB00023C401200035003D21F22123D67503D92
:10280B00751F052212396564064E7003123CFC12CB
:10281B00396564024E7014E56464027008756403D4
:10282B00751F068006756402751F07120003500D95
:10283B00E56464037F0270027F0312321B22900057
:10284B0047E01460291460632402706CEFFD33952C
:10285B00E0FCED64074C60037F0022E4900046F03F
:10286B0090004574F0F09000477401F0804AEF60DF
:10287B0015C3E5109403748094805006E51004FF93
:10288B0080027F008F10900045E07007900047F0AA
:10289B00751F0512000350209000377404F0900050
:1028AB00477402F0C208121CCB800D1200034008C3
:1028BB00123D74E4900047F07F0122C206123CA344
:1028CB00D20912387E1233321222B3121C00122993
:1028DB003E12247C123375122CA7D2091237A2C2D6
:1028EB001B123E0E1220E212234D120AAB1226C10E
:1028FB0012071E12175F300DE8C20D20061C123294
:10290B00671210F4123AB1123DEF1220431231CE7E
:10291B00122A9B123438D20680C712152812164879
:10292B00123DDD123853123828122D6A123D0DC29A
:10293B000680AE752503E4F526752701F51F90F18A
:10294B002404F090F12C74FFF0A3F090F13574098E
:10295B00F090F137F090F134745FF090F136F09025
:10296B00F126E0440CF01237FC90F129E0540C7086
:10297B00F8C2097D037F01121D87C2097D047F0107
:10298B00121D877D101229AA7D081229AA7B147D9E
:10299B00047F01122A297B157D037F01022A297BE3
:1029AB00007A0079257F01120E2722900049E0B4AE
:1029BB00070050679029C6F82828730229DB0229E3
:1029CB00E6022A04022A0A022A1A0229E6022A200D
:1029DB00E4900048F07D0B7F01803D7F021238D2DE
:1029EB0050037F0122900049E0640170067D077F50
:1029FB000280257D237F06801F7D237F0380197F27
:102A0B00061238D250037F01227D077F0480097D97
:102A1B000B7F058003E4FDFF123D8D7F0022EBF55C
:102A2B00826402606AE58264036064E58264196013
:102A3B005ED3E582941C748094805053EF14601421
:102A4B0014602014602F24037045121FD45040EDE6
:102A5B002400802A121FBF5036121FCB4031ED24A9
:102A6B0010800D121F9E5027121FDD4022ED2420D7
:102A7B00F529EE800CED121FA25014ED2430F52930
:102A8B00E434F0F528EB541F852982852883F02246
:102A9B00E5647013122EE064027002800A120003C8
:102AAB00400B123DC24006E4900039F022900039F1
:102ABB00E0FF541FF525FD3395E04D7016EF20E632
:102ACB0012C007123DC27E8050027E20D0E04E9095
:102ADB000039F0900039E054E0F0AF25EF3395E08A
:102AEB00FEC3EF9406EE648094805008E020E60469
:102AFB0005258003E4F525900039E04525F0227F7C
:102B0B009A7E997C4090000BE0F8A3E0F9A3E0FAE1
:102B1B00A3E0FB0202DCAB11AA12A913020414906E
:102B2B000006120680900006E0FCA3E0FDA3E0FE89
:102B3B00A3E02290000FE0FEA3E0FF7C0002047EE6
:102B4B00900002E0FEA3E0FFEE3395E0FDFC22E4F3
:102B5B00FFFE120136020393AB28AA27A926A8254C
:102B6B000206367C007D0A02047E900001E06002C2
:102B7B008033300505752601802E122FBB120414ED
:102B8B00640A7021900024E0FEA3E0FFEE3395E091
:102B9B00FDFC7B187A0079017800D312064C4005B6
:102BAB007526028003E4F526E526146016146009E9
:102BBB002402701BE4F55F8016E55F640A70040560
:102BCB005FD322055FE55F640D7004F55FD322C30D
:102BDB00227B007A00792512217E900042EEF0A331
:102BEB00EFF07B007A0079257D05123712EF652A0D
:102BFB007031E5287F0060027F018F648529108585
:102C0B002508852609E527C36001D392139000445C
:102C1B00E52AF0900043E004F07018900042E004C5
:102C2B00F08010E4F5647510011236DFC213D20880
:102C3B00121CCBC209023CEBE4FDFF1223E5EF644F
:102C4B00014E7038C21CE514547FFFE4F514E516F1
:102C5B007004E5196007E4F519F5168031EFC3949C
:102C6B0005502BAF17EF3395E0FEC3EF940AEE64DC
:102C7B00809480500205177515808012D21CE515C3
:102C8B0030E703751580E51420E7037514807D018B
:102C9B00E4FF123A0B90004C74AAF022752564D213
:102CAB00A6D2A3D2071235D37F287E00121E3F1265
:102CBB003E0EE4FFFEFD7C41AB55AA54A953A8522E
:102CCB001202DC60284026D2B2123E0E7D84122FF7
:102CDB003D600940077F07123BCD8011122F3B60EF
:102CEB0002500A7F057E00121E3FD525DCC207125B
:102CFB0035D3123AD1E52570057F01123BCD222049
:102D0B00030A90002BE0FEA3E0FF8040122F93FFFD
:102D1B00900035E03EFE30E703E4FEFFC390002C4D
:102D2B00E09FFF90002BE09EFEC3EF94B0EE64801B
:102D3B0094845018A3E02450FE90002BE034FB90B9
:102D4B000035F0A3CE122FDA7E047FB090002BE07B
:102D5B00B50608A3E0B50703C38001D39205221281
:102D6B003A4FEF6003123C69D3E5629400E561943E
:102D7B00004009E56215627044156122123DA440C2
:102D8B0003E4F564C2081239254387044387021212
:102D9B003CA3D20912387E123A717F017E00121EBB
:102DAB003F1220E2300D0AC20DB207300703123476
:102DBB0038123D6750E4D208123925C21B2290000D
:102DCB003BE0FFC3940574809480500FC3EF9403D2
:102DDB00748094805042E004F51F2290003CE0FF89
:102DEB007E007C007D0612046CEF2405FFE43EFEA2
:102DFB0090003BE0FD123769501EED24FBFFEC34D5
:102E0B00FFFE7D0312047E7C007D0212047EED4CDE
:102E1B007004751F01228000E4F51F2290003FE033
:102E2B00601B24FE60261460442402704A9000400C
:102E3B00E0D394007480948040257F02229000415F
:102E4B00743CF090003F7402F07F0122900041E04F
:102E5B0014F0E0D394007480948040037F0122909F
:102E6B0000407418F090003F7403F0800A9000400B
:102E7B00E0700490003FF07F0022EBD3121FCD5087
:102E8B0053EF14601414602014602F240370451248
:102E9B001FD45040ED2480802A121FBF5036121FC2
:102EAB00CB4031ED2488800D121F9E5027121FDD61
:102EBB004022ED2490F529EE800CED121FA2501448
:102ECB00ED2498F529E434F0F528EB540385298299
:102EDB00852883F022AB11AA12A91302041475F0F2
:102EEB0009ED1206BDEC75F009A42583F583E49377
:102EFB0022900001AB11AA12A9130204B490003A5C
:102F0B00E0FF3395E0FED3EF9400EE6480948022D3
:102F1B00E5099527E5266480F8E50864809822AFDB
:102F2B0025EF3395E0FE2274FF90002BF0A3F022E7
:102F3B007D60E4FFFE7C41AB4DAA4CA94BA84A0235
:102F4B0002DCE4FBFA78421201368F2A8E298D2897
:102F5B008C2722AB11AA12A913020414D3E52694D1
:102F6B0000E52564809480229526E5256480F8E0B1
:102F7B006480229000317408F0A37459F0D21022AF
:102F8B00E4900031F0A3F022900033E0FEA3E0FFC9
:102F9B007C007D1012047E900036E02F22900028DA
:102FAB00E0952AE5299000276480F8E06480982258
:102FBB00AB11AA12A91322E5479526E5256480F8E3
:102FCB00E54664809822900033E0FEA3E0FF22F0F8
:102FDB00E4900033F0A3F022E4900035F0A3F0224C
:102FEB00E4F5DE90F692F01232EFE4FB7D017F0305
:102FFB00122A29E4FBFD7F03122A29752503E4F528
:10300B0026F527FB7D081230367B007D011230360A
:10301B00C209E4FD7F03121D87C2097D017F0312E4
:10302B001D87C2097D03E4FF021D877A0079257F86
:10303B0003120E2722AB077AFF90001DE07046EBC0
:10304B001230CE40401230D8400AEF941FEE64800D
:10305B009480403190001612068C00000000E49022
:10306B00001AF0A3F0A3EBF0A37401F0EB30E4052E
:10307B0043DF80800353DF7F53DEF0EB540F42DEE0
:10308B00DAFE43DF0222AF29EF3395E0FEC3EF9464
:10309B0005EE6480948022EF3395E0FE74112FF5DA
:1030AB008274003EF58322AB30AA2FA92EA82DAF38
:1030BB0038AE37AD36AC3502023F8F348E338D329E
:1030CB008C31223395E0FEC36480948022D3EF943D
:1030DB0016EE6480948022AD07AC06EC12035A12F4
:1030EB002F557BA67A9B79C4783A122F5279C81246
:1030FB002F4DC004C005C006C007E4FFFE7D7A7CDF
:10310B0044AB59AA58A957A856120136A804A905C9
:10311B00AA06AB07D007D006D005D00412023F1287
:10312B002F5579CA122F4D228F268D277528021203
:10313B003DC25004D20780051200039207201A10DB
:10314B0075280A301903300707E490001EF080033E
:10315B00123DE690001EE0D395284019E52660024B
:10316B008006300706301A03023B9CE490001EF0E9
:10317B00AF271225A222C0E0C0F0C083C082C08559
:10318B00C084C086758600C0D075D000C000C00159
:10319B00C002C003C004C005C006C007122C437593
:1031AB00B400D007D006D005D004D003D002D00194
:1031BB00D000D0D0D086D084D085D082D083D0F030
:1031CB00D0E032122F5EFF7E0064017009D3308491
:1031DB0001C392848031EF64034E7004C284802754
:1031EB00123B825004D284801E900029E0C39404C9
:1031FB00748094805005E004F0800CD3308401C3BC
:10320B009284E4900029F090002AE0600214F022EE
:10321B008F2712396764024E70197FCD7ECC7D5C8F
:10322B00123952600940072000047F0A80277F096A
:10323B000233F8AF2712396764034E701E12396ED2
:10324B006004900038F07FCD7ECC7D2C123952601B
:10325B000740057F0C0225A2751F052290004BE04D
:10326B00600314F02290004AE0FF903FE59390003A
:10327B004BF0FDE548FCE5496DFDEF65495407FF53
:10328B00AE04EDA807088006CEA2E713CE13D8F83C
:10329B00FF7C007D0912047E90004AEDF0B22022E3
:1032AB00C2D5E830E70FB2D5E4C39BFBE49AFAE44E
:1032BB0099F9E498F8EC30E717B2D51232E1120520
:1032CB0096E4C39BFBE49AFAE499F9E498F880033B
:1032DB0012059630D50DE4C39FFFE49EFEE49DFDE1
:1032EB00E49CFC22E4FFEFFD3395E0FCC3ED940579
:1032FB00EC648094805015EF3395E0FC74112DF540
:10330B008274003CF58374FEF00F80DAE4F545908F
:10331B00001612068C00000000E490001AF0A3F0D7
:10332B00A3F0A3F0D21B2275250375260175270187
:10333B00123AD17D081233637D407F02120E277B38
:10334B00007A0079257D047F03120E277D2012332E
:10335B00637D10E4FF020E277B007A0079257F0244
:10336B00120E277B007A00792522752501E4F526BC
:10337B00F527FBFDFF122A297B007A0079257D01B9
:10338B00E4FF120E277D01E4FF123B2E7B02E4FDCE
:10339B00FF122E8543B904123C6990004C74FFF068
:1033AB00E4F514F515F517F518F519228E2F8F3056
:1033BB00122FBB90000812042D70028029122FBB14
:1033CB009000011204B4FBAAF0122F93900035E089
:1033DB003EC3EB9530FFEA952FFE900035F0A3EF3F
:1033EB00F0EE30E704E4122FE4122FDB228F28E4F7
:1033FB00FFFE7D40123952600E400CAF2830130295
:10340B007F021225A2801B7D2912394E60074005D1
:10341B001239C3800D12396E7005751F05800312AA
:10342B003B9C12396E64027003123C9022E4FEEE58
:10343B00C3940274809480503074142EF8E630E7F5
:10344B0025547FFDEE700CE5647C0560027C02AFB9
:10345B000480027F04EDC39F50010DE65480F67487
:10346B00142EF8E64DF60E80C622122FD1D39400FF
:10347B00EE648094804002801D122FD17CFF7DFF73
:10348B0012046CC3EF94C0EE648094837E005004EE
:10349B007F0180027F00EF4E700C122F93F0900093
:1034AB0035E03E122FDA2212396E700DAF64FEC377
:1034BB00EF9402748094805007E490004DF08022CA
:1034CB0090004DE004F0E0FD7C00640E7008EF64AA
:1034DB00034E7002D322ED64104C700690004DF039
:1034EB00D322C322752501E4F526752701E510309B
:1034FB00E0057D0812351EE4FB7D037F01122A29AE
:10350B00E51030E1057D1012351EE4FB7D047F01D3
:10351B00022A297B007A0079257F01120E27228F40
:10352B00278D28900000E030E708123CB5E49000AE
:10353B0000F0900000E0FF5403D39401748094805A
:10354B007E004002AE278E1FEF700CF51F9000001F
:10355B00740AF0A3E528F0228E268F2730160A1264
:10356B003B4CEF7015C2168011123B4CEF3395E0BC
:10357B00FEEF64024E700312000EE564700AE5273D
:10358B0064014526700A80051200034003123B9C20
:10359B0022122B21FF6403600BEF64046006E51A13
:1035AB0064036005E4F51C801DE51C7005751C01AA
:1035BB008014AF1CEF3395E0FED3EF9474EE648070
:1035CB0094804002D322C3227F003007027FFF90FA
:1035DB00F140EFF07F003007027F0890F149EFF0E8
:1035EB007F003007027F2A90F148EFF0123D2E90BA
:1035FB00F164E030070454EEF0224411F022122B58
:10360B002164036004D2078021E51A64037004D29D
:10361B00078017E51D7003751D52D3E51D940274C9
:10362B0080948040028001D39207300703023B0F46
:10363B00E4F51F22E510C36001D3921DE510146061
:10364B001D14601D14601D2403701C900046E07057
:10365B00167F01123CB59000467406F080097F037B
:10366B00227F01227F02227F0022C2A3900031E041
:10367B007002A3E07019FFFEFDFC90002DE0F8A393
:10368B00E0F9A3E0FAA3E0FB1202DC6011400F1299
:10369B002F8B90002D12068C00000000D21022E41C
:1036AB00FFEFFD3395E0FCC3ED9403EC6480948055
:1036BB005020EF3395E0FC74FD2DF582743F3CF503
:1036CB0083E493FE90003CE0FDEEB50502C3220FB0
:1036DB0080CFD322E4FFEFFD3395E0FCC3ED940ED6
:1036EB00EC64809480501F903F671239F86402702D
:1036FB0012EF3395E0FC903F6A1239F8F50874012C
:10370B0093F5090F80D0228B328A3389347FFFAB3C
:10371B00320534E534AA337002053314F91204145C
:10372B0062077E08EF30E70725E06407FF8004EFB0
:10373B0025E0FFDEEFDDD822E4FFFE7C41AB4DAA96
:10374B004CA94BA84A0202DCAB5DAA5CA95BA85A48
:10375B000202DCAB55AA54A953A8520202DCC39F48
:10376B00EE6480F8748098228F32EF641970051222
:10377B000414F5FEEDF5FCECFFEFF5FD008532FFD3
:10378B00000000000000E5FF20E0FBE53264117053
:10379B0005E5FE12045A2275250A123A2DE4900013
:1037AB0001F0123E0EAF51AE50AD4FAC4E90000B30
:1037BB00120680122633D525E9300908122B217009
:1037CB0003751B1222EF1460111460151460192479
:1037DB0003701CE5AC5D6017D322E5AD5D6010D3C3
:1037EB0022E5AE5D6009D322E5AF5D6002D322C353
:1037FB002290F145301D0DE4F090F147F090F1442B
:10380B0074FA800C7405F090F147F090F1447478E1
:10381B00F090F146F090F129E0440CF02290003C3E
:10382B00E0FF7E00700590003BF02290003BE0042F
:10383B00F07C007D0612046CEF240FFFE43EFEE0EB
:10384B001237694002E4F022E563600215639000D1
:10385B001FE0600CC39409748094805003E004F063
:10386B0090001EE0600CC3940B748094805003E0B6
:10387B0004F022E4200906F5C853A8DF22F5CE7523
:10388B00CB0B75CADB75CD5D75CC6643A820F5C92E
:10389B0075CF80C20DC20BC20E75C89122FDFCAB59
:1038AB003FAA3EA93DA83C02064CE4AB39AA3AA973
:1038BB003B02045AAF40EF3395E0FE22AB3FAA3EEA
:1038CB00A93DA83C02064CAB07EB3395E0FEEF2578
:1038DB00E0FDEE33FC900048E0FF3395E0FE120470
:1038EB007EEB14D36480F8ED6480984002D322C33E
:1038FB0022AF25EF3395E0FED3E5479FEE122FC89D
:10390B004002D322AF26EF3395E0FEC3E5479FEE8F
:10391B00122FC85002C322A208223008141222B35D
:10392B00121C0012293E123332123E0EC20902370C
:10393B00A2C20912387E123B67122FEB1234EF1220
:10394B003AD1227F9A7E997C4090000BE0F8A3E05D
:10395B00F9A3E0FAA3E0FB0202DCAF26EF3395E01C
:10396B00FEEF22AB11AA12A913020414C2171239CB
:10397B009FFF900024E5F0F0A3EFF07F9A7E997DF6
:10398B00997CBFAB55AA54A953A85212004590007D
:10399B0020020680AB11AA12A9139000010204B4F5
:1039AB00E50D9FEE6480F8E50C6480982290001E74
:1039BB00E0940A74809480227433FFFEFD12395216
:1039CB00600640047F04800D7D1912394E6009405A
:1039DB0007D2167F030225A2751F0522E52EFB33A6
:1039EB0095E0FAC3EB9406EA648094802275F009A3
:1039FB00ED1206BDEC75F009A42583F583E4932243
:103A0B00EF14600F14601114601324037013EDF4A2
:103A1B0052AC22EDF452AD22EDF452AE22EDF45243
:103A2B00AF22900002747FF0A374FEF0A37480F0B9
:103A3B00A37402F0E490000AF090000612068C00CA
:103A4B0000000022900047E060037F0122900001FC
:103A5B00E060037F0122AB11AA12A9131204147F99
:103A6B000060027F01227D01E4FF123A0B90004CB3
:103A7B0074AAF0D21CE51530E703751580E5142008
:103A8B00E70375148022122EFCFDACF0900024E0AD
:103A9B00FEA3E0FFC39DEC6480F8EE6480985001B8
:103AAB0022AF05AE0422AF0FEF122F0D4002150F00
:103ABB00AF0EEF122F0D4005D50E02C2149000373A
:103ACB00E0600214F022123E01C2A3C284E4900013
:103ADB002BF0A3F0900027F0A3F0C217C218A3F0AD
:103AEB00900026F022900000E07018EF4E700574E5
:103AFB0080F0800AEF25E025E014900000F09000A4
:103B0B0001EDF022E51A14600E14600F14601024FE
:103B1B0003700F751F0322751F0222751F0122757B
:103B2B001F0422EF14600E14600F14601024037036
:103B3B000FED42AC22ED42AD22ED42AE22ED42AF93
:103B4B0022AF19EF3395E0FEEF24FFFFEE34FF12A7
:103B5B003D994005E51914FF227F0022E4FB7D020D
:103B6B007F02122A2990F121E4F090F126F090F1D6
:103B7B0025F090F123F022900026E0FFD3940474FB
:103B8B00809480400AEF940874809480500122C383
:103B9B0022122EE0FF601290000712042D60059098
:103BAB000038EFF0E4FF1225A222E51960037F0035
:103BBB0022E5187002FF22AF17300705E4F518F560
:103BCB00172290003CEFF0AB11AA12A913120414A8
:103BDB00640160057F011225A222EFFB3395E0FA09
:103BEB00C3EB9408EA648094805004EF2DFF227F8E
:103BFB0008228F2612396764034E7008900038E054
:103C0B00FF0233F8AF2612321B22122F5E640C70A8
:103C1B0007FFFE7D887C4122E4FFFE7D807C4122F4
:103C2B0053DE7F007F00200A027FA090F692EFF018
:103C3B000043DE80229000377408F0E5647F00704B
:103C4B00027F018F64C208021CCBE4FFFEFDFC90D7
:103C5B00002DE0F8A3E0F9A3E0FAA3E0FB22123D6C
:103C6B00A440067E127FC080047E007F288E618F69
:103C7B006222122FBB120414640A7004FE7F3922D5
:103C8B007E007F322220190F201A0CE51A700812C1
:103C9B00399FF50D85F00C225388CF5389F043895A
:103CAB0001E4F58CF58A75A88222123D1E123DCBDC
:103CBB007F147E00121E3F7F0C023DCB900026E04E
:103CCB00FF64086005EF64097002D322C3229000E1
:103CDB003F7401F0E4900041F09000407418F02222
:103CEB00300907C2AF0075FBAA2275FB5500D2AF96
:103CFB00229000377402F0E5647F0070027F028F20
:103D0B006422900046E0600214F0900045E06002EF
:103D1B0014F022A8077403088002C333D8FCF454B0
:103D2B000CFF2290F1297411F090F129E0541170DD
:103D3B00F822E4F515F518F517F516EF04F5192229
:103D4B00900039E030E706547FF01225A222900054
:103D5B0039E030E50654DFF01225A222E5196002A6
:103D6B00D322E518C36001D322E51964016002C3B5
:103D7B0022E4F519D322011D0041003D004100470B
:103D8B000000900048E07005EDF0A3EFF022FED3A9
:103D9B00EF9400EE6480948022D3E56494017480E8
:103DAB00948022E4900049F0900048F022C220E475
:103DBB0090004AF0A3F022E5196402C37001D322EC
:103DCB0090F164E054F34FF022E490003CF0FF02DA
:103DDB0025A2900048E0600214F02290001EE070D3
:103DEB000204F022900040E0600214F02230200325
:103DFB00A20E22A20B22C2B2C2A5C2A6225388EFE8
:103E0B00D20C3202185700133ADA0012002B0010B2
:103E1B00DBD6000FCC1E000ECF6C000DE44B000D5B
:103E2B000965000C3D80000B7F7C000ACE50000A18
:103E3B00290700098EC30008FEB50008781F00078C
:103E4B00FA52000784AE0007169D0006AF970006D6
:103E5B004F1C0005F4B800059FFE0005508B0005B4
:103E6B0006020004C00D00047E5D000440A900049E
:103E7B0006AC0003D02700039CE100036CA10003F8
:103E8B003F37000314720002EC280002C62F000219
:103E9B00A2630002809F000260C3000242B10002D5
:103EAB00264C00020B7B0001F2230001DA2E0001ED
:103EBB00C3870001AE19000199D2000186A0000151
:103ECB0074720001633A000152EA0001437200016F
:103EDB0034C8000126DF000119AC00010D250001DB
:103EEB000141F5F5EB3AE107D755CE1DC558BD009D
:103EFB00B50EAD7FA64C9F7098E792AC8CBB87112B
:103F0B0081AA7C82779772E46E676A1E6606621CD2
:103F1B005E5F5ACB575F541950F84DF84B1A485AFD
:103F2B0045B8433340C83E773C3E3A1D3812361DE8
:103F3B00343B326D30B22F082D6F2BE62A6C2901E2
:103F4B0027A42655251323DD22B22193207F1F752D
:103F5B001E750000000000000000000000000000C3
:103F6B000000000100010000000000000000040040
:103F7B001000000ABE0000030002000009C400008C
:103F8B0005008500000B22010006029A00000B863B
:103F9B00010007053500000BEA0100080A6A000062
:103FAB000C4E01010914D500000CB201010A55F0A9
:103FBB0000000D4800010C55F0000009C40001027F
:103FCB001A0A00420C8000010B55F0000009C400D6
:103FDB00010D2475000009C4000101090805020345
:103FEB000704061F0501160D070405060B01020346
:053FFB000201040203B5
:00000001FF
