:100000000207121F0501160D04020302282B011D11
:100010000041003C00410040004100530041004FBE
:100020000041004E0000070405060B02281E0102D5
:0A00300003020100010302020FF9B0
:10003B000221EE0203FFE86480F8E933E833601134
:10004B000460F0ED33EC337009E8FCE9FDEAFEEBFC
:10005B00FF220460DED3EB9FEA9EE99DE8C2E78CAA
:10006B00F0C2F795F0400CE8CCF8E9CDF9EACEFAFE
:10007B00EBCFFB1203CA85D0F05804700320D5B325
:10008B00E80470075002B2D502040992D5EC046063
:10009B00F7E4CCC0E0C398F8603B94186008400DBF
:1000AB00D0E0FB0203E1E4FBFAC9FC8028E830E472
:1000BB0006E4C9FBE4CAFCE830E305E4C9CACBFC9F
:1000CB00E854076010F8C3E913F9EA13FAEB13FBD2
:1000DB00EC13FCD8F130F52FC3E49CFCEF9BFFEE47
:1000EB009AFEED99FDD0E0FBEF4E4D4C701222DBEA
:1000FB0003020406EC2CFCEF33FFEE33FEED33FD75
:10010B00ED30E7EB0203E1EF2BFFEE3AFEED39FDAD
:10011B00D0E0FB50130BBB0003020409ED13FDEE03
:10012B0013FEEF13FFEC13FC0203E1EC4D6011E83F
:10013B00497017ED33EC3304600DE4FCFFFEFD2238
:10014B00E933E8330470F80203FF1203CA58046062
:10015B0009E4CC24815006285009020409284003E5
:10016B00020406C0E0EB4A7044B98006D0E0FB0203
:10017B0003F5EF4E701CBD8008EBFFEAFEE9FD8036
:10018B00EBE98DF0A4FEE5F002021FE9CDF9EAFEE2
:10019B00EBFFEF89F0A4FCE5F0CE89F0A42EFFE491
:1001AB0035F0CD89F0A42DFEE435F08067EF4E706D
:1001BB0005BD80D780C3EF8BF0A4ACF0EE8BF0A421
:1001CB002CFCE435F0F8EF8AF0A42CE5F038FCE4D5
:1001DB0033CB8DF0A42CFCE5F03BF8EE8AF0A42C8D
:1001EB00FCE5F038F8E433CF89F0A42CFCE5F038CB
:1001FB00CF3400CE89F0A42FFFE5F03EFEE433C9E7
:10020B008DF0A42EFEE5F039CD8AF0A42FFFE5F09A
:10021B003EFEE43DFD33D0E0FB50070BBB000F026D
:10022B000409EC2CFCEF33FFEE33FEED33FD020340
:10023B00E1020409EC5D046005E859047003020354
:10024B00FF1203CA580460F6EC4860F2EC7004FD30
:10025B00FEFF22C860DB2481C85009C3986002509E
:10026B00060204069850CAF582E9294B4A7005AB81
:10027B00820203F575F0007C1A7880C3EF9BEE9A2F
:10028B00ED99400DC3EF9BFFEE9AFEED99FDE84211
:10029B00F0DC23ACF0D0E0FFD0E0FED0E0FDAB8291
:1002AB0020E7101BEB60BAEC2CFCEF33FFEE33FEB8
:1002BB00ED33FD0203E1E803F830E705C0F075F01C
:1002CB0000EF2FFFEE33FEED33FD40B830E7C28079
:1002DB00AA74F8CC6480CCC86480C8F58204604FE3
:1002EB00C3EB9FF5F0EA9E42F0E99D42F0E89C4596
:1002FB00F0603C501DE5825FFFE582D313CB5BCBF7
:10030B00F42B5582FB50280ABA002409B9002008A7
:10031B00801DE5825BFBE582D313CF5FCFF4C31364
:10032B002F5582FF50090EBE00050DBD00010CC3F9
:10033B00EB9FF5F0EA9E42F0E99D42F0E89C45F018
:10034B006007CC4820E701B3EC2275F020800E75D6
:10035B00F010800575F0087D007E007F003392D58C
:10036B0030D503120628EC334010EF33FFEE33FE8B
:10037B00ED33FDEC33FCD5F0ED22E5F0247EA2D578
:10038B0013CC92E7CDCEFF22EDD2E7CD33EC3392F7
:10039B00D524814006E4FFFEFDFC22FCE4CFCECD4C
:1003AB00CC24E0501174FF80EDC3CC13CCCD13CD16
:1003BB00CE13CECF13CF0470F030D5DE020628E972
:1003CB00D2E7C933E833F892D5EDD2E7CD33EC332E
:1003DB00FC5002B2D522EC30E7100FBF000C0EBE62
:1003EB0000080DBD00040BEB6014A2D5EB13FCED64
:1003FB0092E7FD2274FFFCFDFEFF22E480F8A2D5FC
:10040B0074FF13FC7D80E480EFBB010689828A8335
:10041B00E0225002E722BBFE02E32289828A83E4B8
:10042B009322BB010CE58229F582E5833AF583E043
:10043B00225006E92582F8E622BBFE06E92582F862
:10044B00E222E58229F582E5833AF583E49322BB28
:10045B00010689828A83F0225002F722BBFE01F348
:10046B0022EF8DF0A4A8F0CF8CF0A428CE8DF0A4B1
:10047B002EFE22C2D5EC30E709B2D5E4C39DFDE4D4
:10048B009CFCEE30E715B2D5E4C39FFFE49EFE1251
:10049B0006BDC3E49DFDE49CFC80031206BD30D574
:1004AB0007C3E49FFFE49EFE22BB0110E58229F502
:1004BB0082E5833AF583E0F5F0A3E0225009E925C4
:1004CB0082F886F008E622BBFE0AE92582F8E2F5FF
:1004DB00F008E222E5832AF583E993F5F0A3E9938B
:1004EB0022BB010A89828A83F0E5F0A3F022500631
:1004FB00F709A7F01922BBFE06F3E5F009F3192261
:10050B00E88FF0A4CC8BF0A42CFCE98EF0A42CFC8F
:10051B008AF0EDA42CFCEA8EF0A4CDA8F08BF0A40D
:10052B002DCC3825F0FDE98FF0A42CCD35F0FCEB6C
:10053B008EF0A4FEA9F0EB8FF0A4CFC5F02ECD3931
:10054B00FEE43CFCEAA42DCE35F0FDE43CFC227528
:10055B00F008758200EF2FFFEE33FECD33CDCC3399
:10056B00CCC58233C5829BED9AEC99E58298400C01
:10057B00F582EE9BFEED9AFDEC99FC0FD5F0D6E4DF
:10058B00CEFBE4CDFAE4CCF9A88222B800C1B900C5
:10059B0059BA002DEC8BF084CFCECDFCE5F0CBF926
:1005AB007818EF2FFFEE33FEED33FDEC33FCEB331E
:1005BB00FB10D703994004EB99FB0FD8E5E4F9FA4C
:1005CB00227818EF2FFFEE33FEED33FDEC33FCC931
:1005DB0033C910D7059BE99A4007EC9BFCE99AF9C4
:1005EB000FD8E0E4C9FAE4CCFB2275F010EF2FFF33
:1005FB00EE33FEED33FDCC33CCC833C810D7079B9D
:10060B00EC9AE899400AED9BFDEC9AFCE899F80FFF
:10061B00D5F0DAE4CDFBE4CCFAE4C8F922C3E49FCD
:10062B00FFE49EFEE49DFDE49CFC22EB9FF5F0EACB
:10063B009E42F0E99D42F0EC6480C864809845F0DE
:10064B0022EB9FF5F0EA9E42F0E99D42F0E89C45D3
:10065B00F022E8600FECC313FCED13FDEE13FEEF7D
:10066B0013FFD8F122E493FC740193FD740293FE03
:10067B00740393FF22ECF0A3EDF0A3EEF0A3EFF0E5
:10068B0022A8828583F0D083D0821206A31206A300
:10069B001206A31206A3E473E493A3C583C5F0C5A6
:1006AB0083C8C582C8F0A3C583C5F0C583C8C582FE
:1006BB00C822BC000BBE0029EF8DF084FFADF022E9
:1006CB00E4CCF875F008EF2FFFEE33FEEC33FCEEC5
:1006DB009DEC984005FCEE9DFE0FD5F0E9E4CEFDB8
:1006EB0022EDF8F5F0EE8420D21CFEADF075F0088B
:1006FB00EF2FFFED33FD4007985006D5F0F222C3E4
:10070B0098FD0FD5F0EA2278FFE4F6D8FD900000B3
:10071B007F007E04E4F0A3DFFCDEFA758163020741
:10072B0067020A15E493A3F8E493A34003F6800150
:10073B00F208DFF48029E493A3F85407240CC8C310
:10074B0033C4540F4420C8834004F456800146F64A
:10075B00DFE4800B010204081020408090000EE4BF
:10076B007E019360BCA3FF543F30E509541FFEE4A8
:10077B0093A360010ECF54C025E060A840B8E4936A
:10078B00A3FAE493A3F8E493A3C8C582C8CAC583AC
:10079B00CAF0A3C8C582C8CAC583CADFE9DEE78031
:1007AB00BEC2D5E830E70FB2D5E4C39BFBE49AFA9F
:1007BB00E499F9E498F8EC30E717B2D51207E21296
:1007CB000596E4C39BFBE49AFAE499F9E498F88064
:1007DB000312059630D50DE4C39FFFE49EFEE49D06
:1007EB00FDE49CFC220012002B0010DBD6000FCC8A
:1007FB001E000ECF6C000DE44B000D0965000C3D87
:10080B0080000B7F7C000ACE50000A290700098E5E
:10081B00C30008FEB50008781F0007FA52000784D2
:10082B00AE0007169D0006AF9700064F1C0005F49F
:10083B00B800059FFE0005508B000506020004C0A2
:10084B000D00047E5D000440A9000406AC0003D03B
:10085B002700039CE100036CA100033F3700031446
:10086B00720002EC280002C62F0002A26300028075
:10087B009F000260C3000242B10002264C00020B33
:10088B007B0001F2230001DA2E0001C3870001AEC9
:10089B0019000199D2000186A00001747200016356
:1008AB003A000152EA00014372000134C8000126EC
:1008BB00DF000119AC00010D2500010141F5F5EB3D
:1008CB003AE107D755CE1DC558BD00B50EAD7FA675
:1008DB004C9F7098E792AC8CBB871181AA7C827776
:1008EB009772E46E676A1E6606621C5E5F5ACB5790
:1008FB005F541950F84DF84B1A485A45B8433340DA
:10090B00C83E773C3E3A1D3812361D343B326D30B3
:10091B00B22F082D6F2BE62A6C290127A42655250B
:10092B001323DD22B22193207F1F751E750000005B
:10093B0000000000000000000000000000000100AB
:10094B00010000000001000000000000000000009A
:10095B0000000003001000000ABE000000030200AC
:10096B0002020002000009C400000002020300059D
:10097B00008500000B220100010502060006029A09
:10098B0000000B8601000105010705070535000076
:10099B000BEA01000106010806080A6A00000C4E6A
:1009AB00010101070109070914D500000CB201016F
:1009BB0001080105080A4B8500000D480001000ADB
:1009CB000000090C4B8500000ABE0001000C020D53
:1009DB000B041A0A00420C80000101040000000BFA
:1009EB004B8500000ABE0001000B020C0D0D247597
:1009FB0000000ABE0001000D020B0C32352030370F
:100A0B002032332D313420303800C21812222B12F1
:100A1B0027F05186D1611231D6122D6D1218481262
:100A2B001EF8D21A123AF0C2211200371218D21243
:100A3B00255E1228D512361A121A2212246930108A
:100A4B00E8C21020181C123ED8123371123B6812E8
:100A5B003E4D1230AD123328123B97123042D21852
:100A6B0080C7121DEF122355123D61123D6A123CD5
:100A7B0037121987123EACC21880AE123FC5121A3C
:100A8B0002F1E47D08F16C7D40F16C7D047F035134
:100A9B00B07B007D20F16C7D10E4FF800851B07BB2
:100AAB00007D017F038F28120414FF14601514605E
:100ABB003914604B1460482404706C123F8D123F44
:100ACB00A58037EDF4F58275830085832985822A0D
:100ADB0085832B85822CEDF5827401F52D85822E75
:100AEB00E582F4F582752F008010123F8D752D0075
:100AFB0085822EEDF5827401F52F8582308028EDED
:100B0B00F4F582123FA5858230EDF5827401F5294B
:100B1B0085822AEFB40407EDFF7401FE8005EDF426
:100B2B00FF7E008E2B8F2C90000112042D7007ED91
:100B3B00FF7401FE8005EDF4FF7E008E318F329045
:100B4B00000212042D7007EDFF7401FE8005EDF419
:100B5B00FF7E00E52814700261F0147002816B14A3
:100B6B00700281E624036002A16AE529AB9A30E0AA
:100B7B0006E52A4BFD8004E52A5BFD8D9AE52B30BB
:100B8B00E00790F009D14A800590F009D14390F02D
:100B9B0009EDF0E52D30E004D159800590F00AD134
:100BAB003C90F00AEDF0E52F30E004D15180059038
:100BBB00F00BD13590F00BEDF0EE30E004F1F2805C
:100BCB000890F00CE0FBEF5BFD90F00CEDF0E531E5
:100BDB0030E005123FB2800590F00DF1EBAF0590C0
:100BEB00F00DEDF022E529ABA130E006E52A4BFD37
:100BFB008004E52A5BFD8DA1E52B30E00790F01911
:100C0B00D14A800590F019D14390F019EDF0E52D04
:100C1B0030E004D159800590F01AD13C90F01AEDD8
:100C2B00F0E52F30E004D151800590F01BD13590C9
:100C3B00F01BEDF0EE30E004F1F2800890F01CE0D8
:100C4B00FBEF5BFD90F01CEDF0E53130E005123F62
:100C5B00B2800590F01DF1EBAF0590F01DEDF02289
:100C6B00E529ABA230E006E52A4BFD8004E52A5BC3
:100C7B00FD8DA2E52B30E00790F029D14A8005903D
:100C8B00F029D14390F029EDF0E52D30E004D15956
:100C9B00800590F02AD13C90F02AEDF0E52F30E062
:100CAB0004D151800590F02BD13590F02BEDF0EE67
:100CBB0030E004F1F2800890F02CE0FBEF5BFD904C
:100CCB00F02CEDF0E53130E005123FB2800590F0ED
:100CDB002DF1EBAF0590F02DEDF022E529ABA33014
:100CEB00E006E52A4BFD8004E52A5BFD8DA3E52B91
:100CFB0030E00790F039D14A800590F039D143901C
:100D0B00F039EDF0E52D30E004D159800590F03A43
:100D1B00D13C90F03AEDF0E52F30E004D151800555
:100D2B0090F03BD13590F03BEDF0EE30E008A3E0D6
:100D3B00FDEF4DFF800890F03CE0FDEF5DFF90F084
:100D4B003CEFF0E53130E009A3E0FDE5324DFF80EB
:100D5B000990F03DE0FDE5325DFF90F03DEFF022B4
:100D6B00E4F525F526F527FB7A0079257D087F0329
:100D7B0051A87B007D20123FE87D02E4FF51B07B40
:100D8B00017D01E4FFB1D27D05B1D2B1CB75250355
:100D9B00752701E41B7D03FFB1D27D0851B0D283CF
:100DAB0075DF4075DE60E4F5E9F5D1F5D375D50F48
:100DBB0075D4FF90F69274A0F012228E43DE80223F
:100DCB007D017F03B1D21DEB6402605DEB640360B8
:100DDB0058EB64196053EBD3941C504DEF14601512
:100DEB001460231460312403703FEDD39405503904
:100DFB00ED2400802BEDD39407502EEDC3940340CC
:100E0B0028ED2410801AEDD39406501DEDC39401E8
:100E1B004017ED24208009EDD39406500CED2430BF
:100E2B00121FEAEB541F121FE222E0FBE5305BFDC1
:100E3B0022E0FBE52E5BFD22E0FBE52C5BFD22E0D7
:100E4B00FBE52C4BFD22A3E0FBE5304BFD22A3E0A1
:100E5B00FBE52E4BFD22B16BD1CD752503E4F526B9
:100E6B00752701F55F90F12404F090F12C74FFF0DD
:100E7B00A3F090F1357409F090F137F090F13474E0
:100E8B005FF090F136F090F126E0440CF0123084D4
:100E9B0090F129E0540C70F8C21A7D037F011220E7
:100EAB0040C21A0D7F01122040F1E47D107F0151E9
:100EBB00B07B00123FE17B147D047F01B1D20B1D8F
:100ECB00A1D2123FC5C2A2C2A2F1E47D04123FE837
:100EDB007D047F0251B090F120E4F0A3741DF090DB
:100EEB00F1237401F090F125F090F12A74FFF0904A
:100EFB00F12EF090F122E4F090F127741DF0A3F0A5
:100F0B0090F160E4F090F165F090F164741DF09055
:100F1B00F131741FF090F130743FF090F139740996
:100F2B00F090F138745FF090F141E4F090F149F0FA
:100F3B0090F140F090F148F090002D12068C0000DB
:100F4B000000121DCCC215C21490F166F090F12670
:100F5B00741DF01233197B121233127B16E4FFA1AE
:100F6B00D27F0251B07B0022D1615186120037C271
:100F7B001A123AF0C22122E4F5DE90F692F0122218
:100F8B008EE4FBB1CB752503E4F526F5277A0079C2
:100F9B00257D0851A8C21AE4FD7F03122040C21A16
:100FAB000D7F03122040C28322752501E4F52675BF
:100FBB002701E51330E005F1E4123FE1E4FB7D038B
:100FCB007F01B1D2E51330E1087A0079257D10510C
:100FDB00B0E4FB7D047F01A1D27B007A007925224E
:100FEB00E0FBE5325BFD22A3E0FBEF4BFD22E55E70
:100FFB00B40303E4F55EE55E146038147002018CF3
:10100B0014700201C92403600201C6D21B11E8E46B
:10101B00F529AF29EF3395E0FE74032FF5827400A9
:10102B003EF583E493FD11DDEDF00529E529B405CB
:10103B00E101C1E4F52911D6E0FFC364809480403F
:10104B000FD3EF64809496400EEF6480949F50070B
:10105B000529E529B405DFC3E52964809485501C77
:10106B0011D6E0F52864166005E528B40D04C21B03
:10107B0011E8AF28122238755E028042755E03803C
:10108B003D752D00752E00752F2871201222AEEFA5
:10109B004E602B852647852748AD28AF27AE2611F6
:1010AB00FDE4F52911D6E0B5280511DD74FEF00538
:1010BB0029E529B405EE755E018003E4F55E302168
:1010CB0009E55E64036003020FF922AF29EF339544
:1010DB00E0FE74192FF58274003EF5832253DE7FF8
:1010EB00007F00201B027FA090F692EFF00043DE02
:1010FB0080228E2A8F2B8D2C90F692E030E708E41D
:10110B00FFFEFD7C408002511931FF5108C004C025
:10111B0005C006C007E4FBFA79807845AF34AE33DF
:10112B00AD32AC3112023FD003D002D001D000124D
:10113B0001368F388E378D368C35E52C24FB607459
:10114B0024F8605924F7602C24F76013241E6002E6
:10115B0021FE85385C85375B85365A85355922519A
:10116B0008123FD8F1EE7C4512023F8F588E578DF7
:10117B00568C5522753035752F48752E03752D3EBF
:10118B0051228F548E538D528C51E4FBFA79407857
:10119B004012023F8F508E4F8D4E8C4D2275307A00
:1011AB00752FD3752E9B752D3D51228F4C8E4B8DEC
:1011BB004A8C492251105119120041C004C005C07C
:1011CB0006C007E4FFFE7DA57C435110120136D00B
:1011DB0003D002D001D00012023F31FF1227DF12E1
:1011EB00013631FF1203937B007A00795D51358E06
:1011FB00458F46228F348E338D328C3122AC2AAD03
:10120B002BEC02035AAB38AA37A936A83522AF58B4
:10121B00AE57AD56AC5522AB30AA2FA92EA82DAF89
:10122B0038AE37AD36AC3502023F8B398A3A893B43
:10123B008F3F8E3E8D3D8C3C7F2B7E007D127C0044
:10124B00710DD312064C400771167EFF7FED22E421
:10125B007F757E1E710BC312064C50067116FE7FF6
:10126B006422AB39AA3AA93B740112045AE47FF504
:10127B007EF5710BD312064C402EE4F540E540256C
:10128B00E025E024F0F582E43407F5831206707153
:10129B000DC312064C400AE54024EDFFE434FFFE7B
:1012AB00220540E540B436D5E4F540E54025E02481
:1012BB00C8F582E43408F583E493FE740193FFE4EC
:1012CB008F448E43F542F541E544F544E543F54340
:1012DB00E4F542F541AF3FAE3EAD3DAC3CAB44AA6D
:1012EB0043A942A841D312064C5009E5402423FFE1
:1012FB00E433FE220540E540B43DB07116FEFF22FB
:10130B00FDFCAB3FAA3EA93DA83C22AB39AA3AA9AA
:10131B003BE402045A7B007A00792622712091F972
:10132B00900045EEF0A3EFF071207D05D151EF65F4
:10133B002B7067E528C330E401D39204E528C33052
:10134B00E201D39202E528C330E301D39203E528EF
:10135B00C330E001D39200E528C330E501D39226D8
:10136B00E5287F0030E1027F018F63852A1320027D
:10137B0004D130800685260B85270C852914900017
:10138B0047E52BF0900046E004F07006900045E036
:10139B0004F0F1DE400F9180800BD11B756301D2FD
:1013AB001A71C391B0C21B301B07C2AF0075FBAAE9
:1013BB002275FB5500D2AF22E4FFD21B71B2E5635D
:1013CB00B401027F023000034307013002034307DD
:1013DB00043003034307083004034307103026038C
:1013EB004307208F30851431851332850B2E850CE6
:1013FB002F7B007A00792E7D05D1518F33201A096E
:10140B00900047E0B533028068201A0FC390004666
:10141B00E094A9900045E09400401B7B007A007992
:10142B002D7D007C027F1D91CBE4FC7F1D91CBE4D5
:10143B00900045F0A3F0E4F52D90004512272712FC
:10144B003CB3252DFDEC3EFC742E252DF9E4FAFB67
:10145B007F1991CB052DE52DC3940640DC900046FA
:10146B00E004F07006900045E004F0900047E5338F
:10147B00F0C21B61B2D11BC21A71C3C21B71B27510
:10148B002C64C223755F05B1871230ADF1DE5002BB
:10149B00152CE52C70F1C2AF007596AA7596557593
:1014AB00978080FE22752CFFC21B71B2C223755F21
:1014BB0004152CE52C6007B1871230AD80F380D674
:1014CB008F34E534B41905120414F5FEEDF5FCEC7C
:1014DB00FFEFF5FD008534FF000000000000E5FF85
:1014EB0020E0FBE534B41105E5FE12045A228B2CE7
:1014FB008A2D892EE4F530F531D21B71B2E4F52F2C
:10150B00B15C40FCAB2CAA2DA92E7D05D151AB2C87
:10151B00AA2DA92E90000512042DB507130531E550
:10152B003170020530C394A9E5306480948040CDBE
:10153B00D3E5319400E530648094804008E53115A3
:10154B003170021530E4F52FB15C40FCAE30AF3199
:10155B0022AE30AF317C007D0612046CEF252FFDDF
:10156B00EC3EFCAB2C7E00E52E252FF9EE352DFA4B
:10157B007F1191CB052FE52FC39406227F0A7E00A6
:10158B008E2D8F2EE4F533E52E452D60790533AE88
:10159B002DAF2E122448E47BA07A0FF9F812050B1D
:1015AB00D112C007AF33AB07E4FAF9F8D007120535
:1015BB0096D112E47FFF7EFFFDFCAB32AA31A9303E
:1015CB00A82FD312064C50C5C374FF9532F5327455
:1015DB00FF9531F531E49530F530E4952FF52FAFCC
:1015EB0032AE31AD30AC2F780812065D8F8CE53200
:1015FB00FF8F8AC212438810E58820E5033012F86A
:10160B005388CFD533D9228F328E318D308C2F2208
:10161B00E4F563751301F514D130D202C203C20095
:10162B00D226C204227B007A00792D7F04F1F5E5E6
:10163B002D600C9000031204B4F50C85F00B227591
:10164B000B00750CC8228B348A3589367FFFAB347F
:10165B000536E536AA357002053514F91204146205
:10166B00077E08EF30E70725E06407FF8004EF25CE
:10167B00E0FFDEEFDDD822F196604E14604B24F6CE
:10168B0024FD50028005123B82801BE5637017D14D
:10169B00D6F1E1600F900028E0FFA3E0900026CF89
:1016AB00F0A3EFF0D208300213D1D690000712044A
:1016BB002D601212041490003BF08009300006D10B
:1016CB0030C21A71C3E4FFF14A22F0AB08AA09A990
:1016DB000A228F27D1D690000912042D6003122FF6
:1016EB00F2F19654FE6014122764E5637007E52748
:1016FB00B401088004F1E74002D18290003CE03055
:10170B00E70F547FD1D590000C12042DFF6002F12E
:10171B004A90003CE030E50F54DFD1D590000D121C
:10172B00042DFF6002F14AD1D690000B12042D60FC
:10173B000D5402FF90000A12042DFD123DC4228F9E
:10174B0029300506E5296404603FF1966529603967
:10175B00F1E1F52A7B007A00792BAF29F1F5E52B26
:10176B0060278B088A09890A123D8D122FD8123EE9
:10177B003FE529D394014011E529940B500BE52A41
:10178B006007122B8DFF1236A022F0AB08AA09A915
:10179B000A0204148F28E4FFFE7D40121F60600DC7
:1017AB00400BAF283000027F04F14A801D7F9A7EE8
:1017BB00997D29121F6060074005123E1F800BF1B7
:1017CB00967005755F068002D182F196B404031200
:1017DB003E0C22A2802290000802042DE517C36064
:1017EB0001D3227F9A7E997D9922E412045AFEEE50
:1017FB0075F00EA42442F582E43409F583E493B525
:10180B000707740112045A80040EBE0EE2AF06EFF6
:10181B0075F00EA42442F9740935F0FA7BFF22EF20
:10182B0014600E14600F1460102403700FED42ACA3
:10183B0022ED42AD22ED42AE22ED42AF22752501E3
:10184B00E4F526F527FBFDFF120DD27A0079250D65
:10185B00120AB07D01E4FF112A7B021D118043B9EE
:10186B0004316590005574FFF0E4F515F516F51885
:10187B00F519F51A22EBD39403504BEF14601514A2
:10188B0060231460312403703DEDD394055037ED84
:10189B002480802BEDD39407502CEDC3940340266A
:1018AB00ED2488801AEDD39406501BEDC3940140B0
:1018BB0015ED24908009EDD39406500AED2498F190
:1018CB00EAEB5403F1E2227D01E4FFF1F2403690A2
:1018DB000055E0FF25E0F0308003E004F090005568
:1018EB00E0FCF46003EC701D3165E4F5B4BCFF0360
:1018FB00C38001D392227B01BCFF027B02E4FDFF7C
:10190B0011800D112A302208E51630E70375168079
:10191B00E5637F8270027F85AC07302226E515B523
:10192B000421D3E51864809480400CAF18EF3395F5
:10193B00E0FE1230768009E4F518751A017517016F
:10194B00E4F515202213E516B4840EE4F516E5171D
:10195B00700475190122E4F51722E563D394014055
:10196B00077561127562C022121796B40107756173
:10197B00007562F02275610075622822123B3EEF02
:10198B0060023165D3E5629400E56194004009E59E
:10199B006215627002156122E563D394014003E482
:1019AB00F56331F34387044387021227F01221DBDF
:1019BB0031E57F017E0012158B11D230100AC21057
:1019CB00B21930190312304212283150E5120F733D
:1019DB00E4900048F0A3F0A3F0227D01E4FF122075
:1019EB001E90005574AAF022E4F5C853A8DF1232FA
:1019FB00F7120F82120FB4B1C5C2A3C284E49000D8
:101A0B0026F0A3F0900028F0A3F0C21FC220900094
:101A1B002CF090002BF022D3900027E09400F1A93A
:101A2B009480401A12371C8E258F26C3900027E016
:101A3B009526E5256480F8F1A998500C8003900059
:101A4B0026E0F525A3E0F5267F05EF90002593FE14
:101A5B0090002BE0B5060BE526452570057408F0C4
:101A6B008002DFE690002BE0B40D004002A1339022
:101A7B001A81F8282873021AAA021ABD021AFC024C
:101A8B001B10021B39021B9E021CA4021C68021CA9
:101A9B00E1021CF3021D0E021D22021AA84102B123
:101AAB00C5C21FB1A1B18D5002A13990002B740199
:101ABB00F022D2A3121796B4020B900028E4F0A3E5
:101ACB00741DF0801FD3E52694E8E525648094838C
:101ADB0040067E037FE88004AE25AF26900028EEFB
:101AEB00F0A3EFF0B1D4B199F1C690002B7402F0D2
:101AFB0022301402A139F1D3D2A690002A7410F02F
:101B0B00A37403F022D2B290002AE0700A7F01D1B5
:101B1B00E790002B740CF0B1DD5002A1391217962F
:101B2B0090002BB402047407F0227404F022D2A5A7
:101B3B00301402A139123FCF4A701090002AE07086
:101B4B0002816130E702816114F02290002A74193E
:101B5B00F0AE25AF267C007D1412047EEF2401F538
:101B6B0026E43EF525D3E52694C8B19240067525AB
:101B7B00007526C8C3EB9526EA95255004B1CC8099
:101B8B000FC3900032E09526F0900031E09525F0E0
:101B9B00D21422301402A139B1D4C3E5269FFDE53E
:101BAB00259EFCD3ED94A0EC6480948F4002D22050
:101BBB00E5636002813F30207B12179624F5602489
:101BCB0014603114603E2403704A202455C3EF94F3
:101BDB00E0EE648094AE900029E050042405803A36
:101BEB00240A8036900029E02488F0900028E03405
:101BFB0013F0802E900029E024DCF0900028E034D4
:101C0B0005F0801E900029E024F4F0900028E034C9
:101C1B0001F0800E900029E0240FF0900028E034B2
:101C2B0000F0C3900029E09526E525123525400EDE
:101C3B00C2208003900028E525F0A3E526F0D214FE
:101C4B00B1D4B199900028E065257004A3E0652616
:101C5B006002A139D21F90002B7406F022D3E52627
:101C6B009402B192400690002B7404F0900031E086
:101C7B00FEA3E0FFE4FCFD7B137A08F9F8C3120620
:101C8B004C5013201410900032E024FFF0900031E0
:101C9B00E034FFF0D214D2A522E52664024525706C
:101CAB001590002B7407F090003104F0A37427F00B
:101CBB007F1D7E00B199E526B4FF0BE525B4FF0629
:101CCB0090002B740AF0900028E065257004A3E0C7
:101CDB006526605A804BC2B200D2A5B1A190002AF2
:101CEB007420F0A37409F022E4FFFE7D70B1E24092
:101CFB000690002AE07037B1A1B1C5E490002AF03C
:101D0B00A3F022F1C612379CB1E460025020C2A5A9
:101D1B0090002B740BF022B18D4013D2A5B1CCD215
:101D2B001490002B7405F02290002B740CF022AD54
:101D3B0007AC06EC12035AB1847BA67A9B79C47864
:101D4B003AB181E4FBFA79C8B17FC004C005C00683
:101D5B00C007F1DAAB58AA57A956A855120136128B
:101D6B003FD8D007D006D005D00412023FB184E48F
:101D7B00FBFA79CC78421201368F2A8E298D288C6A
:101D8B002722D3E5269400E5256480948022B13A7E
:101D9B0090002D020680C2A3900031E07002A3E0F8
:101DAB00700912254AF1656010400EB1CC90002DE0
:101DBB0012068C00000000D21422C2B2C2A5C2A629
:101DCB0022E4900031F0A3F022900028E0FEA3E083
:101DDB00FF22E4FFFE7D607C41AB4CAA4BA94AA8D5
:101DEB00490202DC201F1C90002012234AFFF151F4
:101DFB001202DC500ED22490002012068CC120005F
:101E0B000080297FCD7ECC7DCC7C3DD1DC501BE48A
:101E1B00FFFE7D38F14F1202DC500FE4FFFE7D9088
:101E2B00B1E260064004D2248002C22412335F4028
:101E3B0006E4900041F022900041E0C3940450046A
:101E4B00E004F022900040E0540FF5257FCD7ECCCE
:101E5B007D8C7C401227E71202DC600640047F0376
:101E6B00D1E77F9A7E997D69B1E250141217EE7C0F
:101E7B0040D1DC600B40097D02F1B0E4F526802DEA
:101E8B00E4FFFEFD7C3FD1DC5014E4FFFE7DB4B1DA
:101E9B00E2600B40097D01F1B0752601800FD3B1D3
:101EAB00924006E52514FF80027F008F25E526C4AE
:101EBB0054F04525900040F0C3E52564809488409C
:101ECB000FE0C4540F1470047F0480027F02D1E72B
:101EDB0022AB5CAA5BA95AA8590202DC90003EEF28
:101EEB00121795640160057F0112174A227525644C
:101EFB00D2A6D2A3D219F1737F287E0012158B12B2
:101F0B000037E4FFFEFDF14F1202DC60284026D2C1
:101F1B00B2120037E4FFFE7D84B1E2600840067F19
:101F2B0007D1E78010B1DD6002500A7F057E0012F9
:101F3B00158BD525DCC219F1735102E52570047F91
:101F4B0001D1E7227C41AB54AA53A952A851227F5D
:101F5B009A7E997D197C40900000E0F8A3E0F9A3EC
:101F6B00E0FAA3E0FB0202DC7F003019027FFF9056
:101F7B00F140EFF07F003019027F0890F149EFF04C
:101F8B007F003019027F2A90F148EFF0123319903D
:101F9B00F164E030190454EEF0224411F022900069
:101FAB0026E0648022AF25F1B78F2522C3EF648032
:101FBB0094885004EF2DFF227F0822900031740883
:101FCB00F0A37459F0D214227F147E0002158BE417
:101FDB00FFFE7D7A7C4422852982852883F022F5B9
:101FEB0029E434F0F52822EF146011146015146005
:101FFB00192403701CE5AC5D6017D322E5AD5D6061
:10200B0010D322E5AE5D6009D322E5AF5D6002D34C
:10201B0022C322EF14600F14601114601324037099
:10202B0013EDF452AC22EDF452AD22EDF452AE228C
:10203B00EDF452AF22EF14603614605F147002019E
:10204B00D22403600201F4EDD39405400201F43075
:10205B001A0EA8057401088002C333D8FC428022F3
:10206B00A8057401088002C333D8FCF4528022ED1A
:10207B00D394075074EDC39403406E301A0EA80529
:10208B007401088002C333D8FC429022A805740166
:10209B00088002C333D8FCF4529022EDD39406503F
:1020AB0048EDC394014042301A0EA8057401088014
:1020BB0002C333D8FC42A022A8057401088002C3D6
:1020CB0033D8FCF452A022EDD39406501C301A0ED8
:1020DB00A8057401088002C333D8FC42B02211F565
:1020EB008002C333D8FCF452B022AF05A8077401A9
:1020FB000822EF14602214603D14605824037071A1
:10210B00EDD3940540028069ED248031918002C3A8
:10211B0033D8FC55ACFC805DEDD394075006EDC372
:10212B0094035002804BED248831918002C333D845
:10213B00FC55ADFC803FEDD394065006EDC39401E6
:10214B005002802DED249031918002C333D8FC5581
:10215B00AEFC8021EDD3940640028015ED2498FB54
:10216B00E434F0FA11F58002C333D8FC55AFFC8090
:10217B0004E4FEFF22EC7003FEFF228B828A83E0D5
:10218B005403FF7E0022FBE434F0FAA80574010827
:10219B0022E4FDFF11FDEF64014E702FC222E51505
:1021AB00547FFFE4F515E5177004E51A6007E4F5B5
:1021BB001AF5178018EFC394055012C3E518648005
:1021CB00948850020518751680800231DB0219E5E0
:1021DB00D222E51630E703751680E51520E7037567
:1021EB00158022C0E0C0F0C083C082C0D075D00083
:1021FB00C000C001C002C003C004C005C006C007B8
:10220B00319C75B400D007D006D005D004D003D0D4
:10221B0002D001D000D0D0D082D083D0F0D0E03229
:10222B00C2AF007596AA75965553977F22AB077A66
:10223B00A0900018E07042C3EB64809480403AD3C6
:10224B00EB648094964007EB6480949F402B900046
:10225B001112068C000000005185EBF0A37401F005
:10226B00EB30E40543DF80800353DF7F53DEF0EB7D
:10227B00540F42DEDAFE43DF0222E4900015F0A396
:10228B00F0A3227F0590001974FEF0A3DFFCE4F5A8
:10229B005E90001112068C000000005185F0A3F037
:1022AB00D221228B2A8A2B892CE5DF30E102804256
:1022BB00900016E004F07006900015E004F090001A
:1022CB0011B152AFDDEFFEADDCED9147EB2FFFEA25
:1022DB003EFEE93DFDE83CFC900011120680C390E8
:1022EB000016E0940A900015E06480948050074338
:1022FB00DF02E4FEFF22900011714AFFE47B0AFA31
:10230B00F9F81207AC900011120680900011A3A3EC
:10231B00E0FFA3E0AB2AAA2BA92CCF8FF01204EC81
:10232B00900017E0AB2DAA2EA92F12045AE49000AF
:10233B0018F0FE7F0122900009120680900009E040
:10234B00FCA3E0FDA3E0FEA3E02290000DE0C3940C
:10235B0028504C121FDAF1E7F13D916090000DE02F
:10236B0004F071472528FFEE3527FEED3526FDECF1
:10237B003525FC900009120680900005914391577A
:10238B00C31206365005900005914F9000079143FC
:10239B009157D3120636407B900007914F80747192
:1023AB0047FFC004C005C006C007900007E0FEA3AE
:1023BB00E0FBAA06EA3395E0F9F89000059143EFAC
:1023CB002BFBEE3AFAED39F9EC38F8D007D006D002
:1023DB0005D004C3EF9BFFEE9AFEED99FDEC98FC44
:1023EB007141FFC006C007A3E024FEFFE434FFAB3E
:1023FB0007FA3395E0F9F8D007D0061207AC714114
:10240B00FFEC120355F1DF12023F90000012068021
:10241B00123B1CE51EB47805751E018006E51E6097
:10242B0002051EE51D6002151D900010E0600214F0
:10243B00F0E51C6002151C22E0FEA3E0FFEE3395D5
:10244B00E0FDFC22E527F0A3E528F022AB28AA2724
:10245B00A926A825228F288E278D268C252220148D
:10246B0002A14830152D90F129E054116002A148CA
:10247B0090F164E030170554EFF080034410F090B6
:10248B00F164E030160554FEF080034401F0C214F1
:10249B00C21522F18190002D121F65600C400A902D
:1024AB00002D12068C42C80000B149121F65500A5C
:1024BB0090002D12068C00000000D3900032E094A7
:1024CB005F900031E0940940077409F0A3745FF04A
:1024DB00B149121F6560054003D38001C39216906A
:1024EB000031E07002A3E0C36001D39217E4FFFE5A
:1024FB007DFA7C4590002DB152120136E4FBFA793E
:10250B008078BF1200459160E4FBFA79C8784212DB
:10251B00023F9160120393AD07AC06123FCFEA90D6
:10252B00F149F0EB90F148F0ECFFEF90F141F0ED59
:10253B0090F140F0D21590F129E04411F022E4FF24
:10254B00FEFDFC90002D22E0F8A3E0F9A3E0FAA336
:10255B00E0FB22121796B40408850D25850E268004
:10256B0007F1D2F52685F025121FDA900000B15243
:10257B00F13DD3EF945AEE6480948A4014D3EF95D7
:10258B0026E52512377140028001D3921CC21D80B3
:10259B0004C21CD21D123A5DE55FD39405503C90EA
:1025AB00003EE06006202503023C64900004E060DE
:1025BB00028029900053E030E1061232948F5F22A3
:1025CB0090004BE0600612388C8F5F2212179670CA
:1025DB0004E51C6003023815E4F55F22900004E06B
:1025EB0014B40B004002E12390260175F003A4C53F
:1025FB008325F0C58373022622022634022662024B
:10260B00266802267F02268502269C0226F80227D0
:10261B00130226A30226B6900010E06002E1237499
:10262B000FF09000047402F0221238458F5F900077
:10263B0010E06002E12390000EE0FEA3E0FFD394D4
:10264B00E7EE648094834004F136F189F1247D64D4
:10265B0012047E7D0380377D047F018038F1247D59
:10266B006412047E90000EECF0FEA3EDF0FFF13649
:10267B007D05801A7D067F02801B301E04F1D8E198
:10268B001FF1247D0A12047EAE04AF057D070237CD
:10269B00DE7D087F030231FE900010E0707A90001F
:1026AB0004740BF0900010741FF022900010E0FFE8
:1026BB00C394195026EF54F86021C3E5469432F1C8
:1026CB002F5005755F038016C3E546943EF12F50DE
:1026DB0005755F028008755F018003E4F55F90006C
:1026EB0010E07034C21EF143EF702D802790001064
:1026FB00E07025121796FF64026003EF7003751CE0
:10270B00129000047409F022E51C60030237F6F105
:10271B0043EF7004900004F02290000EE0FEA3E063
:10272B00FF7C0022E54564809480227C007D0A02B8
:10273B00047E120136020393E51A14FFD3648094CE
:10274B00804001227F0022900004E0700BF1BAF16F
:10275B0081121F51F13DF18922F143EF24FE6011EB
:10276B001460102402700E12179670097F02021764
:10277B004A80D4F19222E4FFFE7DC87C4222900075
:10278B000EEEF0A3EFF022E55D6023900004E07005
:10279B001DF1BAD21EE546AE4530E707FF7CFF7D43
:1027AB00F68006AF467C007D0A12046CF1892290FC
:1027BB0000047401121795600DE55F600690001020
:1027CB007408F0E4F55F229000050204B490001049
:1027DB00740AF022E4FBFA797A784422AB50AA4FC0
:1027EB00A94EA84D225388CF5389F0438901E4F5B4
:1027FB008CF58AF5CE75CB0B75CADB75CD5D75CCBB
:10280B0066F5C975CF8075A8A2C210C211C2137527
:10281B00C8912275C900B213301304D210B2113211
:10282B005388EFD21232E51A6002D322E519C36046
:10283B0001D3228F27C225E56314601B1460331468
:10284B0060302403705BE527B4050211C0E52764F3
:10285B0004704E11AF804AE527B4050411C08041C6
:10286B001217E75004D225803811315034755F06AA
:10287B00802FE527B4040211AFE527B40213E563FB
:10288B00B40208756303755F078006756302755F95
:10289B00081217E7500BE5637F02B403027F03F1C5
:1028AB00F2AF63229000397402F0E5637F0070028F
:1028BB007F028F63229000397408F0E5637F00700C
:1028CB00027F018F63C21A0213C312378B5002614E
:1028DB007FF17A8F25300502C20090003AE0FFC3EA
:1028EB00940B4006EFD3940D400690003A740CF015
:1028FB0090003BE0FFC394024006EFD3940D4006DB
:10290B0090003B7405F0121796F526C22390004EEB
:10291B00E060024139E52614606B14700221DD146E
:10292B00700221BD14700221E924FA700221EF24F8
:10293B00FC4002410F240E6002413990004BE060D5
:10294B00024139719EEF60024139AF25113EEF60B4
:10295B00024139E52524F9601814601A240770190F
:10296B002002047F05800590003BE0FF12179F803B
:10297B0008123F708003123F8371805003123E1F79
:10298B001227644139E4F563123C1E501B301D04C1
:10299B00C225413990003EE0640560024139E525CE
:1029AB0070024139B2254139718040024139F1E061
:1029BB00807C20091D718050197F0512179F1217FB
:1029CB00966403606930000312163090003CE044BB
:1029DB0040F0D223121F5A50551216828050D17AD2
:1029EB0091AA804AB1F7E52564026003300B057F9D
:1029FB000612179FE5256403703490003AE0FF122E
:102A0B00174A802AE52554FEFF3395E04F600CC32F
:102A1B00E525648094845003123B82E525B4030AB8
:102A2B0090003BE0FF12179F8004AF25F1F21217C5
:102A3B0096B5260B90004EE07005AF251216DDF112
:102A4B00CA90004EE0601571EEEF60067E007F21AC
:102A5B0080047EFF7FFF900026EE6163900039E0DB
:102A6B00700330250B900026E4F0A37421F061670E
:102A7B00121796606024F5602D14604D146040248D
:102A8B00036002612BF1887195718DFF90001EE040
:102A9B00FC123C5AEC64809840026167900026EC73
:102AAB00F0A3EDF06167123E56EF24FE60062402A0
:102ABB00701E8071900026E4F0A37485F06167129C
:102ACB003CC8EF7002805E8007123F444002805585
:102ADB00123BEB6167E5146003200803E48048D3E5
:102AEB00900027E0940D121FA99480402FAF147E05
:102AFB00007C017DAE12046CE0FCA3E0FDCFCDCFDA
:102B0B00CECCCE12047EEF2401FFE43EFEC3900038
:102B1B0027E09FF0900026E09EF08040C208803CAA
:102B2B001237B2500A74FF900026F0A3F0802D12DA
:102B3B001796B4041BF15FB1589000264009E50FBE
:102B4B00F0A3E510F08015E50BF0A3E50CF0800C7D
:102B5B00B167FF900026E5F0F0A3EFF0E5116014EC
:102B6B0030070B718D7802F158D8FCFF80047EFF83
:102B7B007FFF719522E51A64016002C322E4F51A06
:102B8B00D322900026E0FEA3E022900026EEF0A3D5
:102B9B00EFF022900053E014603A14600A146007BF
:102BAB002403703C7F0022F17AEF6003123EB59054
:102BBB000054E07007900053F0755F061217E75052
:102BCB001F9000397404F09000537401F0C21A1274
:102BDB0013C3800C1217E740077180E4900053F089
:102BEB007F012290004EE024FE606D147002818BF9
:102BFB0014602324036002819E900010E0FED394A6
:102C0B000640037F0122EE6002819E90004FF0A3ED
:102C1B00F090004E807A91A1FF642D6004EFB420F8
:102C2B001790004E7403F0EF900010B42D05742430
:102C3B00F0801D7414F0801891A1540FFF70089050
:102C4B0000507432F08003123FBA90004E7402F0C1
:102C5B0090004FE004F0803B900050E07019900022
:102C6B0010E0FF700B740CF090004E7403F0802397
:102C7B00EF30E11F7F0122900050E014F07F012222
:102C8B00900010E0700D91A190004E7003F0800346
:102C9B007404F07F002290004FE0900A06932212FA
:102CAB0017E792F7B1E472F79219B161F147500A45
:102CBB00AC0FAD10AE04AF058000B167FDC3EF9D47
:102CCB00E5F0123771500B301908B15440048E0BDC
:102CDB008F0C1217E7502120061E90003DE0600478
:102CEB0014F0804DB153500A050CE50C7002050B26
:102CFB008039D207B1ED8033B1E450272006249000
:102D0B00003DE0600414F080281216D6F170D3B1A8
:102D1B0054400AE50C150C7002150B8004C207B168
:102D2B00ED800820190B300608C20690003D740395
:102D3B00F030190475122022E512B4010A15123075
:102D4B000205C21A1213C322C3E50C9FEE6480F86E
:102D5B00E50B64809822AB08AA09A90A900001022E
:102D6B0004B4E4F511121327120FE47F041217F5C4
:102D7B008B088A09890AE52560291227D2F50E8569
:102D8B00F00DB167F51085F00FF170B15350048E53
:102D9B000B8F0CF15FB1584006850F0B85100CC2E1
:102DAB00058007C200D205755F06C208C206E49013
:102DBB00004BF01219DB90003D7403F0F1D890003A
:102DCB003B7405F090003A740CF0E490003EF07503
:102DDB0008FF750909750A4222E51AB40202D322CB
:102DEB00C3227511048E0B8F0CD20622301C1930A6
:102DFB001F16F167900024E0C3940A4071E4F07F42
:102E0B00093000027F04803830245E301F35E51F07
:102E1B00705C90001FE024DFF090001EE034FFF0A8
:102E2B00751F04D3A3E094DA90001EE0648094A194
:102E3B00503C7421F0A374DAF07F093000027F0458
:102E4B0002174AB161FF900028E0FCA3E0FDC39F8D
:102E5B00E5F06480F8EC6480985013751F089000BF
:102E6B001EECF0A3EDF0D21F22E4900024F0222000
:102E7B001C72201D6FE4900024F0E51B6002E146FC
:102E8B00B161F1475058900025E0FD700404F080CB
:102E9B0008EDC394095002E1469000257401F0122D
:102EAB0027D2FDACF0D3E50E9DEC6480F8E50D6404
:102EBB00809840068C0D8D0E800B7432250EF50E0E
:102ECB00E4350DF50DD3F14B4008B161F51085F0EC
:102EDB000F2274FA2510F510E4350FF50F22E4904C
:102EEB000025F022E4900025F0F167301D0C9000D6
:102EFB0024E0D394044003021682900024E0D39480
:102F0B000A4038D3E510944DE50F64809481400C52
:102F1B0074062510F51074FF350FF50FD3E50E94DD
:102F2B00BEE50D6480948A400C74E7250EF50E7493
:102F3B00FF350DF50D9000247401F022FFAEF0C3A8
:102F4B00E5109FEE6480F8E50F64809822CEA2E72F
:102F5B0013CE1322D3E50C9510E50F22900024E03D
:102F6B00700204F0229000031204B4FFAEF022E5CD
:102F7B001A7004E51970037F0022AF1822121796FE
:102F8B00B40A083004057ED07F5622B167FFAEF03D
:102F9B0022F17AEF6028123A47E0B40604B2278098
:102FAB001B30050990004CE0B4010204F090004C7A
:102FBB00E004F0E05407F0F1E97404F0F1CA22E503
:102FCB00196009E5186005E4F519F51822E490007D
:102FDB0051F0A3F022E490003EF0FF02174AE49078
:102FEB000010F090004B22EF24FD601C0470477F13
:102FFB00CD7ECC7D5C121F6060094007200A047FE8
:10300B000A802D7F0902179F7FCD7ECC7D2C121F4E
:10301B00606020401E121796601290003BF0200358
:10302B00047F0C800590003AE0FF8004D2017F0CF6
:10303B0002174A755F0622E4FE74152EF8E630E798
:10304B0025547FFDEE700CE5637C0560027C02AFBE
:10305B000480027F04EDC39F50010DE65480F6748B
:10306B00152EF8E64DF60EBE02CF22E4F516F51935
:10307B00F518F517EF04F51A2290F145302307E404
:10308B0011A474FA8006740511A47478F090F146BB
:10309B00F090F129E0440CF022F090F147F090F120
:1030AB004422C219752D0CE55FC394065013512DA4
:1030BB005009D223752D04D219800631865002D2C5
:1030CB0019301902215EE55FB409004002215E90C0
:1030DB0030E1F82828730230FC0231010231010281
:1030EB00310102310902310902312A02312A02313E
:1030FB002AE4F560805DAF5F31768F2D8055E560FA
:10310B0030E20854806480F56080020560E5603031
:10311B00E741E55F7F08B405027F008F2D803453B4
:10312B00607FE55F64086005E55FB407047F068098
:10313B00027F0AE560D39F4005E4F55F8015AF6021
:10314B000560EF30E00DE55FB40705752D048003D6
:10315B00752D081184AF2D90F164E054F34FF022DC
:10316B0031763162121FD37F0C80ECA807740308F1
:10317B008002C333D8FCF4540CFF22900004E060AF
:10318B0004E4FF8009300D047F018002515FEF14CE
:10319B00602914600E14600B2403702DE49000372B
:1031AB00F08026900037E0FE640D6007BF030CEE45
:1031BB00B40A08900037E004F0D322900037E00403
:1031CB00F0E0B41004E4F0D322C3227525FF1215EE
:1031DB00871200377F667E667DE67C40121F511298
:1031EB0002DC6002500CD525E5C223755F0111ADE1
:1031FB0080FC228F278D28900010E030E707316B81
:10320B00E4900010F0900010E0FF7E0030E102AE81
:10321B00278E5FEF700BF55F1227D8900004E5281F
:10322B00F0221217967007E563C394025007E490DF
:10323B000056F0801D900056E004F0E0FFB40E073E
:10324B00E563B40302D322EFB41007E4900056F009
:10325B00D322C322121796640A60037F0022300424
:10326B00067E4A7F0280047E4D7F48C390001FE09C
:10327B009FEE6480F890001EE064809850037F02FC
:10328B00227F002004027F0322900053E06403702E
:10329B0023E514540390003393F527601A90001024
:1032AB00E0FF7009E51475F003A4F0800AEFB40198
:1032BB00067F0022851327E527C37001D39223E5F0
:1032CB002714601C14601C14601C2403701B9000DA
:1032DB0010E070157F01316B9000107405F08009C0
:1032EB007F03227F01227F02227F0022E4FB7112E7
:1032FB00E4FF120DD290F121E4F090F126F090F161
:10330B0025F090F123F0227D027F02020DD290F185
:10331B00297411F090F129E0541170F822121796CC
:10332B00B40204C2848024715F5004D284801C12C6
:10333B0017966401600E90002CE0C394045005E0D6
:10334B0004F08007B284E490002CF090002AE06037
:10335B000214F02290002BE0FFD394044006EF946C
:10336B0008500122C322200E0BC20CD198A3F0A34C
:10337B00F0C20D22715F4009121796640C6002A116
:10338B001C121796B40A1330040875290D752ACD33
:10339B00800E752909752A818006752908752AFC06
:1033AB00300C0C74CB252AF52A74FA3529F529F142
:1033BB00068E258F26D3B1E45002819BD3E546942C
:1033CB004312272F4002D20CC3E5469526F528E57C
:1033DB00459525F5279000387418F0D3E52894020D
:1033EB00E527648094805002818E121796B40A12DE
:1033FB00121DD42004067C067D40800D7C087D9830
:10340B008007121DD47C087DFC12047E8E258F262E
:10341B00E52530E705E4F525F5260526E5267002BA
:10342B000525C3B11D5004B130802CE52854FC4553
:10343B00276014AE25AF26E5282402FDE43527FCD2
:10344B0012046C8E258F26AC27AD28AE25AF261225
:10345B00046C900036D1E9900027E02418FF90000F
:10346B0026E034FCFED3900036E09FEE6480F890AB
:10347B000035E06480984005900027F17990003882
:10348B00743CF0C3B11D7D0050027D017F01807F34
:10349B00C3B1E4507CE52A24EBFFE52934FDFED3D0
:1034AB00900029E09FEEB1257F0040027F01AB0722
:1034BB00C3E5269546F528E5259545F52790003873
:1034CB00E0600414F0803BEB6004B130801EE52813
:1034DB0054FE600FC3900036E09528F0900035E065
:1034EB009527F0900035E030E702B159300C13749A
:1034FB0035252AF52A74053529F529D3B11D400246
:10350B00C20C900035E030E702B159AD03E4FFB1D6
:10351B006A22900029E0952AE5296480F89000281A
:10352B00E064809822B161D1D740028016B161D19D
:10353B00E0EF94C0EE648094837E0050047F0180A2
:10354B00027F00EF4E7006D1F3D1E9D19822E490BF
:10355B000035F0A3F022900033E0FEA3E0FF228DB4
:10356B002BA907E9600CE54624C2FBE54534FFFABD
:10357B00800AC374309546FBE49545FAEA30E703BD
:10358B00E4FAFBB161D1D74002801CB161D1E0E418
:10359B009BFD747D9AF16C500AE52B60067E007FD3
:1035AB000180047E007F00EF4E6009EB25E0FBEA13
:1035BB0033FA8003E4FAFB0BBB00010AE96006AEA9
:1035CB0002AF038007C3E49BFFE49AFE900034E054
:1035DB002FF0900033E03EF022E5469526E525647A
:1035EB0080F8E54564809822AF25EF3395E0FED354
:1035FB00E5469FEEB1EA4002D322AF26EF3395E0CA
:10360B00FEC3E5469FEEB1EA5002C322A21A22E5A1
:10361B005D70057F05021EE7A20B921A7525467594
:10362B002637B1F3920BA20A921A752541752637EC
:10363B00B1F3920AA20F921A752550752628B1F391
:10364B00920F300F077F06121EE7800A90003EE0B4
:10365B00B40603122FE01216D61217E17003C20E36
:10366B0022F1068F25A20E921A75262BB1F3921911
:10367B00301903D20E22201913900035E07002A3EB
:10368B00E07009900033E030E702C20E22E49000B4
:10369B0033F0A3F0228E2C8F2D1216D61217E17059
:1036AB00028025122F88AB07AA06D1F3E02F9000DA
:1036BB0035E03EC3EB952DFFEA952CFE900035F0DF
:1036CB00A3EFF0EE30E703E4B15A80C1D39400EEE0
:1036DB0064809480227CFF7DFF12046CC322E02F58
:1036EB00F0900035E03EF022900033E0FEA3E0FFC7
:1036FB007C007D1012047E90003622121796B40ABD
:10370B000B7E003004037F3A227F34227E007F320F
:10371B0022200E07122B8DFFC20D22D1F3E02FFFBB
:10372B00900035E03EFE30E703E4FEFFC390002738
:10373B00E09FFF900026E09EFEC3EF94E8EE6480CE
:10374B0094835009A3F179D1987E037FE8900027E9
:10375B00E02466FD900026E034FDF16C5002D20DA2
:10376B0022FCC3EF9DEC6480F8EE64809822E02489
:10377B0018FE900026E034FC900035F0A3CEF0222A
:10378B0090002BE0FF64086004EFB40902D322C35E
:10379B0022121796B40C08E4FFFE7D887C4122E4CC
:1037AB00FFFE7D807C4122121796FF6402600BEFB7
:1037BB0064036006E51B64036005E4F51E8012E5F7
:1037CB001E7005751E018009E51ED394744002D34B
:1037DB0022C322900010E07011EF4E70057480F040
:1037EB008003123FBA900004EDF022E51B14600E2B
:1037FB0014600F1460102403700F755F0322755F44
:10380B000222755F0122755F042212179664026013
:10381B0004D219801CE51BB40304D2198013E51DD7
:10382B007003751D52E51DD3940240028001D392A3
:10383B001930190280B5E4F55F22900010E0FFD338
:10384B009409403AEF24F8C31314FF301E07E546E2
:10385B0020E7020F0F201E13D390000FE094E79088
:10386B00000EE06480948340020F0FEF3395E0FE6F
:10387B00742E2FF58274003EF583E493FF227F00B4
:10388B002290004BE0B407004002410490389EF8B0
:10389B002828730238B30239F10238B60238CC0249
:1038AB0038F602390E02398B7F0022900010E0703F
:1038BB000E90004CF0A37464F090004B7404F00174
:1038CB00455121FF701390004DE0600214F0122758
:1038DB00D890004B7404F04104EF20E102410490B6
:1038EB00004CE07F03B407027F02225121600241AA
:1038FB000490004CE025E025E02403122FEA74032A
:10390B00F04104900010E0FE54F860037F0722EEB4
:10391B006002410490004CE06407600A122743EFF9
:10392B0064017002410490004CE0FF54FE6043EFD1
:10393B0024FD601614601914601C14601F1460229F
:10394B0024057021A2009227801BA20292278015CA
:10395B00A2039227800FA20492278009A226922706
:10396B0080031214809000107414F051477406F009
:10397B00410490004CE02402900053F051518074AC
:10398B00122F9C122B80504390004CE024FD6013AF
:10399B0014601614601914601C2404701CA2279266
:1039AB00008016A22792028010A2279203800AA2FF
:1039BB002792048004A22792269000397404F0C247
:1039CB001A1213C3122FE904F0802E900010E0702E
:1039DB000D7414F090004DE0600C14F080087F0122
:1039EB003027027F0322900010E060037F06221233
:1039FB0017E74005E490004BF090004DE0701490F9
:103A0B00004BE054FE600C9000107406F090004BDD
:103A1B007401F07F00225128900010E022122743FE
:103A2B00BF010C90004B7405F0900010740DF01258
:103A3B002B805005E490004DF0022F9C90004D74AC
:103A4B0032F090004B22E4900010F090005474F090
:103A5B00F022121796640A600B752ACD7529CC7566
:103A6B00286C8008E4F52AF529752860752740E550
:103A7B001B14601B14603E14605A24037066AF2A3B
:103A8B00AE29AD28AC27121F625059751B012212AB
:103A9B0017EE7C3EAB2AAA29A928A82712004512AB
:103AAB001F6260054003E4F51BE4FFFE7D40121F1F
:103ABB00605031802C7F9A7E997D59121F60600572
:103ACB004003751B017F9A7E997D39121F6050143C
:103ADB00751B03227FCD7ECC7D4C121F6060054091
:103AEB0003751B022275250A711CE4900004F01269
:103AFB000037AF50AE4FAD4EAC4D9000001206806C
:103B0B00515DD525EA301A081217967003751C12F1
:103B1B0022900005747FF0A374FEF0A37480F0A3D1
:103B2B007402F0E490000DF090000912068C000076
:103B3B00000022900053E0700690004BE060037F82
:103B4B000122900004E0700690004EE060037F01BC
:103B5B002212179654FE7F0060027F0122E5125459
:103B6B00FE60021512E5116005D51102C207900027
:103B7B0039E0600214F022300311300103C201223C
:103B8B00E563700712179690003AF022E563700A0E
:103B9B001217E7400D122DE44008C209E490003CD7
:103BAB00F02290003CE0FF541FFE7015EF20E61151
:103BBB00D209122DE47D8050027D20EF4D90003C08
:103BCB00F090003CE054E0F0C3EE64809486500724
:103BDB00E020E6030E8002E4FE90003CE04EF02273
:103BEB00E51B14600A14601514601D240370231266
:103BFB002D61FF900026E5F0F0A3EFF02290002658
:103C0B00741AF0A3740AF022900026740AF0A374BD
:103C1B006AF022E4FFEF90000893FE90003EE0FD77
:103C2B00EEB50502C3220FBF03EBD32290003EE09B
:103C3B00FF7003A3F02290003FE004F091AF240F3C
:103C4B00FFE43EFEE0915D7480984002E4F022A315
:103C5B00E0FDC39FEE6480F82290003FE0FFC39429
:103C6B0005500BEFC394035037EF04F55F22900020
:103C7B003EE0FF91AF2405FFE43EFE915A7480981D
:103C8B00501EED24FBFFEC34FFFE7D0312047E7C03
:103C9B00007D0212047EED4C7004755F01228000E2
:103CAB00E4F55F227E007C007D0612046CEF22900F
:103CBB000052E07007EDF0900051EFF022900051B0
:103CCB00E0B407005063903CD8F8282873023CED11
:103CDB00023CF8023D14023D1A023D29023CF80257
:103CEB003D2FE4900052F07D0B7F01803A7F02B1B3
:103CFB003750037F0122900051E0B401067D077F0E
:103D0B000280247D237F06801E7D237F0380187F06
:103D1B0006B13750037F01227D077F0480097D0B9D
:103D2B007F058003E4FDFF91BA7F0022AB07EB33E5
:103D3B0095E0FEEF25E0FDEE33FC900052E0FF3303
:103D4B0095E0FE12047EEB14D36480F8ED6480984A
:103D5B004002D322C322900052E0600214F022E50D
:103D6B001F6002151F900025E06008C394095003E3
:103D7B00E004F0900024E06008C3940B5003E004CF
:103D8B00F022122D61FF90001EE5F0F0A3EFF01270
:103D9B000414B40A2320040A90001E74D0F0A374F8
:103DAB0056F0C21F7F337E337DB37CBF121F51127F
:103DBB000045900020120680228D287E02122DE4F1
:103DCB005004D21980051217E79219201D0F7E0A95
:103DDB00301C03301907E4900024F08003122F6786
:103DEB00900024E0D39E4018EF6002800630190645
:103DFB00301D03021682E4900024F0AF2812174AFC
:103E0B0022201C0F201D0CE51B7008122D61F510D4
:103E1B0085F00F227433FFFEFD121F606006400415
:103E2B007F038009121F5A600740057F0202174A61
:103E3B00755F06229000427401F0E4A3F0A374189E
:103E4B00F022900044E0600214F022900042E06007
:103E5B001724FE602214603C24027042900044E060
:103E6B00D3940040217F0222900043743CF09000D9
:103E7B00427402F07F0122900043E014F0E0D394EF
:103E8B000040037F01229000447418F090004274AC
:103E9B0003F0800A900044E07004900042F07F0031
:103EAB0022900054E0600214F022900053E0FEAF29
:103EBB0013B40302AF14C3EF6480948350030F80D9
:103ECB0002E4FFEEB403038F14228F132290004AF7
:103EDB00E0600314F022900049E0FD2480F582E4B9
:103EEB00342EF583E493540F90004AF0E0FFE5473E
:103EFB00FEE5486FFFED65485407FDEFA805088008
:103F0B0003122F58D8FB547F900049F05428601BA4
:103F1B00900048E0FFAE47E548A807088003122F42
:103F2B0058D8FB5403900048F08006900048E004FA
:103F3B00F0900048E05403F022302626900048E031
:103F4B0024FE600A14601224027017A21122E547A6
:103F5B00454824FF301301B322E547454824FF822F
:103F6B001122A2132290004BE070047402F17B2209
:103F7B00F0900010740FF02290004EE0700304F1EB
:103F8B007B22EDF4F58275830085832985822A8552
:103F9B00832B85822CEDF4F5822275830085832D8E
:103FAB0085822E85832F22A3E0FBE5324BFD22EF8A
:103FBB0025E025E014900010F022752503752601ED
:103FCB0075270122900031E0FAA3E0FB22A804A997
:103FDB0005AA06AB07227D087F01020AB0E4FF1297
:053FEB000AB07B00227A
:00000001FF
