:0A0000000223C3E552C36001D322BE
:10000B00023E13AF55EF3395E0FEEF24FFFFEE34C6
:0E001B00FF123DA94005E55514FF227F00228B
:10002B0002002E75C900B20E300E04D20DB20B3287
:10003B0002318F0203FFE86480F8E933E833601183
:10004B000460F0ED33EC337009E8FCE9FDEAFEEBFC
:10005B00FF220460DED3EB9FEA9EE99DE8C2E78CAA
:10006B00F0C2F795F0400CE8CCF8E9CDF9EACEFAFE
:10007B00EBCFFB1203CA85D0F05804700320D5B325
:10008B00E80470075002B2D502040992D5EC046063
:10009B00F7E4CCC0E0C398F8603B94186008400DBF
:1000AB00D0E0FB0203E1E4FBFAC9FC8028E830E472
:1000BB0006E4C9FBE4CAFCE830E305E4C9CACBFC9F
:1000CB00E854076010F8C3E913F9EA13FAEB13FBD2
:1000DB00EC13FCD8F130F52FC3E49CFCEF9BFFEE47
:1000EB009AFEED99FDD0E0FBEF4E4D4C701222DBEA
:1000FB0003020406EC2CFCEF33FFEE33FEED33FD75
:10010B00ED30E7EB0203E1EF2BFFEE3AFEED39FDAD
:10011B00D0E0FB50130BBB0003020409ED13FDEE03
:10012B0013FEEF13FFEC13FC0203E1EC4D6011E83F
:10013B00497017ED33EC3304600DE4FCFFFEFD2238
:10014B00E933E8330470F80203FF1203CA58046062
:10015B0009E4CC24815006285009020409284003E5
:10016B00020406C0E0EB4A7044B98006D0E0FB0203
:10017B0003F5EF4E701CBD8008EBFFEAFEE9FD8036
:10018B00EBE98DF0A4FEE5F002021FE9CDF9EAFEE2
:10019B00EBFFEF89F0A4FCE5F0CE89F0A42EFFE491
:1001AB0035F0CD89F0A42DFEE435F08067EF4E706D
:1001BB0005BD80D780C3EF8BF0A4ACF0EE8BF0A421
:1001CB002CFCE435F0F8EF8AF0A42CE5F038FCE4D5
:1001DB0033CB8DF0A42CFCE5F03BF8EE8AF0A42C8D
:1001EB00FCE5F038F8E433CF89F0A42CFCE5F038CB
:1001FB00CF3400CE89F0A42FFFE5F03EFEE433C9E7
:10020B008DF0A42EFEE5F039CD8AF0A42FFFE5F09A
:10021B003EFEE43DFD33D0E0FB50070BBB000F026D
:10022B000409EC2CFCEF33FFEE33FEED33FD020340
:10023B00E1020409EC5D046005E859047003020354
:10024B00FF1203CA580460F6EC4860F2EC7004FD30
:10025B00FEFF22C860DB2481C85009C3986002509E
:10026B00060204069850CAF582E9294B4A7005AB81
:10027B00820203F575F0007C1A7880C3EF9BEE9A2F
:10028B00ED99400DC3EF9BFFEE9AFEED99FDE84211
:10029B00F0DC23ACF0D0E0FFD0E0FED0E0FDAB8291
:1002AB0020E7101BEB60BAEC2CFCEF33FFEE33FEB8
:1002BB00ED33FD0203E1E803F830E705C0F075F01C
:1002CB0000EF2FFFEE33FEED33FD40B830E7C28079
:1002DB00AA74F8CC6480CCC86480C8F58204604FE3
:1002EB00C3EB9FF5F0EA9E42F0E99D42F0E89C4596
:1002FB00F0603C501DE5825FFFE582D313CB5BCBF7
:10030B00F42B5582FB50280ABA002409B9002008A7
:10031B00801DE5825BFBE582D313CF5FCFF4C31364
:10032B002F5582FF50090EBE00050DBD00010CC3F9
:10033B00EB9FF5F0EA9E42F0E99D42F0E89C45F018
:10034B006007CC4820E701B3EC2275F020800E75D6
:10035B00F010800575F0087D007E007F003392D58C
:10036B0030D50312064AEC334010EF33FFEE33FE69
:10037B00ED33FDEC33FCD5F0ED22E5F0247EA2D578
:10038B0013CC92E7CDCEFF22EDD2E7CD33EC3392F7
:10039B00D524814006E4FFFEFDFC22FCE4CFCECD4C
:1003AB00CC24E0501174FF80EDC3CC13CCCD13CD16
:1003BB00CE13CECF13CF0470F030D5DE02064AE950
:1003CB00D2E7C933E833F892D5EDD2E7CD33EC332E
:1003DB00FC5002B2D522EC30E7100FBF000C0EBE62
:1003EB0000080DBD00040BEB6014A2D5EB13FCED64
:1003FB0092E7FD2274FFFCFDFEFF22E480F8A2D5FC
:10040B0074FF13FC7D80E480EFC2D530F707B2D5C3
:10041B0063F0FF05F030E70CB2D5F4048463F0FF12
:10042B0005F080018430D502F40422BB01068982D9
:10043B008A83E0225002E722BBFE02E32289828AF2
:10044B0083E49322BB010CE58229F582E5833AF51F
:10045B0083E0225006E92582F8E622BBFE06E92559
:10046B0082F8E222E58229F582E5833AF583E4936B
:10047B0022BB010689828A83F0225002F722BBFE3F
:10048B0001F322EF8DF0A4A8F0CF8CF0A428CE8D31
:10049B00F0A42EFE22C2D5EC30E709B2D5E4C39D01
:1004AB00FDE49CFCEE30E715B2D5E4C39FFFE49E60
:1004BB00FE1206EBC3E49DFDE49CFC80031206EBED
:1004CB0030D507C3E49FFFE49EFE22BB0110E582FB
:1004DB0029F582E5833AF583E0F5F0A3E022500994
:1004EB00E92582F886F008E622BBFE0AE92582F8A8
:1004FB00E2F5F008E222E5832AF583E993F5F0A310
:10050B00E99322BB010A89828A83F0E5F0A3F022EA
:10051B005006F709A7F01922BBFE06F3E5F009F325
:10052B001922E88FF0A4CC8BF0A42CFCE98EF0A45C
:10053B002CFC8AF0EDA42CFCEA8EF0A4CDA8F08B59
:10054B00F0A42DCC3825F0FDE98FF0A42CCD35F09F
:10055B00FCEB8EF0A4FEA9F0EB8FF0A4CFC5F02E30
:10056B00CD39FEE43CFCEAA42DCE35F0FDE43CFC99
:10057B002275F008758200EF2FFFEE33FECD33CDE1
:10058B00CC33CCC58233C5829BED9AEC99E582982E
:10059B00400CF582EE9BFEED9AFDEC99FC0FD5F02D
:1005AB00D6E4CEFBE4CDFAE4CCF9A88222B800C1A4
:1005BB00B90059BA002DEC8BF084CFCECDFCE5F011
:1005CB00CBF97818EF2FFFEE33FEED33FDEC33FC58
:1005DB00EB33FB10D703994004EB99FB0FD8E5E401
:1005EB00F9FA227818EF2FFFEE33FEED33FDEC33E3
:1005FB00FCC933C910D7059BE99A4007EC9BFCE972
:10060B009AF90FD8E0E4C9FAE4CCFB2275F010EFAD
:10061B002FFFEE33FEED33FDCC33CCC833C810D7F0
:10062B00079BEC9AE899400AED9BFDEC9AFCE89944
:10063B00F80FD5F0DAE4CDFBE4CCFAE4C8F922C329
:10064B00E49FFFE49EFEE49DFDE49CFC22EB9FF502
:10065B00F0EA9E42F0E99D42F0EC6480C864809819
:10066B0045F022EB9FF5F0EA9E42F0E99D42F0E85F
:10067B009C45F022E8600FECC313FCED13FDEE1369
:10068B00FEEF13FFD8F122E493FC740193FD740287
:10069B0093FE740393FF22ECF0A3EDF0A3EEF0A313
:1006AB00EFF022A8828583F0D083D0821206C51288
:1006BB0006C51206C51206C5E473E493A3C583C52C
:1006CB00F0C583C8C582C8F0A3C583C5F0C583C870
:1006DB00C582C822A42582F582E5F03583F58322F5
:1006EB00BC000BBE0029EF8DF084FFADF022E4CCF3
:1006FB00F875F008EF2FFFEE33FEEC33FCEE9DECBC
:10070B00984005FCEE9DFE0FD5F0E9E4CEFD22ED01
:10071B00F8F5F0EE8420D21CFEADF075F008EF2F4B
:10072B00FFED33FD4007985006D5F0F222C398FD3C
:10073B000FD5F0EA22123C425003020A4FC20112BB
:10074B003BCC8F2490003EE06009C3940D748094E1
:10075B0080400690003E7405F0C21B122EB0B40D03
:10076B0000400302091B900778F82828730207B88A
:10077B0002079F02084D02081F02085C02086B0269
:10078B00087D02088E02089F0208B80209040208BD
:10079B00EC0208F8E4F55F123D83400302091B12DB
:1007AB0036DD500302091B123DEF02091B90004A74
:1007BB00E0700CAF2412283CE55F600302091BAF0D
:1007CB0024122B1DEF600302091B122ECCEF6401C8
:1007DB004E700A90003EE0FF1235C68005AF241222
:1007EB003307123D8350057F03122A2E122ECCEFB6
:1007FB0064044E7010B2147F093014027F088F5AB4
:10080B00C202121E6012000EEF700302091B123B94
:10081B009A02091BD21B7D03120A50123D8340031F
:10082B0002091B7F041235C6122EB064037003023B
:10083B00091B30140312360090003FE04440F002D5
:10084B00091B122ECC120A91121766121A340209C6
:10085B001B7D04120A50AF241233077F05020918BF
:10086B007D04120A601233077F04123D687F060273
:10087B0009187D05120A601233077F07123C587F57
:10088B000580257D06120A84120A917F08123C58B6
:10089B007F0680147D07120A841237DAAF241233D5
:1008AB00077F04123C587F07123D68806312258E28
:1008BB00122ECC1237DA7F08123C58122ECCEF6472
:1008CB00024E600330090A7F053014027F02122AA0
:1008DB002E122ECCEF64034E70367F0B122A2E8015
:1008EB002F7D0B120A721239847F0C80207D0C1223
:1008FB000A721239847F0A80147D0A7F011232BD7D
:10090B00122ECC1237DAAF241239847F0B123C58DB
:10091B0090003DE07003301C0C900027E4F0A374B2
:10092B0021F0020A26122EB024F624FD502F2404A7
:10093B0060030209E7122EEEFFAEF0900037E0FCE9
:10094B00A3E0FDC39FEE6480F8EC648098900027D1
:10095B004003020A16ECF0A3EDF0020A26E556144A
:10096B00601914602214602B24037031122EEEFFD9
:10097B00900027E5F0F0A3EFF08022900027741A87
:10098B00F0A3740AF080169000277414F0A374D5AA
:10099B00F0800A9000277405F0A37435F01204362A
:1009AB00640B7008123E0A4003122EF4122EB06430
:1009BB000C7009122C05EF7003122EF4122EB0647A
:1009CB000A705812313EEF24FE60062402704C80F0
:1009DB0010900027E4F0A37485F0803F1238DF50AD
:1009EB0005122EF48035122EB064027021C3E54936
:1009FB009545E5446480F8E5486480985006AE4818
:100A0B00AF498004AE44AF45900027EE8009122E0B
:100A1B00EEFF900027E5F0F0A3EFF0E54A60203001
:100A2B001511900027E0FEA3E0FF7C007D0312046C
:100A3B00A080047EFF7FFF900027EEF0A3EFF0D2A3
:100A4B0001123BCC227F011232BDAF24EF3395E074
:100A5B00FE1237DA22E4FF1232BDAF24EF3395E0FA
:100A6B00FE1237DAAF24227F011232BDAF24EF33EF
:100A7B0095E0FE1237DAAF2422E4FF1232BDAF2429
:100A8B00EF3395E0FE221237DAAF241233072290B0
:100A9B000027E0F524A3E0F525D3900028E094008F
:100AAB00900027E064809480401E122DCA8E268F02
:100ABB0027D3E5259527E5266480F8E524648098FF
:100ACB004006852624852725900022E0B40C0040A3
:100ADB0003020DB2900AE6F8282873020B0D020BE5
:100AEB0058020B7E020B9A020BB9020C20020CFA75
:100AFB00020D29020D52020D76020D96020B0A020F
:100B0B003A5FC2B2C2A6C2A5C2A3C21690002DE024
:100B1B007002A3E07019FFFEFDFC900029E0F8A322
:100B2B00E0F9A3E0FAA3E0FB1202DC6011400F1224
:100B3B0029F29000291206AE00000000D210122AF2
:100B4B000E5003020DB89000227401F022D2A3D3F1
:100B5B00E52594E8E5246480948340067E037FE8D2
:100B6B008004AE24AF25120DB91229FA900022741D
:100B7B0002F022301003020DB87F147E00121FD634
:100B8B00D2A69000267410F09000227403F022D2AB
:100B9B00B21229B3600840069000227404F01229A7
:100BAB00C54003020DB87F01123BE4020DB2D2A582
:100BBB00E52545247003122A0790002DE0FAA3E0E7
:100BCB00FB4A70069000227405F0301003020DB83A
:100BDB00AE24AF257C007D1E1204A08E268F27D35A
:100BEB00E52794C8E5266480948040067526007539
:100BFB0027C8E5272401FFE43526FEC3EB9FFFEA58
:100C0B009EFE90002DF0A3EFF0D31229D0500312CB
:100C1B0029F2D21022301003020DB8E525452470BD
:100C2B0003122A07900023E0FEA3E0FFC3E5259FF4
:100C3B00FDE5249EFCD3ED94A0EC6480948F4002E0
:100C4B00D217E55F7078301775EF4E700C9000235C
:100C5B007403F0A374E8F0804C1229E924F56017B3
:100C6B0014602424027030900024E02488F090005B
:100C7B0023E03413F0802E900024E024DCF090006D
:100C8B0023E03405F0801E900024E024F4F0900063
:100C9B0023E03401F0800E900024E0240AF0900051
:100CAB0023E03400F0C3900024E09525E524648014
:100CBB00F8900023E0648098400EC21780039000E8
:100CCB0023E524F0A3E525F0D210900023E0FEA34A
:100CDB00E0FF120DB9900023E065247004A3E065DA
:100CEB00256003020DB8D2169000227406F022E59F
:100CFB002545247004122A0722E525B4FF0CE524B0
:100D0B00B4FF079000227409F022900023E06524C1
:100D1B007004A3E065257003020DB8020DABD2A5DC
:100D2B00C2B2C2A390002D7409F0A3745FF09000BF
:100D3B00291206AE00000000D2109000267418F0A5
:100D4B009000227408F0227F9A7E997D791229B83F
:100D5B00600740051229C550541229F2D210C2A5C2
:100D6B00C2A6900026F0900022F0221229FA122936
:100D7B00E9640A600D7F667E667D8A1229B860027F
:100D8B00502BC2A5900022740AF022E52545247051
:100D9B0003122A07122A0E4014D2A51229F2D210DE
:100DAB009000227405F022900022740BF022122A7C
:100DBB00A69000291206A2228F27120436FF146078
:100DCB001514602814603D14603A2404705C1221E1
:100DDB00F312223A80291221F3F5827401F52C8546
:100DEB00822DE582F4F582752E0080131221F3F427
:100DFB00F582752C0085822DEDF5827401F52E851B
:100E0B00822F8026ED12223A85822FEDF582740116
:100E1B00F528858229EF64047007EDFF7401FE80CD
:100E2B0005EDF4FF7E008E2A8F2B90000112044FEC
:100E3B007007EDFF7401FE8005EDF4FF7E008E3030
:100E4B008F3190000212044F7007EDFF7401FE808A
:100E5B0005EDF4FF7E00E527147003020EFF1470FE
:100E6B0003020F82147003021005240360030210A7
:100E7B008FE528AB9A30E006E5294BFD8004E52988
:100E8B005BFD8D9AE52A30E00890F00912225A801A
:100E9B000690F00912226190F009EDF0E52C30E09C
:100EAB000512224A800690F00A12226890F00AED91
:100EBB00F0E52E30E005122252800690F00B122244
:100ECB006F90F00BEDF0EE30E00512227E80089073
:100EDB00F00CE0FBEF5BFD90F00CEDF0E53030E05B
:100EEB0005122276800690F00D122285AF0590F048
:100EFB000DEDF022E528ABA130E006E5294BFD8096
:100F0B0004E5295BFD8DA1E52A30E00890F019126C
:100F1B00225A800690F01912226190F019EDF0E53B
:100F2B002C30E00512224A800690F01A12226890AB
:100F3B00F01AEDF0E52E30E005122252800690F00B
:100F4B001B12226F90F01BEDF0EE30E00512227EAB
:100F5B00800890F01CE0FBEF5BFD90F01CEDF0E5E2
:100F6B003030E005122276800690F01D122285AFFC
:100F7B000590F01DEDF022E528ABA230E006E52947
:100F8B004BFD8004E5295BFD8DA2E52A30E008903E
:100F9B00F02912225A800690F02912226190F02932
:100FAB00EDF0E52C30E00512224A800690F02A1273
:100FBB00226890F02AEDF0E52E30E00512225280E7
:100FCB000690F02B12226F90F02BEDF0EE30E00537
:100FDB0012227E800890F02CE0FBEF5BFD90F02C52
:100FEB00EDF0E53030E005122276800690F02D1200
:100FFB002285AF0590F02DEDF022E528ABA330E074
:10100B0006E5294BFD8004E5295BFD8DA3E52A3020
:10101B00E00890F03912225A800690F039122261C2
:10102B0090F039EDF0E52C30E00512224A80069065
:10103B00F03A12226890F03AEDF0E52E30E005120E
:10104B002252800690F03B12226F90F03BEDF0EEB7
:10105B0030E008A3E0FDEF4DFF800890F03CE0FD91
:10106B00EF5DFF90F03CEFF0E53030E009A3E0FDE1
:10107B00E5314DFF800990F03DE0FDE5315DFF90DE
:10108B00F03DEFF0228E298F2A8D2B90F692E030D7
:10109B00E708E4FFFEFD7C408008AF1AAE19AD18DF
:1010AB00AC1712300DAC29AD2AEC12035AC004C098
:1010BB0005C006C007E4FBFA79807845AF33AE3242
:1010CB00AD31AC3012023FD003D002D001D00012B0
:1010DB0001368F378E368D358C34E52B24FB700320
:1010EB0002117C24F8607224F7604424F760142406
:1010FB001E60030211D485371E85361D85351C8570
:10110B00341B22AC29AD2AEC12035AA804A905AA58
:10111B0006AB077F9A7E997D997C4512023F8F2FF4
:10112B008E2E8D2D8C2C8F1A8E198D188C17227557
:10113B002F35752E48752D03752C3E122FF18F16FA
:10114B008E158D148C13E4FBFA7940784012023F14
:10115B008F128E118D108C0F22752F7A752ED375E1
:10116B002D9B752C3D122FF18F0E8E0D8D0C8C0B34
:10117B0022AB37AA36A935A834AF1AAE19AD18ACC5
:10118B0017120041C004C005C006C007E4FFFE7D76
:10119B00A57C43AB37AA36A935A834120136D00348
:1011AB00D002D001D00012023F12300DE4FBFA79CD
:1011BB007A784412013612300D1203937B007A00B9
:1011CB00791F1219478E098F0A22900002E014B47E
:1011DB00090040030213099011F075F003A4C583B5
:1011EB0025F0C5837302120B0212250212A80212FC
:1011FB00AE0212BC0212C20212DA0212E10212F8A1
:10120B00900000E07002A3E060030213099000005D
:10121B00F0A3740EF0A37402F022900000E0FEA382
:10122B00E0FFD3940CEE648094804005755A0380E4
:10123B0023D3EF940AEE648094804005755A0280A4
:10124B0013D3EF9408EE648094804005755A0180A7
:10125B0003E4F55AD3EF9400EE64809480400302CC
:10126B001309AF16AE15AD14AC139000101206A2F5
:10127B00900010122BB1FF120393AB07AA067C0050
:10128B007D641204A0EF4E6005755A0980587C00EE
:10129B007D0AAF03AE021204A07D03802F7D047F75
:1012AB00018030900010122BB1FF122BE47D0580D2
:1012BB001B7D067F02801CE4FFFE7D207C4190009D
:1012CB0010122B9C120136122BE47D070238087D7D
:1012DB00087F030230E6122BD45023122BBC7F0C59
:1012EB0060027F008F579000027409F022E557606F
:1012FB0003023B2712000EEF7004900002F02290C5
:10130B00000BE0C39428748094805069E4FFFE7D49
:10131B007A7C44AB12AA11A910A80F120136120342
:10132B00938F278E268D258C2490000BE004F012D2
:10133B002BAE2527FFEE3526FEED3525FDEC3524AE
:10134B00FC9000071206A2122BC5C3122BF3500AF6
:10135B00900003E526F0A3E527F0900005122BC8BB
:10136B00D3122BF350030213FA900005E526F0A3DA
:10137B00E527F0807A122BAEFFC004C005C006C073
:10138B0007900005E0FEA3E0FBAA06EA3395E0F91F
:10139B00F8122BC5EF2BFBEE3AFAED39F9EC38F8D6
:1013AB00D007D006D005D004C3EF9BFFEE9AFEED1D
:1013BB0099FDEC98FC122BA8FFC006C007A3E024F4
:1013CB00FEFFE434FFAB07FA3395E0F9F8D007D012
:1013DB000612334D122BA8FFEC120355E4FBFA79DE
:1013EB007A784412023F90000C1206A2123A81AF97
:1013FB0058EF3395E0FEEF64784E70057558018019
:10140B0006E55860020558900000E07002A3E0600A
:10141B000E900001E024FFF0900000E034FFF0E5B7
:10142B0057600215572220080A1233F8A3F0A3F0D5
:10143B00C20A22123C2C400D1233F1120436640BFB
:10144B006003021552123CAC8E248F25D31233D37A
:10145B0050030214FCE50A9525F527E5099524F5BB
:10146B0026755C18D3E5279402E5266480948040AA
:10147B006C9000237C087DFC1233E9EF2401F525E9
:10148B00E43EF524D3E50A943CE50964809480405E
:10149B000FAE24AF257C007D0512048E8E248F2584
:1014AB00AC26AD27AE24AF2512048E90003CE02F66
:1014BB00F090003BE03EF01233F11234082450FF61
:1014CB00E5F034FBFED390003CE09FEE6480F81215
:1014DB00340E984005EEF0A3EFF0755C3C1234002F
:1014EB0094FD5063A3E004F07006900039E004F023
:1014FB0022C31233D35050C3E525950AF527E524B3
:10150B009509F526E55C6004155C8021E527547E82
:10151B00600FC390003CE09527F090003BE09526D0
:10152B00F0C312340E94805004E4F0A3F0D3900077
:10153B003AE094001234019403400CA3E024FFF032
:10154B00900039E034FFF02220100302165D3012B8
:10155B002E90F129E05411600302165D90F164E0C6
:10156B00300F0554EFF080034410F090F164E0303D
:10157B00110554FEF080034401F0C210C21222E4A4
:10158B00FFFE7DC87C42123B841202DC600C400AD9
:10159B009000291206AE42C80000123B7F1202DCFB
:1015AB00500A9000291206AE00000000D390002EC6
:1015BB00E0945F123B93948940077409F0A3745F26
:1015CB00F0C3123B9394805004E4F0A3F0123B7FE2
:1015DB001202DC60054003D38001C39211D390004B
:1015EB002EE09400123B9394804003D38001C3926E
:1015FB000FE4FFFE7DFA7C45123B84120136E4FBBF
:10160B00FA798078BF1200458F278E268D258C2482
:10161B00E4FBFA79C8784212023F8F278E268D257C
:10162B008C24120393AD07AC0690002DE0FAA3E0D7
:10163B00FBEAFFEF90F149F0EB90F148F0ECFFEF94
:10164B0090F141F0ED90F140F0D21290F129E0448D
:10165B0011F022C202C203AF5AC3EF9407748094F5
:10166B008050141234575008D21BD203D202800779
:10167B00122CEA5002D202300203021756E55AB47A
:10168B000A004003021758901699F828287302167F
:10169B00B70216C90216BD0216C40216CE0216CE2A
:1016AB00021758021708021708021708E4F5590227
:1016BB001758D202D203021758D203021758D2027C
:1016CB00021758E559547FFFAE5AEE64047E007042
:1016DB00027E03C3EE6480F8EF64809850090F53C9
:1016EB005980EF4259800B123DB47F8060027F001E
:1016FB008F59123DB4C36001D39202805053597F6E
:10170B00AF5AEF64096007AF5AEF640870047F06A5
:10171B0080027F0AD3EF6480F8E559648098400516
:10172B00E4F55A8028E55975F002120414AFF0EF76
:10173B00C36001D39201AF5AEF64087006A2019205
:10174B00038004A201920205598002C202123639AB
:10175B00A2029204A2039205023AC53018030217A3
:10176B00F83019030217F8E4900035F0E5566003E2
:10177B00021856123512FFAEF0C312353A5068906C
:10178B000036E0FD700404F08013ED3395E0FCC3EC
:10179B00ED9409EC64809480500302185690003647
:1017AB007401F09000051204D6FDACF0D3E5479D13
:1017BB00EC6480F8E54664809840068C468D478043
:1017CB000B74322547F547E43546F546D312353AC7
:1017DB004009123512F54985F0482274FA2549F56E
:1017EB0049E43548F54822E4900036F022E49000B5
:1017FB0036F0123DF830190F12351E9404EE64804A
:10180B0094804003023BB312351E940AEE6480941D
:10181B00804038D3E549944DE54864809481400C71
:10182B0074062549F54974FF3548F548D3E54794C7
:10183B00BEE5466480948A400C74E72547F54774EF
:10184B00FF3546F5469000357401F022E508640338
:10185B007002F508E50814603E1470030218F714C3
:10186B00700302193724036003021934D202123CAD
:10187B006EE4F528122FD0501BEF3395E0FE74F772
:10188B002FF582743F3EF583E493FD122FE6EDF0C6
:10189B00052880E002192FE4F528122FD0501D12D5
:1018AB002FE1E0FF123016400F123020400EEF9464
:1018BB001FEE648094805004052880DE122FD050D8
:1018CB0026122FE1E0F527FF3395E0FEEF64164E6D
:1018DB006006EF640D4E7005C202123C6EAF27120C
:1018EB0031DC75080280457508038040752C007546
:1018FB002D00752E277B007A00792512213EEF4EA5
:10190B00602AAD27AF26AE25121090E4F528122FD2
:10191B00D05011122FE1E0B52706122FE674FEF01E
:10192B00052880EA7508018003E4F508900021E0A2
:10193B006009E50864036003021857228B388A3963
:10194B00893A8F3E8E3D8D3C8C3B7FDA7E3A7D1300
:10195B007C00D31238AA40081238987EFF7FEC2205
:10196B00E47F757E1EC312388B5007123898FE7FAA
:10197B0064227401123899E47FF57EF5D312388B0B
:10198B00403DE4F53F1238A2C3EF9437EE648094E8
:10199B0080502CEF7802C333CE33CED8F92422F506
:1019AB0082743E3EF583120692C31238AA400C1283
:1019BB0038A2EF24ECFFEE34FFFE22053F80C6E495
:1019CB00F53F1238A2C3EF943DEE648094805053E0
:1019DB00EF25E0FFEE33FE74FE2FF582743E3EF5ED
:1019EB0083E493FE740193FFE48F438E42F541F53C
:1019FB0040E543F543E542F542E4F541F540AF3EA2
:101A0B00AE3DAD3CAC3BAB43AA42A941A840D3127F
:101A1B00066E500B1238A2EF2423FFE43EFE220584
:101A2B003F809F123898FEFF22123DE640051200C0
:101A3B00035003D38001C39201900001122ED4AE48
:101A4B00F0C3E5499FEE6480F8E548648098500A3E
:101A5B00AC48AD49AE04AF0580008E258F26122E03
:101A6B00EEFFC3E5269FE5F06480F8E525648098DA
:101A7B00500E30010B122EDF40068525448526457E
:101A8B001200035029201326122EB94002802CC3BA
:101A9B00122EDF500A0545E545701105448052D2E0
:101AAB0015754A04852544852645D2138043123D7E
:101ABB00E65036201333122EB94005E014F0803770
:101ACB00900003122ED4AEF0D3E5459FEE122EE517
:101ADB00400AE5451545700F1544800BC215754A34
:101AEB00048E448F45D213800820010B301308C29B
:101AFB00139000407403F0300104E4F54B22AF4B1C
:101B0B00EF3395E0FEEF64204E7007054BC20212D7
:101B1B001E6022123C2C4006E4900033F022900011
:101B2B0033E0FF3395E0FEC3EF9404EE64809480C2
:101B3B005004E004F022900032E0540FF5247FCDE6
:101B4B007ECC7D8C7C40AB12AA11A910A80F12027F
:101B5B00DC600740057F03123BE47F9A7E997D6929
:101B6B00123C14501D7F9A7E997D997C40123C212A
:101B7B006010400E7D02AF24123BFC8F24E4F52550
:101B8B008041E4FFFEFD7C3F123C21501AE4FFFE36
:101B9B007DB4123C146010400E7D01AF24123BFC4F
:101BAB008F24752501801CAF24EF3395E0FED3EF16
:101BBB009400EE648094804006E52414FF80027F3D
:101BCB00008F24E525C454F04524900032F0AF2457
:101BDB00EF3395E0FEC3EF9408EE648094804017DA
:101BEB00E0FF7804A2E713D8FB540F1470047F04B2
:101BFB0080027F02123BE422122BBC640270088528
:101C0B004624854725800B9000051204D6F52585C3
:101C1B00F0247D7A7C44122B961201361203938E9C
:101C2B00268F27D3E52794F6E52664809489400216
:101C3B008001D39219301904C218804F122BFE7CED
:101C4B003EAB1EAA1DA91CA81B1202DC5027C3E524
:101C5B002794A6E5266480948E501AE4FFFE7D80BF
:101C6B007C41AB0EAA0DA90CA80B1202DC6006403E
:101C7B0004D2188016D3E5279525E5246480F8E572
:101C8B002664809840028001D3921812245DAF5ACB
:101C9B00D3EF940674809480502F900031E0600352
:101CAB00022D5B900002E060030211D590004AE028
:101CBB00640170061236A78F5A22122BBC7004E5F2
:101CCB00576003023B27E4F55A227524037525015F
:101CDB00752601C2037D02E4FF121F1EC2037D02A3
:101CEB007F02121F1E7B007A0079247D04E4FF1211
:101CFB000DC37B007A0079247D047F02120DC37B18
:101D0B00127D027F02122C787B167D02E4FF122CCF
:101D1B007890F120E4F0A3741DF090F1237401F09E
:101D2B0090F125F090F12A74FFF090F12EF090F1E4
:101D3B0022E4F090F127741DF0A3F090F160E4F031
:101D4B0090F165F090F164741DF090F131741FF017
:101D5B0090F130743FF090F1397409F090F13874D0
:101D6B005FF090F141E4F090F140F090F149F09088
:101D7B00F148F09000291206AE00000000E490003C
:101D8B002DF0A3F0C212C21090F166F090F1267400
:101D9B001DF0023D3DE4F54A1226ACE4FFEFFD33A6
:101DAB0095E0FCC3ED940DEC648094804003021E1F
:101DBB0042903F78122E9DFD7C0064097020EFFB52
:101DCB003395E0FA903F7975F009EB1206DFEA12D2
:101DDB002EA5FB740193900037CBF0A3EBF0ED64D1
:101DEB00024C704FEFFD3395E0FC903F7D122E9D22
:101DFB00F546740193F547903F79122E9DF5487483
:101E0B000193F549903F7B122E9DFC740193FDD3FA
:101E1B009545E5446480F8EC64809840048C448DCF
:101E2B0045D3E5459549E548122EE54006854844DE
:101E3B008549450F021DA89000407403F0123DC860
:101E4B0090003E7405F0E4900031F0754DFF754E37
:101E5B003F754F7822D203123D1BE55F64017F0073
:101E6B0070027F018F2E854C2F85442B85452C7F4F
:101E7B00003014027F018F2D7B007A00792B7D05BA
:101E8B0012377A8F30200209900046E0B53002807D
:101E9B007C200211C3900045E094A9900044E064BB
:101EAB0080948040247B007A00792A7D007C027F1D
:101EBB001D1237AB7B007A00792AE4FDFC7F1D12E3
:101ECB0037ABE4900044F0A3F0E4F52AE52A123A8C
:101EDB001B5026900044E0FEA3E0FF7C007D061221
:101EEB00048EEF2BFDEE3AFC742B252AF9E4FAFB5A
:101EFB007F191237AB052A80D3900045E004F070B0
:101F0B0006900044E004F0900046E530F0C2031266
:101F1B003D1B22EF14603814605F147003021FAE78
:101F2B0024036003021FD512221D4003021FD5306C
:101F3B00030EA8057401088002C333D8FC4280222B
:101F4B00A8057401088002C333D8FCF45280221216
:101F5B0022085076122214407130030EA80574012A
:101F6B00088002C333D8FC429022A8057401088074
:101F7B0002C333D8FCF45290221221E7504C1222A8
:101F8B0026404730030EA8057401088002C333D8DE
:101F9B00FC42A022A8057401088002C333D8FCF4CC
:101FAB0052A022ED1221EB502130030EA805740133
:101FBB00088002C333D8FC42B022AF05A8077401D6
:101FCB00088002C333D8FCF452B0228E2A8F2BE444
:101FDB00F530F531E52B452A700302208B0531E5F1
:101FEB003170020530AE2AAF2BEE3395E0FDFCE4E9
:101FFB007BA07A0FF9F812052D8F2F8E2E8D2D8C3D
:10200B002CC006C007AE30AF31AB07AA06EA33953A
:10201B00E0F9F8D007D0061205B88F2F8E2E8D2D34
:10202B008C2CE47FFF7EFFFDFCAB2FAA2EA92DA8E5
:10203B002CC312066E50A6C374FF952FF52F74FF99
:10204B00952EF52EE4952DF52DE4952CF52CAF2F33
:10205B00AE2EAD2DAC2C780812067F8F8CE52FFFA2
:10206B008F8AC20C438810E58820E503300CF853A7
:10207B0088CFE531153170021530E531453070CE22
:10208B0022E4F524F525F526FB7D081221347B008F
:10209B007D011221347D201221287524027D02122C
:1020AB0021287B017D01E4FF122C787B017D05E467
:1020BB00FF122C787B017D017F03122C787B01E4CE
:1020CB00FD7F03122C78752403752601E4FB7D0339
:1020DB00FF122C787B007A0079247D08E4FF120D27
:1020EB00C3D2037D03E4FF121F1E75DF4075DE6054
:1020FB00E4F5E9F5D1F5D375D50F75D4FF90F692CC
:10210B0074A0F0E4F5089000191206AE0000000070
:10211B00123004F0A3F0A304F043DE80227B007A9C
:10212B00007924E4FF120DC3227A0079247F031275
:10213B000DC3228B298A2A892BE5DF30E1028050DF
:10214B0090001EE004F0700690001DE004F090007B
:10215B0019E0F8A3E0F9A3E0FAA3E0FBAFDDEFFE93
:10216B00ADDCEDFFEE3395E0FDFCEB2FFFEA3EFE21
:10217B00E93DFDE83CFC9000191206A2C390001E3D
:10218B00E0940A90001DE064809480500743DF02C6
:10219B00E4FEFF22900019E0FCA3E0FDA3E0FEA308
:1021AB00E0FFE47B0AFAF9F812334D90001912069E
:1021BB00A2900019A3A3E0FFA3E0AB29AA2AA92BA5
:1021CB00CF8FF012050E90001FE0AB2CAA2DA92E7D
:1021DB0012047CE4900020F0FE7F0122EDFF7E00D4
:1021EB00D394067480948022EDF4F5827583008578
:1021FB00832885822985832A85822BED22EDFF7E1C
:10220B0000D394077480948022C3EF94037480945A
:10221B008022EDD394057480948022C3EF940174D3
:10222B0080948022FBE434F0FAA80574010822F4B0
:10223B00F58275830085832C85822D85832E22A3C1
:10224B00E0FBE52D4BFD22A3E0FBE52F4BFD22E050
:10225B00FBE52B4BFD22E0FBE52B5BFD22E0FBE5D9
:10226B002D5BFD22E0FBE52F5BFD22A3E0FBE531BF
:10227B004BFD22A3E0FBEF4BFD22E0FBE5315BFDC9
:10228B00227D01E4FF123835404390004DE025E0FC
:10229B00F0308003E004F090004DE0F524AF24EF24
:1022AB00F46003EF7027123C98E4F5B4AF24FEEF13
:1022BB00F4D37001C3921AEFF44E7B0170027B02D0
:1022CB00E4FDFF1230317D01E4FF123B46301A086A
:1022DB00E55130E703755180E55F7F8270027F85A2
:1022EB008F24301A21E550B5241CAF53EF3395E002
:1022FB00123DA94005123D4C8009E4F5537555017B
:10230B00755201E4F550201A13E5516484700DF5F4
:10231B0051E552700475540122E4F552228B2A8A3E
:10232B002B892CE4F52EF52FD203123D1BE4F52D52
:10233B00123A19500512239980F6AB2AAA2BA92C15
:10234B007D0512377AAB2AAA2BA92C900005120413
:10235B004FB50713052FE52F7002052EC394A9E582
:10236B002E6480948040C6D3E52F9400E52E6480C4
:10237B0094804008E52F152F7002152EE4F52D12D1
:10238B003A19500512239980F6AE2EAF2F22AE2E9E
:10239B00AF2F7C007D0612048EEF2BFDEE3AFCABCB
:1023AB002AAF2DEF3395E0FEE52C2FF9E52B3EFA06
:1023BB007F111237AB052D2278FFE4F6D8FD900084
:1023CB00007F007E04E4F0A3DFFCDEFA758160027F
:1023DB0024180228BBE493A3F8E493A34003F680EC
:1023EB0001F208DFF48029E493A3F85407240CC806
:1023FB00C333C4540F4420C8834004F456800146B1
:10240B00F6DFE4800B010204081020408090395B5A
:10241B00E47E019360BCA3FF543F30E509541FFEDB
:10242B00E493A360010ECF54C025E060A840B8E44C
:10243B0093A3FAE493A3F8E493A3C8C582C8CAC5CF
:10244B0083CAF0A3C8C582C8CAC583CADFE9DEE761
:10245B0080BE122BBC6409600B752BCD752ACC7515
:10246B00296C8008E4F52BF52A752960752840E561
:10247B005614601E1460421460642403706DAF2BFD
:10248B00AE2AAD29AC28122B991202DC505D755681
:10249B000122122BFE7C3EAB2BAA2AA929A82812BB
:1024AB000045122B991202DC60054003E4F556122D
:1024BB002B921202DC5034802F122BFE7C40122BFD
:1024CB00991202DC600540037556017433FFFEFD63
:1024DB007C40122B991202DC501175560322122BE1
:1024EB00921202DC6005400375560222EF14602243
:1024FB0014603C1460562403707412221D40028039
:10250B006DED248012222F8002C333D8FC55ACFC16
:10251B008060122208500512221450028050ED24C4
:10252B008812222F8002C333D8FC55ADFC80431296
:10253B0021E7500512222650028033ED24901222FF
:10254B002F8002C333D8FC55AEFC8026ED1221EB55
:10255B004002801AED2498FBE434F0FAAF05A8078B
:10256B007401088002C333D8FC55AFFC8004E4FE31
:10257B00FF22EC7003FEFF228B828A83E05403FF61
:10258B007E0022301922123DF8900035E0FF339582
:10259B00E0FEC3EF9402EE648094804077E4F07F1A
:1025AB00083014027F02806930186930162A123500
:1025BB0012FFC3900024E09FE5F06480F8900023A5
:1025CB00E06480985012900037E0FFA3E090002366
:1025DB00CFF0A3EFF0D21622900034E070369000CB
:1025EB0038E024E7F0900037E034FFF090003474CB
:1025FB0004F0D3900038E094DA900037E0648094D4
:10260B00A150117421F0A374DAF07F083014027F0B
:10261B0002122A2E22E4F5DE90F692F090002104AD
:10262B00F0E4F508FFEFFD3395E0FCC3ED9405EC0A
:10263B00648094805015EF3395E0FC74142DF58273
:10264B0074003CF58374FEF00F80DA9000191206CB
:10265B00AE00000000123004F0A3F0FB7D017F03FD
:10266B00122C78E4FBFD7F03122C78752403E4F520
:10267B0025F526FB7D0812302A120DC37B007D0148
:10268B0012302A120DC3C203E4FD7F03121F1EC2B8
:10269B00037D017F03121F1EC2037D03E4FF021F94
:1026AB001E123E1992017B007A0079241223289086
:1026BB000044EEF0A3EFF02001417B007A00792477
:1026CB007D0512377AEF65297031E5277F006002AF
:1026DB007F018F5F85284C852444852545E526C3DE
:1026EB006001D39214900046E529F0900045E00478
:1026FB00F07033900044E004F0802BE4F55F754CF0
:10270B0001123600C214D202121E60300115123EA5
:10271B00195010C21B7F021238B57F287E00121F82
:10272B00D680EB123D5AC203023D1BE51F70057F9D
:10273B0005023BE4A209920275244675253712392E
:10274B00099209A20692027524417525371239099F
:10275B009206A207920275245075252B1239099205
:10276B00073007077F06123BE4800B900031E064D3
:10277B00067003123DEF1233F190000812044F70F4
:10278B0003C20822123CAC8F24A208920275252D9D
:10279B001239099201300103D20822200113900053
:1027AB003BE07002A3E0700912340094805002C227
:1027BB000822752464C201D2A6D2A3D202123671AA
:1027CB007F287E00121FD6123E1FE4FFFEFD7C41C8
:1027DB00AB16AA15A914A8131202DC60064004D28A
:1027EB00B28008C202123671023A5F123E1F7D841C
:1027FB001229B560064004D201801A1229B3601564
:10280B004013C2B27F057E00121FD6C2A3C20212B2
:10281B003671C2A6227F057E00121FD61524AF2467
:10282B00EF1229CA50C57F013001027F07123BE42A
:10283B00228F25C21CE55F146020146039146036AA
:10284B002403706B1239BE64054E7003123C831265
:10285B0039BE64064E7058023D2C1239BE64054ECB
:10286B007003023C831200035003D21C22123D76EC
:10287B00503D755A07221239BE64064E7003123D45
:10288B002C1239BE64024E7014E55F640270087539
:10289B005F03755A088006755F02755A09120003AB
:1028AB00500DE55F64037F0270027F031233072232
:1028BB00C200123D90123CE5D2031238611232284D
:1028CB0012208C121CD5122937121DA01233911213
:1028DB0027BD1234D5E4900021F0123E1F12228C3A
:1028EB00121C03120740122736120A9A1215533084
:1028FB000DE8C20D20001C12374712143112393269
:10290B00123E0112165E12308C122F05123498D221
:10291B000080C7121B1E12130A123CF712354F12FE
:10292B003415122E341239D0C20080AE752403E454
:10293B00F525752601F55A90F12404F090F12C74CD
:10294B00FFF0A3F090F1357409F090F134745FF05F
:10295B0090F1377409F090F136745FF090F126E046
:10296B00440CF012363990F129E0540C70F8C20384
:10297B007D037F01121F1EC2037D047F01121F1EE8
:10298B007D101229A77D081229A77B147D047F01D6
:10299B00122C787B157D037F01022C787B007A004B
:1029AB0079247F01120DC3227D60E4FFFE7C41ABD5
:1029BB000EAA0DA90CA80B0202DC900026E0FF3337
:1029CB0095E0FED3EF9400EE6480948022E4FBFA52
:1029DB0078421201368F2B8E2A8D298C2822AB4DF3
:1029EB00AA4EA94F020436E490002DF0A3F02290DA
:1029FB00002D7408F0A3742AF0D2102290002274D8
:102A0B0007F022D3E5259400E5246480948022907E
:102A1B000025E0FF3395E0FE22C3EF9404EE6480C3
:102A2B009480228F28122EB0F52C122EEEF52B85CA
:102A3B00F02AE4F529AF29122EFD940DEE64809453
:102A4B00805057903F7875F009EF1206DFEE122E8B
:102A5B00A565287041123DC8123D09123DDCAF2916
:102A6B00EF3395E0FE7C007D0912048E74782FF90C
:102A7B00743F3E754DFFF54E894FE5286409700391
:102A8B00123712E52C6409700DE52864096007AF55
:102A9B002BAE2A1232730529809B22AD07AC06ECB4
:102AAB0012035A1229E07BA67A9B79C4783A122931
:102ABB00DD79C81229D8C004C005C006C007E4FFE1
:102ACB00FE7D7A7C44AB1AAA19A918A817120136F5
:102ADB00A804A905AA06AB07D007D006D005D004D9
:102AEB0012023F1229E079CC1229D8E4FFFE7DC8EF
:102AFB007C42AB2BAA2AA929A8281202DC600A4027
:102B0B0008E4FFFE7DC87C4222AF2BAE2AAD29AC78
:102B1B00282290004AE014602314605B2402706446
:102B2B00EFFD3395E0FCED64074C60037F0022E47E
:102B3B00900049F07560F0A304F08048EF6015C376
:102B4B00E54C9403748094805006E54C04FF80029E
:102B5B007F008F4CE560700790004AF0755A0712A2
:102B6B000003502090003D7404F090004A7402F072
:102B7B00C202121E60800D1200034008123D83E456
:102B8B0090004AF07F01227D407C40E4FFFE9000E4
:102B9B000CE0F8A3E0F9A3E0FAA3E0FB2290000716
:102BAB001206A2900007E0FCA3E0FDA3E0FEA3E069
:102BBB0022AB4DAA4EA94F020436900003E0FEA3B0
:102BCB00E0FFEE3395E0FDFC22D3900001E0940092
:102BDB00900000E064809480221203937C007D0AB5
:102BEB001204A0AE04AF0522AB27AA26A925A82460
:102BFB000206587FCD7ECC7D4C22900048E0B40776
:102C0B00005067902C15F8282873022C2A022C35BB
:102C1B00022C53022C59022C69022C35022C6FE426
:102C2B00900047F07D0B7F01803D7F021239F550FC
:102C3B00037F0122900048E0640170067D077F024C
:102C4B0080257D237F06801F7D237F0380197F06D0
:102C5B001239F550037F01227D077F0480097D0B1C
:102C6B007F058003E4FDFF123D9D7F0022EBF58283
:102C7B006402606AE58264036064E5826419605EE5
:102C8B00D3E582941C748094805053EF1460141419
:102C9B00602014602F2403704512221D5040ED2438
:102CAB0000802A12220850361222144031ED2410D3
:102CBB00800D1221E750271222264022ED2420F509
:102CCB0028EE800CED1221EB5014ED2430F528E4A6
:102CDB0034F0F527EB541F852882852783F022904B
:102CEB000002E06002802F300A05752401802A1251
:102CFB0033F11204366409701D123408FFC39000BF
:102D0B0038E09FE5F06480F8900037E064809850DD
:102D1B00057524028003E4F524E52414601D14607A
:102D2B000924027029E4F55B8024AF5BEF3395E057
:102D3B00FEEF640A4E7004055BD322055BAF5BEFBD
:102D4B003395E0FEEF640D4E7004F55BD322C32286
:102D5B0090002FE0FEA3E0FFC39405EE6480948007
:102D6B005010C3EF9403EE64809480504EEF04F543
:102D7B005A22900031E0FF7E007C007D0612048E0B
:102D8B00EF2405FFE43EFE90002FE0FCA3E0FDC323
:102D9B009FEE6480F8EC6480985020ED24FBFFECF0
:102DAB0034FFFE7C007D031204A07C007D02120424
:102DBB00A0ED4C7004755A01228000E4F55A2220D4
:102DCB00080A900027E0FEA3E0FF804A1233E2904E
:102DDB00003CE02FFF90003BE03EFEC364809480FC
:102DEB005003E4FEFFC3900028E09FFF900027E014
:102DFB009EFEC3EF94B0EE648094845019A3E0243C
:102E0B0050FE900027E034FB90003BF0A3CEF01275
:102E1B0033F87E047FB0900027E0B50608A3E0B539
:102E2B000703C38001D3920A22123AA3EF60031265
:102E3B003C98D3E55E9400E55D648094804009E5A1
:102E4B005E155E704C155D22123DBE4003E4F55FCE
:102E5B0090F500E4F0C202123AE64387044387027E
:102E6B00123CE5D203123861123B077F017E001240
:102E7B001FD612228C300D0AC20DB2013001031283
:102E8B003498123D7650E4D202123AE6E4900021D7
:102E9B00F02275F009ED1206DFEC75F009A425831D
:102EAB00F583E49322AB4DAA4EA94F020436900052
:102EBB0040E0FF3395E0FED3EF9400EE6480948006
:102ECB0022AF24EF3395E0FE22AB4DAA4EA94F1251
:102EDB0004D6FF22E5459526E5256480F8E5446494
:102EEB008098229000010204D674FF900027F0A373
:102EFB00F022EF3395E0FEC3EF22E55F700F301445
:102F0B0002800A120003400B123DE64006E49000DB
:102F1B003FF02290003FE0FF541FF524FD3395E076
:102F2B004D7016EF20E612C007123DE67E80500270
:102F3B007E20D0E04E90003FF090003FE054E0F058
:102F4B00AF24122EFD9406EE648094805008E0208E
:102F5B00E60405248003E4F52490003FE04524F0CB
:102F6B0022E4FDFF1224F7EF64014E7038C21AE51C
:102F7B0050547FFFE4F550E5527004E5556007E4CB
:102F8B00F555F5528031EFC39405502BAF53EF330A
:102F9B0095E0FEC3EF940AEE6480948050020553D3
:102FAB007551808012D21AE55130E703755180E5D7
:102FBB005020E7037550807D01E4FF123A3D9000ED
:102FCB004D74AAF022AF28EF3395E0FEC3EF9405C2
:102FDB00EE6480948022EF3395E0FE74142FF5821B
:102FEB0074003EF58322AB2FAA2EA92DA82CAF3748
:102FFB00AE36AD35AC3402023FE490001DF0A3F0C9
:10300B00A3228F338E328D318C30223395E0FEC369
:10301B006480948022D3EF9416EE64809480227A9D
:10302B000079247F0322EBD31222165053EF146046
:10303B001414602014602F2403704512221D50407D
:10304B00ED2480802A12220850361222144031EDD2
:10305B002488800D1221E750271222264022ED24CE
:10306B0090F528EE800CED1221EB5014ED2498F521
:10307B0028E434F0F527EB5403852882852783F069
:10308B00221229E964017009D3308401C392848030
:10309B0041123C2C5023900022E0640A7017122A34
:1030AB001AEF64034EC37001D39284122A24501D6D
:1030BB00900025800CD2848019122A1A122A2450CF
:1030CB0005E004F0800CD3308401C39284E49000BB
:1030DB0025F01229C54003E014F0228F288D29908A
:1030EB000000E0B4FF0FA3E0B4FF0A1238B5E49080
:1030FB000000F0A3F0900000E0FAA3E0FB7C007D61
:10310B0004FFAE021204A0D3ED9401EC6480948012
:10311B007F004002AF288F5AD3EB9400EA6480946F
:10312B0080500FE4F55A900000F0A3740AF0A3E569
:10313B0029F022900041E0601324FE601E146037DA
:10314B002402703D123CD240207F02229000437437
:10315B0037F09000417402F07F0122900043E0149D
:10316B00F0123CD540037F01229000427410F09086
:10317B0000417403F0800A900042E070049000411B
:10318B00F07F0022C0E0C0F0C083C082C085C08445
:10319B00C086758600C0D075D000C000C001C002CB
:1031AB00C003C004C005C006C007122F6C75B40065
:1031BB00D007D006D005D004D003D002D001D00068
:1031CB00D0D0D086D084D085D082D083D0F0D0E040
:1031DB0032AB077AFF900020E07041EB12301640C3
:1031EB003B123020400AEF941FEE64809480402CF9
:1031FB009000191206AE00000000123004EBF0A391
:10320B007401F0EB30E40543DF80800353DF7F5321
:10321B00DEF0EB540F42DEDAFE43DF0222752403AD
:10322B00752501752601C2A6C2B2C2A3C2847D0850
:10323B001232617D407F02120DC37B007A0079242C
:10324B007D047F03120DC37D201232617D10E4FFDC
:10325B00120DC3023A5F7B007A0079247F02120DB4
:10326B00C37B007A007924228E2D8F2E1233F1909E
:10327B00000812044F603A123408FBAAF01233E232
:10328B0090003CE02F90003BE03EC364809480C3F1
:10329B00EB952EFFEA952DFE90003BF0A3EFF0C3CC
:1032AB00EE648094805007E490003BF0A3F012335F
:1032BB00F8228F258D26123DE65004D2018005128F
:1032CB000003920120191075270A30180330010AE8
:1032DB00E4900035F08006752702123DF8E5257065
:1032EB000330010B30191412352A400F023BB31275
:1032FB00352A4007E4F0AF26122A2E228F261239E8
:10330B00C064024E701C7F667E667D461239AB60D0
:10331B000940077F09122A2E800890003EE0FF1219
:10332B0035C6AF261239C064034E70157FCD7ECCE7
:10333B007D2C1239AB600740057F0B022A2E755A84
:10334B000722C2D5E830E70FB2D5E4C39BFBE49A62
:10335B00FAE499F9E498F8EC30E717B2D512338315
:10336B001205B8E4C39BFBE49AFAE499F9E498F8E4
:10337B0080031205B830D50DE4C39FFFE49EFEE435
:10338B009DFDE49CFC22752401E4F525F526FBFD4F
:10339B00FF122C787B007A0079247D01E4FF120D5B
:1033AB00C37D01E4FF123B467B02E4FDFF1230318B
:1033BB0043B904123C9890004D74FFF0E4F550F5BE
:1033CB0051F553F554F55522E50A9525E52464800E
:1033DB00F8E509648098229000397C007D10E0FEAE
:1033EB00A3E0FF0204A0AB4DAA4EA94F22E490002C
:1033FB0039F0A3F022C3900039E0648022900001E1
:10340B000204D690003BE0648022900031E0FF7E06
:10341B0000700590002F8030900030E004F07006B3
:10342B0090002FE004F07C007D0612048EEF240F39
:10343B00FFE43EFEC3900030E09FEE6480F8900006
:10344B002FE06480984004E4F0A3F0221239C77097
:10345B000DAF5FFEC3EF9402748094805007E4902D
:10346B00004EF0802690004EE004F0E0FD3395E036
:10347B00FCED640E4C7008EF64034E7002D322ED2A
:10348B0064104C700690004EF0D322C322E4FEEE83
:10349B00C3940274809480503074502EF8E630E759
:1034AB0025547FFDEE700CE55F7C0560027C02AF5E
:1034BB000480027F04EDC39F50010DE65480F67427
:1034CB00502EF8E64DF60E80C622123A81E490009B
:1034DB0002F0F524AF24EF3395E0FEC3EF9406EE34
:1034EB00648094805018123E1FAF12AE11AD10AC19
:1034FB000F90000C1206A212245D052480D6122B0D
:10350B00BC700375570C22AB4DAA4EA94F9000010E
:10351B000204D6900035E0FF3395E0FED3EF229006
:10352B000035E0FFD3E5276480F8EF64809822E54F
:10353B00499FEE6480F8E548648098229400EE641D
:10354B00809480229000341235211235474003E0DD
:10355B0014F0900036123521123547400DEF9409C7
:10356B00EE648094805003E004F012351E12354750
:10357B00400DEF940BEE648094805003E004F02236
:10358B00752401E4F525752601E54C30E0057D0831
:10359B001235BAE4FB7D037F01122C78E54C30E148
:1035AB00057D101235BAE4FB7D047F01022C787B7C
:1035BB00007A0079247F01120DC3228F277F9A7E18
:1035CB00997D391239AB600B4009AF273014027F5C
:1035DB0002800F7F337E337D231239AB60094007A6
:1035EB007F03122A2E8003755A071239C7640270A3
:1035FB0003123CBF22754400754564E4FFEFFD33B5
:10360B0095E0FCC3ED940DEC64809480501F903FCB
:10361B0078123A2A64027012EF3395E0FC903F7BEC
:10362B00123A2AF544740193F5450F80D0227F0599
:10363B00301B027F0090F145EFF07F78301B027F4B
:10364B00FA90F144EFF07F05301B027F0090F147B9
:10365B00EFF07F78301B027FFA90F146EFF090F19C
:10366B0029E0440CF0227F003002027FFF90F140F2
:10367B00EFF07F003002027F0890F149EFF07F00FE
:10368B003002027F2A90F148EFF0123D3D90F16439
:10369B00E030020454EEF0224411F022E54CC360FA
:1036AB0001D3921BE54C14601D14601D14601D2486
:1036BB0003701C900049E070167F011238B5900022
:1036CB00497406F080097F03227F01227F02227F4B
:1036DB000022E4FFEFFD3395E0FCC3ED9403EC64B3
:1036EB008094805020EF3395E0FC74FC2DF58274B0
:1036FB003F3CF583E493FE900031E0FDEEB505020F
:10370B00C3220F80CFD3227466FFFEFD7C40900056
:10371B000CE0F8A3E0F9A3E0FAA3E0FB1202DC60F3
:10372B0010400E123512FF900037E5F0F0A3EFF0CA
:10373B00229000377441F0A3741AF02290004CE0F1
:10374B00600314F02290004BE0FF3395E0FE74ED24
:10375B002FF582743F3EF583E493FF90004CF07598
:10376B00F00A120414AFF090004BEFF0B21D228B55
:10377B00318A3289337FFFAB310533E533AA32709F
:10378B0002053214F912043662077E08EF30E707A0
:10379B0025E06407FF8004EF25E0FFDEEFDDD82294
:1037AB008F31EF64197005120436F5FEEDF5FCEC64
:1037BB00FFEFF5FD008531FF000000000000E5FF85
:1037CB0020E0FBE53164117005E5FE12047C228ECE
:1037DB00258F2612000EEF3395E0FEEF64024E703C
:1037EB0003123B9AE55F7008E52664014525700CD2
:1037FB00E55F60051200034003123BB322122BD48A
:10380B005027EF4E700774FFF0A3F08017EF78028C
:10381B00C333CE33CED8F924FFFFEE34FF90000034
:10382B00F0A3EFF0900002EDF022EF1460111460A2
:10383B00151460192403701CE5AC5D6017D322E5E9
:10384B00AD5D6010D322E5AE5D6009D322E5AF5DBF
:10385B006002D322C322E4200306F5C853A8DF225B
:10386B00F5CE75CB0B75CADB75CD5D75CC6643A8F4
:10387B0020F5C975CF80C20DC20BC20E75C891223F
:10388B00FDFCAB3EAA3DA93CA83B02066EE4AB385F
:10389B00AA39A93A02047CAF3FEF3395E0FE22AB85
:1038AB003EAA3DA93CA83B02066EEF14600A1460C9
:1038BB000D14701FC2048008D204C2058004D20408
:1038CB00D205123AC57F147E00121FD6C204C20560
:1038DB00123AC522E55664036005E4F558801DE5F0
:1038EB005870057558018014AF58EF3395E0FED32F
:1038FB00EF9474EE648094804002D322C322AF24F1
:10390B00EF3395E0FED3E50A9FEE1233D94002D395
:10391B0022AF25EF3395E0FEC3E50A9FEE1233D9B4
:10392B005002C322A20222AF4B122EFD9420EE6452
:10393B008094805002054BAF4AEF122EBE4005D546
:10394B004A02C21590003D122EBC4003E014F02237
:10395B00C11541003D00C11341003200410035004B
:10396B004100360041003400420044000041004653
:10397B000041004A00016000008F251239C064022B
:10398B004E70082006057F09122A2EAF251239C06A
:10399B0064034E700A7F053014027F02122A2E2216
:1039AB007C4090000CE0F8A3E0F9A3E0FAA3E0FB65
:1039BB000202DCAF25EF3395E0FEEF22AB4DAA4EB2
:1039CB00A94F020436900049E0FF3395E0FED3EF98
:1039DB009400EE648094804003E014F0D3E560948F
:1039EB0000748094804002156022AB07EB3395E0A6
:1039FB00FEEF25E0FDEE33FC123DD21204A0EB14DA
:103A0B00D36480F8ED6480984002D322C322E52D65
:103A1B00FB3395E0FAC3EB9406EA6480948022753D
:103A2B00F009ED1206DFEC75F009A42583F583E4AC
:103A3B009322EF14600F146011146013240370139E
:103A4B00EDF452AC22EDF452AD22EDF452AE22ED78
:103A5B00F452AF22C2B2C2A6C2A5C2A3C284E490E2
:103A6B000027F0A3F0900023F0A3F0C216C217A317
:103A7B00F0900022F022900003747FF0A374FEF00C
:103A8B00A37480F0A37402F0E490000BF090000795
:103A9B001206AE000000002290004AE060037F0196
:103AAB0022900002E060037F0122AB4DAA4EA94F8A
:103ABB001204367F0060027F012290F164E0FF3038
:103ACB0004055307FB80034307043005055307F731
:103ADB00800343070890F164EFF02230020C1220B0
:103AEB008C121CD5122937023228C20312386112EC
:103AFB003B6412262012358B123A5F227D01E4FFC4
:103B0B00123A3D90004D74AAF0D21AE55130E703FA
:103B1B00755180E55020E70375508022E5561460FF
:103B2B000E14600F1460102403700F755A03227566
:103B3B005A0222755A0122755A0422EF14600E1490
:103B4B00600F1460102403700FED42AC22ED42ADF8
:103B5B0022ED42AE22ED42AF22E4FB7D027F021248
:103B6B002C7890F121E4F090F126F090F125F09073
:103B7B00F123F022E4FFFEFDFC900029E0F8A3E026
:103B8B00F9A3E0FAA3E0FB2290002DE064802290E1
:103B9B000002E0701204F0122BBC600BE4F55A909B
:103BAB000000F0A37408F022122EB0FF60129000F8
:103BBB000712044F600590003EEFF0E4FF122A2E2F
:103BCB0022E55560037F0022E5547002FF22AF53BC
:103BDB00300105E4F554F55322900031EFF0AB4D75
:103BEB00AA4EA94F120436640160057F01122A2EDA
:103BFB0022EFFB3395E0FAC3EB9408EA64809480E0
:103C0B005004EF2DFF227F08227C41AB0EAA0DA999
:103C1B000CA80B0202DCAB1EAA1DA91CA81B0202DE
:103C2B00DC900022E0FF7E0064067002D322EF647A
:103C3B00054EC37001D322900022E0FF7E00640882
:103C4B007002D322EF64074EC37001D32290003F62
:103C5B00E0FE5480FD3395E04D6007EE547FF0128B
:103C6B002A2E2253DE7F007F002002027FA090F6D7
:103C7B0092EFF00043DE802290003D7408F0E55F88
:103C8B007F0070027F018F5FC202021E60123DBE79
:103C9B0040067E127FC080047E007F288E5D8F5E83
:103CAB00221233F112043664097004FE7F3A227E2D
:103CBB00007F352220180F20190CE556700812359D
:103CCB0012F54985F04822900042E0FF3395E0FE63
:103CDB00D3EF9400EE64809480225388CF5389F005
:103CEB00438901E4F58CF58A75A88222123DD2D363
:103CFB00EF9400EE648094804003E014F022900077
:103D0B00417401F0E4900043F09000427418F022EB
:103D1B00300307C2AF0075FBAA2275FB5500D2AF6B
:103D2B002290003D7402F0E55F7F0070027F028FEE
:103D3B005F2290F1297411F090F129E0541170F881
:103D4B0022E4F551F554F553F552EF04F55522C223
:103D5B00AF007596AA75965575978080FE90003FBB
:103D6B00E030E50654DFF0122A2E22E5556002D32F
:103D7B0022E554C36001D322E55564016002C322DE
:103D8B00E4F555D322C2AF007596AA759655539795
:103D9B007F22900047E07005EDF0A3EFF022FED3F9
:103DAB00EF9400EE6480948022E5595480FF3395A4
:103DBB00E04F22D3E55F94017480948022E490005D
:103DCB0048F0900047F022900047E0FF3395E0FE6B
:103DDB0022C21DE490004BF0A3F022E5556402C310
:103DEB007001D322E4900031F0FF022A2E900035AF
:103DFB00E0700204F022123CD24003E014F02230B7
:103E0B001D03A20E22A20B225388EFD20C32D33009
:103E1B008001C32202185700133ADA0012002B005C
:103E2B0010DBD6000FCC1E000ECF6C000DE44B0048
:103E3B000D0965000C3D80000B7F7C000ACE500005
:103E4B000A290700098EC30008FEB50008781F0079
:103E5B0007FA52000784AE0007169D0006AF9700C5
:103E6B00064F1C0005F4B800059FFE0005508B00A3
:103E7B000506020004C00D00047E5D000440A9008D
:103E8B000406AC0003D02700039CE100036CA100E7
:103E9B00033F37000314720002EC280002C62F0008
:103EAB0002A2630002809F000260C3000242B100C5
:103EBB0002264C00020B7B0001F2230001DA2E00DC
:103ECB0001C3870001AE19000199D2000186A00041
:103EDB000174720001633A000152EA00014372005F
:103EEB000134C8000126DF000119AC00010D2500CB
:103EFB00010141F5F5EB3AE107D755CE1DC558BD8C
:103F0B0000B50EAD7FA64C9F7098E792AC8CBB872B
:103F1B001181AA7C82779772E46E676A1E660662CD
:103F2B001C5E5F5ACB575F541950F84DF84B1A482B
:103F3B005A45B8433340C83E773C3E3A1D3812369B
:103F4B001D343B326D30B22F082D6F2BE62A6C29B6
:103F5B000127A42655251323DD22B22193207F1F91
:103F6B00751E75000000000000000000000000003E
:103F7B000000000001000100000000000000000331
:103F8B00000D000009C4000004008500000A280190
:103F9B000005029A00000B54010006053500000BCA
:103FAB00B80100070A6A00000BEA01010814D500EA
:103FBB00000C1C010109520800000D4800010B5DAB
:103FCB00C0000009C40001021A0A00420C80000163
:103FDB000A5DC0000009C400010C2475000009C46F
:103FEB00000101030A090708050B06041F0501164A
:043FFB000D040203AC
:00000001FF
