:0A000000022373E552C36001D3220E
:10000B00023E12AF55EF3395E0FEEF24FFFFEE34C7
:0E001B00FF123DB24005E55514FF227F002282
:10002B0002002E75C900B20E300E04D20DB20B3287
:10003B000232330203FFE86480F8E933E8336011DE
:10004B000460F0ED33EC337009E8FCE9FDEAFEEBFC
:10005B00FF220460DED3EB9FEA9EE99DE8C2E78CAA
:10006B00F0C2F795F0400CE8CCF8E9CDF9EACEFAFE
:10007B00EBCFFB1203CA85D0F05804700320D5B325
:10008B00E80470075002B2D502040992D5EC046063
:10009B00F7E4CCC0E0C398F8603B94186008400DBF
:1000AB00D0E0FB0203E1E4FBFAC9FC8028E830E472
:1000BB0006E4C9FBE4CAFCE830E305E4C9CACBFC9F
:1000CB00E854076010F8C3E913F9EA13FAEB13FBD2
:1000DB00EC13FCD8F130F52FC3E49CFCEF9BFFEE47
:1000EB009AFEED99FDD0E0FBEF4E4D4C701222DBEA
:1000FB0003020406EC2CFCEF33FFEE33FEED33FD75
:10010B00ED30E7EB0203E1EF2BFFEE3AFEED39FDAD
:10011B00D0E0FB50130BBB0003020409ED13FDEE03
:10012B0013FEEF13FFEC13FC0203E1EC4D6011E83F
:10013B00497017ED33EC3304600DE4FCFFFEFD2238
:10014B00E933E8330470F80203FF1203CA58046062
:10015B0009E4CC24815006285009020409284003E5
:10016B00020406C0E0EB4A7044B98006D0E0FB0203
:10017B0003F5EF4E701CBD8008EBFFEAFEE9FD8036
:10018B00EBE98DF0A4FEE5F002021FE9CDF9EAFEE2
:10019B00EBFFEF89F0A4FCE5F0CE89F0A42EFFE491
:1001AB0035F0CD89F0A42DFEE435F08067EF4E706D
:1001BB0005BD80D780C3EF8BF0A4ACF0EE8BF0A421
:1001CB002CFCE435F0F8EF8AF0A42CE5F038FCE4D5
:1001DB0033CB8DF0A42CFCE5F03BF8EE8AF0A42C8D
:1001EB00FCE5F038F8E433CF89F0A42CFCE5F038CB
:1001FB00CF3400CE89F0A42FFFE5F03EFEE433C9E7
:10020B008DF0A42EFEE5F039CD8AF0A42FFFE5F09A
:10021B003EFEE43DFD33D0E0FB50070BBB000F026D
:10022B000409EC2CFCEF33FFEE33FEED33FD020340
:10023B00E1020409EC5D046005E859047003020354
:10024B00FF1203CA580460F6EC4860F2EC7004FD30
:10025B00FEFF22C860DB2481C85009C3986002509E
:10026B00060204069850CAF582E9294B4A7005AB81
:10027B00820203F575F0007C1A7880C3EF9BEE9A2F
:10028B00ED99400DC3EF9BFFEE9AFEED99FDE84211
:10029B00F0DC23ACF0D0E0FFD0E0FED0E0FDAB8291
:1002AB0020E7101BEB60BAEC2CFCEF33FFEE33FEB8
:1002BB00ED33FD0203E1E803F830E705C0F075F01C
:1002CB0000EF2FFFEE33FEED33FD40B830E7C28079
:1002DB00AA74F8CC6480CCC86480C8F58204604FE3
:1002EB00C3EB9FF5F0EA9E42F0E99D42F0E89C4596
:1002FB00F0603C501DE5825FFFE582D313CB5BCBF7
:10030B00F42B5582FB50280ABA002409B9002008A7
:10031B00801DE5825BFBE582D313CF5FCFF4C31364
:10032B002F5582FF50090EBE00050DBD00010CC3F9
:10033B00EB9FF5F0EA9E42F0E99D42F0E89C45F018
:10034B006007CC4820E701B3EC2275F020800E75D6
:10035B00F010800575F0087D007E007F003392D58C
:10036B0030D50312064AEC334010EF33FFEE33FE69
:10037B00ED33FDEC33FCD5F0ED22E5F0247EA2D578
:10038B0013CC92E7CDCEFF22EDD2E7CD33EC3392F7
:10039B00D524814006E4FFFEFDFC22FCE4CFCECD4C
:1003AB00CC24E0501174FF80EDC3CC13CCCD13CD16
:1003BB00CE13CECF13CF0470F030D5DE02064AE950
:1003CB00D2E7C933E833F892D5EDD2E7CD33EC332E
:1003DB00FC5002B2D522EC30E7100FBF000C0EBE62
:1003EB0000080DBD00040BEB6014A2D5EB13FCED64
:1003FB0092E7FD2274FFFCFDFEFF22E480F8A2D5FC
:10040B0074FF13FC7D80E480EFC2D530F707B2D5C3
:10041B0063F0FF05F030E70CB2D5F4048463F0FF12
:10042B0005F080018430D502F40422BB01068982D9
:10043B008A83E0225002E722BBFE02E32289828AF2
:10044B0083E49322BB010CE58229F582E5833AF51F
:10045B0083E0225006E92582F8E622BBFE06E92559
:10046B0082F8E222E58229F582E5833AF583E4936B
:10047B0022BB010689828A83F0225002F722BBFE3F
:10048B0001F322EF8DF0A4A8F0CF8CF0A428CE8D31
:10049B00F0A42EFE22C2D5EC30E709B2D5E4C39D01
:1004AB00FDE49CFCEE30E715B2D5E4C39FFFE49E60
:1004BB00FE1206EBC3E49DFDE49CFC80031206EBED
:1004CB0030D507C3E49FFFE49EFE22BB0110E582FB
:1004DB0029F582E5833AF583E0F5F0A3E022500994
:1004EB00E92582F886F008E622BBFE0AE92582F8A8
:1004FB00E2F5F008E222E5832AF583E993F5F0A310
:10050B00E99322BB010A89828A83F0E5F0A3F022EA
:10051B005006F709A7F01922BBFE06F3E5F009F325
:10052B001922E88FF0A4CC8BF0A42CFCE98EF0A45C
:10053B002CFC8AF0EDA42CFCEA8EF0A4CDA8F08B59
:10054B00F0A42DCC3825F0FDE98FF0A42CCD35F09F
:10055B00FCEB8EF0A4FEA9F0EB8FF0A4CFC5F02E30
:10056B00CD39FEE43CFCEAA42DCE35F0FDE43CFC99
:10057B002275F008758200EF2FFFEE33FECD33CDE1
:10058B00CC33CCC58233C5829BED9AEC99E582982E
:10059B00400CF582EE9BFEED9AFDEC99FC0FD5F02D
:1005AB00D6E4CEFBE4CDFAE4CCF9A88222B800C1A4
:1005BB00B90059BA002DEC8BF084CFCECDFCE5F011
:1005CB00CBF97818EF2FFFEE33FEED33FDEC33FC58
:1005DB00EB33FB10D703994004EB99FB0FD8E5E401
:1005EB00F9FA227818EF2FFFEE33FEED33FDEC33E3
:1005FB00FCC933C910D7059BE99A4007EC9BFCE972
:10060B009AF90FD8E0E4C9FAE4CCFB2275F010EFAD
:10061B002FFFEE33FEED33FDCC33CCC833C810D7F0
:10062B00079BEC9AE899400AED9BFDEC9AFCE89944
:10063B00F80FD5F0DAE4CDFBE4CCFAE4C8F922C329
:10064B00E49FFFE49EFEE49DFDE49CFC22EB9FF502
:10065B00F0EA9E42F0E99D42F0EC6480C864809819
:10066B0045F022EB9FF5F0EA9E42F0E99D42F0E85F
:10067B009C45F022E8600FECC313FCED13FDEE1369
:10068B00FEEF13FFD8F122E493FC740193FD740287
:10069B0093FE740393FF22ECF0A3EDF0A3EEF0A313
:1006AB00EFF022A8828583F0D083D0821206C51288
:1006BB0006C51206C51206C5E473E493A3C583C52C
:1006CB00F0C583C8C582C8F0A3C583C5F0C583C870
:1006DB00C582C822A42582F582E5F03583F58322F5
:1006EB00BC000BBE0029EF8DF084FFADF022E4CCF3
:1006FB00F875F008EF2FFFEE33FEEC33FCEE9DECBC
:10070B00984005FCEE9DFE0FD5F0E9E4CEFD22ED01
:10071B00F8F5F0EE8420D21CFEADF075F008EF2F4B
:10072B00FFED33FD4007985006D5F0F222C398FD3C
:10073B000FD5F0EA2290002FE0F524A3E0F525D3A6
:10074B00900030E0940090002FE064809480401E75
:10075B00122D8E8E268F27D3E5259527E5266480CF
:10076B00F8E524648098400685262485272590008B
:10077B002AE0B40C004003020A8790078CF8282863
:10078B00730207B30207FE02082C0208480208672F
:10079B000208E20209CE0209FD020A26020A4B02F6
:1007AB000A6B0207B0023A88C2B2C2A6C2A5C2A3A4
:1007BB00C216900035E07002A3E07019FFFEFDFC3D
:1007CB00900031E0F8A3E0F9A3E0FAA3E0FB1202FA
:1007DB00DC6011400F122E369000311206AE000075
:1007EB000000D210122E525003020A8D90002A7470
:1007FB0001F022D2A3D3E52594E8E5246480948309
:10080B0040067E037FE88004AE24AF2590002BEEDC
:10081B00F0A3EFF0120A8E122E3E90002A7402F013
:10082B0022301003020A8D7F147E00121EE6D2A620
:10083B0090002E7410F090002A7403F022D2B212A2
:10084B002DF76008400690002A7404F0122E1A400F
:10085B0003020A8D7F01123C0C020A87D2A5E52503
:10086B0045247003122E4B900035E0FAA3E0FB4AAF
:10087B00701890002BE0B52409A3E0B525047F0682
:10088B0080027F0590002AEFF022301003020A8DC0
:10089B00AE24AF257C007D191204A08E268F27D3A2
:1008AB00E52794C8E526648094804006752600757C
:1008BB0027C8E5272401FFE43526FEC3EB9FFFEA9B
:1008CB009EFE900035F0A3EFF0C3EE648094805051
:1008DB0003122E36D21022301003020A8DE5254565
:1008EB00247003122E4B90002BE0FEA3E0FFC3E518
:1008FB00259FFFE5249EFED3EF94A0EE6480948F9A
:10090B004002D217E560600302099D20170302091C
:10091B009D122E2D24F6602314603014603D2403A9
:10092B0070497E00301C047F0080027F0A90002CEF
:10093B00E02FF090002BE03EF0803E90002CE02466
:10094B0088F090002BE03413F0802E90002CE024E4
:10095B00DCF090002BE03405F0801E90002CE0249E
:10096B00F4F090002BE03401F0800E90002CE0248A
:10097B000FF090002BE03400F0C390002CE0952595
:10098B00E5246480F890002BE0648098400EC21739
:10099B00800390002BE524F0A3E525F0D210900006
:1009AB002BE0FEA3E0FF120A8E90002BE065247073
:1009BB0004A3E065256003020A8DD21690002A7409
:1009CB0006F022E52545247004122E4B22E525B4B2
:1009DB00FF0CE524B4FF0790002A7409F022900065
:1009EB002BE065247004A3E065257003020A8D02D9
:1009FB000A80D2A5C2B2C2A39000357409F0A374C9
:100A0B005FF09000311206AE00000000D210900093
:100A1B002E7418F090002A7408F0227F9A7E997D2C
:100A2B0079122DFC6008400690002EE07054122EB7
:100A3B0036D210C2A5C2A690002EF090002AF0224A
:100A4B00122E3E122E2D640A600D7F667E667D8A05
:100A5B00122DFC6002502BC2A590002A740AF022C2
:100A6B00E52545247003122E4B122E524014D2A5AD
:100A7B00122E36D21090002A7405F02290002A74A0
:100A8B000BF0221230F39000311206A222123C52CC
:100A9B005003020D88C201123BF48F24900041E0F9
:100AAB006009C3940D7480948040069000417405D6
:100ABB00F0C21B122F26B40D004003020C73900AD8
:100ACB00D0F8282873020B10020AF7020BA5020BB1
:100ADB0077020BB4020BC3020BD5020BE6020BF72A
:100AEB00020C10020C5C020C44020C50E4F5601278
:100AFB003D994003020C731236365003020C7312ED
:100B0B003DEE020C7390004DE0700CAF24122907E0
:100B1B00E5606003020C73AF24122A7DEF600302C1
:100B2B000C73122F61EF64014E700A900041E0FFCD
:100B3B001235588005AF24123313123D9950057F9F
:100B4B00031226E7122F61EF64044E7010B2147F6C
:100B5B00073014027F068F5AC202121D7012000E4C
:100B6B00EF7003020C73123BC2020C73D21B7D039A
:100B7B00120D89123D994003020C737F04123558F4
:100B8B00122F2664037003020C7330140312366B9E
:100B9B00900042E04440F0020C73122F61120DCA18
:100BAB00121807121AD5020C737D04120D89AF248B
:100BBB001233137F05020C707D04120D991233133F
:100BCB007F04123D7E7F06020C707D05120D99127B
:100BDB0033137F07123C687F0580257D06120DBD00
:100BEB00120DCA7F08123C687F0680147D07120D18
:100BFB00BD12375FAF241233137F04123C687F079B
:100C0B00123D7E80631225C9122F6112375F7F0858
:100C1B00123C68122F61EF64024E600330090A7FA9
:100C2B00053014027F021226E7122F61EF64034E88
:100C3B0070367F0B1226E7802F7D0B120DAB12390E
:100C4B00877F0C80207D0C120DAB1239877F0A80B9
:100C5B00147D0A7F0112309D122F6112375FAF2472
:100C6B001239877F0B123C68900040E07003301DF7
:100C7B000C90002FE4F0A37421F0020D5F122F26CD
:100C8B0024F624FD500D24046003020D1D123B2F8E
:100C9B00020D49E55614601914602214602B2403CD
:100CAB007031122F42FF90002FE5F0F0A3EFF08090
:100CBB002290002F741AF0A3740AF0801690002F64
:100CCB007414F0A374D5F0800A90002F7405F0A370
:100CDB007435F0122F26640B7008123E0940031274
:100CEB002F78122F26640C7009122AF2EF70031260
:100CFB002F78122F26640A705B123144EF24FE60AA
:100D0B00062402704F801090002FE4F0A37485F03E
:100D1B0080421238915005122F788038122F26649A
:100D2B00027021C3E5499545E5446480F8E54864C4
:100D3B0080985006AE48AF498004AE44AF45900052
:100D4B002FEE800C9000011204D6FF90002FE5F0DF
:100D5B00F0A3EFF0E54A602030151190002FE0FE74
:100D6B00A3E0FF7C007D031204A080047EFF7FFFC5
:100D7B0090002FEEF0A3EFF0D201123BF4227F0193
:100D8B0012309DAF24EF3395E0FE12375F22E4FF64
:100D9B0012309DAF24EF3395E0FE12375FAF242264
:100DAB007F0112309DAF24EF3395E0FE12375FAF1A
:100DBB002422E4FF12309DAF24EF3395E0FE221284
:100DCB00375FAF24123313228F27120436FF1460C0
:100DDB001514602814603D14603A2404705C1221D1
:100DEB000312214A8029122103F5827401F52C8507
:100DFB00822DE582F4F582752E008013122103F407
:100E0B00F582752C0085822DEDF5827401F52E850A
:100E1B00822F8026ED12214A85822FEDF5827401F7
:100E2B00F528858229EF64047007EDFF7401FE80BD
:100E3B0005EDF4FF7E008E2A8F2B90000112044FDC
:100E4B007007EDFF7401FE8005EDF4FF7E008E3020
:100E5B008F3190000212044F7007EDFF7401FE807A
:100E6B0005EDF4FF7E00E527147003020F0F1470DD
:100E7B0003020F9214700302101524036003021077
:100E8B009FE528AB9A30E006E5294BFD8004E52968
:100E9B005BFD8D9AE52A30E00890F00912216A80FB
:100EAB000690F00912217190F009EDF0E52C30E07D
:100EBB000512215A800690F00A12217890F00AED63
:100ECB00F0E52E30E005122162800690F00B122126
:100EDB007F90F00BEDF0EE30E00512218E80089044
:100EEB00F00CE0FBEF5BFD90F00CEDF0E53030E04B
:100EFB0005122186800690F00D122195AF0590F01A
:100F0B000DEDF022E528ABA130E006E5294BFD8085
:100F1B0004E5295BFD8DA1E52A30E00890F019125C
:100F2B00216A800690F01912217190F019EDF0E50D
:100F3B002C30E00512215A800690F01A122178907D
:100F4B00F01AEDF0E52E30E005122162800690F0EC
:100F5B001B12217F90F01BEDF0EE30E00512218E7D
:100F6B00800890F01CE0FBEF5BFD90F01CEDF0E5D2
:100F7B003030E005122186800690F01D122195AFCE
:100F8B000590F01DEDF022E528ABA230E006E52937
:100F9B004BFD8004E5295BFD8DA2E52A30E008902E
:100FAB00F02912216A800690F02912217190F02904
:100FBB00EDF0E52C30E00512215A800690F02A1254
:100FCB00217890F02AEDF0E52E30E00512216280B9
:100FDB000690F02B12217F90F02BEDF0EE30E00518
:100FEB0012218E800890F02CE0FBEF5BFD90F02C33
:100FFB00EDF0E53030E005122186800690F02D12E1
:10100B002195AF0590F02DEDF022E528ABA330E054
:10101B0006E5294BFD8004E5295BFD8DA3E52A3010
:10102B00E00890F03912216A800690F03912217194
:10103B0090F039EDF0E52C30E00512215A80069046
:10104B00F03A12217890F03AEDF0E52E30E00512EF
:10105B002162800690F03B12217F90F03BEDF0EE89
:10106B0030E008A3E0FDEF4DFF800890F03CE0FD81
:10107B00EF5DFF90F03CEFF0E53030E009A3E0FDD1
:10108B00E5314DFF800990F03DE0FDE5315DFF90CE
:10109B00F03DEFF02220080A12321BA3F0A3F0C29E
:1010AB000A22123C3C400D1231F5120436640B60DF
:1010BB000302122C123CD08E248F25D31231FC50FC
:1010CB0003021199E50A9525F527E5099524F526DF
:1010DB00755C18D3E5279402E52664809480500351
:1010EB0002117E90002B7C087DFC123212EF240142
:1010FB00F525E43EF524D3E50A943CE50964809498
:10110B0080400FAE24AF257C007D0512048E8E240B
:10111B008F25123CA8C31231E4501E90003CE0B462
:10112B00012EA3E0B4E02990003FE0241EF09000D4
:10113B003EE0340012321A8017AC26AD27AE24AF36
:10114B002512048E90003FE02FF090003EE03EF021
:10115B001231F512322D2450FFE5F034FBFED39003
:10116B00003FE090003E1231EB4005EEF0A3EFF0B4
:10117B00755C3CC390003CE0648094FD400302121C
:10118B002CA3E004F0700690003CE004F022C312A4
:10119B0031FC400302122CC3E525950AF527E52403
:1011AB009509F526E55C6004155C804F123CA8EFB1
:1011BB002418FFEE34FCFED31231E4402090003CA7
:1011CB00E0B4FC37A3E0B4403290003FE024C4F01D
:1011DB0090003EE034FFF0E490003C801BE5275488
:1011EB007E600FC390003FE09527F090003EE095A6
:1011FB0026F01232235004E4F0A3F01232235004F1
:10120B00E4F0A3F0D390003DE0940090003CE06448
:10121B00809403400CA3E024FFF090003CE034FFEB
:10122B00F0228E298F2A8D2B90F692E030E708E47E
:10123B00FFFEFD7C408008AF1AAE19AD18AC17123B
:10124B002FC6AC29AD2AEC12035AC004C005C00648
:10125B00C007E4FBFA79807845AF33AE32AD31ACE1
:10126B003012023FD003D002D001D0001201368FD2
:10127B00378E368D358C34E52B24FB700302131916
:10128B0024F8607224F7604424F76014241E600372
:10129B0002137185371E85361D85351C85341B223F
:1012AB00AC29AD2AEC12035AA804A905AA06AB0770
:1012BB007F9A7E997D997C4512023F8F2F8E2E8DC2
:1012CB002D8C2C8F1A8E198D188C1722752F357526
:1012DB002E48752D03752C3E122FAA8F168E158D49
:1012EB00148C13E4FBFA7940784012023F8F128E74
:1012FB00118D108C0F22752F7A752ED3752D9B7532
:10130B002C3D122FAA8F0E8E0D8D0C8C0B22AB3712
:10131B00AA36A935A834AF1AAE19AD18AC171200FE
:10132B0041C004C005C006C007E4FFFE7DA57C4399
:10133B00AB37AA36A935A834120136D003D002D068
:10134B0001D00012023F122FC6E4FBFA797A7844DF
:10135B00120136122FC61203937B007A00791F12EB
:10136B0019E88E098F0A22900002E014B40900409C
:10137B00030214A690138D75F003A4C58325F0C545
:10138B0083730213A80213C202144502144B0214F6
:10139B005902145F02147702147E02149590000018
:1013AB00E07002A3E060030214A6900000F0A374A7
:1013BB000EF0A37402F022900000E0FEA3E0FFD336
:1013CB00940CEE648094804005755A038023D3EF10
:1013DB00940AEE648094804005755A028013D3EF13
:1013EB009408EE648094804005755A018003E4F5FF
:1013FB005AD3EF9400EE6480948040030214A6AF9E
:10140B0016AE15AD14AC139000101206A29000107E
:10141B00122CD6FF120393AB07AA067C007D641235
:10142B0004A0EF4E6005755A0780587C007D0AAF0B
:10143B0003AE021204A07D03802F7D047F01803058
:10144B00900010122CD6FF122D097D05801B7D06F6
:10145B007F02801CE4FFFE7D207C41900010122C4B
:10146B00C1120136122D097D0702378D7D087F03CE
:10147B00023045122CF95023122CE17F0C60027FB5
:10148B00008F579000027409F022E5576003023B6E
:10149B004F12000EEF7004900002F02220162190E4
:1014AB000024E0FCA3E0FDA3E0FEA3E0FF1239C99A
:1014BB00500ED21C9000241206AEC12000008028D2
:1014CB007FCD7ECC7D4C7C3E1239BE5019E4FFFEA5
:1014DB007D407C411239C9500D7D801239AE6006BA
:1014EB004004D21C8002C21C123C3C4006E490001B
:1014FB003BF02290003BE0FF3395E0FEC3EF9404FA
:10150B00EE648094805004E004F02290003AE054A2
:10151B000FF5247FCD7ECC7D8C7C40AB12AA11A91C
:10152B0010A80F1202DC600740057F03123C0C7FF2
:10153B009A7E997D691239B1501D7F9A7E997D995A
:10154B007C401239BE6010400E7D02AF24123C2449
:10155B008F24E4F525803EE4FFFEFD7C3F1239BE6F
:10156B0050177DB41239AE6010400E7D01AF2412BE
:10157B003C248F24752501801CAF24EF3395E0FEAE
:10158B00D3EF9400EE648094804006E52414FF8032
:10159B00027F008F24E525C454F0452490003AF0D7
:1015AB00AF24EF3395E0FEC3EF9408EE6480948094
:1015BB004017E0FF7804A2E713D8FB540F14700414
:1015CB007F0480027F02123C0C2290000BE0C3943C
:1015DB0028748094805069E4FFFE7D7A7C44AB12C2
:1015EB00AA11A910A80F1201361203938F278E266A
:1015FB008D258C2490000BE004F0122CD32527FFB3
:10160B00EE3526FEED3525FDEC3524FC900007125A
:10161B0006A2122CEAC3122D18500A900003E526DD
:10162B00F0A3E527F0900005122CEDD3122D1850E6
:10163B00030216C5900005E526F0A3E527F0807A96
:10164B00122CD3FFC004C005C006C007900005E0F4
:10165B00FEA3E0FBAA06EA3395E0F9F8122CEAEFB9
:10166B002BFBEE3AFAED39F9EC38F8D007D006D06F
:10167B0005D004C3EF9BFFEE9AFEED99FDEC98FCB1
:10168B00122CCDFFC006C007A3E024FEFFE434FFFD
:10169B00AB07FA3395E0F9F8D007D006123359129D
:1016AB002CCDFFEC120355E4FBFA797A7844120245
:1016BB003F90000C1206A2123AAAAF58EF3395E0F6
:1016CB00FEEF64784E70057558018006E558600290
:1016DB000558900000E07002A3E0600E900001E05E
:1016EB0024FFF0900000E034FFF0E557600215573F
:1016FB002220100302180630122E90F129E054110B
:10170B00600302180690F164E0300F0554EFF0808F
:10171B00034410F090F164E030110554FEF08003A7
:10172B004401F0C210C21222E4FFFE7DC87C4212BB
:10173B003BAC1202DC600C400A9000311206AE4248
:10174B00C80000123BA71202DC500A9000311206AF
:10175B00AE00000000D3900036E0945F123BBB94C8
:10176B008940077409F0A3745FF0C3123BBB9480EC
:10177B005004E4F0A3F0123BA71202DC6005400317
:10178B00D38001C39211D3900036E09400123BBB7F
:10179B0094804003D38001C3920FE4FFFE7DFA7C5B
:1017AB0045123BAC120136E4FBFA798078BF12008C
:1017BB00458F278E268D258C24E4FBFA79C8784239
:1017CB0012023F8F278E268D258C24120393AD0793
:1017DB00AC06900035E0FAA3E0FBEAFFEF90F1498D
:1017EB00F0EB90F148F0ECFFEF90F141F0ED90F160
:1017FB0040F0D21290F129E04411F022301803028C
:10180B001899301903021899E4900022F0E55660FC
:10181B00030218F71237BAFFAEF0C31237D2506873
:10182B00900023E0FD700404F08013ED3395E0FC91
:10183B00C3ED9409EC6480948050030218F7900078
:10184B00237401F09000051204D6FDACF0D3E547EC
:10185B009DEC6480F8E54664809840068C468D4785
:10186B00800B74322547F547E43546F546D31237DE
:10187B00D240091237BAF54985F0482274FA254946
:10188B00F549E43548F54822E4900023F022E49032
:10189B000023F0123DF730190F1237C69404EE6493
:1018AB008094804003023BDB1237C6940AEE6480BF
:1018BB0094804038D3E549944DE548648094814049
:1018CB000C74062549F54974FF3548F548D3E547AF
:1018DB0094BEE5466480948A400C74E72547F5472F
:1018EB0074FF3546F5469000227401F022E508643A
:1018FB00037002F508E50814603E14700302199892
:10190B001470030219D8240360030219D5D20412F0
:10191B003C7EE4F528122F89501BEF3395E0FE74C3
:10192B00F52FF582743F3EF583E493FD122F9FED67
:10193B00F0052880E00219D0E4F528122F89501DFC
:10194B00122F9AE0FF122FCF400F122FD9400EEF1C
:10195B00941FEE648094805004052880DE122F893A
:10196B005026122F9AE0F527FF3395E0FEEF641611
:10197B004E6006EF640D4E7005C204123C7EAF271D
:10198B0012328075080280457508038040752C0063
:10199B00752D00752E277B007A00792512204EEFCE
:1019AB004E602AAD27AF26AE2512122DE4F5281274
:1019BB002F895011122F9AE0B52706122F9F74FE14
:1019CB00F0052880EA7508018003E4F508900021F2
:1019DB00E06009E508640360030218F8228B388A7B
:1019EB0039893A8F3E8E3D8D3C8C3B7FDA7E3A7D3A
:1019FB00137C00D312385C400812384A7EFF7FEC10
:101A0B0022E47F757E1EC312383D500712384AFE02
:101A1B007F6422740112384BE47FF57EF5D31238C4
:101A2B003D403DE4F53F123854C3EF9437EE6480EC
:101A3B009480502CEF7802C333CE33CED8F92421C7
:101A4B00F582743E3EF583120692C312385C400C4D
:101A5B00123854EF24ECFFEE34FFFE22053F80C614
:101A6B00E4F53F123854C3EF943DEE6480948050FC
:101A7B0053EF25E0FFEE33FE74FD2FF582743E3EEF
:101A8B00F583E493FE740193FFE48F438E42F5419B
:101A9B00F540E543F543E542F542E4F541F540AF4A
:101AAB003EAE3DAD3CAC3BAB43AA42A941A840D3B3
:101ABB0012066E500B123854EF2423FFE43EFE2225
:101ACB00053F809F12384AFEFF22123DE54005126A
:101ADB0000035003D38001C39201122F42FFAEF0DB
:101AEB00C3E5499FEE6480F8E548648098500AACE2
:101AFB0048AD49AE04AF0580008E258F26900001BE
:101B0B001204D6FFC3E5269FE5F06480F8E5256453
:101B1B008098500E30010B122F69400685254485A5
:101B2B0026451200035029201326122F4E40028007
:101B3B002CC3122F69500A0545E5457011054480E9
:101B4B0053D215754A04852544852645D213804406
:101B5B00123DE55037201334122F4E4005E014F0A0
:101B6B008038900003122F45FFAEF0D3E5459FEE72
:101B7B00122F6F400AE5451545700F1544800BC2B7
:101B8B0015754A048E448F45D213800820010B3003
:101B9B001308C2139000437403F0300104E4F54BB7
:101BAB0022AF4BEF3395E0FEEF64204E7007054BF1
:101BBB00C202121D7022C202C203AF5AC3EF9405B8
:101BCB007480948050141234645008D21BD203D208
:101BDB00028007122BD75002D202300203021C954F
:101BEB00E55AB408004003021C97901BFCF8282808
:101BFB0073021C14021C23021C19021C1F021C273B
:101C0B00021C47021C47021C47E4F559807ED20296
:101C1B00D2038078D2038074D2028070E55930E20F
:101C2B000853598063598080020559E5595480FF48
:101C3B003395E04FC36001D39202805053597FAF6D
:101C4B005AEF64076007AF5AEF640670047F068093
:101C5B00027F0AD3EF6480F8E5596480984005E46D
:101C6B00F55A8028E55975F002120414AFF0EFC352
:101C7B006001D39201AF5AEF64067006A201920382
:101C8B008004A201920205598002C202123592A26F
:101C9B00029204A2039205023AEE75240375250104
:101CAB00752601C2037D02E4FF121E2EC2037D02C4
:101CBB007F02121E2E7B007A0079247D04E4FF1232
:101CCB000DD37B007A0079247D047F02120DD37B28
:101CDB00127D027F02122B657B167D02E4FF122B15
:101CEB006590F120E4F0A3741DF090F1237401F0E2
:101CFB0090F125F090F12A74FFF090F12EF090F115
:101D0B0022E4F090F127741DF0A3F090F160E4F061
:101D1B0090F165F090F164741DF090F131741FF047
:101D2B0090F130743FF090F1397409F090F1387400
:101D3B005FF090F141E4F090F140F090F149F090B8
:101D4B00F148F09000311206AE00000000E4900064
:101D5B0035F0A3F0C212C21090F166F090F1267428
:101D6B001DF0023D61D203123D3FE56064017F002F
:101D7B0070027F018F2E854C2F85442B85452C7F40
:101D8B00003014027F018F2D7B007A00792B7D05AB
:101D9B001236D18F30200209900049E0B530028015
:101DAB007C200211C3900048E094A9900047E064A6
:101DBB0080948040247B007A00792A7D007C027F0E
:101DCB001D1237027B007A00792AE4FDFC7F1D127D
:101DDB003702E4900047F0A3F0E4F52AE52A123A23
:101DEB00445026900047E0FEA3E0FF7C007D0612E6
:101DFB00048EEF2BFDEE3AFC742B252AF9E4FAFB4B
:101E0B007F19123702052A80D3900048E004F07046
:101E1B0006900047E004F0900049E530F0C2031251
:101E2B003D3F22EF14603814605F147003021EBE36
:101E3B0024036003021EE512212D4003021EE53030
:101E4B00030EA8057401088002C333D8FC4280221C
:101E5B00A8057401088002C333D8FCF45280221207
:101E6B0021185076122124407130030EA8057401FD
:101E7B00088002C333D8FC429022A8057401088065
:101E8B0002C333D8FCF45290221220F7504C12218B
:101E9B0036404730030EA8057401088002C333D8BF
:101EAB00FC42A022A8057401088002C333D8FCF4BD
:101EBB0052A022ED1220FB502130030EA805740115
:101ECB00088002C333D8FC42B022AF05A8077401C7
:101EDB00088002C333D8FCF452B0228E2A8F2BE435
:101EEB00F530F531E52B452A7003021F9B0531E5D3
:101EFB003170020530AE2AAF2BEE3395E0FDFCE4DA
:101F0B007BA07A0FF9F812052D8F2F8E2E8D2D8C2D
:101F1B002CC006C007AE30AF31AB07AA06EA33952B
:101F2B00E0F9F8D007D0061205B88F2F8E2E8D2D25
:101F3B008C2CE47FFF7EFFFDFCAB2FAA2EA92DA8D6
:101F4B002CC312066E50A6C374FF952FF52F74FF8A
:101F5B00952EF52EE4952DF52DE4952CF52CAF2F24
:101F6B00AE2EAD2DAC2C780812067F8F8CE52FFF93
:101F7B008F8AC20C438810E58820E503300CF85398
:101F8B0088CFE531153170021530E531453070CE13
:101F9B0022E4F524F525F526FB7D081220447B0071
:101FAB007D011220447D201220387524027D0212FF
:101FBB0020387B017D01E4FF122B657B017D05E45D
:101FCB00FF122B657B017D017F03122B657B01E4E7
:101FDB00FD7F03122B65752403752601E4FB7D033E
:101FEB00FF122B657B007A0079247D08E4FF120D2C
:101FFB00D3D2037D03E4FF121E2E75DF4075DE6026
:10200B00E4F5E9F5D1F5D375D50F75D4FF90F692BC
:10201B0074A0F0E4F5089000191206AE0000000061
:10202B00122FBDF0A3F0A304F043DE80227B007AD5
:10203B00007924E4FF120DD3227A0079247F031256
:10204B000DD3228B298A2A892BE5DF30E1028050C0
:10205B0090001EE004F0700690001DE004F090006C
:10206B0019E0F8A3E0F9A3E0FAA3E0FBAFDDEFFE84
:10207B00ADDCEDFFEE3395E0FDFCEB2FFFEA3EFE12
:10208B00E93DFDE83CFC9000191206A2C390001E2E
:10209B00E0940A90001DE064809480500743DF02B7
:1020AB00E4FEFF22900019E0FCA3E0FDA3E0FEA3F9
:1020BB00E0FFE47B0AFAF9F8123359900019120683
:1020CB00A2900019A3A3E0FFA3E0AB29AA2AA92B96
:1020DB00CF8FF012050E90001FE0AB2CAA2DA92E6E
:1020EB0012047CE4900020F0FE7F0122EDFF7E00C5
:1020FB00D394067480948022EDF4F5827583008569
:10210B00832885822985832A85822BED22EDFF7E0C
:10211B0000D394077480948022C3EF94037480944B
:10212B008022EDD394057480948022C3EF940174C4
:10213B0080948022FBE434F0FAA80574010822F4A1
:10214B00F58275830085832C85822D85832E22A3B2
:10215B00E0FBE52D4BFD22A3E0FBE52F4BFD22E041
:10216B00FBE52B4BFD22E0FBE52B5BFD22E0FBE5CA
:10217B002D5BFD22E0FBE52F5BFD22A3E0FBE531B0
:10218B004BFD22A3E0FBEF4BFD22E0FBE5315BFDBA
:10219B0022122CE16409600B7529CD7528CC7527AB
:1021AB006C8008E4F529F528752760752640E556FF
:1021BB0014601E14604514606A24037073AF29AE5B
:1021CB0028AD27AC26122CBE1202DC5063755601CB
:1021DB00227FCD7ECC7D4C7C3EAB29AA28A927A89B
:1021EB0026120045122CBE1202DC60054003E4F5FA
:1021FB0056122CB71202DC503780327FCD7ECC7D4D
:10220B004C7C40122CBE1202DC600540037556015B
:10221B007433FFFEFD7C40122CBE1202DC50117594
:10222B00560322122CB71202DC60054003755602CE
:10223B00227D01E4FF1237E74043900050E025E098
:10224B00F0308003E004F0900050E0F524AF24EF71
:10225B00F46003EF7027123CBCE4F5B4AF24FEEF3F
:10226B00F4D37001C3921AEFF44E7B0170027B0220
:10227B00E4FDFF122FEA7D01E4FF123B6E301A08DA
:10228B00E55130E703755180E5607F8270027F85F1
:10229B008F24301A21E550B5241CAF53EF3395E052
:1022AB00123DB24005123D708009E4F5537555019E
:1022BB00755201E4F550201A13E5516484700DF545
:1022CB0051E552700475540122E4F552228B2A8A8F
:1022DB002B892CE4F52EF52FD203123D3FE4F52D7F
:1022EB00123A42500512234980F6AB2AAA2BA92C8D
:1022FB007D051236D1AB2AAA2BA92C90000512040E
:10230B004FB50713052FE52F7002052EC394A9E5D2
:10231B002E6480948040C6D3E52F9400E52E648014
:10232B0094804008E52F152F7002152EE4F52D1221
:10233B003A42500512234980F6AE2EAF2F22AE2E15
:10234B00AF2F7C007D0612048EEF2BFDEE3AFCAB1B
:10235B002AAF2DEF3395E0FEE52C2FF9E52B3EFA56
:10236B007F11123702052D2278FFE4F6D8FD90007D
:10237B00007F007E04E4F0A3DFFCDEFA75816102CE
:10238B0023C8022A02E493A3F8E493A34003F68044
:10239B0001F208DFF48029E493A3F85407240CC856
:1023AB00C333C4540F4420C8834004F45680014601
:1023BB00F6DFE4800B0102040810204080903936D0
:1023CB00E47E019360BCA3FF543F30E509541FFE2C
:1023DB00E493A360010ECF54C025E060A840B8E49D
:1023EB0093A3FAE493A3F8E493A3C8C582C8CAC520
:1023FB0083CAF0A3C8C582C8CAC583CADFE9DEE7B2
:10240B0080BEEF14602214603C1460562403707479
:10241B0012212D4002806DED248012213F8002C3DA
:10242B0033D8FC55ACFC80601221185005122124C6
:10243B0050028050ED248812213F8002C333D8FC18
:10244B0055ADFC80431220F7500512213650028007
:10245B0033ED249012213F8002C333D8FC55AEFCE0
:10246B008026ED1220FB4002801AED2498FBE43409
:10247B00F0FAAF05A8077401088002C333D8FC55E6
:10248B00AFFC8004E4FEFF22EC7003FEFF228B8284
:10249B008A83E05403FF7E0022E4F54A122659E4B6
:1024AB00FFEFFD3395E0FCC3ED940DEC648094805D
:1024BB00505D903F77122F2F64027050EF3395E0F1
:1024CB00FC903F7C122F2FF546740193F547903FFC
:1024DB0078122F2FF548740193F549903F7A122FFC
:1024EB002FFC740193FDD39545E5446480F8EC64AF
:1024FB00809840048C448D45D3E5459549E54812B9
:10250B002F6F400B85484485494580030F8092907F
:10251B0000437403F0123DC79000417405F0E49042
:10252B000039F0754DFF754E3F754F7722122CE138
:10253B0064027008854624854725800B90000512A0
:10254B0004D6F52585F0247D7A7C44122CBB120130
:10255B0036120393D3EF9400EE6480948A4002808A
:10256B0001D39219301904C2188014D3EF9525E5C5
:10257B00246480F8EE64809840028001D392181294
:10258B00219CAF5AD3EF940474809480502F900009
:10259B0039E06003022C48900002E06003021372E2
:1025AB0090004DE0640170061236008F5A22122CF7
:1025BB00E17004E5576003023B4FE4F55A223018F3
:1025CB0025301622123DF7900022E0FF3395E0FEF6
:1025DB00C3EF940AEE648094804072E4F07F08307D
:1025EB0014027F028038301C5F301635E55F705D5A
:1025FB00900029E024DFF0900028E034FFF0755FB5
:10260B0004D3A3E094DA900028E0648094A1503DB9
:10261B007421F0A374DAF07F083014027F020226D3
:10262B00E71237BAFF90002BE0FCA3E0FDC39FE558
:10263B00F06480F8EC6480985013755F0890002864
:10264B00ECF0A3EDF0D21622E4900022F022123E21
:10265B001892017B007A0079241222D8900047EE61
:10266B00F0A3EFF02001417B007A0079247D051265
:10267B0036D1EF65297031E5277F0060027F018F2E
:10268B006085284C852444852545E526C36001D308
:10269B009214900049E529F0900048E004F070375F
:1026AB00900047E004F0802FE4F560754C01123682
:1026BB006BC214D202121D7030011C123E18501046
:1026CB00C21B7F021238677F287E00121EE680EB4A
:1026DB007FF47E01121EE6C203023D3F8F28122FAC
:1026EB0026FFF52D90000812044FF52CEF640970AE
:1026FB0009123B2F8E2A8F2B8008122F42F52B8528
:10270B00F02AE4F529AF29122F81940DEE64809401
:10271B00805055903F7775F009EF1206DFEE122FC0
:10272B00376528703F123DC7123D2D123DDBAF2997
:10273B00EF3395E0FE7C007D0912048E74772FF940
:10274B00743F3E754DFFF54E894FE52D64096009C9
:10275B00E5286409700312395FE52C600BAF2BAED3
:10276B002A0231950529809D22E4F5DE90F692F040
:10277B0090002104F0E4F508FFEFFD3395E0FCC376
:10278B00ED9405EC648094805015EF3395E0FC7468
:10279B00142DF58274003CF58374FEF00F80DA90F3
:1027AB0000191206AE00000000122FBDF0A3F0FBC3
:1027BB007D017F03122B65E4FBFD7F03122B6575F7
:1027CB002403E4F525F526FB7D08122FE3120DD328
:1027DB007B007D01122FE3120DD3C203E4FD7F03B7
:1027EB00121E2EC2037D017F03121E2EC2037D0318
:1027FB00E4FF021E2EE51F70057F05023C0CA209AB
:10280B0092027524467525371238BB9209A206929F
:10281B00027524417525371238BB9206A207920226
:10282B007524507525281238BB92073007077F0691
:10283B00123C0C800B900039E064067003123DEEE5
:10284B001231F590000812044F7003C20822123C9B
:10285B00D08F24A208920275252B1238BB9201301F
:10286B000103D2082220011490003EE07002A3E085
:10287B00700A90003C1232265002C2082275246462
:10288B00C201D2A6D2A3D2021235CA7F287E001271
:10289B001EE6123E1EE4FFFEFD7C41AB16AA15A9F7
:1028AB0014A8131202DC60064004D2B28008C202E4
:1028BB001235CA023A88123E1E7D84122DF960062B
:1028CB004004D201801A122DF760154013C2B27F5B
:1028DB00057E00121EE6C2A3C2021235CAC2A62290
:1028EB007F057E00121EE61524AF24EF122E1F501B
:1028FB00C57F013001027F07123C0C228F25C21DC0
:10290B00E5601460201460391460362403706B1278
:10291B0039E764054E7003123C931239E764064E97
:10292B007058023D501239E764054E7003023C9318
:10293B001200035003D21D22123D8C503D755A05D7
:10294B00221239E764064E7003123D501239E764C8
:10295B00024E7014E56064027008756003755A06C8
:10296B008006756002755A07120003500DE560640E
:10297B00037F0270027F0312331322752403E4F5E5
:10298B0025752601F55A90F12404F090F12C74FF73
:10299B00F0A3F090F1357409F090F134745FF0907E
:1029AB00F1377409F090F136745FF090F126E04442
:1029BB000CF012359290F129E0540C70F8C2037DA3
:1029CB00037F01121E2EC2037D047F01121E2E7D7A
:1029DB00101229F67D081229F67B147D047F011253
:1029EB002B657B157D037F01022B657B007A0079BC
:1029FB00247F01120DD322C200123D09D2031238DB
:102A0B001312339D121F9C121CA51229861224A48B
:102A1B001233E0122888D203123731E4900021F0F0
:102A2B00123E1E12223C122538120A98122800124E
:102A3B0007401216FC300DE8C20D20001C12369E0A
:102A4B001210A012390D123E00121BC11232CC1201
:102A5B002D231234A5D20080C71214A71215D5123C
:102A6B003D1B1234E2123422122EC21239F9C2006B
:102A7B0080AE90004DE014602314605B2402706400
:102A8B00EFFD3395E0FCED64074C60037F0022E41F
:102A9B0090004CF07561F0A304F08048EF6015C313
:102AAB00E54C9403748094805006E54C04FF80023F
:102ABB007F008F4CE561700790004DF0755A051241
:102ACB00000350209000407404F090004D7402F00D
:102ADB00C202121D70800D1200034008123D99E4D2
:102AEB0090004DF07F012290004BE0B4070050673F
:102AFB00902B02F8282873022B17022B22022B4053
:102B0B00022B46022B56022B22022B5CE490004A2E
:102B1B00F07D0B7F01803D7F02123A1E50037F0137
:102B2B002290004BE0640170067D077F0280257DBB
:102B3B00237F06801F7D237F0380197F06123A1E99
:102B4B0050037F01227D077F0480097D0B7F058069
:102B5B0003E4FDFF123DA67F0022EBF582640260C9
:102B6B006AE58264036064E5826419605ED3E58282
:102B7B00941C748094805053EF14601414602014D0
:102B8B00602F2403704512212D5040ED2400802A24
:102B9B0012211850361221244031ED2410800D12D1
:102BAB0020F750271221364022ED2420F528EE8005
:102BBB000CED1220FB5014ED2430F528E434F0F525
:102BCB0027EB541F852882852783F022900002E093
:102BDB006002802F300A05752401802A1231F5120C
:102BEB0004366409701D12322DFFC3900029E09F3B
:102BFB00E5F06480F8900028E06480985005752417
:102C0B00028003E4F524E52414601D1460092402FA
:102C1B007029E4F55B8024AF5BEF3395E0FEEF6446
:102C2B000A4E7004055BD322055BAF5BEF3395E077
:102C3B00FEEF640D4E7004F55BD322C32290003778
:102C4B00E0FEA3E0FFC39405EE648094805010C3B4
:102C5B00EF9403EE64809480504EEF04F55A22906B
:102C6B000039E0FF7E007C007D0612048EEF240508
:102C7B00FFE43EFE900037E0FCA3E0FDC39FEE6453
:102C8B0080F8EC6480985020ED24FBFFEC34FFFEC1
:102C9B007C007D031204A07C007D021204A0ED4C8D
:102CAB007004755A01228000E4F55A227D407C4065
:102CBB00E4FFFE90000CE0F8A3E0F9A3E0FAA3E038
:102CCB00FB229000071206A2900007E0FCA3E0FD98
:102CDB00A3E0FEA3E022AB4DAA4EA94F020436900F
:102CEB000003E0FEA3E0FFEE3395E0FDFC22D39062
:102CFB000001E09400900000E064809480221203B5
:102D0B00937C007D0A1204A0AE04AF0522AB27AA68
:102D1B0026A925A824020658E5607013122F2664F5
:102D2B00027002800A120003400B123DE54006E4DC
:102D3B00900042F022900042E0FF541FF524FD3337
:102D4B0095E04D7016EF20E612C007123DE57E8030
:102D5B0050027E20D0E04E900042F0900042E054B2
:102D6B00E0F0AF24122F819406EE6480948050081B
:102D7B00E020E60405248003E4F524900042E045BE
:102D8B0024F02220080A90002FE0FEA3E0FF8049E8
:102D9B0012320B90003FE02FFF90003EE03EFEC34F
:102DAB00648094805003E4FEFFC3900030E09FFFEB
:102DBB0090002FE09EFEC3EF94B0EE64809484509D
:102DCB0018A3E02450FE90002FE034FB90003EF05F
:102DDB00A3CE12321A7E047FB090002FE0B5060806
:102DEB00A3E0B50703C38001D3920A227D60E4FF01
:102DFB00FE7C41AB0EAA0DA90CA80B0202DCE4FB76
:102E0B00FA78421201368F2B8E2A8D298C2822902C
:102E1B00002EE0FF3395E0FED3EF9400EE64809438
:102E2B008022AB4DAA4EA94F020436E4900035F038
:102E3B00A3F0229000357408F0A3742AF0D210226C
:102E4B0090002A7407F022D3E5259400E5246480D2
:102E5B00948022E4FDFF12240DEF64014E7038C202
:102E6B001AE550547FFFE4F550E5527004E55560C8
:102E7B0007E4F555F5528031EFC39405502BAF5352
:102E8B00EF3395E0FEC3EF940AEE6480948050021A
:102E9B0005537551808012D21AE55130E7037551F5
:102EAB0080E55020E7037550807D01E4FF123A6600
:102EBB0090005074AAF022123ACCEF6003123CBC83
:102ECB00D3E55E9400E55D648094804009E55E1572
:102EDB005E7047155D22123DBD4003E4F560C202F2
:102EEB001238E4438704438702123D09D203123898
:102EFB0013123B0F7F017E00121EE612223C300D97
:102F0B000AC20DB2013001031234A5123D8C50E4FC
:102F1B00D2021238E4E4900021F022AB4DAA4EA964
:102F2B004F02043675F009ED1206DFEC75F009A4BB
:102F3B002583F583E49322900001AB4DAA4EA94F54
:102F4B000204D6900043E0FF3395E0FED3EF9400EC
:102F5B00EE6480948022AF24EF3395E0FE22E545AA
:102F6B009526E5256480F8E5446480982274FF90EB
:102F7B00002FF0A3F022EF3395E0FEC3EF22AF2832
:102F8B00EF3395E0FEC3EF9405EE6480948022EF5F
:102F9B003395E0FE74142FF58274003EF58322AB5B
:102FAB002FAA2EA92DA82CAF37AE36AD35AC3402D7
:102FBB00023FE490001DF0A3F0A3228F338E328DDD
:102FCB00318C30223395E0FEC36480948022D3EFA2
:102FDB009416EE64809480227A0079247F0322EB8E
:102FEB00D31221265053EF14601414602014602F59
:102FFB002403704512212D5040ED2480802A12218C
:10300B001850361221244031ED2488800D1220F700
:10301B0050271221364022ED2490F528EE800CED3E
:10302B001220FB5014ED2498F528E434F0F527EB2F
:10303B005403852882852783F0228F268D279000C5
:10304B0000E0B4FF0FA3E0B4FF0A123867E490006E
:10305B0000F0A3F0900000E0FAA3E0FB7C007D04FD
:10306B00FFAE021204A0D3ED9401EC648094807F38
:10307B00004002AF268F5AD3EB9400EA6480948011
:10308B00500FE4F55A900000F0A3740AF0A3E52763
:10309B00F0228F258D26752702123DE55004D201B3
:1030AB008005120003920120191075270A301803AE
:1030BB00300107E4900022F08003123DF7900022CC
:1030CB00E0FFD3E5276480F8EF6480984019E5258D
:1030DB0060028006300106301903023BDBE49000EE
:1030EB0022F0AF261226E722AD07AC06EC12035AEC
:1030FB00122E117BA67A9B79C4783A122E0E79C8C0
:10310B00122E09C004C005C006C007E4FFFE7D7A7D
:10311B007C44AB1AAA19A918A817120136A804A93E
:10312B0005AA06AB07D007D006D005D00412023F84
:10313B00122E1179CC122E0922900044E060132438
:10314B00FE601E1460372402703D123CF640207F57
:10315B0002229000467437F09000447402F07F0115
:10316B0022900046E014F0123CF940037F012290BC
:10317B0000457410F09000447403F0800A900045F1
:10318B00E07004900044F07F00228E2E8F2F1231BE
:10319B00F590000812044F700280341231F5123290
:1031AB002DFBAAF012320B90003FE02F90003EE077
:1031BB003EC364809480C3EB952FFFEA952EFE905F
:1031CB00003EF0A3EFF0C3EE648094805007E490D0
:1031DB00003EF0A3F012321B2290002CE090002B4B
:1031EB009FEE6480F8E064809822AB4DAA4EA94F05
:1031FB0022E50A9525E5246480F8E5096480982288
:10320B0090003C7C007D10E0FEA3E0FF0204A0F0E8
:10321B00E490003CF0A3F02290003EC3E064809465
:10322B0080229000010204D6C0E0C0F0C083C082AF
:10323B00C085C084C086758600C0D075D000C00024
:10324B00C001C002C003C004C005C006C007122ED7
:10325B005E75B400D007D006D005D004D003D002E1
:10326B00D001D000D0D0D086D084D085D082D0836E
:10327B00D0F0D0E032AB077AFF900020E07041EB4A
:10328B00122FCF403B122FD9400AEF941FEE6480D0
:10329B009480402C9000191206AE00000000122FF3
:1032AB00BDEBF0A37401F0EB30E40543DF8080034A
:1032BB0053DF7F53DEF0EB540F42DEDAFE43DF02C7
:1032CB0022122E2D64017009D3308401C3928480A5
:1032DB002E123C3C5004D284802590002DE0FF330D
:1032EB0095E0FEC3EF9404EE648094805005E004F7
:1032FB00F0800CD3308401C39284E490002DF01243
:10330B002E1A4003E014F0228F261239E964024E84
:10331B00701C7F667E667D461239D4600940077F3C
:10332B00091226E78008900041E0FF123558AF26BE
:10333B001239E964034E70157FCD7ECC7D2C12398A
:10334B00D4600740057F0B0226E7755A0522C2D5CC
:10335B00E830E70FB2D5E4C39BFBE49AFAE499F9A2
:10336B00E498F8EC30E717B2D512338F1205B8E4B6
:10337B00C39BFBE49AFAE499F9E498F880031205ED
:10338B00B830D50DE4C39FFFE49EFEE49DFDE49CA5
:10339B00FC22752403752501752601123A887D08D8
:1033AB001233CE7D407F02120DD37B007A0079243D
:1033BB007D047F03120DD37D201233CE7D10E4FFED
:1033CB00020DD37B007A0079247F02120DD37B0090
:1033DB007A00792422752401E4F525F526FBFDFFFF
:1033EB00122B657B007A0079247D01E4FF120DD34B
:1033FB007D01E4FF123B6E7B02E4FDFF122FEA43DB
:10340B00B904123CBC90005074FFF0E4F550F55138
:10341B00F553F554F55522900039E0FF7E00700509
:10342B009000378030900038E004F0700690003741
:10343B00E004F07C007D0612048EEF240FFFE43EC7
:10344B00FEC3900038E09FEE6480F8900037E06494
:10345B0080984004E4F0A3F0221239F0700DAF60B5
:10346B00FEC3EF9402748094805007E4900051F0F7
:10347B008026900051E004F0E0FD3395E0FCED6414
:10348B000E4C7008EF64034E7002D322ED64104CA7
:10349B007006900051F0D322C322E4FEEEC39402D7
:1034AB0074809480503074502EF8E630E725547FAA
:1034BB00FDEE700CE5607C0560027C02AF048002BF
:1034CB007F04EDC39F50010DE65480F674502EF827
:1034DB00E64DF60E80C622AF5FEF1237CB1237DF09
:1034EB004002155F9000231237C91237DF400DEFF2
:1034FB009409EE648094805003E004F01237C612F6
:10350B0037DF400DEF940BEE648094805003E004A2
:10351B00F022752401E4F525752601E54C30E00514
:10352B007D0812354CE4FB7D037F01122B65E54CC6
:10353B0030E1057D1012354CE4FB7D047F01022B3D
:10354B00657B007A0079247F01120DD3228F277FB0
:10355B009A7E997D391239D4600B4009AF2730140C
:10356B00027F02800F7F337E337D231239D46009B3
:10357B0040077F031226E78003755A051239F06462
:10358B00027003123CE3227F05301B027F0090F197
:10359B0045EFF07F78301B027FFA90F144EFF07F1C
:1035AB0005301B027F0090F147EFF07F78301B0254
:1035BB007FFA90F146EFF090F129E0440CF0227F76
:1035CB00003002027FFF90F140EFF07F00300202EB
:1035DB007F0890F149EFF07F003002027F2A90F1D3
:1035EB0048EFF0123D6190F164E030020454EEF0CC
:1035FB00224411F022E54CC36001D3921BE54C141D
:10360B00601D14601D14601D2403701C90004CE0A1
:10361B0070167F0112386790004C7406F080097F9A
:10362B0003227F01227F02227F0022E4FFEFFD3382
:10363B0095E0FCC3ED9403EC648094805020EF3351
:10364B0095E0FC74FA2DF582743F3CF583E493FE10
:10365B00900039E0FDEEB50502C3220F80CFD322D7
:10366B00E4FFEFFD3395E0FCC3ED940DEC64809427
:10367B0080501F903F77123A5364027012EF3395CC
:10368B00E0FC903F7A123A53F544740193F5450FE1
:10369B0080D02290004FE0600314F02290004EE0A7
:1036AB00FF3395E0FE74EC2FF582743F3EF583E417
:1036BB0093FF90004FF075F009120414AFF09000D7
:1036CB004EEFF0B21E228B318A3289337FFFAB3142
:1036DB000533E533AA327002053214F9120436624F
:1036EB00077E08EF30E70725E06407FF8004EF252E
:1036FB00E0FFDEEFDDD8228F31EF64197005120485
:10370B0036F5FEEDF5FCECFFEFF5FD008531FF0026
:10371B000000000000E5FF20E0FBE53164117005BF
:10372B00E5FE12047C2275240A123AAAE4900002E8
:10373B00F0123E1EAF12AE11AD10AC0F90000C127A
:10374B0006A212219CD524E9300308122CE1700348
:10375B0075570C228E258F2612000EEF3395E0FE47
:10376B00EF64024E7003123BC2E5607008E52664FD
:10377B00014525700CE56060051200034003123B08
:10378B00DB22122CF95027EF4E700774FFF0A3F0D9
:10379B008017EF7802C333CE33CED8F924FFFFEE78
:1037AB0034FF900000F0A3EFF0900002EDF022AB9D
:1037BB004DAA4EA94F9000010204D6900022E0FFC3
:1037CB003395E0FED3EF22E5499FEE6480F8E548A0
:1037DB00648098229400EE6480948022EF14601130
:1037EB001460151460192403701CE5AC5D6017D3CD
:1037FB0022E5AD5D6010D322E5AE5D6009D322E515
:10380B00AF5D6002D322C322E4200306F5C853A8A0
:10381B00DF22F5CE75CB0B75CADB75CD5D75CC662E
:10382B0043A820F5C975CF80C20DC20BC20E75C857
:10383B009122FDFCAB3EAA3DA93CA83B02066EE4DF
:10384B00AB38AA39A93A02047CAF3FEF3395E0FEBF
:10385B0022AB3EAA3DA93CA83B02066EEF14600AC0
:10386B0014600D14701FC2048008D204C2058004BA
:10387B00D204D205123AEE7F147E00121EE6C20469
:10388B00C205123AEE22E55664036005E4F5588052
:10389B001DE55870057558018014AF58EF3395E04E
:1038AB00FED3EF9474EE648094804002D322C32243
:1038BB00AF24EF3395E0FED3E50A9FEE12320240C0
:1038CB0002D322AF25EF3395E0FEC3E50A9FEE123C
:1038DB0032025002C322A20222300214121F9C1287
:1038EB001CA512298612339D123E1EC203023731CC
:1038FB00C203123813123B8C12277412351D123A65
:10390B008822AF4B122F819420EE6480948050025A
:10391B00054BAF4AEF122F534005D54A02C2159003
:10392B000040122F514003E014F022C11541004218
:10393B000041004000C11341003A00410022004108
:10394B0000230042004700004100490041004D00A8
:10395B0001610000C2161237BAFF900028E5F0F0A3
:10396B00A3EFF07F9A7E997D997CBFAB16AA15A920
:10397B0014A8131200459000240206A28F251239B9
:10398B00E964024E70082006057F091226E7AF2571
:10399B001239E964034E700A7F053014027F02125C
:1039AB0026E722E4FFFE7C41AB0EAA0DA90CA80B67
:1039BB000202DCAB1EAA1DA91CA81B0202DCAB1663
:1039CB00AA15A914A8130202DC7C4090000CE0F8A5
:1039DB00A3E0F9A3E0FAA3E0FB0202DCAF25EF338F
:1039EB0095E0FEEF22AB4DAA4EA94F020436900094
:1039FB004CE0FF3395E0FED3EF9400EE64809480AF
:103A0B004003E014F0D3E56194007480948040028D
:103A1B00156122AB07EB3395E0FEEF25E0FDEE33AE
:103A2B00FC123DD11204A0EB14D36480F8ED64803A
:103A3B00984002D322C322E52DFB3395E0FAC3EB6A
:103A4B009406EA648094802275F009ED1206DFEC8F
:103A5B0075F009A42583F583E49322EF14600F140A
:103A6B00601114601324037013EDF452AC22EDF4C7
:103A7B0052AD22EDF452AE22EDF452AF22C2B2C2DD
:103A8B00A6C2A5C2A3C284E490002FF0A3F09000BD
:103A9B002BF0A3F0C216C217A3F090002AF02290CD
:103AAB000003747FF0A374FEF0A37480F0A3740280
:103ABB00F0E490000BF09000071206AE000000003F
:103ACB002290004DE060037F0122900002E0600332
:103ADB007F0122AB4DAA4EA94F1204367F00600224
:103AEB007F012290F164E0FF3004055307FB800354
:103AFB004307043005055307F7800343070890F18C
:103B0B0064EFF0227D01E4FF123A6690005074AA34
:103B1B00F0D21AE55130E703755180E55020E703E9
:103B2B0075508022122F42FDACF0900028E0FEA3CE
:103B3B00E0FFC39DEC6480F8EE648098500122AFE7
:103B4B0005AE0422E55614600E14600F14601024A9
:103B5B0003700F755A0322755A0222755A0122758A
:103B6B005A0422EF14600E14600F146010240370BB
:103B7B000FED42AC22ED42AD22ED42AE22ED42AF53
:103B8B0022E4FB7D027F02122B6590F121E4F09081
:103B9B00F126F090F125F090F123F022E4FFFEFDE9
:103BAB00FC900031E0F8A3E0F9A3E0FAA3E0FB22DC
:103BBB00900035E0648022900002E0701204F01255
:103BCB002CE1600BE4F55A900000F0A37408F0228E
:103BDB00122F26FF601290000712044F6005900011
:103BEB0041EFF0E4FF1226E722E55560037F002248
:103BFB00E5547002FF22AF53300105E4F554F55341
:103C0B0022900039EFF0AB4DAA4EA94F1204366447
:103C1B000160057F011226E722EFFB3395E0FAC323
:103C2B00EB9408EA648094805004EF2DFF227F0808
:103C3B002290002AE0FF7E0064067002D322EF641C
:103C4B00054EC37001D32290002AE0FF7E0064086A
:103C5B007002D322EF64074EC37001D3229000424F
:103C6B00E0FE5480FD3395E04D6007EE547FF0127B
:103C7B0026E72253DE7F007F002004027FA090F610
:103C8B0092EFF00043DE80229000407408F0E56074
:103C9B007F0070027F018F60C202021D701231F52E
:103CAB00120436640970057E107FED227E0B7F7542
:103CBB0022123DBD40067E127FC080047E007F280D
:103CCB008E5D8F5E221231F512043664097004FE8C
:103CDB007F3A227E007F322220180F20190CE556E6
:103CEB0070081237BAF54985F04822900045E0FF7D
:103CFB003395E0FED3EF9400EE64809480225388DA
:103D0B00CF5389F0438901E4F58CF58A75A882229B
:103D1B00123DD1D3EF9400EE648094804003E01405
:103D2B00F0229000447401F0E4900046F0900045BE
:103D3B007418F022300307C2AF0075FBAA2275FB83
:103D4B005500D2AF229000407402F0E5607F007006
:103D5B00027F028F602290F1297411F090F129E01B
:103D6B00541170F822E4F551F554F553F552EF0464
:103D7B00F55522900042E030E50654DFF01226E7BD
:103D8B0022E5556002D322E554C36001D322E555E9
:103D9B0064016002C322E4F555D32290004AE0701F
:103DAB0005EDF0A3EFF022FED3EF9400EE648094C8
:103DBB008022D3E56094017480948022E490004BC0
:103DCB00F090004AF02290004AE0FF3395E0FE228B
:103DDB00C21EE490004EF0A3F022E5556402C370BE
:103DEB0001D322E4900039F0FF0226E7900022E095
:103DFB00700204F022123CF64003E014F022301E55
:103E0B0003A20E22A20B225388EFD20C32D33080A6
:103E1B0001C3220218F800133ADA0012002B00102B
:103E2B00DBD6000FCC1E000ECF6C000DE44B000D4B
:103E3B000965000C3D80000B7F7C000ACE50000A08
:103E4B00290700098EC30008FEB50008781F00077C
:103E5B00FA52000784AE0007169D0006AF970006C6
:103E6B004F1C0005F4B800059FFE0005508B0005A4
:103E7B0006020004C00D00047E5D000440A900048E
:103E8B0006AC0003D02700039CE100036CA10003E8
:103E9B003F37000314720002EC280002C62F000209
:103EAB00A2630002809F000260C3000242B10002C5
:103EBB00264C00020B7B0001F2230001DA2E0001DD
:103ECB00C3870001AE19000199D2000186A0000141
:103EDB0074720001633A000152EA0001437200015F
:103EEB0034C8000126DF000119AC00010D250001CB
:103EFB000141F5F5EB3AE107D755CE1DC558BD008D
:103F0B00B50EAD7FA64C9F7098E792AC8CBB87111A
:103F1B0081AA7C82779772E46E676A1E6606621CC2
:103F2B005E5F5ACB575F541950F84DF84B1A485AED
:103F3B0045B8433340C83E773C3E3A1D3812361DD8
:103F4B00343B326D30B22F082D6F2BE62A6C2901D2
:103F5B0027A42655251323DD22B22193207F1F751D
:103F6B001E750000000000000000000000000000B3
:103F7B000000000100010000000000000000030031
:103F8B000D000009C4000004008500000A28010090
:103F9B0005029A00000AF0010006053500000B54DB
:103FAB000100070A6A00000BB801010814D50000D4
:103FBB000C1C01010952AE00000D4800010B5DC045
:103FCB00000009C40001021A0A00420C8000010A19
:103FDB005DC0000009C400010C2475000009C40079
:103FEB000101030A090708050B061F0501160D043D
:023FFB000203BF
:00000001FF
