:100000000207121F0501160D04020302282A011D12
:100010000041003C00410040004100530041004FBE
:100020000041004E0000070405060B02281D0102D6
:0A00300003020100010302020FF9B0
:10003B000221ED0203FFE86480F8E933E833601135
:10004B000460F0ED33EC337009E8FCE9FDEAFEEBFC
:10005B00FF220460DED3EB9FEA9EE99DE8C2E78CAA
:10006B00F0C2F795F0400CE8CCF8E9CDF9EACEFAFE
:10007B00EBCFFB1203CA85D0F05804700320D5B325
:10008B00E80470075002B2D502040992D5EC046063
:10009B00F7E4CCC0E0C398F8603B94186008400DBF
:1000AB00D0E0FB0203E1E4FBFAC9FC8028E830E472
:1000BB0006E4C9FBE4CAFCE830E305E4C9CACBFC9F
:1000CB00E854076010F8C3E913F9EA13FAEB13FBD2
:1000DB00EC13FCD8F130F52FC3E49CFCEF9BFFEE47
:1000EB009AFEED99FDD0E0FBEF4E4D4C701222DBEA
:1000FB0003020406EC2CFCEF33FFEE33FEED33FD75
:10010B00ED30E7EB0203E1EF2BFFEE3AFEED39FDAD
:10011B00D0E0FB50130BBB0003020409ED13FDEE03
:10012B0013FEEF13FFEC13FC0203E1EC4D6011E83F
:10013B00497017ED33EC3304600DE4FCFFFEFD2238
:10014B00E933E8330470F80203FF1203CA58046062
:10015B0009E4CC24815006285009020409284003E5
:10016B00020406C0E0EB4A7044B98006D0E0FB0203
:10017B0003F5EF4E701CBD8008EBFFEAFEE9FD8036
:10018B00EBE98DF0A4FEE5F002021FE9CDF9EAFEE2
:10019B00EBFFEF89F0A4FCE5F0CE89F0A42EFFE491
:1001AB0035F0CD89F0A42DFEE435F08067EF4E706D
:1001BB0005BD80D780C3EF8BF0A4ACF0EE8BF0A421
:1001CB002CFCE435F0F8EF8AF0A42CE5F038FCE4D5
:1001DB0033CB8DF0A42CFCE5F03BF8EE8AF0A42C8D
:1001EB00FCE5F038F8E433CF89F0A42CFCE5F038CB
:1001FB00CF3400CE89F0A42FFFE5F03EFEE433C9E7
:10020B008DF0A42EFEE5F039CD8AF0A42FFFE5F09A
:10021B003EFEE43DFD33D0E0FB50070BBB000F026D
:10022B000409EC2CFCEF33FFEE33FEED33FD020340
:10023B00E1020409EC5D046005E859047003020354
:10024B00FF1203CA580460F6EC4860F2EC7004FD30
:10025B00FEFF22C860DB2481C85009C3986002509E
:10026B00060204069850CAF582E9294B4A7005AB81
:10027B00820203F575F0007C1A7880C3EF9BEE9A2F
:10028B00ED99400DC3EF9BFFEE9AFEED99FDE84211
:10029B00F0DC23ACF0D0E0FFD0E0FED0E0FDAB8291
:1002AB0020E7101BEB60BAEC2CFCEF33FFEE33FEB8
:1002BB00ED33FD0203E1E803F830E705C0F075F01C
:1002CB0000EF2FFFEE33FEED33FD40B830E7C28079
:1002DB00AA74F8CC6480CCC86480C8F58204604FE3
:1002EB00C3EB9FF5F0EA9E42F0E99D42F0E89C4596
:1002FB00F0603C501DE5825FFFE582D313CB5BCBF7
:10030B00F42B5582FB50280ABA002409B9002008A7
:10031B00801DE5825BFBE582D313CF5FCFF4C31364
:10032B002F5582FF50090EBE00050DBD00010CC3F9
:10033B00EB9FF5F0EA9E42F0E99D42F0E89C45F018
:10034B006007CC4820E701B3EC2275F020800E75D6
:10035B00F010800575F0087D007E007F003392D58C
:10036B0030D503120628EC334010EF33FFEE33FE8B
:10037B00ED33FDEC33FCD5F0ED22E5F0247EA2D578
:10038B0013CC92E7CDCEFF22EDD2E7CD33EC3392F7
:10039B00D524814006E4FFFEFDFC22FCE4CFCECD4C
:1003AB00CC24E0501174FF80EDC3CC13CCCD13CD16
:1003BB00CE13CECF13CF0470F030D5DE020628E972
:1003CB00D2E7C933E833F892D5EDD2E7CD33EC332E
:1003DB00FC5002B2D522EC30E7100FBF000C0EBE62
:1003EB0000080DBD00040BEB6014A2D5EB13FCED64
:1003FB0092E7FD2274FFFCFDFEFF22E480F8A2D5FC
:10040B0074FF13FC7D80E480EFBB010689828A8335
:10041B00E0225002E722BBFE02E32289828A83E4B8
:10042B009322BB010CE58229F582E5833AF583E043
:10043B00225006E92582F8E622BBFE06E92582F862
:10044B00E222E58229F582E5833AF583E49322BB28
:10045B00010689828A83F0225002F722BBFE01F348
:10046B0022EF8DF0A4A8F0CF8CF0A428CE8DF0A4B1
:10047B002EFE22C2D5EC30E709B2D5E4C39DFDE4D4
:10048B009CFCEE30E715B2D5E4C39FFFE49EFE1251
:10049B0006BDC3E49DFDE49CFC80031206BD30D574
:1004AB0007C3E49FFFE49EFE22BB0110E58229F502
:1004BB0082E5833AF583E0F5F0A3E0225009E925C4
:1004CB0082F886F008E622BBFE0AE92582F8E2F5FF
:1004DB00F008E222E5832AF583E993F5F0A3E9938B
:1004EB0022BB010A89828A83F0E5F0A3F022500631
:1004FB00F709A7F01922BBFE06F3E5F009F3192261
:10050B00E88FF0A4CC8BF0A42CFCE98EF0A42CFC8F
:10051B008AF0EDA42CFCEA8EF0A4CDA8F08BF0A40D
:10052B002DCC3825F0FDE98FF0A42CCD35F0FCEB6C
:10053B008EF0A4FEA9F0EB8FF0A4CFC5F02ECD3931
:10054B00FEE43CFCEAA42DCE35F0FDE43CFC227528
:10055B00F008758200EF2FFFEE33FECD33CDCC3399
:10056B00CCC58233C5829BED9AEC99E58298400C01
:10057B00F582EE9BFEED9AFDEC99FC0FD5F0D6E4DF
:10058B00CEFBE4CDFAE4CCF9A88222B800C1B900C5
:10059B0059BA002DEC8BF084CFCECDFCE5F0CBF926
:1005AB007818EF2FFFEE33FEED33FDEC33FCEB331E
:1005BB00FB10D703994004EB99FB0FD8E5E4F9FA4C
:1005CB00227818EF2FFFEE33FEED33FDEC33FCC931
:1005DB0033C910D7059BE99A4007EC9BFCE99AF9C4
:1005EB000FD8E0E4C9FAE4CCFB2275F010EF2FFF33
:1005FB00EE33FEED33FDCC33CCC833C810D7079B9D
:10060B00EC9AE899400AED9BFDEC9AFCE899F80FFF
:10061B00D5F0DAE4CDFBE4CCFAE4C8F922C3E49FCD
:10062B00FFE49EFEE49DFDE49CFC22EB9FF5F0EACB
:10063B009E42F0E99D42F0EC6480C864809845F0DE
:10064B0022EB9FF5F0EA9E42F0E99D42F0E89C45D3
:10065B00F022E8600FECC313FCED13FDEE13FEEF7D
:10066B0013FFD8F122E493FC740193FD740293FE03
:10067B00740393FF22ECF0A3EDF0A3EEF0A3EFF0E5
:10068B0022A8828583F0D083D0821206A31206A300
:10069B001206A31206A3E473E493A3C583C5F0C5A6
:1006AB0083C8C582C8F0A3C583C5F0C583C8C582FE
:1006BB00C822BC000BBE0029EF8DF084FFADF022E9
:1006CB00E4CCF875F008EF2FFFEE33FEEC33FCEEC5
:1006DB009DEC984005FCEE9DFE0FD5F0E9E4CEFDB8
:1006EB0022EDF8F5F0EE8420D21CFEADF075F0088B
:1006FB00EF2FFFED33FD4007985006D5F0F222C3E4
:10070B0098FD0FD5F0EA2278FFE4F6D8FD900000B3
:10071B007F007E04E4F0A3DFFCDEFA758163020741
:10072B0067020A15E493A3F8E493A34003F6800150
:10073B00F208DFF48029E493A3F85407240CC8C310
:10074B0033C4540F4420C8834004F456800146F64A
:10075B00DFE4800B010204081020408090000EE4BF
:10076B007E019360BCA3FF543F30E509541FFEE4A8
:10077B0093A360010ECF54C025E060A840B8E4936A
:10078B00A3FAE493A3F8E493A3C8C582C8CAC583AC
:10079B00CAF0A3C8C582C8CAC583CADFE9DEE78031
:1007AB00BEC2D5E830E70FB2D5E4C39BFBE49AFA9F
:1007BB00E499F9E498F8EC30E717B2D51207E21296
:1007CB000596E4C39BFBE49AFAE499F9E498F88064
:1007DB000312059630D50DE4C39FFFE49EFEE49D06
:1007EB00FDE49CFC220012002B0010DBD6000FCC8A
:1007FB001E000ECF6C000DE44B000D0965000C3D87
:10080B0080000B7F7C000ACE50000A290700098E5E
:10081B00C30008FEB50008781F0007FA52000784D2
:10082B00AE0007169D0006AF9700064F1C0005F49F
:10083B00B800059FFE0005508B000506020004C0A2
:10084B000D00047E5D000440A9000406AC0003D03B
:10085B002700039CE100036CA100033F3700031446
:10086B00720002EC280002C62F0002A26300028075
:10087B009F000260C3000242B10002264C00020B33
:10088B007B0001F2230001DA2E0001C3870001AEC9
:10089B0019000199D2000186A00001747200016356
:1008AB003A000152EA00014372000134C8000126EC
:1008BB00DF000119AC00010D2500010141F5F5EB3D
:1008CB003AE107D755CE1DC558BD00B50EAD7FA675
:1008DB004C9F7098E792AC8CBB871181AA7C827776
:1008EB009772E46E676A1E6606621C5E5F5ACB5790
:1008FB005F541950F84DF84B1A485A45B8433340DA
:10090B00C83E773C3E3A1D3812361D343B326D30B3
:10091B00B22F082D6F2BE62A6C290127A42655250B
:10092B001323DD22B22193207F1F751E750000005B
:10093B0000000000000000000000000000000100AB
:10094B00010000000001000000000000000000009A
:10095B0000000003001000000ABE000000030200AC
:10096B0002020002000009C400000002020300059D
:10097B00008500000B220100010502060006029A09
:10098B0000000B8601000105010705070535000076
:10099B000BEA01000106010806080A6A00000C4E6A
:1009AB00010101070109070914D500000CB201016F
:1009BB0001080105080A341500000D480001000A62
:1009CB000000090C341500000ABE0001000C020DDA
:1009DB000B041A0A00420C80000101040000000BFA
:1009EB00341500000ABE0001000B020C0D0D24751E
:1009FB0000000ABE0001000D020B0C32352030370F
:100A0B002032332D313420303800C21812222A12F2
:100A1B0027EF5186D1611231D5122D6C1218481265
:100A2B001EF7D21A123AEFC2211200371218D21245
:100A3B00255D1228D4123619121A2212246830108E
:100A4B00E8C21020181C123ED7123370123B6712EB
:100A5B003E4C1230AC123327123B96123041D21857
:100A6B0080C7121DEE122354123D60123D69123CD9
:100A7B0036121987123EABC21880AE123FC4121A3F
:100A8B0002F1E47D08F16C7D40F16C7D047F035134
:100A9B00B07B007D20F16C7D10E4FF800851B07BB2
:100AAB00007D017F038F28120414FF14601514605E
:100ABB003914604B1460482404706C123F8C123F45
:100ACB00A48037EDF4F58275830085832985822A0E
:100ADB0085832B85822CEDF5827401F52D85822E75
:100AEB00E582F4F582752F008010123F8C752D0076
:100AFB0085822EEDF5827401F52F8582308028EDED
:100B0B00F4F582123FA4858230EDF5827401F5294C
:100B1B0085822AEFB40407EDFF7401FE8005EDF426
:100B2B00FF7E008E2B8F2C90000112042D7007ED91
:100B3B00FF7401FE8005EDF4FF7E008E318F329045
:100B4B00000212042D7007EDFF7401FE8005EDF419
:100B5B00FF7E00E52814700261F0147002816B14A3
:100B6B00700281E624036002A16AE529AB9A30E0AA
:100B7B0006E52A4BFD8004E52A5BFD8D9AE52B30BB
:100B8B00E00790F009D14A800590F009D14390F02D
:100B9B0009EDF0E52D30E004D159800590F00AD134
:100BAB003C90F00AEDF0E52F30E004D15180059038
:100BBB00F00BD13590F00BEDF0EE30E004F1F2805C
:100BCB000890F00CE0FBEF5BFD90F00CEDF0E531E5
:100BDB0030E005123FB1800590F00DF1EBAF0590C1
:100BEB00F00DEDF022E529ABA130E006E52A4BFD37
:100BFB008004E52A5BFD8DA1E52B30E00790F01911
:100C0B00D14A800590F019D14390F019EDF0E52D04
:100C1B0030E004D159800590F01AD13C90F01AEDD8
:100C2B00F0E52F30E004D151800590F01BD13590C9
:100C3B00F01BEDF0EE30E004F1F2800890F01CE0D8
:100C4B00FBEF5BFD90F01CEDF0E53130E005123F62
:100C5B00B1800590F01DF1EBAF0590F01DEDF0228A
:100C6B00E529ABA230E006E52A4BFD8004E52A5BC3
:100C7B00FD8DA2E52B30E00790F029D14A8005903D
:100C8B00F029D14390F029EDF0E52D30E004D15956
:100C9B00800590F02AD13C90F02AEDF0E52F30E062
:100CAB0004D151800590F02BD13590F02BEDF0EE67
:100CBB0030E004F1F2800890F02CE0FBEF5BFD904C
:100CCB00F02CEDF0E53130E005123FB1800590F0EE
:100CDB002DF1EBAF0590F02DEDF022E529ABA33014
:100CEB00E006E52A4BFD8004E52A5BFD8DA3E52B91
:100CFB0030E00790F039D14A800590F039D143901C
:100D0B00F039EDF0E52D30E004D159800590F03A43
:100D1B00D13C90F03AEDF0E52F30E004D151800555
:100D2B0090F03BD13590F03BEDF0EE30E008A3E0D6
:100D3B00FDEF4DFF800890F03CE0FDEF5DFF90F084
:100D4B003CEFF0E53130E009A3E0FDE5324DFF80EB
:100D5B000990F03DE0FDE5325DFF90F03DEFF022B4
:100D6B00E4F525F526F527FB7A0079257D087F0329
:100D7B0051A87B007D20123FE77D02E4FF51B07B41
:100D8B00017D01E4FFB1D27D05B1D2B1CB75250355
:100D9B00752701E41B7D03FFB1D27D0851B0D283CF
:100DAB0075DF4075DE60E4F5E9F5D1F5D375D50F48
:100DBB0075D4FF90F69274A0F012228D43DE802240
:100DCB007D017F03B1D21DEB6402605DEB640360B8
:100DDB0058EB64196053EBD3941C504DEF14601512
:100DEB001460231460312403703FEDD39405503904
:100DFB00ED2400802BEDD39407502EEDC3940340CC
:100E0B0028ED2410801AEDD39406501DEDC39401E8
:100E1B004017ED24208009EDD39406500CED2430BF
:100E2B00121FE9EB541F121FE122E0FBE5305BFDC3
:100E3B0022E0FBE52E5BFD22E0FBE52C5BFD22E0D7
:100E4B00FBE52C4BFD22A3E0FBE5304BFD22A3E0A1
:100E5B00FBE52E4BFD22B16BD1CD752503E4F526B9
:100E6B00752701F55F90F12404F090F12C74FFF0DD
:100E7B00A3F090F1357409F090F137F090F13474E0
:100E8B005FF090F136F090F126E0440CF0123083D5
:100E9B0090F129E0540C70F8C21A7D037F011220E7
:100EAB003FC21A0D7F0112203FF1E47D107F0151EB
:100EBB00B07B00123FE07B147D047F01B1D20B1D90
:100ECB00A1D2123FC4C2A2C2A2F1E47D04123FE739
:100EDB007D047F0251B090F120E4F0A3741DF090DB
:100EEB00F1237401F090F125F090F12A74FFF0904A
:100EFB00F12EF090F122E4F090F127741DF0A3F0A5
:100F0B0090F160E4F090F165F090F164741DF09055
:100F1B00F131741FF090F130743FF090F139740996
:100F2B00F090F138745FF090F141E4F090F149F0FA
:100F3B0090F140F090F148F090002D12068C0000DB
:100F4B000000121DCBC215C21490F166F090F12671
:100F5B00741DF01233187B121233117B16E4FFA1B0
:100F6B00D27F0251B07B0022D1615186120037C271
:100F7B001A123AEFC22122E4F5DE90F692F0122219
:100F8B008DE4FBB1CB752503E4F526F5277A0079C3
:100F9B00257D0851A8C21AE4FD7F0312203FC21A17
:100FAB000D7F0312203FC28322752501E4F52675C0
:100FBB002701E51330E005F1E4123FE0E4FB7D038C
:100FCB007F01B1D2E51330E1087A0079257D10510C
:100FDB00B0E4FB7D047F01A1D27B007A007925224E
:100FEB00E0FBE5325BFD22A3E0FBEF4BFD22E55E70
:100FFB00B40303E4F55EE55E146038147002018CF3
:10100B0014700201C92403600201C6D21B11E8E46B
:10101B00F529AF29EF3395E0FE74032FF5827400A9
:10102B003EF583E493FD11DDEDF00529E529B405CB
:10103B00E101C1E4F52911D6E0FFC364809480403F
:10104B000FD3EF64809496400EEF6480949F50070B
:10105B000529E529B405DFC3E52964809485501C77
:10106B0011D6E0F52864166005E528B40D04C21B03
:10107B0011E8AF28122237755E028042755E03803D
:10108B003D752D00752E00752F2871201222ADEFA6
:10109B004E602B852647852748AD28AF27AE2611F6
:1010AB00FDE4F52911D6E0B5280511DD74FEF00538
:1010BB0029E529B405EE755E018003E4F55E302168
:1010CB0009E55E64036003020FF922AF29EF339544
:1010DB00E0FE74192FF58274003EF5832253DE7FF8
:1010EB00007F00201B027FA090F692EFF00043DE02
:1010FB0080228E2A8F2B8D2C90F692E030E708E41D
:10110B00FFFEFD7C408002511931FF5108C004C025
:10111B0005C006C007E4FBFA79807845AF34AE33DF
:10112B00AD32AC3112023FD003D002D001D000124D
:10113B0001368F388E378D368C35E52C24FB607459
:10114B0024F8605924F7602C24F76013241E6002E6
:10115B0021FE85385C85375B85365A85355922519A
:10116B0008123FD7F1EE7C4512023F8F588E578DF8
:10117B00568C5522753035752F48752E03752D3EBF
:10118B0051228F548E538D528C51E4FBFA79407857
:10119B004012023F8F508E4F8D4E8C4D2275307A00
:1011AB00752FD3752E9B752D3D51228F4C8E4B8DEC
:1011BB004A8C492251105119120041C004C005C07C
:1011CB0006C007E4FFFE7DA57C435110120136D00B
:1011DB0003D002D001D00012023F31FF1227DE12E2
:1011EB00013631FF1203937B007A00795D51358E06
:1011FB00458F46228F348E338D328C3122AC2AAD03
:10120B002BEC02035AAB38AA37A936A83522AF58B4
:10121B00AE57AD56AC5522AB30AA2FA92EA82DAF89
:10122B0038AE37AD36AC3502023F8B398A3A893B43
:10123B008F3F8E3E8D3D8C3C7F2B7E007D127C0044
:10124B00710DD312064C400771167EFF7FED22E421
:10125B007F757E1E710BC312064C50067116FE7FF6
:10126B006422AB39AA3AA93B740112045AE47FF504
:10127B007EF5710BD312064C402EE4F540E540256C
:10128B00E025E024F0F582E43407F5831206707153
:10129B000DC312064C400AE54024EDFFE434FFFE7B
:1012AB00220540E540B436D5E4F540E54025E02481
:1012BB00C8F582E43408F583E493FE740193FFE4EC
:1012CB008F448E43F542F541E544F544E543F54340
:1012DB00E4F542F541AF3FAE3EAD3DAC3CAB44AA6D
:1012EB0043A942A841D312064C5009E5402423FFE1
:1012FB00E433FE220540E540B43DB07116FEFF22FB
:10130B00FDFCAB3FAA3EA93DA83C22AB39AA3AA9AA
:10131B003BE402045A7B007A00792622712091F972
:10132B00900045EEF0A3EFF071207D05D151EF65F4
:10133B002B7067E528C330E401D39204E528C33052
:10134B00E201D39202E528C330E301D39203E528EF
:10135B00C330E001D39200E528C330E501D39226D8
:10136B00E5287F0030E1027F018F63852A1320027D
:10137B0004D130800685260B85270C852914900017
:10138B0047E52BF0900046E004F07006900045E036
:10139B0004F0F1DE400F9180800BD11B756301D2FD
:1013AB001A71C391B0C21B301B07C2AF0075FBAAE9
:1013BB002275FB5500D2AF22E4FFD21B71B2E5635D
:1013CB00B401027F023000034307013002034307DD
:1013DB00043003034307083004034307103026038C
:1013EB004307208F30851431851332850B2E850CE6
:1013FB002F7B007A00792E7D05D1518F33201A096E
:10140B00900047E0B533028068201A0FC390004666
:10141B00E094A9900045E09400401B7B007A007992
:10142B002D7D007C027F1D91CBE4FC7F1D91CBE4D5
:10143B00900045F0A3F0E4F52D90004512272612FD
:10144B003CB2252DFDEC3EFC742E252DF9E4FAFB68
:10145B007F1991CB052DE52DC3940640DC900046FA
:10146B00E004F07006900045E004F0900047E5338F
:10147B00F0C21B61B2D11BC21A71C3C21B71B27510
:10148B002C64C223755F05B1871230ACF1DE5002BC
:10149B00152CE52C70F1C2AF007596AA7596557593
:1014AB00978080FE22752CFFC21B71B2C223755F21
:1014BB0004152CE52C6007B1871230AC80F380D675
:1014CB008F34E534B41905120414F5FEEDF5FCEC7C
:1014DB00FFEFF5FD008534FF000000000000E5FF85
:1014EB0020E0FBE534B41105E5FE12045A228B2CE7
:1014FB008A2D892EE4F530F531D21B71B2E4F52F2C
:10150B00B15C40FCAB2CAA2DA92E7D05D151AB2C87
:10151B00AA2DA92E90000512042DB507130531E550
:10152B003170020530C394A9E5306480948040CDBE
:10153B00D3E5319400E530648094804008E53115A3
:10154B003170021530E4F52FB15C40FCAE30AF3199
:10155B0022AE30AF317C007D0612046CEF252FFDDF
:10156B00EC3EFCAB2C7E00E52E252FF9EE352DFA4B
:10157B007F1191CB052FE52FC39406227F0A7E00A6
:10158B008E2D8F2EE4F533E52E452D60790533AE88
:10159B002DAF2E122447E47BA07A0FF9F812050B1E
:1015AB00D112C007AF33AB07E4FAF9F8D007120535
:1015BB0096D112E47FFF7EFFFDFCAB32AA31A9303E
:1015CB00A82FD312064C50C5C374FF9532F5327455
:1015DB00FF9531F531E49530F530E4952FF52FAFCC
:1015EB0032AE31AD30AC2F780812065D8F8CE53200
:1015FB00FF8F8AC212438810E58820E5033012F86A
:10160B005388CFD533D9228F328E318D308C2F2208
:10161B00E4F563751301F514D130D202C203C20095
:10162B00D226C204227B007A00792D7F04F1F5E5E6
:10163B002D600C9000031204B4F50C85F00B227591
:10164B000B00750CC8228B348A3589367FFFAB347F
:10165B000536E536AA357002053514F91204146205
:10166B00077E08EF30E70725E06407FF8004EF25CE
:10167B00E0FFDEEFDDD822F196604E14604B24F6CE
:10168B0024FD50028005123B81801BE5637017D14E
:10169B00D6F1E1600F900028E0FFA3E0900026CF89
:1016AB00F0A3EFF0D208300213D1D690000712044A
:1016BB002D601212041490003BF08009300006D10B
:1016CB0030C21A71C3E4FFF14A22F0AB08AA09A990
:1016DB000A228F27D1D690000912042D6003122FF6
:1016EB00F1F19654FE6014122763E5637007E5274A
:1016FB00B401088004F1E74002D18290003CE03055
:10170B00E70F547FD1D590000C12042DFF6002F12E
:10171B004A90003CE030E50F54DFD1D590000D121C
:10172B00042DFF6002F14AD1D690000B12042D60FC
:10173B000D5402FF90000A12042DFD123DC3228F9F
:10174B0029300506E5296404603FF1966529603967
:10175B00F1E1F52A7B007A00792BAF29F1F5E52B26
:10176B0060278B088A09890A123D8C122FD7123EEB
:10177B003EE529D394014011E529940B500BE52A42
:10178B006007122B8CFF12369F22F0AB08AA09A917
:10179B000A0204148F28E4FFFE7D40121F5F600DC8
:1017AB00400BAF283000027F04F14A801D7F9A7EE8
:1017BB00997D29121F5F60074005123E1E800BF1B9
:1017CB00967005755F068002D182F196B404031200
:1017DB003E0B22A2802290000802042DE517C36065
:1017EB0001D3227F9A7E997D9922E412045AFEEE50
:1017FB0075F00EA42442F582E43409F583E493B525
:10180B000707740112045A80040EBE0EE2AF06EFF6
:10181B0075F00EA42442F9740935F0FA7BFF22EF20
:10182B0014600E14600F1460102403700FED42ACA3
:10183B0022ED42AD22ED42AE22ED42AF22752501E3
:10184B00E4F526F527FBFDFF120DD27A0079250D65
:10185B00120AB07D01E4FF112A7B021D118043B9EE
:10186B0004316590005574FFF0E4F515F516F51885
:10187B00F519F51A22EBD39403504BEF14601514A2
:10188B0060231460312403703DEDD394055037ED84
:10189B002480802BEDD39407502CEDC3940340266A
:1018AB00ED2488801AEDD39406501BEDC3940140B0
:1018BB0015ED24908009EDD39406500AED2498F190
:1018CB00E9EB5403F1E1227D01E4FFF1F1403690A5
:1018DB000055E0FF25E0F0308003E004F090005568
:1018EB00E0FCF46003EC701D3165E4F5B4BCFF0360
:1018FB00C38001D392227B01BCFF027B02E4FDFF7C
:10190B0011800D112A302208E51630E70375168079
:10191B00E5637F8270027F85AC07302226E515B523
:10192B000421D3E51864809480400CAF18EF3395F5
:10193B00E0FE1230758009E4F518751A0175170170
:10194B00E4F515202213E516B4840EE4F516E5171D
:10195B00700475190122E4F51722E563D394014055
:10196B00077561127562C022121796B40107756173
:10197B00007562F02275610075622822123B3DEF03
:10198B0060023165D3E5629400E56194004009E59E
:10199B006215627002156122E563D394014003E482
:1019AB00F56331F34387044387021227EF1221DAE1
:1019BB0031E57F017E0012158B11D230100AC21057
:1019CB00B21930190312304112283050E5120F733F
:1019DB00E4900048F0A3F0A3F0227D01E4FF122075
:1019EB001D90005574AAF022E4F5C853A8DF1232FB
:1019FB00F6120F82120FB4B1C4C2A3C284E49000DA
:101A0B0026F0A3F0900028F0A3F0C21FC220900094
:101A1B002CF090002BF022D3900027E09400F1A83B
:101A2B009480401A12371B8E258F26C3900027E017
:101A3B009526E5256480F8F1A898500C800390005A
:101A4B0026E0F525A3E0F5267F05EF90002593FE14
:101A5B0090002BE0B5060BE526452570057408F0C4
:101A6B008002DFE690002BE0B40D004002A1329023
:101A7B001A81F8282873021AAA021ABD021AFC024C
:101A8B001B10021B39021B9E021CA4021C68021CA9
:101A9B00E0021CF2021D0D021D21021AA84102B127
:101AAB00C4C21FB1A0B18C5002A13890002B74019D
:101ABB00F022D2A3121796B4020B900028E4F0A3E5
:101ACB00741DF0801FD3E52694E8E525648094838C
:101ADB0040067E037FE88004AE25AF26900028EEFB
:101AEB00F0A3EFF0B1D3B198F1C590002B7402F0D5
:101AFB0022301402A138F1D2D2A690002A7410F031
:101B0B00A37403F022D2B290002AE0700A7F01D1B5
:101B1B00E690002B740CF0B1DC5002A13812179632
:101B2B0090002BB402047407F0227404F022D2A5A7
:101B3B00301402A138123FCE4A701090002AE07088
:101B4B0002816130E702816114F02290002A74193E
:101B5B00F0AE25AF267C007D1412047EEF2401F538
:101B6B0026E43EF525D3E52694C8B19140067525AC
:101B7B00007526C8C3EB9526EA95255004B1CB809A
:101B8B000FC3900032E09526F0900031E09525F0E0
:101B9B00D21422301402A138B1D3C3E5269FFDE540
:101BAB00259EFCD3ED94A0EC6480948F4002D22050
:101BBB00E5636002813F30207B12179624F5602489
:101BCB0014603114603E2403704A202455C3EF94F3
:101BDB00E0EE648094AE900029E050042405803A36
:101BEB00240A8036900029E02488F0900028E03405
:101BFB0013F0802E900029E024DCF0900028E034D4
:101C0B0005F0801E900029E024F4F0900028E034C9
:101C1B0001F0800E900029E0240FF0900028E034B2
:101C2B0000F0C3900029E09526E525123524400EDF
:101C3B00C2208003900028E525F0A3E526F0D214FE
:101C4B00B1D3B198900028E065257004A3E0652618
:101C5B006002A138D21F90002B7406F022D3E52628
:101C6B009402B191400690002B7404F0900031E087
:101C7B00FEA3E0FFE4FCFD7BE57A07F9F8C312064F
:101C8B004C5013201410900032E024FFF0900031E0
:101C9B00E034FFF0D214D2A522E52664024525706C
:101CAB001490002B7407F0900031F0A374F9F07FBF
:101CBB001D7E00B198E526B4FF0BE525B4FF069019
:101CCB00002B740AF0900028E065257004A3E065F2
:101CDB0026605A804BC2B200D2A5B1A090002A74E4
:101CEB0020F0A37409F022E4FFFE7D70B1E1400601
:101CFB0090002AE07037B1A0B1C4E490002AF0A3A1
:101D0B00F022F1C512379BB1E360025020C2A590BF
:101D1B00002B740BF022B18C4013D2A5B1CBD21493
:101D2B0090002B7405F02290002B740CF022AD0761
:101D3B00AC06EC12035AB1837BA67A9B79C4783A32
:101D4B00B180E4FBFA79C8B17EC004C005C006C0FF
:101D5B0007F1D9AB58AA57A956A855120136123F0D
:101D6B00D7D007D006D005D00412023FB183E4FBD5
:101D7B00FA79CC78421201368F2A8E298D288C273E
:101D8B0022D3E5269400E5256480948022B1399016
:101D9B00002D020680C2A3900031E07002A3E07018
:101DAB0009122549F1646010400EB1CB90002D1241
:101DBB00068C00000000D21422C2B2C2A5C2A62219
:101DCB00E4900031F0A3F022900028E0FEA3E0FFA6
:101DDB0022E4FFFE7D607C41AB4CAA4BA94AA8498B
:101DEB000202DC201F1C900020122349FFF150122D
:101DFB0002DC500ED22490002012068CC120000071
:101E0B0080297FCD7ECC7DCC7C3DD1DB501BE4FF8C
:101E1B00FE7D38F14E1202DC500FE4FFFE7D90B1D7
:101E2B00E160064004D2248002C22412335E4006D5
:101E3B00E4900041F022900041E0C394045004E090
:101E4B0004F022900040E0540FF5257FCD7ECC7D31
:101E5B008C7C401227E61202DC600640047F03D123
:101E6B00E67F9A7E997D69B1E150141217EE7C40A2
:101E7B00D1DB600B40097D02F1AFE4F526802DE448
:101E8B00FFFEFD7C3FD1DB5014E4FFFE7DB4B1E1DE
:101E9B00600B40097D01F1AF752601800FD3B19125
:101EAB004006E52514FF80027F008F25E526C454EC
:101EBB00F04525900040F0C3E52564809488400FE1
:101ECB00E0C4540F1470047F0480027F02D1E62219
:101EDB00AB5CAA5BA95AA8590202DC90003EEF1238
:101EEB001795640160057F0112174A22752564D28C
:101EFB00A6D2A3D219F1727F287E0012158B120085
:101F0B0037E4FFFEFDF14E1202DC60284026D2B210
:101F1B00120037E4FFFE7D84B1E1600840067F07C5
:101F2B00D1E68010B1DC6002500A7F057E001215ED
:101F3B008BD525DCC219F1725102E52570047F01A6
:101F4B00D1E6227C41AB54AA53A952A851227F9AC5
:101F5B007E997D197C40900000E0F8A3E0F9A3E0A6
:101F6B00FAA3E0FB0202DC7F003019027FFF90F145
:101F7B0040EFF07F003019027F0890F149EFF07FBE
:101F8B00003019027F2A90F148EFF012331890F1CC
:101F9B0064E030190454EEF0224411F02290002634
:101FAB00E0648022AF25F1B68F2522C3EF648094C5
:101FBB00885004EF2DFF227F08229000317408F027
:101FCB00A37459F0D214227F147E0002158BE4FF08
:101FDB00FE7D7A7C4422852982852883F022F5298F
:101FEB00E434F0F52822EF14601114601514601915
:101FFB002403701CE5AC5D6017D322E5AD5D60106A
:10200B00D322E5AE5D6009D322E5AF5D6002D3223A
:10201B00C322EF14600F14601114601324037013A8
:10202B00EDF452AC22EDF452AD22EDF452AE22EDB2
:10203B00F452AF22EF14603614605F14700201D1BA
:10204B002403600201F3EDD39405400201F3301A2F
:10205B000EA8057401088002C333D8FC428022A865
:10206B00057401088002C333D8FCF4528022EDD3EF
:10207B0094075074EDC39403406E301A0EA8057488
:10208B0001088002C333D8FC429022A805740108D2
:10209B008002C333D8FCF4529022EDD394065048FF
:1020AB00EDC394014042301A0EA80574010880025A
:1020BB00C333D8FC42A022A8057401088002C333A5
:1020CB00D8FCF452A022EDD39406501C301A0EA863
:1020DB00057401088002C333D8FC42B02211F4808E
:1020EB0002C333D8FCF452B022AF05A80774010821
:1020FB0022EF14602214603D14605824037071EDBC
:10210B00D3940540028069ED248031908002C33363
:10211B00D8FC55ACFC805DEDD394075006EDC39411
:10212B00035002804BED248831908002C333D8FCDE
:10213B0055ADFC803FEDD394065006EDC394015092
:10214B0002802DED249031908002C333D8FC55AE24
:10215B00FC8021EDD3940640028015ED2498FBE41E
:10216B0034F0FA11F48002C333D8FC55AFFC800471
:10217B00E4FEFF22EC7003FEFF228B828A83E05485
:10218B0003FF7E0022FBE434F0FAA8057401082259
:10219B00E4FDFF11FCEF64014E702FC222E51554D4
:1021AB007FFFE4F515E5177004E51A6007E4F51AEF
:1021BB00F5178018EFC394055012C3E5186480948B
:1021CB008850020518751680800231DA0219E5D2A3
:1021DB0022E51630E703751680E51520E703751524
:1021EB008022C0E0C0F0C083C082C0D075D000C0D8
:1021FB0000C001C002C003C004C005C006C0073147
:10220B009B75B400D007D006D005D004D003D00204
:10221B00D001D000D0D0D082D083D0F0D0E032C269
:10222B00AF007596AA75965553977F22AB077AA088
:10223B00900018E07042C3EB64809480403AD3EB7B
:10224B00648094964007EB6480949F402B90001120
:10225B0012068C000000005184EBF0A37401F0EB2C
:10226B0030E40543DF80800353DF7F53DEF0EB5414
:10227B000F42DEDAFE43DF0222E4900015F0A3F0FA
:10228B00A3227F0590001974FEF0A3DFFCE4F55E3A
:10229B0090001112068C000000005184F0A3F0D2C4
:1022AB0021228B2A8A2B892CE5DF30E10280429098
:1022BB000016E004F07006900015E004F090001199
:1022CB00B151AFDDEFFEADDCED9146EB2FFFEA3EFA
:1022DB00FEE93DFDE83CFC900011120680C3900026
:1022EB0016E0940A900015E064809480500743DF59
:1022FB0002E4FEFF229000117149FFE47B0AFAF918
:10230B00F81207AC900011120680900011A3A3E005
:10231B00FFA3E0AB2AAA2BA92CCF8FF01204EC90D1
:10232B000017E0AB2DAA2EA92F12045AE490001827
:10233B00F0FE7F0122900009120680900009E0FC5C
:10234B00A3E0FDA3E0FEA3E02290000DE0C39428E0
:10235B00504C121FD9F1E6F13C915F90000DE00457
:10236B00F071462528FFEE3527FEED3526FDEC35C1
:10237B0025FC90000912068090000591429156C3EE
:10238B001206365005900005914E90000791429130
:10239B0056D3120636407B900007914E80747146DF
:1023AB00FFC004C005C006C007900007E0FEA3E015
:1023BB00FBAA06EA3395E0F9F89000059142EF2B62
:1023CB00FBEE3AFAED39F9EC38F8D007D006D00528
:1023DB00D004C3EF9BFFEE9AFEED99FDEC98FC71D8
:1023EB0040FFC006C007A3E024FEFFE434FFAB07A9
:1023FB00FA3395E0F9F8D007D0061207AC7140FF1D
:10240B00EC120355F1DE12023F900000120680120F
:10241B003B1BE51EB47805751E018006E51E6002A8
:10242B00051EE51D6002151D900010E0600214F002
:10243B00E51C6002151C22E0FEA3E0FFEE3395E0E5
:10244B00FDFC22E527F0A3E528F022AB28AA27A95B
:10245B0026A825228F288E278D268C252220140234
:10246B00A14730152D90F129E054116002A147903E
:10247B00F164E030170554EFF080034410F090F155
:10248B0064E030160554FEF080034401F0C214C220
:10249B001522F18090002D121F64600C400A9000F1
:1024AB002D12068C42C80000B148121F64500A90CE
:1024BB00002D12068C00000000D3900032E0945FD8
:1024CB00900031E0940940077409F0A3745FF0B1F8
:1024DB0048121F6460054003D38001C3921690001D
:1024EB0031E07002A3E0C36001D39217E4FFFE7DDD
:1024FB00FA7C4590002DB151120136E4FBFA79803C
:10250B0078BF120045915FE4FBFA79C8784212025A
:10251B003F915F120393AD07AC06123FCEEA90F1E9
:10252B0049F0EB90F148F0ECFFEF90F141F0ED90BA
:10253B00F140F0D21590F129E04411F022E4FFFEB6
:10254B00FDFC90002D22E0F8A3E0F9A3E0FAA3E054
:10255B00FB22121796B40408850D25850E268007DD
:10256B00F1D1F52685F025121FD9900000B151F15C
:10257B003CD3EF945AEE6480948A4014D3EF9526A3
:10258B00E52512377040028001D3921CC21D8004D6
:10259B00C21CD21D123A5CE55FD39405503C9000EF
:1025AB003EE06006202503023C63900004E06002DD
:1025BB008029900053E030E1061232938F5F229016
:1025CB00004BE0600612388B8F5F22121796700457
:1025DB00E51C6003023814E4F55F22900004E0145C
:1025EB00B40B004002E12290260075F003A4C583D2
:1025FB0025F0C583730226210226330226610226AB
:10260B006702267E02268402269B0226F7022712E9
:10261B000226A20226B5900010E06002E122740FA0
:10262B00F09000047402F0221238448F5F90001077
:10263B00E06002E12290000EE0FEA3E0FFD394E7FE
:10264B00EE648094834004F135F188F1237D6412AC
:10265B00047E7D0380377D047F018038F1237D6408
:10266B0012047E90000EECF0FEA3EDF0FFF1357D31
:10267B0005801A7D067F02801B301E04F1D7E11EF8
:10268B00F1237D0A12047EAE04AF057D070237DD10
:10269B007D087F030231FD900010E0707A900004FA
:1026AB00740BF0900010741FF022900010E0FFC329
:1026BB0094195026EF54F86021C3E5469432F12E5D
:1026CB005005755F038016C3E546943EF12E500509
:1026DB00755F028008755F018003E4F55F90001061
:1026EB00E07034C21EF142EF702D8027900010E095
:1026FB007025121796FF64026003EF7003751C12AE
:10270B009000047409F022E51C60030237F5F142D6
:10271B00EF7004900004F02290000EE0FEA3E0FFA7
:10272B007C0022E54564809480227C007D0A0204B3
:10273B007E120136020393E51A14FFD36480948052
:10274B004001227F0022900004E0700BF1B9F18070
:10275B00121F50F13CF18822F142EF24FE6011145C
:10276B0060102402700E12179670097F0202174A2E
:10277B0080D4F19122E4FFFE7DC87C422290000EB2
:10278B00EEF0A3EFF022E55D6023900004E0701DF6
:10279B00F1B9D21EE546AE4530E707FF7CFF7DF66B
:1027AB008006AF467C007D0A12046CF188229000F3
:1027BB00047401121795600DE55F600690001074AC
:1027CB0008F0E4F55F229000050204B49000107449
:1027DB000AF022E4FBFA797A784422AB50AA4FA98B
:1027EB004EA84D225388CF5389F0438901E4F58CD1
:1027FB00F58AF5CE75CB0B75CADB75CD5D75CC66E1
:10280B00F5C975CF8075A8A2C210C211C21375C8C5
:10281B00912275C900B213301304D210B211325386
:10282B0088EFD21232E51A6002D322E519C3600198
:10283B00D3228F27C225E56314601B146033146009
:10284B00302403705BE527B4050211BFE527640450
:10285B00704E11AE804AE527B4050411BF804112BA
:10286B0017E75004D225803811305034755F06803D
:10287B002FE527B4040211AEE527B40213E563B4C8
:10288B000208756303755F078006756302755F0841
:10289B001217E7500BE5637F02B403027F03F1F1DC
:1028AB00AF63229000397402F0E5637F0070027F02
:1028BB00028F63229000397408F0E5637F00700289
:1028CB007F018F63C21A0213C312378A5002617ED3
:1028DB00F1798F25300502C20090003AE0FFC394D6
:1028EB000B4006EFD3940D400690003A740CF09019
:1028FB00003BE0FFC394024006EFD3940D400690DB
:10290B00003B7405F0121796F526C22390004EE09B
:10291B0060024138E52614606B14700221DC1470E0
:10292B000221BC14700221E824FA700221EE24FC6F
:10293B004002410E240E6002413890004BE06002D1
:10294B004138719DEF60024138AF25113DEF6002B8
:10295B004138E52524F9601814601A2407701920F2
:10296B0002047F05800590003BE0FF12179F800853
:10297B00123F6F8003123F82717F5003123E1E1273
:10298B0027634138E4F563123C1D501B301D04C214
:10299B0025413890003EE0640560024138E5257022
:1029AB00024138B2254138717F40024138F1DF8056
:1029BB007C20091D717F50197F0512179F121796E6
:1029CB006403606930000312163090003CE0444011
:1029DB00F0D223121F5950551216828050D1799183
:1029EB00A9804AB1F6E52564026003300B057F062A
:1029FB0012179FE5256403703490003AE0FF12171D
:102A0B004A802AE52554FEFF3395E04F600CC3E561
:102A1B0025648094845003123B81E525B4030A900E
:102A2B00003BE0FF12179F8004AF25F1F1121796C0
:102A3B00B5260B90004EE07005AF251216DDF1C9DF
:102A4B0090004EE0601571EDEF60067E007F2180F7
:102A5B00047EFF7FFF900026EE6162900039E070EC
:102A6B000330250B900026E4F0A37421F06166126D
:102A7B001796606024F5602D14604D14604024039C
:102A8B006002612AF1877194718CFF90001EE0FC4B
:102A9B00123C59EC64809840026166900026ECF081
:102AAB00A3EDF06166123E55EF24FE600624027022
:102ABB001E8071900026E4F0A37485F06166123CD1
:102ACB00C7EF7002805E8007123F434002805512B1
:102ADB003BEA6166E5146003200803E48048D39069
:102AEB000027E0940D121FA89480402FAF147E0096
:102AFB007C017DAE12046CE0FCA3E0FDCFCDCFCE0C
:102B0B00CCCE12047EEF2401FFE43EFEC3900027DF
:102B1B00E09FF0900026E09EF08040C208803C12BF
:102B2B0037B1500A74FF900026F0A3F0802D1217D6
:102B3B0096B4041BF15EB1579000264009E50FF0E7
:102B4B00A3E510F08015E50BF0A3E50CF0800CB1BC
:102B5B0066FF900026E5F0F0A3EFF0E5116014306E
:102B6B00070B718C7802F157D8FCFF80047EFF7F36
:102B7B00FF719422E51A64016002C322E4F51AD3B3
:102B8B0022900026E0FEA3E022900026EEF0A3EFB9
:102B9B00F022900053E014603A14600A146007248A
:102BAB0003703C7F0022F179EF6003123EB490007A
:102BBB0054E07007900053F0755F061217E7501F33
:102BCB009000397404F09000537401F0C21A121380
:102BDB00C3800C1217E74007717FE4900053F07F1E
:102BEB00012290004EE024FE606D147002818A1465
:102BFB00602324036002819D900010E0FED39406B5
:102C0B0040037F0122EE6002819D90004FF0A3F004
:102C1B0090004E807A91A0FF642D6004EFB42017D2
:102C2B0090004E7403F0EF900010B42D057424F057
:102C3B00801D7414F0801891A0540FFF7008900041
:102C4B00507432F08003123FB990004E7402F09032
:102C5B00004FE004F0803B900050E07019900010A2
:102C6B00E0FF700B740CF090004E7403F08023EFB8
:102C7B0030E11F7F0122900050E014F07F01229081
:102C8B000010E0700D91A090004E7003F080037463
:102C9B0004F07F002290004FE0900A069322121757
:102CAB00E792F7B1E372F79219B160F146500AACB3
:102CBB000FAD10AE04AF058000B166FDC3EF9DE50F
:102CCB00F0123770500B301908B15340048E0B8F34
:102CDB000C1217E7502120061E90003DE0600414F3
:102CEB00F0804DB152500A050CE50C7002050B80BB
:102CFB0039D207B1EC8033B1E35027200624900082
:102D0B003DE0600414F080281216D6F16FD3B15356
:102D1B00400AE50C150C7002150B8004C207B1ECD0
:102D2B00800820190B300608C20690003D7403F092
:102D3B0030190475122022E512B4010A1512300263
:102D4B0005C21A1213C322C3E50C9FEE6480F8E58B
:102D5B000B64809822AB08AA09A90A90000102040F
:102D6B00B4E4F511121327120FE47F041217F58B3D
:102D7B00088A09890AE52560291227D1F50E85F005
:102D8B000DB166F51085F00FF16FB15250048E0B3B
:102D9B008F0CF15EB1574006850F0B85100CC205E9
:102DAB008007C200D205755F06C208C206E4900018
:102DBB004BF01219DB90003D7403F0F1D790003B00
:102DCB007405F090003A740CF0E490003EF0750836
:102DDB00FF750909750A4222E51AB40202D322C310
:102DEB00227511048E0B8F0CD20622301C19301F4A
:102DFB0016F166900024E0C3940A4071E4F07F0959
:102E0B003000027F04803830245E301F35E51F70A0
:102E1B005C90001FE024DFF090001EE034FFF075A3
:102E2B001F04D3A3E094DA90001EE0648094A150B9
:102E3B003C7421F0A374DAF07F093000027F0402A6
:102E4B00174AB160FF900028E0FCA3E0FDC39FE5AB
:102E5B00F06480F8EC6480985013751F0890001E86
:102E6B00ECF0A3EDF0D21F22E4900024F022201C02
:102E7B0072201D6FE4900024F0E51B6002E145B168
:102E8B0060F1465058900025E0FD700404F0800876
:102E9B00EDC394095002E1459000257401F012270F
:102EAB00D1FDACF0D3E50E9DEC6480F8E50D6480AC
:102EBB009840068C0D8D0E800B7432250EF50EE4AA
:102ECB00350DF50DD3F14A4008B160F51085F00FC3
:102EDB002274FA2510F510E4350FF50F22E490005B
:102EEB0025F022E4900025F0F166301D0C900024B3
:102EFB00E0D394044003021682900024E0D3940A9A
:102F0B004038D3E510944DE50F64809481400C74E8
:102F1B00062510F51074FF350FF50FD3E50E94BE93
:102F2B00E50D6480948A400C74E7250EF50E74FF52
:102F3B00350DF50D9000247401F022FFAEF0C3E5C2
:102F4B00109FEE6480F8E50F64809822CEA2E71301
:102F5B00CE1322D3E50C9510E50F22900024E070E0
:102F6B000204F0229000031204B4FFAEF022E51A23
:102F7B007004E51970037F0022AF1822121796B464
:102F8B000A083004057E8A7F0622B166FFAEF02266
:102F9B00F179EF6028123A46E0B40604B227801BA1
:102FAB0030050990004CE0B4010204F090004CE0B5
:102FBB0004F0E05407F0F1E87404F0F1C922E519CC
:102FCB006009E5186005E4F519F51822E490005145
:102FDB00F0A3F022E490003EF0FF02174AE49000C9
:102FEB0010F090004B22EF24FD601C0470477FCD46
:102FFB007ECC7D5C121F5F60094007200A047F0AAC
:10300B00802D7F0902179F7FCD7ECC7D2C121F5FF9
:10301B006020401E121796601290003BF0200304B4
:10302B007F0C800590003AE0FF8004D2017F0C02F8
:10303B00174A755F0622E4FE74152EF8E630E72575
:10304B00547FFDEE700CE5637C0560027C02AF04DF
:10305B0080027F04EDC39F50010DE65480F674157A
:10306B002EF8E64DF60EBE02CF22E4F516F519F555
:10307B0018F517EF04F51A2290F145302307E411E8
:10308B00A374FA8006740511A37478F090F146F0DE
:10309B0090F129E0440CF022F090F147F090F144CC
:1030AB0022C219752D0CE55FC394065013512C5099
:1030BB0009D223752D04D219800631855002D219FD
:1030CB00301902215DE55FB409004002215D9030AB
:1030DB00E0F82828730230FB023100023100023184
:1030EB00000231080231080231290231290231294B
:1030FB00E4F560805DAF5F31758F2D8055E56030F5
:10310B00E20854806480F56080020560E56030E77A
:10311B0041E55F7F08B405027F008F2D803453603B
:10312B007FE55F64086005E55FB407047F068002F6
:10313B007F0AE560D39F4005E4F55F8015AF60051E
:10314B0060EF30E00DE55FB40705752D0480037566
:10315B002D081183AF2D90F164E054F34FF0223121
:10316B00753161121FD27F0C80ECA80774030880A5
:10317B0002C333D8FCF4540CFF22900004E060042B
:10318B00E4FF8009300D047F018002515EEF146073
:10319B002914600E14600B2403702DE4900037F09B
:1031AB008026900037E0FE640D6007BF030CEEB481
:1031BB000A08900037E004F0D322900037E004F0C7
:1031CB00E0B41004E4F0D322C3227525FF12158757
:1031DB001200377F667E667DE67C40121F5012021E
:1031EB00DC6002500CD525E5C223755F0111AC8064
:1031FB00FC228F278D28900010E030E707316AE41E
:10320B00900010F0900010E0FF7E0030E102AE273E
:10321B008E5FEF700BF55F1227D7900004E528F057
:10322B00221217967007E563C394025007E49000CF
:10323B0056F0801D900056E004F0E0FFB40E07E559
:10324B0063B40302D322EFB41007E4900056F0D31B
:10325B0022C322121796640A60037F0022300406F1
:10326B007E337F0A80047EBA7F0EC390001FE09FDF
:10327B00EE6480F890001EE064809850037F022279
:10328B007F002004027F0322900053E0640370232D
:10329B00E514540390003393F527601A900010E067
:1032AB00FF7009E51475F003A4F0800AEFB4010672
:1032BB007F0022851327E527C37001D39223E527CF
:1032CB0014601C14601C14601C2403701B900010F1
:1032DB00E070157F01316A9000107405F080097F52
:1032EB0003227F01227F02227F0022E4FB7111E483
:1032FB00FF120DD290F121E4F090F126F090F12520
:10330B00F090F123F0227D027F02020DD290F12981
:10331B007411F090F129E0541170F822121796B441
:10332B000204C2848024715E5004D284801C121764
:10333B00966401600E90002CE0C394045005E004E9
:10334B00F08007B284E490002CF090002AE0600239
:10335B0014F02290002BE0FFD394044006EF940866
:10336B00500122C322200E0BC20CD197A3F0A3F065
:10337B00C20D22715E4009121796640C6002A11BEC
:10338B00121796B40A1330040875290D752ACD80CF
:10339B000E752909752A818006752908752AFC3056
:1033AB000C0C74CB252AF52A74FA3529F529F1056D
:1033BB008E258F26D3B1E35002819AD3E5469443F1
:1033CB0012272E4002D20CC3E5469526F528E5457B
:1033DB009525F5279000387418F0D3E5289402E56D
:1033EB0027648094805002818D121796B40A1212B2
:1033FB001DD32004067C067D40800D7C087D9880C3
:10340B0007121DD37C087DFC12047E8E258F26E5CA
:10341B002530E705E4F525F5260526E5267002059A
:10342B0025C3B11C5004B12F802CE52854FC452733
:10343B006014AE25AF26E5282402FDE43527FC12E7
:10344B00046C8E258F26AC27AD28AE25AF26120433
:10345B006C900036D1E8900027E02418FF900026EE
:10346B00E034FCFED3900036E09FEE6480F89000D1
:10347B0035E06480984005900027F178900038740F
:10348B003CF0C3B11C7D0050027D017F01807FC3E6
:10349B00B1E3507CE52A24EBFFE52934FDFED39004
:1034AB000029E09FEEB1247F0040027F01AB07C3F0
:1034BB00E5269546F528E5259545F527900038E056
:1034CB00600414F0803BEB6004B12F801EE52854A0
:1034DB00FE600FC3900036E09528F0900035E09524
:1034EB0027F0900035E030E702B158300C137435FB
:1034FB00252AF52A74053529F529D3B11C4002C2BA
:10350B000C900035E030E702B158AD03E4FFB16930
:10351B0022900029E0952AE5296480F8900028E0A4
:10352B0064809822B160D1D640028016B160D1DFA1
:10353B00EF94C0EE648094837E0050047F01800280
:10354B007F00EF4E7006D1F2D1E8D19722E49000C4
:10355B0035F0A3F022900033E0FEA3E0FF228D2B89
:10356B00A907E9600CE54624C2FBE54534FFFA8068
:10357B000AC374309546FBE49545FAEA30E703E459
:10358B00FAFBB160D1D64002801CB160D1DFE49B65
:10359B00FD747D9AF16B500AE52B60067E007F016E
:1035AB0080047E007F00EF4E6009EB25E0FBEA33E1
:1035BB00FA8003E4FAFB0BBB00010AE96006AE02DA
:1035CB00AF038007C3E49BFFE49AFE900034E02F27
:1035DB00F0900033E03EF022E5469526E525648029
:1035EB00F8E54564809822AF25EF3395E0FED3E5EF
:1035FB00469FEEB1E94002D322AF26EF3395E0FEB2
:10360B00C3E5469FEEB1E95002C322A21A22E55D43
:10361B0070057F05021EE6A20B921A7525467526CC
:10362B0037B1F2920BA20A921A752541752637B162
:10363B00F2920AA20F921A752550752628B1F292B2
:10364B000F300F077F06121EE6800A90003EE0B493
:10365B000603122FDF1216D61217E17003C20E22C9
:10366B00F1058F25A20E921A75262BB1F292193005
:10367B001903D20E22201913900035E07002A3E03B
:10368B007009900033E030E702C20E22E490003361
:10369B00F0A3F0228E2C8F2D1216D61217E170028A
:1036AB008025122F87AB07AA06D1F2E02F900035A9
:1036BB00E03EC3EB952DFFEA952CFE900035F0A371
:1036CB00EFF0EE30E703E4B15980C1D39400EE6420
:1036DB00809480227CFF7DFF12046CC322E02FF0CC
:1036EB00900035E03EF022900033E0FEA3E0FF7C3B
:1036FB00007D1012047E90003622121796B40A0B2E
:10370B007E003004037F3A227F34227E007F3222F8
:10371B00200E07122B8CFFC20D22D1F2E02FFF904F
:10372B000035E03EFE30E703E4FEFFC3900027E0E8
:10373B009FFF900026E09EFEC3EF94E8EE6480941A
:10374B00835009A3F178D1977E037FE8900027E09F
:10375B002466FD900026E034FDF16B5002D20D2261
:10376B00FCC3EF9DEC6480F8EE64809822E0241893
:10377B00FE900026E034FC900035F0A3CEF02290B2
:10378B00002BE0FF64086004EFB40902D322C322CC
:10379B00121796B40C08E4FFFE7D887C4122E4FFEF
:1037AB00FE7D807C4122121796FF6402600BEF6452
:1037BB00036006E51B64036005E4F51E8012E51E3D
:1037CB007005751E018009E51ED394744002D32247
:1037DB00C322900010E07011EF4E70057480F080E2
:1037EB0003123FB9900004EDF022E51B14600E1498
:1037FB00600F1460102403700F755F0322755F0256
:10380B0022755F0122755F04221217966402600411
:10381B00D219801CE51BB40304D2198013E51D706B
:10382B0003751D52E51DD3940240028001D39219FA
:10383B0030190280B5E4F55F22900010E0FFD394BD
:10384B0009403AEF24F8C31314FF301E07E5462056
:10385B00E7020F0F201E13D390000FE094E79000A8
:10386B000EE06480948340020F0FEF3395E0FE74FB
:10387B002E2FF58274003EF583E493FF227F002206
:10388B0090004BE0B407004002410390389DF828AC
:10389B0028730238B20239F00238B50238CB02383D
:1038AB00F502390D02398A7F0022900010E0700E6C
:1038BB0090004CF0A37464F090004B7404F001443E
:1038CB005120FF701390004DE0600214F01227D7C7
:1038DB0090004B7404F04103EF20E1024103900090
:1038EB004CE07F03B407027F0222512060024103A8
:1038FB0090004CE025E025E02403122FE97403F03F
:10390B004103900010E0FE54F860037F0722EE6045
:10391B0002410390004CE06407600A122742EF64F7
:10392B00017002410390004CE0FF54FE6043EF2412
:10393B00FD601614601914601C14601F146022249F
:10394B00057021A2009227801BA20292278015A24C
:10395B00039227800FA20492278009A22692278028
:10396B00031214809000107414F051467406F04149
:10397B000390004CE02402900053F05150807412DD
:10398B002F9B122B7F504390004CE024FD601314AF
:10399B00601614601914601C2404701CA22792007A
:1039AB008016A22792028010A2279203800AA227D8
:1039BB0092048004A22792269000397404F0C21A54
:1039CB001213C3122FE804F0802E900010E0700D3C
:1039DB007414F090004DE0600C14F080087F0130FF
:1039EB0027027F0322900010E060037F062212174C
:1039FB00E74005E490004BF090004DE07014900010
:103A0B004BE054FE600C9000107406F090004B7469
:103A1B0001F07F00225127900010E022122742BFB5
:103A2B00010C90004B7405F0900010740DF0122BEC
:103A3B007F5005E490004DF0022F9B90004D7432A7
:103A4B00F090004B22E4900010F090005474F0F0D2
:103A5B0022121796640A600B752ACD7529CC75282E
:103A6B006C8008E4F52AF529752860752740E51B5D
:103A7B0014601B14603E14605A24037066AF2AAEA8
:103A8B0029AD28AC27121F615059751B0122121743
:103A9B00EE7C3EAB2AAA29A928A827120045121FA3
:103AAB006160054003E4F51BE4FFFE7D40121F5FE0
:103ABB005031802C7F9A7E997D59121F5F60054093
:103ACB0003751B017F9A7E997D39121F5F50147508
:103ADB001B03227FCD7ECC7D4C121F5F6005400304
:103AEB00751B022275250A711BE4900004F012006D
:103AFB0037AF50AE4FAD4EAC4D900000120680511B
:103B0B005CD525EA301A081217967003751C122221
:103B1B00900005747FF0A374FEF0A37480F0A3747F
:103B2B0002F0E490000DF090000912068C000000EA
:103B3B000022900053E0700690004BE060037F0181
:103B4B0022900004E0700690004EE060037F01229B
:103B5B0012179654FE7F0060027F0122E51254FE7D
:103B6B0060021512E5116005D51102C207900039EC
:103B7B00E0600214F022300311300103C20122E590
:103B8B0063700712179690003AF022E563700A12E1
:103B9B0017E7400D122DE34008C209E490003CF0FA
:103BAB002290003CE0FF541FFE7015EF20E611D26F
:103BBB0009122DE37D8050027D20EF4D90003CF0EB
:103BCB0090003CE054E0F0C3EE648094865007E034
:103BDB0020E6030E8002E4FE90003CE04EF022E56E
:103BEB001B14600A14601514601D24037023122D1E
:103BFB0060FF900026E5F0F0A3EFF0229000267412
:103C0B001AF0A3740AF022900026740AF0A3746AC7
:103C1B00F022E4FFEF90000893FE90003EE0FDEEF3
:103C2B00B50502C3220FBF03EBD32290003EE0FF8A
:103C3B007003A3F02290003FE004F091AE240FFF3D
:103C4B00E43EFEE0915C7480984002E4F022A3E035
:103C5B00FDC39FEE6480F82290003FE0FFC3940504
:103C6B00500BEFC394035037EF04F55F2290003EE7
:103C7B00E0FF91AE2405FFE43EFE9159748098500D
:103C8B001EED24FBFFEC34FFFE7D0312047E7C0053
:103C9B007D0212047EED4C7004755F01228000E4FE
:103CAB00F55F227E007C007D0612046CEF229000F3
:103CBB0052E07007EDF0900051EFF022900051E0D0
:103CCB00B407005063903CD7F8282873023CEC02F1
:103CDB003CF7023D13023D19023D28023CF7023D21
:103CEB002EE4900052F07D0B7F01803A7F02B136BB
:103CFB0050037F0122900051E0B401067D077F0243
:103D0B0080247D237F06801E7D237F0380187F0602
:103D1B00B13650037F01227D077F0480097D0B7F25
:103D2B00058003E4FDFF91B97F0022AB07EB3395D0
:103D3B00E0FEEF25E0FDEE33FC900052E0FF339503
:103D4B00E0FE12047EEB14D36480F8ED648098409F
:103D5B0002D322C322900052E0600214F022E51F2E
:103D6B006002151F900025E06008C394095003E022
:103D7B0004F0900024E06008C3940B5003E004F0BF
:103D8B0022122D60FF90001EE5F0F0A3EFF012045D
:103D9B0014B40A2320040A90001E748AF0A374063C
:103DAB00F0C21F7F337E337DB37CBF121F501200D6
:103DBB0045900020120680228D287E02122DE350A2
:103DCB0004D21980051217E79219201D0F7E0A30B5
:103DDB001C03301907E4900024F08003122F669027
:103DEB000024E0D39E4018EF6002800630190630A5
:103DFB001D03021682E4900024F0AF2812174A220A
:103E0B00201C0F201D0CE51B7008122D60F5108572
:103E1B00F00F227433FFFEFD121F5F600640047F1C
:103E2B00038009121F59600740057F0202174A756C
:103E3B005F06229000427401F0E4A3F0A37418F023
:103E4B0022900044E0600214F022900042E06017E0
:103E5B0024FE602214603C24027042900044E0D3A4
:103E6B00940040217F0222900043743CF09000426A
:103E7B007402F07F0122900043E014F0E0D3940031
:103E8B0040037F01229000447418F09000427403A9
:103E9B00F0800A900044E07004900042F07F002212
:103EAB00900054E0600214F022900053E0FEAF1338
:103EBB00B40302AF14C3EF6480948350030F8002EA
:103ECB00E4FFEEB403038F14228F132290004AE019
:103EDB00600314F022900049E0FD2480F582E43465
:103EEB002EF583E493540F90004AF0E0FFE547FE74
:103EFB00E5486FFFED65485407FDEFA80508800303
:103F0B00122F57D8FB547F900049F05428601B9018
:103F1B000048E0FFAE47E548A807088003122F577B
:103F2B00D8FB5403900048F08006900048E004F062
:103F3B00900048E05403F022302626900048E024FD
:103F4B00FE600A14601224027017A21122E5474585
:103F5B004824FF301301B322E547454824FF821163
:103F6B0022A2132290004BE070047402F17A22F02B
:103F7B00900010740FF02290004EE0700304F17A61
:103F8B0022EDF4F58275830085832985822A85834A
:103F9B002B85822CEDF4F5822275830085832D858C
:103FAB00822E85832F22A3E0FBE5324BFD22EF25EA
:103FBB00E025E014900010F022752503752601759D
:103FCB00270122900031E0FAA3E0FB22A804A90507
:103FDB00AA06AB07227D087F01020AB0E4FF120A92
:043FEB00B07B002285
:00000001FF
