:0A0000000223C9E552C36001D322B8
:10000B00023E10AF55EF3395E0FEEF24FFFFEE34C9
:0E001B00FF123DB04005E55514FF227F002284
:10002B0002002E75C900B20E300E04D20DB20B3287
:10003B000231C90203FFE86480F8E933E833601149
:10004B000460F0ED33EC337009E8FCE9FDEAFEEBFC
:10005B00FF220460DED3EB9FEA9EE99DE8C2E78CAA
:10006B00F0C2F795F0400CE8CCF8E9CDF9EACEFAFE
:10007B00EBCFFB1203CA85D0F05804700320D5B325
:10008B00E80470075002B2D502040992D5EC046063
:10009B00F7E4CCC0E0C398F8603B94186008400DBF
:1000AB00D0E0FB0203E1E4FBFAC9FC8028E830E472
:1000BB0006E4C9FBE4CAFCE830E305E4C9CACBFC9F
:1000CB00E854076010F8C3E913F9EA13FAEB13FBD2
:1000DB00EC13FCD8F130F52FC3E49CFCEF9BFFEE47
:1000EB009AFEED99FDD0E0FBEF4E4D4C701222DBEA
:1000FB0003020406EC2CFCEF33FFEE33FEED33FD75
:10010B00ED30E7EB0203E1EF2BFFEE3AFEED39FDAD
:10011B00D0E0FB50130BBB0003020409ED13FDEE03
:10012B0013FEEF13FFEC13FC0203E1EC4D6011E83F
:10013B00497017ED33EC3304600DE4FCFFFEFD2238
:10014B00E933E8330470F80203FF1203CA58046062
:10015B0009E4CC24815006285009020409284003E5
:10016B00020406C0E0EB4A7044B98006D0E0FB0203
:10017B0003F5EF4E701CBD8008EBFFEAFEE9FD8036
:10018B00EBE98DF0A4FEE5F002021FE9CDF9EAFEE2
:10019B00EBFFEF89F0A4FCE5F0CE89F0A42EFFE491
:1001AB0035F0CD89F0A42DFEE435F08067EF4E706D
:1001BB0005BD80D780C3EF8BF0A4ACF0EE8BF0A421
:1001CB002CFCE435F0F8EF8AF0A42CE5F038FCE4D5
:1001DB0033CB8DF0A42CFCE5F03BF8EE8AF0A42C8D
:1001EB00FCE5F038F8E433CF89F0A42CFCE5F038CB
:1001FB00CF3400CE89F0A42FFFE5F03EFEE433C9E7
:10020B008DF0A42EFEE5F039CD8AF0A42FFFE5F09A
:10021B003EFEE43DFD33D0E0FB50070BBB000F026D
:10022B000409EC2CFCEF33FFEE33FEED33FD020340
:10023B00E1020409EC5D046005E859047003020354
:10024B00FF1203CA580460F6EC4860F2EC7004FD30
:10025B00FEFF22C860DB2481C85009C3986002509E
:10026B00060204069850CAF582E9294B4A7005AB81
:10027B00820203F575F0007C1A7880C3EF9BEE9A2F
:10028B00ED99400DC3EF9BFFEE9AFEED99FDE84211
:10029B00F0DC23ACF0D0E0FFD0E0FED0E0FDAB8291
:1002AB0020E7101BEB60BAEC2CFCEF33FFEE33FEB8
:1002BB00ED33FD0203E1E803F830E705C0F075F01C
:1002CB0000EF2FFFEE33FEED33FD40B830E7C28079
:1002DB00AA74F8CC6480CCC86480C8F58204604FE3
:1002EB00C3EB9FF5F0EA9E42F0E99D42F0E89C4596
:1002FB00F0603C501DE5825FFFE582D313CB5BCBF7
:10030B00F42B5582FB50280ABA002409B9002008A7
:10031B00801DE5825BFBE582D313CF5FCFF4C31364
:10032B002F5582FF50090EBE00050DBD00010CC3F9
:10033B00EB9FF5F0EA9E42F0E99D42F0E89C45F018
:10034B006007CC4820E701B3EC2275F020800E75D6
:10035B00F010800575F0087D007E007F003392D58C
:10036B0030D50312064AEC334010EF33FFEE33FE69
:10037B00ED33FDEC33FCD5F0ED22E5F0247EA2D578
:10038B0013CC92E7CDCEFF22EDD2E7CD33EC3392F7
:10039B00D524814006E4FFFEFDFC22FCE4CFCECD4C
:1003AB00CC24E0501174FF80EDC3CC13CCCD13CD16
:1003BB00CE13CECF13CF0470F030D5DE02064AE950
:1003CB00D2E7C933E833F892D5EDD2E7CD33EC332E
:1003DB00FC5002B2D522EC30E7100FBF000C0EBE62
:1003EB0000080DBD00040BEB6014A2D5EB13FCED64
:1003FB0092E7FD2274FFFCFDFEFF22E480F8A2D5FC
:10040B0074FF13FC7D80E480EFC2D530F707B2D5C3
:10041B0063F0FF05F030E70CB2D5F4048463F0FF12
:10042B0005F080018430D502F40422BB01068982D9
:10043B008A83E0225002E722BBFE02E32289828AF2
:10044B0083E49322BB010CE58229F582E5833AF51F
:10045B0083E0225006E92582F8E622BBFE06E92559
:10046B0082F8E222E58229F582E5833AF583E4936B
:10047B0022BB010689828A83F0225002F722BBFE3F
:10048B0001F322EF8DF0A4A8F0CF8CF0A428CE8D31
:10049B00F0A42EFE22C2D5EC30E709B2D5E4C39D01
:1004AB00FDE49CFCEE30E715B2D5E4C39FFFE49E60
:1004BB00FE1206EBC3E49DFDE49CFC80031206EBED
:1004CB0030D507C3E49FFFE49EFE22BB0110E582FB
:1004DB0029F582E5833AF583E0F5F0A3E022500994
:1004EB00E92582F886F008E622BBFE0AE92582F8A8
:1004FB00E2F5F008E222E5832AF583E993F5F0A310
:10050B00E99322BB010A89828A83F0E5F0A3F022EA
:10051B005006F709A7F01922BBFE06F3E5F009F325
:10052B001922E88FF0A4CC8BF0A42CFCE98EF0A45C
:10053B002CFC8AF0EDA42CFCEA8EF0A4CDA8F08B59
:10054B00F0A42DCC3825F0FDE98FF0A42CCD35F09F
:10055B00FCEB8EF0A4FEA9F0EB8FF0A4CFC5F02E30
:10056B00CD39FEE43CFCEAA42DCE35F0FDE43CFC99
:10057B002275F008758200EF2FFFEE33FECD33CDE1
:10058B00CC33CCC58233C5829BED9AEC99E582982E
:10059B00400CF582EE9BFEED9AFDEC99FC0FD5F02D
:1005AB00D6E4CEFBE4CDFAE4CCF9A88222B800C1A4
:1005BB00B90059BA002DEC8BF084CFCECDFCE5F011
:1005CB00CBF97818EF2FFFEE33FEED33FDEC33FC58
:1005DB00EB33FB10D703994004EB99FB0FD8E5E401
:1005EB00F9FA227818EF2FFFEE33FEED33FDEC33E3
:1005FB00FCC933C910D7059BE99A4007EC9BFCE972
:10060B009AF90FD8E0E4C9FAE4CCFB2275F010EFAD
:10061B002FFFEE33FEED33FDCC33CCC833C810D7F0
:10062B00079BEC9AE899400AED9BFDEC9AFCE89944
:10063B00F80FD5F0DAE4CDFBE4CCFAE4C8F922C329
:10064B00E49FFFE49EFEE49DFDE49CFC22EB9FF502
:10065B00F0EA9E42F0E99D42F0EC6480C864809819
:10066B0045F022EB9FF5F0EA9E42F0E99D42F0E85F
:10067B009C45F022E8600FECC313FCED13FDEE1369
:10068B00FEEF13FFD8F122E493FC740193FD740287
:10069B0093FE740393FF22ECF0A3EDF0A3EEF0A313
:1006AB00EFF022A8828583F0D083D0821206C51288
:1006BB0006C51206C51206C5E473E493A3C583C52C
:1006CB00F0C583C8C582C8F0A3C583C5F0C583C870
:1006DB00C582C822A42582F582E5F03583F58322F5
:1006EB00BC000BBE0029EF8DF084FFADF022E4CCF3
:1006FB00F875F008EF2FFFEE33FEEC33FCEE9DECBC
:10070B00984005FCEE9DFE0FD5F0E9E4CEFD22ED01
:10071B00F8F5F0EE8420D21CFEADF075F008EF2F4B
:10072B00FFED33FD4007985006D5F0F222C398FD3C
:10073B000FD5F0EA22123C495003020A4FC20112B4
:10074B003BEB8F24900039E06009C3940D748094C7
:10075B008040069000397405F0C21B122E94B40D24
:10076B0000400302091B900778F82828730207B88A
:10077B0002079F02084D02081F02085C02086B0269
:10078B00087D02088E02089F0208B80209040208BD
:10079B00EC0208F8E4F560123D8A400302091B12D3
:1007AB0036C6500302091B123DEC02091B9000498F
:1007BB00E0700CAF241227A7E560600302091BAFA2
:1007CB0024122B08EF600302091B122EB0EF6401F9
:1007DB004E700A900039E0FF1235788005AF241275
:1007EB0032F7123D8A50057F03122826122EB0EFE6
:1007FB0064044E7010B2147F073014027F068F5AB8
:10080B00C202121DC612000EEF700302091B123B2F
:10081B00B902091BD21B7D03120A50123D8A4003F9
:10082B0002091B7F04123578122E946403700302A5
:10083B00091B3014031235B290003AE04440F00229
:10084B00091B122EB0120A9112179F121A6D020970
:10085B001B7D04120A50AF241232F77F05020918D0
:10086B007D04120A601232F77F04123D6F7F06027D
:10087B0009187D05120A601232F77F07123C5F7F61
:10088B000580257D06120A84120A917F08123C5FAF
:10089B007F0680147D07120A8412378EAF24123222
:1008AB00F77F04123C5F7F07123D6F8063122A179C
:1008BB00122EB012378E7F08123C5F122EB0EF64EF
:1008CB00024E600330090A7F053014027F021228A2
:1008DB0026122EB0EF64034E70367F0B1228268043
:1008EB002F7D0B120A721239637F0C80207D0C1244
:1008FB000A721239637F0A80147D0A7F011231223A
:10090B00122EB012378EAF241239637F0B123C5F5D
:10091B00900038E07003301D0C900027E4F0A374B6
:10092B0021F0020A26122E9424F624FD502F2404C3
:10093B0060030209E7122ED2FFAEF090003EE0FCFE
:10094B00A3E0FDC39FEE6480F8EC648098900027D1
:10095B004003020A16ECF0A3EDF0020A26E556144A
:10096B00601914602214602B24037031122ED2FFF5
:10097B00900027E5F0F0A3EFF08022900027741A87
:10098B00F0A3740AF080169000277414F0A374D5AA
:10099B00F0800A9000277405F0A37435F01204362A
:1009AB00640B7008123E074003122ED8122E94646B
:1009BB000C7009122B7DEF7003122ED8122E94643B
:1009CB000A7058123178EF24FE60062402704C80B6
:1009DB0010900027E4F0A37485F0803F1238C050CC
:1009EB0005122ED88035122E9464027021C3E5496E
:1009FB009545E5446480F8E5486480985006AE4818
:100A0B00AF498004AE44AF45900027EE8009122E0B
:100A1B00D2FF900027E5F0F0A3EFF0E54A6020301D
:100A2B001511900027E0FEA3E0FF7C007D0312046C
:100A3B00A080047EFF7FFF900027EEF0A3EFF0D2A3
:100A4B0001123BEB227F01123122AF24EF3395E0F1
:100A5B00FE12378E22E4FF123122AF24EF3395E0E2
:100A6B00FE12378EAF24227F01123122AF24EF33D7
:100A7B0095E0FE12378EAF2422E4FF123122AF2411
:100A8B00EF3395E0FE2212378EAF241232F722900D
:100A9B000027E0F524A3E0F525D3900028E094008F
:100AAB00900027E064809480401E122DAE8E268F1E
:100ABB0027D3E5259527E5266480F8E524648098FF
:100ACB004006852624852725900022E0B40C0040A3
:100ADB0003020DE1900AE6F8282873020B0D020BB6
:100AEB0058020B86020BA2020BC1020C3C020D2812
:100AFB00020D57020D80020DA5020DC5020B0A0255
:100B0B003A63C2B2C2A6C2A5C2A3C21690002DE020
:100B1B007002A3E07019FFFEFDFC900029E0F8A322
:100B2B00E0F9A3E0FAA3E0FB1202DC6011400F1224
:100B3B0029DB9000291206AE00000000D21012290A
:100B4B00F75003020DE79000227401F022D2A3D3D9
:100B5B00E52594E8E5246480948340067E037FE8D2
:100B6B008004AE24AF25900023EEF0A3EFF0120D1E
:100B7B00E81229E39000227402F022301003020DD8
:100B8B00E77F147E00121F3CD2A69000267410F053
:100B9B009000227403F022D2B212299C6008400606
:100BAB009000227404F01229BF4003020DE77F016D
:100BBB00123C03020DE1D2A5E52545247003122951
:100BCB00F090002DE0FAA3E0FB4A7018900023E0B0
:100BDB00B52409A3E0B525047F0680027F059000AC
:100BEB0022EFF022301003020DE7AE24AF257C007C
:100BFB007D191204A08E268F27D3E52794C8E526EE
:100C0B006480948040067526007527C8E52724016B
:100C1B00FFE43526FEC3EB9FFFEA9EFE90002DF00E
:100C2B00A3EFF0C3EE6480948050031229DBD21043
:100C3B0022301003020DE7E525452470031229F03D
:100C4B00900023E0FEA3E0FFC3E5259FFFE5249E74
:100C5B00FED3EF94A0EE6480948F4002D217E56030
:100C6B006003020CF7201703020CF71229D224F6AB
:100C7B00602314603014603D240370497E00301CE7
:100C8B00047F0080027F0A900024E02FF090002365
:100C9B00E03EF0803E900024E02488F0900023E0BA
:100CAB003413F0802E900024E024DCF0900023E03D
:100CBB003405F0801E900024E024F4F0900023E033
:100CCB003401F0800E900024E0240FF0900023E01C
:100CDB003400F0C3900024E09525E5246480F8905F
:100CEB000023E0648098400EC2178003900023E538
:100CFB0024F0A3E525F0D210900023E0FEA3E0FF43
:100D0B00120DE8900023E065247004A3E0652560D4
:100D1B0003020DE7D2169000227406F022E525455A
:100D2B002470041229F022E525B4FF0CE524B4FF4E
:100D3B00079000227409F022900023E065247004D0
:100D4B00A3E065257003020DE7020DDAD2A5C2B24E
:100D5B00C2A390002D7409F0A3745FF090002912C8
:100D6B0006AE00000000D2109000267418F0900020
:100D7B00227408F0227F9A7E997D791229A160084E
:100D8B004006900026E070541229DBD210C2A5C297
:100D9B00A6900026F0900022F0221229E31229D20D
:100DAB00640A600D7F667E667D8A1229A1600250FF
:100DBB002BC2A5900022740AF022E525452470036E
:100DCB001229F01229F74014D2A51229DBD2109068
:100DDB0000227405F022900022740BF022122A914B
:100DEB009000291206A2228F27120436FF146015D9
:100DFB0014602814603D14603A2404705C1221596D
:100E0B001221A08029122159F5827401F52C8582BB
:100E1B002DE582F4F582752E008013122159F4F51D
:100E2B0082752C0085822DEDF5827401F52E85825D
:100E3B002F8026ED1221A085822FEDF5827401F50E
:100E4B0028858229EF64047007EDFF7401FE80058D
:100E5B00EDF4FF7E008E2A8F2B90000112044F7051
:100E6B0007EDFF7401FE8005EDF4FF7E008E308FE1
:100E7B003190000212044F7007EDFF7401FE8005E4
:100E8B00EDF4FF7E00E527147003020F2E147003A0
:100E9B00020FB1147003021034240360030210BE5E
:100EAB00E528AB9A30E006E5294BFD8004E5295B8C
:100EBB00FD8D9AE52A30E00890F0091221C08006DA
:100ECB0090F0091221C790F009EDF0E52C30E00508
:100EDB001221B0800690F00A1221CE90F00AEDF0AC
:100EEB00E52E30E0051221B8800690F00B1221D5CB
:100EFB0090F00BEDF0EE30E0051221E4800890F05D
:100F0B000CE0FBEF5BFD90F00CEDF0E53030E00515
:100F1B001221DC800690F00D1221EBAF0590F00D45
:100F2B00EDF022E528ABA130E006E5294BFD80046E
:100F3B00E5295BFD8DA1E52A30E00890F01912211F
:100F4B00C0800690F0191221C790F019EDF0E52C36
:100F5B0030E0051221B0800690F01A1221CE90F0ED
:100F6B001AEDF0E52E30E0051221B8800690F01B4B
:100F7B001221D590F01BEDF0EE30E0051221E4804C
:100F8B000890F01CE0FBEF5BFD90F01CEDF0E53002
:100F9B0030E0051221DC800690F01D1221EBAF052D
:100FAB0090F01DEDF022E528ABA230E006E5294BD1
:100FBB00FD8004E5295BFD8DA2E52A30E00890F069
:100FCB00291221C0800690F0291221C790F029ED3B
:100FDB00F0E52C30E0051221B0800690F02A1221AA
:100FEB00CE90F02AEDF0E52E30E0051221B8800608
:100FFB0090F02B1221D590F02BEDF0EE30E0051296
:10100B0021E4800890F02CE0FBEF5BFD90F02CEDE1
:10101B00F0E53030E0051221DC800690F02D122136
:10102B00EBAF0590F02DEDF022E528ABA330E006F9
:10103B00E5294BFD8004E5295BFD8DA3E52A30E016
:10104B000890F0391221C0800690F0391221C79018
:10105B00F039EDF0E52C30E0051221B0800690F070
:10106B003A1221CE90F03AEDF0E52E30E005122148
:10107B00B8800690F03B1221D590F03BEDF0EE30AE
:10108B00E008A3E0FDEF4DFF800890F03CE0FDEFA2
:10109B005DFF90F03CEFF0E53030E009A3E0FDE5BB
:1010AB00314DFF800990F03DE0FDE5315DFF90F0A3
:1010BB003DEFF0228E298F2A8D2B90F692E030E7B0
:1010CB0008E4FFFEFD7C408008AF1AAE19AD18ACEA
:1010DB0017122FF1AC29AD2AEC12035AC004C0052C
:1010EB00C006C007E4FBFA79807845AF33AE32AD6A
:1010FB0031AC3012023FD003D002D001D00012012C
:10110B00368F378E368D358C34E52B24FB700302EE
:10111B0011AB24F8607224F7604424F76014241E8A
:10112B00600302120385371E85361D85351C8534F9
:10113B001B22AC29AD2AEC12035AA804A905AA0656
:10114B00AB077F9A7E997D997C4512023F8F2F8E3C
:10115B002E8D2D8C2C8F1A8E198D188C1722752F86
:10116B0035752E48752D03752C3E122FD58F168E87
:10117B00158D148C13E4FBFA7940784012023F8FE3
:10118B00128E118D108C0F22752F7A752ED3752D13
:10119B009B752C3D122FD58F0E8E0D8D0C8C0B222B
:1011AB00AB37AA36A935A834AF1AAE19AD18AC17A0
:1011BB00120041C004C005C006C007E4FFFE7DA5B8
:1011CB007C43AB37AA36A935A834120136D003D0ED
:1011DB0002D001D00012023F122FF1E4FBFA797A10
:1011EB007844120136122FF11203937B007A0079A7
:1011FB001F1219808E098F0A22900002E014B40985
:10120B0000400302133890121F75F003A4C5832509
:10121B00F0C5837302123A0212540212D70212DD86
:10122B000212EB0212F102130902131002132790A0
:10123B000000E07002A3E06003021338900000F09E
:10124B00A3740EF0A37402F022900000E0FEA3E062
:10125B00FFD3940CEE648094804005755A03802371
:10126B00D3EF940AEE648094804005755A02801384
:10127B00D3EF9408EE648094804005755A01800387
:10128B00E4F55AD3EF9400EE64809480400302138C
:10129B0038AF16AE15AD14AC139000101206A29019
:1012AB000010122D61FF120393AB07AA067C007D81
:1012BB00641204A0EF4E6005755A0780587C007DC0
:1012CB000AAF03AE021204A07D03802F7D047F01C1
:1012DB008030900010122D61FF122D947D05801B24
:1012EB007D067F02801CE4FFFE7D207C4190001078
:1012FB00122D4C120136122D947D070237BC7D083E
:10130B007F030230CA122D845023122D6C7F0C6088
:10131B00027F008F579000027409F022E55760039B
:10132B00023B2B12000EEF7004900002F022900093
:10133B000BE0C39428748094805069E4FFFE7D7A9F
:10134B007C44AB12AA11A910A80F120136120393F9
:10135B008F278E268D258C2490000BE004F0122D08
:10136B005E2527FFEE3526FEED3525FDEC3524FCFD
:10137B009000071206A2122D75C3122DA3500A90CE
:10138B000003E526F0A3E527F0900005122D78D396
:10139B00122DA35003021429900005E526F0A3E5B6
:1013AB0027F0807A122D5EFFC004C005C006C0076F
:1013BB00900005E0FEA3E0FBAA06EA3395E0F9F8FE
:1013CB00122D75EF2BFBEE3AFAED39F9EC38F8D01C
:1013DB0007D006D005D004C3EF9BFFEE9AFEED9924
:1013EB00FDEC98FC122D58FFC006C007A3E024FEAD
:1013FB00FFE434FFAB07FA3395E0F9F8D007D006DA
:10140B0012333D122D58FFEC120355E4FBFA797A97
:10141B00784412023F90000C1206A2123A85AF5884
:10142B00EF3395E0FEEF64784E700575580180063A
:10143B00E55860020558900000E07002A3E0600ED2
:10144B00900001E024FFF0900000E034FFF0E5573E
:10145B00600215572220080A1233E8A3F0A3F0C24A
:10146B000A22123C33400D1233E1120436640B6036
:10147B0003021581123CB38E248F25D31233C35034
:10148B000302152BE50A9525F527E5099524F52685
:10149B00755C18D3E5279402E52664809480406C34
:1014AB009000237C087DFC1233D9EF2401F525E451
:1014BB003EF524D3E50A943CE50964809480400F03
:1014CB00AE24AF257C007D0512048E8E248F25ACB7
:1014DB0026AD27AE24AF2512048E900037E02FF0F7
:1014EB00900036E03EF01233E11233F82450FFE562
:1014FB00F034FBFED3900037E09FEE6480F812339C
:10150B00FE984005EEF0A3EFF0755C3C1233F094BF
:10151B00FD5063A3E004F07006900034E004F02269
:10152B00C31233C35050C3E525950AF527E524951F
:10153B0009F526E55C6004155C8021E527547E6087
:10154B000FC3900037E09527F0900036E09526F01A
:10155B00C31233FE94805004E4F0A3F0D390003513
:10156B00E094001233F19403400CA3E024FFF090BD
:10157B000034E034FFF0227FCD7ECC7D4C7C3E12DC
:10158B003BAE5021E4FFFE7D407C41AB16AA15A972
:10159B0014A8131202DC500D7D80123B9E60064096
:1015AB0004D21C8002C21C123C334006E490003370
:1015BB00F022900033E0FF3395E0FEC3EF9404EE8E
:1015CB00648094805004E004F022900032E0540FC9
:1015DB00F5247FCD7ECC7D8C7C40AB12AA11A9105B
:1015EB00A80F1202DC600740057F03123C037F9AB1
:1015FB007E997D69123BA1501D7F9A7E997D997CC6
:10160B0040123BAE6010400E7D02AF24123C1B8F8C
:10161B0024E4F525803EE4FFFEFD7C3F123BAE50FB
:10162B00177DB4123B9E6010400E7D01AF24123C1F
:10163B001B8F24752501801CAF24EF3395E0FED35F
:10164B00EF9400EE648094804006E52414FF800242
:10165B007F008F24E525C454F04524900032F0AF71
:10166B0024EF3395E0FEC3EF9408EE648094804042
:10167B0017E0FF7804A2E713D8FB540F1470047F14
:10168B000480027F02123C032220100302179E30BB
:10169B00122E90F129E05411600302179E90F16411
:1016AB00E0300F0554EFF080034410F090F164E04C
:1016BB0030110554FEF080034401F0C210C2122217
:1016CB00E4FFFE7DC87C42123B881202DC600C40BA
:1016DB000A9000291206AE42C80000123B83120288
:1016EB00DC500A9000291206AE00000000D39000D7
:1016FB002EE0945F123B97948940077409F0A37412
:10170B005FF0C3123B9794805004E4F0A3F0123BBC
:10171B00831202DC60054003D38001C39211D39086
:10172B00002EE09400123B9794804003D38001C3BA
:10173B00920FE4FFFE7DFA7C45123B88120136E4E2
:10174B00FBFA798078BF1200458F278E268D258C6A
:10175B0024E4FBFA79C8784212023F8F278E268D3C
:10176B00258C24120393AD07AC0690002DE0FAA351
:10177B00E0FBEAFFEF90F149F0EB90F148F0ECFF62
:10178B00EF90F141F0ED90F140F0D21290F129E0A1
:10179B004411F022301803021831301903021831AA
:1017AB00E490003CF0E556600302188F1237E9FF16
:1017BB00AEF0C3123801506890003DE0FD70040498
:1017CB00F08013ED3395E0FCC3ED9409EC64809449
:1017DB0080500302188F90003D7401F090000512A9
:1017EB0004D6FDACF0D3E5479DEC6480F8E5466488
:1017FB00809840068C468D47800B74322547F54701
:10180B00E43546F546D312380140091237E9F5495C
:10181B0085F0482274FA2549F549E43548F5482204
:10182B00E490003DF022E490003DF0123DF53019BC
:10183B000F1237F59404EE648094804003023BD280
:10184B001237F5940AEE648094804038D3E54994BE
:10185B004DE54864809481400C74062549F5497424
:10186B00FF3548F548D3E54794BEE5466480948A36
:10187B00400C74E72547F54774FF3546F546900055
:10188B003C7401F022E50864037002F508E50814C6
:10189B00603E147003021930147003021970240394
:1018AB00600302196DD202123C75E4F528122FB4B5
:1018BB00501BEF3395E0FE74F42FF582743F3EF529
:1018CB0083E493FD122FCAEDF0052880E00219681E
:1018DB00E4F528122FB4501D122FC5E0FF122FFA7A
:1018EB00400F123004400EEF941FEE648094805032
:1018FB0004052880DE122FB45026122FC5E0F527E1
:10190B00FF3395E0FEEF64164E6006EF640D4E70EC
:10191B0005C202123C75AF271232167508028045BC
:10192B007508038040752C00752D00752E277B00E4
:10193B007A0079251220A4EF4E602AAD27AF26AE90
:10194B00251210BFE4F528122FB45011122FC5E049
:10195B00B52706122FCA74FEF0052880EA75080118
:10196B008003E4F508900021E06009E5086403605A
:10197B0003021890228B388A39893A8F3E8E3D8D1F
:10198B003C8C3B7FDA7E3A7D137C00D312388B4044
:10199B00081238797EFF7FEC22E47F757E1EC3121E
:1019AB00386C5007123879FE7F6422740112387A32
:1019BB00E47FF57EF5D312386C403DE4F53F1238E9
:1019CB0083C3EF9437EE64809480502CEF7802C37E
:1019DB0033CE33CED8F9241FF582743E3EF58312F5
:1019EB000692C312388B400C123883EF24ECFFEEB7
:1019FB0034FFFE22053F80C6E4F53F123883C3EF68
:101A0B00943DEE648094805053EF25E0FFEE33FE5F
:101A1B0074FB2FF582743E3EF583E493FE740193C1
:101A2B00FFE48F438E42F541F540E543F543E54234
:101A3B00F542E4F541F540AF3EAE3DAD3CAC3BABC2
:101A4B0043AA42A941A840D312066E500B12388309
:101A5B00EF2423FFE43EFE22053F809F123879FEE0
:101A6B00FF22123DE340051200035003D38001C354
:101A7B009201900001122EB8AEF0C3E5499FEE64BF
:101A8B0080F8E548648098500AAC48AD49AE04AF85
:101A9B000580008E258F26122ED2FFC3E5269FE5EB
:101AAB00F06480F8E525648098500E30010B122EFF
:101ABB00C340068525448526451200035029201373
:101ACB0026122E9D4002802CC3122EC3500A0545B0
:101ADB00E545701105448052D215754A048525449D
:101AEB00852645D2138043123DE350362013331223
:101AFB002E9D4005E014F08037900003122EB8AEF7
:101B0B00F0D3E5459FEE122EC9400AE54515457009
:101B1B000F1544800BC215754A048E448F45D213A2
:101B2B00800820010B301308C21390003B7403F0A4
:101B3B00300104E4F54B22AF4BEF3395E0FEEF643D
:101B4B00204E7007054BC202121DC622C202C203F1
:101B5B00AF5AC3EF940574809480501412344750DD
:101B6B0008D21BD203D2028007122C625002D2027F
:101B7B00300203021C2BE55AB408004003021C2D53
:101B8B00901B92F8282873021BAA021BB9021BAFE9
:101B9B00021BB5021BBD021BDD021BDD021BDDE4BC
:101BAB00F559807ED202D2038078D2038074D202A0
:101BBB008070E55930E208535980635980800205E3
:101BCB0059E5595480FF3395E04FC36001D392021E
:101BDB00805053597FAF5AEF64076007AF5AEF64D9
:101BEB000670047F0680027F0AD3EF6480F8E55904
:101BFB006480984005E4F55A8028E55975F0021287
:101C0B000414AFF0EFC36001D39201AF5AEF640637
:101C1B007006A20192038004A20192020559800270
:101C2B00C2021235EBA2029204A2039205023AC938
:101C3B00752403752501752601C2037D02E4FF128D
:101C4B001E84C2037D027F02121E847B007A007900
:101C5B00247D04E4FF120DF27B007A0079247D04CD
:101C6B007F02120DF27B127D027F02122BF07B168C
:101C7B007D02E4FF122BF090F120E4F0A3741DF031
:101C8B0090F1237401F090F125F090F12A74FFF09C
:101C9B0090F12EF090F122E4F090F127741DF0A357
:101CAB00F090F160E4F090F165F090F164741DF048
:101CBB0090F131741FF090F130743FF090F1397462
:101CCB0009F090F138745FF090F141E4F090F1403D
:101CDB00F090F149F090F148F09000291206AE0017
:101CEB00000000E490002DF0A3F0C212C21090F19E
:101CFB0066F090F126741DF0023D44E4F54A12267D
:101D0B0017E4FFEFFD3395E0FCC3ED940DEC64801D
:101D1B0094804003021DA8903F75122E81FD7C001C
:101D2B0064097020EFFB3395E0FA903F7675F0096C
:101D3B00EB1206DFEA122E89FB74019390003ECB67
:101D4B00F0A3EBF0ED64024C704FEFFD3395E0FC2C
:101D5B00903F7A122E81F546740193F547903F76AA
:101D6B00122E81F548740193F549903F78122E811C
:101D7B00FC740193FDD39545E5446480F8EC6480D5
:101D8B009840048C448D45D3E5459549E548122E82
:101D9B00C940068548448549450F021D0E90003BFE
:101DAB007403F0123DC59000397405F0E4900031D6
:101DBB00F0754DFF754E3F754F7522D203123D22C4
:101DCB00E56064017F0070027F018F2E854C2F85AB
:101DDB00442B85452C7F003014027F018F2D7B0017
:101DEB007A00792B7D0512372E8F30200209900057
:101DFB0045E0B53002807C200211C3900044E09492
:101E0B00A9900043E06480948040247B007A0079A1
:101E1B002A7D007C027F1D12375F7B007A00792AB6
:101E2B00E4FDFC7F1D12375FE4900043F0A3F0E468
:101E3B00F52AE52A123A1F5026900043E0FEA3E054
:101E4B00FF7C007D0612048EEF2BFDEE3AFC742B0B
:101E5B00252AF9E4FAFB7F1912375F052A80D39004
:101E6B000044E004F07006900043E004F09000455D
:101E7B00E530F0C203123D2222EF14603814605F8C
:101E8B00147003021F1424036003021F3B122183EF
:101E9B004003021F3B30030EA8057401088002C3E8
:101EAB0033D8FC428022A8057401088002C333D8C2
:101EBB00FCF452802212216E507612217A4071303E
:101ECB00030EA8057401088002C333D8FC4290228C
:101EDB00A8057401088002C333D8FCF45290221277
:101EEB00214D504C12218C404730030EA805740134
:101EFB00088002C333D8FC42A022A80574010880D5
:101F0B0002C333D8FCF452A022ED122151502130E0
:101F1B00030EA8057401088002C333D8FC42B0221B
:101F2B00AF05A8077401088002C333D8FCF452B084
:101F3B00228E2A8F2BE4F530F531E52B452A7003E1
:101F4B00021FF10531E53170020530AE2AAF2BEEE1
:101F5B003395E0FDFCE47BA07A0FF9F812052D8F89
:101F6B002F8E2E8D2D8C2CC006C007AE30AF31AB13
:101F7B0007AA06EA3395E0F9F8D007D0061205B8A0
:101F8B008F2F8E2E8D2D8C2CE47FFF7EFFFDFCABD7
:101F9B002FAA2EA92DA82CC312066E50A6C374FF10
:101FAB00952FF52F74FF952EF52EE4952DF52DE439
:101FBB00952CF52CAF2FAE2EAD2DAC2C7808120630
:101FCB007F8F8CE52FFF8F8AC20C438810E588200A
:101FDB00E503300CF85388CFE5311531700215301D
:101FEB00E531453070CE22E4F524F525F526FB7D51
:101FFB000812209A7B007D0112209A7D2012208EE0
:10200B007524027D0212208E7B017D01E4FF122BD1
:10201B00F07B017D05E4FF122BF07B017D017F033B
:10202B00122BF07B01E4FD7F03122BF0752403755B
:10203B002601E4FB7D03FF122BF07B007A00792451
:10204B007D08E4FF120DF2D2037D03E4FF121E8420
:10205B0075DF4075DE60E4F5E9F5D1F5D375D50F85
:10206B0075D4FF90F69274A0F0E4F5089000191265
:10207B0006AE00000000122FE8F0A3F0A304F0431B
:10208B00DE80227B007A007924E4FF120DF2227AA3
:10209B000079247F03120DF2228B298A2A892BE5E2
:1020AB00DF30E102805090001EE004F070069000DB
:1020BB001DE004F0900019E0F8A3E0F9A3E0FAA307
:1020CB00E0FBAFDDEFFEADDCEDFFEE3395E0FDFCAD
:1020DB00EB2FFFEA3EFEE93DFDE83CFC90001912B8
:1020EB0006A2C390001EE0940A90001DE064809449
:1020FB0080500743DF02E4FEFF22900019E0FCA3AF
:10210B00E0FDA3E0FEA3E0FFE47B0AFAF9F812334B
:10211B003D9000191206A2900019A3A3E0FFA3E0C3
:10212B00AB29AA2AA92BCF8FF012050E90001FE026
:10213B00AB2CAA2DA92E12047CE4900020F0FE7F7C
:10214B000122EDFF7E00D394067480948022EDF47F
:10215B00F58275830085832885822985832A85826C
:10216B002BED22EDFF7E00D394077480948022C365
:10217B00EF94037480948022EDD394057480948043
:10218B0022C3EF94017480948022FBE434F0FAA80C
:10219B000574010822F4F58275830085832C8582F2
:1021AB002D85832E22A3E0FBE52D4BFD22A3E0FB27
:1021BB00E52F4BFD22E0FBE52B4BFD22E0FBE52B56
:1021CB005BFD22E0FBE52D5BFD22E0FBE52F5BFDDC
:1021DB0022A3E0FBE5314BFD22A3E0FBEF4BFD22FD
:1021EB00E0FBE5315BFD22122D6C6409600B752958
:1021FB00CD7528CC75276C8008E4F529F528752753
:10220B0060752640E55614601E14604514606A2400
:10221B00037073AF29AE28AD27AC26122D491202DD
:10222B00DC5063755601227FCD7ECC7D4C7C3EAB62
:10223B0029AA28A927A826120045122D491202DC2B
:10224B0060054003E4F556122D421202DC50378034
:10225B00327FCD7ECC7D4C7C40122D491202DC604E
:10226B000540037556017433FFFEFD7C40122D496A
:10227B001202DC501175560322122D421202DC6041
:10228B00054003755602227D01E4FF1238164043C8
:10229B0090004CE025E0F0308003E004F090004C1F
:1022AB00E0F524AF24EFF46003EF7027123C9FE4BA
:1022BB00F5B4AF24FEEFF4D37001C3921AEFF44ED2
:1022CB007B0170027B02E4FDFF1230157D01E4FF00
:1022DB00123B4A301A08E55130E703755180E5602F
:1022EB007F8270027F858F24301A21E550B5241C24
:1022FB00AF53EF3395E0123DB04005123D538009CB
:10230B00E4F553755501755201E4F550201A13E5A8
:10231B00516484700DF551E552700475540122E43B
:10232B00F552228B2A8A2B892CE4F52EF52FD2031A
:10233B00123D22E4F52D123A1D500512239F80F613
:10234B00AB2AAA2BA92C7D0512372EAB2AAA2BA9B7
:10235B002C90000512044FB50713052FE52F7002C3
:10236B00052EC394A9E52E6480948040C6D3E52F37
:10237B009400E52E648094804008E52F152F7002A1
:10238B00152EE4F52D123A1D500512239F80F6AE43
:10239B002EAF2F22AE2EAF2F7C007D0612048EEFB8
:1023AB002BFDEE3AFCAB2AAF2DEF3395E0FEE52C7F
:1023BB002FF9E52B3EFA7F1112375F052D2278FF9F
:1023CB00E4F6D8FD9000007F007E04E4F0A3DFFC70
:1023DB00DEFA75816102241E0228A4E493A3F8E4BB
:1023EB0093A34003F68001F208DFF48029E493A362
:1023FB00F85407240CC8C333C4540F4420C883407B
:10240B0004F456800146F6DFE4800B010204081049
:10241B0020408090398AE47E019360BCA3FF543F37
:10242B0030E509541FFEE493A360010ECF54C02581
:10243B00E060A840B8E493A3FAE493A3F8E493A371
:10244B00C8C582C8CAC583CAF0A3C8C582C8CAC5D5
:10245B0083CADFE9DEE780BEEF14602214603C1410
:10246B006056240370741221834002806DED24802A
:10247B001221958002C333D8FC55ACFC806012212D
:10248B006E500512217A50028050ED24881221954E
:10249B008002C333D8FC55ADFC804312214D50054F
:1024AB0012218C50028033ED24901221958002C3AF
:1024BB0033D8FC55AEFC8026ED1221514002801A18
:1024CB00ED2498FBE434F0FAAF05A80774010880FB
:1024DB0002C333D8FC55AFFC8004E4FEFF22EC7042
:1024EB0003FEFF228B828A83E05403FF7E002212BD
:1024FB002D6C64027008854624854725800B90005F
:10250B00051204D6F52585F0247D7A7C44122D46E0
:10251B00120136120393D3EF94F6EE648094894044
:10252B00028001D39219301904C2188014D3EF958D
:10253B0025E5246480F8EE64809840028001D392F4
:10254B00181221F2AF5AD3EF940474809480502F59
:10255B00900031E06003022CD3900002E060030294
:10256B001204900049E0640170061236908F5A22D3
:10257B00122D6C7004E5576003023B2BE4F55A22D5
:10258B00E4F5DE90F692F090002104F0E4F508FFFC
:10259B00EFFD3395E0FCC3ED9405EC648094805023
:1025AB0015EF3395E0FC74142DF58274003CF58324
:1025BB0074FEF00F80DA9000191206AE00000000D6
:1025CB00122FE8F0A3F0FB7D017F03122BF0E4FB4D
:1025DB00FD7F03122BF0752403E4F525F526FB7D17
:1025EB000812300E120DF27B007D0112300E120D0F
:1025FB00F2C203E4FD7F03121E84C2037D017F033D
:10260B00121E84C2037D03E4FF021E84123E169247
:10261B00017B007A00792412232E900043EEF0A365
:10262B00EFF02001417B007A0079247D0512372ED3
:10263B00EF65297031E5277F0060027F018F608590
:10264B00284C852444852545E526C36001D3921487
:10265B00900045E529F0900044E004F070339000C1
:10266B0043E004F0802BE4F560754C011235B2C2E7
:10267B0014D202121DC6300115123E165010C21B89
:10268B007F021238967F287E00121F3C80EB123D92
:10269B0061C203023D22E51F70057F05023C03A2C8
:1026AB000992027524467525371238EA9209A2065B
:1026BB0092027524417525371238EA9206A20792C9
:1026CB000275245075252B1238EA92073007077FC5
:1026DB0006123C03800B900031E064067003123D40
:1026EB00EC1233E190000812044F7003C20822125F
:1026FB003CB38F24A208920275252D1238EA920161
:10270B00300103D20822200113900036E07002A39F
:10271B00E070091233F094805002C20822752464D1
:10272B00C201D2A6D2A3D20212365A7F287E001241
:10273B001F3C123E1CE4FFFEFD7C41AB16AA15A903
:10274B0014A8131202DC60064004D2B28008C20245
:10275B0012365A023A63123E1C7D8412299E600681
:10276B004004D201801A12299C60154013C2B27F1B
:10277B00057E00121F3CC2A3C20212365AC2A62209
:10278B007F057E00121F3C1524AF24EF1229C45085
:10279B00C57F013001027F07123C03228F25C21D2A
:1027AB00E5601460201460391460362403706B12DA
:1027BB0039C264054E7003123C8A1239C264064E4C
:1027CB007058023D331239C264054E7003023C8AC5
:1027DB001200035003D21D22123D7D503D755A0548
:1027EB00221239C264064E7003123D331239C26491
:1027FB00024E7014E56064027008756003755A062A
:10280B008006756002755A07120003500DE560646F
:10281B00037F0270027F031232F7228F28122E944D
:10282B00F52C122ED2F52B85F02AE4F529AF2912BF
:10283B002EE1940DEE64809480505D903F7575F0A1
:10284B0009EF1206DFEE122E8965287047123DC57F
:10285B00123D10123DD9AF29EF3395E0FE7C007D80
:10286B000912048E74752FF9743F3E754DFFF54EAA
:10287B00894FE52C64096009E52864097003123659
:10288B0023E52C6409700DE52864096007AF2BAEB6
:10289B002A1232AD0529809522C200123D97123CB7
:1028AB00ECD203123842123262121FF2121C3B128C
:1028BB002920121D061233811227281234C5E490E9
:1028CB000021F0123E1C1222921224FA120740121F
:1028DB0026A1120A9A121694300DE8C20D20001C84
:1028EB001236FB121460123913123DFE121B5712D3
:1028FB003070122EE9123488D20080C71215821262
:10290B001339123CFE123502123405122E181239ED
:10291B00D4C20080AE752403E4F525752601F55A63
:10292B0090F12404F090F12C74FFF0A3F090F135AA
:10293B007409F090F134745FF090F1377409F090F2
:10294B00F136745FF090F126E0440CF01235EB9009
:10295B00F129E0540C70F8C2037D037F01121E8431
:10296B00C2037D047F01121E847D101229907D0805
:10297B001229907B147D047F01122BF07B157D03B4
:10298B007F01022BF07B007A0079247F01120DF27C
:10299B00227D60E4FFFE7C41AB0EAA0DA90CA80BB7
:1029AB000202DCE4FBFA78421201368F2B8E2A8D61
:1029BB00298C2822900026E0FF3395E0FED3EF947C
:1029CB0000EE6480948022AB4DAA4EA94F020436D0
:1029DB00E490002DF0A3F02290002D7408F0A37466
:1029EB002AF0D210229000227407F022D3E525940E
:1029FB0000E5246480948022900025E0FF3395E06D
:102A0B00FE22C3EF9404EE6480948022301904D22A
:102A1B00018008301808301605C20102393C301C01
:102A2B005F301635E55F705D90003FE024DFF0907E
:102A3B00003EE034FFF0755F04D3A3E094DA90001E
:102A4B003EE0648094A1503D7421F0A374DAF07FD2
:102A5B00083014027F020228261237E9FF90002368
:102A6B00E0FCA3E0FDC39FE5F06480F8EC64809884
:102A7B005013755F0890003EECF0A3EDF0D21622D8
:102A8B00E490003CF022AD07AC06EC12035A12297D
:102A9B00B67BA67A9B79C4783A1229B379C81229E6
:102AAB00AEC004C005C006C007E4FFFE7D7A7C44BF
:102ABB00AB1AAA19A918A817120136A804A905AAB6
:102ACB0006AB07D007D006D005D00412023F12295F
:102ADB00B679CC1229AEE4FFFE7DC87C42AB2BAAA3
:102AEB002AA929A8281202DC600A4008E4FFFE7D0F
:102AFB00C87C4222AF2BAE2AAD29AC2822900049CC
:102B0B00E014602314605B24027064EFFD3395E0E6
:102B1B00FCED64074C60037F0022E4900048F075E5
:102B2B0061F0A304F08048EF6015C3E54C94037487
:102B3B008094805006E54C04FF80027F008F4CE5AB
:102B4B00617007900049F0755A05120003502090F0
:102B5B0000387404F09000497402F0C202121DC6D2
:102B6B00800D1200034008123D8AE4900049F07F6B
:102B7B000122900047E0B407005067902B8DF82896
:102B8B002873022BA2022BAD022BCB022BD1022BD3
:102B9B00E1022BAD022BE7E4900046F07D0B7F01A9
:102BAB00803D7F021239F950037F0122900047E0EC
:102BBB00640170067D077F0280257D237F06801FC1
:102BCB007D237F0380197F061239F950037F012281
:102BDB007D077F0480097D0B7F058003E4FDFF12D9
:102BEB003DA47F0022EBF5826402606AE5826403F8
:102BFB006064E5826419605ED3E582941C748094F2
:102C0B00805053EF14601414602014602F24037051
:102C1B00451221835040ED2400802A12216E50363C
:102C2B0012217A4031ED2410800D12214D502712C4
:102C3B00218C4022ED2420F528EE800CED12215141
:102C4B005014ED2430F528E434F0F527EB541F85B0
:102C5B002882852783F022900002E06002802F30CB
:102C6B000A05752401802A1233E1120436640970B7
:102C7B001D1233F8FFC390003FE09FE5F06480F82E
:102C8B0090003EE064809850057524028003E4F5C3
:102C9B0024E52414601D14600924027029E4F55BFB
:102CAB008024AF5BEF3395E0FEEF640A4E700405B2
:102CBB005BD322055BAF5BEF3395E0FEEF640D4E0C
:102CCB007004F55BD322C32290002FE0FEA3E0FF3C
:102CDB00C39405EE648094805010C3EF9403EE64AC
:102CEB00809480504EEF04F55A22900031E0FF7E25
:102CFB00007C007D0612048EEF2405FFE43EFE905F
:102D0B00002FE0FCA3E0FDC39FEE6480F8EC648031
:102D1B00985020ED24FBFFEC34FFFE7C007D03126A
:102D2B0004A07C007D021204A0ED4C7004755A01C6
:102D3B00228000E4F55A227D407C40E4FFFE9000A7
:102D4B000CE0F8A3E0F9A3E0FAA3E0FB2290000764
:102D5B001206A2900007E0FCA3E0FDA3E0FEA3E0B7
:102D6B0022AB4DAA4EA94F020436900003E0FEA3FE
:102D7B00E0FFEE3395E0FDFC22D3900001E09400E0
:102D8B00900000E064809480221203937C007D0A03
:102D9B001204A0AE04AF0522AB27AA26A925A824AE
:102DAB0002065820080A900027E0FEA3E0FF804AA5
:102DBB001233D2900037E02FFF900036E03EFEC377
:102DCB00648094805003E4FEFFC3900028E09FFFD3
:102DDB00900027E09EFEC3EF94B0EE648094845085
:102DEB0019A3E02450FE900027E034FB900036F04E
:102DFB00A3CEF01233E87E047FB0900027E0B50637
:102E0B0008A3E0B50703C38001D3920A22123AA7A5
:102E1B00EF6003123C9FD3E55E9400E55D64809404
:102E2B00804009E55E155E704C155D22123DBB407E
:102E3B0003E4F56090F500E4F0C202123AEA43872E
:102E4B0004438702123CECD203123842123B0B7F35
:102E5B00017E00121F3C122292300D0AC20DB201EC
:102E6B00300103123488123D7D50E4D202123AEA4B
:102E7B00E4900021F02275F009ED1206DFEC75F0FD
:102E8B0009A42583F583E49322AB4DAA4EA94F02E7
:102E9B00043690003BE0FF3395E0FED3EF9400EE59
:102EAB006480948022AF24EF3395E0FE22AB4DAAD1
:102EBB004EA94F1204D6FF22E5459526E5256480E1
:102ECB00F8E544648098229000010204D674FF90C8
:102EDB000027F0A3F022EF3395E0FEC3EF22E5606D
:102EEB00700F301402800A120003400B123DE340B6
:102EFB0006E490003AF02290003AE0FF541FF524CC
:102F0B00FD3395E04D7016EF20E612C007123DE33E
:102F1B007E8050027E20D0E04E90003AF090003A36
:102F2B00E054E0F0AF24122EE19406EE648094801E
:102F3B005008E020E60405248003E4F52490003AD1
:102F4B00E04524F022E4FDFF122463EF64014E7090
:102F5B0038C21AE550547FFFE4F550E5527004E592
:102F6B00556007E4F555F5528031EFC39405502BAE
:102F7B00AF53EF3395E0FEC3EF940AEE6480948079
:102F8B00500205537551808012D21AE55130E70378
:102F9B00755180E55020E7037550807D01E4FF12E9
:102FAB003A4190004C74AAF022AF28EF3395E0FE23
:102FBB00C3EF9405EE6480948022EF3395E0FE74AA
:102FCB00142FF58274003EF58322AB2FAA2EA92D68
:102FDB00A82CAF37AE36AD35AC3402023FE49000CF
:102FEB001DF0A3F0A3228F338E328D318C30223320
:102FFB0095E0FEC36480948022D3EF9416EE648038
:10300B009480227A0079247F0322EBD312217C5007
:10301B0053EF14601414602014602F2403704512B6
:10302B0021835040ED2480802A12216E50361221CC
:10303B007A4031ED2488800D12214D502712218CBE
:10304B004022ED2490F528EE800CED122151501406
:10305B00ED2498F528E434F0F527EB54038528820A
:10306B00852783F0221229D264017009D3308401A1
:10307B00C392848041123C335023900022E0640AB7
:10308B007017122A03EF64034EC37001D39284129C
:10309B002A0D501D900025800CD2848019122A0312
:1030AB00122A0D5005E004F0800CD3308401C3923A
:1030BB0084E4900025F01229BF4003E014F0228F26
:1030CB00268D27900000E0B4FF0FA3E0B4FF0A1297
:1030DB003896E4900000F0A3F0900000E0FAA3E033
:1030EB00FB7C007D04FFAE021204A0D3ED9401EC37
:1030FB00648094807F004002AF268F5AD3EB9400FC
:10310B00EA64809480500FE4F55A900000F0A374A9
:10311B000AF0A3E527F0228F258D26752702123D95
:10312B00E35004D20180051200039201201910759F
:10313B00270A301803300107E490003CF08003129B
:10314B003DF590003CE0FFD3E5276480F8EF648009
:10315B00984019E5256002800630010630190302FC
:10316B003BD2E490003CF0AF261228262290004080
:10317B00E0601324FE601E1460372402703D123C85
:10318B00D940207F02229000427437F090004074A7
:10319B0002F07F0122900042E014F0123CDC40036D
:1031AB007F01229000417410F09000407403F08076
:1031BB000A900041E07004900040F07F0022C0E0D4
:1031CB00C0F0C083C082C085C084C086758600C035
:1031DB00D075D000C000C001C002C003C004C00540
:1031EB00C006C007122F5075B400D007D006D0050B
:1031FB00D004D003D002D001D000D0D0D086D08460
:10320B00D085D082D083D0F0D0E032AB077AFF905C
:10321B000020E07041EB122FFA403B123004400AC1
:10322B00EF941FEE64809480402C9000191206AE30
:10323B0000000000122FE8EBF0A37401F0EB30E478
:10324B000543DF80800353DF7F53DEF0EB540F42E7
:10325B00DEDAFE43DF022275240375250175260194
:10326B00C2A6C2B2C2A3C2847D0812329B7D407F2C
:10327B0002120DF27B007A0079247D047F03120D7C
:10328B00F27D2012329B7D10E4FF120DF2023A63A5
:10329B007B007A0079247F02120DF27B007A007991
:1032AB0024228E2D8F2E1233E190000812044F60D2
:1032BB003A1233F8FBAAF01233D2900037E02F907A
:1032CB000036E03EC364809480C3EB952EFFEA95F5
:1032DB002DFE900036F0A3EFF0C3EE648094805087
:1032EB0007E4900036F0A3F01233E8228F26123950
:1032FB00C464024E701C7F667E667D461239AF60D9
:10330B000940077F091228268008900039E0FF1238
:10331B003578AF261239C464034E70157FCD7ECC41
:10332B007D2C1239AF600740057F0B022826755A9A
:10333B000522C2D5E830E70FB2D5E4C39BFBE49A74
:10334B00FAE499F9E498F8EC30E717B2D512337335
:10335B001205B8E4C39BFBE49AFAE499F9E498F8F4
:10336B0080031205B830D50DE4C39FFFE49EFEE445
:10337B009DFDE49CFC22752401E4F525F526FBFD5F
:10338B00FF122BF07B007A0079247D01E4FF120DF4
:10339B00F27D01E4FF123B4A7B02E4FDFF12301584
:1033AB0043B904123C9F90004C74FFF0E4F550F5C8
:1033BB0051F553F554F55522E50A9525E52464801E
:1033CB00F8E509648098229000347C007D10E0FEC3
:1033DB00A3E0FF0204A0AB4DAA4EA94F22E490003C
:1033EB0034F0A3F022C3900034E0648022900001FB
:1033FB000204D6900036E0648022900031E0FF7E1C
:10340B0000700590002F8030900030E004F07006C3
:10341B0090002FE004F07C007D0612048EEF240F49
:10342B00FFE43EFEC3900030E09FEE6480F8900016
:10343B002FE06480984004E4F0A3F0221239CB70A3
:10344B000DAF60FEC3EF9402748094805007E4903C
:10345B00004DF0802690004DE004F0E0FD3395E048
:10346B00FCED640E4C7008EF64034E7002D322ED3A
:10347B0064104C700690004DF0D322C322E4FEEE94
:10348B00C3940274809480503074502EF8E630E769
:10349B0025547FFDEE700CE5607C0560027C02AF6D
:1034AB000480027F04EDC39F50010DE65480F67437
:1034BB00502EF8E64DF60E80C622123A85E49000A7
:1034CB0002F0F524AF24EF3395E0FEC3EF9406EE44
:1034DB00648094805018123E1CAF12AE11AD10AC2C
:1034EB000F90000C1206A21221F2052480D6122D89
:1034FB006C700375570C22AF5FEF1237FA12380E50
:10350B004002155F90003D1237F812380E400DEF58
:10351B009409EE648094805003E004F01237F512A6
:10352B00380E400DEF940BEE648094805003E00452
:10353B00F022752401E4F525752601E54C30E005F4
:10354B007D0812356CE4FB7D037F01122BF0E54CFB
:10355B0030E1057D1012356CE4FB7D047F01022BFD
:10356B00F07B007A0079247F01120DF2228F277FE6
:10357B009A7E997D391239AF600B4009AF27301411
:10358B00027F02800F7F337E337D231239AF6009B8
:10359B0040077F031228268003755A051239CB6426
:1035AB00027003123CC622754400754564E4FFEFBC
:1035BB00FD3395E0FCC3ED940DEC64809480501FBB
:1035CB00903F75123A2E64027012EF3395E0FC9027
:1035DB003F78123A2EF544740193F5450F80D022B3
:1035EB007F05301B027F0090F145EFF07F78301B99
:1035FB00027FFA90F144EFF07F05301B027F0090C1
:10360B00F147EFF07F78301B027FFA90F146EFF035
:10361B0090F129E0440CF022C2167466FFFEFD7C8B
:10362B004090000CE0F8A3E0F9A3E0FAA3E0FB1252
:10363B0002DC6010400E1237E9FF90003EE5F0F01F
:10364B00A3EFF02290003E7441F0A3741AF0227F96
:10365B00003002027FFF90F140EFF07F003002025A
:10366B007F0890F149EFF07F003002027F2A90F142
:10367B0048EFF0123D4490F164E030020454EEF058
:10368B00224411F022E54CC36001D3921BE54C148C
:10369B00601D14601D14601D2403701C900048E015
:1036AB0070167F011238969000487406F080097FDF
:1036BB0003227F01227F02227F0022E4FFEFFD33F2
:1036CB0095E0FCC3ED9403EC648094805020EF33C1
:1036DB0095E0FC74F92DF582743F3CF583E493FE81
:1036EB00900031E0FDEEB50502C3220F80CFD3224F
:1036FB0090004BE0600314F02290004AE0FF3395FA
:10370B00E0FE74EA2FF582743F3EF583E493FF905D
:10371B00004BF075F00A120414AFF090004AEFF072
:10372B00B21E228B318A3289337FFFAB310533E5F1
:10373B0033AA327002053214F912043662077E087E
:10374B00EF30E70725E06407FF8004EF25E0FFDE9D
:10375B00EFDDD8228F31EF64197005120436F5FEB8
:10376B00EDF5FCECFFEFF5FD008531FF00000000EF
:10377B000000E5FF20E0FBE53164117005E5FE126A
:10378B00047C228E258F2612000EEF3395E0FEEF80
:10379B0064024E7003123BB9E5607008E5266401C4
:1037AB004525700CE56060051200034003123BD207
:1037BB0022122D845027EF4E700774FFF0A3F08078
:1037CB0017EF7802C333CE33CED8F924FFFFEE3494
:1037DB00FF900000F0A3EFF0900002EDF022AB4D54
:1037EB00AA4EA94F9000010204D690003CE0FF3393
:1037FB0095E0FED3EF22E5499FEE6480F8E548643F
:10380B008098229400EE6480948022EF146011144F
:10381B0060151460192403701CE5AC5D6017D3228E
:10382B00E5AD5D6010D322E5AE5D6009D322E5AF57
:10383B005D6002D322C322E4200306F5C853A8DF40
:10384B0022F5CE75CB0B75CADB75CD5D75CC66439A
:10385B00A820F5C975CF80C20DC20BC20E75C891D9
:10386B0022FDFCAB3EAA3DA93CA83B02066EE4AB95
:10387B0038AA39A93A02047CAF3FEF3395E0FE2218
:10388B00AB3EAA3DA93CA83B02066EEF14600A149E
:10389B00600D14701FC2048008D204C2058004D2CC
:1038AB0004D205123AC97F147E00121F3CC204C217
:1038BB0005123AC922E55664036005E4F558801DEC
:1038CB00E55870057558018014AF58EF3395E0FE3D
:1038DB00D3EF9474EE648094804002D322C322AF62
:1038EB0024EF3395E0FED3E50A9FEE1233C9400275
:1038FB00D322AF25EF3395E0FEC3E50A9FEE1233DB
:10390B00C95002C322A20222AF4B122EE19420EE29
:10391B00648094805002054BAF4AEF122EA24005F3
:10392B00D54A02C215900038122EA04003E014F0C5
:10393B0022123DF57F0A3001027F0290003CE0FE2F
:10394B00C3EF6480F8EE648098400CE4F07F08309D
:10395B0014027F02122826228F251239C464024ECC
:10396B0070082006057F09122826AF251239C4647A
:10397B00034E700A7F053014027F0212282622C1E3
:10398B001541003800C1134100320041003C004199
:10399B00003D00420043000041004500410049004A
:1039AB00016100007C4090000CE0F8A3E0F9A3E07B
:1039BB00FAA3E0FB0202DCAF25EF3395E0FEEF222A
:1039CB00AB4DAA4EA94F020436900048E0FF339549
:1039DB00E0FED3EF9400EE648094804003E014F09B
:1039EB00D3E5619400748094804002156122AB078B
:1039FB00EB3395E0FEEF25E0FDEE33FC123DCF12ED
:103A0B0004A0EB14D36480F8ED6480984002D322B9
:103A1B00C322E52DFB3395E0FAC3EB9406EA6480F1
:103A2B0094802275F009ED1206DFEC75F009A425E0
:103A3B0083F583E49322EF14600F14601114601369
:103A4B0024037013EDF452AC22EDF452AD22EDF4DD
:103A5B0052AE22EDF452AF22C2B2C2A6C2A5C2A38D
:103A6B00C284E4900027F0A3F0900023F0A3F0C2EF
:103A7B0016C217A3F0900022F022900003747FF07F
:103A8B00A374FEF0A37480F0A37402F0E490000B17
:103A9B00F09000071206AE0000000022900049E0F3
:103AAB0060037F0122900002E060037F0122AB4D97
:103ABB00AA4EA94F1204367F0060027F012290F1BB
:103ACB0064E0FF3004055307FB8003430704300514
:103ADB00055307F7800343070890F164EFF022309A
:103AEB00020C121FF2121C3B122920023262C2037B
:103AFB00123842123B6812258B12353D123A632263
:103B0B007D01E4FF123A4190004C74AAF0D21AE501
:103B1B005130E703755180E55020E7037550802243
:103B2B00E55614600E14600F1460102403700F75AB
:103B3B005A0322755A0222755A0122755A0422EF32
:103B4B0014600E14600F1460102403700FED42AC60
:103B5B0022ED42AD22ED42AE22ED42AF22E4FB7DDF
:103B6B00027F02122BF090F121E4F090F126F090FD
:103B7B00F125F090F123F022E4FFFEFDFC900029EB
:103B8B00E0F8A3E0F9A3E0FAA3E0FB2290002DE01C
:103B9B00648022E4FFFE7C41AB0EAA0DA90CA80B9E
:103BAB000202DCAB1EAA1DA91CA81B0202DC9000A2
:103BBB0002E0701204F0122D6C600BE4F55A9000C9
:103BCB0000F0A37408F022122E94FF6012900007ED
:103BDB0012044F6005900039EFF0E4FF1228262203
:103BEB00E55560037F0022E5547002FF22AF53308E
:103BFB000105E4F554F55322900031EFF0AB4DAADB
:103C0B004EA94F120436640160057F01122826224B
:103C1B00EFFB3395E0FAC3EB9408EA648094805091
:103C2B0004EF2DFF227F0822900022E0FF7E00642C
:103C3B00067002D322EF64054EC37001D3229000AD
:103C4B0022E0FF7E0064087002D322EF64074EC3AC
:103C5B007001D32290003AE0FE5480FD3395E04D85
:103C6B006007EE547FF01228262253DE7F007F0080
:103C7B002002027FA090F692EFF00043DE802290AC
:103C8B0000387408F0E5607F0070027F018F60C21E
:103C9B0002021DC6123DBB40067E127FC080047E11
:103CAB00007F288E5D8F5E221233E1120436640989
:103CBB007004FE7F3A227E007F352220180F2019D8
:103CCB000CE55670081237E9F54985F0482290004B
:103CDB0041E0FF3395E0FED3EF9400EE64809480D7
:103CEB00225388CF5389F0438901E4F58CF58A750B
:103CFB00A88222123DCFD3EF9400EE6480948040D3
:103D0B0003E014F0229000407401F0E4900042F0C4
:103D1B009000417418F022300307C2AF0075FBAA64
:103D2B002275FB5500D2AF229000387402F0E5608B
:103D3B007F0070027F028F602290F1297411F09046
:103D4B00F129E0541170F822E4F551F554F553F5CF
:103D5B0052EF04F55522C2AF007596AA75965575AC
:103D6B00978080FE90003AE030E50654DFF0122891
:103D7B002622E5556002D322E554C36001D322E528
:103D8B005564016002C322E4F555D322C2AF00751E
:103D9B0096AA75965553977F22900046E07005EDD5
:103DAB00F0A3EFF022FED3EF9400EE648094802218
:103DBB00D3E56094017480948022E4900047F090E6
:103DCB000046F022900046E0FF3395E0FE22C21E33
:103DDB00E490004AF0A3F022E5556402C37001D3CE
:103DEB0022E4900031F0FF02282690003CE07002A4
:103DFB0004F022123CD94003E014F022301E03A23F
:103E0B000E22A20B225388EFD20C32D3308001C387
:103E1B002202189000133ADA0012002B0010DBD6A6
:103E2B00000FCC1E000ECF6C000DE44B000D09658E
:103E3B00000C3D80000B7F7C000ACE50000A290746
:103E4B0000098EC30008FEB50008781F0007FA5260
:103E5B00000784AE0007169D0006AF9700064F1CA7
:103E6B000005F4B800059FFE0005508B0005060207
:103E7B000004C00D00047E5D000440A9000406ACE4
:103E8B000003D02700039CE100036CA100033F3724
:103E9B00000314720002EC280002C62F0002A2637A
:103EAB000002809F000260C3000242B10002264C58
:103EBB0000020B7B0001F2230001DA2E0001C38705
:103ECB000001AE19000199D2000186A000017472A5
:103EDB000001633A000152EA00014372000134C849
:103EEB00000126DF000119AC00010D250001014185
:103EFB00F5F5EB3AE107D755CE1DC558BD00B50E0C
:103F0B00AD7FA64C9F7098E792AC8CBB871181AAB2
:103F1B007C82779772E46E676A1E6606621C5E5F30
:103F2B005ACB575F541950F84DF84B1A485A45B8AD
:103F3B00433340C83E773C3E3A1D3812361D343B66
:103F4B00326D30B22F082D6F2BE62A6C290127A476
:103F5B002655251323DD22B22193207F1F751E7555
:103F6B000000000000000000000000000000000046
:103F7B0000010001000000000000000003000D0024
:103F8B000009C4000004008500000A280100050296
:103F9B009A00000AF0010006053500000B540100E1
:103FAB00070A6A00000BB801010814D500000C1CAD
:103FBB000101095DC000000D4800010B5DC0000050
:103FCB0009C40001021A0A00420C8000010A5DC0FC
:103FDB00000009C400010C2475000009C400010194
:103FEB00030A090708050B06041F0501160D040239
:013FFB0003C2
:00000001FF
