:0A000000022384E552C36001D322FD
:10000B00023E0CAF55EF3395E0FEEF24FFFFEE34CD
:0E001B00FF123DA34005E55514FF227F002291
:10002B0002002E75C900B20D300D04D20CB20A328B
:10003B000232490203FFE86480F8E933E8336011C8
:10004B000460F0ED33EC337009E8FCE9FDEAFEEBFC
:10005B00FF220460DED3EB9FEA9EE99DE8C2E78CAA
:10006B00F0C2F795F0400CE8CCF8E9CDF9EACEFAFE
:10007B00EBCFFB1203CA85D0F05804700320D5B325
:10008B00E80470075002B2D502040992D5EC046063
:10009B00F7E4CCC0E0C398F8603B94186008400DBF
:1000AB00D0E0FB0203E1E4FBFAC9FC8028E830E472
:1000BB0006E4C9FBE4CAFCE830E305E4C9CACBFC9F
:1000CB00E854076010F8C3E913F9EA13FAEB13FBD2
:1000DB00EC13FCD8F130F52FC3E49CFCEF9BFFEE47
:1000EB009AFEED99FDD0E0FBEF4E4D4C701222DBEA
:1000FB0003020406EC2CFCEF33FFEE33FEED33FD75
:10010B00ED30E7EB0203E1EF2BFFEE3AFEED39FDAD
:10011B00D0E0FB50130BBB0003020409ED13FDEE03
:10012B0013FEEF13FFEC13FC0203E1EC4D6011E83F
:10013B00497017ED33EC3304600DE4FCFFFEFD2238
:10014B00E933E8330470F80203FF1203CA58046062
:10015B0009E4CC24815006285009020409284003E5
:10016B00020406C0E0EB4A7044B98006D0E0FB0203
:10017B0003F5EF4E701CBD8008EBFFEAFEE9FD8036
:10018B00EBE98DF0A4FEE5F002021FE9CDF9EAFEE2
:10019B00EBFFEF89F0A4FCE5F0CE89F0A42EFFE491
:1001AB0035F0CD89F0A42DFEE435F08067EF4E706D
:1001BB0005BD80D780C3EF8BF0A4ACF0EE8BF0A421
:1001CB002CFCE435F0F8EF8AF0A42CE5F038FCE4D5
:1001DB0033CB8DF0A42CFCE5F03BF8EE8AF0A42C8D
:1001EB00FCE5F038F8E433CF89F0A42CFCE5F038CB
:1001FB00CF3400CE89F0A42FFFE5F03EFEE433C9E7
:10020B008DF0A42EFEE5F039CD8AF0A42FFFE5F09A
:10021B003EFEE43DFD33D0E0FB50070BBB000F026D
:10022B000409EC2CFCEF33FFEE33FEED33FD020340
:10023B00E1020409EC5D046005E859047003020354
:10024B00FF1203CA580460F6EC4860F2EC7004FD30
:10025B00FEFF22C860DB2481C85009C3986002509E
:10026B00060204069850CAF582E9294B4A7005AB81
:10027B00820203F575F0007C1A7880C3EF9BEE9A2F
:10028B00ED99400DC3EF9BFFEE9AFEED99FDE84211
:10029B00F0DC23ACF0D0E0FFD0E0FED0E0FDAB8291
:1002AB0020E7101BEB60BAEC2CFCEF33FFEE33FEB8
:1002BB00ED33FD0203E1E803F830E705C0F075F01C
:1002CB0000EF2FFFEE33FEED33FD40B830E7C28079
:1002DB00AA74F8CC6480CCC86480C8F58204604FE3
:1002EB00C3EB9FF5F0EA9E42F0E99D42F0E89C4596
:1002FB00F0603C501DE5825FFFE582D313CB5BCBF7
:10030B00F42B5582FB50280ABA002409B9002008A7
:10031B00801DE5825BFBE582D313CF5FCFF4C31364
:10032B002F5582FF50090EBE00050DBD00010CC3F9
:10033B00EB9FF5F0EA9E42F0E99D42F0E89C45F018
:10034B006007CC4820E701B3EC2275F020800E75D6
:10035B00F010800575F0087D007E007F003392D58C
:10036B0030D50312064AEC334010EF33FFEE33FE69
:10037B00ED33FDEC33FCD5F0ED22E5F0247EA2D578
:10038B0013CC92E7CDCEFF22EDD2E7CD33EC3392F7
:10039B00D524814006E4FFFEFDFC22FCE4CFCECD4C
:1003AB00CC24E0501174FF80EDC3CC13CCCD13CD16
:1003BB00CE13CECF13CF0470F030D5DE02064AE950
:1003CB00D2E7C933E833F892D5EDD2E7CD33EC332E
:1003DB00FC5002B2D522EC30E7100FBF000C0EBE62
:1003EB0000080DBD00040BEB6014A2D5EB13FCED64
:1003FB0092E7FD2274FFFCFDFEFF22E480F8A2D5FC
:10040B0074FF13FC7D80E480EFC2D530F707B2D5C3
:10041B0063F0FF05F030E70CB2D5F4048463F0FF12
:10042B0005F080018430D502F40422BB01068982D9
:10043B008A83E0225002E722BBFE02E32289828AF2
:10044B0083E49322BB010CE58229F582E5833AF51F
:10045B0083E0225006E92582F8E622BBFE06E92559
:10046B0082F8E222E58229F582E5833AF583E4936B
:10047B0022BB010689828A83F0225002F722BBFE3F
:10048B0001F322EF8DF0A4A8F0CF8CF0A428CE8D31
:10049B00F0A42EFE22C2D5EC30E709B2D5E4C39D01
:1004AB00FDE49CFCEE30E715B2D5E4C39FFFE49E60
:1004BB00FE1206EBC3E49DFDE49CFC80031206EBED
:1004CB0030D507C3E49FFFE49EFE22BB0110E582FB
:1004DB0029F582E5833AF583E0F5F0A3E022500994
:1004EB00E92582F886F008E622BBFE0AE92582F8A8
:1004FB00E2F5F008E222E5832AF583E993F5F0A310
:10050B00E99322BB010A89828A83F0E5F0A3F022EA
:10051B005006F709A7F01922BBFE06F3E5F009F325
:10052B001922E88FF0A4CC8BF0A42CFCE98EF0A45C
:10053B002CFC8AF0EDA42CFCEA8EF0A4CDA8F08B59
:10054B00F0A42DCC3825F0FDE98FF0A42CCD35F09F
:10055B00FCEB8EF0A4FEA9F0EB8FF0A4CFC5F02E30
:10056B00CD39FEE43CFCEAA42DCE35F0FDE43CFC99
:10057B002275F008758200EF2FFFEE33FECD33CDE1
:10058B00CC33CCC58233C5829BED9AEC99E582982E
:10059B00400CF582EE9BFEED9AFDEC99FC0FD5F02D
:1005AB00D6E4CEFBE4CDFAE4CCF9A88222B800C1A4
:1005BB00B90059BA002DEC8BF084CFCECDFCE5F011
:1005CB00CBF97818EF2FFFEE33FEED33FDEC33FC58
:1005DB00EB33FB10D703994004EB99FB0FD8E5E401
:1005EB00F9FA227818EF2FFFEE33FEED33FDEC33E3
:1005FB00FCC933C910D7059BE99A4007EC9BFCE972
:10060B009AF90FD8E0E4C9FAE4CCFB2275F010EFAD
:10061B002FFFEE33FEED33FDCC33CCC833C810D7F0
:10062B00079BEC9AE899400AED9BFDEC9AFCE89944
:10063B00F80FD5F0DAE4CDFBE4CCFAE4C8F922C329
:10064B00E49FFFE49EFEE49DFDE49CFC22EB9FF502
:10065B00F0EA9E42F0E99D42F0EC6480C864809819
:10066B0045F022EB9FF5F0EA9E42F0E99D42F0E85F
:10067B009C45F022E8600FECC313FCED13FDEE1369
:10068B00FEEF13FFD8F122E493FC740193FD740287
:10069B0093FE740393FF22ECF0A3EDF0A3EEF0A313
:1006AB00EFF022A8828583F0D083D0821206C51288
:1006BB0006C51206C51206C5E473E493A3C583C52C
:1006CB00F0C583C8C582C8F0A3C583C5F0C583C870
:1006DB00C582C822A42582F582E5F03583F58322F5
:1006EB00BC000BBE0029EF8DF084FFADF022E4CCF3
:1006FB00F875F008EF2FFFEE33FEEC33FCEE9DECBC
:10070B00984005FCEE9DFE0FD5F0E9E4CEFD22ED01
:10071B00F8F5F0EE8420D21CFEADF075F008EF2F4B
:10072B00FFED33FD4007985006D5F0F222C398FD3C
:10073B000FD5F0EA22D3900031E09400900030E026
:10074B00648094804017122C918E248F25C39000C7
:10075B0031E0900030122C7998500C8003900030CF
:10076B00E0F524A3E0F5257F05EFFD3395E0FC7460
:10077B00F72DF582743F3CF583E493FE90002BE05C
:10078B00B5060BE525452470057408F08002DFD90A
:10079B0090002BE0B40D004003020ACF9007AEF897
:1007AB002828730207D802082302086202087E0277
:1007BB0008A702092A020A1D0209FB020A4E020AB5
:1007CB0077020A9C020ABC0207D5023A75C2B2C272
:1007DB00A6C2A5C2A3C216900036E07002A3E070B9
:1007EB0019FFFEFDFC900032E0F8A3E0F9A3E0FA5C
:1007FB00A3E0FB1202DC6011400F122C719000324F
:10080B001206AE00000000D20F122C655003020A34
:10081B00D590002B7401F022D2A3122C5C640370D0
:10082B000A90002CF0A37410F0801FD3E52594E8F8
:10083B00E5246480948340067E037FE88004AE2425
:10084B00AF2590002CEEF0A3EFF0120AD6122C84F9
:10085B0090002B7402F022300F03020AD57F147E16
:10086B0000121E4AD2A690002F7410F090002B7429
:10087B0003F022D2B2122C2660124010122C5C64B0
:10088B00037F0470027F0790002BEFF0122C49407E
:10089B0003020AD57F01123BF0020ACFD2A5300F1B
:1008AB0003020AD5900036E0FAA3E0FBD39400EAEA
:1008BB00648094804048AE24AF257C007D191204DF
:1008CB00A0EF2401F525E43EF524D3E52594C812C9
:1008DB002C6A40067524007525C8C3EB9525FFEAE5
:1008EB009524FE900036F0A3EFF0C3EE6480948065
:1008FB005003122C7190002F7414F0D20F22122C73
:10090B00494004E014F02290002CE0B52409A3E048
:10091B00B525047F0680027F0590002BEFF0223077
:10092B000F03020AD590002CE0FEA3E0FFC3E525E0
:10093B009FFFE5249EFED3EF94A0EE6480948F403E
:10094B0002D217E55F60030209D230177A122C5CD2
:10095B0024F5602314603014603D240370497E003D
:10096B00301C047F0080027F0A90002DE02FF09056
:10097B00002CE03EF0803E90002DE02488F09000AB
:10098B002CE03413F0802E90002DE024DCF090004E
:10099B002CE03405F0801E90002DE024F4F0900044
:1009AB002CE03401F0800E90002DE0240FF090002D
:1009BB002CE03400F0C390002DE090002C122C7929
:1009CB0098400EC217800390002CE524F0A3E52578
:1009DB00F0D20F120AD690002CE065247004A3E02D
:1009EB0065256003020AD5D21690002B7406F022FF
:1009FB00D2A5D20F9000367408F0A37413F0D3E590
:100A0B00259402122C6A5003020AD590002B740411
:100A1B00F022E52564024524700690002B7407F044
:100A2B00E525B4FF0BE524B4FF0690002B740AF008
:100A3B0090002CE065247004A3E065257003020A86
:100A4B00D5807AD2A5C2B2C2A39000367409F0A3A6
:100A5B00745FF09000321206AE00000000D20F90CF
:100A6B00002F7418F090002B7409F0227F9A7E9956
:100A7B007D79122C2B6008400690002FE0704B12F2
:100A8B002C71D20FC2A5C2A690002FF090002BF0B4
:100A9B0022122C84122C5C640B600D7F667E667DAB
:100AAB008A122C2B60025022C2A590002B740BF0E3
:100ABB0022122C654014D2A5122C71D20F90002B50
:100ACB007405F02290002B740CF02290002CE0FEA9
:100ADB00A3E0FF1231099000321206A222123CEA67
:100AEB005003020DEEC206123BC08F24900042E071
:100AFB006009C3940E748094804006900042740683
:100B0B00F0C21B122FB0B40E004003020CD9900B95
:100B1B0020F8282873020B63020B4A020C02020B0B
:100B2B00C9020BD4020C13020C22020C36020C4924
:100B3B00020C5C020C7A020CCA020CAE020CBCE476
:100B4B00F55F123D8A4003020CD912361450030292
:100B5B000CD9123DE8020CD990004EE0700CAF247A
:100B6B0012280BE55F6003020CD9AF2412297DEF2D
:100B7B006003020CD9E52424FC600E2403701C9046
:100B8B000042E0FF1236E28017B2127F07301202EA
:100B9B007F068F57C207121CD48005AF241233284F
:100BAB001237A212000EEF24FE600C046003020C3D
:100BBB00D9123C20020CD9D2157F03020CA9D21BEF
:100BCB00120E2F1237A2020CD9D21B7D03120DEF7E
:100BDB00123D8A4003020CD97F051236E2122FB068
:100BEB0064047003020CD930120312367C9000435C
:100BFB00E04440F0020CD9120E2FAF24123328120E
:100C0B001858121B26020CD97D05120DFFAF2412AA
:100C1B0033287F06020CD67D05120DEFAF2412335D
:100C2B00287F05123D6F7F07020CD67D06120E0F33
:100C3B00AF241233287F08123C377F06802C7D07A8
:100C4B00120E0FAF241233287F09123C377F078017
:100C5B00197D08E4FF12300B122FFA1234F7AF2470
:100C6B001233287F05123C377F08123D6F805F12CD
:100C7B0025DA122FFA1234F77F09123C37122FFAAA
:100C8B00EF64024E600330030A7F063012027F02CC
:100C9B00122549122FFAEF64034E70327F0C122586
:100CAB0049802B7D0C120DFFAF241239767F0D80FE
:100CBB001A7D0D120E1FAF241239767F0B800C7D1F
:100CCB000B120E1FAF241239767F0C123C3790009B
:100CDB0041E07003301D0C900030E4F0A37421F060
:100CEB00020DC5122FB024F524FD500D2404600312
:100CFB00020D83123AFB020DAFE558146019146014
:100D0B002214602B24037031122FDFFF900030E58B
:100D1B00F0F0A3EFF08022900030741AF0A3740A65
:100D2B00F080169000307414F0A374D5F0800A9004
:100D3B0000307405F0A37435F0122FB0640C7008FA
:100D4B00123E034003123002122FB0640D700912D1
:100D5B0029F2EF7003123002122FB0640B705B128A
:100D6B00315AEF24FE60062402704F801090003041
:100D7B00E4F0A37485F0804212364950051230021C
:100D8B008038122FB064027021C3E5499545E544C4
:100D9B006480F8E5486480985006AE48AF498004FB
:100DAB00AE44AF45900030EE800C9000011204D69B
:100DBB00FF900030E5F0F0A3EFF0E54A6020301330
:100DCB0011900030E0FEA3E0FF7C007D031204A035
:100DDB0080047EFF7FFF900030EEF0A3EFF0D20691
:100DEB00123BC022E4FF12300BAF24EF3395E0FE31
:100DFB001234F7227F0112300BAF24EF3395E0FE54
:100E0B001234F722E4FF12300BAF24EF3395E0FEE0
:100E1B001234F7227F0112300BAF24EF3395E0FE33
:100E2B001234F722AF24EF3395E0FE1234F7228F02
:100E3B0027120436FF14601514602814603D1460EB
:100E4B003A2404705C12211412215B8029122114A4
:100E5B00F5827401F52C85822DE582F4F582752ED1
:100E6B00008013122114F4F582752C0085822DED70
:100E7B00F5827401F52E85822F8026ED12215B857C
:100E8B00822FEDF5827401F528858229EF640470B9
:100E9B0007EDFF7401FE8005EDF4FF7E008E2A8FB7
:100EAB002B90000112044F7007EDFF7401FE8005BB
:100EBB00EDF4FF7E008E308F3190000212044F70E4
:100ECB0007EDFF7401FE8005EDF4FF7E00E52714AE
:100EDB007003020F76147003020FF91470030210E3
:100EEB007C24036003021106E528AB9A30E006E58B
:100EFB00294BFD8004E5295BFD8D9AE52A30E0083E
:100F0B0090F00912217B800690F00912218290F05B
:100F1B0009EDF0E52C30E00512216B800690F00A0C
:100F2B0012218990F00AEDF0E52E30E005122173C5
:100F3B00800690F00B12219090F00BEDF0EE30E06C
:100F4B000512219F800890F00CE0FBEF5BFD90F009
:100F5B000CEDF0E53030E005122197800690F00D96
:100F6B001221A6AF0590F00DEDF022E528ABA130D4
:100F7B00E006E5294BFD8004E5295BFD8DA1E52A03
:100F8B0030E00890F01912217B800690F0191221A5
:100F9B008290F019EDF0E52C30E00512216B800604
:100FAB0090F01A12218990F01AEDF0E52E30E00541
:100FBB00122173800690F01B12219090F01BEDF024
:100FCB00EE30E00512219F800890F01CE0FBEF5BF8
:100FDB00FD90F01CEDF0E53030E005122197800616
:100FEB0090F01D1221A6AF0590F01DEDF022E52823
:100FFB00ABA230E006E5294BFD8004E5295BFD8DB6
:10100B00A2E52A30E00890F02912217B800690F0AF
:10101B002912218290F029EDF0E52C30E005122108
:10102B006B800690F02A12218990F02AEDF0E52EC4
:10103B0030E005122173800690F02B12219090F076
:10104B002BEDF0EE30E00512219F800890F02CE0A4
:10105B00FBEF5BFD90F02CEDF0E53030E00512215D
:10106B0097800690F02D1221A6AF0590F02DEDF094
:10107B0022E528ABA330E006E5294BFD8004E529EA
:10108B005BFD8DA3E52A30E00890F03912217B80BF
:10109B000690F03912218290F039EDF0E52C30E01A
:1010AB000512216B800690F03A12218990F03AEDEF
:1010BB00F0E52E30E005122173800690F03B1221F3
:1010CB009090F03BEDF0EE30E008A3E0FDEF4DFF2C
:1010DB00800890F03CE0FDEF5DFF90F03CEFF0E519
:1010EB003030E009A3E0FDE5314DFF800990F03D84
:1010FB00E0FDE5315DFF90F03DEFF02220020A129A
:10110B003231A3F0A3F0C20422123B8D400D1232F8
:10111B000B120436640C6003021293123C9F8E2454
:10112B008F25D31232125003021200E50A9525F5D2
:10113B0027E5099524F526755B18D3E5279402E579
:10114B00266480948050030211E590002C7C087D6E
:10115B00FC123228EF2401F525E43EF524D3E50AF1
:10116B00943CE50964809480400FAE24AF257C004D
:10117B007D0512048E8E248F25123C77C31231FA13
:10118B00501E90003DE0B4012EA3E0B4E029900086
:10119B0040E0241EF090003FE03400123230801704
:1011AB00AC26AD27AE24AF2512048E900040E02F65
:1011BB00F090003FE03EF012320B1232432450FF0E
:1011CB00E5F034FBFED3900040E090003F1232017B
:1011DB004005EEF0A3EFF0755B3CC390003DE0647F
:1011EB008094FD4003021293A3E004F0700690007C
:1011FB003DE004F022C31232124003021293C3E506
:10120B0025950AF527E5249509F526E55B60041578
:10121B005B804F123C77EF2418FFEE34FCFED312A9
:10122B0031FA402090003DE0B4FC37A3E0B44032EB
:10123B00900040E024C4F090003FE034FFF0E490D5
:10124B00003D801BE527547E600FC3900040E09566
:10125B0027F090003FE09526F01232395004E4F06D
:10126B00A3F01232395004E4F0A3F0D390003EE027
:10127B00940090003DE064809403400CA3E024FFB5
:10128B00F090003DE034FFF0228E298F2A8D2B90B9
:10129B00F692E030E708E4FFFEFD7C408008AF1AD1
:1012AB00AE19AD18AC17122F31AC29AD2AEC1203C5
:1012BB005AC004C005C006C007E4FBFA7980784524
:1012CB00AF33AE32AD31AC3012023FD003D002D0CF
:1012DB0001D0001201368F378E368D358C34E52BCD
:1012EB0024FB700302138024F8607224F7604424FB
:1012FB00F76014241E60030213D885371E85361D34
:10130B0085351C85341B22AC29AD2AEC12035AA857
:10131B0004A905AA06AB077F9A7E997D997C451295
:10132B00023F8F2F8E2E8D2D8C2C8F1A8E198D1890
:10133B008C1722752F35752E48752D03752C3E1283
:10134B002F158F168E158D148C13E4FBFA794078BC
:10135B004012023F8F128E118D108C0F22752F7A37
:10136B00752ED3752D9B752C3D122F158F0E8E0D53
:10137B008D0C8C0B22AB37AA36A935A834AF1AAE1D
:10138B0019AD18AC17120041C004C005C006C00748
:10139B00E4FFFE7DA57C43AB37AA36A935A83412F2
:1013AB000136D003D002D001D00012023F122F31F0
:1013BB00E4FBFA797A7844120136122F3112039337
:1013CB007B007A00791F121A398E098F0A22201698
:1013DB0021900025E0FCA3E0FDA3E0FEA3E0FF12BB
:1013EB0039B8500ED21C9000251206AEC120000059
:1013FB0080287FCD7ECC7D4C7C3E1239AD5019E4DC
:10140B00FFFE7D407C411239B8500D7D8012399D15
:10141B0060064004D21C8002C21C123B8D4006E4C5
:10142B0090003CF02290003CE0FF3395E0FEC3EFD0
:10143B009404EE648094805004E004F02290003B0E
:10144B00E0540FF5247FCD7ECC7D8C7C40AB12AA73
:10145B0011A910A80F1202DC600740057F03123B95
:10146B00F07F9A7E997D691239A0501D7F9A7E99E3
:10147B007D997C401239AD6010400E7D02AF241275
:10148B003C088F24E4F525803EE4FFFEFD7C3F12F3
:10149B0039AD50177DB412399D6010400E7D01AFF0
:1014AB0024123C088F24752501801CAF24EF339543
:1014BB00E0FED3EF9400EE648094804006E52414A4
:1014CB00FF80027F008F24E525C454F04524900053
:1014DB003BF0AF24EF3395E0FEC3EF9408EE64804E
:1014EB0094804017E0FF7804A2E713D8FB540F1445
:1014FB0070047F0480027F02123BF022900001E017
:10150B0014B40900400302163090152275F003A4A1
:10151B00C58325F0C5837302153D02154E0215CF09
:10152B000215D50215E30215E9021601021608028F
:10153B00161F900000E06003021630740EF0A374C7
:10154B0002F022900000E0FF7E00D3940C74809494
:10155B008040057557038023D3EF940AEE64809483
:10156B008040057557028013D3EF9408EE64809486
:10157B008040057557018003E4F557D3EF9400EED7
:10158B00648094804003021630AF16AE15AD14ACD8
:10159B00139000101206A2900010122D19FF1203C7
:1015AB0093AB07AA067C007D641204A0EF4E600586
:1015BB0075570780587C007D0AAF03AE021204A05A
:1015CB007D03802F7D047F018030900010122D1938
:1015DB00FF122D487D05801B7D067F02801CE4FFDA
:1015EB00FE7D207C41900010122D04120136122D2D
:1015FB00487D07023B397D087F030232E2122D3C06
:10160B005023122D247F0C60027F008F5990000114
:10161B007409F022E55960030230B512000EEF7029
:10162B0004900001F02290000AE0C3942874809487
:10163B00805069E4FFFE7D7A7C44AB12AA11A9109D
:10164B00A80F1201361203938F278E268D258C241B
:10165B0090000AE004F0122D162527FFEE3526FE2A
:10166B00ED3525FDEC3524FC9000061206A2122D5B
:10167B002DC3122D57500A900002E526F0A3E52743
:10168B00F0900004122D30D3122D57500302172166
:10169B00900004E526F0A3E527F0807A122D16FFC3
:1016AB00C004C005C006C007900004E0FEA3E0FB29
:1016BB00AA06EA3395E0F9F8122D2DEF2BFBEE3A43
:1016CB00FAED39F9EC38F8D007D006D005D004C3C1
:1016DB00EF9BFFEE9AFEED99FDEC98FC122D10FF9F
:1016EB00C006C007A3E024FEFFE434FFAB07FA33C8
:1016FB0095E0F9F8D007D00612336E122D10FFECDF
:10170B00120355E4FBFA797A784412023F90000CED
:10171B001206A2123A9790000BE0FFFD3395E0FC06
:10172B00ED64784C700404F08009EF600690000BB8
:10173B00E004F0900000E0600214F0E5596002153F
:10174B005922200F0302185730112E90F129E05423
:10175B0011600302185790F164E0300E0554EFF05E
:10176B0080034410F090F164E030100554FEF080DB
:10177B00034401F0C20FC21122E4FFFE7DC87C427C
:10178B00123B771202DC600C400A9000321206AE5C
:10179B0042C80000123B721202DC500A9000321257
:1017AB0006AE00000000D3900037E0945F123B863A
:1017BB00948940077409F0A3745FF0C3123B8694BD
:1017CB00805004E4F0A3F0123B721202DC6005407F
:1017DB0003D38001C39210D3900037E09400123BE7
:1017EB008694804003D38001C3920EE4FFFE7DFA02
:1017FB007C45123B77120136E4FBFA798078BF12F5
:10180B0000458F278E268D258C24E4FBFA79C8782A
:10181B004212023F8F278E268D258C24120393AD07
:10182B0007AC06900036E0FAA3E0FBEAFFEF90F17D
:10183B0049F0EB90F148F0ECFFEF90F141F0ED90B7
:10184B00F140F0D21190F129E04411F0223018034D
:10185B000218EA3019030218EAE4900023F0E55865
:10186B0060030219481237D0FFAEF0C31237E850AD
:10187B0068900024E0FD700404F08013ED3395E0D4
:10188B00FCC3ED9409EC64809480500302194890DA
:10189B0000247401F09000051204D6FDACF0D3E5E2
:1018AB00479DEC6480F8E54664809840068C468D35
:1018BB0047800B74322547F547E43546F546D3127E
:1018CB0037E840091237D0F54985F0482274FA25DC
:1018DB0049F549E43548F54822E4900024F022E428
:1018EB00900024F0123DF130190F1237DC9404EE06
:1018FB00648094804003023BA71237DC940AEE64A9
:10190B008094804038D3E549944DE54864809481B8
:10191B00400C74062549F54974FF3548F548D3E565
:10192B004794BEE5466480948A400C74E72547F5DE
:10193B004774FF3546F5469000237401F022E50805
:10194B0064037002F508E50814603E147003021975
:10195B00E9147003021A2924036003021A26D20920
:10196B00123C4DE4F528122EF4501BEF3395E0FE9C
:10197B0074F32FF582743F3EF583E493FD122F0A27
:10198B00EDF0052880E0021A21E4F528122EF45020
:10199B001D122F05E0FF122F3A400F122F44400E5D
:1019AB00EF941FEE648094805004052880DE122E85
:1019BB00F45026122F05E0F527FF3395E0FEEF6478
:1019CB00164E6006EF640D4E7005C209123C4DAF0A
:1019DB002712329675080280457508038040752CD6
:1019EB0000752D00752E277B007A00792512205F5C
:1019FB00EF4E602AAD27AF26AE25121294E4F528E0
:101A0B00122EF45011122F05E0B52706122F0A746F
:101A1B00FEF0052880EA7508018003E4F5089000C4
:101A2B0022E06009E50864036003021949228B3840
:101A3B008A39893A8F3E8E3D8D3C8C3B7FDA7E3ADC
:101A4B007D137C00D312389E400812388C7EFF7FAA
:101A5B00EC22E47F757E1EC312387F500712388C40
:101A6B00FE7F6422740112388DE47FF57EF5D3126C
:101A7B00387F403DE4F53F123896C3EF9437EE6460
:101A8B00809480502CEF7802C333CE33CED8F92418
:101A9B0015F582743E3EF583120692C312389E40B2
:101AAB000C123896EF24ECFFEE34FFFE22053F803C
:101ABB00C6E4F53F123896C3EF943DEE64809480F4
:101ACB005053EF25E0FFEE33FE74F12FF582743E99
:101ADB003EF583E493FE740193FFE48F438E42F54E
:101AEB0041F540E543F543E542F542E4F541F54068
:101AFB00AF3EAE3DAD3CAC3BAB43AA42A941A84087
:101B0B00D312066E500B123896EF2423FFE43EFEE1
:101B1B0022053F809F12388CFEFF22123DD64005D6
:101B2B001200035003D38001C39206122FDFFFAEC6
:101B3B00F0C3E5499FEE6480F8E548648098500A4D
:101B4B00AC48AD49AE04AF0580008E258F269000C2
:101B5B00011204D6FFC3E5269FE5F06480F8E52566
:101B6B00648098500E30060B122FEB4006852544EF
:101B7B008526451200035029201426122FCC400233
:101B8B00802CC3122FEB500A0545E5457011054417
:101B9B008053D213754A04852544852645D214807B
:101BAB0044123DD65037201434122FCC4005E0148C
:101BBB00F08038900003122FE2FFAEF0D3E5459F83
:101BCB00EE122FF1400AE5451545700F1544800BB9
:101BDB00C213754A048E448F45D214800820060B1D
:101BEB00301408C2149000447403F0300604754B93
:101BFB002022E54B7007154BC207121CD42275240B
:101C0B0003752501752601C2087D02E4FF121D92A2
:101C1B00C2087D027F02121D927B007A0079247D1F
:101C2B0004E4FF120E3A7B007A0079247D047F02D4
:101C3B00120E3A7B127D027F02122A657B167D0201
:101C4B00E4FF122A6590F120E4F0A3741DF090F1EB
:101C5B00237401F090F125F090F12A74FFF090F1CC
:101C6B002EF090F122E4F090F127741DF0A3F09088
:101C7B00F160E4F090F165F090F164741DF090F177
:101C8B0031741FF090F130743FF090F1397409F01A
:101C9B0090F138745FF090F141E4F090F149F090DD
:101CAB00F140F090F148F09000321206AE000000C7
:101CBB0000E4900036F0A3F0C211C20F90F166F071
:101CCB0090F126741DF0023D52D208123D20E55FC3
:101CDB0064017F0070027F018F2E854C2F85442B72
:101CEB0085452C7F003012027F018F2D7B007A00FF
:101CFB00792B7D051237148F3020070990004AE0AD
:101D0B00B53002807C200711C3900049E094A99064
:101D1B000048E06480948040247B007A00792A7D1F
:101D2B00007C027F1D1237457B007A00792AE4FD87
:101D3B00FC7F1D123745E4900048F0A3F0E4F52A30
:101D4B00E52A123A0E5026900048E0FEA3E0FF7CF5
:101D5B00007D0612048EEF2BFDEE3AFC742B252A28
:101D6B00F9E4FAFB7F19123745052A80D390004915
:101D7B00E004F07006900048E004F090004AE53073
:101D8B00F0C208123D2022EF14603814605F14700B
:101D9B0003021E2224036003021E4912213E40034C
:101DAB00021E4930080EA8057401088002C333D8FF
:101DBB00FC428022A8057401088002C333D8FCF4CE
:101DCB005280221221295076122135407130080E93
:101DDB00A8057401088002C333D8FC429022A805E1
:101DEB007401088002C333D8FCF4529022122108EC
:101DFB00504C122147404730080EA805740108804B
:101E0B0002C333D8FC42A022A8057401088002C388
:101E1B0033D8FCF452A022ED12210C502130080EC5
:101E2B00A8057401088002C333D8FC42B022AF0569
:101E3B00A8077401088002C333D8FCF452B0228E79
:101E4B00288F29E4F52EF52FE52945287003021E6E
:101E5B00FF052FE52F7002052EAE28AF29EE339527
:101E6B00E0FDFCE47BA07A0FF9F812052D8F2D8E87
:101E7B002C8D2B8C2AC006C007AE2EAF2FAB07AA1A
:101E8B0006EA3395E0F9F8D007D0061205B88F2D86
:101E9B008E2C8D2B8C2AE47FFF7EFFFDFCAB2DAAB5
:101EAB002CA92BA82AC312066E50A6C374FF952D1E
:101EBB00F52D74FF952CF52CE4952BF52BE4952A39
:101ECB00F52AAF2DAE2CAD2BAC2A780812067F8FDE
:101EDB008CE52DFF8F8AC20B438810E58820E50324
:101EEB00300BF85388CFE52F152F7002152EE52FE9
:101EFB00452E70CE22E4F524F525F526FB7D081240
:101F0B001FA87B007D01121FA87D20121F9C75242A
:101F1B00027D02121F9C7B017D01E4FF122A657B6F
:101F2B00017D05E4FF122A657B017D017F03122AE7
:101F3B00657B01E4FD7F03122A6575240375260179
:101F4B00E4FB7D03FF122A657B007A0079247D0870
:101F5B00E4FF120E3AD2087D03E4FF121D9275DFE7
:101F6B004075DE60E4F5E9F5D1F5D375D50F75D481
:101F7B00FF90F69274A0F0E4F50890001A1206AEEA
:101F8B0000000000122F28F0A3F0A304F043DE8022
:101F9B00227B007A007924E4FF120E3A227A007930
:101FAB00247F03120E3A22C20675240CAF57C3EFDF
:101FBB0094057480948050151234795009D21B7596
:101FCB002404D2068007122AD75002D20620067CA0
:101FDB00E5571424FD500F601624FC50282408707C
:101FEB006BE4F5568066AF57123D428F24805DE55A
:101FFB005630E20853568063568080020556E556EC
:10200B0030E749803F53567FAF57EF64076007AF08
:10201B0057EF640670047F0680027F0AD3EF64805B
:10202B00F8E5566480984005E4F557801FAF5605D8
:10203B0056EF75F002120414AFF0EF600FAF57EFCD
:10204B00640670057524088003752404123829AFC3
:10205B0024023DDF8B298A2A892BE5DF30E10280C0
:10206B005090001FE004F0700690001EE004F0900A
:10207B00001AE0F8A3E0F9A3E0FAA3E0FBAFDDEF71
:10208B00FEADDCEDFFEE3395E0FDFCEB2FFFEA3E02
:10209B00FEE93DFDE83CFC90001A1206A2C390003D
:1020AB001FE0940A90001EE064809480500743DF89
:1020BB0002E4FEFF2290001AE0FCA3E0FDA3E0FE89
:1020CB00A3E0FFE47B0AFAF9F812336E90001A12C0
:1020DB0006A290001AA3A3E0FFA3E0AB29AA2AA9AA
:1020EB002BCF8FF012050E900020E0AB2CAA2DA960
:1020FB002E12047CE4900021F0FE7F0122EDFF7E86
:10210B0000D394067480948022EDF4F582758300DD
:10211B0085832885822985832A85822BED22EDFFF5
:10212B007E00D394077480948022C3EF9403748051
:10213B00948022EDD394057480948022C3EF940194
:10214B007480948022FBE434F0FAA8057401082211
:10215B00F4F58275830085832C85822D85832E2251
:10216B00A3E0FBE52D4BFD22A3E0FBE52F4BFD226E
:10217B00E0FBE52B4BFD22E0FBE52B5BFD22E0FBBF
:10218B00E52D5BFD22E0FBE52F5BFD22A3E0FBE5EC
:10219B00314BFD22A3E0FBEF4BFD22E0FBE5315B76
:1021AB00FD22122D24640A600B7529CD7528CC7580
:1021BB00276C8008E4F529F528752760752640E51E
:1021CB005814601E14604514606A24037073AF29A1
:1021DB00AE28AD27AC26122D011202DC50637558C8
:1021EB0001227FCD7ECC7D4C7C3EAB29AA28A92732
:1021FB00A826120045122D011202DC60054003E4F3
:10220B00F558122CFA1202DC503780327FCD7ECC7F
:10221B007D4C7C40122D011202DC60054003755889
:10222B00017433FFFEFD7C40122D011202DC5011B4
:10223B0075580322122CFA1202DC60054003755804
:10224B0002227D01E4FF1237FD4043900051E0254F
:10225B00E0F0308003E004F0900051E0F524AF246F
:10226B00EFF46003EF7027123C8BE4F5B4AF24FE60
:10227B00EFF4D37001C3921AEFF44E7B0170027B23
:10228B0002E4FDFF122F557D01E4FF123B1B301AB8
:10229B0008E55130E703755180E55F7F8270027F5F
:1022AB00858F24301A21E550B5241CAF53EF33959D
:1022BB00E0123DA34005123D618009E4F5537555CD
:1022CB0001755201E4F550201A13E5516484700D29
:1022DB00F551E552700475540122E4F552228B2A14
:1022EB008A2B892CE4F52EF52FD208123D20E4F52C
:1022FB002D123A0C500512235A80F6AB2AAA2BA9A1
:10230B002C7D05123714AB2AAA2BA92C9000051291
:10231B00044FB50713052FE52F7002052EC394A9A3
:10232B00E52E6480948040C6D3E52F9400E52E649F
:10233B008094804008E52F152F7002152EE4F52DA3
:10234B00123A0C500512235A80F6AE2EAF2F22AE46
:10235B002EAF2F7C007D0612048EEF2BFDEE3AFC88
:10236B00AB2AAF2DEF3395E0FEE52C2FF9E52B3E95
:10237B00FA7F11123745052D2278FFE4F6D8FD9030
:10238B0000007F007E04E4F0A3DFFCDEFA758160C1
:10239B000223D902288AE493A3F8E493A34003F61B
:1023AB008001F208DFF48029E493A3F85407240C8E
:1023BB00C8C333C4540F4420C8834004F45680016F
:1023CB0046F6DFE4800B0102040810204080903BAE
:1023DB00D8E47E019360BCA3FF543F30E509541F42
:1023EB00FEE493A360010ECF54C025E060A840B873
:1023FB00E493A3FAE493A3F8E493A3C8C582C8CAF1
:10240B00C583CAF0A3C8C582C8CAC583CADFE9DEC3
:10241B00E780BEEF14602214603C146056240370F6
:10242B007412213E4002806DED24801221508002F7
:10243B00C333D8FC55ACFC80601221295005122106
:10244B003550028050ED24881221508002C333D8BE
:10245B00FC55ADFC80431221085005122147500258
:10246B008033ED24901221508002C333D8FC55AE3B
:10247B00FC8026ED12210C4002801AED2498FBE41F
:10248B0034F0FAAF05A8077401088002C333D8FCF7
:10249B0055AFFC8004E4FEFF22EC7003FEFF228BA1
:1024AB00828A83E05403FF7E0022E4F54A122D62F8
:1024BB00E4FFEFFD3395E0FCC3ED940EEC648094E8
:1024CB0080505D903F6B122FB964027050EF3395C3
:1024DB00E0FC903F70122FB9F546740193F54790CD
:1024EB003F6C122FB9F548740193F549903F6E126A
:1024FB002FB9FC740193FDD39545E5446480F8EC4A
:10250B0064809840048C448D45D3E5459549E54856
:10251B00122FF1400B85484485494580030F80926B
:10252B009000447403F0123DB89000427406F0E43E
:10253B0090003AF0754DFF754E3F754F6B228F280B
:10254B00122FB0FFF52D90000812044FF52CEF64FD
:10255B000A7009123AFB8E2A8F2B8008122FDFF597
:10256B002B85F02AE4F529AF29EF3395E0FEC3EF75
:10257B00940EEE648094805055903F6B75F009EF8C
:10258B001206DFEE122FC16528703F123DB8123DC7
:10259B000E123DCCAF29EF3395E0FE7C007D091286
:1025AB00048E746B2FF9743F3E754DFFF54E894FBA
:1025BB00E52D640A6009E528640A700312394EE5BB
:1025CB002C600BAF2BAE2A0231AB05298099223040
:1025DB001825301622123DF1900023E0FF3395E0D1
:1025EB00FEC3EF940AEE648094804072E4F07F099E
:1025FB003012027F028038301C5F301635E55E707A
:10260B005D90002AE024DFF0900029E034FFF075A4
:10261B005E04D3A3E094DA900029E0648094A15087
:10262B003D7421F0A374DAF07F093012027F0202AD
:10263B0025491237D0FF90002CE0FCA3E0FDC39F8F
:10264B00E5F06480F8EC6480985013755E08900098
:10265B0029ECF0A3EDF0D21622E4900023F0221225
:10266B002D2464027008854624854725800B900035
:10267B00051204D6F52585F0247D7A7C44122CFEB8
:10268B00120136120393D3EF945AEE6480948A406E
:10269B0018D3EF9525E5246480F8EE64809840020A
:1026AB008001D39218C2198004C218D2191221AD1D
:1026BB00AF57D3EF940474809480502F90003AE07E
:1026CB006003022BB7900001E06003021507900036
:1026DB004EE0640170061235DE8F5722122D2470E6
:1026EB0004E55960030230B5E4F55722E4F5DE90BA
:1026FB00F692F090002204F0E4F508FFEFFD33951D
:10270B00E0FCC3ED9405EC648094805015EF339599
:10271B00E0FC74152DF58274003CF58374FEF00F0C
:10272B0080DA90001A1206AE00000000122F28F07B
:10273B00A3F0FB7D017F03122A65E4FBFD7F0312EF
:10274B002A65752403E4F525F526FB7D08122F4E2B
:10275B00120E3A7B007D01122F4E120E3AC208E484
:10276B00FD7F03121D92C2087D017F03121D92C2D1
:10277B00087D03E4FF021D92E51F70057F05023BF8
:10278B00F0A20392077524467525371238D39203AE
:10279B00A20092077524417525371238D39200A2F7
:1027AB000192077524507525281238D392013001F8
:1027BB00077F06123BF0800B90003AE06406700333
:1027CB00123DE812320B90000812044F7003C20244
:1027DB0022123C9F8F24A202920775252B1238D30D
:1027EB009206300603D2022220061490003FE070BE
:1027FB0002A3E0700A90003D12323C5002C202224A
:10280B008F25C21DE55F14602014603914603624D7
:10281B0003706B12393C64054E7003123C62123923
:10282B003C64064E7058023D3112393C64054E70C3
:10283B0003023C621200035003D21D22123D7D5055
:10284B003D7557052212393C64064E7003123D311B
:10285B0012393C64024E7014E55F64027008755FB8
:10286B00037557068006755F0275570712000350F4
:10287B000DE55F64037F0270027F0312332822C2CF
:10288B0005123CD8D2081238551233B2121F00125F
:10289B001C091229051224B51233F5122E91D208F8
:1028AB00123774E4900022F0123E1212224D1226BF
:1028BB006A120AE812278312074012174D300CE8F0
:1028CB00C20C20051C1236AF121107123A30123D02
:1028DB00FA121FB2123061122B481234BAD2058091
:1028EB00C71213D9121631123CFC1235321234377F
:1028FB00122E2D1239C3C20580AE752403E4F525C3
:10290B00752601F55790F12404F090F12C74FFF02B
:10291B00A3F090F1357409F090F137F090F1347425
:10292B005FF090F136F090F126E0440CF01238296C
:10293B0090F129E0540C70F8C2087D037F01121D41
:10294B0092C2087D047F01121D927D101229717DA8
:10295B00081229717B147D047F01122A657B157D7A
:10296B00037F01022A657B007A0079247F01120E16
:10297B003A2290004EE014602314605B24027064D2
:10298B00EFFD3395E0FCED64074C60037F0022E420
:10299B0090004DF07560F0A304F08048EF6015C314
:1029AB00E54C9403748094805006E54C04FF800240
:1029BB007F008F4CE560700790004EF07557051245
:1029CB00000350209000417404F090004E7402F00C
:1029DB00C207121CD4800D1200034008123D8AE47A
:1029EB0090004EF07F012290004CE0B4070050673E
:1029FB00902A02F8282873022A17022A22022A4058
:102A0B00022A46022A56022A22022A5CE490004B32
:102A1B00F07D0B7F01803D7F021239E850037F016F
:102A2B002290004CE0640170067D077F0280257DBB
:102A3B00237F06801F7D237F0380197F061239E8D1
:102A4B0050037F01227D077F0480097D0B7F05806A
:102A5B0003E4FDFF123D977F0022EBF582640260D9
:102A6B006AE58264036064E5826419605ED3E58283
:102A7B00941C748094805053EF14601414602014D1
:102A8B00602F2403704512213E5040ED2400802A14
:102A9B0012212950361221354031ED2410800D12B0
:102AAB00210850271221474022ED2420F528EE80E3
:102ABB000CED12210C5014ED2430F528E434F0F514
:102ACB0027EB541F852882852783F022900001E095
:102ADB006002802F300405752501802A12320B12FB
:102AEB000436640A701D123243FFC390002AE09F24
:102AFB00E5F06480F8900029E06480985005752516
:102B0B00028003E4F525E52514601D1460092402F9
:102B1B007029E4F55A8024AF5AEF3395E0FEEF6449
:102B2B000A4E7004055AD322055AAF5AEF3395E07B
:102B3B00FEEF640D4E7004F55AD322C322E55F708D
:102B4B0013122FB064027002800A120003400B12A2
:102B5B003DD64006E4900043F022900043E0FF5442
:102B6B001FF524FD3395E04D7016EF20E612C007DC
:102B7B00123DD67E8050027E20D0E04E900043F076
:102B8B00900043E054E0F0AF24EF3395E0FEC3EF49
:102B9B009406EE648094805008E020E604052480BF
:102BAB0003E4F524900043E04524F022900038E044
:102BBB00FEA3E0FFC39405EE648094805010C3EF36
:102BCB009403EE64809480504EEF04F557229000EE
:102BDB003AE0FF7E007C007D0612048EEF2405FF99
:102BEB00E43EFE900038E0FCA3E0FDC39FEE648062
:102BFB00F8EC6480985020ED24FBFFEC34FFFE7C56
:102C0B00007D031204A07C007D021204A0ED4C7029
:102C1B0004755701228000E4F557227D60E4FFFE26
:102C2B007C41AB0EAA0DA90CA80B0202DCE4FBFA4B
:102C3B0078421201368F298E288D278C2622900000
:102C4B002FE0FF3395E0FED3EF9400EE6480948089
:102C5B0022AB4DAA4EA94F020436D3E5259400E5CD
:102C6B00246480948022E4900036F0A3F022952512
:102C7B00E5246480F8E06480229000367408F0A3A9
:102C8B00742BF0D20F2220020A900030E0FEA3E05A
:102C9B00FF8049123221900040E02FFF90003FE06F
:102CAB003EFEC3648094805003E4FEFFC39000316A
:102CBB00E09FFF900030E09EFEC3EF94B0EE648087
:102CCB0094845018A3E02450FE900030E034FB9025
:102CDB00003FF0A3CE1232307E047FB0900030E084
:102CEB00B50608A3E0B50703C38001D39204227D88
:102CFB00407C40E4FFFE90000CE0F8A3E0F9A3E079
:102D0B00FAA3E0FB229000061206A2900006E0FC5C
:102D1B00A3E0FDA3E0FEA3E022AB4DAA4EA94F0218
:102D2B000436900002E0FEA3E0FFEE3395E0FDFCDD
:102D3B0022900000E0D394007480948022120393BD
:102D4B007C007D0A1204A0AE04AF0522AB27AA2695
:102D5B00A925A8240206587B007A0079241222E9BF
:102D6B00900048EEF0A3EFF07B007A0079247D050C
:102D7B00123714EF65297031E5277F0060027F0160
:102D8B008F5F85284C852444852545E526C3600146
:102D9B00D3921290004AE529F0900049E004F070BC
:102DAB0018900048E004F08010E4F55F754C0112B8
:102DBB00367CC212D207121CD4C208023D20E4FD9D
:102DCB00FF12241EEF64014E7038C21AE550547F77
:102DDB00FFE4F550E5527004E5556007E4F555F551
:102DEB00528031EFC39405502BAF53EF3395E0FE78
:102DFB00C3EF940AEE6480948050020553755180A2
:102E0B008012D21AE55130E703755180E55020E767
:102E1B00037550807D01E4FF123A5390005174AA60
:102E2B00F022123AB9EF6003123C8BD3E55D9400AC
:102E3B00E55C648094804009E55D155D7047155C29
:102E4B0022123DAE4003E4F55FC2071238FC438704
:102E5B0004438702123CD8D208123855123ADB7F52
:102E6B00017E00121E4A12224D300C0AC20CB20611
:102E7B003006031234BA123D7D50E4D2071238FCEF
:102E8B00E4900022F022752464D2A6D2A3D20612BB
:102E9B0035A87F287E00121E4A123E12E4FFFEFD6B
:102EAB007C41AB16AA15A914A8131202DC602840AA
:102EBB0026D2B2123E127D84122C28600940077F65
:102ECB0007123BF08011122C266002500A7F057E00
:102EDB0000121E4AD524DCC2061235A8123A75E53B
:102EEB002470057F01123BF022AF28EF3395E0FEF3
:102EFB00C3EF9405EE6480948022EF3395E0FE746B
:102F0B00152FF58274003EF58322AB2FAA2EA92D27
:102F1B00A82CAF37AE36AD35AC3402023FE490008F
:102F2B001EF0A3F0A3228F338E328D318C302233DF
:102F3B0095E0FEC36480948022D3EF9416EE6480F8
:102F4B009480227A0079247F0322EBD3122137500D
:102F5B0053EF14601414602014602F240370451277
:102F6B00213E5040ED2480802A1221295036122117
:102F7B00354031ED2488800D12210850271221474E
:102F8B004022ED2490F528EE800CED12210C50140C
:102F9B00ED2498F528E434F0F527EB5403852882CB
:102FAB00852783F022AB4DAA4EA94F02043675F04C
:102FBB0009ED1206DFEC75F009A42583F583E49384
:102FCB0022900044E0FF3395E0FED3EF9400EE64D3
:102FDB0080948022900001AB4DAA4EA94F0204D6DB
:102FEB00E5459526E5256480F8E54464809822AF95
:102FFB0024EF3395E0FE2274FF900030F0A3F02213
:10300B008F258D26752702123DD65004D2068005DA
:10301B00120003920620191075270A301803300688
:10302B0007E4900023F08003123DF1900023E0FFB2
:10303B00D3E5276480F8EF6480984019E52560029A
:10304B008006300606301903023BA7E4900023F0FC
:10305B00AF2612254922122C5CFF7E0064017009F9
:10306B00D3308401C392848038EF64034E7004C262
:10307B0084802E123B8D5004D284802590002EE04C
:10308B00FF3395E0FEC3EF9404EE6480948050050B
:10309B00E004F0800CD3308401C39284E490002EC2
:1030AB00F0122C494003E014F022122D246403701B
:1030BB002EE55864036028900001E06409601A90C3
:1030CB000014E0601414F0E0FF3395E0FED3EF94AE
:1030DB0002EE648094804007229000147452F0E555
:1030EB005814600E14600F1460102403700F755782
:1030FB000322755702227557012275570422AD071B
:10310B00AC06EC12035A122C407BA67A9B79C4783E
:10311B003A122C3D79C8122C38C004C005C006C029
:10312B0007E4FFFE7D7A7C44AB1AAA19A918A817ED
:10313B00120136A804A905AA06AB07D007D006D002
:10314B0005D00412023F122C4079CC122C3822905D
:10315B000045E0601324FE601E1460372402703DAE
:10316B00123CC540207F02229000477437F090003C
:10317B00457402F07F0122900047E014F0123CC826
:10318B0040037F01229000467410F09000457403B9
:10319B00F0800A900046E07004900045F07F00221A
:1031AB008E2E8F2F12320B90000812044F7002805C
:1031BB003412320B123243FBAAF012322190004030
:1031CB00E02F90003FE03EC364809480C3EB952FCB
:1031DB00FFEA952EFE90003FF0A3EFF0C3EE648064
:1031EB0094805007E490003FF0A3F012323122900C
:1031FB00002DE090002C9FEE6480F8E06480982214
:10320B00AB4DAA4EA94F22E50A9525E5246480F81B
:10321B00E5096480982290003D7C007D10E0FEA3C0
:10322B00E0FF0204A0F0E490003DF0A3F022900038
:10323B003FC3E064809480229000010204D6C0E07A
:10324B00C0F0C083C082C085C084C086758600C0B4
:10325B00D075D000C000C001C002C003C004C005BF
:10326B00C006C007122DC975B400D007D006D00513
:10327B00D004D003D002D001D000D0D0D086D084DF
:10328B00D085D082D083D0F0D0E032AB077AFF90DC
:10329B000021E07041EB122F3A403B122F44400AC1
:1032AB00EF941FEE64809480402C90001A1206AEAF
:1032BB0000000000122F28EBF0A37401F0EB30E4B8
:1032CB000543DF80800353DF7F53DEF0EB540F4267
:1032DB00DEDAFE43DF02228F268D27900000E0FF0F
:1032EB007E00BEFF0DBFFF0AAF261238A9E4900087
:1032FB0000F0900000E0FF5403D39401748094809D
:10330B007E004002AE268E57D3EF122D41500DE4B6
:10331B00F557900000740AF0A3E527F0228F2612D0
:10332B00393E64024E701C7F667E667D46123929DB
:10333B00600940077F0A1225498008900042E0FF90
:10334B001236E2AF2612393E64034E70157FCD7EE6
:10335B00CC7D2C123929600740057F0C022549755D
:10336B00570522C2D5E830E70FB2D5E4C39BFBE487
:10337B009AFAE499F9E498F8EC30E717B2D51233DE
:10338B00A41205B8E4C39BFBE49AFAE499F9E49818
:10339B00F880031205B830D50DE4C39FFFE49EFE01
:1033AB00E49DFDE49CFC2275240375250175260123
:1033BB00123A757D081233E37D407F02120E3A7B81
:1033CB00007A0079247D047F03120E3A7D2012339C
:1033DB00E37D10E4FF020E3A7B007A0079247F0232
:1033EB00120E3A7B007A00792422752401E4F5252C
:1033FB00F526FBFDFF122A657B007A0079247D01FF
:10340B00E4FF120E3A7D01E4FF123B1B7B02E4FD4D
:10341B00FF122F5543B904123C8B90005174FFF0EF
:10342B00E4F550F551F553F554F5552290003AE07B
:10343B00FF7E0070059000388030900039E004F07A
:10344B007006900038E004F07C007D0612048EEFCD
:10345B00240FFFE43EFEC3900039E09FEE6480F83A
:10346B00900038E06480984004E4F0A3F022123915
:10347B0045700DAF5FFEC3EF9402748094805007CC
:10348B00E4900052F08026900052E004F0E0FD330F
:10349B0095E0FCED640E4C7008EF64034E7002D3A4
:1034AB0022ED64104C7006900052F0D322C322E43C
:1034BB00FEEEC3940274809480503074502EF8E664
:1034CB0030E725547FFDEE700CE55F7C0560027CD8
:1034DB0002AF0480027F04EDC39F50010DE65480C0
:1034EB00F674502EF8E64DF60E80C6228E258F26EA
:1034FB0030150A12000EEF7015C215801112000E56
:10350B00EF3395E0FEEF64024E7003123C20E55F53
:10351B007008E52664014525700CE55F6005120017
:10352B00034003123BA722AF5EEF1237E11237F5D0
:10353B004002155E9000241237DF1237F5400DEF75
:10354B009409EE648094805003E004F01237DC128F
:10355B0037F5400DEF940BEE648094805003E0043C
:10356B00F022752401E4F525752601E54C30E005C4
:10357B007D0812359CE4FB7D037F01122A65E54C27
:10358B0030E1057D1012359CE4FB7D047F01022A9E
:10359B00657B007A0079247F01120E3A227F00307E
:1035AB0006027FFF90F140EFF07F003006027F08AC
:1035BB0090F149EFF07F003006027F2A90F148EF3F
:1035CB00F0123D5290F164E030060454EEF02244C8
:1035DB0011F022E54CC36001D3921BE54C14601D26
:1035EB0014601D14601D2403701C90004DE07016B8
:1035FB007F011238A990004D7406F080097F0322D9
:10360B007F01227F02227F0022E4FFEFFD3395E052
:10361B00FCC3ED9403EC648094805020EF3395E071
:10362B00FC74FD2DF582743F3CF583E493FE900012
:10363B003AE0FDEEB50502C3220F80CFD322122D47
:10364B002464036006E55864036007E490000BF004
:10365B00801D90000BE0FF700404F08012EF339597
:10366B00E0FED3EF9474EE648094804002D322C3C7
:10367B0022E4FFEFFD3395E0FCC3ED940EEC648088
:10368B009480501F903F6B123A1D64027012EF33FF
:10369B0095E0FC903F6E123A1DF544740193F5458D
:1036AB000F80D022900050E0600314F02290004F66
:1036BB00E0FF3395E0FE74E92FF582743F3EF5830E
:1036CB00E493FF900050F075F00A120414AFF090E1
:1036DB00004FEFF0B21E228F277D39123925600B78
:1036EB004009AF273012027F02800B7D291239254A
:1036FB00600940077F04122549800375570512396D
:10370B004564027003123CB2228B318A3289337FBB
:10371B00FFAB310533E533AA327002053214F912CF
:10372B00043662077E08EF30E70725E06407FF8069
:10373B0004EF25E0FFDEEFDDD8228F31EF64197047
:10374B0005120436F5FEEDF5FCECFFEFF5FD0085FB
:10375B0031FF000000000000E5FF20E0FBE53164D5
:10376B00117005E5FE12047C2275240A123A97E4C7
:10377B00900001F0123E12AF12AE11AD10AC0F90D3
:10378B00000C1206A21221ADD524E9300808122D27
:10379B0024700375590C22123D8A50287F9A7E990A
:1037AB007D297C4090000CE0F8A3E0F9A3E0FAA39C
:1037BB00E0FB1202DC600640047F048004D2157F1C
:1037CB000312254922AB4DAA4EA94F9000010204CA
:1037DB00D6900023E0FF3395E0FED3EF22E5499F1F
:1037EB00EE6480F8E548648098229400EE6480943F
:1037FB008022EF1460111460151460192403701CDF
:10380B00E5AC5D6017D322E5AD5D6010D322E5AE6C
:10381B005D6009D322E5AF5D6002D322C32290F134
:10382B0045301B0DE4F090F147F090F14474FA80B1
:10383B000C7405F090F147F090F1447478F090F12E
:10384B0046F090F129E0440CF022E4200806F5C87C
:10385B0053A8DF22F5CE75CB0B75CADB75CD5D7525
:10386B00CC6643A820F5C975CF80C20CC20AC20D25
:10387B0075C89122FDFCAB3EAA3DA93CA83B0206B4
:10388B006EE4AB38AA39A93A02047CAF3FEF33950B
:10389B00E0FE22AB3EAA3DA93CA83B02066EEFFD23
:1038AB007C00C3940174809480401CD3ED9403740A
:1038BB008094805012123D42123DDF7F147E001225
:1038CB001E4A7F0C123DDF22AF24EF3395E0FED36F
:1038DB00E50A9FEE1232184002D322AF25EF339543
:1038EB00E0FEC3E50A9FEE1232185002C322A20774
:1038FB0022300714121F00121C091229051233B2B1
:10390B00123E12C208023774C208123855123B57C6
:10391B001226F712356D123A75227F9A7E997C40EA
:10392B0090000CE0F8A3E0F9A3E0FAA3E0FB02029D
:10393B00DCAF25EF3395E0FEEF22AB4DAA4EA94F3E
:10394B00020436C2161237D0FF900029E5F0F0A31F
:10395B00EFF07F9A7E997D997CBFAB16AA15A914BF
:10396B00A8131200459000250206A28F2512393E9E
:10397B0064024E70082000057F0A122549AF2512FC
:10398B00393E64034E700A7F063012027F02122505
:10399B004922E4FFFE7C41AB0EAA0DA90CA80B0239
:1039AB0002DCAB1EAA1DA91CA81B0202DCAB16AACB
:1039BB0015A914A8130202DC90004DE0FF3395E02B
:1039CB00FED3EF9400EE648094804003E014F0D3B8
:1039DB00E5609400748094804002156022AB07EB85
:1039EB003395E0FEEF25E0FDEE33FC123DC21204F1
:1039FB00A0EB14D36480F8ED6480984002D322C30B
:103A0B0022E52DFB3395E0FAC3EB9406EA64809430
:103A1B00802275F009ED1206DFEC75F009A4258301
:103A2B00F583E49322AF4BEF122FD14002154BAF2E
:103A3B004AEF122FD14005D54A02C2139000411212
:103A4B002FCF4003E014F022EF14600F1460111419
:103A5B00601324037013EDF452AC22EDF452AD223B
:103A6B00EDF452AE22EDF452AF22C2B2C2A6C2A501
:103A7B00C2A3C284E4900030F0A3F090002CF0A31A
:103A8B00F0C216C217A3F090002BF0229000027424
:103A9B007FF0A374FEF0A37480F0A37402F0E490A3
:103AAB00000AF09000061206AE0000000022900003
:103ABB004EE060037F0122900001E060037F012252
:103ACB00AB4DAA4EA94F1204367F0060027F012234
:103ADB007D01E4FF123A5390005174AAF0D21AE51B
:103AEB005130E703755180E55020E7037550802274
:103AFB00122FDFFDACF0900029E0FEA3E0FFC39D89
:103B0B00EC6480F8EE648098500122AF05AE04227D
:103B1B00EF14600E14600F1460102403700FED424D
:103B2B00AC22ED42AD22ED42AE22ED42AF22122D80
:103B3B003C5018EF4E700574FFF0800AEF25E0251E
:103B4B00E014900000F0900001EDF022E4FB7D0208
:103B5B007F02122A6590F121E4F090F126F090F1AA
:103B6B0025F090F123F022E4FFFEFDFC900032E003
:103B7B00F8A3E0F9A3E0FAA3E0FB22900036E0649F
:103B8B00802290002BE0FFD3940474809480400A31
:103B9B00EF940874809480500122C322122FB0FF3F
:103BAB00601290000712044F6005900042EFF0E4A2
:103BBB00FF12254922E55560037F0022E554700270
:103BCB00FF22AF53300605E4F554F55322C114C15F
:103BDB0013C1154100410041003B00420048000069
:103BEB0041004E000090003AEFF0AB4DAA4EA94FAA
:103BFB00120436640160057F0112254922EFFB3365
:103C0B0095E0FAC3EB9408EA648094805004EF2D9E
:103C1B00FF227F0822900001E0701004F0122D2487
:103C2B006009E4F5579000007408F022900043E01F
:103C3B00FE5480FD3395E04D6007EE547FF0122566
:103C4B00492253DE7F007F002009027FA090F6926D
:103C5B00EFF00043DE80229000417408F0E55F7FB7
:103C6B000070027F018F5FC207021CD412320B124D
:103C7B000436640A70057E107FED227E0B7F752261
:103C8B00123DAE40067E127FC080047E007F288EE0
:103C9B005C8F5D2212320B120436640A7004FE7FB5
:103CAB003A227E007F322220180F20190CE5587023
:103CBB00081237D0F54985F04822900046E0FF33D3
:103CCB0095E0FED3EF9400EE64809480225388CF6E
:103CDB005389F0438901E4F58CF58A75A88222900B
:103CEB00002BE0FF64086005EF64097002D322C368
:103CFB0022123DC2D3EF9400EE648094804003E027
:103D0B0014F0229000457401F0E4900047F090000D
:103D1B00467418F022300807C2AF0075FBAA227553
:103D2B00FB5500D2AF229000417402F0E55F7F009B
:103D3B0070027F028F5F22A8077403088002C333CF
:103D4B00D8FCF4540CFF2290F1297411F090F12956
:103D5B00E0541170F822E4F551F554F553F552EF98
:103D6B0004F55522900043E030E50654DFF01225B0
:103D7B004922E5556002D322E554C36001D322E505
:103D8B005564016002C322E4F555D32290004BE049
:103D9B007005EDF0A3EFF022FED3EF9400EE6480FC
:103DAB00948022D3E55F94017480948022E4900088
:103DBB004CF090004BF02290004BE0FF3395E0FE6F
:103DCB0022C21EE490004FF0A3F022E5556402C31B
:103DDB007001D32290F164E054F34FF022E4900091
:103DEB003AF0FF022549900023E0700204F0221202
:103DFB003CC54003E014F022301E03A20D22A20AA0
:103E0B00225388EFD20B3202194900133ADA00120F
:103E1B00002B0010DBD6000FCC1E000ECF6C000D5C
:103E2B00E44B000D0965000C3D80000B7F7C000A04
:103E3B00CE50000A290700098EC30008FEB5000802
:103E4B00781F0007FA52000784AE0007169D000684
:103E5B00AF9700064F1C0005F4B800059FFE000548
:103E6B00508B000506020004C00D00047E5D0004AB
:103E7B0040A9000406AC0003D02700039CE100031B
:103E8B006CA100033F37000314720002EC28000200
:103E9B00C62F0002A2630002809F000260C30002D3
:103EAB0042B10002264C00020B7B0001F223000101
:103EBB00DA2E0001C3870001AE19000199D200016F
:103ECB0086A0000174720001633A000152EA0001FE
:103EDB004372000134C8000126DF000119AC000158
:103EEB000D2500010141F5F5EB3AE107D755CE1D44
:103EFB00C558BD00B50EAD7FA64C9F7098E792AC30
:103F0B008CBB871181AA7C82779772E46E676A1EDD
:103F1B006606621C5E5F5ACB575F541950F84DF81A
:103F2B004B1A485A45B8433340C83E773C3E3A1D7E
:103F3B003812361D343B326D30B22F082D6F2BE605
:103F4B002A6C290127A42655251323DD22B22193A0
:103F5B00207F1F751E750000000000000000000090
:103F6B000000000000000001000100000000000044
:103F7B00000004001000000A5A00000300020000B9
:103F8B0009C4000005008500000A28010006029AFA
:103F9B0000000AF0010007053500000B5401000872
:103FAB000A6A00000BB801010914D500000C1C01B2
:103FBB00010A573D00000D4800010C573D00000958
:103FCB00C40001021A0A00420C8000010B573D008D
:103FDB000009C400010D2475000009C4000101068D
:103FEB00090408050203070B1F0501160D0704053D
:053FFB00060B040203A7
:00000001FF
