:09000000020779010402A2A22208
:10000B000227AA4100580041005D00410024000076
:0D001B0090002DE0FCE4716F90001BC1C34C
:10002B0002279FD1C390002EE0FCA3E0FDA3E0FECE
:10003B00A3E0FF22900020C1C3AB2FAA30A931222D
:10004B0002214D02040FE86480F8E933E8336011B4
:10005B000460F0ED33EC337009E8FCE9FDEAFEEBEC
:10006B00FF220460DED3EB9FEA9EE99DE8C2E78C9A
:10007B00F0C2F795F0400CE8CCF8E9CDF9EACEFAEE
:10008B00EBCFFB1203DA85D0F05804700320D5B305
:10009B00E80470075002B2D502041992D5EC046043
:1000AB00F7E4CCC0E0C398F8603B94186008400DAF
:1000BB00D0E0FB0203F1E4FBFAC9FC8028E830E452
:1000CB0006E4C9FBE4CAFCE830E305E4C9CACBFC8F
:1000DB00E854076010F8C3E913F9EA13FAEB13FBC2
:1000EB00EC13FCD8F130F52FC3E49CFCEF9BFFEE37
:1000FB009AFEED99FDD0E0FBEF4E4D4C701222DBDA
:10010B0003020416EC2CFCEF33FFEE33FEED33FD54
:10011B00ED30E7EB0203F1EF2BFFEE3AFEED39FD8D
:10012B00D0E0FB50130BBB0003020419ED13FDEEE3
:10013B0013FEEF13FFEC13FC0203F1EC4D6011E81F
:10014B00497017ED33EC3304600DE4FCFFFEFD2228
:10015B00E933E8330470F802040F1203DA58046031
:10016B0009E4CC24815006285009020419284003C5
:10017B00020416C0E0EB4A7044B98006D0E0FB02E3
:10018B000405EF4E701CBD8008EBFFEAFEE9FD8015
:10019B00EBE98DF0A4FEE5F002022FE9CDF9EAFEC2
:1001AB00EBFFEF89F0A4FCE5F0CE89F0A42EFFE481
:1001BB0035F0CD89F0A42DFEE435F08067EF4E705D
:1001CB0005BD80D780C3EF8BF0A4ACF0EE8BF0A411
:1001DB002CFCE435F0F8EF8AF0A42CE5F038FCE4C5
:1001EB0033CB8DF0A42CFCE5F03BF8EE8AF0A42C7D
:1001FB00FCE5F038F8E433CF89F0A42CFCE5F038BB
:10020B00CF3400CE89F0A42FFFE5F03EFEE433C9D6
:10021B008DF0A42EFEE5F039CD8AF0A42FFFE5F08A
:10022B003EFEE43DFD33D0E0FB50070BBB000F025D
:10023B000419EC2CFCEF33FFEE33FEED33FD020320
:10024B00F1020419EC5D046005E859047003020423
:10025B000F1203DA580460F6EC4860F2EC7004FD00
:10026B00FEFF22C860DB2481C85009C3986002508E
:10027B00060204169850CAF582E9294B4A7005AB61
:10028B008202040575F0007C1A7880C3EF9BEE9A0E
:10029B00ED99400DC3EF9BFFEE9AFEED99FDE84201
:1002AB00F0DC23ACF0D0E0FFD0E0FED0E0FDAB8281
:1002BB0020E7101BEB60BAEC2CFCEF33FFEE33FEA8
:1002CB00ED33FD0203F1E803F830E705C0F075F0FC
:1002DB0000EF2FFFEE33FEED33FD40B830E7C28069
:1002EB00AA74F8CC6480CCC86480C8F58204604FD3
:1002FB00C3EB9FF5F0EA9E42F0E99D42F0E89C4586
:10030B00F0603C501DE5825FFFE582D313CB5BCBE6
:10031B00F42B5582FB50280ABA002409B900200897
:10032B00801DE5825BFBE582D313CF5FCFF4C31354
:10033B002F5582FF50090EBE00050DBD00010CC3E9
:10034B00EB9FF5F0EA9E42F0E99D42F0E89C45F008
:10035B006007CC4820E701B3EC2275F020800E75C6
:10036B00F010800575F0087D007E007F003392D57C
:10037B0030D50312063BEC334010EF33FFEE33FE68
:10038B00ED33FDEC33FCD5F0ED22E5F0247EA2D568
:10039B0013CC92E7CDCEFF22EDD2E7CD33EC3392E7
:1003AB00D524814006E4FFFEFDFC22FCE4CFCECD3C
:1003BB00CC24E0501174FF80EDC3CC13CCCD13CD06
:1003CB00CE13CECF13CF0470F030D5DE02063BE94F
:1003DB00D2E7C933E833F892D5EDD2E7CD33EC331E
:1003EB00FC5002B2D522EC30E7100FBF000C0EBE52
:1003FB0000080DBD00040BEB6014A2D5EB13FCED54
:10040B0092E7FD2274FFFCFDFEFF22E480F8A2D5EB
:10041B0074FF13FC7D80E480EFC2D530F707B2D5B3
:10042B0063F0FF05F030E70CB2D5F4048463F0FF02
:10043B0005F080018430D502F40422BB01068982C9
:10044B008A83E0225002E722BBFE02E32289828AE2
:10045B0083E49322BB010CE58229F582E5833AF50F
:10046B0083E0225006E92582F8E622BBFE06E92549
:10047B0082F8E222E58229F582E5833AF583E4935B
:10048B0022BB010689828A83F0225002F722BBFE2F
:10049B0001F322EF8DF0A4A8F0CF8CF0A428CE8D21
:1004AB00F0A42EFE22C2D5EC30E709B2D5E4C39DF1
:1004BB00FDE49CFCEE30E715B2D5E4C39FFFE49E50
:1004CB00FE120700C3E49DFDE49CFC8003120700B1
:1004DB0030D507C3E49FFFE49EFE22BB0110E582EB
:1004EB0029F582E5833AF583E0F5F0A3E022500984
:1004FB00E92582F886F008E622BBFE0AE92582F898
:10050B00E2F5F008E222E5832AF583E993F5F0A3FF
:10051B00E99322E88FF0A4CC8BF0A42CFCE98EF0AD
:10052B00A42CFC8AF0EDA42CFCEA8EF0A4CDA8F050
:10053B008BF0A42DCC3825F0FDE98FF0A42CCD3514
:10054B00F0FCEB8EF0A4FEA9F0EB8FF0A4CFC5F07E
:10055B002ECD39FEE43CFCEAA42DCE35F0FDE43C77
:10056B00FC2275F008758200EF2FFFEE33FECD33C2
:10057B00CDCC33CCC58233C5829BED9AEC99E58209
:10058B0098400CF582EE9BFEED9AFDEC99FC0FD595
:10059B00F0D6E4CEFBE4CDFAE4CCF9A88222B80085
:1005AB00C1B90059BA002DEC8BF084CFCECDFCE550
:1005BB00F0CBF97818EF2FFFEE33FEED33FDEC3374
:1005CB00FCEB33FB10D703994004EB99FB0FD8E5F9
:1005DB00E4F9FA227818EF2FFFEE33FEED33FDEC42
:1005EB0033FCC933C910D7059BE99A4007EC9BFC38
:1005FB00E99AF90FD8E0E4C9FAE4CCFB2275F010C4
:10060B00EF2FFFEE33FEED33FDCC33CCC833C810E8
:10061B00D7079BEC9AE899400AED9BFDEC9AFCE816
:10062B0099F80FD5F0DAE4CDFBE4CCFAE4C8F92263
:10063B00C3E49FFFE49EFEE49DFDE49CFC22EB9F44
:10064B00F5F0EA9E42F0E99D42F0EC6480C86480CC
:10065B009845F022EB9FF5F0EA9E42F0E99D42F0BF
:10066B00E89C45F022E8600FECC313FCED13FDEEA4
:10067B0013FEEF13FFD8F122BB010DE58229F582A2
:10068B00E5833AF5830207615007E92582F80207F3
:10069B0055BBFE07E92582F802076DE58229F58235
:1006AB00E5833AF5830206B3E493FC740193FD747E
:1006BB000293FE740393FF22ECF0A3EDF0A3EEF094
:1006CB00A3EFF022A8828583F0D083D0821206E6B6
:1006DB001206E61206E61206E6E473E493A3C5835C
:1006EB00C5F0C583C8C582C8F0A3C583C5F0C58353
:1006FB00C8C582C822BC000BBE0029EF8DF084FF59
:10070B00ADF022E4CCF875F008EF2FFFEE33FEECE2
:10071B0033FCEE9DEC984005FCEE9DFE0FD5F0E909
:10072B00E4CEFD22EDF8F5F0EE8420D21CFEADF008
:10073B0075F008EF2FFFED33FD4007985006D5F00D
:10074B00F222C398FD0FD5F0EA22E6FC08E6FD087D
:10075B00E6FE08E6FF22E0FCA3E0FDA3E0FEA3E03B
:10076B00FF22E2FC08E2FD08E2FE08E2FF2278FF2E
:10077B00E4F6D8FD9000007F007E04E4F0A3DFFCDC
:10078B00DEFA7581330207CE0208C3E493A3F8E4C3
:10079B0093A34003F68001F208DFF48029E493A3CE
:1007AB00F85407240CC8C333C4540F4420C88340E7
:1007BB0004F456800146F6DFE4800B0102040810B6
:1007CB0020408090000EE47E019360BCA3FF543F59
:1007DB0030E509541FFEE493A360010ECF54C025EE
:1007EB00E060A840B8E493A3FAE493A3F8E493A3DE
:1007FB00C8C582C8CAC583CAF0A3C8C582C8CAC542
:10080B0083CADFE9DEE780BEC2D5E830E70FB2D599
:10081B00E4C39BFBE49AFAE499F9E498F8EC30E72B
:10082B0017B2D51208491205A9E4C39BFBE49AFA47
:10083B00E499F9E498F880031205A930D50DE4C3C7
:10084B009FFFE49EFEE49DFDE49CFC220000000063
:10085B000000000000000000010B220C40B1999A2F
:10086B0000020200020B861940D9999A010103017B
:10087B00030C4E2D4108000002010402040CB23897
:10088B004113333303010503050D164641266666F6
:10089B0004010103060D7A644140000005010000CC
:1008AB00070BB8464126666602010000080B8664FA
:1008BB004140000001020000C20A122773122559A1
:1008CB001219A2121A8C121F8F1227BC1219CFF1F8
:1008DB00A612246E12233B122CBAD20C1211CB127D
:1008EB001AB3121035122A3C1216E33123121D7D56
:1008FB003010EC200A1012221312280812256C1249
:10090B002D8DD20A800E122D771228BD121C0B12C0
:10091B002D2DC20AC21080C7E533B4070040024137
:10092B00F5900933F8282873020948020987020950
:10093B00A4020A160209C8020A35020AD0122E05B1
:10094B00B1D6700E900025120033EC4D4E4F700255
:10095B0041F59000601206CF00000000E4900024E7
:10096B00F0900032E0FFA3E090005ECFF0A3EFF039
:10097B00D2077F013013027F028F332230070241EF
:10098B00F512003090002912002E121B2BD207906B
:10099B00002474FFF07533022230070241F59000FA
:1009AB0024E0600314F022D2A37F057E00121138DD
:1009BB00D2853013047533032275330422122E05AE
:1009CB00B1D6600C900025120033EC4D4E4F7003E6
:1009DB0075330630070241F5900034120033900056
:1009EB0029B1D6400B900034120033121B2B8034EC
:1009FB00900024E0600314F02290002912003312BF
:100A0B002DD3900029120033022E5E122E05B1D683
:100A1B00600C900025120033EC4D4E4F7003753374
:100A2B0006122DF9753305D20722122E05B1D660A9
:100A3B000C900025120033EC4D4E4F7003753306AE
:100A4B0020140241F530070241F51214526406607E
:100A5B0028122DF920130B900034120033121B2B8C
:100A6B00800A9000601206CF000000009000341244
:100A7B000033122DDED2078049900024E06003146E
:100A8B00F022201338900029120033122DD390003E
:100A9B0034120033900029B1D6600B40099000341A
:100AAB00120033122DDE900029120033122E5E90AD
:100ABB000034120033900029B1D6500622122DF9C2
:100ACB00D207C21422C285121134C2A3121FE390A3
:100ADB0000601206CF00000000D20790002912061A
:100AEB00CF00000000C214E4F533227D01E4FF8F38
:100AFB000C120446FF14601514602814603D14603A
:100B0B003A2404705B122DBE122E198029122DBEB1
:100B1B00F5827401F511858212E582F4F582751365
:100B2B00008013122DBEF4F582751100858212ED33
:100B3B00F5827401F5138582148025ED122E19852B
:100B4B008214EDF5827401F50D85820EEFB4040766
:100B5B00EDFF7401FE8005EDF4FF7E008E0F8F100C
:100B6B0090000112045F7007EDFF7401FE8005ED2C
:100B7B00F4FF7E008E158F1690000212045F700733
:100B8B00EDFF7401FE8005EDF4FF7E00E50C1470A3
:100B9B0002813114700281B4147002A137240360F6
:100BAB0002A1C1E50DAB9A30E006E50E4BFD8004CA
:100BBB00E50E5BFD8D9AE50F30E00890F009122EE3
:100BCB0057800690F009122E5090F009EDF0E511C8
:100BDB0030E005122E31800690F00A122E4990F06B
:100BEB000AEDF0E51330E005122E29800690F00B8C
:100BFB00122E4290F00BEDF0EE30E005122E7980C4
:100C0B000890F00CE0FBEF5BFD90F00CEDF0E515C0
:100C1B0030E005122E6A800690F00D122E72AF0591
:100C2B0090F00DEDF022E50DABA130E006E50E4B9B
:100C3B00FD8004E50E5BFD8DA1E50F30E00890F023
:100C4B0019122E57800690F019122E5090F019EDB4
:100C5B00F0E51130E005122E31800690F01A122EBD
:100C6B004990F01AEDF0E51330E005122E298006BD
:100C7B0090F01B122E4290F01BEDF0EE30E00512BF
:100C8B002E79800890F01CE0FBEF5BFD90F01CEDE3
:100C9B00F0E51530E005122E6A800690F01D122E3D
:100CAB0072AF0590F01DEDF022E50DABA230E00622
:100CBB00E50E4BFD8004E50E5BFD8DA2E50F30E0EC
:100CCB000890F029122E57800690F029122E509082
:100CDB00F029EDF0E51130E005122E31800690F091
:100CEB002A122E4990F02AEDF0E51330E005122E72
:100CFB0029800690F02B122E4290F02BEDF0EE3067
:100D0B00E005122E79800890F02CE0FBEF5BFD9054
:100D1B00F02CEDF0E51530E005122E6A800690F010
:100D2B002D122E72AF0590F02DEDF022E50DABA339
:100D3B0030E006E50E4BFD8004E50E5BFD8DA3E573
:100D4B000F30E00890F039122E57800690F03912D0
:100D5B002E5090F039EDF0E51130E005122E318078
:100D6B000690F03A122E4990F03AEDF0E51330E090
:100D7B0005122E29800690F03B122E4290F03BED8F
:100D8B00F0EE30E008A3E0FDEF4DFF800890F03C63
:100D9B00E0FDEF5DFF90F03CEFF0E51530E009A3CF
:100DAB00E0FDE5164DFF800990F03DE0FDE5165D99
:100DBB00FF90F03DEFF022AB2FAA30A9319000034A
:100DCB0012045FFCE412036F90001BE0F8A3E0F940
:100DDB00A3E0FAA3E0FB0202ECC20B3001101228D5
:100DEB00694008122956EF7002C2017F0022C3909E
:100DFB00005AE094B2121519948C505B20132D12EB
:100E0B002E0EB1D660264024900020120033122EF5
:100E1B003912005112003F122E0EB1D6500A90001B
:100E2B00201206CF41080000D20B802B3013281262
:100E3B002E92B1D36021401F90001B12003312265B
:100E4B0060120023122E92B1D3500A90001B12068F
:100E5B00CF42200000D20B1228694002C1E790005C
:100E6B0001E07002A3E06002C1F87E003013047F42
:100E7B000580027F37122E8020132F1216D7900079
:100E8B0020B1D65025900020120033122E391200BB
:100E9B005512003F1216D7900020B1D660084006BD
:100EAB001216D712003FD20BE177201302E177B174
:100EBB00C24002E17790001B1200337B0A7AD7798C
:100ECB0023783C120055120023B1C2600B4009126B
:100EDB0000441217EC12001FD20BE1771228B4401A
:100EEB0002E170900001E07002A3E060109000023C
:100EFB00E024FFF0900001E034FFF0806F7E0030C3
:100F0B0013047F0580027F37122E8020132F1200CF
:100F1B0030900020B1D66025402390002012003382
:100F2B00122E3912005190002012002E900020B189
:100F3B00D6500612003012003FD20B802F30132CEC
:100F4B0090002DE0B1CE6024402290001B120033A4
:100F5B0012266012002390002DE0B1CE5003120038
:100F6B001BD20B8007E4900001F0A3F0300B06902E
:100F7B0000007420F07F00300B027F0122EF146021
:100F8B000E14600F1460102403700FED42AC22EDB1
:100F9B0042AD22ED42AE22ED42AF22121E85C2853A
:100FAB00C2A3121E74122E897F0251FA7509017B9E
:100FBB000051F6122759308004C2138002D21375E8
:100FCB0009037B007A00790951F6121FDB1206CF59
:100FDB00000000009000341206CF000000009000CB
:100FEB00251206CF00000000E4F533221200301268
:100FFB00003F12001BC203D205C204C20222EF142F
:10100B0060111460151460192403701CE5AC5D604D
:10101B0017D322E5AD5D6010D322E5AE5D6009D339
:10102B0022E5AF5D6002D322C3227D047F0211094A
:10103B00403A900069E025E0F030A203E004F09024
:10104B000069E0FFF46003EF7022122D86E4F5B621
:10105B00BFFF03C38001D392157B01BFFF027B024D
:10106B007D027F02121FF37D04120F88301508E5F5
:10107B001930E703751980301526E518B48521D38F
:10108B00E51B64809480400CAF1BEF3395E0FE12A0
:10109B0028328009E4F51B751D01751A01E4F5185A
:1010AB00201513E519B4840EE4F519E51A700475CF
:1010BB001C0122E4F51A2275080C1218D54387047B
:1010CB004387020000000000001227B0EF602612D9
:1010DB00277312213A12212C7F017E0031381135F2
:1010EB0030100AC210B20B300B031228081227FB68
:1010FB0050E6021A79E50860041508802575080B7F
:10110B00121A8C121F78F1F8C39454EE6480948BEE
:10111B005005F1F21219A21218B6122D1EE4F51E8B
:10112B00F51FE51F451E6095227F0A7E008E0F8FEF
:10113B0010E4F515E510450F607C0515AE0FAF10EB
:10114B00EE3395E0FDFCE47BA07A0FF9F812051E57
:10115B0031C2C007AF15AB07E4FAF9F8D007120597
:10116B00A931C2E47FFF7EFFFDFCAB14AA13A912C9
:10117B00A811D312065F50C2C374FF9514F51474F3
:10118B00FF9513F513E49512F512E49511F511AFD4
:10119B0014AE13AD12AC1178081206708F8CE514D7
:1011AB00FF8F8AC20E438810E58820E503300EF8C6
:1011BB005388CFD515D9228F148E138D128C1122F3
:1011CB0075090A122CFCE490004DF0121F78F1F80F
:1011DB00122AABD509F5300C1F9000587412F03061
:1011EB0002167F0451047FC87E0031387F045104FE
:1011FB007509303134D509FB22EF24FE600E24FE35
:10120B0060102403701AC2A4D281800AD2A4C281B6
:10121B008004D2A4D2817F147E003138C2A4C28153
:10122B0022122956EF700241D024FE602314602352
:10123B0024FE60572404600241D59152600241D5CF
:10124B00F1A6B119948B40047F01807F753208227F
:10125B00022C4A9152FF6407701E20016DEF640748
:10126B00706890002DE0120DCE701D1200309000B2
:10127B0020120DD660548010F1D9B119948B500403
:10128B00753207227F0751D6022D6020043C915204
:10129B007038301335200032D200122328600640FC
:1012AB0004D2028007D3300201C392022002047FD2
:1012BB0002800C7F0151047F1E7E0031387F01516B
:1012CB0004C20CA120300002C200228F1091526583
:1012DB00106026E4F511E511F1C9B51015E511758E
:1012EB00F00CA42457F9740835F0752FFFF53089ED
:1012FB0031220511E511B409DD228F09E4F50C91BA
:10130B0052F50AF50B24FA700261B714700261B042
:10131B00240760028134512CE509B4080C20040920
:10132B00D204753209C20CB120E509B4050C2003B7
:10133B0009753208D203C20CB12012285C5015205B
:10134B001208F1D9B119948B5004F1B680047F07C0
:10135B0051D6D201E509B4030EB1039840067F08BC
:10136B0051D68003753207E50964077022D39000CC
:10137B005AE094B8B119948B40153005028001D313
:10138B0092057F023005027F015104C20CB120E5AA
:10139B0009640160028134201207900003E0FF8191
:1013AB0032F1B68134120DE48F0C807DE509B40364
:1013BB0009B1039840737F0851D6E5096402701890
:1013CB00900016E06012900014E07002A3E0700829
:1013DB00D1D7D1B3A3E014F090001FE030E7119008
:1013EB000019E0FF51D690001FE0547FF04440F00D
:1013FB0090001FE0FF30E53154DFF0900019E0B4AE
:10140B00071CD2149000341206CF411B33339000CB
:10141B00251206CF428C0000D2017F078009900075
:10142B001FE04440F07F0551D69152B50A04AF0935
:10143B00915B12284EE50C60037F01229152650BE4
:10144B007F0060027F0122AB2FAA30A93102044634
:10145B008F0D9152FFB40604C20B800AEFB408043F
:10146B00C20B8002D20B300B43E50D6402703D7F43
:10147B0006F1C0B10E984004D1588030F1A6B119D5
:10148B00948B4022750E05E50E122DE4C3B1109816
:10149B004009E50EF1C9FF51D68011150EE50ED3AB
:1014AB00940150E3800691527002F1B69152600A9A
:1014BB00512CE50DB4010312292C90001FE0FF30D5
:1014CB00E705547FF0D11490001FE030E51154DF95
:1014DB00F012004490000B12045FFF600251D61211
:1014EB00004490000912045F600D5402FF90000845
:1014FB0012045FFD122870227F08D100EF245EFFDB
:10150B00EE3401FED390005AE09FEE6480F8900019
:10151B0059E0648022E4FFD20DB1EF3003010F30AC
:10152B00050343070230020343070430020343075A
:10153B000890004AEFF090001B120033900042120B
:10154B0006C39000201200339000461206C37B01A5
:10155B007A0079427D0912272890004BEFF0200C7E
:10156B000E900066E0FF90004BE0B5070280732001
:10157B000C0FC3900065E09465900064E09400400C
:10158B001D7B007A00790F7D007C027F1D1226FAED
:10159B00E4FC7F1D1226FAE4900064F0A3F0E4F55E
:1015AB000F900064122A347D0A12049EEF250FFD62
:1015BB00EC3EFC7442250FF9E43400FA7B017F19F1
:1015CB001226FA050FE50FC3940A40D5900065E08B
:1015DB0004F07006900064E004F090004BE0900083
:1015EB0066F0C20D300D07C2AF0075FBAA2275FB6A
:1015FB005500D2AF22E4FEEEF1C9B50704EE022D81
:10160B00E40EBE09F2E4FEFF22120044F1AE601AB2
:10161B00F1C0FEC3B11098500A91526401600B7F68
:10162B00018005120044F1AE51D622EF14600F1465
:10163B00601114601324037013EDF452AC22EDF41B
:10164B0052AD22EDF452AE22EDF452AF229152FF85
:10165B009000196003F080037401F0EF64077030A1
:10166B00122E0F120DD6600A400890002012003384
:10167B0080031223BC9000081206C3F1E1120DD3B4
:10168B00600A400890001B1200338012F1E1800EBB
:10169B007F05D1D5900008F1E9FCE412036F9000AF
:1016AB00041206C37F06D1D590000C1206C390001E
:1016BB000312045FFCE412036F9000101206C39038
:1016CB0000147403F0A37420F02251D6AB2FAA3070
:1016DB00A9319000040206831228408F0890000362
:1016EB00E06005D3940540069000037401F0900070
:1016FB0019E0FF6003B406069000197401F0300383
:10170B0034E508B40519753209C203F1A6B1199471
:10171B008B400690001A740CF0C20CB1208013128F
:10172B002956BF0205122C4A80081227FB5003755D
:10173B00320702284E90001AE06011D214120030CA
:10174B009000341206C390002DE08044AF08710561
:10175B00EF6002D214915224FA601714702B900090
:10176B00201200339000341206C390001B1200337A
:10177B0080239000101200339000251206C39000B6
:10178B000C120033900034800FD1DD900034F1E95E
:10179B00FCE412036F9000250206C3D390005AE0BD
:1017AB0094222290000A12045FFF22900058E070EE
:1017BB0003740EF022D100EF2432FFE43E2275F0C9
:1017CB000CA42457F582E43408F583E49322C390E8
:1017DB00005AE094EA22E4FFFE7D487C4222120686
:1017EB00C390000302045FE4F5BDF5BC22900059E1
:1017FB00EEF0A3EFF022EF14603614605F1470026A
:10180B0001932403600201B5EDD39405400201B5A9
:10181B00300C0EA8057401088002C333D8FC42803B
:10182B0022A8057401088002C333D8FCF45280222D
:10183B00EDD394075074EDC39403406E300C0EA897
:10184B00057401088002C333D8FC429022A80574AA
:10185B0001088002C333D8FCF4529022EDD39406D6
:10186B005048EDC394014042300C0EA8057401089A
:10187B008002C333D8FC42A022A805740108800261
:10188B00C333D8FCF452A022EDD39406501C300C79
:10189B000EA8057401088002C333D8FC42B022F1B4
:1018AB00EB8002C333D8FCF452B022E4F5DE90F6A1
:1018BB0092F0FB3133750903E4F50AF50BD1751280
:1018CB000AFAC20C7D057F020101122CBAE4F5C89D
:1018DB0053A8DF311111B6F1AFC2A4C281E4F532C6
:1018EB00D17CC390005AE09454121519948B401577
:1018FB00300512750901D188F1D4FB7A0079097D85
:10190B0002FF120AFA22E4FB7D03FF31370D313758
:10191B0090F1287411F090F121E4F090F126F09001
:10192B00F125F090F123F0227D057F02EB6402603C
:10193B0065EB64036060EB6419605BEBD3941C5044
:10194B0055EF14601514602314603124037047EDB8
:10195B00D394055041ED2400802BEDD394075036E2
:10196B00EDC394034030ED2410801AEDD394065050
:10197B0025EDC39401401FED24208009EDD394067F
:10198B005014ED2430F50DE434F0F50CEB541F85B9
:10199B000D82850C83F022D185C2A4C281FB7D040C
:1019AB007F023137E47D01FF31377A0079097D10F1
:1019BB007F02120AFA7B007D02E4FF120AFAE4D1DD
:1019CB007CF53222750903750A01750B01C284C2BD
:1019DB00837B007A0079097D10E4122E89E4FF12D3
:1019EB000AFA90F120E4F0A37411F090F123740142
:1019FB00F090F125F090F12A74FFF090F12EF09019
:101A0B00F122E4F090F1277411F0A3F090F160E46F
:101A1B00F090F165F090F1647411F090F131741F56
:101A2B00F090F130743FF090F1397409F090F13887
:101A3B00745FF090F141E4F090F149F090F140F0D7
:101A4B0090F148F09000601206CF00000000F1E327
:101A5B00C209C20790F166F090F126741DF0122CAA
:101A6B00AB7B167D03E4FF31377B120D2137518C95
:101A7B0031CF31A2120FA651B3C20C1211CB0217E8
:101A8B00F2E4F509F50AF50BD1747F02120AFA7B21
:101A9B0001313375DF4075DE60E4F5E9F5D1F5D33F
:101AAB0075D50F75D4FF7118750F2D750EA6750DA5
:101ABB0033750C3E7F0BD199712212024F8F268EFC
:101ACB00258D248C232002028011E4FBFAF9784047
:101ADB00AF26AE25AD24AC2312024F8F2A8E298D53
:101AEB00288C2753DE7F90F692E4F043DE807F1F35
:101AFB00D18F122BF07F9A7E997D997C4512024FE4
:101B0B0071EE8F2E8E2D8D2C8C2B53DE7F90F692BB
:101B1B0074A0F043DE8022AB0FAA0EA90DA80C22F5
:101B2B00B16E8C087F147EAE7D3F7C419102120218
:101B3B00EC6010400E750F14750EAE750D3F750CE5
:101B4B004180297F337E337DA37C4091021202ECCE
:101B5B00500E750F33750E33750DA3750C40800C3D
:101B6B00850B0F850A0E85090D85080CE4FFFE7D9C
:101B7B00807CBF71221200557B767AE079DC783E4F
:101B8B0071EB71227F547E527D977C401200517114
:101B9B00EEAB2EAA2DA92CA82B12024F71EEE4FB53
:101BAB00FA79C8784271EBE4FFFEFDFC7122120258
:101BBB00EC5009E4F50FF50EF50DF50CB17571222E
:101BCB001202EC600D400BE4F50FF50E750DC875A8
:101BDB000C42AF0FAE0EAD0DAC0C9000600206C305
:101BEB001201468F0F8E0E8D0D8C0C22E0FEA3E0A2
:101BFB00FFEE3395E0FDFCAB0BAA0AA909A808225E
:101C0B00900057E0C394285045F17AB16E8C089040
:101C1B000057E004F0900053F16D250BFFEE350AF1
:101C2B00FEED3509FDEC350891EF90004F71F7C3D0
:101C3B00120649500590004F91F690005171F7D361
:101C4B00120649500281DE90005191F681DE900020
:101C5B0053120033C004C005C006C007900051E00A
:101C6B00FEA3E0FBAA06EA3395E0F9F890004FE0FB
:101C7B00FEA3E0FFEE3395E0FDFCEF2BFBEE3AFA13
:101C8B00ED39F9EC38F8D007D006D005D004C3EF06
:101C9B009BFFEE9AFEED99FDEC9891EF900053129D
:101CAB000033C006C007A3E024FEFFE434FFAB07FC
:101CBB00FA3395E0F9F8D007D00612081391F0909B
:101CCB000053A3A3E0FFA3E0900059CFF0A3EFF0E4
:101CDB00122CFC90004CE0600214F0900058E06075
:101CEB000214F022FC9000530206C3E50AF0A3E5B0
:101CFB000BF022201302800CB175900025120DD62B
:101D0B00600F400DE4F50BF50A7509C875084280A4
:101D1B000D900025F16DF50B8E0A8D098C08B153D2
:101D2B007B007AF079157845120146B15C8C087FFF
:101D3B00007EF07D157C4591021202EC5005B153EB
:101D4B000203A37E097F5F22AF0BAE0AAD09AC087D
:101D5B00228F0B8E0A8D098C08E4FBFA79C8784226
:101D6B0012024F8F0B8E0A8D0922E4FFFE7DC87C79
:101D7B004222200702C16130092D90F129E0541154
:101D8B006002C16190F164E030060554EFF080030E
:101D9B004410F090F164E030080554FEF0800344E9
:101DAB0001F0C207C20922B175900060120DD66016
:101DBB000C400A9000601206CF42C80000D16B1293
:101DCB000DD6500A9000601206CF00000000D162C1
:101DDB00E4FCFD7B5F7A09F9F8C3120649500A90BF
:101DEB00005E7409F0A3745FF0D16B120DD6600521
:101DFB004003D38001C3920890005EE07002A3E021
:101E0B00C36001D39206E4FFFE7DFA7C459000602F
:101E1B00122BF9F16478BF120055B15C8C081203D8
:101E2B00A3AD07AC06ECFFEF90F141F0ED90F14064
:101E3B00F0D162C3745F9FFD74099EFC4D7002C2AA
:101E4B0006ECFFEF90F149F0ED90F148F0D20990DC
:101E5B00F129E04411F02290005EE0FEA3E0FF22A6
:101E6B00E4FFFEFDFC90006022FB7A0079097D20E7
:101E7B0022900068F0900067F022750903E4F50AE0
:101E8B00750B0122D1CDAC06AD07EC02036AAB0793
:101E9B0090F692E030E70CE4F513F512F51175109E
:101EAB0040800C852E13852D12852C11852B10AFA0
:101EBB0003D18FAB13AA12A911A810F164784502B4
:101ECB00024FAB077AFFC3EB64809480400FD3EBD8
:101EDB0064809496400BEB6480949F5004E4FEFF67
:101EEB0022E4F517F516F515F514EB30E40543DF91
:101EFB0080800353DF7F53DEF0EB540F42DEDAFEBC
:101F0B00E4FBFA43DF02E5DF20E1FBAFDC8F8275F8
:101F1B008300AFDDEFFEEEF583AF823395E0FDFC82
:101F2B00E5172FF517E5163EF516E5153DF515E505
:101F3B00143CF5140BBB00010AEB64064A70C4AFEA
:101F4B0017AE16AD15AC14E47B06FAF9F8120813AC
:101F5B008F178E168D158C1422120146E4FBFA791D
:101F6B008022E0FCA3E0FDA3E0FEA3E02251B3E45A
:101F7B00FFFE7D7A7C44AB2AAA29A928A827120147
:101F8B00460203A37508C812113451B3E4FFFE7D5A
:101F9B002012232E6002500BD508EC753202122250
:101FAB001380FB22C285C2A3F1DB1206CF00000017
:101FBB00009000341206CF0000000090002512069E
:101FCB00CF00000000E4F5332275BCFF75BDBF22C6
:101FDB00C280C21490002922E490005EF0A3F0228C
:101FEB00AF05A80774010822EBD394035055EF14E7
:101FFB00601514602314603124037047EDD39405EE
:10200B005041ED2480802BEDD394075036EDC394D3
:10201B00034030ED2488801AEDD394065025EDC390
:10202B009401401FED24908009EDD394065014EDDC
:10203B002498F50CE434F0F50BEB5403850C8285F6
:10204B000B83F022EF14602214603D1460582403BC
:10205B007072EDD394054002806AED248011E48008
:10206B0002C333D8FC55ACFC805EEDD3940750060D
:10207B00EDC394035002804CED248811E48002C31D
:10208B0033D8FC55ADFC8040EDD394065006EDC320
:10209B0094015002802EED249011E48002C333D8BA
:1020AB00FC55AEFC8022EDD3940640028016ED2445
:1020BB0098FBE434F0FA121FEB8002C333D8FC55C3
:1020CB00AFFC8004E4FEFF22EC7003FEFF228B8248
:1020DB008A83E05403FF7E0022FBE434F0FAA80568
:1020EB00740108227D027F02114FEF64014E702FA5
:1020FB00C215E518547FFFE4F518E51A7004E51DC9
:10210B006007E4F51DF51A8018EFC394055012C350
:10211B00E51B648094885002051B75198080023181
:10212B003A7D047F0212163690006974AAF022D20F
:10213B0015E51930E703751980E51820E7037518C5
:10214B008022C0E0C0F0C083C082C085C084C0863E
:10215B00758600C0D075D000C000C001C002C0039E
:10216B00C004C005C006C00711EF75B600D007D07C
:10217B0006D005D004D003D002D001D000D0D0D0EF
:10218B0086D084D085D082D083D0F0D0E032C2AF5D
:10219B00007596AA75965575978080FE2230020CB5
:1021AB00201309C202C20C1215203199301304718D
:1021BB00BC80087F337E337D8B7C40713060214047
:1021CB001F7F327E00121138E5087F0160027F000D
:1021DB008F08E5087F0160027F028F32511380E187
:1021EB0020022471286020401ED202C20C1215203E
:1021FB00750828E5087F0030E0027F018F32F15926
:10220B005113D508EE319922F1605017900067E019
:10221B00C36480948C5005E004F0800CE49000675C
:10222B00F0610FE4900067F0E532B40A0040026100
:10223B0013902243F828287302226102226B022298
:10224B007002228F02227502228F0222770222CA8B
:10225B000222CA0222CAC2A4C281E4900068F02200
:10226B00C2A4D28122D2A4C28122801371147F8096
:10227B0060027F00900068EFF071187002610FD25E
:10228B00A4D28122C281900068E0FF547FFEE53228
:10229B007D00B403027D03C3ED7120500C0EEF548F
:1022AB0080900068F04EF0800D71147F8060027F8B
:1022BB0000900068EFF07114C36001D392A42290D8
:1022CB000068E0547FF0E53264086005E532B4093C
:1022DB00047F0680027F0A900068E0FED3EF712036
:1022EB004004E4F53222900068E0FF04F0EF75F053
:1022FB0002120424AFF0EF600BE532B40903D28174
:10230B0022D2A422C2A4C28122900068E05480FF92
:10231B003395E04F226480F8EE648098227F337E01
:10232B00337D8B7C40AB26AA25A924A8230202EC83
:10233B00D20B121AB320040431A8802420130730C7
:10234B000204C20B801A30020C71BC713060064063
:10235B0004C20B800B200208712860044002C20BE0
:10236B00200B1B7F0F7E00121138D3300B01C39251
:10237B000B7F01300B027F028F32511380E522203D
:10238B00032EA204920B120FF7300B02D204C20CD5
:10239B00121520C20D1215EF750D64753206121150
:1023AB003451131200065002150DE50D70F03199E2
:1023BB00227F9A7E997D097C4122750DFFC20D12F9
:1023CB0015EF753203150DE50D600712113451131E
:1023DB0080F321997B017A007938D16B900064EE00
:1023EB00F0A3EFF07B017A0079387D09F12890009A
:1023FB0041E06F705D900040E0C330E301D3920485
:10240B00900040E0C330E201D39202900040E0C361
:10241B0030E101D39205900040E0C330E001D3924C
:10242B000390003812003312002390003C1200334B
:10243B0012003F900041E0900066F0900065E004D0
:10244B00F07006900064E004F01200064010718AF0
:10245B00800C120FF7D203D20C12152071C5C20DCE
:10246B000215EF752FFF7530087531579000037407
:10247B0001F0C203C200E490001AF0900001F0A337
:10248B00740AF0C201E4900000F09000167406F09C
:10249B00A31216CDE4F508E5081217C9FBB4010E1B
:1024AB00B13E90002DF0B12990002E1206C3EBB473
:1024BB00060EB12990000CB13BFCE412036FB16620
:1024CB00E5081217C9B40512B129900008B13BFCFD
:1024DB00E412036F9000041206C30508E5086409B3
:1024EB0070B571DF90002DE0FFE48F0CF50BF50A52
:1024FB00F509AF0CAE0BAD0AAC097B5F7A09F9F8A5
:10250B0012051EB150E47B64FAF9F81205A9B1501B
:10251B00E50B547FFE900032EEF0A3EFF022E508BE
:10252B0075F00CA4245BF582E43408F5830206B342
:10253B001206C3E50875F00CA4245AF582E434089E
:10254B00F583E493228F0C8E0B8D0A8C0922C2AF7C
:10255B00007596AA75965553977F22900010020628
:10256B00C31214526406602B900016E064067002CE
:10257B00C15FA3E07002A3E0600C900018E024FFA1
:10258B00F090001780219000171216CD900016E0E6
:10259B0004F022900014E07002A3E0600F9000158D
:1025AB00E024FFF0900014E034FFF022201352904F
:1025BB000008120033A3120DD66012401090000CCD
:1025CB00120033D16090000C1206C38031900019B9
:1025DB00E0B40725900008120033A31206C3900045
:1025EB000C120033900020120DD6500990000C12E3
:1025FB00003312003F7F0780027F051212D6D214E0
:10260B0022900004120033900010120DD660174078
:10261B00159000101200337B0A7AD77923783D127C
:10262B000051B166802C900019E0B4072090000493
:10263B00120033B166900010120033120DD3500903
:10264B009000101200331200237F0780027F0512C7
:10265B0012D6D214227B0A7AD77923783C02005106
:10266B008B0D8A0E890FE4F511F512D20D1215EFB1
:10267B00E4F510D1CF40FCAB0DAA0EA90F7D09F1EB
:10268B0028AB0DAA0EA90F90000912045FB5071312
:10269B000512E51270020511C39465E5116480946F
:1026AB008040CDD3E5129400E511648094804008FE
:1026BB00E512151270021511E4F510D1CF40FCAEE6
:1026CB0011AF1222AE11AF127C007D0A12049EEFE5
:1026DB002510FDEC3EFCAB0D7E00E50F2510F9EE51
:1026EB00350EFA7F11D1FA0510E510C3940A228F2B
:1026FB0013E513B41905120446F5FEEDF5FCECFFDA
:10270B00EFF5FD008513FF000000000000E5FF2042
:10271B00E0FBE513B41105E5FE12048C228B138A42
:10272B001489157FFFAB130515E515AA1470020567
:10273B001414F912044662077E08EF30E70725E010
:10274B006407FF8004EF25E0FFDEEFDDD8227F2852
:10275B007E0002113890004DE06002C32212145229
:10276B00B40803D38001C3225388CF5389F0438924
:10277B0001E4F58CF58AF5CE75CB0B75CADB75CDFF
:10278B005D75CC66F5C975CF8075A8A2C210C20F56
:10279B0075C8912275C900B20F300F02D210325397
:1027AB0088EFD20E3220A2037F0122E5B65404FF3C
:1027BB0022750801E4F509F50AFB7D027F02121967
:1027CB00377A0079087D04120AFA7D047F02120F12
:1027DB00887B027D02121FF343B904122D869000F1
:1027EB006974FFF0E4F518F519F51BF51CF51D22BE
:1027FB00E51D6002D322E51CC36001D322E4FE7405
:10280B00182EF8E630E71B547FFDEE7F0470027F35
:10281B0005EDC39F50010DE65480F674182EF8E6B3
:10282B004DF60EBE02D922E4F519F51CF51BF51A6F
:10283B00EF04F51D22E51D7004E51C70037F0022DB
:10284B00AF1B22E51C6009E51B6005E4F51CF51BBD
:10285B0022E51D64016002C322E4F51DD322E51AB3
:10286B00C36001D3228D0F7E0211B45004D20C80B1
:10287B00041169920C20120F7E0A301103300C07E1
:10288B00E490006AF08002312390006AE0D39E400E
:10289B0017EF60028006300C05301202212CE490F9
:1028AB00006AF0AF0F1212D622E51DB40202D3223A
:1028BB00C322121452B4070280081169400B11B4E1
:1028CB004007E490001FF080467F063013027F0E16
:1028DB00AB0790001FE0FE541FFD7012EE20E60EBA
:1028EB0011B47C8050027C20EE4C90001FF09000C5
:1028FB001FE054E0F0C3EB6480F8ED648098500760
:10290B00E020E6030D8002E4FD90001FE04DF09007
:10291B00001AE0600214F02290006AE0700204F0EA
:10292B0022121452FF6023D394055005900003EF3D
:10293B00F09000341206CF00000000900025120624
:10294B00CF00000000E4FF1212D622E51D14FFD3C6
:10295B00648094804001227F002290004DE014B4EB
:10296B0009004002413090297F75F003A4C58325EF
:10297B00F0C5837302299A0229AA0229BF0229C52D
:10298B000229E10229E70229F60229FC022A189002
:10299B00004CE060024130740FF0A37402F02291FE
:1029AB00248F3290004CE0707C51317D641204B066
:1029BB007D0380357D047F02803551317D641204A7
:1029CB00B090005BECF0FEA3EDF0FF7C007D0A12F3
:1029DB0004B07D0580137D067F04801351317D0A81
:1029EB001204B0AE04AF057D0781057D087F018120
:1029FB007A90004CE0702E71C15005121452700683
:102A0B009000587412F090004D7409F022E490007D
:102A1B005BF0A3F0900058E0600261CF3156EF708D
:102A2B000490004DF02290005BE0FEA3E0FF7C00E1
:102A3B0022900059E0FEA3E0FFD39404EE6480944F
:102A4B008B4033301211D3EF94B8EE6480948B40EB
:102A5B0002C212C21180231200449000011204E63C
:102A6B00FFD390005AE09FE5F012151698400280B4
:102A7B0001D392118004C211D21251ABE532D3941F
:102A8B0006501C90004DE06002216571C15005128B
:102A9B0014527006900058E0600261CFE4F53222C8
:102AAB00E4FFFE7DA07C41900025120DD6500A90CC
:102ABB00003A1206CF00000000E4FFFE7DA07CC1AF
:102ACB0090002571F912005590003A1206C3E4FBF1
:102ADB00FA79A0784290003A12003312024FE4FBCD
:102AEB00FA7996784312014671F07F007E407D673C
:102AFB007C4512005190003A1206C390003A120026
:102B0B00331203A3900038EEF0A3EFF090004EE0E9
:102B1B0014601C1460471460722403600261AF716F
:102B2B00B0C312151098507C90004E7401F02271B6
:102B3B00B024C8FDE43EFC900059E0FAA3E0FBD3BF
:102B4B009DEC71B94005E490004EF0EF2438FFEE98
:102B5B0034FFFEC3EB9FEE71B95049804171B090C9
:102B6B000059E0FCA3E0FDD39FEE6480F8EC648099
:102B7B0098400690004E7401F0C3ED9486EC64808F
:102B8B00948B502090004E7403F022900039E02477
:102B9B0038FF900038E034FF12150E984006900075
:102BAB004E7402F022900038E0FEA3E0FF22648016
:102BBB00F8EA64809822E53324FD24FD500280025C
:102BCB00D322C32290004EE014600E14600F1460E9
:102BDB00102403700F7532012275320422753202F4
:102BEB002275320322A804A905AA06AB0722E0F836
:102BFB00A3E0F9A3E0FAA3E0FB2290004CE07018ED
:102C0B00EF4E70057480F0800AEF25E025E01490FC
:102C1B00004CF090004DEDF02290004CE0FFD3946F
:102C2B00094019EF24F8C31314FF3395E0FE740326
:102C3B002FF58274003EF583E493FF227F002290F0
:102C4B00004DE0702904F071C1500DE53260069023
:102C5B00004C7408F0E4F532121D75AB26AA25A9B9
:102C6B0024A823121F8990005BEEF0A3EFF0228FB4
:102C7B00088D0990004CE030E708121204E4900034
:102C8B004CF090004CE0FF7E0030E102AE088E323B
:102C9B00EF700CF53290004C740AF0A3E509F022AA
:102CAB0090F1297411F090F129E0541170F822433E
:102CBB009A0443A11843A24043A3075380F85390AF
:102CCB00E753A08053B0F890F00A91F290F01AE01D
:102CDB0054E7F0A3E054E7F090F02AE05480F0A31F
:102CEB00E05480F090F03AE054F8F0A3E054F8F0A0
:102CFB002290004F747FF0A374FEF0A37480F0A3B6
:102D0B007402F0E4900057F09000531206CF0000CD
:102D1B00000022900016E0C3648094865003E00408
:102D2B00F022121452B4072C900000E0FFD3648001
:102D3B0094814004E014F022EFB40118E4900000F9
:102D4B00F0C390005AE094B8121519948B4005C249
:102D5B000C12152022D20112003012003F90002DD0
:102D6B00E0FCE412036F90001B0206C390006AE0C4
:102D7B006008C3940B5003E004F022751E00751F0E
:102D8B002822B1ABEF6002B186D3E51F9400E51E9C
:102D9B0094004009E51F151F7002151E220210C278
:102DAB0090004DE060037F01221214527F006002FD
:102DBB007F0122EDF4F58275830085830D85820EEC
:102DCB0085830F858210ED227BCD7ACC79CC783D33
:102DDB001200559000290206C375F00CA42458F577
:102DEB0082E43408F583E493FE740193FF22121CF2
:102DFB00FE90005EEEF0A3EFF022E4FFFEFDFC90F0
:102E0B00003422E4FFFE7D087C4190002022F4F583
:102E1B008275830085831185821285831322A3E03B
:102E2B00FBE5144BFD22A3E0FBE5124BFD227BCD12
:102E3B007ACC794C783D22E0FBE5145BFD22E0FB7C
:102E4B00E5125BFD22E0FBE5105BFD22E0FBE510EC
:102E5B004BFD22121B2B9000247405F0D20722A3EA
:102E6B00E0FBE5164BFD22E0FBE5165BFD22A3E044
:102E7B00FBEF4BFD22900001EEF0A3EFF022FF12CF
:0F2E8B000AFA7B007D0822E4FFFE7D207C4222B4
:00000001FF
